:0430000081EF18F054
:10300800E534E534E534E534400CE534400CE5348A
:103018001D34E534DF34E534E534E534E534E534AE
:10302800E034400C400C400CE534E534E534E5343C
:10303800E534E534E5340432E030E534E534F331A1
:103048005034D234E534E534400C400CE534E534F2
:10305800E534E534E534400CE534E534D131C32BAF
:103068002334E534E534E534E534E534E534E53452
:1030780002340934E62D082B400CE534E231F02BFC
:10308800E534E534E534E534E534E534E534E53470
:10309800E534E534E534E534400CE534400C400CC7
:1030A8002934E534E534E534E534E534E534E5340C
:1030B800E534E534E5342E31E534E534E534E534FA
:1030C800E534E534E534E534E534E534E534E53430
:1030D800E534E534E534E534E534E534E534E53420
:1030E800400CE534E534E534400C400C400C400C11
:1030F800E534E534E534E534FF00ECEF54F0000046
:10310800C0C101C30302C2C60607C705C5C404CCB3
:103118000C0DCD0FCFCE0E0ACACB0BC90908C8D8E3
:103128001819D91BDBDA1A1EDEDF1FDD1D1CDC14A3
:10313800D4D515D71716D6D21213D311D1D010F073
:103148003031F133F3F23236F6F737F53534F43CF3
:10315800FCFD3DFF3F3EFEFA3A3BFB39F9F83828C3
:10316800E8E929EB2B2AEAEE2E2FEF2DEDEC2CE4E3
:103178002425E527E7E62622E2E323E12120E0A053
:103188006061A163A3A26266A6A767A56564A46C33
:10319800ACAD6DAF6F6EAEAA6A6BAB69A9A8687863
:1031A800B8B979BB7B7ABABE7E7FBF7DBDBC7CB423
:1031B8007475B577B7B67672B2B373B17170B05033
:1031C8009091519353529296565797559594549C73
:1031D8005C5D9D5F9F9E5E5A9A9B5B995958988843
:1031E8004849894B8B8A4A4E8E8F4F8D4D4C8C4463
:1031F80084854587474686824243834181804000D3
:10320800C1814001C0804101C0804100C1814001AD
:10321800C0804100C1814000C1814001C08041019E
:10322800C0804100C1814000C1814001C08041008F
:10323800C1814001C0804101C0804100C18140017D
:10324800C0804100C1814000C1814001C08041006F
:10325800C1814001C0804101C0804100C18140005E
:10326800C1814001C0804101C0804100C18140014D
:10327800C0804100C1814000C1814001C08041013E
:10328800C0804100C1814000C1814001C08041002F
:10329800C1814001C0804101C0804100C18140001E
:1032A800C1814001C0804101C0804100C18140010D
:1032B800C0804100C1814000C1814001C0804100FF
:1032C800C1814001C0804101C0804100C1814001ED
:1032D800C0804100C1814000C1814001C0804101DE
:1032E800C0804100C1814000C1814001C0804100CF
:1032F800C1814001C0804101C0804100C1814000BE
:10330800C0C101C30302C2C60607C705C5C404CCB1
:103318000C0DCD0FCFCE0E0ACACB0BC90908C8D8E1
:103328001819D91BDBDA1A1EDEDF1FDD1D1CDC14A1
:10333800D4D515D71716D6D21213D311D1D010F071
:103348003031F133F3F23236F6F737F53534F43CF1
:10335800FCFD3DFF3F3EFEFA3A3BFB39F9F83828C1
:10336800E8E929EB2B2AEAEE2E2FEF2DEDEC2CE4E1
:103378002425E527E7E62622E2E323E12120E0A051
:103388006061A163A3A26266A6A767A56564A46C31
:10339800ACAD6DAF6F6EAEAA6A6BAB69A9A8687861
:1033A800B8B979BB7B7ABABE7E7FBF7DBDBC7CB421
:1033B8007475B577B7B67672B2B373B17170B05031
:1033C8009091519353529296565797559594549C71
:1033D8005C5D9D5F9F9E5E5A9A9B5B995958988841
:1033E8004849894B8B8A4A4E8E8F4F8D4D4C8C4461
:1033F80084854587474686824243834181804000D1
:10340800C1814001C0804101C0804100C1814001AB
:10341800C0804100C1814000C1814001C08041019C
:10342800C0804100C1814000C1814001C08041008D
:10343800C1814001C0804101C0804100C18140017B
:10344800C0804100C1814000C1814001C08041006D
:10345800C1814001C0804101C0804100C18140005C
:10346800C1814001C0804101C0804100C18140014B
:10347800C0804100C1814000C1814001C08041013C
:10348800C0804100C1814000C1814001C08041002D
:10349800C1814001C0804101C0804100C18140001C
:1034A800C1814001C0804101C0804100C18140010B
:1034B800C0804100C1814000C1814001C0804100FD
:1034C800C1814001C0804101C0804100C1814001EB
:1034D800C0804100C1814000C1814001C0804101DC
:1034E800C0804100C1814000C1814001C0804100CD
:1034F800C1814001C0804101C0804100C1814000BC
:10350800C0C101C30302C2C60607C705C5C404CCAF
:103518000C0DCD0FCFCE0E0ACACB0BC90908C8D8DF
:103528001819D91BDBDA1A1EDEDF1FDD1D1CDC149F
:10353800D4D515D71716D6D21213D311D1D010F06F
:103548003031F133F3F23236F6F737F53534F43CEF
:10355800FCFD3DFF3F3EFEFA3A3BFB39F9F83828BF
:10356800E8E929EB2B2AEAEE2E2FEF2DEDEC2CE4DF
:103578002425E527E7E62622E2E323E12120E0A04F
:103588006061A163A3A26266A6A767A56564A46C2F
:10359800ACAD6DAF6F6EAEAA6A6BAB69A9A868785F
:1035A800B8B979BB7B7ABABE7E7FBF7DBDBC7CB41F
:1035B8007475B577B7B67672B2B373B17170B0502F
:1035C8009091519353529296565797559594549C6F
:1035D8005C5D9D5F9F9E5E5A9A9B5B99595898883F
:1035E8004849894B8B8A4A4E8E8F4F8D4D4C8C445F
:1035F80084854587474686824243834181804000CF
:10360800C1814001C0804101C0804100C1814001A9
:10361800C0804100C1814000C1814001C08041019A
:10362800C0804100C1814000C1814001C08041008B
:10363800C1814001C0804101C0804100C181400179
:10364800C0804100C1814000C1814001C08041006B
:10365800C1814001C0804101C0804100C18140005A
:10366800C1814001C0804101C0804100C181400149
:10367800C0804100C1814000C1814001C08041013A
:10368800C0804100C1814000C1814001C08041002B
:10369800C1814001C0804101C0804100C18140001A
:1036A800C1814001C0804101C0804100C181400109
:1036B800C0804100C1814000C1814001C0804100FB
:1036C800C1814001C0804101C0804100C1814001E9
:1036D800C0804100C1814000C1814001C0804101DA
:1036E800C0804100C1814000C1814001C0804100CB
:1036F800C1814001C0804101C0804100C1814000BA
:10370800C0C101C30302C2C60607C705C5C404CCAD
:103718000C0DCD0FCFCE0E0ACACB0BC90908C8D8DD
:103728001819D91BDBDA1A1EDEDF1FDD1D1CDC149D
:10373800D4D515D71716D6D21213D311D1D010F06D
:103748003031F133F3F23236F6F737F53534F43CED
:10375800FCFD3DFF3F3EFEFA3A3BFB39F9F83828BD
:10376800E8E929EB2B2AEAEE2E2FEF2DEDEC2CE4DD
:103778002425E527E7E62622E2E323E12120E0A04D
:103788006061A163A3A26266A6A767A56564A46C2D
:10379800ACAD6DAF6F6EAEAA6A6BAB69A9A868785D
:1037A800B8B979BB7B7ABABE7E7FBF7DBDBC7CB41D
:1037B8007475B577B7B67672B2B373B17170B0502D
:1037C8009091519353529296565797559594549C6D
:1037D8005C5D9D5F9F9E5E5A9A9B5B99595898883D
:1037E8004849894B8B8A4A4E8E8F4F8D4D4C8C445D
:1037F80084854587474686824243834181804000CD
:10380800C1814001C0804101C0804100C1814001A7
:10381800C0804100C1814000C1814001C080410198
:10382800C0804100C1814000C1814001C080410089
:10383800C1814001C0804101C0804100C181400177
:10384800C0804100C1814000C1814001C080410069
:10385800C1814001C0804101C0804100C181400058
:10386800C1814001C0804101C0804100C181400147
:10387800C0804100C1814000C1814001C080410138
:10388800C0804100C1814000C1814001C080410029
:10389800C1814001C0804101C0804100C181400018
:1038A800C1814001C0804101C0804100C181400107
:1038B800C0804100C1814000C1814001C0804100F9
:1038C800C1814001C0804101C0804100C1814001E7
:1038D800C0804100C1814000C1814001C0804101D8
:1038E800C0804100C1814000C1814001C0804100C9
:1038F800C1814001C0804101C0804100C1814000B8
:10390800C0C101C30302C2C60607C705C5C404CCAB
:103918000C0DCD0FCFCE0E0ACACB0BC90908C8D8DB
:103928001819D91BDBDA1A1EDEDF1FDD1D1CDC149B
:10393800D4D515D71716D6D21213D311D1D010F06B
:103948003031F133F3F23236F6F737F53534F43CEB
:10395800FCFD3DFF3F3EFEFA3A3BFB39F9F83828BB
:10396800E8E929EB2B2AEAEE2E2FEF2DEDEC2CE4DB
:103978002425E527E7E62622E2E323E12120E0A04B
:103988006061A163A3A26266A6A767A56564A46C2B
:10399800ACAD6DAF6F6EAEAA6A6BAB69A9A868785B
:1039A800B8B979BB7B7ABABE7E7FBF7DBDBC7CB41B
:1039B8007475B577B7B67672B2B373B17170B0502B
:1039C8009091519353529296565797559594549C6B
:1039D8005C5D9D5F9F9E5E5A9A9B5B99595898883B
:1039E8004849894B8B8A4A4E8E8F4F8D4D4C8C445B
:1039F80084854587474686824243834181804000CB
:103A0800C1814001C0804101C0804100C1814001A5
:103A1800C0804100C1814000C1814001C080410196
:103A2800C0804100C1814000C1814001C080410087
:103A3800C1814001C0804101C0804100C181400175
:103A4800C0804100C1814000C1814001C080410067
:103A5800C1814001C0804101C0804100C181400056
:103A6800C1814001C0804101C0804100C181400145
:103A7800C0804100C1814000C1814001C080410136
:103A8800C0804100C1814000C1814001C080410027
:103A9800C1814001C0804101C0804100C181400016
:103AA800C1814001C0804101C0804100C181400105
:103AB800C0804100C1814000C1814001C0804100F7
:103AC800C1814001C0804101C0804100C1814001E5
:103AD800C0804100C1814000C1814001C0804101D6
:103AE800C0804100C1814000C1814001C0804100C7
:103AF800C1814001C0804101C0804100C1814000B6
:103B0800C0C101C30302C2C60607C705C5C404CCA9
:103B18000C0DCD0FCFCE0E0ACACB0BC90908C8D8D9
:103B28001819D91BDBDA1A1EDEDF1FDD1D1CDC1499
:103B3800D4D515D71716D6D21213D311D1D010F069
:103B48003031F133F3F23236F6F737F53534F43CE9
:103B5800FCFD3DFF3F3EFEFA3A3BFB39F9F83828B9
:103B6800E8E929EB2B2AEAEE2E2FEF2DEDEC2CE4D9
:103B78002425E527E7E62622E2E323E12120E0A049
:103B88006061A163A3A26266A6A767A56564A46C29
:103B9800ACAD6DAF6F6EAEAA6A6BAB69A9A8687859
:103BA800B8B979BB7B7ABABE7E7FBF7DBDBC7CB419
:103BB8007475B577B7B67672B2B373B17170B05029
:103BC8009091519353529296565797559594549C69
:103BD8005C5D9D5F9F9E5E5A9A9B5B995958988839
:103BE8004849894B8B8A4A4E8E8F4F8D4D4C8C4459
:103BF80084854587474686824243834181804000C9
:103C0800C1814001C0804101C0804100C1814001A3
:103C1800C0804100C1814000C1814001C080410194
:103C2800C0804100C1814000C1814001C080410085
:103C3800C1814001C0804101C0804100C181400173
:103C4800C0804100C1814000C1814001C080410065
:103C5800C1814001C0804101C0804100C181400054
:103C6800C1814001C0804101C0804100C181400143
:103C7800C0804100C1814000C1814001C080410134
:103C8800C0804100C1814000C1814001C080410025
:103C9800C1814001C0804101C0804100C181400014
:103CA800C1814001C0804101C0804100C181400103
:103CB800C0804100C1814000C1814001C0804100F5
:103CC800C1814001C0804101C0804100C1814001E3
:103CD800C0804100C1814000C1814001C0804101D4
:103CE800C0804100C1814000C1814001C0804100C5
:103CF800C1814001C0804101C0804100C18140862E
:103D0800B400000000BECB001EC4000000005AD062
:103D1800000000000000000000000000000000009B
:103D2800000000000000000000000000000000008B
:103D38000000000000C0CF000000009CCF0078CF3A
:103D48000054CF000000008AC200000000E4BF0059
:103D58003CC0000000000000000000004ACD000048
:103D6800000000000053503A252E32667C55524719
:103D780045313A25647C55524745323A25647C20C2
:103D88000A0D004348317C493A252E32667C563A62
:103D9800252E32660A0D004348327C493A252E32D8
:103DA800667C563A252E32660A0D0054656D703AC7
:103DB800252E32667C0A0D0056696E3A25647C20F1
:103DC8000A0D0050574D313A25647C0A0D005057B2
:103DD8004D323A25647C0A0D0050726F3A25647C96
:103DE8000A0D00503A252E32667C0A0D0025303225
:0D3DF8005800696E66006E616E00200000CC
:103E06000601446B1EC645F61FC646F620C647F693
:103E160021C648F648BF14EF1FF012EF1FF028EF37
:103E26001FF0010E446F45C663F546C664F547C6E6
:103E360065F548C666F5E2EC64F063C545F664C50B
:103E460046F665C547F666C548F6000E06014A6F92
:103E5600000E496FC9C638F6CAC639F64451D8B4F9
:103E660037EF1FF039EF1FF04DEF1FF04451D8A484
:103E76003FEF1FF041EF1FF047EF1FF0000E2A6FD4
:103E86002B0E296F4BEF1FF0000E2A6F2D0E296F98
:103E960029C644F645C663F546C664F547C665F5C4
:103EA60048C666F50AEC51F0050163056411D8A40D
:103EB6005FEF1FF061EF1FF098EF1FF0060144510E
:103EC600D8B468EF1FF06AEF1FF073EF1FF044C617
:103ED60084F93807D8A03907000E4A6F010E496FDA
:103EE600840E49250501636F090E06014A21050165
:103EF600646FFA0E656F3D0E666F6AEC64F006013C
:103F0600FD0E3827FF0E39231CC677F51DC678F53A
:103F1600840E0501796F090E7A6F38C67BF539C6AE
:103F26007CF5F0EC59F078EF24F045C663F546C60B
:103F360064F547C665F548C666F50AEC51F0050115
:103F460063516411D8A4AAEF1FF0ACEF1FF0CFEFB6
:103F56001FF006014451D8B4B3EF1FF0B5EF1FF0C0
:103F6600BEEF1FF044C684F93807D8A03907000E03
:103F76004A6F010E496F840E49250501636F090ECC
:103F860006014A210501646FFE0E656F3D0E666FE0
:103F96006AEC64F082EF1FF0000E06014B6F000E14
:103FA6004C6F800E4D6F3F0E4E6F000E336F000E3E
:103FB600326F45C663F546C664F547C665F548C61D
:103FC60066F5000E0501676F000E686F000E696FDB
:103FD600000E6A6F44EC59F00501D8B0F5EF1FF0FA
:103FE600F7EF1FF0F1EF20F004EF20F034C64BF6A8
:103FF60035C64CF636C64DF637C64EF60601324B7A
:10400600332B4BC6BFF54CC6C0F54DC6C1F54EC6E3
:10401600C2F5000E0501C36F000EC46F200EC56FFA
:10402600410EC66FFDEC2DF0BFC534F6C0C535F6A2
:10403600C1C536F6C2C537F606013451455D0501E0
:10404600636F0601355146590501646F0601365105
:1040560047590501656F0601375148590501666FD5
:10406600C6EC5FF0050166BF44EF20F066516511AE
:10407600641109E1020E635DD8A044EF20F046EF1B
:1040860020F0F9EF1FF034C600F635C601F636C645
:1040960002F637C603F645C604F646C605F647C613
:1040A60006F648C607F6E6EC4AF00601D8A05EEF2B
:1040B60020F060EF20F0F9EF1FF04B51455D050150
:1040C600636F06014C5146590501646F06014D5157
:1040D60047590501656F06014E5148590501666F3E
:1040E600C6EC5FF0050166BF86EF20F066516511EC
:1040F600641107E1020E635DD8B084EF20F086EF0D
:1041060020F0D7EF20F04BC645F64CC646F64DC616
:1041160047F64EC648F6F1EF20F04BC6A6F54CC65C
:10412600A7F54DC6A8F54EC6A9F5000E0501AA6F5E
:10413600000EAB6F200EAC6F410EAD6FEAEC35F0A2
:10414600A6C54BF6A7C54CF6A8C54DF6A9C54EF6AD
:1041560006013207D8A033074B51455D0501636F51
:1041660006014C5146590501646F06014D514759E8
:104176000501656F06014E5148590501666FC6EC8B
:104186005FF0050166BFD5EF20F066516511641139
:1041960007E1020E635DD8B0D3EF20F0D5EF20F033
:1041A600D7EF20F086EF20F045C600F646C601F6AA
:1041B60047C602F648C603F64BC604F64CC605F6D5
:1041C6004DC606F64EC607F6E6EC4AF00601D8A03E
:1041D600EFEF20F0F1EF20F090EF20F022C62CF662
:1041E6002CC62DF60601CCBFFBEF20F0FDEF20F02C
:1041F60003EF21F0CBC625F6CCC626F607EF21F055
:10420600000E266F060E256F25C630F626C631F639
:10421600304B312B660E2D19D8A414EF21F016EF72
:1042260021F036EF21F033BF1DEF21F01BEF21F017
:1042360029EF21F0000E4B6F000E4C6F800E4D6F74
:104246003F0E4E6F000E336F000E326F670E2C1945
:10425600D8B430EF21F032EF21F036EF21F03251B1
:10426600302733513123000E436F000E426F45C68F
:104276003AF646C63BF647C63CF648C63DF64BC63A
:1042860034F64CC635F64DC636F64EC637F6C8EF8A
:1042960021F03AC6A6F53BC6A7F53CC6A8F53DC62D
:1042A600A9F54BC6AAF54CC6ABF54DC6ACF54EC640
:1042B600ADF5EAEC35F0A6C5BFF5A7C5C0F5A8C5AE
:1042C600C1F5A9C5C2F5E3EC3FF0BFC53EF6C0C5D2
:1042D6003FF6C1C540F6C2C541F63EC618F63FC612
:1042E60019F640C61AF641C61BF6E3EC4EF018C6A0
:1042F6002EF619C62FF63AC6D8F53BC6D9F53CC6F2
:10430600DAF53DC6DBF53EC6C3F53FC6C4F540C685
:10431600C5F541C6C6F54BC6BFF54CC6C0F54DC67C
:10432600C1F54EC6C2F5FDEC2DF0BFC5DCF5C0C526
:10433600DDF5C1C5DEF5C2C5DFF5F1EC62F0D8C525
:104346003AF6D9C53BF6DAC53CF6DBC53DF64BC6B3
:10435600A6F54CC6A7F54DC6A8F54EC6A9F5000E9E
:104366000501AA6F000EAB6F200EAC6F410EAD6F4C
:10437600EAEC35F0A6C54BF6A7C54CF6A8C54DF632
:10438600A9C54EF60601424B432B3051425D4351BF
:10439600800A0501FB6F06013151800A0501FB59B0
:1043A600D8A0D8EF21F0DAEF21F04CEF21F04BC680
:1043B600BFF54CC6C0F54DC6C1F54EC6C2F5000EDA
:1043C600C36F000EC46FA00EC56F400EC66FFDEC26
:1043D6002DF0BFC53EF6C0C53FF6C1C540F6C2C505
:1043E60041F63AC600F63BC601F63CC602F63DC6A5
:1043F60003F63EC604F63FC605F640C606F641C6B7
:1044060007F6E6EC4AF00601D8B00CEF22F00EEF04
:1044160022F018EF22F0000E3E6F000E3F6F000EE6
:10442600406F000E416F42EF22F03AC663F53BC67D
:1044360064F53CC665F53DC666F53EC667F53FC6FE
:1044460068F540C669F541C66AF544EC59F00501C0
:10445600D8A030EF22F032EF22F042EF22F0060130
:104466002EB138EF22F03AEF22F042EF22F0000EA2
:104476003E6F000E3F6F000E406F000E416F45C647
:1044860063F546C664F547C665F548C666F53EC695
:1044960067F53FC668F540C669F541C66AF57FEC23
:1044A60029F063C53AF664C53BF665C53CF666C5B4
:1044B6003DF63AC600F63BC601F63CC602F63DC6D8
:1044C60003F6000E0501C36F000EC46F200EC56F04
:1044D600410EC66F34C6BFF535C6C0F536C6C1F542
:1044E60037C6C2F5FDEC2DF0BFC504F6C0C505F60E
:1044F600C1C506F6C2C507F6E6EC4AF00601D8A025
:1045060087EF22F089EF22F0B2EF22F0324B332B05
:1045160034C6BFF535C6C0F536C6C1F537C6C2F5D1
:10452600000E0501C36F000EC46F200EC56F410E4D
:10453600C66FFDEC2DF0BFC534F6C0C535F6C1C556
:1045460036F6C2C537F6660E06012D19D8A4AEEFAB
:1045560022F0B0EF22F0B2EF22F0304B312B34C60E
:104566004BF635C64CF636C64DF637C64EF632C64F
:1045760023F633C624F62B6B000E286F000E276F2A
:10458600000E436F000E426FAFEF23F03AC6A6F55A
:104596003BC6A7F53CC6A8F53DC6A9F54BC6AAF588
:1045A6004CC6ABF54DC6ACF54EC6ADF5EAEC35F0EE
:1045B600A6C5BFF5A7C5C0F5A8C5C1F5A9C5C2F56D
:1045C600E3EC3FF0BFC53EF6C0C53FF6C1C540F6B9
:1045D600C2C541F63EC618F63FC619F640C61AF6DB
:1045E60041C61BF6E3EC4EF0060119BF06EF23F0B9
:1045F600195107E10A0E185DD8B004EF23F006EF53
:1046060023F016EF23F03EC618F63FC619F640C64D
:104616001AF641C61BF6E3EC4EF018C62EF619C67E
:104626002FF61AEF23F0000E2F6F090E2E6F0601DC
:104636002B51D8A421EF23F023EF23F04BEF23F0E7
:1046460024BF2AEF23F028EF23F04BEF23F0840E4C
:104656004925D96E090E4A21DA6E2E0EDF6E494BB8
:104666004A2B3807D8A03907010E2B6F4BEF23F0E2
:10467600840E4925D96E090E4A21DA6E300EDF6E98
:10468600494B4A2B3807D8A039072707D8A028074F
:1046960027512811D8A452EF23F054EF23F03BEF13
:1046A60023F0840E4925D96E090E4A21DA6E2E5161
:1046B600300FDF6E494B4A2B3807D8A039073AC668
:1046C600D8F53BC6D9F53CC6DAF53DC6DBF53EC6A0
:1046D600C3F53FC6C4F540C6C5F541C6C6F54BC6CB
:1046E600BFF54CC6C0F54DC6C1F54EC6C2F5FDECCC
:1046F6002DF0BFC5DCF5C0C5DDF5C1C5DEF5C2C50B
:10470600DFF5F1EC62F0D8C53AF6D9C53BF6DAC565
:104716003CF6DBC53DF64BC6A6F54CC6A7F54DC621
:10472600A8F54EC6A9F5000E0501AA6F000EAB6FDF
:10473600200EAC6F410EAD6FEAEC35F0A6C54BF618
:10474600A7C54CF6A8C54DF6A9C54EF60601230722
:10475600D8A02407424B432B3051425D4351800A77
:104766000501FB6F06013151800A0501FB59D8B0DE
:10477600BFEF23F0C1EF23F0D0EF23F006014ABFCD
:10478600CEEF23F04A5109E14B0E495DD8A0CEEF9A
:1047960023F0D0EF23F0C9EF22F0000E0601436F9D
:1047A6004F0E426F840E4225D96E090E4321DA6EF2
:1047B600DF6A840E0501FB6F090EFC6F0601495185
:1047C6000501FB5F06014A510501FC5B06014251EA
:1047D6000501FB25636F060143510501FC21646F4A
:1047E600840E656F090E666F49C667F54AC668F599
:1047F600F3EC60F006014951425D496F4A51435955
:104806004A6F4451D8A40AEF24F00DEF24F0010EAC
:104816000EEF24F0000E426F436BE5A315EF24F074
:1048260017EF24F04DEF24F028EF24F00601490796
:10483600D8A04A07840E4925D96E090E4A21DA6E98
:10484600300EDF6E3807D8A039073851425D435124
:10485600800A0501FB6F06013951800A0501FB59E3
:10486600D8B038EF24F03AEF24F04DEF24F00601EB
:104876004951425D4351800A0501FB6F06014A51C9
:10488600800A0501FB59D8A04BEF24F04DEF24F028
:1048960019EF24F006014451D8B454EF24F056EF32
:1048A60024F061EF24F04907D8A04A07840E492571
:1048B600D96E090E4A21DA6E44C6DFF44251385FDA
:1048C6004351395B1CC677F51DC678F5840E49251C
:1048D6000501796F090E06014A2105017A6F38C66E
:1048E6007BF539C67CF5F0EC59F012001EC6D8F5FA
:1048F6001FC6D9F520C6DAF521C6DBF522C6DCF5DA
:1049060023C6DDF524C6DEF525C6DFF5F1EC62F03B
:10491600D8C546F6D9C547F6DAC548F6DBC549F621
:1049260046C6E0F547C6E1F548C6E2F549C6E3F5F1
:10493600AAEC65F0E0C54EF6E1C54FF6E2C550F6C5
:10494600E3C551F6060120EE05F01C51D9261D518E
:10495600DA22DEC44AF6DEC44BF6DEC44CF6DEC40A
:104966004DF6000E006F000E016F480E026F420EEC
:10497600036F4EC604F64FC605F650C606F651C678
:1049860007F6E6EC4AF00601D8B0CCEF24F0CEEFFD
:1049960024F0EBEF24F04AC6BFF54BC6C0F54CC673
:1049A600C1F54DC6C2F5CD0E0501C36FCC0EC46F61
:1049B600CC0EC56F3D0EC66FFDEC2DF0BFC54AF699
:1049C600C0C54BF6C1C54CF6C2C54DF657EF25F02E
:1049D600000E006F000E016FA00E026F410E036FF6
:1049E6004EC604F64FC605F650C606F651C607F67D
:1049F600E6EC4AF00601D8B003EF25F005EF25F006
:104A060022EF25F04AC6BFF54BC6C0F54CC6C1F528
:104A16004DC6C2F59A0E0501C36F990EC46F990E65
:104A2600C56F3E0EC66FFDEC2DF0BFC54AF6C0C57C
:104A36004BF6C1C54CF6C2C54DF657EF25F04EC62E
:104A460000F64FC601F650C602F651C603F6000E32
:104A5600046F000E056FA00E066F400E076FE6ECA2
:104A66004AF00601D8B03AEF25F03CEF25F057EFB3
:104A760025F04AC6BFF54BC6C0F54CC6C1F54DC6B6
:104A8600C2F5000E0501C36F000EC46F000EC56FA0
:104A9600400EC66FFDEC2DF0BFC54AF6C0C54BF6FD
:104AA600C1C54CF6C2C54DF6060120EE01F01C51FB
:104AB600D9261D51DA22DEC4BFF5DEC4C0F5DEC438
:104AC600C1F5DEC4C2F546C6C3F547C6C4F548C639
:104AD600C5F549C6C6F5FDEC2DF0BFC526F6C0C521
:104AE60027F6C1C528F6C2C529F64EC600F64FC63A
:104AF60001F650C602F651C603F6000E0601046F13
:104B0600000E056F480E066F420E076FE6EC4AF080
:104B16000601D8B091EF25F093EF25F072EF27F05C
:104B260046C652F647C653F648C654F649C655F623
:104B3600000E006F000E016FF00E026F410E036F44
:104B46004EC604F64FC605F650C606F651C607F61B
:104B5600E6EC4AF00601D8B0B3EF25F0B5EF25F044
:104B6600FBEF25F0000E006F000E016F200E026FA6
:104B7600420E036F52C604F653C605F654C606F631
:104B860055C607F6E6EC4AF00601D8B0CDEF25F09B
:104B9600CFEF25F0D7EF25F0000E526F000E536FC2
:104BA600200E546F420E556F52C600F653C601F6DC
:104BB60054C602F655C603F6000E046F000E056FC6
:104BC600200E066FC20E076FE6EC4AF00601D8B05B
:104BD600EFEF25F0F1EF25F0CEEF26F0000E526F45
:104BE600000E536F200E546FC20E556FCEEF26F097
:104BF600000E006F000E016F200E026F410E036F54
:104C06004EC604F64FC605F650C606F651C607F65A
:104C1600E6EC4AF00601D8B013EF26F015EF26F0C1
:104C26008AEF26F04EC6BFF54FC6C0F550C6C1F591
:104C360051C6C2F5CD0E0501C36FCC0EC46F4C0E26
:104C4600C56F3F0EC66FFDEC2DF0BFC53EF6C0C565
:104C56003FF6C1C540F6C2C541F63EC600F63FC6A0
:104C660001F640C602F641C603F652C604F653C61E
:104C760005F654C606F655C607F6E6EC4AF00601F2
:104C8600D8B048EF26F04AEF26F052EF26F03EC69F
:104C960052F63FC653F640C654F641C655F652C6BE
:104CA60000F653C601F654C602F655C603F63EC6CE
:104CB60063F53FC664F540C665F541C666F5E2ECA8
:104CC60064F063C504F664C505F665C506F666C5F3
:104CD60007F6E6EC4AF00601D8B074EF26F076EF58
:104CE60026F0CEEF26F03EC663F53FC664F540C615
:104CF60065F541C666F5E2EC64F063C552F664C537
:104D060053F665C554F666C555F6CEEF26F0000E89
:104D1600006F000E016FA00E026F400E036F52C6A9
:104D260004F653C605F654C606F655C607F6E6EC6F
:104D36004AF00601D8B0A2EF26F0A4EF26F0ACEFB9
:104D460026F0000E526F000E536FA00E546F400EE9
:104D5600556F52C600F653C601F654C602F655C63E
:104D660003F6000E046F000E056FA00E066FC00E50
:104D7600076FE6EC4AF00601D8B0C4EF26F0C6EF9E
:104D860026F0CEEF26F0000E526F000E536FA00EE7
:104D9600546FC00E556F52C6BFF553C6C0F554C604
:104DA600C1F555C6C2F5060120EE05F01C51D926FF
:104DB6001D51DA22DEC4AAF5DEC4ABF5DEC4ACF5BD
:104DC600DEC4ADF54AC6A6F54BC6A7F54CC6A8F592
:104DD6004DC6A9F5EAEC35F0A6C5C3F5A7C5C4F5D9
:104DE600A8C5C5F5A9C5C6F5FDEC2DF0BFC552F69B
:104DF600C0C553F6C1C554F6C2C555F6060120EE28
:104E06001DF01C51D9261D51DA22DEC463F5DEC41D
:104E160064F5DEC465F5DEC466F552C667F553C6AD
:104E260068F554C669F555C66AF57FEC29F00601A2
:104E360020EE1DF01C51D9261D51DA22050163C54D
:104E4600DEF464C5DEF465C5DEF466C5DEF406018F
:104E560020EE11F01C51D9261D51DA22DEC410F6BF
:104E6600DEC411F6DEC412F6DEC413F620EE1DF023
:104E76001C51D9261D51DA22DEC408F6DEC409F615
:104E8600DEC40AF6DEC40BF620EE0DF01C51D92660
:104E96001D51DA22DEC40CF6DEC40DF6DEC40EF6B3
:104EA600DEC40FF67BEC4BF008C614F609C615F601
:104EB6000AC616F60BC617F60FEC4CF0060120EEE6
:104EC6001DF01C51D9261D51DA2210C6DEF411C67A
:104ED600DEF412C6DEF413C6DEF480EF27F020EE11
:104EE6001DF01C51D9261D51DA22000EDE6E000E71
:104EF600DE6E000EDE6E000EDD6E20EE1DF01C5125
:104F0600D9261D51DA22DEC4BFF5DEC4C0F5DEC4E3
:104F1600C1F5DEC4C2F54AC6C3F54BC6C4F54CC6D8
:104F2600C5F54DC6C6F5FDEC2DF0BFC52AF6C0C5C4
:104F36002BF6C1C52CF6C2C52DF6060120EE21F0D2
:104F46001C51D9261D51DA22DEC4DCF5DEC4DDF59E
:104F5600DEC4DEF5DEC4DFF546C6D8F547C6D9F5AC
:104F660048C6DAF549C6DBF5F1EC62F0D8C5BFF5FF
:104F7600D9C5C0F5DAC5C1F5DBC5C2F5060120EE17
:104F860009F01C51D9261D51DA22DEC4C3F5DEC450
:104F9600C4F5DEC4C5F5DEC4C6F5FDEC2DF0BFC50F
:104FA6003AF6C0C53BF6C1C53CF6C2C53DF6330E62
:104FB6000501C36F330EC46F330EC56F3F0EC66F48
:104FC6003AC6BFF53BC6C0F53CC6C1F53DC6C2F5FF
:104FD600FDEC2DF0BFC563F5C0C564F5C1C565F52B
:104FE600C2C566F59A0E0501C36F990EC46F990E78
:104FF600C56F3E0EC66F10C7BFF511C7C0F512C705
:10500600C1F513C7C2F5FDEC2DF0BFC567F5C0C5E8
:1050160068F5C1C569F5C2C56AF57FEC29F063C5B7
:105026003AF664C53BF665C53CF666C53DF63AC636
:1050360010F73BC611F73CC612F73DC613F706013B
:1050460020EE21F01C51D9261D51DA2246C6DEF487
:1050560047C6DEF448C6DEF449C6DEF42AC667F55E
:105066002BC668F52CC669F52DC66AF526C663F506
:1050760027C664F528C665F529C666F57FEC29F0CE
:1050860063C52EF664C52FF665C530F666C531F6DE
:105096002EC663F52FC664F530C665F531C666F5CE
:1050A6003AC667F53BC668F53CC669F53DC66AF57E
:1050B6007FEC29F063C542F664C543F665C544F640
:1050C60066C545F61CC6D9F41DC6DAF4DE04D8A4B6
:1050D6006FEF28F071EF28F0F2EF28F0060145BFD8
:1050E60079EF28F077EF28F083EF28F0000E326F83
:1050F600000E336F000E346FBF0E356F8BEF28F046
:10510600000E326F000E336F000E346F3F0E356F98
:1051160042C667F543C668F544C669F545C66AF5ED
:1051260032C663F533C664F534C665F535C666F52D
:105136007FEC29F063C518F664C519F665C51AF63D
:1051460066C51BF6E3EC4EF006011851CF27195140
:10515600D023000E0C6F000E0D6F480E0E6F450E1D
:105166000F6FCFC698F5D0C699F50501000E99BF09
:10517600FF0E9A6F9B6F010ED1EC43F098C508F6AF
:1051860099C509F69AC50AF69BC50BF67BEC4BF05A
:1051960008C614F609C615F60AC616F60BC617F69D
:1051A600000E0601106F000E116F000E126F000E3A
:1051B600136F0FEC4CF010C618F611C619F612C68E
:1051C6001AF613C61BF6E3EC4EF018C6CFF619C650
:1051D600D0F6CFC61CF6D0C61DF67EEF29F01CC64B
:1051E600D9F41DC6DAF4020EDE18D8A4FDEF28F0B5
:1051F600FFEF28F07EEF29F0060145BF07EF29F003
:1052060005EF29F011EF29F0000E366F000E376F0B
:10521600000E386FBF0E396F19EF29F0000E366F8A
:10522600000E376F000E386F3F0E396F42C667F5B6
:1052360043C668F544C669F545C66AF536C663F5DC
:1052460037C664F538C665F539C666F57FEC29F0CC
:1052560063C518F664C519F665C51AF666C51BF664
:10526600E3EC4EF006011851CD271951CE23000E5E
:105276000C6F000E0D6F480E0E6F450E0F6FCDC6EC
:1052860098F5CEC699F50501000E99BFFF0E9A6FE7
:105296009B6F010ED1EC43F098C508F699C509F647
:1052A6009AC50AF69BC50BF67BEC4BF008C614F6BE
:1052B60009C615F60AC616F60BC617F6000E06013F
:1052C600106F000E116F000E126F000E136F0FECB1
:1052D6004CF010C618F611C619F612C61AF613C601
:1052E6001BF6E3EC4EF018C6CDF619C6CEF6CDC6C3
:1052F6001CF6CEC61DF6120005016651800B6F6FB7
:1053060066516625716F65AF8BEF29F08DEF29F039
:105316008EEF29F071817151D8B494EF29F096EF90
:1053260029F0AAEF29F07129D8A49CEF29F09EEF65
:1053360029F0A6EF29F0000E636F000E646F000ED1
:10534600656F000E666F658F666BB2EF29F0000E13
:10535600636F000E646F000E656F000E666F6A5114
:10536600800B706F6F517019D8B4BCEF29F0BEEF87
:1053760029F0BFEF29F06F8D6A516A25706F69AF0A
:10538600C7EF29F0C9EF29F0CAEF29F070817051F3
:10539600D8B4D0EF29F0D2EF29F0E6EF29F0702942
:1053A600D8A4D8EF29F0DAEF29F0E2EF29F0000EC1
:1053B600676F000E686F000E696F000E6A6F698F67
:1053C6006A6BEEEF29F0000E676F000E686F000E35
:1053D600696F000E6A6F7151705DD8B0F5EF29F0F4
:1053E600F7EF29F01EEF2AF06FADFCEF29F0FEEF84
:1053F60029F000EF2AF0800E6F1B71C572F570C59B
:1054060071F572C570F563C572F567C563F572C54A
:1054160067F564C572F568C564F572C568F565C556
:1054260072F569C565F572C569F566C572F56AC531
:1054360066F572C56AF5726B715170C56BF56C6B6A
:105446006B5F000E6C5B6CBF32EF2AF06C5109E1AA
:105456001A0E6B5DD8A032EF2AF034EF2AF06BEF0C
:105466002AF06351641165116611D8A43DEF2AF044
:1054760040EF2AF0010E41EF2AF0000E726F000E87
:10548600636F000E646F000E656F000E666F70C569
:1054960071F574EF2AF072A153EF2AF055EF2AF056
:1054A6005BEF2AF0D89072310109726F5DEF2AF036
:1054B600D890723363A162EF2AF064EF2AF065EFA9
:1054C6002AF0728F66356633653364336333712B26
:1054D6007051715DD8A072EF2AF074EF2AF04EEF8A
:1054E6002AF06FBD79EF2AF07BEF2AF0BBEF2AF0A6
:1054F6007151D8A481EF2AF083EF2AF08DEF2AF0BC
:10550600000E636F000E646F000E656F000E666F0F
:10551600DAEF2BF0675163276851642369516523DD
:105526006A51662366A19AEF2AF09CEF2AF048EFAB
:105536002BF072A1A1EF2AF0A3EF2AF0A9EF2AF02F
:10554600D89072310109726FABEF2AF0D89072339E
:1055560063A1B0EF2AF0B2EF2AF0B3EF2AF0728F10
:1055660066356633653364336333712B48EF2BF04E
:105576006751635D68516459695165596651800A7E
:105586006B6F6A51800A6B59D8B0CCEF2AF0CEEF18
:105596002AF0F9EF2AF06351675D6B6F6451685921
:1055A6006C6F655169596D6F66516A596E6FFF0E62
:1055B6006B25636FFF0E6C21646FFF0E6D21656FA7
:1055C600FF0E6E21666F800E6F1B726D7251D8A42E
:1055D600EFEF2AF0F1EF2AF001EF2BF0010E63272F
:1055E600000E64236523662301EF2BF06751635F8A
:1055F6006851645B6951655B6A51665B635164110E
:1056060065116611D8A40AEF2BF00CEF2BF041EFD1
:105616002BF07251D8A412EF2BF014EF2BF041EFC0
:105626002BF0000E636F000E646F000E656F000EA8
:10563600666FDAEF2BF0D8906337643765376637D5
:1056460072AF28EF2BF02AEF2BF02BEF2BF06381B4
:1056560072A130EF2BF032EF2BF036EF2BF0D88023
:10566600723738EF2BF0D89072377151D8B43EEFBD
:105676002BF040EF2BF041EF2BF0710765AF46EFB3
:105686002BF048EF2BF01EEF2BF0706B72AF4EEF46
:105696002BF050EF2BF068EF2BF072C56BF57F0EF9
:1056A6006B17D8B459EF2BF05BEF2BF05FEF2BF0B5
:1056B600010E706F68EF2BF063A164EF2BF066EFBD
:1056C6002BF068EF2BF05BEF2BF07051D8B46EEF38
:1056D6002BF070EF2BF09BEF2BF0010E6327000EE3
:1056E60064236523662366A17BEF2BF07DEF2BF009
:1056F6009BEF2BF063C56BF564C56CF565C56DF561
:1057060066C56EF56E356E336D336C336B336BC5B4
:1057160063F56CC564F56DC565F56EC566F57129ED
:10572600D8B498EF2BF09AEF2BF09BEF2BF0712B60
:105736007129D8B4A1EF2BF0A3EF2BF0ABEF2BF030
:105746007151D8A4A9EF2BF0ABEF2BF0BCEF2BF0E7
:10575600000E636F000E646F000E656F000E666FBD
:105766007151D8A4B9EF2BF0BBEF2BF0BCEF2BF0A7
:105776006F6B71A1C1EF2BF0C3EF2BF0C6EF2BF0CF
:10578600658FC7EF2BF0659FD8907131666F6FAF4D
:10579600CFEF2BF0D1EF2BF0D2EF2BF0668F63C556
:1057A60063F564C564F565C565F566C566F51200FD
:1057B60006011E6F1C0E06011E19D8A4E5EF2BF07C
:1057C600E7EF2BF0F7EF2CF0010EF565EDEF2BF080
:1057D600EFEF2BF0F7EF2CF0000E0501C36F000E74
:1057E600C46F110EC56F430EC66F000EAA6F000E72
:1057F600AB6F7A0EAC6F440EAD6F1C0EF7EC41F03A
:1058060005016BC598F56CC599F59A6B9B6B000EF7
:10581600D1EC43F098C5A6F599C5A7F59AC5A8F5A4
:105826009BC5A9F5EAEC35F0A6C5BFF5A7C5C0F539
:10583600A8C5C1F5A9C5C2F5FDEC2DF0BFC518F682
:10584600C0C519F6C1C51AF6C2C51BF6E3EC4EF083
:1058560018C6D3F619C6D4F6160EC2EC3EF0D8C555
:105866001FF6D9C520F6DAC521F6DBC522F6000EED
:105876000501AA6F000EAB6F7A0EAC6F440EAD6FCA
:10588600D3C698F5D4C699F59A6B9B6B000ED1ECEE
:1058960043F098C5C3F599C5C4F59AC5C5F59BC52A
:1058A600C6F51FC6BFF520C6C0F521C6C1F522C67E
:1058B600C2F5FDEC2DF0BFC5A6F5C0C5A7F5C1C55F
:1058C600A8F5C2C5A9F5EAEC35F0A6C518F6A7C530
:1058D60019F6A8C51AF6A9C51BF6E3EC4EF018C6CC
:1058E60086F719C687F7260E0601D35D020ED45930
:1058F600D8B080EF2CF082EF2CF08DEF2CF0D45145
:1059060007E1970ED35DD8B08BEF2CF08DEF2CF01E
:1059160095EF2CF0010EF36F000E1D6F010E1C6F3C
:10592600FCEF2DF0D45107E11F0ED35DD8B09EEFEA
:105936002CF0A0EF2CF0A8EF2CF0020EF36F000E67
:105946001D6F020E1C6FFCEF2DF0CD0E0501C36F0F
:10595600CC0EC46F8C0EC56F3F0EC66F47C598F54B
:1059660048C599F59A6B9B6B000ED1EC43F098C530
:10597600BFF599C5C0F59AC5C1F59BC5C2F5FDEC45
:105986002DF0BFC500F6C0C501F6C1C502F6C2C5F9
:1059960003F686C798F587C799F505019A6B9B6B41
:1059A600000ED1EC43F098C504F699C505F69AC5E4
:1059B60006F69BC507F6E6EC4AF00601D8B0E6EF18
:1059C6002CF0E8EF2CF0F0EF2CF0030EF36F000E46
:1059D6001D6F020E1C6FFCEF2DF0000E06011D6FF1
:1059E600000E1C6FFCEF2DF0110E1E19D8A4FEEF51
:1059F6002CF000EF2DF0F0EF2CF0010E0501FF6505
:105A060007EF2DF009EF2DF0F0EF2CF0000EC36F2D
:105A1600000EC46F110EC56F430EC66F000EAA6F3F
:105A2600000EAB6F7A0EAC6F440EAD6F110EF7EC35
:105A360041F005016BC598F56CC599F59A6B9B6BA2
:105A4600000ED1EC43F098C5A6F599C5A7F59AC501
:105A5600A8F59BC5A9F5EAEC35F0A6C5BFF5A7C51F
:105A6600C0F5A8C5C1F5A9C5C2F5FDEC2DF0BFC5A9
:105A760018F6C0C519F6C1C51AF6C2C51BF6E3EC81
:105A86004EF018C6D1F619C6D2F6040EC2EC3EF098
:105A9600D8C51FF6D9C520F6DAC521F6DBC522F62C
:105AA600000E0501AA6F000EAB6F7A0EAC6F440EA6
:105AB600AD6FD1C698F5D2C699F59A6B9B6B000E61
:105AC600D1EC43F098C5C3F599C5C4F59AC5C5F59B
:105AD6009BC5C6F51FC6BFF520C6C0F521C6C1F5D4
:105AE60022C6C2F5FDEC2DF0BFC5A6F5C0C5A7F5CB
:105AF600C1C5A8F5C2C5A9F5EAEC35F0A6C518F6E4
:105B0600A7C519F6A8C51AF6A9C51BF6E3EC4EF00B
:105B160018C684F719C685F72C0E0601D15D010E4D
:105B2600D259D8A099EF2DF09BEF2DF0A3EF2DF0D1
:105B3600040EF36F000E1D6F010E1C6FFCEF2DF0AF
:105B4600D25107E1150ED15DD8B0ACEF2DF0AEEF16
:105B56002DF0B6EF2DF0050EF36F000E1D6F020E41
:105B66001C6FFCEF2DF0CD0E0501C36FCC0EC46F7C
:105B76008C0EC56F3F0EC66F45C598F546C599F59F
:105B86009A6B9B6B000ED1EC43F098C5BFF599C597
:105B9600C0F59AC5C1F59BC5C2F5FDEC2DF0BFC594
:105BA60000F6C0C501F6C1C502F6C2C503F684C734
:105BB60098F585C799F505019A6B9B6B000ED1EC9C
:105BC60043F098C504F699C505F69AC506F69BC531
:105BD60007F6E6EC4AF00601D8B0F4EF2DF0F6EF42
:105BE6002DF0F0EF2CF0060EF36F000E1D6F020E77
:105BF6001C6F12000501C251800BCB6FC251C2252A
:105C0600D16FC1AF09EF2EF00BEF2EF00CEF2EF097
:105C1600D181D151D8B412EF2EF014EF2EF027EF28
:105C26002EF0D129D8A41AEF2EF01CEF2EF024EF77
:105C36002EF0000EBF6F000EC06F000EC16F000E7B
:105C4600C26FC18F2FEF2EF0000EBF6F000EC06F18
:105C5600000EC16F000EC26FC651800BCB1BC65122
:105C6600C625CC6FC5AF3AEF2EF03CEF2EF03DEFD8
:105C76002EF0CC81CC51D8B443EF2EF045EF2EF068
:105C860058EF2EF0CC29D8A44BEF2EF04DEF2EF086
:105C960055EF2EF0000EC36F000EC46F000EC56FD9
:105CA600000EC66FC58F60EF2EF0000EC36F000E9C
:105CB600C46F000EC56F000EC66FCC51D8B466EF28
:105CC6002EF068EF2EF070EF2EF0D151D8A46EEFC3
:105CD6002EF070EF2EF07AEF2EF0000EBF6F000E52
:105CE600C06F000EC16F000EC26F10EF30F0C551CD
:105CF600BF03F3C4D6F5F4C4D7F5D651CD6FCE6B3A
:105D0600CF6BD06BD751D26FD36BD46BD56BC451DD
:105D1600C003F3C4D6F5F4C4D7F5D651CD27000E8B
:105D2600CE23CF23D023D751D227000ED323D4237B
:105D3600D523C351C103F3C4D6F5F4C4D7F5D65160
:105D4600CD27000ECE23CF23D023D751D227000E46
:105D5600D323D423D523CFC5D0F5CEC5CFF5CDC516
:105D6600CEF5CD6BC351C003F3C4D6F5F4C4D7F555
:105D7600D651CD27D751CE23000ECF23000ED023E8
:105D8600C451BF03F3C4D6F5F4C4D7F5D651CD2715
:105D9600D751CE23000ECF23000ED023CFC5D0F58A
:105DA600CEC5CFF5CDC5CEF5CD6BC351BF03F3C47C
:105DB600D6F5F4C4D7F5D651CD27D751CE23000E4C
:105DC600CF23000ED023C551C003F3C4D6F5F4C4C7
:105DD600D7F5D651D227D751D323000ED423000EA0
:105DE600D523C451C103F3C4D6F5F4C4D7F5D651AF
:105DF600D227D751D323000ED423000ED523C55165
:105E0600C103F3C4D6F5F4C4D7F5D651C76FD7513D
:105E1600C86FC96BCA6BC9C5CAF5C8C5C9F5C7C5B8
:105E2600C8F5C76BC751D227C851D323C951D4234C
:105E3600CA51D523CDC5C7F5CEC5C8F5CFC5C9F559
:105E4600D0C5CAF5190E2DEF2FF0D890CA33C93335
:105E5600C833C733E82E28EF2FF0C751D227C851D1
:105E6600D323C951D423CA51D523CFC5D0F5CEC526
:105E7600CFF5CDC5CEF5CD6BCC51D1C5C7F5C86B29
:105E8600C727000EC823820EC725D66FFF0EC8216E
:105E9600D76F63EF2FF0D890D237D337D437D537B3
:105EA600D0AF58EF2FF05AEF2FF05BEF2FF0D281E3
:105EB600D890CD37CE37CF37D037D607D8A0D7072B
:105EC600D4AF68EF2FF06AEF2FF04EEF2FF0CC6BC8
:105ED600D0AF70EF2FF072EF2FF096EF2FF0FF0E8E
:105EE600CD15C76FFF0ECE15C86FFF0ECF15C96F44
:105EF6007F0ED015CA6FC751C811C911CA11D8B4BF
:105F060087EF2FF089EF2FF08DEF2FF0010ECC6F7A
:105F160096EF2FF0D2A192EF2FF094EF2FF096EF9D
:105F26002FF089EF2FF0CC51D8B49CEF2FF09EEFD5
:105F36002FF0C2EF2FF0010ED227000ED323D42369
:105F4600D523D5A1A9EF2FF0ABEF2FF0C2EF2FF09D
:105F5600D2C5C7F5D3C5C8F5D4C5C9F5D5C5CAF5E3
:105F6600CA35CA33C933C833C733C7C5D2F5C8C55E
:105F7600D3F5C9C5D4F5CAC5D5F5D64BD72BD7BFEA
:105F8600CDEF2FF0D75108E1D629D8A0CDEF2FF0CD
:105F9600CFEF2FF0D9EF2FF0000ED26F000ED36F98
:105FA600800ED46F7F0ED56F06EF30F0D7BFE6EFC9
:105FB6002FF0D75106E1D605D8B0E4EF2FF0E6EF83
:105FC6002FF0F1EF2FF0000ED26F000ED36F000E00
:105FD600D46F000ED56FCB6B06EF30F0D6C5D1F57A
:105FE600FF0ED217FF0ED3177F0ED417000ED5174C
:105FF600D1A100EF30F002EF30F003EF30F0D48F94
:10600600D890D131D56FCB51D513D2C5BFF5D3C5F5
:10601600C0F5D4C5C1F5D5C5C2F5120051C6D9F42F
:1060260052C6DAF4DEC4F6F4DDC4F7F4000EF86EF8
:106036000800F550250AD8A423EF30F025EF30F0FC
:1060460009EF32F051C6D9F452C6DAF4DE2A000E50
:10605600DD22000E0601CA6F000EC96FC9C6E5F63D
:10606600CB69CC69576B58EF30F0E58351C6D9F44C
:1060760052C6DAF4DE2A000EDD2258EF30F0010EA9
:10608600576F58EF30F051C6D9F452C6DAF4DEC471
:10609600F6F4DDC4F7F4000EF86E0800F550300A89
:1060A600D8B438EF30F042EF30F05751D8B45EEF45
:1060B60030F060EF30F046EF30F051C663F552C66F
:1060C60064F553C665F554C666F558EC53F063C5DA
:1060D600C9F664C5CAF60601CABF76EF30F074EF9A
:1060E60030F07BEF30F0E581C96DCA1FD8B0CA2BFE
:1060F60051C6D9F452C6DAF4DEC4F6F4DDC4F7F4B8
:10610600000EF86E0800F5502E0AD8A48DEF30F078
:106116008FEF30F0A4EF30F051C6D9F452C6DAF45E
:10612600DE2A000EDD2251C663F552C664F553C65B
:1061360065F554C666F558EC53F063C5CBF664C5F1
:10614600CCF651C6D9F452C6DAF4DEC45DF6DDC427
:106156005EF65DC6F6F45EC6F7F4000EF86E08004D
:10616600F550640AD8B4BAEF30F0BCEF30F0CCEF9B
:1061760030F05DC6F6F45EC6F7F4000EF86E080061
:10618600F550690AD8A4CAEF30F0CCEF30F0FBEF37
:1061960030F053C6D9F454C6DAF4DFC455F6020E0D
:1061A600DE26DFC456F6000EDD2255C6D9F456C6E5
:1061B600DAF4DEC459F6DDC45AF6010E06015D2591
:1061C600556F000E5E21566F51C6D9F452C6DAF4E9
:1061D60055C6DEF456C6DDF44FC680F550C681F5C9
:1061E60059C682F55AC683F5EFEC42F020EF32F03D
:1061F6005DC6F6F45EC6F7F4000EF86E0800F550BC
:10620600580AD8A409EF31F00BEF31F04AEF31F01C
:1062160053C6D9F454C6DAF4DFC455F6020EDE26A8
:10622600DFC456F6000EDD2255C6D9F456C6DAF49A
:10623600DEC459F6DDC45AF6010E06015D25556F1A
:10624600000E5E21566F51C6D9F452C6DAF455C611
:10625600DEF456C6DDF43CEF31F04FC680F550C68D
:1062660081F559C682F55AC683F575EC48F020EFDC
:1062760032F05DC6F6F45EC6F7F4000EF86E08005E
:10628600F550580AD8B430EF31F04AEF31F051C624
:10629600D9F452C6DAF4DEC45DF6DDC45EF65DC638
:1062A600F6F45EC6F7F4000EF86E0800F5C458F66C
:1062B60068EF31F05D4B5E2B78EF31F06C0E586F66
:1062C60078EF31F0586B78EF31F0060158514C0AEF
:1062D600D8B45DEF31F02A0AD8B461EF31F00A0A7A
:1062E600D8B45DEF31F065EF31F05DC6F6F45EC609
:1062F600F7F4000EF86E0800F550660AD8A486EF8B
:1063060031F088EF31F000EF32F0BEEF31F053C6D6
:10631600D9F454C6DAF4DFC455F6040EDE26DFC41B
:1063260056F6000EDD2255C6D9F456C6DAF4DEC49A
:1063360059F6DEC45AF6DEC45BF6DEC45CF6C9EF77
:1063460031F053C6D9F454C6DAF4DFC455F6040E58
:10635600DE26DFC456F6000EDD2255C6D9F456C633
:10636600DAF4DEC459F6DEC45AF6DEC45BF6DEC4E1
:106376005CF6C9EF31F058514C0AD8B4A4EF31F0AD
:10638600200AD8B48AEF31F0C9EF31F0010E5D254D
:10639600556F000E5E21566F51C6D9F452C6DAF417
:1063A60055C6DEF456C6DDF4F2EF31F04FC61CF6E4
:1063B60050C61DF659C61EF65AC61FF65BC620F60F
:1063C6005CC621F65DC6F6F45EC6F7F4000EF86EFE
:1063D6000800F5C422F603EC1FF020EF32F05DC68C
:1063E600F6F45EC6F7F4000EF86E0800F550660A7D
:1063F600D8B4D9EF31F000EF32F051C6D9F452C615
:10640600DAF4DE2A000EDD2220EF32F051C6D9F48E
:1064160052C6DAF4DEC4F6F4DDC4F7F4000EF86E04
:106426000800F5500501676F686B4FC669F550C6E1
:106436006AF5BFEC53F000EF32F01200030EC5EC24
:1064460064F063C5ECF564C5EDF5000E0501AA6FB1
:10645600F00EAB6F7F0EAC6F450EAD6FECC598F5C9
:10646600EDC599F5000E99BFFF0E9A6F9B6F010E51
:10647600D1EC43F098C5A6F599C5A7F59AC5A8F538
:106486009BC5A9F5EAEC35F0A6C5BFF5A7C5C0F5CD
:10649600A8C5C1F5A9C5C2F56F0E0501C36F120ED9
:1064A600C46F830EC56F400EC66FFDEC2DF0BFC5E1
:1064B600F6F5C0C5F7F5C1C5F8F5C2C5F9F5F6C5D7
:1064C60050F7F7C551F7F8C552F7F9C553F7DDECA4
:1064D60068F063C5F2F564C5F3F565C5F4F566C500
:1064E600F5F524C767F525C768F526C769F527C7F3
:1064F6006AF563EC5CF067C5EEF568C5EFF569C54E
:10650600F0F56AC5F1F520C7DCF521C7DDF522C730
:10651600DEF523C7DFF5F6C5D8F5F7C5D9F5F8C515
:10652600DAF5F9C5DBF5F1EC62F0D8C5E0F5D9C5C9
:10653600E1F5DAC5E2F5DBC5E3F5AAEC65F0E0C501
:1065460000F6E1C501F6E2C502F6E3C503F6CD0E97
:106556000601046FCC0E056F4C0E066F3D0E076FDD
:10656600E6EC4AF00601D8B0BBEF32F0BDEF32F0F0
:10657600C8EF32F0050EE961C3EF32F0C5EF32F035
:10658600C9EF32F0E92BC9EF32F0E96BF6C520F717
:10659600F7C521F7F8C522F7F9C523F7FBEF33F066
:1065A600F46B040EE965DAEF32F0DCEF32F00AEF55
:1065B60034F0F6C500F6F7C501F6F8C502F6F9C5DA
:1065C60003F6660E046F660E056FE60E066F3F0E47
:1065D600076FE6EC4AF00601D8A0F4EF32F0F6EFCA
:1065E60032F02CEF33F0F6C500F6F7C501F6F8C524
:1065F60002F6F9C503F6CD0E046FCC0E056F0C0E30
:10660600066F400E076FE6EC4AF00601D8B00EEFB3
:1066160033F010EF33F02CEF33F00501F151F011A8
:106626000BE1E80EEE5D030EEF59D8A01DEF33F037
:106636001FEF33F00AEF34F0010E0601EA6FF2C5E0
:1066460024F7F3C525F7F4C526F7F5C527F70AEFAE
:1066560034F0F6C500F6F7C501F6F8C502F6F9C539
:1066660003F69A0E046F990E056F190E066F400E0B
:10667600076FE6EC4AF00601D8A044EF33F046EF88
:1066860033F022EF33F00501F151F0110BE1E80E82
:10669600EE5D030EEF59D8A053EF33F055EF33F00C
:1066A6005AEF33F0020E0601EA6F22EF33F00AEFDB
:1066B60034F0010EF46F040EE96564EF33F066EF13
:1066C60033F00AEF34F0660E006F660E016FA60E09
:1066D600026F3F0E036FF6C504F6F7C505F6F8C55B
:1066E60006F6F9C507F6E6EC4AF00601D8A07EEFF5
:1066F60033F080EF33F09BEF33F00501F151F011E9
:106706000BE1E80EEE5D030EEF59D8A08DEF33F0E6
:106716008FEF33F00AEF34F00601EA6BF2C524F787
:10672600F3C525F7F4C526F7F5C527F70AEF34F0C4
:10673600F6C500F6F7C501F6F8C502F6F9C503F683
:106746009A0E046F990E056F190E066F400E076FAD
:10675600E6EC4AF00601D8A0B3EF33F0B5EF33F01C
:1067660022EF33F00501F151F0110BE1E80EEE5D79
:10677600030EEF59D8A0C2EF33F0C4EF33F05AEF4F
:1067860033F055EF33F0020EF46F040EE965CEEFE9
:1067960033F0D0EF33F00AEF34F0660E006F660E7A
:1067A600016FA60E026F3F0E036FF6C504F6F7C51E
:1067B60005F6F8C506F6F9C507F6E6EC4AF0060151
:1067C600D8A0E8EF33F0EAEF33F00AEF34F0050132
:1067D600F151F0110BE1D00EEE5D070EEF59D8A086
:1067E600F7EF33F0F9EF33F00AEF34F08FEF33F0D1
:1067F600EA51000AD8B4D3EF32F0010AD8B45CEFFC
:1068060033F0030AD8B4C6EF33F00AEF34F01200BF
:10681600060108510911D8A413EF34F015EF34F02E
:106826001FEF34F0000E086F000E096F000E0A6F9E
:10683600000E0B6FE9EF35F0DDEC68F063C51AF674
:1068460064C51BF665C51CF666C51DF6060120EE79
:1068560008F00851D9260951DA22DEC463F5DEC4F0
:1068660064F5DEC465F5DEC466F50AC667F50BC6D3
:1068760068F50CC669F50DC66AF544EC59F00501D4
:10688600D8B048EF34F04AEF34F0D9EF34F00601CF
:1068960020EE08F00851D9260951DA220AC6DEF49C
:1068A6000BC6DEF40CC6DEF40DC6DEF408C6D9F45B
:1068B60009C6DAF4DEC400F6DEC401F6DEC402F66A
:1068C600DEC403F60AC604F60BC605F60CC606F6C3
:1068D6000DC607F6E6EC4AF00601D8B075EF34F0BF
:1068E60077EF34F0A7EF34F008C6D9F409C6DAF426
:1068F60010EE04F00851E1260951E222DEC4E6F466
:10690600DEC4E6F4DEC4E6F4DEC4E6F420EE0CF003
:106916000851D9260951DA221AC6DEF41BC6DEF45E
:106926001CC6DEF41DC6DEF420EE10F00851D92692
:106936000951DA220EC6DEF40FC6DEF410C6DEF406
:1069460011C6DEF4D9EF34F020EE04F00851D92652
:106956000951DA220AC6DEF40BC6DEF40CC6DEF4F2
:106966000DC6DEF408C6D9F409C6DAF40AC6DEF4A2
:106976000BC6DEF40CC6DEF40DC6DEF420EE0CF01B
:106986000851D9260951DA221AC6DEF41BC6DEF4EE
:106996001CC6DEF41DC6DEF420EE10F00851D92622
:1069A6000951DA22DE6ADE6ADE6ADD6A060120EE57
:1069B60010F00851D9260951DA22DE50DE10DE1019
:1069C600DE10D8A4E9EF34F0EBEF34F0F9EF34F051
:1069D60008C6D9F409C6DAF4DEC408F6DEC409F638
:1069E600DEC40AF6DEC40BF6E9EF35F020EE0CF055
:1069F6000851D9260951DA22DEC467F5DEC468F5E6
:106A0600DEC469F5DEC46AF563EC5CF067C51EF6A4
:106A160068C51FF669C520F66AC521F6060120EE8F
:106A260010F00851D9260951DA22DE501E5DDE50DB
:106A36001F59DE502059DE502159D8A025EF35F0D8
:106A460027EF35F047EF35F020EE08F00851D9264C
:106A56000951DA2208C6E1F409C6E2F4DEC4E6F416
:106A6600DEC4E6F4DEC4E6F4DEC4E6F408C6D9F411
:106A760009C6DAF4DEC408F6DEC409F6DEC40AF690
:106A8600DEC40BF6E9EF35F01EC698F51FC699F57C
:106A960020C69AF521C69BF5000ED1EC43F098C5A9
:106AA600A6F599C5A7F59AC5A8F59BC5A9F506014A
:106AB60020EE10F00851D9260951DA22DEC498F5E5
:106AC600DEC499F5DEC49AF5DEC49BF5000ED1EC62
:106AD60043F098C5AAF599C5ABF59AC5ACF59BC523
:106AE600ADF5EAEC35F0A6C512F6A7C513F6A8C5AE
:106AF60014F6A9C515F612C6C3F513C6C4F514C611
:106B0600C5F515C6C6F5060120EE04F00851D926CE
:106B16000951DA22DEC4DCF5DEC4DDF5DEC4DEF5BD
:106B2600DEC4DFF520EE08F00851D9260951DA2235
:106B3600DEC4D8F5DEC4D9F5DEC4DAF5DEC4DBF58D
:106B4600F1EC62F0D8C5BFF5D9C5C0F5DAC5C1F517
:106B5600DBC5C2F5FDEC2DF0BFC516F6C0C517F6B0
:106B6600C1C518F6C2C519F616C663F517C664F58B
:106B760018C665F519C666F5060120EE04F008513B
:106B8600D9260951DA22DEC467F5DEC468F5DEC40B
:106B960069F5DEC46AF57FEC29F008C6D9F409C6A2
:106BA600DAF4050163C5DEF464C5DEF465C5DEF41A
:106BB60066C5DEF408C6D9F409C6DAF4DEC408F6FA
:106BC600DEC409F6DEC40AF6DEC40BF612000501C1
:106BD600A951800BB66FA951A925BD6FA8AFF6EFD5
:106BE60035F0F8EF35F0F9EF35F0BD81BD51D8B489
:106BF600FFEF35F001EF36F015EF36F0BD29D8A4DA
:106C060007EF36F009EF36F011EF36F0000EA66FFB
:106C1600000EA76F000EA86F000EA96FA88FA96BB4
:106C26001DEF36F0000EA66F000EA76F000EA86FC0
:106C3600000EA96FAD51800BB61BAD51AD25BE6FD1
:106C4600ACAF28EF36F02AEF36F02BEF36F0BE81E8
:106C5600BE51D8B431EF36F033EF36F047EF36F0A9
:106C6600BE29D8A439EF36F03BEF36F043EF36F0C5
:106C7600000EAA6F000EAB6F000EAC6F000EAD6F6C
:106C8600AC8FAD6B4FEF36F0000EAA6F000EAB6FF8
:106C9600000EAC6F000EAD6FAA51AB11AC11AD1169
:106CA600D8A458EF36F05AEF36F072EF36F0000EF1
:106CB600A66F000EA76F000EA86F000EA96F800EBC
:106CC600A8137F0EA913B651A913A6C5A6F5A7C585
:106CD600A7F5A8C5A8F5A9C5A9F5B2EF37F0BD5126
:106CE600D8A478EF36F07AEF36F084EF36F0000E5F
:106CF600A66F000EA76F000EA86F000EA96FB2EF69
:106D060037F0BE51BDC5AEF5AF6BAE5F000EAF5BE3
:106D16007F0EAE25B76F000EAF21B86FA6C5B2F5D0
:106D2600A7C5B3F5A8C5B4F5A9C5B5F5000EA66FF8
:106D3600000EA76F000EA86F000EA96F000EB96FA8
:106D4600000EBA6F000EBB6F000EBC6FBE6BE4EF99
:106D560036F0BE51D8B4B2EF36F0B4EF36F0CBEF22
:106D660036F0D890B237B337B437B537D890A637A0
:106D7600A737A837A937BCAFC3EF36F0C5EF36F053
:106D8600C6EF36F0A681D890B937BA37BB37BC37CD
:106D9600AA51B25DAB51B359AC51B459AD51B559C5
:106DA600D8A0D8EF36F0DAEF36F0E3EF36F0BC8D48
:106DB600AA51B25FAB51B35BAC51B45BAD51B55B9D
:106DC600BE2B190EBE65EAEF36F0ECEF36F0ACEFEF
:106DD60036F0B251B311B411B511D8B4F5EF36F09F
:106DE600F7EF36F00FEF37F0B9810FEF37F0D890A5
:106DF600A637A737A837A937BCAF04EF37F006EF99
:106E060037F007EF37F0A681D890B937BA37BB37D6
:106E1600BC37B707D8A0B807A8AF14EF37F016EFFE
:106E260037F0FAEF36F0BE6BBCAF1CEF37F01EEF53
:106E360037F042EF37F0FF0EB915AE6FFF0EBA15F9
:106E4600AF6FFF0EBB15B06F7F0EBC15B16FAE51A5
:106E5600AF11B011B111D8B433EF37F035EF37F0C9
:106E660039EF37F0010EBE6F42EF37F0A6A13EEFC5
:106E760037F040EF37F042EF37F035EF37F0BE51DD
:106E8600D8B448EF37F04AEF37F06EEF37F0010E1F
:106E9600A627000EA723A823A923A9A155EF37F0FB
:106EA60057EF37F06EEF37F0A6C5AEF5A7C5AFF5CD
:106EB600A8C5B0F5A9C5B1F5B135B133B033AF3317
:106EC600AE33AEC5A6F5AFC5A7F5B0C5A8F5B1C535
:106ED600A9F5B74BB82BB8BF79EF37F0B85108E131
:106EE600B729D8A079EF37F07BEF37F086EF37F088
:106EF600000EB86FB769000EA66F000EA76F000EE2
:106F0600A86F000EA96FB8BF93EF37F0B85106E12E
:106F1600B705D8B091EF37F093EF37F0A0EF37F021
:106F2600000EB86F000EB76F000EA66F000EA76FAB
:106F3600000EA86F000EA96FB66BB7C5BDF5BDA153
:106F4600A7EF37F0A9EF37F0ACEF37F0A88FADEF2A
:106F560037F0A89FD890BD31A96F66EF36F01200C2
:106F66000501FE05D8B4BAEF37F0BCEF37F0C5EF30
:106F760037F0030EFE19D8A4C3EF37F0C5EF37F08C
:106F860083EF38F0000EAA6F000EAB6F7A0EAC6F6F
:106F9600440EAD6F1C0EF7EC41F005016BC598F57C
:106FA6006CC599F59A6B9B6B000ED1EC43F098C5B6
:106FB600A6F599C5A7F59AC5A8F59BC5A9F5EAEC66
:106FC60035F0A6C5BFF5A7C5C0F5A8C5C1F5A9C5C5
:106FD600C2F5000E0501C36F000EC46F110EC56F1A
:106FE600430EC66FFDEC2DF0BFC5AAF6C0C5ABF6C5
:106FF600C1C5ACF6C2C5ADF6160EC2EC3EF0D8C59C
:107006005AF6D9C55BF6DAC55CF6DBC55DF6000E49
:107016000501AA6F000EAB6F7A0EAC6F440EAD6F12
:10702600AAC6C3F5ABC6C4F5ACC6C5F5ADC6C6F5AE
:107036005AC6BFF55BC6C0F55CC6C1F55DC6C2F5EE
:10704600FDEC2DF0BFC5A6F5C0C5A7F5C1C5A8F5D1
:10705600C2C5A9F5EAEC35F0A6C518F6A7C519F616
:10706600A8C51AF6A9C51BF6E3EC4EF018C6D7F666
:1070760019C6D8F6A2C622F6A3C623F6A4C624F6D7
:10708600A5C625F64AEC64F022C64CF723C64DF792
:1070960024C64EF725C64FF7D7C698F5D8C699F534
:1070A60005019A6B9B6B000ED1EC43F098C55EF61A
:1070B60099C55FF69AC560F69BC561F6B50E0601E1
:1070C6001C6F070E1D6F4CC71EF64DC71FF64EC729
:1070D60020F64FC721F65EC622F65FC623F660C6C7
:1070E60024F661C625F679EC24F01CC6DBF61DC62F
:1070F600DCF6DBC665F5DCC666F5010EA0EC5DF0D8
:10710600020E0501FE19D8B48BEF38F08DEF38F07A
:1071160096EF38F0030EFE19D8A494EF38F096EFE8
:1071260038F066EF39F0000EAA6F000EAB6F7A0EDC
:10713600AC6F440EAD6F110EF7EC41F005016BC557
:1071460098F56CC599F59A6B9B6B000ED1EC43F0E4
:1071560098C5A6F599C5A7F59AC5A8F59BC5A9F53D
:10716600EAEC35F0A6C5BFF5A7C5C0F5A8C5C1F5BB
:10717600A9C5C2F5000E0501C36F000EC46F110E3E
:10718600C56F430EC66FFDEC2DF0BFC5A6F6C0C594
:10719600A7F6C1C5A8F6C2C5A9F6040EC2EC3EF014
:1071A600D8C55AF6D9C55BF6DAC55CF6DBC55DF619
:1071B600000E0501AA6F000EAB6F7A0EAC6F440E7F
:1071C600AD6FA6C6C3F5A7C6C4F5A8C6C5F5A9C6BC
:1071D600C6F55AC6BFF55BC6C0F55CC6C1F55DC649
:1071E600C2F5FDEC2DF0BFC5A6F5C0C5A7F5C1C516
:1071F600A8F5C2C5A9F5EAEC35F0A6C518F6A7C5E7
:1072060019F6A8C51AF6A9C51BF6E3EC4EF018C682
:10721600D5F619C6D6F6E3C698F5E4C699F505017E
:107226009A6B9B6B000ED1EC43F098C556F699C548
:1072360057F69AC558F69BC559F656C622F657C64E
:1072460023F658C624F659C625F62AEC64F022C65B
:1072560048F723C649F724C64AF725C64BF7D5C6CD
:1072660098F5D6C699F505019A6B9B6B000ED1EC85
:1072760043F098C55EF699C55FF69AC560F69BC55C
:1072860061F68E0E06011C6F070E1D6F48C71EF6AF
:1072960049C71FF64AC720F64BC721F65EC622F637
:1072A6005FC623F660C624F661C625F679EC24F09F
:1072B6001CC6D9F61DC6DAF6D9C665F5DAC666F570
:1072C600020EA0EC5DF0120047C58BF548C58CF5A3
:1072D600C6C67FF50501806B7FBF80077FC581F538
:1072E60080C582F5000E82BFFF0E836F846F47C58F
:1072F60063F548C564F5656B666B0601F5510501D6
:10730600676F686B696B6A6BD7EC5DF063C56FF589
:1073160064C570F565C571F566C572F5640E05013F
:10732600736F000E746F000E756F000E766F84EC2F
:1073360050F0050181516F5D8D6F825170598E6FCE
:10734600835171598F6F84517259906F90BFB9EF05
:1073560039F090518F118E1107E1140E8D5DD8B062
:10736600B7EF39F0B9EF39F0C1EF39F0140E8D6F80
:10737600000E8E6F000E8F6F000E906F47507F6F5E
:107386004850806F816B826B8D517F5D8E51805925
:107396008F5181598251800A836F9051800A835997
:1073A600D8B0D8EF39F0DAEF39F0E0EF39F047C569
:1073B6008DF548C58EF58F6B906B8DC543F58EC5E3
:1073C60044F5C7C67FF5806B7FBF80077FC581F513
:1073D60080C582F5000E82BFFF0E836F846F45C5A0
:1073E60063F546C564F5656B666BFF51676F686B41
:1073F600696B6A6BD7EC5DF063C56FF564C570F5B4
:1074060065C571F566C572F5640E0501736F000EEC
:10741600746F000E756F000E766F84EC50F00501E8
:1074260081516F5D8D6F825170598E6F8351715985
:107436008F6F84517259906F90BF2FEF3AF0905131
:107446008F118E1107E1140E8D5DD8B02DEF3AF035
:107456002FEF3AF037EF3AF0140E8D6F000E8E6F65
:10746600000E8F6F000E906F45507F6F4650806FF5
:10747600816B826B8D517F5D8E5180598F51815901
:107486008251800A836F9051800A8359D8B04EEF9B
:107496003AF050EF3AF056EF3AF045C58DF546C54D
:1074A6008EF58F6B906B8DC5E3F68EC5E4F60601FF
:1074B600E3514324E16FE4514420E26FE1510501B9
:1074C6008B5D0601E25105018C59D8B06DEF3AF09B
:1074D6006FEF3AF0A0EF3AF0C8C67FF5806B7FBF3A
:1074E60080077FC581F580C582F5000E82BFFF0E3D
:1074F600836F846F43500601E15D0501856F44503B
:107506000601E2590501866F85518B5D876F8651AD
:107516008C59886F896BD8A0890789518A6F8151E8
:10752600875D8D6F825188598E6F835189598F6F10
:1075360084518A59906FA6EF3AF043C58DF544C53C
:107546008EF58F6B906B90BFB6EF3AF090518F111E
:107556008E1107E1140E8D5DD8B0B4EF3AF0B6EF98
:107566003AF0BEEF3AF0140E8D6F000E8E6F000EDD
:107576008F6F000E906F8B517F6F8C51806F816B78
:10758600826B8D517F5D8E5180598F518159825109
:10759600800A836F9051800A8359D8B0D5EF3AF0AC
:1075A600D7EF3AF0DDEF3AF08BC58DF58CC58EF549
:1075B6008F6B906B8DC58CF78EC58DF78CC77DF55F
:1075C6008DC77EF5120034C767F535C768F536C72F
:1075D60069F537C76AF563EC5CF067C59AF568C567
:1075E6009BF569C59CF56AC59DF530C767F531C73A
:1075F60068F532C769F533C76AF563EC5CF067C5B1
:107606009EF568C59FF569C5A0F56AC5A1F52C0E5E
:10761600F7EC41F06BC5A2F56CC5A3F55C50D8B488
:1076260017EF3BF019EF3BF030EF3BF0DDEC68F085
:1076360063C530F764C531F765C532F766C533F7FC
:10764600DDEC68F063C534F764C535F765C536F714
:1076560066C537F7010E526E5C6A5350D8A436EFF2
:107666003BF038EF3BF033EF3CF00501A151A011A0
:107676000BE1880E9E5D130E9F59D8A045EF3BF097
:1076860047EF3BF033EF3CF0010E536E33EF3CF027
:107696005250D8A451EF3BF053EF3BF066EF3BF06E
:1076A6009D519C110BE1B80E9A5D0B0E9B59D8A00B
:1076B6005FEF3BF061EF3BF04DEF3CF05F6A010E90
:1076C600526E4DEF3CF05350D8A46CEF3BF06EEF8A
:1076D6003BF086EF3BF0730EA25D060EA359D8A0D1
:1076E60077EF3BF079EF3BF086EF3BF0010E546EFF
:1076F600DDEC68F063C534F764C535F765C536F764
:1077060066C537F7526A5304D8A48CEF3BF08EEF68
:107716003BF04DEF3CF0350E0501A25D080EA35976
:10772600D8A098EF3BF09AEF3BF04DEF3CF0010EFE
:10773600546EDDEC68F063C534F764C535F765C58E
:1077460036F766C537F7526A4DEF3CF0596A010EB7
:107756005F6E5304D8A4B2EF3BF0B4EF3BF0E6EF14
:107766003BF0A40EA25D060EA359D8B0BDEF3BF0C8
:10777600BFEF3BF0C2EF3BF0546A9CEF3BF0D70EF5
:10778600A25D060EA359D8A0CBEF3BF0CDEF3BF0A0
:107796004DEF3CF03A0EA25D070EA359D8B0D6EFD6
:1077A6003BF0D8EF3BF04DEF3CF0020E546EDDECB3
:1077B60068F063C534F764C535F765C536F766C541
:1077C60037F74DEF3CF05350D8A4ECEF3BF0EEEF1B
:1077D6003BF04DEF3CF0A40EA25D060EA359D8B0C7
:1077E600F7EF3BF0F9EF3BF0FDEF3BF0010E536E88
:1077F600BFEF3BF0D70EA25D060EA359D8A006EF49
:107806003CF008EF3CF04DEF3CF03A0EA25D070E5F
:10781600A359D8B011EF3CF013EF3CF04DEF3CF01C
:10782600D8EF3BF0010E596E350EA25D080EA35936
:10783600D8A020EF3CF022EF3CF026EF3CF0010E02
:10784600546EDAEF3BF0A40EA25D060EA359D8B033
:107856002FEF3CF031EF3CF04DEF3CF0BFEF3BF04B
:1078660054500501986F996B9951000AD8B43EEFB0
:107876003CF04DEF3CF09851000AD8B44BEF3BF08A
:10788600010AD8B4A9EF3BF0030AD8B415EF3CF0CF
:107896004DEF3CF0120038C767F539C768F53AC7AF
:1078A60069F53BC76AF563EC5CF067C57DF568C5AD
:1078B6007EF569C57FF56AC580F5020E0601F5619C
:1078C60067EF3CF069EF3CF072EF3CF0010E05010A
:1078D600FF6570EF3CF072EF3CF078EF3DF05E0430
:1078E600D8A478EF3CF07AEF3CF078EF3DF0DDEC91
:1078F60068F063C538F764C539F765C53AF766C5F4
:107906003BF7010E5D6E5E6A78EF3DF0B3EC69F011
:10791600050180517F110BE1210E7D5D030E7E591D
:10792600D8A098EF3CF09AEF3CF096EF3DF0010EB0
:107936000601F565A1EF3CF0A3EF3CF0AFEF3CF09C
:10794600010E0501FF65AAEF3CF0ACEF3CF0AFEF8E
:107956003CF0020E5D6E586A010E0601F565B6EF43
:107966003CF0B8EF3CF0C4EF3CF00501FF51D8A461
:10797600BFEF3CF0C1EF3CF0C4EF3CF0030E5D6E90
:10798600576A0601F551D8A4CBEF3CF0CDEF3CF099
:10799600D9EF3CF0010E0501FF65D4EF3CF0D6EFC0
:1079A6003CF0D9EF3CF0040E5D6E566ADDEC68F0F3
:1079B60063C538F764C539F765C53AF766C53BF759
:1079C60096EF3DF070EC56F0010E0601F565EEEF10
:1079D6003CF0F0EF3CF0FFEF3CF00501FF51D8A47E
:1079E600F7EF3CF0F9EF3CF0FFEF3CF0020E75ECE0
:1079F60060F0030E5D6E576A0601F551D8A406EFD6
:107A06003DF008EF3DF096EF3DF0010E0501FF65F4
:107A16000FEF3DF011EF3DF096EF3DF0010E75ECE6
:107A260060F0040E5D6E566A96EF3DF093EC58F0EA
:107A3600010E0601F56522EF3DF024EF3DF030EF33
:107A46003DF0010E0501FF652BEF3DF02DEF3DF0FA
:107A560030EF3DF0020E5D6E586A0601F551D8A46E
:107A660037EF3DF039EF3DF096EF3DF0010E0501A1
:107A7600FF6540EF3DF042EF3DF096EF3DF0010E21
:107A860075EC60F014EF3DF03AEC58F0010E06018B
:107A9600F56550EF3DF052EF3DF05EEF3DF0010E23
:107AA6000501FF6559EF3DF05BEF3DF05EEF3DF000
:107AB600020E5D6E586A010E0601F56565EF3DF032
:107AC60067EF3DF096EF3DF00501FF51D8A46EEF4C
:107AD6003DF070EF3DF096EF3DF0020E75EC60F074
:107AE600030E5D6E576A96EF3DF05D5005017B6FA4
:107AF6007C6B7C51000AD8B483EF3DF096EF3DF0E5
:107B06007B51010AD8B489EF3CF0030AD8B4E5EFFB
:107B16003CF0010AD8B419EF3DF0070AD8B447EF94
:107B26003DF096EF3DF0120018C767F519C768F5E6
:107B36001AC769F51BC76AF563EC5CF067C598F66A
:107B460068C599F669C59AF66AC59BF606019B5102
:107B56009A11991109E10B0E985DD8A0B5EF3DF089
:107B6600B7EF3DF0C3EF3DF0E751D8B4BDEF3DF0C0
:107B7600BFEF3DF0C3EF3DF0010EE86FA9EC69F0F1
:107B86000601E805D8B4CAEF3DF0CCEF3DF0CEEFE4
:107B96003DF0C1EF3EF0560E0501636F080E646FAF
:107BA600D40E656F090E666FE7C667F5686BF3EC72
:107BB60060F00601E751FE0F9E6F560E0501636FDA
:107BC600080E646F9EC665F5EEEC5CF063C580F743
:107BD60064C581F7570E06019E25D96EDA6A080E2E
:107BE600DA22DF50946F560E9E25D96EDA6A080E99
:107BF600DA22DF50956F9551976F966B94519625C3
:107C060007017E6F0601000E972107017F6F7E51E7
:107C1600801909E17F518119D8B414EF3EF016EFAF
:107C26003EF01AEF3EF0A8EC62F0C1EF3EF05CC801
:107C36009CF60601E751F70F9D6F9C519D19D8B42C
:107C460027EF3EF029EF3EF02BEF3EF016EF3EF029
:107C5600100E08015719D8A433EF3EF035EF3EF069
:107C660042EF3EF00E0E5919D8A43CEF3EF03EEF1F
:107C76003EF042EF3EF05EC8F5F660C8FFF5AA0E8C
:107C86005619D8A449EF3EF04BEF3EF016EF3EF002
:107C96005A0E5719D8A452EF3EF054EF3EF016EFA5
:107CA6003EF0AEEF3EF05805D8A45CEF3EF05EEF36
:107CB6003EF065EF3EF0560E0601736F080E746FC8
:107CC600A3EC4CF0020E08015819D8A46DEF3EF053
:107CD6006FEF3EF016EF3EF0560E0601736F080E7C
:107CE600746FADEC44F016EF3EF0020E5819D8A4AE
:107CF6007FEF3EF081EF3EF016EF3EF0560E0601A6
:107D0600736F080E746F8AEC51F016EF3EF0020E98
:107D16005819D8A491EF3EF093EF3EF016EF3EF0DF
:107D2600560E0601736F080E746FEEEC40F016EFF8
:107D36003EF0020E5819D8A4A3EF3EF0A5EF3EF090
:107D460016EF3EF0560E0601736F080E746F0FECB9
:107D560047F016EF3EF05951010AD8B456EF3EF0FF
:107D6600160AD8B478EF3EF0400AD8B48AEF3EF04F
:107D76000F0AD8B49CEF3EF016EF3EF01200050154
:107D8600F46F160E0501F419D8A4CCEF3EF0CEEF31
:107D96003EF047EF3FF0160EF7EC41F06BC5ECF501
:107DA6006CC5EDF5000E0501AA6FF00EAB6F7F0EE8
:107DB600AC6F450EAD6FECC598F5EDC599F5000EA7
:107DC60099BFFF0E9A6F9B6F010ED1EC43F098C5D9
:107DD600A6F599C5A7F59AC5A8F59BC5A9F5EAEC38
:107DE60035F0A6C5BFF5A7C5C0F5A8C5C1F5A9C597
:107DF600C2F53D0E0501C36F0A0EC46F830EC56F33
:107E0600400EC66FFDEC2DF0BFC5DCF5C0C5DDF537
:107E1600C1C5DEF5C2C5DFF5D60E0501E06F0D0E54
:107E2600E16FA60EE26F3D0EE36FE0C5C3F5E1C557
:107E3600C4F5E2C5C5F5E3C5C6F5DCC5BFF5DDC5C8
:107E4600C0F5DEC5C1F5DFC5C2F5FDEC2DF0BFC539
:107E5600A6F5C0C5A7F5C1C5A8F5C2C5A9F5CD0E3D
:107E66000501AA6FCC0EAB6FCC0EAC6F3D0EAD6F9D
:107E7600EAEC35F0A6C5F0F5A7C5F1F5A8C5F2F50B
:107E8600A9C5F3F5C7EF3FF0040EF419D8A44EEFD9
:107E96003FF050EF3FF0C7EF3FF0040EF7EC41F034
:107EA6006BC5EEF56CC5EFF5000E0501AA6FF00E79
:107EB600AB6F7F0EAC6F450EAD6FEEC598F5EFC597
:107EC60099F5000E99BFFF0E9A6F9B6F010ED1ECCC
:107ED60043F098C5A6F599C5A7F59AC5A8F59BC51B
:107EE600A9F5EAEC35F0A6C5BFF5A7C5C0F5A8C546
:107EF600C1F5A9C5C2F56F0E0501C36F120EC46F99
:107F0600830EC56F400EC66FFDEC2DF0BFC5E4F5C0
:107F1600C0C5E5F5C1C5E6F5C2C5E7F5420E0501E2
:107F2600E86F110EE96F8A0EEA6F3D0EEB6FE8C53A
:107F3600C3F5E9C5C4F5EAC5C5F5EBC5C6F5E4C59F
:107F4600BFF5E5C5C0F5E6C5C1F5E7C5C2F5FDEC6B
:107F56002DF0BFC5A6F5C0C5A7F5C1C5A8F5C2C514
:107F6600A9F5CD0E0501AA6FCC0EAB6F4C0EAC6F0A
:107F76003E0EAD6FEAEC35F0A6C5F0F5A7C5F1F5F6
:107F8600A8C5F2F5A9C5F3F5F0C5BFF5F1C5C0F56D
:107F9600F2C5C1F5F3C5C2F5000E0501C36F000EAB
:107FA600C46F7A0EC56F440EC66FFDEC2DF0BFC5CB
:107FB600D8F5C0C5D9F5C1C5DAF5C2C5DBF51200DD
:107FC60000C7CFF501C7D0F502C7D1F503C7D2F573
:107FD600BFC5CFF5C0C5D0F5C1C5D1F5C2C5D2F56F
:107FE600810E0501C36FFF0EC46FCFC5C5F5D0C5A1
:107FF600C6F5D1C5C7F5D2C5C8F5180E08EF40F0CD
:10800600D890C833C733C633C533E82E03EF40F0E4
:10801600C551C325CD6F000EC421CE6FCEBF1DEF57
:1080260040F0CE5109E1170ECD5DD8A01DEF40F00E
:108036001FEF40F029EF40F0BFC5BFF5C0C5C0F542
:10804600C1C5C1F5C2C5C2F5EDEF40F0CEBF2EEFFA
:1080560040F030EF40F0A1EF40F0CDC5C3F5FF0E84
:10806600C46FFF0EC56F7F0EC66F000EC76FC36766
:108076003FEF40F047EF40F0C735C733C633C5334F
:10808600C433C32F3AEF40F0C4C5C9F5C5C5CAF518
:10809600C6C5CBF5C7C5CCF50501C951CF15C36F0C
:1080A600CA51D015C46FCB51D115C56FCC51D2155D
:1080B600C66FC351C411C511C611D8A465EF40F0EF
:1080C60067EF40F069EF40F01FEF40F0CFC5C3F512
:1080D600D0C5C4F5D1C5C5F5D2C5C6F5200E79EF14
:1080E60040F0D890C633C533C433C333E82E74EF9B
:1080F60040F0C351C411C511C611D8B485EF40F084
:1081060087EF40F08FEF40F0C951CF27CA51D023F7
:10811600CB51D123CC51D223C91DC36FCA1DC46F05
:10812600CB1DC56FCC1DC66FC351CF17C451D01719
:10813600C551D117C651D217E5EF40F0CFC5C3F5EB
:10814600D0C5C4F5D1C5C5F5D2C5C6F5200EB1EF6B
:1081560040F0D890C633C533C433C333E82EACEFF2
:1081660040F0C351C411C511C611D8A4BDEF40F0EB
:10817600BFEF40F0C9EF40F0000ECF6F000ED06F9A
:10818600000ED16F000ED26FE5EF40F0D890CF35DC
:10819600C36FD035C46FD135C56FD235C66FC351E5
:1081A600C411C511C611D8B4DBEF40F0DDEF40F0C5
:1081B600E5EF40F0000ECF6F000ED06F800ED16F4E
:1081C600BF0ED26FCFC5BFF5D0C5C0F5D1C5C1F5BD
:1081D600D2C5C2F5120021EE76F2100EDE6AE8066E
:1081E600FDE2760E0501636F060E646F73C665F5D4
:1081F60074C666F5000E686F110E676FF3EC60F0DB
:1082060006017D05D8A40AEF41F00CEF41F02DEFF1
:1082160041F0040E05016B6F000E6C6F000E6D6F62
:108226007EC66EF565EC5DF0150E0601756FC60E21
:10823600E82EFED7752FFCD70000040E0501696FE6
:10824600000E6A6F000E6B6F15EC63F00601C66FC9
:1082560056EF41F0020E7D19D8A434EF41F036EF07
:1082660041F056EF41F0040E05016B6F000E6C6F86
:10827600000E6D6F7EC66EF565EC5DF0150E06019F
:10828600756FC60EE82EFED7752FFCD70000040EBC
:108296000501696F000E6A6F000E6B6F15EC63F0D7
:1082A60000080601C66F7F05D8A45CEF41F05EEFBB
:1082B60041F07FEF41F0050E05016B6F000E6C6F0C
:1082C600000E6D6F80C66EF565EC5DF0150E06014D
:1082D600756FC60EE82EFED7752FFCD70000050E6B
:1082E6000501696F000E6A6F000E6B6F15EC63F087
:1082F6000601C76FA8EF41F0020E7F19D8A486EFDA
:1083060041F088EF41F0A8EF41F0050E05016B6FD3
:10831600000E6C6F000E6D6F80C66EF565EC5DF03D
:10832600150E0601756FC60EE82EFED7752FFCD703
:108336000000050E0501696F000E6A6F000E6B6F77
:1083460015EC63F000080601C76F550E766F760EC2
:108356000501636F060E646F0F0E656FEEEC5CF041
:1083660063C587F664C588F687C686F60601885112
:10837600856F896BF50E676F3D0E686F760E8925E2
:10838600D96EDA6A060EDA22DF50756F7551696F9B
:108396006A6BE7EC66F0100E06018961D5EF41F0D5
:1083A600D7EF41F0DDEF41F0020E676F3E0E686FCA
:1083B600E7EC66F00601892B100E8965E5EF41F0C2
:1083C600E7EF41F0BDEF41F0760E0501636F060E53
:1083D600646F000E656F000E666F000E686F110EFB
:1083E600676FF3EC60F0120005018B6F000E05015C
:1083F600936F000E926F8B51C5EC64F0D890050117
:108406009235D96E9335DA6E730ED926050EDA22B9
:1084160063C5DEF464C5DDF4924B932B93BF1DEF69
:1084260042F0935109E10C0E925DD8A01DEF42F087
:108436001FEF42F0FEEF41F0000E916F000E906FBD
:10844600000E956F000E946F000E976F000E966FDC
:1084560094EF42F0D8909635D96E9735DA6E730E52
:10846600D926050EDA2296C56FF597C570F5D89010
:108476006F377037020E6F27000E7023730E6F254D
:10848600E16E050E7021E26EDE50E65CDE50E658C7
:10849600D8B050EF42F052EF42F092EF42F0D8904F
:1084A6009635D96E9735DA6E730ED926050EDA2211
:1084B600DEC48CF5DDC48DF596C56DF597C56EF5F4
:1084C600D8906D376E37020E6D27000E6E23730E31
:1084D6006D25D96E050E6E21DA6ED8909635E16E51
:1084E6009735E26E730EE126050EE222DEC4E6F44F
:1084F600DDC4E5F496C56DF597C56EF5D8906D3774
:108506006E37020E6D27000E6E23730E6D25D96E23
:10851600050E6E21DA6E8CC5DEF48DC5DDF4964B44
:10852600972B0B0E6D6F000E6E6F94516D5F95510C
:108536006E5B6D51965D9751800A6F6F6E51800A22
:108546006F59D8A0A9EF42F0ABEF42F02DEF42F001
:10855600944B952B95BFB9EF42F0955109E10B0E5F
:10856600945DD8A0B9EF42F0BBEF42F027EF42F09E
:10857600000E956F020E946FD8909435D96E95358E
:10858600DA6E730ED926050EDA22DE509027DD50FC
:108596009123944B952B95BFDAEF42F0955109E163
:1085A6000A0E945DD8A0DAEF42F0DCEF42F0BFEF9E
:1085B60042F090C563F591C564F5000E666F080E2E
:1085C600656F4EEC55F063C58EF564C58FF58EC5A7
:1085D6006BF58FC56CF51200050183BFF5EF42F010
:1085E600F8EF42F0010EF9EF42F0000E8A6F060135
:1085F600CCBF00EF43F002EF43F003EF43F0E59307
:10860600CCBF0AEF43F008EF43F011EF43F0000E42
:108616000501876F010E866F15EF43F0CBC686F511
:10862600CCC687F5C9C688F5CAC689F505018A513B
:10863600D8B420EF43F022EF43F039EF43F0880738
:10864600D8A089078A51D8A42BEF43F02DEF43F029
:1086560033EF43F0000E856F2B0E846F37EF43F038
:10866600000E856F2D0E846F84C58AF5000E8C6F03
:108676004F0E8B6F0901D36B73EF43F005018B0728
:10868600D8A08C07840E8B25D96E090E8C21DA6E44
:1086960082C563F583C564F5000E666F0A0E656FC5
:1086A600ECEC58F063C569F564C56AF58FEC65F0C6
:1086B60005016951300FDF6E8607D8A08707880746
:1086C600D8A0890782C563F583C564F5000E666F79
:1086D6000A0E656F4EEC55F063C582F564C583F5E9
:1086E60005018CBF7FEF43F08C5108E18B05D8A0C4
:1086F6007FEF43F081EF43F0ACEF43F082518311FB
:10870600D8A488EF43F08AEF43F041EF43F087BFE8
:1087160097EF43F0875106E18605D8B095EF43F011
:1087260097EF43F041EF43F089BFA2EF43F0895141
:1087360008E18805D8A0A2EF43F0A4EF43F0ACEF20
:1087460043F00601E5B3AAEF43F0ACEF43F041EF87
:1087560043F005018A51D8B4B3EF43F0B5EF43F0C7
:10876600C0EF43F08B07D8A08C07840E8B25D96EFB
:10877600090E8C21DA6E8AC5DFF480C577F581C5CE
:1087860078F5840E8B25796F090E8C217A6F88C552
:108796007BF589C57CF5F0EC59F012000501A06F58
:1087A6000501A051D8B4DAEF43F0DCEF43F0FEEF59
:1087B60043F09BBFE3EF43F0E1EF43F0FEEF43F0FE
:1087C60098C59CF599C59DF59AC59EF59BC59FF5DF
:1087D6009C1F9D1F9E1F9F1F9C2B000E9D239E234B
:1087E6009F239CC5A2F59DC5A3F59EC5A4F59FC56F
:1087F600A5F506EF44F098C5A2F599C5A3F59AC567
:10880600A4F59BC5A5F5985199119A119B11D8A469
:108816000FEF44F011EF44F01BEF44F0000E986F99
:10882600000E996F000E9A6F000E9B6FACEF44F02E
:10883600960EA16F25EF44F0A12BD890A533A43353
:10884600A333A233000EA2159C6F000EA3159D6FD5
:10885600000EA4159E6FFE0EA5159F6F9C519D11CF
:108866009E119F11D8A43AEF44F03CEF44F01FEF5D
:1088760044F04AEF44F0A12B010EA227000EA323D9
:10888600A423A523D890A533A433A333A233000E83
:10889600A2159C6F000EA3159D6F000EA4159E6F6A
:1088A600FF0EA5159F6F9C519D119E119F11D8A477
:1088B6005FEF44F061EF44F03EEF44F069EF44F0BF
:1088C600A107D890A237A337A437A537A4BF6EEF68
:1088D60044F070EF44F078EF44F0020EA16176EFB9
:1088E60044F078EF44F063EF44F0A1B17DEF44F03B
:1088F6007FEF44F080EF44F0A49FD890A133A1C548
:108906009CF59D6B9E6B9F6B9CC59FF59E6B9D6BAF
:108916009C6B9C51A2139D51A3139E51A4139F516E
:10892600A513A051D8B49AEF44F09CEF44F0A4EFFD
:1089360044F09BBFA3EF44F0A1EF44F0A4EF44F052
:10894600A58FA2C598F5A3C599F5A4C59AF5A5C5A1
:108956009BF51200000E0601886F000E896F000E4F
:108966008A6F000E8B6F21EE77F2100EDE6AE80634
:10897600FDE2770E0501636F060E646F73C665F53B
:1089860074C666F5000E686F110E676FF3EC60F043
:108996000601926B9251756F766B070E7527000E66
:1089A6007623770E7525D96E060E7621DA6E880E39
:1089B6009225E16EE26A060EE222DFC4E7F4150EA6
:1089C6000601756FC60EE82EFED7752FFCD7000080
:1089D6000601922B030E9265F3EF44F0F5EF44F097
:1089E600CDEF44F0880E0501BF6F060EC06F040E72
:1089F600C16F540E75EC66F0D00E0601756FC90E88
:108A0600E82EFED7752FFCD700D0550E0601776FDE
:108A1600040E0501786F540E1CEC65F078C58CF6D3
:108A260079C58DF67E0E0501636F060E646F8CC6E2
:108A360065F58DC666F5000E686F040E676FF3EC7C
:108A460060F0030E0501786F5C0E1CEC65F078C5CE
:108A56008EF679C58FF6060120EE02F08E51D926E4
:108A66008F51DA22DF50826F770E0501636F060E93
:108A7600646F0F0E656FEEEC5CF063C590F664C52F
:108A860091F690C687F606019151866F936BF50EA7
:108A9600676F3D0E686F770E9325D96EDA6A060EFC
:108AA600DA22DF50756F7551696F6A6BE7EC66F015
:108AB600100E0601936162EF45F064EF45F06AEF30
:108AC60045F0020E676F3E0E686FE7EC66F0060132
:108AD600932B100E936572EF45F074EF45F04AEF55
