:0430000081EF18F054
:10300800B02FB02FB02FB02F400CB02F400CB02FE6
:10301800EA2EB02FA92FB02FB02FB02FB02FB02F7E
:10302800AA2F400C400C400CB02FB02FB02FB02F5F
:10303800B02FB02FB02FAD2CAD2BB02FB02F9C2CB4
:103048001D2F9F2FB02FB02F400C400CB02FB02F4A
:10305800B02FB02FB02F400CB02FB02F7A2C6A278A
:10306800F02EB02FB02FB02FB02FB02FB02FB02F21
:10307800C32ECA2EE028B026400CB02F8B2C9727E1
:10308800B02FB02FB02FB02FB02FB02FB02FB02F40
:10309800B02FB02FB02FB02F400CB02F400C400CE9
:1030A800F62EB02FB02FB02FB02FB02FB02FB02FDB
:1030B800B02FB02FB02FFB2BB02FB02FB02FB02FC9
:1030C800B02FB02FB02FB02FB02FB02FB02FB02F00
:1030D800B02FB02FB02FB02FB02FB02FB02FB02FF0
:1030E800400CB02FB02FB02F400C400C400C400CBF
:1030F800B02FB02FB02FB02FFF0066EF49F00000BF
:10310800C0C101C30302C2C60607C705C5C404CCB3
:103118000C0DCD0FCFCE0E0ACACB0BC90908C8D8E3
:103128001819D91BDBDA1A1EDEDF1FDD1D1CDC14A3
:10313800D4D515D71716D6D21213D311D1D010F073
:103148003031F133F3F23236F6F737F53534F43CF3
:10315800FCFD3DFF3F3EFEFA3A3BFB39F9F83828C3
:10316800E8E929EB2B2AEAEE2E2FEF2DEDEC2CE4E3
:103178002425E527E7E62622E2E323E12120E0A053
:103188006061A163A3A26266A6A767A56564A46C33
:10319800ACAD6DAF6F6EAEAA6A6BAB69A9A8687863
:1031A800B8B979BB7B7ABABE7E7FBF7DBDBC7CB423
:1031B8007475B577B7B67672B2B373B17170B05033
:1031C8009091519353529296565797559594549C73
:1031D8005C5D9D5F9F9E5E5A9A9B5B995958988843
:1031E8004849894B8B8A4A4E8E8F4F8D4D4C8C4463
:1031F80084854587474686824243834181804000D3
:10320800C1814001C0804101C0804100C1814001AD
:10321800C0804100C1814000C1814001C08041019E
:10322800C0804100C1814000C1814001C08041008F
:10323800C1814001C0804101C0804100C18140017D
:10324800C0804100C1814000C1814001C08041006F
:10325800C1814001C0804101C0804100C18140005E
:10326800C1814001C0804101C0804100C18140014D
:10327800C0804100C1814000C1814001C08041013E
:10328800C0804100C1814000C1814001C08041002F
:10329800C1814001C0804101C0804100C18140001E
:1032A800C1814001C0804101C0804100C18140010D
:1032B800C0804100C1814000C1814001C0804100FF
:1032C800C1814001C0804101C0804100C1814001ED
:1032D800C0804100C1814000C1814001C0804101DE
:1032E800C0804100C1814000C1814001C0804100CF
:1032F800C1814001C0804101C0804100C1814000BE
:10330800C0C101C30302C2C60607C705C5C404CCB1
:103318000C0DCD0FCFCE0E0ACACB0BC90908C8D8E1
:103328001819D91BDBDA1A1EDEDF1FDD1D1CDC14A1
:10333800D4D515D71716D6D21213D311D1D010F071
:103348003031F133F3F23236F6F737F53534F43CF1
:10335800FCFD3DFF3F3EFEFA3A3BFB39F9F83828C1
:10336800E8E929EB2B2AEAEE2E2FEF2DEDEC2CE4E1
:103378002425E527E7E62622E2E323E12120E0A051
:103388006061A163A3A26266A6A767A56564A46C31
:10339800ACAD6DAF6F6EAEAA6A6BAB69A9A8687861
:1033A800B8B979BB7B7ABABE7E7FBF7DBDBC7CB421
:1033B8007475B577B7B67672B2B373B17170B05031
:1033C8009091519353529296565797559594549C71
:1033D8005C5D9D5F9F9E5E5A9A9B5B995958988841
:1033E8004849894B8B8A4A4E8E8F4F8D4D4C8C4461
:1033F80084854587474686824243834181804000D1
:10340800C1814001C0804101C0804100C1814001AB
:10341800C0804100C1814000C1814001C08041019C
:10342800C0804100C1814000C1814001C08041008D
:10343800C1814001C0804101C0804100C18140017B
:10344800C0804100C1814000C1814001C08041006D
:10345800C1814001C0804101C0804100C18140005C
:10346800C1814001C0804101C0804100C18140014B
:10347800C0804100C1814000C1814001C08041013C
:10348800C0804100C1814000C1814001C08041002D
:10349800C1814001C0804101C0804100C18140001C
:1034A800C1814001C0804101C0804100C18140010B
:1034B800C0804100C1814000C1814001C0804100FD
:1034C800C1814001C0804101C0804100C1814001EB
:1034D800C0804100C1814000C1814001C0804101DC
:1034E800C0804100C1814000C1814001C0804100CD
:1034F800C1814001C0804101C0804100C1814000BC
:10350800C0C101C30302C2C60607C705C5C404CCAF
:103518000C0DCD0FCFCE0E0ACACB0BC90908C8D8DF
:103528001819D91BDBDA1A1EDEDF1FDD1D1CDC149F
:10353800D4D515D71716D6D21213D311D1D010F06F
:103548003031F133F3F23236F6F737F53534F43CEF
:10355800FCFD3DFF3F3EFEFA3A3BFB39F9F83828BF
:10356800E8E929EB2B2AEAEE2E2FEF2DEDEC2CE4DF
:103578002425E527E7E62622E2E323E12120E0A04F
:103588006061A163A3A26266A6A767A56564A46C2F
:10359800ACAD6DAF6F6EAEAA6A6BAB69A9A868785F
:1035A800B8B979BB7B7ABABE7E7FBF7DBDBC7CB41F
:1035B8007475B577B7B67672B2B373B17170B0502F
:1035C8009091519353529296565797559594549C6F
:1035D8005C5D9D5F9F9E5E5A9A9B5B99595898883F
:1035E8004849894B8B8A4A4E8E8F4F8D4D4C8C445F
:1035F80084854587474686824243834181804000CF
:10360800C1814001C0804101C0804100C1814001A9
:10361800C0804100C1814000C1814001C08041019A
:10362800C0804100C1814000C1814001C08041008B
:10363800C1814001C0804101C0804100C181400179
:10364800C0804100C1814000C1814001C08041006B
:10365800C1814001C0804101C0804100C18140005A
:10366800C1814001C0804101C0804100C181400149
:10367800C0804100C1814000C1814001C08041013A
:10368800C0804100C1814000C1814001C08041002B
:10369800C1814001C0804101C0804100C18140001A
:1036A800C1814001C0804101C0804100C181400109
:1036B800C0804100C1814000C1814001C0804100FB
:1036C800C1814001C0804101C0804100C1814001E9
:1036D800C0804100C1814000C1814001C0804101DA
:1036E800C0804100C1814000C1814001C0804100CB
:1036F800C1814001C0804101C0804100C1814000BA
:10370800C0C101C30302C2C60607C705C5C404CCAD
:103718000C0DCD0FCFCE0E0ACACB0BC90908C8D8DD
:103728001819D91BDBDA1A1EDEDF1FDD1D1CDC149D
:10373800D4D515D71716D6D21213D311D1D010F06D
:103748003031F133F3F23236F6F737F53534F43CED
:10375800FCFD3DFF3F3EFEFA3A3BFB39F9F83828BD
:10376800E8E929EB2B2AEAEE2E2FEF2DEDEC2CE4DD
:103778002425E527E7E62622E2E323E12120E0A04D
:103788006061A163A3A26266A6A767A56564A46C2D
:10379800ACAD6DAF6F6EAEAA6A6BAB69A9A868785D
:1037A800B8B979BB7B7ABABE7E7FBF7DBDBC7CB41D
:1037B8007475B577B7B67672B2B373B17170B0502D
:1037C8009091519353529296565797559594549C6D
:1037D8005C5D9D5F9F9E5E5A9A9B5B99595898883D
:1037E8004849894B8B8A4A4E8E8F4F8D4D4C8C445D
:1037F80084854587474686824243834181804000CD
:10380800C1814001C0804101C0804100C1814001A7
:10381800C0804100C1814000C1814001C080410198
:10382800C0804100C1814000C1814001C080410089
:10383800C1814001C0804101C0804100C181400177
:10384800C0804100C1814000C1814001C080410069
:10385800C1814001C0804101C0804100C181400058
:10386800C1814001C0804101C0804100C181400147
:10387800C0804100C1814000C1814001C080410138
:10388800C0804100C1814000C1814001C080410029
:10389800C1814001C0804101C0804100C181400018
:1038A800C1814001C0804101C0804100C181400107
:1038B800C0804100C1814000C1814001C0804100F9
:1038C800C1814001C0804101C0804100C1814001E7
:1038D800C0804100C1814000C1814001C0804101D8
:1038E800C0804100C1814000C1814001C0804100C9
:1038F800C1814001C0804101C0804100C1814000B8
:10390800C0C101C30302C2C60607C705C5C404CCAB
:103918000C0DCD0FCFCE0E0ACACB0BC90908C8D8DB
:103928001819D91BDBDA1A1EDEDF1FDD1D1CDC149B
:10393800D4D515D71716D6D21213D311D1D010F06B
:103948003031F133F3F23236F6F737F53534F43CEB
:10395800FCFD3DFF3F3EFEFA3A3BFB39F9F83828BB
:10396800E8E929EB2B2AEAEE2E2FEF2DEDEC2CE4DB
:103978002425E527E7E62622E2E323E12120E0A04B
:103988006061A163A3A26266A6A767A56564A46C2B
:10399800ACAD6DAF6F6EAEAA6A6BAB69A9A868785B
:1039A800B8B979BB7B7ABABE7E7FBF7DBDBC7CB41B
:1039B8007475B577B7B67672B2B373B17170B0502B
:1039C8009091519353529296565797559594549C6B
:1039D8005C5D9D5F9F9E5E5A9A9B5B99595898883B
:1039E8004849894B8B8A4A4E8E8F4F8D4D4C8C445B
:1039F80084854587474686824243834181804000CB
:103A0800C1814001C0804101C0804100C1814001A5
:103A1800C0804100C1814000C1814001C080410196
:103A2800C0804100C1814000C1814001C080410087
:103A3800C1814001C0804101C0804100C181400175
:103A4800C0804100C1814000C1814001C080410067
:103A5800C1814001C0804101C0804100C181400056
:103A6800C1814001C0804101C0804100C181400145
:103A7800C0804100C1814000C1814001C080410136
:103A8800C0804100C1814000C1814001C080410027
:103A9800C1814001C0804101C0804100C181400016
:103AA800C1814001C0804101C0804100C181400105
:103AB800C0804100C1814000C1814001C0804100F7
:103AC800C1814001C0804101C0804100C1814001E5
:103AD800C0804100C1814000C1814001C0804101D6
:103AE800C0804100C1814000C1814001C0804100C7
:103AF800C1814001C0804101C0804100C1814000B6
:103B0800C0C101C30302C2C60607C705C5C404CCA9
:103B18000C0DCD0FCFCE0E0ACACB0BC90908C8D8D9
:103B28001819D91BDBDA1A1EDEDF1FDD1D1CDC1499
:103B3800D4D515D71716D6D21213D311D1D010F069
:103B48003031F133F3F23236F6F737F53534F43CE9
:103B5800FCFD3DFF3F3EFEFA3A3BFB39F9F83828B9
:103B6800E8E929EB2B2AEAEE2E2FEF2DEDEC2CE4D9
:103B78002425E527E7E62622E2E323E12120E0A049
:103B88006061A163A3A26266A6A767A56564A46C29
:103B9800ACAD6DAF6F6EAEAA6A6BAB69A9A8687859
:103BA800B8B979BB7B7ABABE7E7FBF7DBDBC7CB419
:103BB8007475B577B7B67672B2B373B17170B05029
:103BC8009091519353529296565797559594549C69
:103BD8005C5D9D5F9F9E5E5A9A9B5B995958988839
:103BE8004849894B8B8A4A4E8E8F4F8D4D4C8C4459
:103BF80084854587474686824243834181804000C9
:103C0800C1814001C0804101C0804100C1814001A3
:103C1800C0804100C1814000C1814001C080410194
:103C2800C0804100C1814000C1814001C080410085
:103C3800C1814001C0804101C0804100C181400173
:103C4800C0804100C1814000C1814001C080410065
:103C5800C1814001C0804101C0804100C181400054
:103C6800C1814001C0804101C0804100C181400143
:103C7800C0804100C1814000C1814001C080410134
:103C8800C0804100C1814000C1814001C080410025
:103C9800C1814001C0804101C0804100C181400014
:103CA800C1814001C0804101C0804100C181400103
:103CB800C0804100C1814000C1814001C0804100F5
:103CC800C1814001C0804101C0804100C1814001E3
:103CD800C0804100C1814000C1814001C0804101D4
:103CE800C0804100C1814000C1814001C0804100C5
:103CF800C1814001C0804101C0804100C18140684C
:103D0800A0000000002CB60052AF0000000090BBDD
:103D1800000000000000000000000000000000009B
:103D2800000000000000000000000000000000008B
:103D380000000000005EBA000000003ABA0016BA9F
:103D480000F2B900000000BEAD00000000C2AB00E8
:103D58001AAC00000000000000000000E8B70000F6
:0D3D6800000000000025303258002000004F
:103D7600A1C674F5A2C675F5A3C676F5A4C677F5F1
:103D8600A5C678F5A6C679F5A7C67AF5A8C67BF5C1
:103D960065EC58F074C5C9F675C5CAF676C5CBF696
:103DA60077C5CCF6C9C67CF5CAC67DF5CBC67EF509
:103DB600CCC67FF5E1EC5AF07CC5D1F67DC5D2F6CE
:103DC6007EC5D3F67FC5D4F6060120EE05F09F51D9
:103DD600D926A051DA22DEC4CDF6DEC4CEF6DEC484
:103DE600CFF6DEC4D0F6000E0501D96F000EDA6FED
:103DF600480EDB6F420EDC6FD1C6DDF5D2C6DEF5AE
:103E0600D3C6DFF5D4C6E0F502EC47F00501D8B01D
:103E16000FEF1FF011EF1FF02DEF1FF0CDC6C0F50D
:103E2600CEC6C1F5CFC6C2F5D0C6C3F5CD0EC46F9A
:103E3600CC0EC56FCC0EC66F3D0EC76F79EC28F061
:103E4600C0C5CDF6C1C5CEF6C2C5CFF6C3C5D0F640
:103E560097EF1FF0000ED96F000EDA6FA00EDB6F22
:103E6600410EDC6FD1C6DDF5D2C6DEF5D3C6DFF571
:103E7600D4C6E0F502EC47F00501D8B045EF1FF0D7
:103E860047EF1FF063EF1FF0CDC6C0F5CEC6C1F5F4
:103E9600CFC6C2F5D0C6C3F59A0EC46F990EC56FCC
:103EA600990EC66F3E0EC76F79EC28F0C0C5CDF6E9
:103EB600C1C5CEF6C2C5CFF6C3C5D0F697EF1FF083
:103EC600D1C6D9F5D2C6DAF5D3C6DBF5D4C6DCF54C
:103ED600000EDD6F000EDE6FA00EDF6F400EE06F8E
:103EE60002EC47F00501D8B07BEF1FF07DEF1FF025
:103EF60097EF1FF0CDC6C0F5CEC6C1F5CFC6C2F549
:103F0600D0C6C3F5000EC46F000EC56F000EC66F97
:103F1600400EC76F79EC28F0C0C5CDF6C1C5CEF608
:103F2600C2C5CFF6C3C5D0F6060120EE01F09F51FB
:103F3600D926A051DA22DEC4C0F5DEC4C1F5DEC43E
:103F4600C2F5DEC4C3F5C9C6C4F5CAC6C5F5CBC637
:103F5600C6F5CCC6C7F579EC28F0C0C5A9F6C1C52B
:103F6600AAF6C2C5ABF6C3C5ACF6D1C6D9F5D2C65C
:103F7600DAF5D3C6DBF5D4C6DCF5000E0501DD6F38
:103F8600000EDE6F480EDF6F420EE06F02EC47F068
:103F96000501D8B0D1EF1FF0D3EF1FF0B7EF21F036
:103FA600C9C6D5F6CAC6D6F6CBC6D7F6CCC6D8F697
:103FB600000ED96F000EDA6FF00EDB6F410EDC6F6C
:103FC600D1C6DDF5D2C6DEF5D3C6DFF5D4C6E0F53B
:103FD60002EC47F00501D8B0F3EF1FF0F5EF1FF044
:103FE6003EEF20F0000ED96F000EDA6F200EDB6F69
:103FF600420EDC6FD5C6DDF5D6C6DEF5D7C6DFF5D3
:10400600D8C6E0F502EC47F00501D8B00DEF20F078
:104016000FEF20F018EF20F0000E0601D56F000E0E
:10402600D66F200ED76F420ED86FD5C6D9F5D6C635
:10403600DAF5D7C6DBF5D8C6DCF5000E0501DD6F6F
:10404600000EDE6F200EDF6FC20EE06F02EC47F04F
:104056000501D8B031EF20F033EF20F013EF21F057
:10406600000E0601D56F000ED66F200ED76FC20E5A
:10407600D86F13EF21F0000ED96F000EDA6F200E05
:10408600DB6F410EDC6FD1C6DDF5D2C6DEF5D3C6D9
:10409600DFF5D4C6E0F502EC47F00501D8B056EFDF
:1040A60020F058EF20F0CCEF20F0D1C6C0F5D2C6F4
:1040B600C1F5D3C6C2F5D4C6C3F5CD0EC46FCC0EBA
:1040C600C56F4C0EC66F3F0EC76F79EC28F0C0C5A2
:1040D600C1F6C1C5C2F6C2C5C3F6C3C5C4F6C1C6DC
:1040E600D9F5C2C6DAF5C3C6DBF5C4C6DCF5D5C656
:1040F600DDF5D6C6DEF5D7C6DFF5D8C6E0F502ECA7
:1041060047F00501D8B08AEF20F08CEF20F094EF4D
:1041160020F0C1C6D5F6C2C6D6F6C3C6D7F6C4C603
:10412600D8F6D5C6D9F5D6C6DAF5D7C6DBF5D8C6DC
:10413600DCF5C1C664F5C2C665F5C3C666F5C4C678
:1041460067F517EC5AF064C5DDF565C5DEF566C59D
:10415600DFF567C5E0F502EC47F00501D8B0B6EF2C
:1041660020F0B8EF20F013EF21F0C1C664F5C2C607
:1041760065F5C3C666F5C4C667F517EC5AF064C59F
:10418600D5F665C5D6F666C5D7F667C5D8F613EF74
:1041960021F0000ED96F000EDA6FA00EDB6F400E15
:1041A600DC6FD5C6DDF5D6C6DEF5D7C6DFF5D8C6D3
:1041B600E0F502EC47F00501D8B0E4EF20F0E6EFB9
:1041C60020F0EFEF20F0000E0601D56F000ED66F3F
:1041D600A00ED76F400ED86FD5C6D9F5D6C6DAF57C
:1041E600D7C6DBF5D8C6DCF5000E0501DD6F000E7F
:1041F600DE6FA00EDF6FC00EE06F02EC47F0050128
:10420600D8B008EF21F00AEF21F013EF21F0000EED
:104216000601D56F000ED66FA00ED76FC00ED86FF1
:10422600D5C6C0F5D6C6C1F5D7C6C2F5D8C6C3F53C
:10423600060120EE05F09F51D926A051DA22DEC4F0
:10424600ABF5DEC4ACF5DEC4ADF5DEC4AEF5CDC669
:10425600A7F5CEC6A8F5CFC6A9F5D0C6AAF54AECED
:104266002EF0A7C5C4F5A8C5C5F5A9C5C6F5AAC546
:10427600C7F579EC28F0C0C5D5F6C1C5D6F6C2C5D6
:10428600D7F6C3C5D8F6060120EE1DF09F51D926F4
:10429600A051DA22DEC464F5DEC465F5DEC466F537
:1042A600DEC467F5D5C668F5D6C669F5D7C66AF51C
:1042B600D8C66BF5C5EC23F0060120EE1DF09F5124
:1042C600D926A051DA22050164C5DEF465C5DEF4FF
:1042D60066C5DEF467C5DEF4060120EE11F09F51D7
:1042E600D926A051DA22DEC493F6DEC494F6DEC4E3
:1042F60095F6DEC496F620EE1DF09F51D926A05104
:10430600DA22DEC48BF6DEC48CF6DEC48DF6DEC49D
:104316008EF620EE0DF09F51D926A051DA22DEC48A
:104326008FF6DEC490F6DEC491F6DEC492F684EC17
:1043360041F08BC697F68CC698F68DC699F68EC652
:104346009AF618EC42F0060120EE1DF09F51D92690
:10435600A051DA2293C6DEF494C6DEF495C6DEF4E6
:1043660096C6DEF4C6EF21F0060120EE1DF09F5141
:10437600D926A051DA22000EDE6E000EDE6E000E89
:10438600DE6E000EDD6E20EE1DF09F51D926A05187
:10439600DA22DEC4C0F5DEC4C1F5DEC4C2F5DEC471
:1043A600C3F5CDC6C4F5CEC6C5F5CFC6C6F5D0C6CF
:1043B600C7F579EC28F0C0C5ADF6C1C5AEF6C2C5E5
:1043C600AFF6C3C5B0F6060120EE21F09F51D926FF
:1043D600A051DA22DEC478F5DEC479F5DEC47AF5BA
:1043E600DEC47BF5C9C674F5CAC675F5CBC676F5C7
:1043F600CCC677F565EC58F074C5C0F575C5C1F542
:1044060076C5C2F577C5C3F5060120EE09F09F51C2
:10441600D926A051DA22DEC4C4F5DEC4C5F5DEC451
:10442600C6F5DEC4C7F579EC28F0C0C5BDF6C1C532
:10443600BEF6C2C5BFF6C3C5C0F6330E0501C46FCE
:10444600330EC56F330EC66F3F0EC76FBDC6C0F5C0
:10445600BEC6C1F5BFC6C2F5C0C6C3F579EC28F025
:10446600C0C564F5C1C565F5C2C566F5C3C567F5C2
:104476009A0E0501C46F990EC56F990EC66F3E0E52
:10448600C76F22C7C0F523C7C1F524C7C2F525C724
:10449600C3F579EC28F0C0C568F5C1C569F5C2C594
:1044A6006AF5C3C56BF5C5EC23F064C5BDF665C5F5
:1044B600BEF666C5BFF667C5C0F6BDC622F7BEC660
:1044C60023F7BFC624F7C0C625F7060120EE21F064
:1044D6009F51D926A051DA22C9C6DEF4CAC6DEF437
:1044E600CBC6DEF4CCC6DEF4ADC668F5AEC669F55D
:1044F600AFC66AF5B0C66BF5A9C664F5AAC665F57A
:10450600ABC666F5ACC667F5C5EC23F064C5B1F677
:1045160065C5B2F666C5B3F667C5B4F6B1C664F549
:10452600B2C665F5B3C666F5B4C667F5BDC668F529
:10453600BEC669F5BFC66AF5C0C66BF5C5EC23F005
:1045460064C5C5F665C5C6F666C5C7F667C5C8F6C9
:104556009FC6D9F4A0C6DAF4DE04D8A4B5EF22F0DB
:10456600B7EF22F038EF23F00601C8BFBFEF22F005
:10457600BDEF22F0C9EF22F0000EB56F000EB66F48
:10458600000EB76FBF0EB86FD1EF22F0000EB56FF9
:10459600000EB66F000EB76F3F0EB86FC5C668F552
:1045A600C6C669F5C7C66AF5C8C66BF5B5C664F56D
:1045B600B6C665F5B7C666F5B8C667F5C5EC23F0A9
:1045C60064C59BF665C59CF666C59DF667C59EF6F1
:1045D6005AEC44F006019B5152279C515323000E7E
:1045E6008F6F000E906F480E916F450E926F52C6F8
:1045F60099F553C69AF50501000E9ABFFF0E9B6FFB
:104606009C6F010EBBEC3BF099C58BF69AC58CF6F8
:104616009BC58DF69CC58EF684EC41F08BC697F64D
:104626008CC698F68DC699F68EC69AF6000E0601C9
:10463600936F000E946F000E956F000E966F18EC38
:1046460042F093C69BF694C69CF695C69DF696C612
:104656009EF65AEC44F09BC652F69CC653F652C6DA
:104666009FF653C6A0F6C4EF23F09FC6D9F4A0C6A2
:10467600DAF4020EDE18D8A443EF23F045EF23F058
:10468600C4EF23F00601C8BF4DEF23F04BEF23F034
:1046960057EF23F0000EB96F000EBA6F000EBB6F16
:1046A600BF0EBC6F5FEF23F0000EB96F000EBA6F3E
:1046B600000EBB6F3F0EBC6FC5C668F5C6C669F572
:1046C600C7C66AF5C8C66BF5B9C664F5BAC665F558
:1046D600BBC666F5BCC667F5C5EC23F064C59BF69C
:1046E60065C59CF666C59DF667C59EF65AEC44F010
:1046F60006019B5150279C515123000E8F6F000ECF
:10470600906F480E916F450E926F50C699F551C63F
:104716009AF50501000E9ABFFF0E9B6F9C6F010E66
:10472600BBEC3BF099C58BF69AC58CF69BC58DF60E
:104736009CC58EF684EC41F08BC697F68CC698F62F
:104746008DC699F68EC69AF6000E0601936F000E78
:10475600946F000E956F000E966F18EC42F093C69C
:104766009BF694C69CF695C69DF696C69EF65AECA2
:1047760044F09BC650F69CC651F650C69FF651C6ED
:10478600A0F6120005016751800B706F675167250F
:10479600726F66AFD1EF23F0D3EF23F0D4EF23F09F
:1047A60072817251D8B4DAEF23F0DCEF23F0F0EF28
:1047B60023F07229D8A4E2EF23F0E4EF23F0ECEF24
:1047C60023F0000E646F000E656F000E666F000E1C
:1047D600676F668F676BF8EF23F0000E646F000E4D
:1047E600656F000E666F000E676F6B51800B716F01
:1047F60070517119D8B402EF24F004EF24F005EFDC
:1048060024F0708D6B516B25716F6AAF0DEF24F03C
:104816000FEF24F010EF24F071817151D8B416EF28
:1048260024F018EF24F02CEF24F07129D8A41EEF01
:1048360024F020EF24F028EF24F0000E686F000E1D
:10484600696F000E6A6F000E6B6F6A8F6B6B34EFC9
:1048560024F0000E686F000E696F000E6A6F000E7E
:104866006B6F7251715DD8B03BEF24F03DEF24F0D1
:1048760064EF24F070AD42EF24F044EF24F046EFED
:1048860024F0800E701B72C573F571C572F573C581
:1048960071F564C573F568C564F573C568F565C5D6
:1048A60073F569C565F573C569F566C573F56AC5BA
:1048B60066F573C56AF567C573F56BC567F573C5A8
:1048C6006BF5736B725171C56CF56D6B6C5F000E99
:1048D6006D5B6DBF78EF24F06D5109E11A0E6C5DCA
:1048E600D8A078EF24F07AEF24F0B1EF24F06451E9
:1048F600651166116711D8A483EF24F086EF24F0C2
:10490600010E87EF24F0000E736F000E646F000E29
:10491600656F000E666F000E676F71C572F5BAEFB0
:1049260024F073A199EF24F09BEF24F0A1EF24F07B
:10493600D89073310109736FA3EF24F0D8907333C5
:1049460064A1A8EF24F0AAEF24F0ABEF24F0738F54
:1049560067356733663365336433722B7151725D25
:10496600D8A0B8EF24F0BAEF24F094EF24F070BD8D
:10497600BFEF24F0C1EF24F001EF25F07251D8A467
:10498600C7EF24F0C9EF24F0D3EF24F0000E646FD4
:10499600000E656F000E666F000E676F20EF26F043
:1049A60068516427695165236A5166236B516723F1
:1049B60067A1E0EF24F0E2EF24F08EEF25F073A17B
:1049C600E7EF24F0E9EF24F0EFEF24F0D89073310D
:1049D6000109736FF1EF24F0D890733364A1F6EFF9
:1049E60024F0F8EF24F0F9EF24F0738F673567337E
:1049F600663365336433722B8EEF25F06851645D40
:104A0600695165596A5166596751800A6C6F6B51D5
:104A1600800A6C59D8B012EF25F014EF25F03FEF5D
:104A260025F06451685D6C6F655169596D6F66510B
:104A36006A596E6F67516B596F6FFF0E6C25646F05
:104A4600FF0E6D21656FFF0E6E21666FFF0E6F21E3
:104A5600676F800E701B736D7351D8A435EF25F008
:104A660037EF25F047EF25F0010E6427000E65238A
:104A76006623672347EF25F06851645F6951655BDC
:104A86006A51665B6B51675B64516511661167110C
:104A9600D8A450EF25F052EF25F087EF25F073519B
:104AA600D8A458EF25F05AEF25F087EF25F0000E31
:104AB600646F000E656F000E666F000E676F20EF65
:104AC60026F0D890643765376637673773AF6EEF71
:104AD60025F070EF25F071EF25F0648173A176EF74
:104AE60025F078EF25F07CEF25F0D88073377EEF40
:104AF60025F0D89073377251D8B484EF25F086EF3D
:104B060025F087EF25F0720766AF8CEF25F08EEF64
:104B160025F064EF25F0716B73AF94EF25F096EFF7
:104B260025F0AEEF25F073C56CF57F0E6C17D8B483
:104B36009FEF25F0A1EF25F0A5EF25F0010E716F8F
:104B4600AEEF25F064A1AAEF25F0ACEF25F0AEEFAD
:104B560025F0A1EF25F07151D8B4B4EF25F0B6EFEA
:104B660025F0E1EF25F0010E6427000E652366238C
:104B7600672367A1C1EF25F0C3EF25F0E1EF25F02C
:104B860064C56CF565C56DF566C56EF567C56FF5EB
:104B96006F356F336E336D336C336CC564F56DC52D
:104BA60065F56EC566F56FC567F57229D8B4DEEF93
:104BB60025F0E0EF25F0E1EF25F0722B7229D8B44D
:104BC600E7EF25F0E9EF25F0F1EF25F07251D8A4D3
:104BD600EFEF25F0F1EF25F002EF26F0000E646FFF
:104BE600000E656F000E666F000E676F7251D8A4D7
:104BF600FFEF25F001EF26F002EF26F0706B72A1B1
:104C060007EF26F009EF26F00CEF26F0668F0DEF82
:104C160026F0669FD8907231676F70AF15EF26F059
:104C260017EF26F018EF26F0678F64C564F565C5A3
:104C360065F566C566F567C567F512000501EF6F90
:104C46001C0E0501EF19D8A42BEF26F02DEF26F048
:104C560052EF27F0010E06016A6534EF26F036EFB3
:104C660026F052EF27F0000E0501AB6F000EAC6F79
:104C76007A0EAD6F440EAE6F1C0EEAEC38F00501ED
:104C86006CC599F56DC59AF59B6B9C6B000EBBECDC
:104C96003BF099C5A7F59AC5A8F59BC5A9F59CC58E
:104CA600AAF54AEC2EF0A7C5C0F5A8C5C1F5A9C559
:104CB600C2F5AAC5C3F5000E0501C46F000EC56F87
:104CC600110EC66F430EC76F79EC28F0C0C5F4F518
:104CD600C1C5F5F5C2C5F6F5C3C5F7F5160E9CECCC
:104CE60031F08BC6F0F58CC6F1F58DC6F2F58EC6A1
:104CF600F3F5F4C5C4F5F5C5C5F5F6C5C6F5F7C5AE
:104D0600C7F5F0C5C0F5F1C5C1F5F2C5C2F5F3C5E5
:104D1600C3F579EC28F0C0C5A7F5C1C5A8F5C2C58D
:104D2600A9F5C3C5AAF5000E0501AB6F000EAC6F61
:104D36007A0EAD6F440EAE6F4AEC2EF0A7C5E7F5BE
:104D4600A8C5E8F5A9C5E9F5AAC5EAF5000E050165
:104D5600D96F000EDA6FF00EDB6F410EDC6FF4C513
:104D6600DDF5F5C5DEF5F6C5DFF5F7C5E0F502ECD0
:104D760047F00501D8A0C2EF26F0C4EF26F0CEEF2B
:104D860026F0010E0601686F000E0501E66F020EA1
:104D9600E56F78EF28F0F4C5D9F5F5C5DAF5F6C56F
:104DA600DBF5F7C5DCF5000EDD6F800EDE6F090E54
:104DB600DF6F440EE06F02EC47F00501D8B0E6EF76
:104DC60026F0E8EF26F002EF27F0000ED96F000E6E
:104DD600DA6F160EDB6F430EDC6FF4C5DDF5F5C535
:104DE600DEF5F6C5DFF5F7C5E0F502EC47F005019F
:104DF600D8A000EF27F002EF27F00CEF27F0020E05
:104E06000601686F000E0501E66F010EE56F78EF8B
:104E160028F0CD0EC46FCC0EC56F8C0EC66F3F0E3C
:104E2600C76F60C699F561C69AF59B6B9C6B000EC1
:104E3600BBEC3BF099C5C0F59AC5C1F59BC5C2F55B
:104E46009CC5C3F579EC28F0C0C5D9F5C1C5DAF51E
:104E5600C2C5DBF5C3C5DCF5E7C5DDF5E8C5DEF59E
:104E6600E9C5DFF5EAC5E0F502EC47F00501D8B083
:104E76003FEF27F041EF27F04BEF27F0030E060137
:104E8600686F000E0501E66F020EE56F78EF28F0F9
:104E9600000E0501E66F000EE56F78EF28F0110EA3
:104EA6000501EF19D8A45AEF27F05CEF27F04BEF76
:104EB60027F0010E0601696563EF27F065EF27F01D
:104EC6004BEF27F0000E0501AB6F000EAC6F7A0EAC
:104ED600AD6F440EAE6F110EEAEC38F005016CC5ED
:104EE60099F56DC59AF59B6B9C6B000EBBEC3BF080
:104EF60099C5A7F59AC5A8F59BC5A9F59CC5AAF5B8
:104F06004AEC2EF0A7C5C0F5A8C5C1F5A9C5C2F5DE
:104F1600AAC5C3F5000E0501C46F000EC56F110EBC
:104F2600C66F430EC76F79EC28F0C0C5F8F5C1C54A
:104F3600F9F5C2C5FAF5C3C5FBF5040E9CEC31F0D4
:104F46008BC6F0F58CC6F1F58DC6F2F58EC6F3F577
:104F5600F8C5C4F5F9C5C5F5FAC5C6F5FBC5C7F567
:104F6600F0C5C0F5F1C5C1F5F2C5C2F5F3C5C3F587
:104F760079EC28F0C0C5A7F5C1C5A8F5C2C5A9F545
:104F8600C3C5AAF5000E0501AB6F000EAC6F7A0E15
:104F9600AD6F440EAE6F4AEC2EF0A7C5EBF5A8C573
:104FA600ECF5A9C5EDF5AAC5EEF5000E0501D96F1C
:104FB600000EDA6FA00EDB6F410EDC6FF8C5DDF573
:104FC600F9C5DEF5FAC5DFF5FBC5E0F502EC47F0FD
:104FD6000501D8A0F1EF27F0F3EF27F0FDEF27F05A
:104FE600040E0601686F000E0501E66F020EE56FFE
:104FF60078EF28F0F8C5D9F5F9C5DAF5FAC5DBF585
:10500600FBC5DCF5000EDD6F000EDE6F960EDF6F62
:10501600430EE06F02EC47F00501D8B015EF28F01B
:1050260017EF28F031EF28F0000ED96F000EDA6F77
:10503600480EDB6F420EDC6FF8C5DDF5F9C5DEF50F
:10504600FAC5DFF5FBC5E0F502EC47F00501D8A08F
:105056002FEF28F031EF28F03BEF28F0050E060180
:10506600686F000E0501E66F010EE56F78EF28F018
:10507600CD0EC46FCC0EC56F8C0EC66F3F0EC76FBC
:105086005EC699F55FC69AF59B6B9C6B000EBBECF2
:105096003BF099C5C0F59AC5C1F59BC5C2F59CC53F
:1050A600C3F579EC28F0C0C5D9F5C1C5DAF5C2C596
:1050B600DBF5C3C5DCF5EBC5DDF5ECC5DEF5EDC509
:1050C600DFF5EEC5E0F502EC47F00501D8B06EEF6E
:1050D60028F070EF28F04BEF27F0060E0601686FF8
:1050E600000E0501E66F020EE56F12000501C351C1
:1050F600800BCC6FC351C325D26FC2AF85EF28F0AA
:1051060087EF28F088EF28F0D281D251D8B48EEFFD
:1051160028F090EF28F0A3EF28F0D229D8A496EF34
:1051260028F098EF28F0A0EF28F0000EC06F000ED0
:10513600C16F000EC26F000EC36FC28FABEF28F0B7
:10514600000EC06F000EC16F000EC26F000EC36F5F
:10515600C751800BCC1BC751C725CD6FC6AFB6EF65
:1051660028F0B8EF28F0B9EF28F0CD81CD51D8B4AA
:10517600BFEF28F0C1EF28F0D4EF28F0CD29D8A44E
:10518600C7EF28F0C9EF28F0D1EF28F0000EC46F62
:10519600000EC56F000EC66F000EC76FC68FDCEF20
:1051A60028F0000EC46F000EC56F000EC66F000E0D
:1051B600C76FCD51D8B4E2EF28F0E4EF28F0ECEF5A
:1051C60028F0D251D8A4EAEF28F0ECEF28F0F6EF59
:1051D60028F0000EC06F000EC16F000EC26F000EE9
:1051E600C36F8CEF2AF0C651C003F3C4D7F5F4C4DD
:1051F600D8F5D751CE6FCF6BD06BD16BD851D36F5B
:10520600D46BD56BD66BC551C103F3C4D7F5F4C4C3
:10521600D8F5D751CE27000ECF23D023D123D8518E
:10522600D327000ED423D523D623C451C203F3C4F7
:10523600D7F5F4C4D8F5D751CE27000ECF23D02307
:10524600D123D851D327000ED423D523D623D0C5B6
:10525600D1F5CFC5D0F5CEC5CFF5CE6BC451C103C0
:10526600F3C4D7F5F4C4D8F5D751CE27D851CF23F8
:10527600000ED023000ED123C551C003F3C4D7F5C9
:10528600F4C4D8F5D751CE27D851CF23000ED0235A
:10529600000ED123D0C5D1F5CFC5D0F5CEC5CFF5FB
:1052A600CE6BC451C003F3C4D7F5F4C4D8F5D751B7
:1052B600CE27D851CF23000ED023000ED123C651BE
:1052C600C103F3C4D7F5F4C4D8F5D751D327D851C1
:1052D600D423000ED523000ED623C551C203F3C432
:1052E600D7F5F4C4D8F5D751D327D851D423000E17
:1052F600D523000ED623C651C203F3C4D7F5F4C492
:10530600D8F5D751C86FD851C96FCA6BCB6BCAC510
:10531600CBF5C9C5CAF5C8C5C9F5C86BC851D327E9
:10532600C951D423CA51D523CB51D623CEC5C8F5EE
:10533600CFC5C9F5D0C5CAF5D1C5CBF5190EA9EFAC
:1053460029F0D890CB33CA33C933C833E82EA4EF3B
:1053560029F0C851D327C951D423CA51D523CB51DB
:10536600D623D0C5D1F5CFC5D0F5CEC5CFF5CE6BFA
:10537600CD51D2C5C8F5C96BC827000EC923820E08
:10538600C825D76FFF0EC921D86FDFEF29F0D89057
:10539600D337D437D537D637D1AFD4EF29F0D6EFB8
:1053A60029F0D7EF29F0D381D890CE37CF37D03731
:1053B600D137D707D8A0D807D5AFE4EF29F0E6EF65
:1053C60029F0CAEF29F0CD6BD1AFECEF29F0EEEF63
:1053D60029F012EF2AF0FF0ECE15C86FFF0ECF157B
:1053E600C96FFF0ED015CA6F7F0ED115CB6FC8518E
:1053F600C911CA11CB11D8B403EF2AF005EF2AF070
:1054060009EF2AF0010ECD6F12EF2AF0D3A10EEFAD
:105416002AF010EF2AF012EF2AF005EF2AF0CD510C
:10542600D8B418EF2AF01AEF2AF03EEF2AF0010E50
:10543600D327000ED423D523D623D6A125EF2AF0D1
:1054460027EF2AF03EEF2AF0D3C5C8F5D4C5C9F533
:10545600D5C5CAF5D6C5CBF5CB35CB33CA33C9339B
:10546600C833C8C5D3F5C9C5D4F5CAC5D5F5CBC5A6
:10547600D6F5D74BD82BD8BF49EF2AF0D85108E13B
:10548600D729D8A049EF2AF04BEF2AF055EF2AF09A
:10549600000ED36F000ED46F800ED56F7F0ED66FC1
:1054A60082EF2AF0D8BF62EF2AF0D85106E1D7057D
:1054B600D8B060EF2AF062EF2AF06DEF2AF0000E06
:1054C600D36F000ED46F000ED56F000ED66FCC6B67
:1054D60082EF2AF0D7C5D2F5FF0ED317FF0ED417E9
:1054E6007F0ED517000ED617D2A17CEF2AF07EEFDD
:1054F6002AF07FEF2AF0D58FD890D231D66FCC51D3
:10550600D613D3C5C0F5D4C5C1F5D5C5C2F5D6C524
:10551600C3F5120006018B518C11D8A495EF2AF021
:1055260097EF2AF0A1EF2AF0000E8B6F000E8C6F1A
:10553600000E8D6F000E8E6F6FEF2CF077EC5EF025
:1055460064C5F1F565C5F2F566C5F3F567C5F4F50D
:10555600060120EE08F08B51D9268C51DA22DEC4E2
:1055660064F5DEC465F5DEC466F5DEC467F58DC692
:1055760068F58EC669F58FC66AF590C66BF588EC38
:105586004FF00501D8B0CAEF2AF0CCEF2AF05DEF54
:105596002BF0060120EE08F08B51D9268C51DA2229
:1055A6008DC6DEF48EC6DEF48FC6DEF490C6DEF45B
:1055B6008BC6D9F48CC6DAF4DEC4D9F5DEC4DAF5C6
:1055C600DEC4DBF5DEC4DCF58DC6DDF58EC6DEF5A4
:1055D6008FC6DFF590C6E0F502EC47F00501D8B0BE
:1055E600F7EF2AF0F9EF2AF02AEF2BF08BC6D9F461
:1055F6008CC6DAF4060110EE04F08B51E1268C51CC
:10560600E222DEC4E6F4DEC4E6F4DEC4E6F4DEC47A
:10561600E6F420EE0CF08B51D9268C51DA22F1C536
:10562600DEF4F2C5DEF4F3C5DEF4F4C5DEF420EEF6
:1056360010F08B51D9268C51DA2291C6DEF492C62F
:10564600DEF493C6DEF494C6DEF45DEF2BF00601BD
:1056560020EE04F08B51D9268C51DA228DC6DEF469
:105666008EC6DEF48FC6DEF490C6DEF48BC6D9F4A1
:105676008CC6DAF48DC6DEF48EC6DEF48FC6DEF492
:1056860090C6DEF420EE0CF08B51D9268C51DA222E
:10569600F1C5DEF4F2C5DEF4F3C5DEF4F4C5DEF4DE
:1056A60020EE10F08B51D9268C51DA22DE6ADE6AA2
:1056B600DE6ADD6A060120EE10F08B51D9268C5188
:1056C600DA22DE50DE10DE10DE10D8A46DEF2BF0ED
:1056D6006FEF2BF07DEF2BF08BC6D9F48CC6DAF486
:1056E600DEC48BF6DEC48CF6DEC48DF6DEC48EF622
:1056F6006FEF2CF020EE0CF08B51D9268C51DA226C
:10570600DEC468F5DEC469F5DEC46AF5DEC46BF591
:1057160057EC52F068C5F5F569C5F6F56AC5F7F5B3
:105726006BC5F8F5060120EE10F08B51D9268C5189
:10573600DA22DE500501F55DDE50F659DE50F759E6
:10574600DE50F859D8A0AAEF2BF0ACEF2BF0CDEF36
:105756002BF0060120EE08F08B51D9268C51DA2267
:105766008BC6E1F48CC6E2F4DEC4E6F4DEC4E6F4ED
:10577600DEC4E6F4DEC4E6F48BC6D9F48CC6DAF4ED
:10578600DEC48BF6DEC48CF6DEC48DF6DEC48EF681
:105796006FEF2CF0F5C599F5F6C59AF5F7C59BF5AB
:1057A600F8C59CF5000EBBEC3BF099C5A7F59AC56C
:1057B600A8F59BC5A9F59CC5AAF5060120EE10F033
:1057C6008B51D9268C51DA22DEC499F5DEC49AF5BE
:1057D600DEC49BF5DEC49CF5000EBBEC3BF099C520
:1057E600ABF59AC5ACF59BC5ADF59CC5AEF54AECD7
:1057F6002EF0A7C5E9F5A8C5EAF5A9C5EBF5AAC532
:10580600ECF5E9C5C4F5EAC5C5F5EBC5C6F5ECC5C5
:10581600C7F5060120EE04F08B51D9268C51DA2209
:10582600DEC478F5DEC479F5DEC47AF5DEC47BF530
:1058360020EE08F08B51D9268C51DA22DEC474F59D
:10584600DEC475F5DEC476F5DEC477F565EC58F092
:1058560074C5C0F575C5C1F576C5C2F577C5C3F57E
:1058660079EC28F0C0C5EDF5C1C5EEF5C2C5EFF57A
:10587600C3C5F0F5EDC564F5EEC565F5EFC566F58E
:10588600F0C567F5060120EE04F08B51D9268C5140
:10589600DA22DEC468F5DEC469F5DEC46AF5DEC464
:1058A6006BF5C5EC23F08BC6D9F48CC6DAF405018A
:1058B60064C5DEF465C5DEF466C5DEF467C5DEF4F0
:1058C6008BC6D9F48CC6DAF4DEC48BF6DEC48CF64D
:1058D600DEC48DF6DEC48EF612002EC768F52FC71D
:1058E60069F530C76AF531C76BF557EC52F068C5F4
:1058F600E7F569C5E8F56AC5E9F56BC5EAF5030E8E
:1059060034EC5AF064C5E5F565C5E6F5000E05010B
:10591600AB6FF00EAC6F7F0EAD6F450EAE6FE5C58B
:1059260099F5E6C59AF5000E9ABFFF0E9B6F9C6F20
:10593600010EBBEC3BF099C5A7F59AC5A8F59BC52A
:10594600A9F59CC5AAF54AEC2EF0A7C5C0F5A8C5D1
:10595600C1F5A9C5C2F5AAC5C3F56F0E0501C46F89
:10596600120EC56F830EC66F400EC76F79EC28F016
:10597600C0C5EBF5C1C5ECF5C2C5EDF5C3C5EEF581
:10598600EBC532F7ECC533F7EDC534F7EEC535F7A1
:105996002AC778F52BC779F52CC77AF52DC77BF57D
:1059A600EBC574F5ECC575F5EDC576F5EEC577F581
:1059B60065EC58F074C57CF575C57DF576C57EF544
:1059C60077C57FF5E1EC5AF07CC5D9F57DC5DAF5EA
:1059D6007EC5DBF57FC5DCF5CD0E0501DD6FCC0E92
:1059E600DE6F4C0EDF6F3D0EE06F02EC47F00501F7
:1059F600D8B000EF2DF002EF2DF00EEF2DF0050ED2
:105A06000601646109EF2DF00BEF2DF010EF2DF07C
:105A1600642B10EF2DF00601646BEBC52AF7ECC57D
:105A26002BF7EDC52CF7EEC52DF73AEF2EF0676B89
:105A3600040E646521EF2DF023EF2DF049EF2EF0D3
:105A4600EBC5D9F5ECC5DAF5EDC5DBF5EEC5DCF54C
:105A5600660E0501DD6F660EDE6FE60EDF6F3F0E2A
:105A6600E06F02EC47F00501D8A03CEF2DF03EEFC9
:105A76002DF075EF2DF0EBC5D9F5ECC5DAF5EDC5D2
:105A8600DBF5EEC5DCF5CD0EDD6FCC0EDE6F0C0E54
:105A9600DF6F400EE06F02EC47F00501D8B056EF1D
:105AA6002DF058EF2DF075EF2DF0EA51E9110BE1CD
:105AB600E80EE75D030EE859D8A064EF2DF066EF17
:105AC6002DF049EF2EF0010E0601656F77EC5EF0C2
:105AD60064C52EF765C52FF766C530F767C531F77C
:105AE60049EF2EF0EBC5D9F5ECC5DAF5EDC5DBF5DA
:105AF600EEC5DCF59A0EDD6F990EDE6F190EDF6FBF
:105B0600400EE06F02EC47F00501D8A08DEF2DF0B6
:105B16008FEF2DF069EF2DF0EA51E9110BE1E80E58
:105B2600E75D030EE859D8A09BEF2DF09DEF2DF011
:105B3600A2EF2DF0020E0601656F69EF2DF049EF19
:105B46002EF0010E676F040E6465ACEF2DF0AEEF1C
:105B56002DF049EF2EF0660E0501D96F660EDA6F4D
:105B6600A60EDB6F3F0EDC6FEBC5DDF5ECC5DEF593
:105B7600EDC5DFF5EEC5E0F502EC47F00501D8A06E
:105B8600C7EF2DF0C9EF2DF0DBEF2DF0EA51E9114B
:105B96000BE1E80EE75D030EE859D8A0D5EF2DF02E
:105BA600D7EF2DF049EF2EF00601656B69EF2DF06A
:105BB600EBC5D9F5ECC5DAF5EDC5DBF5EEC5DCF5DB
:105BC6009A0EDD6F990EDE6F190EDF6F400EE06FD5
:105BD60002EC47F00501D8A0F3EF2DF0F5EF2DF01C
:105BE60069EF2DF0EA51E9110BE1E80EE75D030ECE
:105BF600E859D8A001EF2EF003EF2EF0A2EF2DF01A
:105C06009DEF2DF0020E676F040E64650DEF2EF00A
:105C16000FEF2EF049EF2EF0660E0501D96F660ED6
:105C2600DA6FA60EDB6F3F0EDC6FEBC5DDF5ECC55C
:105C3600DEF5EDC5DFF5EEC5E0F502EC47F0050152
:105C4600D8A028EF2EF02AEF2EF049EF2EF0EA51D9
:105C5600E9110BE1D00EE75D070EE859D8A036EF43
:105C66002EF038EF2EF049EF2EF0D7EF2DF06551DC
:105C7600000AD8B41AEF2DF0010AD8B4A4EF2DF01B
:105C8600030AD8B405EF2EF049EF2EF012000501F5
:105C9600AA51800BB76FAA51AA25BE6FA9AF56EFBE
:105CA6002EF058EF2EF059EF2EF0BE81BE51D8B42B
:105CB6005FEF2EF061EF2EF075EF2EF0BE29D8A41F
:105CC60067EF2EF069EF2EF071EF2EF0000EA76F42
:105CD600000EA86F000EA96F000EAA6FA98FAA6BFF
:105CE6007DEF2EF0000EA76F000EA86F000EA96FB5
:105CF600000EAA6FAE51800BB71BAE51AE25BF6F1B
:105D0600ADAF88EF2EF08AEF2EF08BEF2EF0BF812D
:105D1600BF51D8B491EF2EF093EF2EF0A7EF2EF0EF
:105D2600BF29D8A499EF2EF09BEF2EF0A3EF2EF00B
:105D3600000EAB6F000EAC6F000EAD6F000EAE6FB7
:105D4600AD8FAE6BAFEF2EF0000EAB6F000EAC6FEB
:105D5600000EAD6F000EAE6FAB51AC11AD11AE11B2
:105D6600D8A4B8EF2EF0BAEF2EF0D2EF2EF0000E38
:105D7600A76F000EA86F000EA96F000EAA6F800E07
:105D8600A9137F0EAA13B751AA13A7C5A7F5A8C5CD
:105D9600A8F5A9C5A9F5AAC5AAF512EF30F0BE5116
:105DA600D8A4D8EF2EF0DAEF2EF0E4EF2EF0000EA6
:105DB600A76F000EA86F000EA96F000EAA6F12EF54
:105DC60030F0BF51BEC5AFF5B06BAF5F000EB05B34
:105DD6007F0EAF25B86F000EB021B96FA7C5B3F51A
:105DE600A8C5B4F5A9C5B5F5AAC5B6F5000EA76F41
:105DF600000EA86F000EA96F000EAA6F000EBA6FF4
:105E0600000EBB6F000EBC6F000EBD6FBF6B44EF84
:105E16002FF0BF51D8B412EF2FF014EF2FF02BEF65
:105E26002FF0D890B337B437B537B637D890A737F1
:105E3600A837A937AA37BDAF23EF2FF025EF2FF0EC
:105E460026EF2FF0A781D890BA37BB37BC37BD37BE
:105E5600AB51B35DAC51B459AD51B559AE51B6590C
:105E6600D8A038EF2FF03AEF2FF043EF2FF0BD8D8B
:105E7600AB51B35FAC51B45BAD51B55BAE51B65BE4
:105E8600BF2B190EBF654AEF2FF04CEF2FF00CEF2A
:105E96002FF0B351B411B511B611D8B455EF2FF098
:105EA60057EF2FF06FEF2FF0BA816FEF2FF0D890EA
:105EB600A737A837A937AA37BDAF64EF2FF066EF2B
:105EC6002FF067EF2FF0A781D890BA37BB37BC37D2
:105ED600BD37B807D8A0B907A9AF74EF2FF076EF92
:105EE6002FF05AEF2FF0BF6BBDAF7CEF2FF07EEF98
:105EF6002FF0A2EF2FF0FF0EBA15AF6FFF0EBB15F6
:105F0600B06FFF0EBC15B16F7F0EBD15B26FAF51EE
:105F1600B011B111B211D8B493EF2FF095EF2FF065
:105F260099EF2FF0010EBF6FA2EF2FF0A7A19EEF02
:105F36002FF0A0EF2FF0A2EF2FF095EF2FF0BF512B
:105F4600D8B4A8EF2FF0AAEF2FF0CEEF2FF0010E66
:105F5600A727000EA823A923AA23AAA1B5EF2FF0ED
:105F6600B7EF2FF0CEEF2FF0A7C5AFF5A8C5B0F568
:105F7600A9C5B1F5AAC5B2F5B235B233B133B0335E
:105F8600AF33AFC5A7F5B0C5A8F5B1C5A9F5B2C57C
:105F9600AAF5B84BB92BB9BFD9EF2FF0B95108E123
:105FA600B829D8A0D9EF2FF0DBEF2FF0E6EF2FF0CE
:105FB600000EB96FB869000EA76F000EA86F000E2D
:105FC600A96F000EAA6FB9BFF3EF2FF0B95106E122
:105FD600B805D8B0F1EF2FF0F3EF2FF000EF30F067
:105FE600000EB96F000EB86F000EA76F000EA86FF7
:105FF600000EA96F000EAA6FB76BB8C5BEF5BEA19D
:1060060007EF30F009EF30F00CEF30F0A98F0DEF0D
:1060160030F0A99FD890BE31AA6FC6EF2EF01200BD
:106026000601AF6F77EC5EF064C5B1F665C5B2F6F2
:1060360066C5B3F667C5B4F6060120EE02F0A851B0
:10604600D926A951DA22DF50D8B42CEF30F02EEF42
:1060560030F06BEF30F020EE08F0A851D926A951A8
:10606600DA22DEC468F5DEC469F5DEC46AF5DEC48C
:106076006BF557EC52F068C5B5F669C5B6F66AC554
:10608600B7F66BC5B8F60601B851B7110BE1880E25
:10609600B55D130EB659D8A053EF30F055EF30F07A
:1060A6009BEF31F020EE02F0A851D926A951DA2251
:1060B600DF6AAAC6D9F4ABC6DAF4DF6AACC6D9F48D
:1060C600ADC6DAF4010EDF6E9BEF31F09BEF31F0D7
:1060D60020EE03F0A851D926A951DA22DF50D8B410
:1060E60077EF30F079EF30F081EF30F0AAC6D9F4CF
:1060F600ABC6DAF4010EDF6E9BEF31F0AF5121EC47
:1061060026F00501E5510601B06FB005D8A48EEF63
:1061160030F090EF30F01EEF31F0A8C6D9F4A9C6E2
:10612600DAF4DF50D8A49AEF30F09CEF30F0B2EFFB
:1061360030F020EE04F0A851D926A951DA22B1C6D2
:10614600DEF4B2C6DEF4B3C6DEF4B4C6DEF4A8C628
:10615600D9F4A9C6DAF4010EDF6E9BEF31F020EE1A
:1061660004F0A851D926A951DA22DEC468F5DEC4A6
:1061760069F5DEC46AF5DEC46BF557EC52F068C506
:10618600B5F669C5B6F66AC5B7F66BC5B8F60601C3
:10619600B851B7110BE1E90EB55D030EB659D8A09B
:1061A600D7EF30F0D9EF30F09BEF31F0AAC6D9F433
:1061B600ABC6DAF4010EDF6EACC6D9F4ADC6DAF4BE
:1061C600DF6A20EE02F0A851D926A951DA22010E83
:1061D600DF6E20EE08F0A851D926A951DA22B1C601
:1061E600DEF4B2C6DEF4B3C6DEF4B4C6DEF4A8C688
:1061F600D9F4A9C6DAF4DF6A20EE0CF0A851D92644
:10620600A951DA22DF2A20EE0CF0A851D926A9518D
:10621600DA22040EDF6412EF31F014EF31F069EF89
:1062260030F020EE03F0A851D926A951DA22010E4A
:10623600DF6E9BEF31F0020EB019D8A425EF31F0D6
:1062460027EF31F08AEF31F020EE01F0A851D92680
:10625600A951DA22DF50D8A433EF31F035EF31F00F
:106266004DEF31F020EE04F0A851D926A951DA22DB
:10627600B1C6DEF4B2C6DEF4B3C6DEF4B4C6DEF4EE
:1062860020EE01F0A851D926A951DA22010EDF6EBF
:106296009BEF31F020EE04F0A851D926A951DA225D
:1062A600DEC468F5DEC469F5DEC46AF5DEC46BF5E6
:1062B60057EC52F068C5B5F669C5B6F66AC5B7F6C5
:1062C6006BC5B8F60601B851B711B61109E1C90E8A
:1062D600B55DD8A071EF31F073EF31F09BEF31F07F
:1062E600AAC6D9F4ABC6DAF4020EDF6E20EE03F0CE
:1062F600A851D926A951DA22010EDF6E20EE01F04F
:10630600A851D926A951DA22DF6A9BEF31F0AAC635
:10631600D9F4ABC6DAF4DF6AA8C6D9F4A9C6DAF4AA
:10632600DF6A20EE01F0A851D926A951DA22DF6AE8
:1063360012000601A36F160E0601A319D8A4A6EF34
:1063460031F0A8EF31F045EF32F0160EEAEC38F0F6
:106356006CC59FF66DC5A0F6000E0501AB6FF00E7D
:10636600AC6F7F0EAD6F450EAE6F9FC699F5A0C69A
:106376009AF5000E9ABFFF0E9B6F9C6F010EBBEC49
:106386003BF099C5A7F59AC5A8F59BC5A9F59CC587
:10639600AAF54AEC2EF0A7C5C0F5A8C5C1F5A9C552
:1063A600C2F5AAC5C3F53D0E0501C46F0A0EC56F39
:1063B600830EC66F400EC76F79EC28F0C0C58FF606
:1063C600C1C590F6C2C591F6C3C592F6D60E0601B2
:1063D600936F0D0E946FA60E956F3D0E966F93C636
:1063E600C4F594C6C5F595C6C6F596C6C7F58FC657
:1063F600C0F590C6C1F591C6C2F592C6C3F579EC53
:1064060028F0C0C5A7F5C1C5A8F5C2C5A9F5C3C57D
:10641600AAF5CD0E0501AB6FCC0EAC6FCC0EAD6FF1
:106426003D0EAE6F4AEC2EF0A7C5A4F6A8C5A5F69C
:10643600A9C5A6F6AAC5A7F6A4C6D9F5A5C6DAF5CE
:10644600A6C6DBF5A7C6DCF5660E0501DD6F660E92
:10645600DE6F660EDF6F400EE06F02EC47F005015F
:10646600D8A038EF32F03AEF32F0E9EF32F0660EAC
:106476000601A46F660EA56F660EA66F400EA76F87
:10648600E9EF32F0040EA319D8A44CEF32F04EEF28
:1064960032F0E9EF32F0040EEAEC38F06CC5A1F602
:1064A6006DC5A2F6000E0501AB6FF00EAC6F7F0E48
:1064B600AD6F450EAE6FA1C699F5A2C69AF5000E50
:1064C6009ABFFF0E9B6F9C6F010EBBEC3BF099C50C
:1064D600A7F59AC5A8F59BC5A9F59CC5AAF54AECEA
:1064E6002EF0A7C5C0F5A8C5C1F5A9C5C2F5AAC5B0
:1064F600C3F56F0E0501C46F120EC56F830EC66F0E
:10650600400EC76F79EC28F0C0C597F6C1C598F65E
:10651600C2C599F6C3C59AF6420E06019B6F110EC7
:106526009C6F8A0E9D6F3D0E9E6F9BC6C4F59CC6E2
:10653600C5F59DC6C6F59EC6C7F597C6C0F598C6ED
:10654600C1F599C6C2F59AC6C3F579EC28F0C0C55F
:10655600A7F5C1C5A8F5C2C5A9F5C3C5AAF5CD0E4F
:106566000501AB6FCC0EAC6F4C0EAD6F3E0EAE6F31
:106576004AEC2EF0A7C5A4F6A8C5A5F6A9C5A6F6A9
:10658600AAC5A7F6A4C6D9F5A5C6DAF5A6C6DBF54B
:10659600A7C6DCF5000E0501DD6F000EDE6F000EEE
:1065A600DF6F400EE06F02EC47F00501D8A0DEEF8A
:1065B60032F0E0EF32F0E9EF32F0000E0601A46FA0
:1065C600000EA56F000EA66F400EA76FA4C6C0F5FD
:1065D600A5C6C1F5A6C6C2F5A7C6C3F5000E050138
:1065E600C46F000EC56F7A0EC66F440EC76F79EC86
:1065F60028F0C0C58BF6C1C58CF6C2C58DF6C3C5DD
:106606008EF6120060C68EF561C68FF54150050103
:10661600806F000E80BFFF0E816F826F836F60C632
:1066260064F561C665F5666B676B06016A5105011F
:10663600686F696B6A6B6B6B4CEC54F064C570F5F4
:1066460065C571F566C572F567C573F5640E050116
:10665600746F000E756F000E766F000E776FF8EC94
:1066660045F005018051705D906F81517159916FB0
:1066760082517259926F83517359936F93BF48EF4A
:1066860033F046EF33F050EF33F0000E906F000E0C
:10669600916F000E926F000E936F06016051050117
:1066A600806F060161510501816F826B836B90518A
:1066B600805D91518159925182598351800A846F2C
:1066C6009351800A8459D8B06BEF33F06DEF33F0F5
:1066D60073EF33F060C690F561C691F5926B936BDC
:1066E60090C548F591C549F54250806F000E80BFB0
:1066F600FF0E816F826F836F5EC664F55FC665F5B8
:10670600666B676B060169510501686F696B6A6B99
:106716006B6B4CEC54F064C570F565C571F566C5D8
:1067260072F567C573F5640E0501746F000E756F1B
:10673600000E766F000E776FF8EC45F0050180517C
:10674600705D906F81517159916F82517259926F3C
:1067560083517359936F93BFB5EF33F0B3EF33F0B3
:10676600BDEF33F0000E906F000E916F000E926F2A
:10677600000E936F06015E510501806F06015F51A1
:106786000501816F826B836B9051805D91518159B8
:10679600925182598351800A846F9351800A845999
:1067A600D8B0D8EF33F0DAEF33F0E0EF33F05EC66F
:1067B60090F55FC691F5926B936B90C55CF691C5AB
:1067C6005DF606015C51482405018C6F06015D519A
:1067D600492005018D6F8C518E5D8D518F59D8B032
:1067E600F7EF33F0F9EF33F020EF34F04350806FDA
:1067F600000E80BFFF0E816F826F836F48508C5DE5
:10680600846F49508D59856F84518E5D866F855191
:106816008F59876F886BD8A088078851896F8051F8
:10682600865D906F81518759916F82518859926F19
:1068360083518959936F26EF34F048C590F549C5C1
:1068460091F5926B936B93BF2DEF34F02BEF34F0F1
:1068560035EF34F0000E906F000E916F000E926FC0
:10686600000E936F8E51806F8F51816F826B836B99
:106876009051805D91518159925182598351800A7C
:10688600846F9351800A8459D8B04CEF34F04EEFA0
:1068960034F054EF34F08EC590F58FC591F5926BB8
:1068A600936B90C58AF591C58BF58AC57EF58BC528
:1068B6007FF5120008C668F509C669F50AC66AF5C5
:1068C6000BC66BF557EC52F068C59BF569C59CF590
:1068D6006AC59DF56BC59EF52C0EEAEC38F06CC5C5
:1068E6009FF56DC5A0F55D50D8B47CEF34F07EEF12
:1068F60034F08BEF34F077EC5EF064C508F665C5CE
:1069060009F666C50AF667C50BF6010E556E5D6A91
:106916005650D8A491EF34F093EF34F099EF35F058
:1069260005019E519D110BE1880E9B5D130E9C592E
:10693600D8A0A0EF34F0A2EF34F099EF35F0010EB5
:10694600566E99EF35F05550D8A4ACEF34F0AEEF53
:1069560034F0D8EF34F09E519D110BE1B80E9B5DDB
:106966000B0E9C59D8A0BAEF34F0BCEF34F0BFEF51
:1069760034F05E6A010E556E350E9F5D080EA05905
:10698600D8A0C8EF34F0CAEF34F0B3EF35F0010EFB
:10699600576E77EC5EF064C508F665C509F666C500
:1069A6000AF667C50BF6B3EF35F05650D8A4DEEFFE
:1069B60034F0E0EF34F0F8EF34F0730E9F5D060E1E
:1069C600A059D8A0E9EF34F0EBEF34F0F8EF34F04B
:1069D600010E576E77EC5EF064C508F665C509F6DC
:1069E60066C50AF667C50BF6556A5604D8A4FEEFC7
:1069F60034F000EF35F0B3EF35F0350E05019F5D4D
:106A0600080EA059D8A00AEF35F00CEF35F0B3EF19
:106A160035F0010E576E77EC5EF064C508F665C575
:106A260009F666C50AF667C50BF6556AB3EF35F083
:106A36005A6A010E5E6E5604D8A424EF35F026EF8E
:106A460035F04EEF35F0A40E9F5D060EA059D8B076
:106A56002FEF35F031EF35F034EF35F0576A0EEFA2
:106A660035F0D70E9F5D060EA059D8A03DEF35F044
:106A76003FEF35F0B3EF35F03A0E9F5D070EA059A4
:106A8600D8B048EF35F04AEF35F0B3EF35F0020EE7
:106A9600576ECCEF34F05650D8A454EF35F056EF7D
:106AA60035F0B3EF35F0A40E9F5D060EA059D8B0B1
:106AB6005FEF35F061EF35F065EF35F0010E566E9C
:106AC60031EF35F0D70E9F5D060EA059D8A06EEFB8
:106AD60035F070EF35F0B3EF35F03A0E9F5D070EE7
:106AE600A059D8B079EF35F07BEF35F0B3EF35F03C
:106AF6004AEF35F0010E5A6E350E9F5D080EA0590D
:106B0600D8A088EF35F08AEF35F08CEF35F0CAEF74
:106B160034F0A40E9F5D060EA059D8B095EF35F05F
:106B260097EF35F0B3EF35F031EF35F057500501FB
:106B3600996F9A6B9A51000AD8B4A4EF35F0B3EF67
:106B460035F09951000AD8B4A6EF34F0010AD8B44A
:106B56001BEF35F0030AD8B47DEF35F0B3EF35F00F
:106B6600120000C668F501C669F502C66AF503C6D5
:106B76006BF557EC52F068C5EAF569C5EBF56AC5E1
:106B8600ECF56BC5EDF50501ED51EC11EB1109E1E5
:106B96000B0EEA5DD8A0D2EF35F0D4EF35F0E1EF79
:106BA60035F006016351D8B4DBEF35F0DDEF35F093
:106BB600E1EF35F0010E626F41EC5FF00601620510
:106BC600D8B4E8EF35F0EAEF35F0ECEF35F0E1EF69
:106BD60036F0640E0501646F090E656F000E666F70
:106BE600090E676F63C668F5696B64EC56F00601BB
:106BF6006351FE0F0501F46F640E646F090E656F35
:106C0600F4C566F563EC53F064C5EEF565C5EFF5BE
:106C1600650E0501F425D96EDA6A090EDA22DF500F
:106C2600E66F640EF425D96EDA6A090EDA22DF50B1
:106C3600E76FE751E96FE86BE651E825F06F000E64
:106C4600E921F16FF051EE1909E1F151EF19D8B4CC
:106C56002FEF36F031EF36F035EF36F01CEC58F00A
:106C6600E1EF36F06AC9F2F506016351F70F050147
:106C7600F36FF251F319D8B443EF36F045EF36F01F
:106C860047EF36F031EF36F0100E09016519D8A43A
:106C96004FEF36F051EF36F061EF36F00E0E671912
:106CA600D8A458EF36F05AEF36F061EF36F0640E9E
:106CB6000501646F090E656FE7EC44F0AA0E090141
:106CC6006419D8A469EF36F06BEF36F031EF36F081
:106CD6005A0E6519D8A472EF36F074EF36F031EF1C
:106CE60036F0CEEF36F06605D8A47CEF36F07EEFB0
:106CF60036F085EF36F0640E0501AB6F090EAC6F0A
:106D0600CCEC43F0020E09016619D8A48DEF36F0DB
:106D16008FEF36F031EF36F0640E0501C56F090EC0
:106D2600C66F97EC3CF031EF36F0020E6619D8A428
:106D36009FEF36F0A1EF36F031EF36F0640E050125
:106D4600AB6F090EAC6F05EC48F031EF36F0020E72
:106D56006619D8A4B1EF36F0B3EF36F031EF36F05E
:106D6600640E0501AB6F090EAC6FEBEC37F031EF3B
:106D760036F0020E6619D8A4C3EF36F0C5EF36F02A
:106D860031EF36F0640E0501AB6F090EAC6FE0EC27
:106D96003EF031EF36F06751010AD8B476EF36F09F
:106DA600160AD8B498EF36F0400AD8B4AAEF36F0EF
:106DB6000F0AD8B4BCEF36F031EF36F0120010C629
:106DC60068F511C669F512C66AF513C66BF557EC78
:106DD60052F068C5D9F669C5DAF66AC5DBF66BC541
:106DE600DCF6DAEF37F0020E4AEC5CF077EC5EF098
:106DF60064C510F665C511F666C512F667C513F6C5
:106E0600020E0601FA6FEAEF37F0DC51DB11DA11F8
:106E160009E1C90ED95DD8A013EF37F015EF37F0A9
:106E2600EAEF37F0020E5EEC5CF0030E0601FA6F35
:106E3600EAEF37F0010E666F000E0501AB6F000E2C
:106E4600AC6F7A0EAD6F440EAE6F110EEAEC38F0F1
:106E560005016CC599F56DC59AF59B6B9C6B000E8B
:106E6600BBEC3BF099C5A7F59AC5A8F59BC5A9F556
:106E76009CC5AAF54AEC2EF0A7C5C0F5A8C5C1F574
:106E8600A9C5C2F5AAC5C3F5000E0501C46F000E5B
:106E9600C56F110EC66F430EC76F79EC28F0C0C5DB
:106EA60073F6C1C574F6C2C575F6C3C576F6040E8B
:106EB6009CEC31F08BC6DDF68CC6DEF68DC6DFF6B1
:106EC6008EC6E0F673C6C4F574C6C5F575C6C6F5B6
:106ED60076C6C7F5DDC6C0F5DEC6C1F5DFC6C2F5A6
:106EE600E0C6C3F579EC28F0C0C5A7F5C1C5A8F57D
:106EF600C2C5A9F5C3C5AAF5000E0501AB6F000E04
:106F0600AC6F7A0EAD6F440EAE6F4AEC2EF0A7C58D
:106F16006FF6A8C570F6A9C571F6AAC572F65CC665
:106F260099F55DC69AF505019B6B9C6B000EBBEC53
:106F36003BF099C5E1F69AC5E2F69BC5E3F69CC51A
:106F4600E4F6E1C695F6E2C696F6E3C697F6E4C61B
:106F560098F67CEC59F095C66BF696C66CF697C615
:106F66006DF698C66EF6430E06019F6F070EA06F6C
:106F76006BC6A1F66CC6A2F66DC6A3F66EC6A4F6DF
:106F86006FC6A5F670C6A6F671C6A7F672C6A8F6AF
:106F9600BBEC1EF09FC677F6A0C678F677C666F5F8
:106FA60078C667F5020E15EC54F0EAEF37F00601E5
:106FB600FA51010AD8B4F6EF36F0030AD8B408EF4E
:106FC60037F0010AD8B41DEF37F0EAEF37F01200B8
:106FD60021EEAEF1100EDE6AE806FDE2AE0E050108
:106FE600646F050E656FABC566F5ACC567F5000E3B
:106FF600696F110E686F64EC56F00501B505D8A4EB
:1070060007EF38F009EF38F028EF38F0040E6C6F10
:10701600000E6D6F000E6E6FB6C56FF5DAEC53F0AD
:10702600150E0501AD6FC60EE82EFED7AD2FFCD7A7
:107036000000040E05016A6F000E6B6F000E6C6F88
:1070460089EC58F0416E4EEF38F0020EB519D8A40F
:107056002FEF38F031EF38F04EEF38F0040E706F46
:10706600000E716F000E726FB6C573F541EC5DF0E0
:10707600150E0501AD6FC60EE82EFED7AD2FFCD757
:107086000000040E0501716F000E726F000E736F23
:10709600BCEC5DF0416E0501B705D8A455EF38F09C
:1070A60057EF38F076EF38F0050E6C6F000E6D6F07
:1070B600000E6E6FB8C56FF5DAEC53F0150E0501CC
:1070C600AD6FC60EE82EFED7AD2FFCD70000050E1D
:1070D60005016A6F000E6B6F000E6C6F89EC58F03D
:1070E600426E9CEF38F0020EB719D8A47DEF38F047
:1070F6007FEF38F09CEF38F0050E706F000E716F61
:10710600000E726FB6C573F541EC5DF0150E050104
:10711600AD6FC60EE82EFED7AD2FFCD70000050ECC
:107126000501716F000E726F000E736FBCEC5DF09F
:10713600426E550E0501AE6FAE0E646F050E656F9D
:107146000F0E666F63EC53F064C5BFF565C5C0F5F9
:10715600BFC5BEF50501C051BD6FC16B6D0EA56FF4
:107166003D0EA66FAE0EC125D96EDA6A050EDA227D
:10717600DF50AD6FAD51A76FA86B36EC5CF0100E0B
:107186000501C161C9EF38F0CBEF38F0D1EF38F027
:10719600720EA56F3D0EA66F36EC5CF00501C12B95
:1071A600100EC165D9EF38F0DBEF38F0B1EF38F0EB
:1071B600AE0E646F050E656F000E666F000E676F8C
:1071C600000E696F110E686F64EC56F0120005012F
:1071D6008C6F000E0501946F000E936F8C5134EC8A
:1071E6005AF0D89005019335D96E9435DA6E740E3F
:1071F600D926050EDA2264C5DEF465C5DDF4934BA7
:10720600942B94BF10EF39F0945109E10C0E935D65
:10721600D8A010EF39F012EF39F0F1EF38F0000E88
:10722600926F000E916F000E966F000E956F000E16
:10723600986F000E976F87EF39F0D8909735D96E13
:107246009835DA6E740ED926050EDA2297C570F5D2
:1072560098C571F5D89070377137020E7027000EF9
:107266007123740E7025E16E050E7121E26EDE50FB
:10727600E65CDE50E658D8B043EF39F045EF39F01A
:1072860085EF39F0D8909735D96E9835DA6E740E49
:10729600D926050EDA22DEC48DF5DDC48EF597C536
:1072A6006EF598C56FF5D8906E376F37020E6E275C
:1072B600000E6F23740E6E25D96E050E6F21DA6EE1
:1072C600D8909735E16E9835E26E740EE126050E7C
:1072D600E222DEC4E6F4DDC4E5F497C56EF598C592
:1072E6006FF5D8906E376F37020E6E27000E6F233C
:1072F600740E6E25D96E050E6F21DA6E8DC5DEF41D
:107306008EC5DDF4974B982B0B0E6E6F000E6F6FCC
:1073160095516E5F96516F5B6E51975D9851800ADD
:10732600706F6F51800A7059D8A09CEF39F09EEFAC
:1073360039F020EF39F0954B962B96BFACEF39F02C
:10734600965109E10B0E955DD8A0ACEF39F0AEEF82
:1073560039F01AEF39F0000E966F020E956FD8903D
:107366009535D96E9635DA6E740ED926050EDA2263
:10737600DE509127DD509223954B962B96BFCDEF8D
:1073860039F0965109E10A0E955DD8A0CDEF39F096
:10739600CFEF39F0B2EF39F091C564F592C565F5D6
:1073A600000E676F080E666F3DEC4CF064C58FF5F6
:1073B60065C590F58FC56CF590C56DF5120014C6C0
:1073C60068F515C669F516C66AF517C66BF557EC66
:1073D60052F068C5D9F669C5DAF66AC5DBF66BC53B
:1073E600DCF6C8EF3AF0010E4AEC5CF077EC5EF0A2
:1073F60064C514F665C515F666C516F667C517F6AF
:10740600020E0601FB6FD8EF3AF0DC51DB11DA1100
:1074160009E1C90ED95DD8A013EF3AF015EF3AF09D
:10742600D8EF3AF0010E5EEC5CF0030E0601FB6F3E
:10743600D8EF3AF0010E666F000E0501AB6F000E35
:10744600AC6F7A0EAD6F440EAE6F1C0EEAEC38F0E0
:1074560005016CC599F56DC59AF59B6B9C6B000E85
:10746600BBEC3BF099C5A7F59AC5A8F59BC5A9F550
:107476009CC5AAF54AEC2EF0A7C5C0F5A8C5C1F56E
:10748600A9C5C2F5AAC5C3F5000E0501C46F000E55
:10749600C56F110EC66F430EC76F79EC28F0C0C5D5
:1074A60081F6C1C582F6C2C583F6C3C584F6160E3B
:1074B6009CEC31F08BC6DDF68CC6DEF68DC6DFF6AB
:1074C6008EC6E0F681C6C4F582C6C5F583C6C6F586
:1074D60084C6C7F5DDC6C0F5DEC6C1F5DFC6C2F592
:1074E600E0C6C3F579EC28F0C0C5A7F5C1C5A8F577
:1074F600C2C5A9F5C3C5AAF5000E0501AB6F000EFE
:10750600AC6F7A0EAD6F440EAE6F4AEC2EF0A7C587
:107516007DF6A8C57EF6A9C57FF6AAC580F618C66B
:1075260095F619C696F61AC697F61BC698F69CECFB
:1075360059F095C679F696C67AF697C67BF698C63A
:107546007CF66A0E06019F6F070EA06F79C6A1F63C
:107556007AC6A2F67BC6A3F67CC6A4F67DC6A5F6B9
:107566007EC6A6F67FC6A7F680C6A8F6BBEC1EF0BA
:107576009FC685F6A0C686F685C666F586C667F5F5
:10758600010E15EC54F0D8EF3AF00601FB51010A52
:10759600D8B4F6EF39F0030AD8B408EF3AF0010A86
:1075A600D8B41DEF3AF0D8EF3AF0120090C5D9F4EE
:1075B60091C5DAF4DEC4F6F4DDC4F7F4000EF86E15
:1075C6000800F550250AD8A4EBEF3AF0EDEF3AF0B3
:1075D600A3EF3BF090C5D9F491C5DAF4DE2A000E8C
:1075E600DD22000E456E000E446E44C54AF50601C6
:1075F6004C694D6905019A6B21EF3BF04A8290C5B3
:10760600D9F491C5DAF4DE2A000EDD2221EF3BF033
:10761600010E9A6F21EF3BF090C5D9F491C5DAF4CB
:10762600DEC4F6F4DDC4F7F4000EF86E0800F5507B
:10763600300AD8B401EF3BF00BEF3BF09A51D8B4C7
:1076460027EF3BF029EF3BF00FEF3BF090C564F5D9
:1076560091C565F592C566F593C567F5A8EC4AF040
:1076660064C544F565C545F545BE3EEF3BF03CEFC8
:107676003BF043EF3BF04A80446C451ED8B0452AA8
:1076860090C5D9F491C5DAF4DEC49BF5DDC49CF54A
:107696009BC5F6F49CC5F7F4000EF86E0800F5508D
:1076A600580AD8A459EF3BF05BEF3BF09AEF3BF05A
:1076B60092C5D9F493C5DAF4DFC494F5020EDE263A
:1076C600DFC495F5000EDD2294C5D9F495C5DAF42C
:1076D600DEC496F5DDC497F5010E05019B25946F72
:1076E600000E9C21956F90C5D9F491C5DAF494C526
:1076F600DEF495C5DDF48CEF3BF08EC581F58FC5C4
:1077060082F596C583F597C584F57EEC46F0BAEF0B
:107716003BF09BC5F6F49CC5F7F4000EF86E080026
:10772600F550580AD8B480EF3BF09AEF3BF090C57D
:10773600D9F491C5DAF4DE2A000EDD22BAEF3BF069
:1077460090C5D9F491C5DAF4DEC4F6F4DDC4F7F4D5
:10775600000EF86E0800F5500501686F696B8EC55E
:107766006AF58FC56BF50FEC4BF09AEF3BF0120004
:107776000501A16F0501A151D8B4C4EF3BF0C6EFD6
:107786003BF0E8EF3BF09CBFCDEF3BF0CBEF3BF09F
:10779600E8EF3BF099C59DF59AC59EF59BC59FF50B
:1077A6009CC5A0F59D1F9E1F9F1FA01F9D2B000E11
:1077B6009E239F23A0239DC5A3F59EC5A4F59FC523
:1077C600A5F5A0C5A6F5F0EF3BF099C5A3F59AC5BA
:1077D600A4F59BC5A5F59CC5A6F599519A119B11D3
:1077E6009C11D8A4F9EF3BF0FBEF3BF005EF3CF022
:1077F600000E996F000E9A6F000E9B6F000E9C6F25
:1078060096EF3CF0960EA26F0FEF3CF0A22BD890AD
:10781600A633A533A433A333000EA3159D6F000E24
:10782600A4159E6F000EA5159F6FFE0EA615A06FE0
:107836009D519E119F11A011D8A424EF3CF026EF74
:107846003CF009EF3CF034EF3CF0A22B010EA327ED
:10785600000EA423A523A623D890A633A533A433CC
:10786600A333000EA3159D6F000EA4159E6F000E88
:10787600A5159F6FFF0EA615A06F9D519E119F1116
:10788600A011D8A449EF3CF04BEF3CF028EF3CF0B8
:1078960053EF3CF0A207D890A337A437A537A637F5
:1078A600A5BF58EF3CF05AEF3CF062EF3CF0020EF9
:1078B600A26160EF3CF062EF3CF04DEF3CF0A2B10C
:1078C60067EF3CF069EF3CF06AEF3CF0A59FD8907B
:1078D600A233A2C59DF59E6B9F6BA06B9DC5A0F5BF
:1078E6009F6B9E6B9D6B9D51A3139E51A4139F513D
:1078F600A513A051A613A151D8B484EF3CF086EF8E
:107906003CF08EEF3CF09CBF8DEF3CF08BEF3CF0F3
:107916008EEF3CF0A68FA3C599F5A4C59AF5A5C52B
:107926009BF5A6C59CF51200000E0501DA6F000E48
:10793600DB6F000EDC6F000EDD6F21EEC9F1100E5D
:10794600DE6AE806FDE2C90E646F050E656FC5C501
:1079560066F5C6C567F5000E696F110E686F64ECB3
:1079660056F00501E46BE451C76FC86B070EC727D5
:10797600000EC823C90EC725D96E050EC821DA6EBA
:10798600DA0EE425E16EE26A050EE222DFC4E7F4D0
:10799600150E0501C76FC60EE82EFED7C72FFCD7FA
:1079A60000000501E42B030EE465DCEF3CF0DEEF9E
:1079B6003CF0B6EF3CF0DA0EC06F050EC16F040E58
:1079C600C26F540EC4EC5BF0D00E0501C76FC90E32
:1079D600E82EFED7C72FFCD700D0550E0501C96F7C
:1079E600040E796F540E6EEC5AF079C5DEF57AC541
:1079F600DFF5D00E0501646F050E656FDEC566F511
:107A0600DFC567F5000E696F040E686F64EC56F00B
:107A1600030E0501796F5C0E6EEC5AF079C5E0F540
:107A26007AC5E1F5050120EE02F0E051D926E151D3
:107A3600DA22DF50D46FC90E646F050E656F0F0E24
:107A4600666F63EC53F064C5E2F565C5E3F5E2C520
:107A5600D9F50501E351D86FE56B6D0EA56F3D0EA7
:107A6600A66FC90EE525D96EDA6A050EDA22DF5051
:107A7600C76FC751A76FA86B36EC5CF0100E0501F7
:107A8600E56148EF3DF04AEF3DF050EF3DF0720EF4
:107A9600A56F3D0EA66F36EC5CF00501E52B100ECA
:107AA600E56558EF3DF05AEF3DF030EF3DF0C90E79
:107AB600646F050E656F000E676F000E666F000E31
:107AC600696F110E686FFAEC59F012004D50020DF5
:107AD600000EF324D96E080EF420DA6EDE6ADD6A33
:107AE6000201B2A779EF3DF07BEF3DF09DEF3DF04F
:107AF6004D50020D000EF324D96E080EF420DA6EF6
:107B06000801DF820601285129112A11D8B48EEF07
:107B16003DF090EF3DF09DEF3DF002D89DEF3DF03A
:107B26000500FA6E2851FD6E2951FE6E2A51FF6E30
:107B3600FA5012000201B2A3A3EF3DF0A5EF3DF00B
:107B4600C7EF3DF04D50020D000EF324D96E080E1E
:107B5600F420DA6E0801DF8406012551261127116B
:107B6600D8B4B8EF3DF0BAEF3DF0C7EF3DF002D81C
:107B7600C7EF3DF00500FA6E2551FD6E2651FE6EEB
:107B86002751FF6EFA5012000201B2ADCDEF3DF063
:107B9600CFEF3DF0F1EF3DF04D50020D000EF32416
:107BA600D96E080EF420DA6E0801DF800601225134
:107BB60023112411D8B4E2EF3DF0E4EF3DF0F1EFEC
:107BC6003DF002D8F1EF3DF00500FA6E2251FD6E50
:107BD6002351FE6E2451FF6EFA501200A1C225F504
:107BE6004D281F0B266E4C502618D8A4FDEF3DF0ED
:107BF600FFEF3DF001EF3EF00CEF3EF0400E4D245E
:107C0600D96EDA6A080EDA2225C5DFF426C54DF5E7
:107C16004B2A06011C511D111E11D8B415EF3EF05A
:107C260017EF3EF024EF3EF002D824EF3EF00500B9
:107C3600FA6E1C51FD6E1D51FE6E1E51FF6EFA50FE
:107C460012001200050120EE03F07951D9267A516F
:107C5600DA22DF50646F20EE02F07951D9267A518C
:107C6600DA22DF50E4EC52F064C57BF565C57CF59D
:107C7600460E05017B5D050E7C59D8A045EF3EF00A
:107C860047EF3EF04BEF3EF0050E7C6F460E7B6FE6
:107C9600580E7B5D020E7C59D8B054EF3EF056EF7D
:107CA6003EF05AEF3EF0020E7C6F580E7B6F7BC59E
:107CB60060F67CC561F679C5D9F47AC5DAF4DF5089
:107CC60006016A6F6A51D8B46BEF3EF06DEF3EF075
:107CD60081EF3EF0150E6A6173EF3EF075EF3EF0F0
:107CE60077EF3EF0140E6A6F630E6A657DEF3EF025
:107CF6007FEF3EF081EF3EF0640E6A6F050120EEE5
:107D060007F07951D9267A51DA22DF50646F20EED6
:107D160006F07951D9267A51DA22DF50E4EC52F096
:107D260064C57DF565C57EF505017E5109E1960EB2
:107D36007D5DD8A0A1EF3EF0A3EF3EF0A7EF3EF0A9
:107D4600000E7E6F960E7D6F7E5107E13C0E7D5DC7
:107D5600D8B0B0EF3EF0B2EF3EF0B6EF3EF0000E18
:107D66007E6F3C0E7D6F7DC55EF67EC55FF620EEAE
:107D760004F07951D9267A51DA22DF500601696F6B
:107D86006951D8B4C9EF3EF0CBEF3EF0DFEF3EF0DD
:107D96001F0E6961D1EF3EF0D3EF3EF0D5EF3EF016
:107DA6001E0E696F630E6965DBEF3EF0DDEF3EF098
:107DB600DFEF3EF0640E696F120021EEAEF1100E99
:107DC600DE6AE806FDE2AE0E0501646F050E656F1C
:107DD600ABC566F5ACC567F5000E696F110E686F29
:107DE60064EC56F00501B505D8A4FCEF3EF0FEEFB5
:107DF6003EF01DEF3FF0060E6C6F000E6D6F000E2D
:107E06006E6FB6C56FF5DAEC53F0150E0501AD6F62
:107E1600C60EE82EFED7AD2FFCD70000060E0501D4
:107E26006A6F000E6B6F000E6C6F89EC58F0436E34
:107E360043EF3FF0020EB519D8A424EF3FF026EF2A
:107E46003FF043EF3FF0060E706F000E716F000EAD
:107E5600726FB6C573F541EC5DF0150E0501AD6F99
:107E6600C60EE82EFED7AD2FFCD70000060E050184
:107E7600716F000E726F000E736FBCEC5DF0436E97
:107E8600550E0501AE6FAE0E646F050E656F0F0ED3
:107E9600666F63EC53F064C5BFF565C5C0F5BFC535
:107EA600BEF50501C051BD6FC16B6D0EA56F3D0ED0
:107EB600A66FAE0EC125D96EDA6A050EDA22DF503C
:107EC600AD6FAD51A76FA86B36EC5CF0100E0501D7
:107ED600C16170EF3FF072EF3FF078EF3FF0720E46
:107EE600A56F3D0EA66F36EC5CF00501C12B100E9A
:107EF600C16580EF3FF082EF3FF058EF3FF0AE0EE6
:107F0600646F050E656F000E666F000E676F000EDC
:107F1600696F110E686F64EC56F01200F80E0501D9
:107F26006A6F030E6B6F000E6C6F89EC58F00501DB
:107F3600796FF90E6A6F030E6B6F000E6C6F89EC2A
:107F460058F005017A6FFA0E6A6F030E6B6F000E1A
:107F56006C6F89EC58F005017B6FFB0E6A6F030EA0
:107F66006B6F000E6C6F89EC58F005017C6FFC0E90
:107F76006A6F030E6B6F000E6C6F89EC58F005018B
:107F86007D6FFD0E6A6F030E6B6F000E6C6F89ECD2
:107F960058F005017E6F060E7919D8A4D5EF3FF08B
:107FA600D7EF3FF003EF40F0050E7A19D8A4DEEFC5
:107FB6003FF0E0EF3FF003EF40F0040E7B19D8A44A
:107FC600E7EF3FF0E9EF3FF003EF40F0030E7C19D7
:107FD600D8A4F0EF3FF0F2EF3FF003EF40F0020ECF
:107FE6007D19D8A4F9EF3FF0FBEF3FF003EF40F027
:107FF6007E05D8B401EF40F003EF40F006EF40F005
:10800600000E3FEF40F0FE0E6A6F030E6B6F000E20
:108016006C6F89EC58F00501776FFF0E6A6F030EDF
:108026006B6F000E6C6F89EC58F00501786F785114
:1080360077C571F5726B71C572F5716B7111736FDE
:108046007251746F790E646F050E656F060E666F5A
:108056008DEC56F064C575F565C576F50501755167
:10806600731907E176517419D8A43CEF40F03EEF3E
:1080760040F003EF40F0010E12000CC668F50DC685
:1080860069F50EC66AF50FC66BF557EC52F068C572
:10809600E5F669C5E6F66AC5E7F66BC5E8F6020ECB
:1080A60006016A6159EF40F05BEF40F063EF40F084
:1080B600010E696561EF40F063EF40F0D6EF40F0E6
:1080C600F105D8A469EF40F06BEF40F0D6EF40F031
:1080D60077EC5EF064C50CF665C50DF666C50EF662
:1080E60067C50FF6010E0601F06FF16BD6EF40F093
:1080F60047EC5FF00601E851E7110BE1210EE55D63
:10810600030EE659D8A08AEF40F08CEF40F0ECEF72
:1081160040F0020EF06F77EC5EF064C50CF665C5B4
:108126000DF666C50EF667C50FF6ECEF40F0010ECC
:1081360006016A65A1EF40F0A3EF40F0B4EF40F00E
:108146009FEC4CF0020AD8B4ABEF40F0ADEF40F034
:10815600B4EF40F0010E0601F36FE2EC39F0B7EF31
:1081660040F0010EECEC54F0010E06016965BEEF1D
:1081760040F0C0EF40F0D1EF40F09FEC4CF0030A26
:10818600D8B4C8EF40F0CAEF40F0D1EF40F0010E8E
:108196000601F26FE2EC36F0ECEF40F0020EECEC8A
:1081A60054F0ECEF40F0F0510501F96FFA6BFA511B
:1081B600000AD8B4E1EF40F0ECEF40F0F951010AC3
:1081C600D8B47BEF40F0030AD8B49AEF40F0ECEF56
:1081D60040F01200000E0501666F570E656FF40E33
:1081E600676F060E686F000E6A6F020E696FE1EC2C
:1081F60055F00009D8B402EF41F004EF41F0EDEF7D
:1082060040F0000E0501666F570E656F5C0E676FD6
:10821600050E686F000E6A6F010E696F0DEC56F061
:108226000009D8B419EF41F01BEF41F004EF41F01B
:10823600680E05016C6FE40EE82EFED76C2FFCD796
:1082460000005CC554F5680E05016C6FE40EE82E5F
:10825600FED76C2FFCD70000C00E5418D8A436EFFA
:1082660041F038EF41F03AEF41F07AEF41F0000E7D
:108276000501666F570E656FDE0E676F070E686F36
:10828600000E6A6F130E696FE1EC55F00009D8B461
:108296004FEF41F051EF41F03AEF41F0680E050122
:1082A6006C6FE40EE82EFED76C2FFCD70000000E94
:1082B6000501666F570E656FF40E676F060E686FE1
:1082C600000E6A6F030E696F0DEC56F00009D8B404
:1082D6006FEF41F071EF41F05AEF41F02A0E0501C0
:1082E6006C6F8D0EE82EFED76C2FFCD700D0D00E0B
:1082F60005016C6FC90EE82EFED76C2FFCD700D097
:1083060012008BC664F58CC665F58DC666F58EC6FD
:1083160067F585EC47F0050164516511D8A496EF21
:1083260041F098EF41F0A2EF41F08FC68BF690C670
:108336008CF691C68DF692C68EF617EF42F08FC672
:1083460064F590C665F591C666F592C667F585EC47
:1083560047F0050164516511D8A4B4EF41F0B6EFBA
:1083660041F0C0EF41F08BC68BF68CC68CF68DC6FD
:108376008DF68EC68EF617EF42F08BC664F58CC668
:1083860065F58DC666F58EC667F5B6EC56F064C51E
:10839600E5F565C5E6F58FC664F590C665F591C643
:1083A60066F592C667F5B6EC56F005016451E51917
:1083B60009E16551E619D8B4E3EF41F0E5EF41F084
:1083C600FBEF41F08BC664F58CC665F58DC666F588
:1083D6008EC667F5B6EC56F0050164516511D8A452
:1083E600F7EF41F0F9EF41F0B6EF41F098EF41F0C9
:1083F6008BC6D9F58CC6DAF58DC6DBF58EC6DCF5EF
:108406008FC6DDF590C6DEF591C6DFF592C6E0F5BE
:1084160002EC47F00501D8A013EF42F015EF42F049
:10842600B6EF41F098EF41F0120093C664F594C69A
:1084360065F595C666F596C667F585EC47F00501C0
:1084460064516511D8A42AEF42F02CEF42F036EFC2
:1084560042F097C693F698C694F699C695F69AC6CC
:1084660096F6ABEF42F097C664F598C665F599C6E1
:1084760066F59AC667F585EC47F005016451651106
:10848600D8A448EF42F04AEF42F054EF42F093C6C8
:1084960093F694C694F695C695F696C696F6ABEF01
:1084A60042F093C664F594C665F595C666F596C61C
:1084B60067F5B6EC56F064C5E7F565C5E8F597C609
:1084C60064F598C665F599C666F59AC667F5B6EC7D
:1084D60056F005016451E71909E16551E819D8B468
:1084E60077EF42F079EF42F08FEF42F093C664F5F2
:1084F60094C665F595C666F596C667F5B6EC56F06C
:10850600050164516511D8A48BEF42F08DEF42F05E
:108516002CEF42F04AEF42F093C6D9F594C6DAF54D
:1085260095C6DBF596C6DCF597C6DDF598C6DEF58D
:1085360099C6DFF59AC6E0F502EC47F00501D8A02A
:10854600A7EF42F0A9EF42F02CEF42F04AEF42F0DB
:10855600120064C5D9F465C5DAF466C5DFF4050111
:1085660020EE01F06451D9266551DA2267C5DEF4A2
:1085760068C5DEF469C5DEF46AC5DEF420EE05F0F2
:108586006451D9266551DA226BC5DEF46CC5DEF47A
:108596006DC5DEF46EC5DEF420EE09F06451D92611
:1085A6006551DA226FC5DEF470C5DEF471C5DEF4FE
:1085B60072C5DEF420EE15F06451D9266551DA2233
:1085C60073C5DEF474C5DEF475C5DEF476C5DEF477
:1085D60020EE19F06451D9266551DA2277C5DEF40A
:1085E60078C5DEF479C5DEF47AC5DEF420EE0DF04A
:1085F6006451D9266551DA22000EDE6E000EDE6E5B
:10860600480EDE6E440EDD6E20EE11F06451D92662
:108616006551DA22000EDE6E000EDE6E480EDE6E4C
:10862600C40EDD6E20EE1DF06451D9266551DA22A6
:10863600000EDE6E000EDE6E000EDE6E000EDD6ECD
:1086460020EE21F06451D9266551DA22000EDE6E45
:10865600000EDE6E000EDE6E000EDD6E20EE25F0E4
:108666006451D9266551DA227BC5DEF47CC5DDF47A
:108676001200C80E0501756F000E766F000E776F3B
:10868600000E786F6D51736F6CC574F567EF43F02C
:1086960005017551761177117811D8A455EF43F07D
:1086A60057EF43F059EF43F0CBEF43F07507000E59
:1086B600765B775B785B150E0501716FC60EE82E4B
:1086C600FED7712FFCD70000000E0501666F530E12
:1086D600656F730E676F050E686F000E6A6F020E88
:1086E600696FE1EC55F00009D8B47CEF43F07EEFFA
:1086F60043F04BEF43F0C80E0501756F000E766F21
:10870600000E776F000E786FA5EF43F005017551E7
:10871600761177117811D8A493EF43F095EF43F0D3
:1087260097EF43F0CBEF43F07507000E765B775B70
:10873600785B150E0501716FC60EE82EFED7712FF8
:10874600FCD70000000E0501666F530E656F6EC5FF
:1087560067F56FC568F5020E7025696F6A6B000EC6
:108766006A230DEC56F00009D8B4BCEF43F0BEEF17
:1087760043F089EF43F0090E0501726F1E0E716F0B
:10878600E40EE82EFED7712FFCD7722FFAD7000021
:10879600120021EEAEF1100EDE6AE806FDE2AE0E24
:1087A6000501646F050E656FABC566F5ACC567F56B
:1087B600000E696F110E686F64EC56F0550E0501D8
:1087C600AE6F040E796F540E6EEC5AF079C5BFF594
:1087D6007AC5C0F5B50E0501646F050E656FBFC598
:1087E60066F5C0C567F5000E696F040E686F64EC28
:1087F60056F0030E0501796F5C0E6EEC5AF079C5E2
:10880600C1F57AC5C2F5050120EE02F0C151D9269F
:10881600C251DA22DF50B96FAE0E646F050E656F76
:108826000F0E666F63EC53F064C5C3F565C5C4F5FA
:10883600C3C5BEF50501C451BD6FC56B6D0EA56FF1
:108846003D0EA66FAE0EC525D96EDA6A050EDA2282
:10885600DF50AD6FAD51A76FA86B36EC5CF0100E14
:108866000501C56139EF44F03BEF44F041EF44F0B8
:10887600720EA56F3D0EA66F36EC5CF00501C52B9A
:10888600100EC56549EF44F04BEF44F021EF44F07C
:10889600AE0E646F050E656F000E676F000E666F95
:1088A600000E696F110E686FFAEC59F0120006019E
:1088B6009D359E350501EE6FEE51D8A465EF44F067
:1088C60067EF44F072EF44F0000E06019B6F000E56
:1088D6009C6F000E9D6F000E9E6FE6EF44F09BC6E8
:1088E600E9F59CC6EAF59DC6EBF59EC6ECF5200EAD
:1088F60082EF44F0D890EC33EB33EA33E933E82ED9
:108906007DEF44F0E951ED6F06019D8FFF0E9B1739
:10891600FF0E9C17FF0E9D17000E9E17960E050163
:10892600EE5FEEBF9BEF44F099EF44F0B3EF44F0F7
:10893600EE51800A970FD8B0A3EF44F0A5EF44F0AC
:10894600A7EF44F067EF44F00601D8909E339D33BD
:108956009C339B330501EE3FA7EF44F0CDEF44F087
:108966001F0EEE65B9EF44F0BBEF44F0C5EF44F0DF
:1089760067EF44F00601D8909B379C379D379E37AA
:108986000501EE07EE51D8A4CBEF44F0CDEF44F04D
:10899600BDEF44F0ED51D8B4D3EF44F0D5EF44F039
:1089A600DEEF44F006019E1F9D1F9C1F9B6D000E6F
:1089B6009C239D239E239BC69BF69CC69CF69DC628
:1089C6009DF69EC69EF61200050120EE08F0645143
:1089D600D9266551DA22DF50D8B4F4EF44F0F6EF29
:1089E60044F022EF45F020EE08F06451D926655197
:1089F600DA22150EDF6002EF45F004EF45F00CEFCA
:108A060045F020EE08F06451D9266551DA22140E9D
:108A1600DF6E20EE08F06451D9266551DA22630E26
:108A2600DF6418EF45F01AEF45F022EF45F020EE2F
:108A360008F06451D9266551DA22640EDF6E20EE05
:108A460008F06451D9266551DA22DF5006016A6FB3
:108A5600050120EE0AF06451D9266551DA22DF506D
:108A6600D8B438EF45F03AEF45F066EF45F020EE22
:108A76000AF06451D9266551DA221F0EDF6046EFEF
:108A860045F048EF45F050EF45F020EE0AF064510E
:108A9600D9266551DA221E0EDF6E20EE0AF06451E9
:108AA600D9266551DA22630EDF645CEF45F05EEF8E
:108AB60045F066EF45F020EE0AF06451D92665517F
:108AC600DA22640EDF6E20EE0AF06451D926655173
:108AD600DA22DF500601696F12000501646F050195
