:0430000081EF18F054
:103008007538753875387538400C7538400C753812
:10301800A73775386F387538753875387538753815
:103028007038400C400C400C753875387538753858
:1030380075387538753859355A347538753848358E
:10304800DA37653875387538400C400C753875387E
:10305800753875387538400C7538753826355C2FD5
:10306800AD377538753875387538753875387538B9
:103078008C3793372B31FE2E400C75383735892F16
:1030880075387538753875387538753875387538D0
:103098007538753875387538400C7538400C400CE3
:1030A800B337753875387538753875387538753873
:1030B800753875387538A834753875387538753871
:1030C8007538753875387538753875387538753890
:1030D8007538753875387538753875387538753880
:1030E800400C753875387538400C400C400C400C55
:1030F8007538753875387538FF00B8EF56F0000028
:10310800C0C101C30302C2C60607C705C5C404CCB3
:103118000C0DCD0FCFCE0E0ACACB0BC90908C8D8E3
:103128001819D91BDBDA1A1EDEDF1FDD1D1CDC14A3
:10313800D4D515D71716D6D21213D311D1D010F073
:103148003031F133F3F23236F6F737F53534F43CF3
:10315800FCFD3DFF3F3EFEFA3A3BFB39F9F83828C3
:10316800E8E929EB2B2AEAEE2E2FEF2DEDEC2CE4E3
:103178002425E527E7E62622E2E323E12120E0A053
:103188006061A163A3A26266A6A767A56564A46C33
:10319800ACAD6DAF6F6EAEAA6A6BAB69A9A8687863
:1031A800B8B979BB7B7ABABE7E7FBF7DBDBC7CB423
:1031B8007475B577B7B67672B2B373B17170B05033
:1031C8009091519353529296565797559594549C73
:1031D8005C5D9D5F9F9E5E5A9A9B5B995958988843
:1031E8004849894B8B8A4A4E8E8F4F8D4D4C8C4463
:1031F80084854587474686824243834181804000D3
:10320800C1814001C0804101C0804100C1814001AD
:10321800C0804100C1814000C1814001C08041019E
:10322800C0804100C1814000C1814001C08041008F
:10323800C1814001C0804101C0804100C18140017D
:10324800C0804100C1814000C1814001C08041006F
:10325800C1814001C0804101C0804100C18140005E
:10326800C1814001C0804101C0804100C18140014D
:10327800C0804100C1814000C1814001C08041013E
:10328800C0804100C1814000C1814001C08041002F
:10329800C1814001C0804101C0804100C18140001E
:1032A800C1814001C0804101C0804100C18140010D
:1032B800C0804100C1814000C1814001C0804100FF
:1032C800C1814001C0804101C0804100C1814001ED
:1032D800C0804100C1814000C1814001C0804101DE
:1032E800C0804100C1814000C1814001C0804100CF
:1032F800C1814001C0804101C0804100C1814000BE
:10330800C0C101C30302C2C60607C705C5C404CCB1
:103318000C0DCD0FCFCE0E0ACACB0BC90908C8D8E1
:103328001819D91BDBDA1A1EDEDF1FDD1D1CDC14A1
:10333800D4D515D71716D6D21213D311D1D010F071
:103348003031F133F3F23236F6F737F53534F43CF1
:10335800FCFD3DFF3F3EFEFA3A3BFB39F9F83828C1
:10336800E8E929EB2B2AEAEE2E2FEF2DEDEC2CE4E1
:103378002425E527E7E62622E2E323E12120E0A051
:103388006061A163A3A26266A6A767A56564A46C31
:10339800ACAD6DAF6F6EAEAA6A6BAB69A9A8687861
:1033A800B8B979BB7B7ABABE7E7FBF7DBDBC7CB421
:1033B8007475B577B7B67672B2B373B17170B05031
:1033C8009091519353529296565797559594549C71
:1033D8005C5D9D5F9F9E5E5A9A9B5B995958988841
:1033E8004849894B8B8A4A4E8E8F4F8D4D4C8C4461
:1033F80084854587474686824243834181804000D1
:10340800C1814001C0804101C0804100C1814001AB
:10341800C0804100C1814000C1814001C08041019C
:10342800C0804100C1814000C1814001C08041008D
:10343800C1814001C0804101C0804100C18140017B
:10344800C0804100C1814000C1814001C08041006D
:10345800C1814001C0804101C0804100C18140005C
:10346800C1814001C0804101C0804100C18140014B
:10347800C0804100C1814000C1814001C08041013C
:10348800C0804100C1814000C1814001C08041002D
:10349800C1814001C0804101C0804100C18140001C
:1034A800C1814001C0804101C0804100C18140010B
:1034B800C0804100C1814000C1814001C0804100FD
:1034C800C1814001C0804101C0804100C1814001EB
:1034D800C0804100C1814000C1814001C0804101DC
:1034E800C0804100C1814000C1814001C0804100CD
:1034F800C1814001C0804101C0804100C1814000BC
:10350800C0C101C30302C2C60607C705C5C404CCAF
:103518000C0DCD0FCFCE0E0ACACB0BC90908C8D8DF
:103528001819D91BDBDA1A1EDEDF1FDD1D1CDC149F
:10353800D4D515D71716D6D21213D311D1D010F06F
:103548003031F133F3F23236F6F737F53534F43CEF
:10355800FCFD3DFF3F3EFEFA3A3BFB39F9F83828BF
:10356800E8E929EB2B2AEAEE2E2FEF2DEDEC2CE4DF
:103578002425E527E7E62622E2E323E12120E0A04F
:103588006061A163A3A26266A6A767A56564A46C2F
:10359800ACAD6DAF6F6EAEAA6A6BAB69A9A868785F
:1035A800B8B979BB7B7ABABE7E7FBF7DBDBC7CB41F
:1035B8007475B577B7B67672B2B373B17170B0502F
:1035C8009091519353529296565797559594549C6F
:1035D8005C5D9D5F9F9E5E5A9A9B5B99595898883F
:1035E8004849894B8B8A4A4E8E8F4F8D4D4C8C445F
:1035F80084854587474686824243834181804000CF
:10360800C1814001C0804101C0804100C1814001A9
:10361800C0804100C1814000C1814001C08041019A
:10362800C0804100C1814000C1814001C08041008B
:10363800C1814001C0804101C0804100C181400179
:10364800C0804100C1814000C1814001C08041006B
:10365800C1814001C0804101C0804100C18140005A
:10366800C1814001C0804101C0804100C181400149
:10367800C0804100C1814000C1814001C08041013A
:10368800C0804100C1814000C1814001C08041002B
:10369800C1814001C0804101C0804100C18140001A
:1036A800C1814001C0804101C0804100C181400109
:1036B800C0804100C1814000C1814001C0804100FB
:1036C800C1814001C0804101C0804100C1814001E9
:1036D800C0804100C1814000C1814001C0804101DA
:1036E800C0804100C1814000C1814001C0804100CB
:1036F800C1814001C0804101C0804100C1814000BA
:10370800C0C101C30302C2C60607C705C5C404CCAD
:103718000C0DCD0FCFCE0E0ACACB0BC90908C8D8DD
:103728001819D91BDBDA1A1EDEDF1FDD1D1CDC149D
:10373800D4D515D71716D6D21213D311D1D010F06D
:103748003031F133F3F23236F6F737F53534F43CED
:10375800FCFD3DFF3F3EFEFA3A3BFB39F9F83828BD
:10376800E8E929EB2B2AEAEE2E2FEF2DEDEC2CE4DD
:103778002425E527E7E62622E2E323E12120E0A04D
:103788006061A163A3A26266A6A767A56564A46C2D
:10379800ACAD6DAF6F6EAEAA6A6BAB69A9A868785D
:1037A800B8B979BB7B7ABABE7E7FBF7DBDBC7CB41D
:1037B8007475B577B7B67672B2B373B17170B0502D
:1037C8009091519353529296565797559594549C6D
:1037D8005C5D9D5F9F9E5E5A9A9B5B99595898883D
:1037E8004849894B8B8A4A4E8E8F4F8D4D4C8C445D
:1037F80084854587474686824243834181804000CD
:10380800C1814001C0804101C0804100C1814001A7
:10381800C0804100C1814000C1814001C080410198
:10382800C0804100C1814000C1814001C080410089
:10383800C1814001C0804101C0804100C181400177
:10384800C0804100C1814000C1814001C080410069
:10385800C1814001C0804101C0804100C181400058
:10386800C1814001C0804101C0804100C181400147
:10387800C0804100C1814000C1814001C080410138
:10388800C0804100C1814000C1814001C080410029
:10389800C1814001C0804101C0804100C181400018
:1038A800C1814001C0804101C0804100C181400107
:1038B800C0804100C1814000C1814001C0804100F9
:1038C800C1814001C0804101C0804100C1814001E7
:1038D800C0804100C1814000C1814001C0804101D8
:1038E800C0804100C1814000C1814001C0804100C9
:1038F800C1814001C0804101C0804100C1814000B8
:10390800C0C101C30302C2C60607C705C5C404CCAB
:103918000C0DCD0FCFCE0E0ACACB0BC90908C8D8DB
:103928001819D91BDBDA1A1EDEDF1FDD1D1CDC149B
:10393800D4D515D71716D6D21213D311D1D010F06B
:103948003031F133F3F23236F6F737F53534F43CEB
:10395800FCFD3DFF3F3EFEFA3A3BFB39F9F83828BB
:10396800E8E929EB2B2AEAEE2E2FEF2DEDEC2CE4DB
:103978002425E527E7E62622E2E323E12120E0A04B
:103988006061A163A3A26266A6A767A56564A46C2B
:10399800ACAD6DAF6F6EAEAA6A6BAB69A9A868785B
:1039A800B8B979BB7B7ABABE7E7FBF7DBDBC7CB41B
:1039B8007475B577B7B67672B2B373B17170B0502B
:1039C8009091519353529296565797559594549C6B
:1039D8005C5D9D5F9F9E5E5A9A9B5B99595898883B
:1039E8004849894B8B8A4A4E8E8F4F8D4D4C8C445B
:1039F80084854587474686824243834181804000CB
:103A0800C1814001C0804101C0804100C1814001A5
:103A1800C0804100C1814000C1814001C080410196
:103A2800C0804100C1814000C1814001C080410087
:103A3800C1814001C0804101C0804100C181400175
:103A4800C0804100C1814000C1814001C080410067
:103A5800C1814001C0804101C0804100C181400056
:103A6800C1814001C0804101C0804100C181400145
:103A7800C0804100C1814000C1814001C080410136
:103A8800C0804100C1814000C1814001C080410027
:103A9800C1814001C0804101C0804100C181400016
:103AA800C1814001C0804101C0804100C181400105
:103AB800C0804100C1814000C1814001C0804100F7
:103AC800C1814001C0804101C0804100C1814001E5
:103AD800C0804100C1814000C1814001C0804101D6
:103AE800C0804100C1814000C1814001C0804100C7
:103AF800C1814001C0804101C0804100C1814000B6
:103B0800C0C101C30302C2C60607C705C5C404CCA9
:103B18000C0DCD0FCFCE0E0ACACB0BC90908C8D8D9
:103B28001819D91BDBDA1A1EDEDF1FDD1D1CDC1499
:103B3800D4D515D71716D6D21213D311D1D010F069
:103B48003031F133F3F23236F6F737F53534F43CE9
:103B5800FCFD3DFF3F3EFEFA3A3BFB39F9F83828B9
:103B6800E8E929EB2B2AEAEE2E2FEF2DEDEC2CE4D9
:103B78002425E527E7E62622E2E323E12120E0A049
:103B88006061A163A3A26266A6A767A56564A46C29
:103B9800ACAD6DAF6F6EAEAA6A6BAB69A9A8687859
:103BA800B8B979BB7B7ABABE7E7FBF7DBDBC7CB419
:103BB8007475B577B7B67672B2B373B17170B05029
:103BC8009091519353529296565797559594549C69
:103BD8005C5D9D5F9F9E5E5A9A9B5B995958988839
:103BE8004849894B8B8A4A4E8E8F4F8D4D4C8C4459
:103BF80084854587474686824243834181804000C9
:103C0800C1814001C0804101C0804100C1814001A3
:103C1800C0804100C1814000C1814001C080410194
:103C2800C0804100C1814000C1814001C080410085
:103C3800C1814001C0804101C0804100C181400173
:103C4800C0804100C1814000C1814001C080410065
:103C5800C1814001C0804101C0804100C181400054
:103C6800C1814001C0804101C0804100C181400143
:103C7800C0804100C1814000C1814001C080410134
:103C8800C0804100C1814000C1814001C080410025
:103C9800C1814001C0804101C0804100C181400014
:103CA800C1814001C0804101C0804100C181400103
:103CB800C0804100C1814000C1814001C0804100F5
:103CC800C1814001C0804101C0804100C1814001E3
:103CD800C0804100C1814000C1814001C0804101D4
:103CE800C0804100C1814000C1814001C0804100C5
:103CF800C1814001C0804101C0804100C18140367E
:103D0800C20000000054D90006D20000000082DE84
:103D1800000000000000000000000000000000009B
:103D2800000000000000000000000000000000008B
:103D3800000000000084DD0000000060DD003CDDC4
:103D48000018DD00000000C4D00000000072CE00A2
:103D5800CACE00000000000000000000E0DA000009
:103D68000000000000269E783EEEE9913E13CECC7E
:103D78003EAAAA2A3FD1F717378071313F2D2D2D42
:103D88002D2D2D2D2D2D2D2D2D2D2D2D2D2D2D2D5B
:103D98002D2D2D2D2D2D2D2D2D2D2D2D2D2D2D2D4B
:103DA8002D0A0A004348317C493A252E32667C5652
:103DB8003A252E32667C503A252E32667C50574D75
:103DC8003A25647C0A0D004348327C493A252E3254
:103DD800667C563A252E32667C503A252E32667C11
:103DE80050574D3A25647C0A0D0053503A252E321F
:103DF800667C4C6576313A25647C4C6576323A258A
:103E0800647C0A0D0050726F73746174653A25649E
:103E18007C0A0D0050726F746570793A25647C0ACB
:103E28000D0054656D703A252E32667C0A0D0056D9
:103E3800696E3A25647C0A0D002530325800696E97
:093E480066006E616E00200000AE
:103E52000601526B2AC653F62BC654F62CC655F6EB
:103E62002DC656F656BF3AEF1FF038EF1FF04EEF51
:103E72001FF0010E526F53C664F554C665F555C660
:103E820066F556C667F590EC6BF064C553F665C5EA
:103E920054F666C555F667C556F6000E0601586F0C
:103EA200000E576FD8C646F6D9C647F65251D8B457
:103EB2005DEF1FF05FEF1FF073EF1FF05251D8A4B8
:103EC20065EF1FF067EF1FF06DEF1FF0000E386F08
:103ED2002B0E376F71EF1FF0000E386F2D0E376FFC
:103EE20037C652F653C664F554C665F555C666F52F
:103EF20056C667F53CEC57F0050164056511D8A478
:103F020085EF1FF087EF1FF0BEEF1FF00601525141
:103F1200D8B48EEF1FF090EF1FF099EF1FF052C64A
:103F220097F94607D8A04707000E586F010E576F42
:103F3200970E57250501646F090E060158210501E8
:103F4200656F460E666F3E0E676F35EC6BF00601CD
:103F5200FD0E4627FF0E472328C678F529C679F5B8
:103F6200970E05017A6F090E7B6F46C67CF547C630
:103F72007DF5C8EC60F088EF24F053C664F554C6B2
:103F820065F555C666F556C667F53CEC57F0050172
:103F920064516511D8A4D0EF1FF0D2EF1FF0F5EFF6
:103FA2001FF006015251D8B4D9EF1FF0DBEF1FF01A
:103FB200E4EF1FF052C697F94607D8A04707000E54
:103FC200586F010E576F970E57250501646F090E42
:103FD200060158210501656F4A0E666F3E0E676F36
:103FE20035EC6BF0A8EF1FF0000E0601596F000EC2
:103FF2005A6F800E5B6F3F0E5C6F000E416F000EBA
:10400200406F53C664F554C665F555C666F556C687
:1040120067F5000E0501686F000E696F000E6A6F8A
:10402200000E6B6F1CEC60F00501D8B01BEF20F0A6
:104032001DEF20F017EF21F02AEF20F042C659F6CB
:1040420043C65AF644C65BF645C65CF60601404BCB
:10405200412B59C6A7F55AC6A8F55BC6A9F55CC699
:10406200AAF5000E0501AB6F000EAC6F200EAD6F0E
:10407200410EAE6F9BEC31F0A7C542F6A8C543F6E0
:10408200A9C544F6AAC545F606014251535D05018C
:10409200646F0601435154590501656F060144518D
:1040A20055590501666F0601455156590501676F5D
:1040B2000DEC67F0050167BF6AEF20F067516611EA
:1040C200651109E1020E645DD8A06AEF20F06CEF81
:1040D20020F01FEF20F042C60CF643C60DF644C690
:1040E2000EF645C60FF653C610F654C611F655C65F
:1040F20012F656C613F693EC50F00601D8A084EFE0
:1041020020F086EF20F01FEF20F05951535D05019A
:10411200646F06015A5154590501656F06015B51DE
:1041220055590501666F06015C5156590501676FC5
:104132000DEC67F0050167BFACEF20F06751661127
:10414200651107E1020E645DD8B0AAEF20F0ACEF72
:1041520020F0FDEF20F059C653F65AC654F65BC65E
:1041620055F65CC656F617EF21F059C6C0F55AC689
:10417200C1F55BC6C2F55CC6C3F5000E0501C46F8E
:10418200000EC56F200EC66F410EC76F98EC39F056
:10419200C0C559F6C1C55AF6C2C55BF6C3C55CF6C1
:1041A20006014007D8A041075951535D0501646FCC
:1041B20006015A5154590501656F06015B51555963
:1041C2000501666F06015C5156590501676F0DECDA
:1041D20067F0050167BFFBEF20F0675166116511BB
:1041E20007E1020E645DD8B0F9EF20F0FBEF20F09A
:1041F200FDEF20F0ACEF20F053C60CF654C60DF6DE
:1042020055C60EF656C60FF659C610F65AC611F620
:104212005BC612F65CC613F693EC50F00601D8A00A
:1042220015EF21F017EF21F0B6EF20F02EC63AF687
:104232003AC63BF60601DBBF21EF21F023EF21F066
:1042420029EF21F0DAC633F6DBC634F62DEF21F082
:10425200000E346F060E336F33C63EF634C63FF699
:104262003E4B3F2B660E3B19D8A43AEF21F03CEFB0
:1042720021F05CEF21F041BF43EF21F041EF21F04B
:104282004FEF21F0000E596F000E5A6F800E5B6FD8
:104292003F0E5C6F000E416F000E406F670E3A19C1
:1042A200D8B456EF21F058EF21F05CEF21F04051E5
:1042B2003E2741513F23000E516F000E506F53C6EF
:1042C20048F654C649F655C64AF656C64BF659C67E
:1042D20042F65AC643F65BC644F65CC645F6EEEFB6
:1042E20021F048C6C0F549C6C1F54AC6C2F54BC65B
:1042F200C3F559C6C4F55AC6C5F55BC6C6F55CC654
:10430200C7F598EC39F0C0C5D9F5C1C5DAF5C2C513
:10431200DBF5C3C5DCF59EEC43F0D9C54CF6DAC536
:104322004DF6DBC54EF6DCC54FF64CC624F64DC63F
:1043320025F64EC626F64FC627F693EC54F024C651
:104342003CF625C63DF648C600F649C601F64AC601
:1043520002F64BC603F64CC6ABF54DC6ACF54EC6DF
:10436200ADF54FC6AEF559C6A7F55AC6A8F55BC658
:10437200A9F55CC6AAF59BEC31F0A7C504F6A8C561
:1043820005F6A9C506F6AAC507F6BEEC69F000C691
:1043920048F601C649F602C64AF603C64BF659C6A6
:1043A200C0F55AC6C1F55BC6C2F55CC6C3F5000EC0
:1043B2000501C46F000EC56F200EC66F410EC76F98
:1043C20098EC39F0C0C559F6C1C55AF6C2C55BF6BC
:1043D200C3C55CF60601504B512B3E51505D515105
:1043E200800A2F6F3F51800A2F59D8A0FBEF21F08E
:1043F200FDEF21F072EF21F059C6A7F55AC6A8F5D4
:104402005BC6A9F55CC6AAF5000E0501AB6F000EEE
:10441200AC6FA00EAD6F400EAE6F9BEC31F0A7C536
:104422004CF6A8C54DF6A9C54EF6AAC54FF648C624
:104432000CF649C60DF64AC60EF64BC60FF64CC62A
:1044420010F64DC611F64EC612F64FC613F693EC91
:1044520050F00601D8B030EF22F032EF22F03CEFFC
:1044620022F0000E4C6F000E4D6F000E4E6F000ECC
:104472004F6F66EF22F048C664F549C665F54AC635
:1044820066F54BC667F54CC668F54DC669F54EC66E
:104492006AF54FC66BF51CEC60F00501D8A054EF2D
:1044A20022F056EF22F066EF22F006013CB15CEFFB
:1044B20022F05EEF22F066EF22F0000E4C6F000E4B
:1044C2004D6F000E4E6F000E4F6F53C6D9F554C696
:1044D200DAF555C6DBF556C6DCF54CC6DDF54DC63C
:1044E200DEF54EC6DFF54FC6E0F5EEEC2CF0D9C591
:1044F20048F6DAC549F6DBC54AF6DCC54BF648C6CE
:104502000CF649C60DF64AC60EF64BC60FF6000E5D
:104512000501AB6F000EAC6F200EAD6F410EAE6F9A
:1045220042C6A7F543C6A8F544C6A9F545C6AAF5ED
:104532009BEC31F0A7C510F6A8C511F6A9C512F675
:10454200AAC513F693EC50F00601D8A0ABEF22F007
:10455200ADEF22F0D6EF22F0404B412B42C6A7F539
:1045620043C6A8F544C6A9F545C6AAF5000E05013D
:10457200AB6F000EAC6F200EAD6F410EAE6F9BECB9
:1045820031F0A7C542F6A8C543F6A9C544F6AAC5A7
:1045920045F6660E06013B19D8A4D2EF22F0D4EFFD
:1045A20022F0D6EF22F03E4B3F2B42C659F643C6CD
:1045B2005AF644C65BF645C65CF640C631F641C6BD
:1045C20032F6396B000E366F000E356F000E516FEA
:1045D200000E506FD3EF23F048C6C0F549C6C1F5AF
:1045E2004AC6C2F54BC6C3F559C6C4F55AC6C5F587
:1045F2005BC6C6F55CC6C7F598EC39F0C0C5D9F5FF
:10460200C1C5DAF5C2C5DBF5C3C5DCF59EEC43F0E6
:10461200D9C54CF6DAC54DF6DBC54EF6DCC54FF60C
:104622004CC624F64DC625F64EC626F64FC627F6CC
:1046320093EC54F0060125BF2AEF23F0255107E140
:104642000A0E245DD8B028EF23F02AEF23F03AEFC8
:1046520023F04CC624F64DC625F64EC626F64FC6A6
:1046620027F693EC54F024C63CF625C63DF63EEF01
:1046720023F0000E3D6F090E3C6F06013951D8A49C
:1046820045EF23F047EF23F06FEF23F032BF4EEFF9
:1046920023F04CEF23F06FEF23F0970E5725D96EDE
:1046A200090E5821DA6E2E0EDF6E574B582B460735
:1046B200D8A04707010E396F6FEF23F0970E5725E9
:1046C200D96E090E5821DA6E300EDF6E574B582B19
:1046D2004607D8A047073507D8A036073551361107
:1046E200D8A476EF23F078EF23F05FEF23F0970E54
:1046F2005725D96E090E5821DA6E3C51300FDF6E04
:10470200574B582B4607D8A0470748C600F649C65C
:1047120001F64AC602F64BC603F64CC6ABF54DC6C9
:10472200ACF54EC6ADF54FC6AEF559C6A7F55AC69D
:10473200A8F55BC6A9F55CC6AAF59BEC31F0A7C546
:1047420004F6A8C505F6A9C506F6AAC507F6BEEC85
:1047520069F000C648F601C649F602C64AF603C623
:104762004BF659C6C0F55AC6C1F55BC6C2F55CC662
:10477200C3F5000E0501C46F000EC56F200EC66F93
:10478200410EC76F98EC39F0C0C559F6C1C55AF64B
:10479200C2C55BF6C3C55CF606013107D8A0320775
:1047A200504B512B3E51505D5151800A2F6F3F515A
:1047B200800A2F59D8B0E0EF23F0E2EF23F0F0EFB8
:1047C20023F058BFEEEF23F0585109E14B0E575D2D
:1047D200D8A0EEEF23F0F0EF23F0EDEF22F0000E81
:1047E200516F4F0E506F970E5025D96E090E512101
:1047F200DA6EDF6A970E2F6F090E306F57512F5FF7
:104802005851305B50512F250501646F06015151FB
:1048120030210501656F970E666F090E676F57C6E7
:1048220068F558C669F510EC68F006015751505DFD
:10483200576F58515159586F5251D8A423EF24F051
:1048420026EF24F0010E27EF24F0000E506F516B7B
:10485200E2A32EEF24F030EF24F05EEF24F040EFDD
:1048620024F05707D8A05807970E5725D96E090E7E
:104872005821DA6E300EDF6E4607D8A04707465140
:10488200505D5151800A2F6F4751800A2F59D8B07D
:104892004DEF24F04FEF24F05EEF24F05751505DBE
:1048A2005151800A2F6F5851800A2F59D8A05CEFBE
:1048B20024F05EEF24F032EF24F05251D8B464EFCA
:1048C20024F066EF24F071EF24F05707D8A05807C0
:1048D200970E5725D96E090E5821DA6E52C6DFF4AB
:1048E2005051465F5151475B28C678F529C679F584
:1048F200970E572505017A6F090E06015821050109
:104902007B6F46C67CF547C67DF5C8EC60F01200A9
:104912002AC600F62BC601F62CC602F62DC603F6F1
:104922002EC604F62FC605F630C606F631C607F6C1
:10493200BEEC69F000C656F601C657F602C658F636
:1049420003C659F656C608F657C609F658C60AF6F9
:1049520059C60BF675EC6CF008C65AF609C65BF63A
:104962000AC65CF60BC65DF656C608F657C609F6C9
:1049720058C60AF659C60BF675EC6CF008C60CF66A
:1049820009C60DF60AC60EF60BC60FF6000E060194
:10499200106F000E116F800E126F3F0E136F93ECAB
:1049A20050F00601D8B0D8EF24F0DAEF24F0E2EFAD
:1049B20024F0000E566F000E576F000E586F000E57
:1049C200596F20EE05F02851D9262951DA22DEC48A
:1049D20052F6DEC453F6DEC454F6DEC455F6000EBB
:1049E2000C6F000E0D6F480E0E6F420E0F6F5AC6FF
:1049F20010F65BC611F65CC612F65DC613F693ECB2
:104A020050F00601D8B008EF25F00AEF25F027EFA5
:104A120025F052C6A7F553C6A8F554C6A9F555C642
:104A2200AAF5CD0E0501AB6FCC0EAC6FCC0EAD6FFF
:104A32003D0EAE6F9BEC31F0A7C552F6A8C553F6FA
:104A4200A9C554F6AAC555F693EF25F0000E0C6FD2
:104A5200000E0D6FA00E0E6F410E0F6F5AC610F6AC
:104A62005BC611F65CC612F65DC613F693EC50F007
:104A72000601D8B03FEF25F041EF25F05EEF25F0BB
:104A820052C6A7F553C6A8F554C6A9F555C6AAF548
:104A92009A0E0501AB6F990EAC6F990EAD6F3E0E7B
:104AA200AE6F9BEC31F0A7C552F6A8C553F6A9C567
:104AB20054F6AAC555F693EF25F05AC60CF65BC616
:104AC2000DF65CC60EF65DC60FF6000E106F000EF8
:104AD200116FA00E126F400E136F93EC50F006018F
:104AE200D8B076EF25F078EF25F093EF25F052C697
:104AF200A7F553C6A8F554C6A9F555C6AAF5000EE2
:104B02000501AB6F000EAC6F000EAD6F400EAE6FC5
:104B12009BEC31F0A7C552F6A8C553F6A9C554F6C9
:104B2200AAC555F6060120EE01F02851D9262951D1
:104B3200DA22DEC4A7F5DEC4A8F5DEC4A9F5DEC418
:104B4200AAF556C6ABF557C6ACF558C6ADF559C66B
:104B5200AEF59BEC31F0A7C532F6A8C533F6A9C570
:104B620034F6AAC535F65AC60CF65BC60DF65CC617
:104B72000EF65DC60FF6000E0601106F000E116FE5
:104B8200480E126F420E136F93EC50F00601D8B02C
:104B9200CDEF25F0CFEF25F0AEEF27F056C65EF64B
:104BA20057C65FF658C660F659C661F6000E0C6F1E
:104BB200000E0D6FF00E0E6F410E0F6F5AC610F6FB
:104BC2005BC611F65CC612F65DC613F693EC50F0A6
:104BD2000601D8B0EFEF25F0F1EF25F037EF26F020
:104BE200000E0C6F000E0D6F200E0E6F420E0F6F37
:104BF2005EC610F65FC611F660C612F661C613F6FF
:104C020093EC50F00601D8B009EF26F00BEF26F036
:104C120013EF26F0000E5E6F000E5F6F200E606FC6
:104C2200420E616F5EC60CF65FC60DF660C60EF6EA
:104C320061C60FF6000E106F000E116F200E126F7C
:104C4200C20E136F93EC50F00601D8B02BEF26F092
:104C52002DEF26F00AEF27F0000E5E6F000E5F6F59
:104C6200200E606FC20E616F0AEF27F0000E0C6F0C
:104C7200000E0D6F200E0E6F410E0F6F5AC610F60A
:104C82005BC611F65CC612F65DC613F693EC50F0E5
:104C92000601D8B04FEF26F051EF26F0C6EF26F00E
:104CA2005AC6A7F55BC6A8F55CC6A9F55DC6AAF506
:104CB200CD0E0501AB6FCC0EAC6F4C0EAD6F3F0E3F
:104CC200AE6F9BEC31F0A7C54AF6A8C54BF6A9C555
:104CD2004CF6AAC54DF64AC60CF64BC60DF64CC6A6
:104CE2000EF64DC60FF65EC610F65FC611F660C62A
:104CF20012F661C613F693EC50F00601D8B084EFB9
:104D020026F086EF26F08EEF26F04AC65EF64BC6F8
:104D12005FF64CC660F64DC661F65EC60CF65FC61F
:104D22000DF660C60EF661C60FF64AC664F54BC6AE
:104D320065F54CC666F54DC667F590EC6BF064C53B
:104D420010F665C511F666C512F667C513F693EC43
:104D520050F00601D8B0B0EF26F0B2EF26F00AEF1D
:104D620027F04AC664F54BC665F54CC666F54DC6D6
:104D720067F590EC6BF064C55EF665C55FF666C5D7
:104D820060F667C561F60AEF27F0000E0C6F000EA1
:104D92000D6FA00E0E6F400E0F6F5EC610F65FC64F
:104DA20011F660C612F661C613F693EC50F00601D6
:104DB200D8B0DEEF26F0E0EF26F0E8EF26F0000EA6
:104DC2005E6F000E5F6FA00E606F400E616F5EC679
:104DD2000CF65FC60DF660C60EF661C60FF6000E43
:104DE200106F000E116FA00E126FC00E136F93ECB6
:104DF20050F00601D8B000EF27F002EF27F00AEFDB
:104E020027F0000E5E6F000E5F6FA00E606FC00E87
:104E1200616F5EC6A7F55FC6A8F560C6A9F561C653
:104E2200AAF5060120EE05F02851D9262951DA22E9
:104E3200DEC4C4F5DEC4C5F5DEC4C6F5DEC4C7F5FE
:104E420052C6C0F553C6C1F554C6C2F555C6C3F520
:104E520098EC39F0C0C5ABF5C1C5ACF5C2C5ADF52E
:104E6200C3C5AEF59BEC31F0A7C55EF6A8C55FF6EB
:104E7200A9C560F6AAC561F6060120EE1DF028510B
:104E8200D9262951DA22DEC4D9F5DEC4DAF5DEC428
:104E9200DBF5DEC4DCF55EC6DDF55FC6DEF560C6B9
:104EA200DFF561C6E0F5EEEC2CF0060120EE1DF018
:104EB2002851D9262951DA220501D9C5DEF4DAC5ED
:104EC200DEF4DBC5DEF4DCC5DEF4060120EE11F013
:104ED2002851D9262951DA22DEC41CF6DEC41DF679
:104EE200DEC41EF6DEC41FF620EE1DF02851D926C0
:104EF2002951DA22DEC414F6DEC415F6DEC416F633
:104F0200DEC417F620EE0DF02851D9262951DA22F7
:104F1200DEC418F6DEC419F6DEC41AF6DEC41BF6C9
:104F220028EC51F014C620F615C621F616C622F654
:104F320017C623F6BCEC51F0060120EE1DF02851F5
:104F4200D9262951DA221CC6DEF41DC6DEF41EC69D
:104F5200DEF41FC6DEF4BCEF27F020EE1DF0285170
:104F6200D9262951DA22000EDE6E000EDE6E000E08
:104F7200DE6E000EDD6E20EE1DF02851D92629517D
:104F8200DA22DEC4A7F5DEC4A8F5DEC4A9F5DEC4C4
:104F9200AAF552C6ABF553C6ACF554C6ADF555C627
:104FA200AEF59BEC31F0A7C536F6A8C537F6A9C514
:104FB20038F6AAC539F6060120EE21F02851D92685
:104FC2002951DA22DEC404F6DEC405F6DEC406F692
:104FD200DEC407F656C600F657C601F658C602F6F4
:104FE20059C603F6BEEC69F000C6A7F501C6A8F5DE
:104FF20002C6A9F503C6AAF5060120EE09F028515A
:10500200D9262951DA22DEC4ABF5DEC4ACF5DEC402
:10501200ADF5DEC4AEF59BEC31F0A7C546F6A8C5EA
:1050220047F6A9C548F6AAC549F6330E0501AB6F86
:10503200330EAC6F330EAD6F3F0EAE6F46C6A7F5A3
:1050420047C6A8F548C6A9F549C6AAF59BEC31F0B2
:10505200A7C5D9F5A8C5DAF5A9C5DBF5AAC5DCF55A
:105062009A0E0501AB6F990EAC6F990EAD6F3E0EA5
:10507200AE6F1CC7A7F51DC7A8F51EC7A9F51FC7A8
:10508200AAF59BEC31F0A7C5DDF5A8C5DEF5A9C5EB
:10509200DFF5AAC5E0F5EEEC2CF0D9C546F6DAC587
:1050A20047F6DBC548F6DCC549F646C61CF747C6D7
:1050B2001DF748C61EF749C61FF7060120EE21F06C
:1050C2002851D9262951DA2256C6DEF457C6DEF413
:1050D20058C6DEF459C6DEF436C6DDF537C6DEF54F
:1050E20038C6DFF539C6E0F532C6D9F533C6DAF58A
:1050F20034C6DBF535C6DCF5EEEC2CF0D9C53AF654
:10510200DAC53BF6DBC53CF6DCC53DF63AC6D9F559
:105112003BC6DAF53CC6DBF53DC6DCF546C6DDF539
:1051220047C6DEF548C6DFF549C6E0F5EEEC2CF0E1
:10513200D9C54EF6DAC54FF6DBC550F6DCC551F6D9
:1051420028C6D9F429C6DAF4DE04D8A4ABEF28F0D5
:10515200ADEF28F02EEF29F0060151BFB5EF28F090
:10516200B3EF28F0BFEF28F0000E3E6F000E3F6F46
:10517200000E406FBF0E416FC7EF28F0000E3E6F6A
:10518200000E3F6F000E406F3F0E416F4EC6DDF5C1
:105192004FC6DEF550C6DFF551C6E0F53EC6D9F57D
:1051A2003FC6DAF540C6DBF541C6DCF5EEEC2CF085
:1051B200D9C524F6DAC525F6DBC526F6DCC527F601
:1051C20093EC54F006012451DE272551DF23000E13
:1051D200186F000E196F480E1A6F450E1B6FDEC650
:1051E20099F5DFC69AF50501000E9ABFFF0E9B6F77
:1051F2009C6F010E88EC49F099C514F69AC515F614
:105202009BC516F69CC517F628EC51F014C620F67D
:1052120015C621F616C622F617C623F6000E06019B
:105222001C6F000E1D6F000E1E6F000E1F6FBCEC78
:1052320051F01CC624F61DC625F61EC626F61FC64C
:1052420027F693EC54F024C6DEF625C6DFF6DEC65A
:1052520028F6DFC629F6BAEF29F028C6D9F429C6FE
:10526200DAF4020EDE18D8A439EF29F03BEF29F068
:10527200BAEF29F0060151BF43EF29F041EF29F0BF
:105282004DEF29F0000E426F000E436F000E446F87
:10529200BF0E456F55EF29F0000E426F000E436FAF
:1052A200000E446F3F0E456F4EC6DDF54FC6DEF56C
:1052B20050C6DFF551C6E0F542C6D9F543C6DAF568
:1052C20044C6DBF545C6DCF5EEEC2CF0D9C524F678
:1052D200DAC525F6DBC526F6DCC527F693EC54F0D5
:1052E20006012451DC272551DD23000E186F000E24
:1052F200196F480E1A6F450E1B6FDCC699F5DDC695
:105302009AF50501000E9ABFFF0E9B6F9C6F010E6E
:1053120088EC49F099C514F69AC515F69BC516F6A0
:105322009CC517F628EC51F014C620F615C621F6D6
:1053320016C622F617C623F6000E06011C6F000ED3
:105342001D6F000E1E6F000E1F6FBCEC51F01CC6CD
:1053520024F61DC625F61EC626F61FC627F693ECB2
:1053620054F024C6DCF625C6DDF6DCC628F6DDC61A
:1053720029F6120004C742F605C743F606C744F6EB
:1053820007C745F608C642F609C643F60AC644F6FA
:105392000BC645F6000E0601296F000E286F455117
:1053A20009E1800E445DD8A0D9EF29F0DBEF29F0A6
:1053B200E2EF29F045AFE0EF29F0E2EF29F049EF03
:1053C2002AF0D89042350501E96F060143350501FF
:1053D200EA6F060144350501EB6F0601453505010B
:1053E200EC6FE951EA11EB11EC11D8A4FBEF29F0B3
:1053F200FDEF29F010EF2AF0000E0601426F000EB9
:10540200436F800E446FFF0E456F42C608F643C6D7
:1054120009F644C60AF645C60BF6EDEF2CF0060176
:1054220045AF16EF2AF018EF2AF028EF2AF0000E07
:105432000701866F210E856FFF0E0601426FFF0E78
:10544200436FFF0E446F7F0E456F06EF2AF0E70EA3
:105452002827FF0E292342C6A7F543C6A8F544C64E
:10546200A9F545C6AAF5000E0501AB6F000EAC6F9B
:10547200000EAD6F4C0EAE6F9BEC31F0A7C542F63D
:10548200A8C543F6A9C544F6AAC545F676EF2AF0A3
:10549200800E445D7F0E4559D8A052EF2AF054EF9A
:1054A2002AF05EEF2AF008C608F609C609F60AC60F
:1054B2000AF60BC60BF6EDEF2CF0800E441909E14B
:1054C2003F0E451942114311D8A46AEF2AF06CEF3E
:1054D2002AF076EF2AF0000E086F000E096F000E18
:1054E2000A6F000E0B6FEDEF2CF00D0E0601422736
:1054F200FB0E43234A0E4423000E452342C6E9F520
:1055020043C6EAF544C6EBF545C6ECF5180E90EF36
:105512002AF00501D890EC33EB33EA33E933E82E75
:105522008AEF2AF0810EE925ED6FFF0EEA21EE6F78
:10553200ED51060128270501EE5106012923FF0E30
:1055420042150501E96FFF0E060143150501EA6FD9
:105552007F0E060144150501EB6F000E060145158D
:105562000501EC6FF30EE9250601426F040E0501F9
:10557200EA210601436F350E0501EB210601446F56
:105582003F0E0501EC210601456F42C600F643C6F7
:1055920001F644C602F645C603F6000E046F000E7D
:1055A200056F800E066F3F0E076FBEEC69F000C6F6
:1055B20042F601C643F602C644F603C645F642C6A3
:1055C200C0F543C6C1F544C6C2F545C6C3F5000ED3
:1055D2000501DD6F000EDE6F000EDF6F400EE06F23
:1055E20042C6D9F543C6DAF544C6DBF545C6DCF555
:1055F200EEEC2CF0D9C5C4F5DAC5C5F5DBC5C6F5A8
:10560200DCC5C7F598EC39F0C0C532F6C1C533F632
:10561200C2C534F6C3C535F632C6A7F533C6A8F5FA
:1056220034C6A9F535C6AAF532C6ABF533C6ACF514
:1056320034C6ADF535C6AEF59BEC31F0A7C536F6EE
:10564200A8C537F6A9C538F6AAC539F636C6A7F5EC
:1056520037C6A8F538C6A9F539C6AAF536C6ABF5D8
:1056620037C6ACF538C6ADF539C6AEF59BEC31F0B0
:10567200A7C53AF6A8C53BF6A9C53CF6AAC53DF6AC
:10568200130E0501DD6FCE0EDE6FCC0EDF6F3E0E08
:10569200E06F260EAB6F9E0EAC6F780EAD6F3E0EB6
:1056A200AE6F3AC6A7F53BC6A8F53CC6A9F53DC6FE
:1056B200AAF59BEC31F0A7C5D9F5A8C5DAF5A9C5BD
:1056C200DBF5AAC5DCF5EEEC2CF0D9C53EF6DAC561
:1056D2003FF6DBC540F6DCC541F63EC6A7F53FC640
:1056E200A8F540C6A9F541C6AAF53AC6ABF53BC630
:1056F200ACF53CC6ADF53DC6AEF59BEC31F0A7C5A9
:1057020010F6A8C511F6A9C512F6AAC513F6AA0E77
:105712000501DD6FAA0EDE6F2A0EDF6F3F0EE06F0E
:10572200EE0EAB6FE90EAC6F910EAD6F3E0EAE6F2B
:105732003AC6A7F53BC6A8F53CC6A9F53DC6AAF5EB
:105742009BEC31F0A7C5D9F5A8C5DAF5A9C5DBF5FB
:10575200AAC5DCF5EEEC2CF0D9C53EF6DAC53FF66B
:10576200DBC540F6DCC541F63EC6A7F53FC6A8F547
:1057720040C6A9F541C6AAF536C6ABF537C6ACF5A3
:1057820038C6ADF539C6AEF59BEC31F0A7C514F6B7
:10579200A8C515F6A9C516F6AAC517F614C6D9F5F1
:1057A20015C6DAF516C6DBF517C6DCF510C6DDF54B
:1057B20011C6DEF512C6DFF513C6E0F5EEEC2CF0ED
:1057C200D9C50CF6DAC50DF6DBC50EF6DCC50FF64B
:1057D200000E0501AB6F000EAC6F000EAD6F3F0EF9
:1057E200AE6F42C6A7F543C6A8F544C6A9F545C69D
:1057F200AAF59BEC31F0A7C53EF6A8C53FF6A9C5B0
:1058020040F6AAC541F63EC6A7F53FC6A8F540C672
:10581200A9F541C6AAF542C6ABF543C6ACF544C6E6
:10582200ADF545C6AEF59BEC31F0A7C52AF6A8C585
:105832002BF6A9C52CF6AAC52DF628C699F529C6B8
:105842009AF50501000E9ABFFF0E9B6F9C6F010E29
:1058520088EC49F099C52EF69AC52FF69BC530F60D
:105862009CC531F632C6ABF533C6ACF534C6ADF5E0
:1058720035C6AEF50CC6DDF50DC6DEF50EC6DFF596
:105882000FC6E0F52AC6D9F52BC6DAF52CC6DBF52C
:105892002DC6DCF5EEEC2CF0D9C5A7F5DAC5A8F5D6
:1058A200DBC5A9F5DCC5AAF59BEC31F0A7C518F656
:1058B200A8C519F6A9C51AF6AAC51BF6D10E050187
:1058C200AB6FF70EAC6F170EAD6F370EAE6F2EC605
:1058D200A7F52FC6A8F530C6A9F531C6AAF59BECE7
:1058E20031F0A7C5DDF5A8C5DEF5A9C5DFF5AAC566
:1058F200E0F518C6D9F519C6DAF51AC6DBF51BC6E6
:10590200DCF5EEEC2CF0D9C51CF6DAC51DF6DBC5CC
:105912001EF6DCC51FF62AC604F62BC605F62CC6F3
:1059220006F62DC607F61CC600F61DC601F61EC6F3
:1059320002F61FC603F6BEEC69F000C620F601C6E9
:1059420021F602C622F603C623F642C6DDF543C699
:10595200DEF544C6DFF545C6E0F520C6D9F521C619
:10596200DAF522C6DBF523C6DCF5EEEC2CF0D9C560
:1059720024F6DAC525F6DBC526F6DCC527F624C6ED
:10598200D9F525C6DAF526C6DBF527C6DCF5800E85
:105992000501AB6F710EAC6F310EAD6F3F0EAE6F86
:1059A2002EC6A7F52FC6A8F530C6A9F531C6AAF5A9
:1059B2009BEC31F0A7C5DDF5A8C5DEF5A9C5DFF57D
:1059C200AAC5E0F5EEEC2CF0D9C508F6DAC509F661
:1059D200DBC50AF6DCC50BF612000501DC51800BB3
:1059E200E56FDC51DC25E76FDBAFFAEF2CF0FCEF63
:1059F2002CF0FDEF2CF0E781E751D8B403EF2DF046
:105A020005EF2DF019EF2DF0E729D8A40BEF2DF0BB
:105A12000DEF2DF015EF2DF0000ED96F000EDA6F9D
:105A2200000EDB6F000EDC6FDB8FDC6B21EF2DF0E5
:105A3200000ED96F000EDA6F000EDB6F000EDC6F06
:105A4200E051800BE66FE551E619D8B42BEF2DF04B
:105A52002DEF2DF02EEF2DF0E58DE051E025E66FD4
:105A6200DFAF36EF2DF038EF2DF039EF2DF0E68174
:105A7200E651D8B43FEF2DF041EF2DF055EF2DF068
:105A8200E629D8A447EF2DF049EF2DF051EF2DF084
:105A9200000EDD6F000EDE6F000EDF6F000EE06F96
:105AA200DF8FE06B5DEF2DF0000EDD6F000EDE6F1D
:105AB200000EDF6F000EE06FE751E65DD8B064EFD5
:105AC2002DF066EF2DF08DEF2DF0E5AD6BEF2DF0A3
:105AD2006DEF2DF06FEF2DF0800EE51BE7C5E8F5B9
:105AE200E6C5E7F5E8C5E6F5D9C5E8F5DDC5D9F5BA
:105AF200E8C5DDF5DAC5E8F5DEC5DAF5E8C5DEF5B7
:105B0200DBC5E8F5DFC5DBF5E8C5DFF5DCC5E8F5A3
:105B1200E0C5DCF5E8C5E0F5E86BE751E6C5E1F57F
:105B2200E26BE15F000EE25BE2BFA1EF2DF0E2511A
:105B320009E11A0EE15DD8A0A1EF2DF0A3EF2DF03F
:105B4200DAEF2DF0D951DA11DB11DC11D8A4ACEF68
:105B52002DF0AFEF2DF0010EB0EF2DF0000EE86F3B
:105B6200000ED96F000EDA6F000EDB6F000EDC6FD5
:105B7200E6C5E7F5E3EF2DF0E8A1C2EF2DF0C4EFA3
:105B82002DF0CAEF2DF0D890E8310109E86FCCEF83
:105B92002DF0D890E833D9A1D1EF2DF0D3EF2DF02D
:105BA200D4EF2DF0E88FDC35DC33DB33DA33D93355
:105BB200E72BE651E75DD8A0E1EF2DF0E3EF2DF002
:105BC200BDEF2DF0E5BDE8EF2DF0EAEF2DF02AEF65
:105BD2002EF0E751D8A4F0EF2DF0F2EF2DF0FCEF0C
:105BE2002DF0000ED96F000EDA6F000EDB6F000E83
:105BF200DC6F49EF2FF0DD51D927DE51DA23DF5177
:105C0200DB23E051DC23DCA109EF2EF00BEF2EF0B9
:105C1200B7EF2EF0E8A110EF2EF012EF2EF018EFF2
:105C22002EF0D890E8310109E86F1AEF2EF0D890E3
:105C3200E833D9A11FEF2EF021EF2EF022EF2EF044
:105C4200E88FDC35DC33DB33DA33D933E72BB7EFDC
:105C52002EF0DD51D95DDE51DA59DF51DB59DC51CD
:105C6200800AE16FE051800AE159D8B03BEF2EF093
:105C72003DEF2EF068EF2EF0D951DD5DE16FDA5184
:105C8200DE59E26FDB51DF59E36FDC51E059E46F1B
:105C9200FF0EE125D96FFF0EE221DA6FFF0EE3213D
:105CA200DB6FFF0EE421DC6F800EE51BE86DE8512F
:105CB200D8A45EEF2EF060EF2EF070EF2EF0010E02
:105CC200D927000EDA23DB23DC2370EF2EF0DD511F
:105CD200D95FDE51DA5BDF51DB5BE051DC5BD9512E
:105CE200DA11DB11DC11D8A479EF2EF07BEF2EF064
:105CF200B0EF2EF0E851D8A481EF2EF083EF2EF012
:105D0200B0EF2EF0000ED96F000EDA6F000EDB6FCF
:105D1200000EDC6F49EF2FF0D890D937DA37DB3736
:105D2200DC37E8AF97EF2EF099EF2EF09AEF2EF0D6
:105D3200D981E8A19FEF2EF0A1EF2EF0A5EF2EF072
:105D4200D880E837A7EF2EF0D890E837E751D8B4DB
:105D5200ADEF2EF0AFEF2EF0B0EF2EF0E707DBAF96
:105D6200B5EF2EF0B7EF2EF08DEF2EF0E66BE8AF29
:105D7200BDEF2EF0BFEF2EF0D7EF2EF0E8C5E1F524
:105D82007F0EE117D8B4C8EF2EF0CAEF2EF0CEEF97
:105D92002EF0010EE66FD7EF2EF0D9A1D3EF2EF041
:105DA200D5EF2EF0D7EF2EF0CAEF2EF0E651D8B491
:105DB200DDEF2EF0DFEF2EF00AEF2FF0010ED927E4
:105DC200000EDA23DB23DC23DCA1EAEF2EF0ECEF7A
:105DD2002EF00AEF2FF0D9C5E1F5DAC5E2F5DBC501
:105DE200E3F5DCC5E4F5E435E433E333E233E133F0
:105DF200E1C5D9F5E2C5DAF5E3C5DBF5E4C5DCF5C5
:105E0200E729D8B407EF2FF009EF2FF00AEF2FF0B0
:105E1200E72BE729D8B410EF2FF012EF2FF01AEF8B
:105E22002FF0E751D8A418EF2FF01AEF2FF02BEF35
:105E32002FF0000ED96F000EDA6F000EDB6F000E2E
:105E4200DC6FE751D8A428EF2FF02AEF2FF02BEFC9
:105E52002FF0E56BE7A130EF2FF032EF2FF035EFA7
:105E62002FF0DB8F36EF2FF0DB9FD890E731DC6F1E
:105E7200E5AF3EEF2FF040EF2FF041EF2FF0DC8F38
:105E8200D9C5D9F5DAC5DAF5DBC5DBF5DCC5DCF554
:105E920012000601396F1C0E06013919D8A454EFFD
:105EA2002FF056EF2FF078EF30F0010EEA655CEF3D
:105EB2002FF05EEF2FF078EF30F0000E0501C46F87
:105EC200000EC56F7A0EC66F440EC76F1C0EB7EC7C
:105ED20046F005016CC599F56DC59AF59B6B9C6BF7
:105EE200000E88EC49F099C5C0F59AC5C1F59BC56D
:105EF200C2F59CC5C3F598EC39F0C0C5A7F5C1C57C
:105F0200A8F5C2C5A9F5C3C5AAF5000E0501AB6F78
:105F1200000EAC6F110EAD6F430EAE6F9BEC31F005
:105F2200A7C53EF6A8C53FF6A9C540F6AAC541F6E3
:105F3200160E53EC3EF014C63AF615C63BF616C6DC
:105F42003CF617C63DF63EC6ABF53FC6ACF540C6BD
:105F5200ADF541C6AEF53AC6A7F53BC6A8F53CC6B7
:105F6200A9F53DC6AAF59BEC31F0A7C5C0F5A8C5B9
:105F7200C1F5A9C5C2F5AAC5C3F5000E0501C46FD6
:105F8200000EC56F7A0EC66F440EC76F98EC39F0DB
:105F9200C0C531F6C1C532F6C2C533F6C3C534F643
:105FA200000E06010C6F000E0D6FF00E0E6F410E0B
:105FB2000F6F3EC610F63FC611F640C612F641C636
:105FC20013F693EC50F00601D8A0EAEF2FF0ECEFB5
:105FD2002FF0F5EF2FF0010EE86F000E0501F26FC2
:105FE200020EF16F9AEF31F03EC60CF63FC60DF687
:105FF20040C60EF641C60FF6000E106F800E116FEE
:10600200090E126F440E136F93EC50F00601D8B0D4
:106012000DEF30F00FEF30F029EF30F0000E0C6F83
:10602200000E0D6F160E0E6F430E0F6F3EC610F66A
:106032003FC611F640C612F641C613F693EC50F075
:106042000601D8A027EF30F029EF30F032EF30F020
:10605200020EE86F000E0501F26F010EF16F9AEF6A
:1060620031F0CD0E0501AB6FCC0EAC6F8C0EAD6F67
:106072003F0EAE6FE0C699F5E1C69AF59B6B9C6B3D
:10608200000E88EC49F099C5A7F59AC5A8F59BC5FD
:10609200A9F59CC5AAF59BEC31F0A7C50CF6A8C5DD
:1060A2000DF6A9C50EF6AAC50FF631C610F632C610
:1060B20011F633C612F634C613F693EC50F006010D
:1060C200D8B066EF30F068EF30F071EF30F0030EC9
:1060D200E86F000E0501F26F020EF16F9AEF31F0D8
:1060E200000E0501F26F000EF16F9AEF31F0110E02
:1060F2003919D8A47FEF30F081EF30F071EF30F032
:10610200010EE96587EF30F089EF30F071EF30F082
:10611200000E0501C46F000EC56F7A0EC66F440EE5
:10612200C76F110EB7EC46F005016CC599F56DC548
:106132009AF59B6B9C6B000E88EC49F099C5C0F5F3
:106142009AC5C1F59BC5C2F59CC5C3F598EC39F05B
:10615200C0C5A7F5C1C5A8F5C2C5A9F5C3C5AAF5AD
:10616200000E0501AB6F000EAC6F110EAD6F430E4A
:10617200AE6F9BEC31F0A7C542F6A8C543F6A9C5A0
:1061820044F6AAC545F6040E53EC3EF014C63AF6A0
:1061920015C63BF616C63CF617C63DF642C6ABF52B
:1061A20043C6ACF544C6ADF545C6AEF53AC6A7F54D
:1061B2003BC6A8F53CC6A9F53DC6AAF59BEC31F055
:1061C200A7C5C0F5A8C5C1F5A9C5C2F5AAC5C3F53D
:1061D200000E0501C46F000EC56F7A0EC66F440E25
:1061E200C76F98EC39F0C0C535F6C1C536F6C2C5E1
:1061F20037F6C3C538F6000E06010C6F000E0D6FA0
:10620200A00E0E6F410E0F6F42C610F643C611F676
:1062120044C612F645C613F693EC50F00601D8A018
:1062220015EF31F017EF31F020EF31F0040EE86F87
:10623200000E0501F26F020EF16F9AEF31F042C6C5
:106242000CF643C60DF644C60EF645C60FF6000E12
:10625200106F000E116F960E126F430E136F93ECB8
:1062620050F00601D8B038EF31F03AEF31F054EF88
:1062720031F0000E0C6F000E0D6F480E0E6F420EC5
:106282000F6F42C610F643C611F644C612F645C653
:1062920013F693EC50F00601D8A052EF31F054EF10
:1062A20031F05DEF31F0050EE86F000E0501F26F7F
:1062B200010EF16F9AEF31F0CD0E0501AB6FCC0EEE
:1062C200AC6F8C0EAD6F3F0EAE6F45C599F546C5EE
:1062D2009AF59B6B9C6B000E88EC49F099C5A7F56B
:1062E2009AC5A8F59BC5A9F59CC5AAF59BEC31F00A
:1062F200A7C50CF6A8C50DF6A9C50EF6AAC50FF6D8
:1063020035C610F636C611F637C612F638C613F67B
:1063120093EC50F00601D8B091EF31F093EF31F0E9
:1063220071EF30F0060EE86F000E0501F26F020EFB
:10633200F16F12000501AA51800BB36FAA51AA2571
:10634200B96FA9AFA7EF31F0A9EF31F0AAEF31F0A1
:10635200B981B951D8B4B0EF31F0B2EF31F0C5EF35
:1063620031F0B929D8A4B8EF31F0BAEF31F0C2EF69
:1063720031F0000EA76F000EA86F000EA96F000E7D
:10638200AA6FA98FCDEF31F0000EA76F000EA86F94
:10639200000EA96F000EAA6FAE51800BB31BAE5157
:1063A200AE25B46FADAFD8EF31F0DAEF31F0DBEFFD
:1063B20031F0B481B451D8B4E1EF31F0E3EF31F010
:1063C200F6EF31F0B429D8A4E9EF31F0EBEF31F078
:1063D200F3EF31F0000EAB6F000EAC6F000EAD6F3D
:1063E200000EAE6FAD8FFEEF31F0000EAB6F000E00
:1063F200AC6F000EAD6F000EAE6FB451D8B404EFA7
:1064020032F006EF32F00EEF32F0B951D8A40CEFB1
:1064120032F00EEF32F018EF32F0000EA76F000EDE
:10642200A86F000EA96F000EAA6FAEEF33F0AD5148
:10643200A703F3C4BEF5F4C4BFF5BE51B56FB66B86
:10644200B76BB86BBF51BA6FBB6BBC6BBD6BAC515A
:10645200A803F3C4BEF5F4C4BFF5BE51B527000EC0
:10646200B623B723B823BF51BA27000EBB23BC23E0
:10647200BD23AB51A903F3C4BEF5F4C4BFF5BE51AD
:10648200B527000EB623B723B823BF51BA27000E93
:10649200BB23BC23BD23B7C5B8F5B6C5B7F5B5C593
:1064A200B6F5B56BAB51A803F3C4BEF5F4C4BFF5A2
:1064B200BE51B527BF51B623000EB723000EB82335
:1064C200AC51A703F3C4BEF5F4C4BFF5BE51B52762
:1064D200BF51B623000EB723000EB823B7C5B8F5D7
:1064E200B6C5B7F5B5C5B6F5B56BAB51A703F3C4E1
:1064F200BEF5F4C4BFF5BE51B527BF51B623000E99
:10650200B723000EB823AD51A803F3C4BEF5F4C4FB
:10651200BFF5BE51BA27BF51BB23000EBC23000EEC
:10652200BD23AC51A903F3C4BEF5F4C4BFF5BE51FB
:10653200BA27BF51BB23000EBC23000EBD23AD51B1
:10654200A903F3C4BEF5F4C4BFF5BE51AF6FBF518A
:10655200B06FB16BB26BB1C5B2F5B0C5B1F5AFC535
:10656200B0F5AF6BAF51BA27B051BB23B151BC23C9
:10657200B251BD23B5C5AFF5B6C5B0F5B7C5B1F5D6
:10658200B8C5B2F5190ECBEF32F0D890B233B133B1
:10659200B033AF33E82EC6EF32F0AF51BA27B05165
:1065A200BB23B151BC23B251BD23B7C5B8F5B6C5A3
:1065B200B7F5B5C5B6F5B56BB451B9C5AFF5B06BA6
:1065C200AF27000EB023820EAF25BE6FFF0EB021A3
:1065D200BF6F01EF33F0D890BA37BB37BC37BD3746
:1065E200B8AFF6EF32F0F8EF32F0F9EF32F0BA81ED
:1065F200D890B537B637B737B837BE07D8A0BF0778
:10660200BCAF06EF33F008EF33F0ECEF32F0B46BCF
:10661200B8AF0EEF33F010EF33F034EF33F0FF0E7C
:10662200B515AF6FFF0EB615B06FFF0EB715B16F90
:106632007F0EB815B26FAF51B011B111B211D8B40B
:1066420025EF33F027EF33F02BEF33F0010EB46F69
:1066520034EF33F0BAA130EF33F032EF33F034EFEE
:1066620033F027EF33F0B451D8B43AEF33F03CEFC4
:1066720033F060EF33F0010EBA27000EBB23BC23C8
:10668200BD23BDA147EF33F049EF33F060EF33F0A4
:10669200BAC5AFF5BBC5B0F5BCC5B1F5BDC5B2F560
:1066A200B235B233B133B033AF33AFC5BAF5B0C5DB
:1066B200BBF5B1C5BCF5B2C5BDF5BE4BBF2BBFBF67
:1066C2006BEF33F0BF5108E1BE29D8A06BEF33F076
:1066D2006DEF33F077EF33F0000EBA6F000EBB6F41
:1066E200800EBC6F7F0EBD6FA4EF33F0BFBF84EF8F
:1066F20033F0BF5106E1BE05D8B082EF33F084EF2C
:1067020033F08FEF33F0000EBA6F000EBB6F000E46
:10671200BC6F000EBD6FB36BA4EF33F0BEC5B9F50D
:10672200FF0EBA17FF0EBB177F0EBC17000EBD1768
:10673200B9A19EEF33F0A0EF33F0A1EF33F0BC8F9D
:10674200D890B931BD6FB351BD13BAC5A7F5BBC55A
:10675200A8F5BCC5A9F5BDC5AAF512005FC6D9F456
:1067620060C6DAF4DEC4F6F4DDC4F7F4000EF86EA7
:106772000800F550250AD8A4C1EF33F0C3EF33F077
:10678200A7EF35F05FC6D9F460C6DAF4DE2A000E50
:10679200DD22000E0601D96F000ED86FD8C6E2F6D0
:1067A200DA69DB69656BF6EF33F0E2835FC6D9F431
:1067B20060C6DAF4DE2A000EDD22F6EF33F0010EB7
:1067C200656FF6EF33F05FC6D9F460C6DAF4DEC463
:1067D200F6F4DDC4F7F4000EF86E0800F550300A46
:1067E200D8B4D6EF33F0E0EF33F06551D8B4FCEF14
:1067F20033F0FEEF33F0E4EF33F05FC664F560C6CA
:1068020065F561C666F562C667F5E3EC5AF064C5E4
:10681200D8F665C5D9F60601D9BF14EF34F012EFE8
:1068220034F019EF34F0E281D86DD91FD8B0D92BEA
:106832005FC6D9F460C6DAF4DEC4F6F4DDC4F7F458
:10684200000EF86E0800F5502E0AD8A42BEF34F093
:106852002DEF34F042EF34F05FC6D9F460C6DAF4BB
:10686200DE2A000EDD225FC664F560C665F561C6EC
:1068720066F562C667F5E3EC5AF064C5DAF665C5FB
:10688200DBF65FC6D9F460C6DAF4DEC46BF6DDC4AB
:106892006CF66BC6F6F46CC6F7F4000EF86E0800E0
:1068A200F550640AD8B458EF34F05AEF34F06AEF76
:1068B20034F06BC6F6F46CC6F7F4000EF86E0800FE
:1068C200F550690AD8A468EF34F06AEF34F099EF12
:1068D20034F061C6D9F462C6DAF4DFC463F6020E9C
:1068E200DE26DFC464F6000EDD2263C6D9F464C678
:1068F200DAF4DEC467F6DDC468F6010E06016B2524
:10690200636F000E6C21646F5FC6D9F460C6DAF45F
:1069120063C6DEF464C6DDF45DC681F55EC682F54B
:1069220067C683F568C684F5A6EC48F0BEEF35F07D
:106932006BC6F6F46CC6F7F4000EF86E0800F5505C
:10694200580AD8A4A7EF34F0A9EF34F0E8EF34F0F6
:1069520061C6D9F462C6DAF4DFC463F6020EDE263B
:10696200DFC464F6000EDD2263C6D9F464C6DAF42D
:10697200DEC467F6DDC468F6010E06016B25636F9F
:10698200000E6C21646F5FC6D9F460C6DAF463C688
:10699200DEF464C6DDF4DAEF34F05DC681F55EC67E
:1069A20082F567C683F568C684F5BCEC4EF0BEEF8F
:1069B20035F06BC6F6F46CC6F7F4000EF86E0800FC
:1069C200F550580AD8B4CEEF34F0E8EF34F05FC691
:1069D200D9F460C6DAF4DEC46BF6DDC46CF66BC6BD
:1069E200F6F46CC6F7F4000EF86E0800F5C466F60D
:1069F20006EF35F06B4B6C2B16EF35F06C0E666FB5
:106A020016EF35F0666B16EF35F0060166514C0A4B
:106A1200D8B4FBEF34F02A0AD8B4FFEF34F00A0AF4
:106A2200D8B4FBEF34F003EF35F06BC6F6F46CC666
:106A3200F7F4000EF86E0800F550660AD8A424EFA9
:106A420035F026EF35F09EEF35F05CEF35F061C69C
:106A5200D9F462C6DAF4DFC463F6040EDE26DFC4BC
:106A620064F6000EDD2263C6D9F464C6DAF4DEC42D
:106A720067F6DEC468F6DEC469F6DEC46AF667EF5E
:106A820035F061C6D9F462C6DAF4DFC463F6040EE7
:106A9200DE26DFC464F6000EDD2263C6D9F464C6C6
:106AA200DAF4DEC467F6DEC468F6DEC469F6DEC474
:106AB2006AF667EF35F066514C0AD8B442EF35F00A
:106AC200200AD8B428EF35F067EF35F0010E6B25B8
:106AD200636F000E6C21646F5FC6D9F460C6DAF48E
:106AE20063C6DEF464C6DDF490EF35F05DC628F6C9
:106AF2005EC629F667C62AF668C62BF669C62CF664
:106B02006AC62DF66BC6F6F46CC6F7F4000EF86E84
:106B12000800F5C42EF629EC1FF0BEEF35F06BC667
:106B2200F6F46CC6F7F4000EF86E0800F550660A2B
:106B3200D8B477EF35F09EEF35F05FC6D9F460C672
:106B4200DAF4DE2A000EDD22BEEF35F05FC6D9F49C
:106B520060C6DAF4DEC4F6F4DDC4F7F4000EF86EB3
:106B62000800F5500501686F696B5DC66AF55EC67F
:106B72006BF54AEC5BF09EEF35F0120028C768F522
:106B820029C769F52AC76AF52BC76BF537EC63F09D
:106B920068C5F3F569C5F4F56AC5F5F56BC5F6F593
:106BA200030EADEC6BF064C5F1F565C5F2F5F1C508
:106BB20046F6F2C547F6EAEC3CF046C6F7F547C69C
:106BC200F8F548C6F9F549C6FAF5F7C548F7F8C524
:106BD20049F7F9C54AF7FAC54BF724C704F625C7A2
:106BE20005F626C706F627C707F6F7C500F6F8C565
:106BF20001F6F9C502F6FAC503F6BEEC69F000C665
:106C020008F601C609F602C60AF603C60BF675ECCB
:106C12006CF008C60CF609C60DF60AC60EF60BC6CF
:106C22000FF6000E0601106F000E116F800E126F2C
:106C32003F0E136F93EC50F00601D8B023EF36F0FD
:106C420025EF36F030EF36F0050EE4612BEF36F02B
:106C52002DEF36F031EF36F0E42B31EF36F0E46B06
:106C6200F7C524F7F8C525F7F9C526F7FAC527F7BA
:106C7200A9EF37F0E76B040EE46542EF36F044EF1C
:106C820036F0B8EF37F0F7C50CF6F8C50DF6F9C5D2
:106C92000EF6FAC50FF6000E0501DD6F000EDE6F6F
:106CA200A00EDF6F400EE06FECC6D9F5EDC6DAF547
:106CB200EEC6DBF5EFC6DCF5EEEC2CF0D9C510F62E
:106CC200DAC511F6DBC512F6DCC513F693EC50F00B
:106CD2000601D8A06FEF36F071EF36F0BCEF36F058
:106CE200F7C50CF6F8C50DF6F9C50EF6FAC50FF69E
:106CF200000E0501DD6F000EDE6F200EDF6F410E0C
:106D0200E06FECC6D9F5EDC6DAF5EEC6DBF5EFC6F7
:106D1200DCF5EEEC2CF0D9C510F6DAC511F6DBC5C0
:106D220012F6DCC513F693EC50F00601D8B09CEFD6
:106D320036F09EEF36F0BCEF36F00501F651F51154
:106D42000BE1E80EF35D030EF459D8A0ABEF36F079
:106D5200ADEF36F0B8EF37F0010E0601E56FFBEC50
:106D62006FF064C528F765C529F766C52AF767C5B8
:106D72002BF7B8EF37F0F7C50CF6F8C50DF6F9C5E5
:106D82000EF6FAC50FF6000E0501DD6F000EDE6F7E
:106D9200200EDF6F410EE06FECC6D9F5EDC6DAF5D5
:106DA200EEC6DBF5EFC6DCF5EEEC2CF0D9C510F63D
:106DB200DAC511F6DBC512F6DCC513F693EC50F01A
:106DC2000601D8A0E7EF36F0E9EF36F0B0EF36F083
:106DD2000501F651F5110BE1E80EF35D030EF459CE
:106DE200D8A0F6EF36F0F8EF36F0FDEF36F0020EEF
:106DF2000601E56FB0EF36F0B8EF37F0010EE76F3E
:106E0200040EE46507EF37F009EF37F0B8EF37F01B
:106E1200ECC60CF6EDC60DF6EEC60EF6EFC60FF694
:106E2200F7C510F6F8C511F6F9C512F6FAC513F64C
:106E320093EC50F00601D8A021EF37F023EF37F0A2
:106E420036EF37F00501F651F5110BE1E80EF35D6F
:106E5200030EF459D8A030EF37F032EF37F0B8EF25
:106E620037F00601E56BB0EF36F0F7C50CF6F8C562
:106E72000DF6F9C50EF6FAC50FF6000E0501DD6F27
:106E8200000EDE6F200EDF6F410EE06FECC6D9F50B
:106E9200EDC6DAF5EEC6DBF5EFC6DCF5EEEC2CF06E
:106EA200D9C510F6DAC511F6DBC512F6DCC513F644
:106EB20093EC50F00601D8A061EF37F063EF37F0A2
:106EC200B0EF36F00501F651F5110BE1E80EF35D76
:106ED200030EF459D8A070EF37F072EF37F0FDEFE0
:106EE20036F0F8EF36F0020EE76F040EE4657CEF41
:106EF20037F07EEF37F0B8EF37F0ECC60CF6EDC6A0
:106F02000DF6EEC60EF6EFC60FF6F7C510F6F8C58B
:106F120011F6F9C512F6FAC513F693EC50F0060114
:106F2200D8A096EF37F098EF37F0B8EF37F00501B9
:106F3200F651F5110BE1D00EF35D070EF459D8A00E
:106F4200A5EF37F0A7EF37F0B8EF37F032EF37F0B1
:106F5200E551000AD8B43BEF36F0010AD8B4FFEF8E
:106F620036F0030AD8B474EF37F0B8EF37F01200F6
:106F7200060114511511D8A4C1EF37F0C3EF37F051
:106F8200CDEF37F0000E146F000E156F000E166F66
:106F9200000E176F97EF39F0FBEC6FF064C526F621
:106FA20065C527F666C528F667C529F6060120EEEF
:106FB20008F01451D9261551DA22DEC464F5DEC474
:106FC20065F5DEC466F5DEC467F516C668F517C654
:106FD20069F518C66AF519C66BF51CEC60F0050177
:106FE200D8B0F6EF37F0F8EF37F087EF38F0060158
:106FF20020EE08F01451D9261551DA2216C6DEF415
:1070020017C6DEF418C6DEF419C6DEF414C6D9F4C7
:1070120015C6DAF4DEC40CF6DEC40DF6DEC40EF6D6
:10702200DEC40FF616C610F617C611F618C612F60B
:1070320019C613F693EC50F00601D8B023EF38F0DE
:1070420025EF38F055EF38F014C6D9F415C6DAF446
:1070520010EE04F01451E1261551E222DEC4E6F4EA
:10706200DEC4E6F4DEC4E6F4DEC4E6F420EE0CF0A0
:107072001451D9261551DA2226C6DEF427C6DEF4CB
:1070820028C6DEF429C6DEF420EE10F01451D9260B
:107092001551DA221AC6DEF41BC6DEF41CC6DEF473
:1070A2001DC6DEF487EF38F020EE04F01451D92625
:1070B2001551DA2216C6DEF417C6DEF418C6DEF45F
:1070C20019C6DEF414C6D9F415C6DAF416C6DEF40F
:1070D20017C6DEF418C6DEF419C6DEF420EE0CF094
:1070E2001451D9261551DA2226C6DEF427C6DEF45B
:1070F20028C6DEF429C6DEF420EE10F01451D9269B
:107102001551DA22DE6ADE6ADE6ADD6A060120EEE7
:1071120010F01451D9261551DA22DE50DE10DE109D
:10712200DE10D8A497EF38F099EF38F0A7EF38F0D7
:1071320014C6D9F415C6DAF4DEC414F6DEC415F6A4
:10714200DEC416F6DEC417F697EF39F020EE0CF027
:107152001451D9261551DA22DEC468F5DEC469F568
:10716200DEC46AF5DEC46BF537EC63F068C52AF657
:1071720069C52BF66AC52CF66BC52DF6060120EE05
:1071820010F01451D9261551DA22DE502A5DDE5054
:107192002B59DE502C59DE502D59D8A0D3EF38F0A0
:1071A200D5EF38F0F5EF38F020EE08F01451D9267B
:1071B2001551DA2214C6E1F415C6E2F4DEC4E6F48F
:1071C200DEC4E6F4DEC4E6F4DEC4E6F414C6D9F4A2
:1071D20015C6DAF4DEC414F6DEC415F6DEC416F6FD
:1071E200DEC417F697EF39F02AC699F52BC69AF541
:1071F2002CC69BF52DC69CF5000E88EC49F099C56E
:10720200C0F59AC5C1F59BC5C2F59CC5C3F506017B
:1072120020EE10F01451D9261551DA22DEC499F568
:10722200DEC49AF5DEC49BF5DEC49CF5000E88EC44
:1072320049F099C5C4F59AC5C5F59BC5C6F59CC567
:10724200C7F598EC39F0C0C51EF6C1C51FF6C2C518
:1072520020F6C3C521F61EC6ABF51FC6ACF520C687
:10726200ADF521C6AEF5060120EE04F01451D92683
:107272001551DA22DEC404F6DEC405F6DEC406F6D3
:10728200DEC407F620EE08F01451D9261551DA2291
:10729200DEC400F6DEC401F6DEC402F6DEC403F686
:1072A200BEEC69F000C6A7F501C6A8F502C6A9F5AD
:1072B20003C6AAF59BEC31F0A7C522F6A8C523F6B2
:1072C200A9C524F6AAC525F622C6D9F523C6DAF53C
:1072D20024C6DBF525C6DCF5060120EE04F01451C8
:1072E200D9261551DA22DEC4DDF5DEC4DEF5DEC4B0
:1072F200DFF5DEC4E0F5EEEC2CF014C6D9F415C6C9
:10730200DAF40501D9C5DEF4DAC5DEF4DBC5DEF454
:10731200DCC5DEF414C6D9F415C6DAF4DEC414F6FC
:10732200DEC415F6DEC416F6DEC417F61200050139
:10733200C351800BD06FC351C325D76FC2AFA4EF27
:1073420039F0A6EF39F0A7EF39F0D781D751D8B489
:10735200ADEF39F0AFEF39F0C3EF39F0D729D8A448
:10736200B5EF39F0B7EF39F0BFEF39F0000EC06F6B
:10737200000EC16F000EC26F000EC36FC28FC36BCF
:10738200CBEF39F0000EC06F000EC16F000EC26F5E
:10739200000EC36FC751800BD01BC751C725D86FD2
:1073A200C6AFD6EF39F0D8EF39F0D9EF39F0D8813E
:1073B200D851D8B4DFEF39F0E1EF39F0F5EF39F019
:1073C200D829D8A4E7EF39F0E9EF39F0F1EF39F035
:1073D200000EC46F000EC56F000EC66F000EC76FA1
:1073E200C68FC76BFDEF39F0000EC46F000EC56F7C
:1073F200000EC66F000EC76FC451C511C611C7116A
:10740200D8A406EF3AF008EF3AF020EF3AF0000E77
:10741200C06F000EC16F000EC26F000EC36F800EF0
:10742200C2137F0EC313D051C313C0C5C0F5C1C56B
:10743200C1F5C2C5C2F5C3C5C3F560EF3BF0D75174
:10744200D8A426EF3AF028EF3AF032EF3AF0000EE5
:10745200C06F000EC16F000EC26F000EC36F60EFEF
:107462003BF0D851D7C5C8F5C96BC85F000EC95BE0
:107472007F0EC825D16F000EC921D26FC0C5CCF5D1
:10748200C1C5CDF5C2C5CEF5C3C5CFF5000EC06FDF
:10749200000EC16F000EC26F000EC36F000ED36FDD
:1074A200000ED46F000ED56F000ED66FD86B92EF20
:1074B2003AF0D851D8B460EF3AF062EF3AF079EF8F
:1074C2003AF0D890CC37CD37CE37CF37D890C037B7
:1074D200C137C237C337D6AF71EF3AF073EF3AF024
:1074E20074EF3AF0C081D890D337D437D537D63736
:1074F200C451CC5DC551CD59C651CE59C751CF5992
:10750200D8A086EF3AF088EF3AF091EF3AF0D68DB4
:10751200C451CC5FC551CD5BC651CE5BC751CF5B69
:10752200D82B190ED86598EF3AF09AEF3AF05AEF45
:107532003AF0CC51CD11CE11CF11D8B4A3EF3AF01D
:10754200A5EF3AF0BDEF3AF0D381BDEF3AF0D89013
:10755200C037C137C237C337D6AFB2EF3AF0B4EF54
:107562003AF0B5EF3AF0C081D890D337D437D53757
:10757200D637D107D8A0D207C2AFC2EF3AF0C4EFD4
:107582003AF0A8EF3AF0D86BD6AFCAEF3AF0CCEFA8
:107592003AF0F0EF3AF0FF0ED315C86FFF0ED41594
:1075A200C96FFF0ED515CA6F7F0ED615CB6FC851A6
:1075B200C911CA11CB11D8B4E1EF3AF0E3EF3AF0B6
:1075C200E7EF3AF0010ED86FF0EF3AF0C0A1ECEF1E
:1075D2003AF0EEEF3AF0F0EF3AF0E3EF3AF0D8514A
:1075E200D8B4F6EF3AF0F8EF3AF01CEF3BF0010EA8
:1075F200C027000EC123C223C323C3A103EF3BF064
:1076020005EF3BF01CEF3BF0C0C5C8F5C1C5C9F59D
:10761200C2C5CAF5C3C5CBF5CB35CB33CA33C933E3
:10762200C833C8C5C0F5C9C5C1F5CAC5C2F5CBC501
:10763200C3F5D14BD22BD2BF27EF3BF0D25108E199
:10764200D129D8A027EF3BF029EF3BF034EF3BF0F4
:10765200000ED26FD169000EC06F000EC16F000E16
:10766200C26F000EC36FD2BF41EF3BF0D25106E1B1
:10767200D105D8B03FEF3BF041EF3BF04EEF3BF08E
:10768200000ED26F000ED16F000EC06F000EC16FE0
:10769200000EC26F000EC36FD06BD1C5D7F5D7A154
:1076A20055EF3BF057EF3BF05AEF3BF0C28F5BEFE9
:1076B2003BF0C29FD890D731C36F14EF3AF012005B
:1076C20006014C6FFBEC6FF064C54EF665C54FF6D4
:1076D20066C550F667C551F6060120EE02F0465126
:1076E200D9264751DA22DF50D8B47AEF3BF07CEF4B
:1076F2003BF0B9EF3BF020EE08F04651D926475156
:10770200DA22DEC468F5DEC469F5DEC46AF5DEC4D9
:107712006BF537EC63F068C552F669C553F66AC576
:1077220054F66BC555F60601555154110BE1880EFE
:10773200525D130E5359D8A0A1EF3BF0A3EF3BF0DB
:10774200E9EF3CF020EE02F04651D9264751DA2209
:10775200DF6A48C6D9F449C6DAF4DF6A4AC6D9F400
:107762004BC6DAF4010EDF6EE9EF3CF0E9EF3CF0D4
:1077720020EE03F04651D9264751DA22DF50D8B421
:10778200C5EF3BF0C7EF3BF0CFEF3BF048C6D9F473
:1077920049C6DAF4010EDF6EE9EF3CF04C514AECD7
:1077A2002FF00501F15106014D6F4D05D8A4DCEF14
:1077B2003BF0DEEF3BF06CEF3CF046C6D9F447C637
:1077C200DAF4DF50D8A4E8EF3BF0EAEF3BF000EF49
:1077D2003CF020EE04F04651D9264751DA224EC63B
:1077E200DEF44FC6DEF450C6DEF451C6DEF446C601
:1077F200D9F447C6DAF4010EDF6EE9EF3CF020EE71
:1078020004F04651D9264751DA22DEC468F5DEC4B7
:1078120069F5DEC46AF5DEC46BF537EC63F068C562
:1078220052F669C553F66AC554F66BC555F606019C
:10783200555154110BE1E90E525D030E5359D8A074
:1078420025EF3CF027EF3CF0E9EF3CF048C6D9F4D5
:1078520049C6DAF4010EDF6E4AC6D9F44BC6DAF431
:10786200DF6A20EE02F04651D9264751DA22010E94
:10787200DF6E20EE08F04651D9264751DA224EC675
:10788200DEF44FC6DEF450C6DEF451C6DEF446C660
:10789200D9F447C6DAF4DF6A20EE0CF04651D92655
:1078A2004751DA22DF2A20EE0CF04651D926475101
:1078B200DA22040EDF6460EF3CF062EF3CF0B7EFD7
:1078C2003BF020EE03F04651D9264751DA22010E51
:1078D200DF6EE9EF3CF0020E4D19D8A473EF3CF0D5
:1078E20075EF3CF0D8EF3CF020EE01F04651D9267E
:1078F2004751DA22DF50D8A481EF3CF083EF3CF00D
:107902009BEF3CF020EE04F04651D9264751DA2293
:107912004EC6DEF44FC6DEF450C6DEF451C6DEF4C7
:1079220020EE01F04651D9264751DA22010EDF6ED0
:10793200E9EF3CF020EE04F04651D9264751DA2215
:10794200DEC468F5DEC469F5DEC46AF5DEC46BF533
:1079520037EC63F068C552F669C553F66AC554F64A
:107962006BC555F6060155515411531109E1C90E63
:10797200525DD8A0BFEF3CF0C1EF3CF0E9EF3CF024
:1079820048C6D9F449C6DAF4020EDF6E20EE03F0DF
:107992004651D9264751DA22010EDF6E20EE01F060
:1079A2004651D9264751DA22DF6AE9EF3CF048C650
:1079B200D9F449C6DAF4DF6A46C6D9F447C6DAF41E
:1079C200DF6A20EE01F04651D9264751DA22DF6AFA
:1079D2001200000E06014A6F000E4B6FA00E4C6F94
:1079E200400E4D6F6F0E4E6F120E4F6F830E506F23
:1079F200400E516F000E526F400E536F1C0E546FAB
:107A0200460E556F000E566F500E576FC30E586FCD
:107A1200470E596F000E5A6F000E5B6F7A0E5C6F45
:107A2200450E5D6F330E5E6F130E5F6F950E606FC6
:107A3200430E616F000E0501DD6F000EDE6F800EDA
:107A4200DF6FBF0EE06F4EC6ABF54FC6ACF550C64A
:107A5200ADF551C6AEF546C699F547C69AF5000E84
:107A62009ABFFF0E9B6F9C6F010E88EC49F099C57F
:107A7200A7F59AC5A8F59BC5A9F59CC5AAF59BECE7
:107A820031F0A7C5C4F5A8C5C5F5A9C5C6F5AAC5EF
:107A9200C7F54AC6ABF54BC6ACF54CC6ADF54DC6FF
:107AA200AEF5FF0E0501996F0F0E9A6F000E9B6FD8
:107AB200000E9C6F000E88EC49F099C5A7F59AC597
:107AC200A8F59BC5A9F59CC5AAF59BEC31F0A7C505
:107AD200C0F5A8C5C1F5A9C5C2F5AAC5C3F598ECFC
:107AE20039F0C0C5D9F5C1C5DAF5C2C5DBF5C3C5E4
:107AF200DCF5EEEC2CF0D9C56AF6DAC56BF6DBC51F
:107B02006CF6DCC56DF66AC6A7F56BC6A8F56CC641
:107B1200A9F56DC6AAF552C6ABF553C6ACF554C667
:107B2200ADF555C6AEF59BEC31F0A7C562F6A8C51A
:107B320063F6A9C564F6AAC565F656C6C4F557C666
:107B4200C5F558C6C6F559C6C7F562C6C0F563C6BF
:107B5200C1F564C6C2F565C6C3F598EC39F0C0C577
:107B62006EF6C1C56FF6C2C570F6C3C571F66EC6B4
:107B720008F66FC609F670C60AF671C60BF6BBECBC
:107B820029F008C672F609C673F60AC674F60BC661
:107B920075F672C6ABF573C6ACF574C6ADF575C6AF
:107BA200AEF55AC6C4F55BC6C5F55CC6C6F55DC67C
:107BB200C7F5000E0501C06F000EC16F800EC26FC7
:107BC2003F0EC36F98EC39F0C0C5A7F5C1C5A8F543
:107BD200C2C5A9F5C3C5AAF59BEC31F0A7C5DDF571
:107BE200A8C5DEF5A9C5DFF5AAC5E0F55EC6C4F5F0
:107BF2005FC6C5F560C6C6F561C6C7F5000E0501CC
:107C0200C06F000EC16F800EC26F3F0EC36F98EC43
:107C120039F0C0C5D9F5C1C5DAF5C2C5DBF5C3C5B2
:107C2200DCF5EEEC2CF0D9C576F6DAC577F6DBC5D5
:107C320078F6DCC579F6000E0501C06F000EC16F43
:107C4200800EC26F3F0EC36F76C6C4F577C6C5F508
:107C520078C6C6F579C6C7F598EC39F0C0C566F6A0
:107C6200C1C567F6C2C568F6C3C569F666C6D9F569
:107C720067C6DAF568C6DBF569C6DCF5330E0501C1
:107C8200DD6F930EDE6F880EDF6FC30EE06FEEECDA
:107C92002CF0D9C546F6DAC547F6DBC548F6DCC591
:107CA20049F6120006012C6F160E06012C19D8A4F3
:107CB2005DEF3EF05FEF3EF0FBEF3EF0160EB7ECED
:107CC20046F06CC528F66DC529F6000E0501C46F95
:107CD200F00EC56F7F0EC66F450EC76F28C699F5A9
:107CE20029C69AF5000E9ABFFF0E9B6F9C6F010E7C
:107CF20088EC49F099C5C0F59AC5C1F59BC5C2F596
:107D02009CC5C3F598EC39F0C0C5A7F5C1C5A8F567
:107D1200C2C5A9F5C3C5AAF53D0E0501AB6F0A0E92
:107D2200AC6F830EAD6F400EAE6F9BEC31F0A7C50A
:107D320018F6A8C519F6A9C51AF6AAC51BF6410E6A
:107D420006011C6F5C0E1D6FA80E1E6F3D0E1F6F8D
:107D52001CC6ABF51DC6ACF51EC6ADF51FC6AEF50D
:107D620018C6A7F519C6A8F51AC6A9F51BC6AAF51D
:107D72009BEC31F0A7C5C0F5A8C5C1F5A9C5C2F5F0
:107D8200AAC5C3F5CD0E0501C46FCC0EC56FCC0ECE
:107D9200C66F3D0EC76F98EC39F0C0C52DF6C1C550
:107DA2002EF6C2C52FF6C3C530F62DC60CF62EC66A
:107DB2000DF62FC60EF630C60FF6660E0601106FD0
:107DC200660E116F660E126F400E136F93EC50F039
:107DD2000601D8A0EFEF3EF0F1EF3EF09EEF3FF04C
:107DE200660E2D6F660E2E6F660E2F6F400E306F71
:107DF2009EEF3FF0040E2C19D8A402EF3FF004EFDF
:107E02003FF09EEF3FF0040EB7EC46F06CC52AF649
:107E12006DC52BF6000E0501C46FF00EC56F7F0E07
:107E2200C66F450EC76F2AC699F52BC69AF5000E86
:107E32009ABFFF0E9B6F9C6F010E88EC49F099C5AB
:107E4200C0F59AC5C1F59BC5C2F59CC5C3F598ECB2
:107E520039F0C0C5A7F5C1C5A8F5C2C5A9F5C3C506
:107E6200AAF56F0E0501AB6F120EAC6F830EAD6FEC
:107E7200400EAE6F9BEC31F0A7C520F6A8C521F6E7
:107E8200A9C522F6AAC523F62A0E0601246FFC0E06
:107E9200256F8B0E266F3D0E276F24C6ABF525C6C8
:107EA200ACF526C6ADF527C6AEF520C6A7F521C6A8
:107EB200A8F522C6A9F523C6AAF59BEC31F0A7C501
:107EC200C0F5A8C5C1F5A9C5C2F5AAC5C3F5CD0EB1
:107ED2000501C46FCC0EC56F4C0EC66F3E0EC76F48
:107EE20098EC39F0C0C52DF6C1C52EF6C2C52FF6E5
:107EF200C3C530F62DC60CF62EC60DF62FC60EF6ED
:107F020030C60FF6000E0601106F000E116F000E44
:107F1200126F400E136F93EC50F00601D8A094EF4D
:107F22003FF096EF3FF09EEF3FF0000E2D6F000EF8
:107F32002E6F000E2F6F400E306F2DC6A7F52EC686
:107F4200A8F52FC6A9F530C6AAF5000E0501AB6F3C
:107F5200000EAC6F7A0EAD6F440EAE6F9BEC31F03B
:107F6200A7C514F6A8C515F6A9C516F6AAC517F62B
:107F7200120020C768F521C769F522C76AF523C731
:107F82006BF537EC63F068C5C4F669C5C5F66AC51A
:107F9200C6F66BC5C7F60601C751C611C51109E180
:107FA2000B0EC45DD8A0D8EF3FF0DAEF3FF0E6EF5A
:107FB2003FF0E351D8B4E0EF3FF0E2EF3FF0E6EFFD
:107FC2003FF0010E506ECDEC70F05004D8B4ECEFDF
:107FD2003FF0EEEF3FF0F0EF3FF019EF41F0330EDC
:107FE2000501646F090E656F840E666F0A0E676F76
:107FF200E3C668F5696B10EC68F00601E351FE0F09
:10800200CE6F330E0501646F090E656FCEC666F53D
:10801200CAEC64F064C5C8F665C5C9F6340E06013B
:10802200CE25D96EDA6A090EDA22DF50C06F330E1E
:10803200CE25D96EDA6A090EDA22DF50C16FC1513C
:10804200C36FC26BC051C225CA6F000EC321CB6F72
:10805200CA51C81909E1CB51C919D8B433EF40F05C
:1080620035EF40F039EF40F076EC69F019EF41F06E
:1080720039C9CCF6E351F70FCD6FCC51CD19D8B435
:1080820045EF40F047EF40F049EF40F035EF40F068
:10809200100E09013419D8A451EF40F053EF40F00B
:1080A20063EF40F00E0E3619D8A45AEF40F05CEFA1
:1080B20040F063EF40F0330E0501646F090E656F07
:1080C20020EC55F0AA0E09013319D8A46BEF40F049
:1080D2006DEF40F035EF40F05A0E3419D8A474EF2A
:1080E20040F076EF40F035EF40F002EF41F0350519
:1080F200D8A47EEF40F080EF40F087EF40F0330EDF
:108102000601876F090E886F50EC52F0020E0901CA
:108112003519D8A48FEF40F091EF40F035EF40F0E1
:10812200330E0601876F090E886F64EC4AF035EF53
:1081320040F0020E3519D8A4A1EF40F0A3EF40F0B1
:1081420035EF40F0330E0601876F090E886F3BEC66
:1081520058F035EF40F0020E3519D8A4B3EF40F0D5
:10816200B5EF40F035EF40F0330E0601876F090E90
:10817200886F3BEC4BF035EF40F03505D8A4C4EFE7
:1081820040F0C6EF40F0CDEF40F0330E0601876FAE
:10819200090E886F63EC4FF0020E09013519D8A45D
:1081A200D5EF40F0D7EF40F035EF40F0330E060147
:1081B2009B6F090E9C6F71EC42F035EF40F0350574
:1081C200D8A4E6EF40F0E8EF40F0EFEF40F0330ED6
:1081D2000601876F090E886FBCEC57F0020E090189
:1081E2003519D8A4F7EF40F0F9EF40F035EF40F041
:1081F200330E06019B6F090E9C6FE3EC52F035EFD4
:1082020040F03651010AD8B478EF40F0030AD8B4EE
:10821200BEEF40F00A0AD8B4E0EF40F01F0AD8B42B
:108222009AEF40F0400AD8B4ACEF40F035EF40F09E
:10823200120034C768F535C769F536C76AF537C71E
:108242006BF537EC63F068C59BF569C59CF56AC5AB
:108252009DF56BC59EF52C0EB7EC46F06CC59FF5EF
:108262006DC5A0F55D50D8B439EF41F03BEF41F058
:1082720048EF41F0FBEC6FF064C534F765C535F7A4
:1082820066C536F767C537F7010E516E5D6A525003
:10829200D8A44EEF41F050EF41F056EF42F0050105
:1082A2009E519D110BE1880E9B5D130E9C59D8A027
:1082B2005DEF41F05FEF41F056EF42F0010E526E7A
:1082C20056EF42F05150D8A469EF41F06BEF41F004
:1082D20095EF41F09E519D110BE1B80E9B5D0B0E87
:1082E2009C59D8A077EF41F079EF41F07CEF41F053
:1082F2005E6A010E516E350E9F5D080EA059D8A020
:1083020085EF41F087EF41F070EF42F0010E536EBE
:10831200FBEC6FF064C534F765C535F766C536F713
:1083220067C537F770EF42F05250D8A49BEF41F087
:108332009DEF41F0B5EF41F0730E9F5D060EA0591F
:10834200D8A0A6EF41F0A8EF41F0B5EF41F0010E41
:10835200536EFBEC6FF064C534F765C535F766C53F
:1083620036F767C537F7516A5204D8A4BBEF41F01C
:10837200BDEF41F070EF42F0350E05019F5D080E32
:10838200A059D8A0C7EF41F0C9EF41F070EF42F019
:10839200010E536EFBEC6FF064C534F765C535F71B
:1083A20066C536F767C537F7516A70EF42F0576A0C
:1083B200010E5E6E5204D8A4E1EF41F0E3EF41F00A
:1083C2000BEF42F0A40E9F5D060EA059D8B0ECEF61
:1083D20041F0EEEF41F0F1EF41F0536ACBEF41F0A3
:1083E200D70E9F5D060EA059D8A0FAEF41F0FCEF20
:1083F20041F070EF42F03A0E9F5D070EA059D8B0DF
:1084020005EF42F007EF42F070EF42F0020E536EBA
:1084120089EF41F05250D8A411EF42F013EF42F02D
:1084220070EF42F0A40E9F5D060EA059D8B01CEF6B
:1084320042F01EEF42F022EF42F0010E526EEEEFDA
:1084420041F0D70E9F5D060EA059D8A02BEF42F047
:108452002DEF42F070EF42F03A0E9F5D070EA059E9
:10846200D8B036EF42F038EF42F070EF42F007EF4B
:1084720042F0010E576E350E9F5D080EA059D8A02E
:1084820045EF42F047EF42F049EF42F087EF41F00B
:10849200A40E9F5D060EA059D8B052EF42F054EFE1
:1084A20042F070EF42F0EEEF41F053500501996F48
:1084B2009A6B9A51000AD8B461EF42F070EF42F021
:1084C2009951000AD8B463EF41F0010AD8B4D8EF49
:1084D20041F0030AD8B43AEF42F070EF42F01200D2
:1084E200000E0601B46F000EB56F000EB66F000EDF
:1084F200B76F21EE9FF2100EDE6AE806FDE29F0ED4
:108502000501646F060E656F9BC666F59CC667F52E
:10851200000E696F110E686F10EC68F00601BE6BF9
:10852200BE519D6F9E6B070E9D27000E9E239F0ED0
:108532009D25D96E060E9E21DA6EB40EBE25E16E21
:10854200E26A060EE222DFC4E7F4150E06019D6F11
:10855200C60EE82EFED79D2FFCD700000601BE2BCB
:10856200030EBE65B7EF42F0B9EF42F091EF42F071
:10857200B5C664F5B4514BEC64F064C5B8F665C594
:10858200B9F6B7C664F50601B6514BEC64F064C5A2
:10859200BAF665C5BBF6580E0601B85D020EB959AA
:1085A200D8A0D6EF42F0D8EF42F0E3EF42F0470E08
:1085B200B85D050EB959D8A0E1EF42F0E3EF42F001
:1085C200E7EF42F06CEC5FF09DEF43F0BB5109E145
:1085D2003C0EBA5DD8A0F0EF42F0F2EF42F0E3EFCA
:1085E20042F0BB5109E1970EBA5DD8A0FBEF42F011
:1085F200FDEF42F0FFEF42F0E3EF42F0B40E05016F
:10860200C06F060EC16F040EC26F020E40EC6DF019
:10861200B60E0501C06F060EC16F040EC26F060EC4
:1086220040EC6DF0D00E06019D6FC90EE82EFED70C
:108632009D2FFCD700D0550E06019F6F020E05013B
:10864200796F020EE7EC6BF079C5B0F67AC5B1F638
:10865200A60E0501646F060E656FB0C666F5B1C65B
:1086620067F5000E696F020E686F10EC68F0020E7B
:108672000501796F060EE7EC6BF079C5B2F67AC5A3
:10868200B3F6A80E0501646F060E656FB2C666F5F5
:10869200B3C667F5000E696F020E686F10EC68F0E2
:1086A2009F0E0501646F060E656F0F0E666FCAECB2
:1086B20064F064C5BCF665C5BDF6BCC6AFF606017E
:1086C200BD51AE6FBF6B410E756F3E0E766F9F0E42
:1086D200BF25D96EDA6A060EDA22DF509D6F9D51F0
:1086E200776F786BC9EC6DF0100E0601BF617CEFFD
:1086F20043F07EEF43F084EF43F04E0E756F3E0E73
:10870200766FC9EC6DF00601BF2B100EBF658CEFC2
:1087120043F08EEF43F064EF43F09F0E0501646F68
:10872200060E656F000E676F000E666F000E696FB2
:10873200110E686F73EC6BF0120000C7E9F501C708
:10874200EAF502C7EBF503C7ECF5D9C5E9F5DAC5D9
:10875200EAF5DBC5EBF5DCC5ECF5810E0501DD6F55
:10876200FF0EDE6FE9C5DFF5EAC5E0F5EBC5E1F521
:10877200ECC5E2F5180EC3EF43F0D890E233E133D3
:10878200E033DF33E82EBEEF43F0DF51DD25E76F44
:10879200000EDE21E86FE8BFD8EF43F0E85109E1AF
:1087A200170EE75DD8A0D8EF43F0DAEF43F0E4EF1D
:1087B20043F0D9C5D9F5DAC5DAF5DBC5DBF5DCC599
:1087C200DCF5A8EF44F0E8BFE9EF43F0EBEF43F04C
:1087D2005CEF44F0E7C5DDF5FF0EDE6FFF0EDF6FE5
:1087E2007F0EE06F000EE16FDD67FAEF43F002EFFC
:1087F20044F0E135E133E033DF33DE33DD2FF5EFF3
:1088020043F0DEC5E3F5DFC5E4F5E0C5E5F5E1C516
:10881200E6F50501E351E915DD6FE451EA15DE6F76
:10882200E551EB15DF6FE651EC15E06FDD51DE111E
:10883200DF11E011D8A420EF44F022EF44F024EF3E
:1088420044F0DAEF43F0E9C5DDF5EAC5DEF5EBC544
:10885200DFF5ECC5E0F5200E34EF44F0D890E033BC
:10886200DF33DE33DD33E82E2FEF44F0DD51DE114E
:10887200DF11E011D8B440EF44F042EF44F04AEF88
:1088820044F0E351E927E451EA23E551EB23E651B1
:10889200EC23E31DDD6FE41DDE6FE51DDF6FE61DDA
:1088A200E06FDD51E917DE51EA17DF51EB17E051B6
:1088B200EC17A0EF44F0E9C5DDF5EAC5DEF5EBC53E
:1088C200DFF5ECC5E0F5200E6CEF44F0D890E03314
:1088D200DF33DE33DD33E82E67EF44F0DD51DE11A6
:1088E200DF11E011D8A478EF44F07AEF44F084EF7E
:1088F20044F0000EE96F000EEA6F000EEB6F000EFF
:10890200EC6FA0EF44F0D890E935DD6FEA35DE6F09
:10891200EB35DF6FEC35E06FDD51DE11DF11E01179
:10892200D8B496EF44F098EF44F0A0EF44F0000E74
:10893200E96F000EEA6F800EEB6FBF0EEC6FE9C5B8
:10894200D9F5EAC5DAF5EBC5DBF5ECC5DCF51200C5
:108952003CC768F53DC769F53EC76AF53FC76BF589
:1089620037EC63F068C562F669C563F66AC564F6FA
:108972006BC565F6A1EF45F0020EDDEC6DF0FBEC88
:108982006FF064C53CF765C53DF766C53EF767C540
:108992003FF7020E0601F46FB1EF45F06551641125
:1089A200631109E1C90E625DD8A0DAEF44F0DCEF91
:1089B20044F0B1EF45F0020EF1EC6DF0030E06014A
:1089C200F46FB1EF45F0010EE66F000E0501C46FC2
:1089D200000EC56F7A0EC66F440EC76F110EB7EC4C
:1089E20046F005016CC599F56DC59AF59B6B9C6BBC
:1089F200000E88EC49F099C5C0F59AC5C1F59BC532
:108A0200C2F59CC5C3F598EC39F0C0C5A7F5C1C540
:108A1200A8F5C2C5A9F5C3C5AAF5000E0501AB6F3D
:108A2200000EAC6F110EAD6F430EAE6F9BEC31F0CA
:108A3200A7C5C0F7A8C5C1F7A9C5C2F7AAC5C3F79C
:108A4200040E53EC3EF014C666F615C667F616C65B
:108A520068F617C669F6C0C7ABF5C1C7ACF5C2C7A1
:108A6200ADF5C3C7AEF566C6A7F567C6A8F568C675
:108A7200A9F569C6AAF59BEC31F0A7C5C0F5A8C552
:108A8200C1F5A9C5C2F5AAC5C3F5000E0501C46F9B
:108A9200000EC56F7A0EC66F440EC76F98EC39F0A0
:108AA200C0C5BCF7C1C5BDF7C2C5BEF7C3C5BFF7D8
:108AB200FCC599F5FDC59AF505019B6B9C6B000EF3
:108AC20088EC49F099C56AF69AC56BF69BC56CF6B7
:108AD2009CC56DF66AC62EF66BC62FF66CC630F6CE
