:0430000081EF18F054
:103008004E344E344E344E34400C4E34400C4E3414
:103018007F334E3447344E344E344E344E344E346F
:103028004834400C400C400C4E344E344E344E3430
:103038004E344E344E34673156304E344E34563159
:10304800B2333B344E344E34400C400C4E344E3484
:103058004E344E344E34400C4E344E343431282BDA
:1030680085334E344E344E344E344E344E344E3412
:1030780064336B339E2D6D2A400C4E344531552BED
:103088004E344E344E344E344E344E344E344E3428
:103098004E344E344E344E34400C4E34400C400CBA
:1030A8008B334E344E344E344E344E344E344E34CC
:1030B8004E344E344E34A4304E344E344E344E34A6
:1030C8004E344E344E344E344E344E344E344E34E8
:1030D8004E344E344E344E344E344E344E344E34D8
:1030E800400C4E344E344E34400C400C400C400CD6
:1030F8004E344E344E344E34FF009BEF4FF00000F8
:10310800C0C101C30302C2C60607C705C5C404CCB3
:103118000C0DCD0FCFCE0E0ACACB0BC90908C8D8E3
:103128001819D91BDBDA1A1EDEDF1FDD1D1CDC14A3
:10313800D4D515D71716D6D21213D311D1D010F073
:103148003031F133F3F23236F6F737F53534F43CF3
:10315800FCFD3DFF3F3EFEFA3A3BFB39F9F83828C3
:10316800E8E929EB2B2AEAEE2E2FEF2DEDEC2CE4E3
:103178002425E527E7E62622E2E323E12120E0A053
:103188006061A163A3A26266A6A767A56564A46C33
:10319800ACAD6DAF6F6EAEAA6A6BAB69A9A8687863
:1031A800B8B979BB7B7ABABE7E7FBF7DBDBC7CB423
:1031B8007475B577B7B67672B2B373B17170B05033
:1031C8009091519353529296565797559594549C73
:1031D8005C5D9D5F9F9E5E5A9A9B5B995958988843
:1031E8004849894B8B8A4A4E8E8F4F8D4D4C8C4463
:1031F80084854587474686824243834181804000D3
:10320800C1814001C0804101C0804100C1814001AD
:10321800C0804100C1814000C1814001C08041019E
:10322800C0804100C1814000C1814001C08041008F
:10323800C1814001C0804101C0804100C18140017D
:10324800C0804100C1814000C1814001C08041006F
:10325800C1814001C0804101C0804100C18140005E
:10326800C1814001C0804101C0804100C18140014D
:10327800C0804100C1814000C1814001C08041013E
:10328800C0804100C1814000C1814001C08041002F
:10329800C1814001C0804101C0804100C18140001E
:1032A800C1814001C0804101C0804100C18140010D
:1032B800C0804100C1814000C1814001C0804100FF
:1032C800C1814001C0804101C0804100C1814001ED
:1032D800C0804100C1814000C1814001C0804101DE
:1032E800C0804100C1814000C1814001C0804100CF
:1032F800C1814001C0804101C0804100C1814000BE
:10330800C0C101C30302C2C60607C705C5C404CCB1
:103318000C0DCD0FCFCE0E0ACACB0BC90908C8D8E1
:103328001819D91BDBDA1A1EDEDF1FDD1D1CDC14A1
:10333800D4D515D71716D6D21213D311D1D010F071
:103348003031F133F3F23236F6F737F53534F43CF1
:10335800FCFD3DFF3F3EFEFA3A3BFB39F9F83828C1
:10336800E8E929EB2B2AEAEE2E2FEF2DEDEC2CE4E1
:103378002425E527E7E62622E2E323E12120E0A051
:103388006061A163A3A26266A6A767A56564A46C31
:10339800ACAD6DAF6F6EAEAA6A6BAB69A9A8687861
:1033A800B8B979BB7B7ABABE7E7FBF7DBDBC7CB421
:1033B8007475B577B7B67672B2B373B17170B05031
:1033C8009091519353529296565797559594549C71
:1033D8005C5D9D5F9F9E5E5A9A9B5B995958988841
:1033E8004849894B8B8A4A4E8E8F4F8D4D4C8C4461
:1033F80084854587474686824243834181804000D1
:10340800C1814001C0804101C0804100C1814001AB
:10341800C0804100C1814000C1814001C08041019C
:10342800C0804100C1814000C1814001C08041008D
:10343800C1814001C0804101C0804100C18140017B
:10344800C0804100C1814000C1814001C08041006D
:10345800C1814001C0804101C0804100C18140005C
:10346800C1814001C0804101C0804100C18140014B
:10347800C0804100C1814000C1814001C08041013C
:10348800C0804100C1814000C1814001C08041002D
:10349800C1814001C0804101C0804100C18140001C
:1034A800C1814001C0804101C0804100C18140010B
:1034B800C0804100C1814000C1814001C0804100FD
:1034C800C1814001C0804101C0804100C1814001EB
:1034D800C0804100C1814000C1814001C0804101DC
:1034E800C0804100C1814000C1814001C0804100CD
:1034F800C1814001C0804101C0804100C1814000BC
:10350800C0C101C30302C2C60607C705C5C404CCAF
:103518000C0DCD0FCFCE0E0ACACB0BC90908C8D8DF
:103528001819D91BDBDA1A1EDEDF1FDD1D1CDC149F
:10353800D4D515D71716D6D21213D311D1D010F06F
:103548003031F133F3F23236F6F737F53534F43CEF
:10355800FCFD3DFF3F3EFEFA3A3BFB39F9F83828BF
:10356800E8E929EB2B2AEAEE2E2FEF2DEDEC2CE4DF
:103578002425E527E7E62622E2E323E12120E0A04F
:103588006061A163A3A26266A6A767A56564A46C2F
:10359800ACAD6DAF6F6EAEAA6A6BAB69A9A868785F
:1035A800B8B979BB7B7ABABE7E7FBF7DBDBC7CB41F
:1035B8007475B577B7B67672B2B373B17170B0502F
:1035C8009091519353529296565797559594549C6F
:1035D8005C5D9D5F9F9E5E5A9A9B5B99595898883F
:1035E8004849894B8B8A4A4E8E8F4F8D4D4C8C445F
:1035F80084854587474686824243834181804000CF
:10360800C1814001C0804101C0804100C1814001A9
:10361800C0804100C1814000C1814001C08041019A
:10362800C0804100C1814000C1814001C08041008B
:10363800C1814001C0804101C0804100C181400179
:10364800C0804100C1814000C1814001C08041006B
:10365800C1814001C0804101C0804100C18140005A
:10366800C1814001C0804101C0804100C181400149
:10367800C0804100C1814000C1814001C08041013A
:10368800C0804100C1814000C1814001C08041002B
:10369800C1814001C0804101C0804100C18140001A
:1036A800C1814001C0804101C0804100C181400109
:1036B800C0804100C1814000C1814001C0804100FB
:1036C800C1814001C0804101C0804100C1814001E9
:1036D800C0804100C1814000C1814001C0804101DA
:1036E800C0804100C1814000C1814001C0804100CB
:1036F800C1814001C0804101C0804100C1814000BA
:10370800C0C101C30302C2C60607C705C5C404CCAD
:103718000C0DCD0FCFCE0E0ACACB0BC90908C8D8DD
:103728001819D91BDBDA1A1EDEDF1FDD1D1CDC149D
:10373800D4D515D71716D6D21213D311D1D010F06D
:103748003031F133F3F23236F6F737F53534F43CED
:10375800FCFD3DFF3F3EFEFA3A3BFB39F9F83828BD
:10376800E8E929EB2B2AEAEE2E2FEF2DEDEC2CE4DD
:103778002425E527E7E62622E2E323E12120E0A04D
:103788006061A163A3A26266A6A767A56564A46C2D
:10379800ACAD6DAF6F6EAEAA6A6BAB69A9A868785D
:1037A800B8B979BB7B7ABABE7E7FBF7DBDBC7CB41D
:1037B8007475B577B7B67672B2B373B17170B0502D
:1037C8009091519353529296565797559594549C6D
:1037D8005C5D9D5F9F9E5E5A9A9B5B99595898883D
:1037E8004849894B8B8A4A4E8E8F4F8D4D4C8C445D
:1037F80084854587474686824243834181804000CD
:10380800C1814001C0804101C0804100C1814001A7
:10381800C0804100C1814000C1814001C080410198
:10382800C0804100C1814000C1814001C080410089
:10383800C1814001C0804101C0804100C181400177
:10384800C0804100C1814000C1814001C080410069
:10385800C1814001C0804101C0804100C181400058
:10386800C1814001C0804101C0804100C181400147
:10387800C0804100C1814000C1814001C080410138
:10388800C0804100C1814000C1814001C080410029
:10389800C1814001C0804101C0804100C181400018
:1038A800C1814001C0804101C0804100C181400107
:1038B800C0804100C1814000C1814001C0804100F9
:1038C800C1814001C0804101C0804100C1814001E7
:1038D800C0804100C1814000C1814001C0804101D8
:1038E800C0804100C1814000C1814001C0804100C9
:1038F800C1814001C0804101C0804100C1814000B8
:10390800C0C101C30302C2C60607C705C5C404CCAB
:103918000C0DCD0FCFCE0E0ACACB0BC90908C8D8DB
:103928001819D91BDBDA1A1EDEDF1FDD1D1CDC149B
:10393800D4D515D71716D6D21213D311D1D010F06B
:103948003031F133F3F23236F6F737F53534F43CEB
:10395800FCFD3DFF3F3EFEFA3A3BFB39F9F83828BB
:10396800E8E929EB2B2AEAEE2E2FEF2DEDEC2CE4DB
:103978002425E527E7E62622E2E323E12120E0A04B
:103988006061A163A3A26266A6A767A56564A46C2B
:10399800ACAD6DAF6F6EAEAA6A6BAB69A9A868785B
:1039A800B8B979BB7B7ABABE7E7FBF7DBDBC7CB41B
:1039B8007475B577B7B67672B2B373B17170B0502B
:1039C8009091519353529296565797559594549C6B
:1039D8005C5D9D5F9F9E5E5A9A9B5B99595898883B
:1039E8004849894B8B8A4A4E8E8F4F8D4D4C8C445B
:1039F80084854587474686824243834181804000CB
:103A0800C1814001C0804101C0804100C1814001A5
:103A1800C0804100C1814000C1814001C080410196
:103A2800C0804100C1814000C1814001C080410087
:103A3800C1814001C0804101C0804100C181400175
:103A4800C0804100C1814000C1814001C080410067
:103A5800C1814001C0804101C0804100C181400056
:103A6800C1814001C0804101C0804100C181400145
:103A7800C0804100C1814000C1814001C080410136
:103A8800C0804100C1814000C1814001C080410027
:103A9800C1814001C0804101C0804100C181400016
:103AA800C1814001C0804101C0804100C181400105
:103AB800C0804100C1814000C1814001C0804100F7
:103AC800C1814001C0804101C0804100C1814001E5
:103AD800C0804100C1814000C1814001C0804101D6
:103AE800C0804100C1814000C1814001C0804100C7
:103AF800C1814001C0804101C0804100C1814000B6
:103B0800C0C101C30302C2C60607C705C5C404CCA9
:103B18000C0DCD0FCFCE0E0ACACB0BC90908C8D8D9
:103B28001819D91BDBDA1A1EDEDF1FDD1D1CDC1499
:103B3800D4D515D71716D6D21213D311D1D010F069
:103B48003031F133F3F23236F6F737F53534F43CE9
:103B5800FCFD3DFF3F3EFEFA3A3BFB39F9F83828B9
:103B6800E8E929EB2B2AEAEE2E2FEF2DEDEC2CE4D9
:103B78002425E527E7E62622E2E323E12120E0A049
:103B88006061A163A3A26266A6A767A56564A46C29
:103B9800ACAD6DAF6F6EAEAA6A6BAB69A9A8687859
:103BA800B8B979BB7B7ABABE7E7FBF7DBDBC7CB419
:103BB8007475B577B7B67672B2B373B17170B05029
:103BC8009091519353529296565797559594549C69
:103BD8005C5D9D5F9F9E5E5A9A9B5B995958988839
:103BE8004849894B8B8A4A4E8E8F4F8D4D4C8C4459
:103BF80084854587474686824243834181804000C9
:103C0800C1814001C0804101C0804100C1814001A3
:103C1800C0804100C1814000C1814001C080410194
:103C2800C0804100C1814000C1814001C080410085
:103C3800C1814001C0804101C0804100C181400173
:103C4800C0804100C1814000C1814001C080410065
:103C5800C1814001C0804101C0804100C181400054
:103C6800C1814001C0804101C0804100C181400143
:103C7800C0804100C1814000C1814001C080410134
:103C8800C0804100C1814000C1814001C080410025
:103C9800C1814001C0804101C0804100C181400014
:103CA800C1814001C0804101C0804100C181400103
:103CB800C0804100C1814000C1814001C0804100F5
:103CC800C1814001C0804101C0804100C1814001E3
:103CD800C0804100C1814000C1814001C0804101D4
:103CE800C0804100C1814000C1814001C0804100C5
:103CF800C1814001C0804101C0804100C18140CAEA
:103D0800B20000000016C900F6C100000000E2CDB4
:103D1800000000000000000000000000000000009B
:103D2800000000000000000000000000000000008B
:103D3800000000000048CD0000000024CD0000CDA8
:103D480000DCCC0000000062C00000000010BE00D3
:103D580068BE00000000000000000000D2CA000099
:103D680000000000004348317C493A252E32667C29
:103D7800563A252E32667C503A252E32667C5057AC
:103D88004D3A25647C0A0D20004348327C493A2587
:103D98002E32667C563A252E32667C503A252E32D3
:103DA800667C50574D3A25647C0A0D200053503AE2
:103DB800252E32667C55524745313A25647C55524A
:103DC8004745323A25647C200A0D200054656D7001
:103DD8003A252E32667C0A0D200056696E3A256413
:103DE8007C200A0D200050726F3A25647C0A0D2051
:103DF80000563A2564002530325800696E66006E18
:103E0800616E00000601446B1EC645F61FC646F6E5
:103E180020C647F621C648F648BF17EF1FF015EF32
:103E28001FF02BEF1FF0010E446F45C663F546C621
:103E380064F547C665F548C666F5A8EC63F063C542
:103E480045F664C546F665C547F666C548F6000EEC
:103E580006014A6F000E496FC1C638F6C2C639F668
:103E68004451D8B43AEF1FF03CEF1FF050EF1FF069
:103E78004451D8A442EF1FF044EF1FF04AEF1FF05F
:103E8800000E2A6F2B0E296F4EEF1FF0000E2A6FBF
:103E98002D0E296F29C644F645C663F546C664F556
:103EA80047C665F548C666F51BEC50F00501630585
:103EB8006411D8A462EF1FF064EF1FF09BEF1FF0AE
:103EC80006014451D8B46BEF1FF06DEF1FF076EF89
:103ED8001FF044C664F93807D8A03907000E4A6FA6
:103EE800010E496F640E49250501636F090E06012D
:103EF8004A210501646F030E656F3E0E666F30EC54
:103F080063F00601FD0E3827FF0E39231CC677F52E
:103F18001DC678F5640E0501796F090E7A6F38C6EB
:103F28007BF539C67CF512EC59F07BEF24F045C6D9
:103F380063F546C664F547C665F548C666F51BECE5
:103F480050F0050163516411D8A4ADEF1FF0AFEF35
:103F58001FF0D2EF1FF006014451D8B4B6EF1FF09E
:103F6800B8EF1FF0C1EF1FF044C664F93807D8A0B6
:103F78003907000E4A6F010E496F640E4925050185
:103F8800636F090E06014A210501646F070E656F0C
:103F98003E0E666F30EC63F085EF1FF0000E0601F1
:103FA8004B6F000E4C6F800E4D6F3F0E4E6F000E24
:103FB800336F000E326F45C663F546C664F547C6D3
:103FC80065F548C666F5000E0501676F000E686F57
:103FD800000E696F000E6A6F66EC58F00501D8B0E4
:103FE800F8EF1FF0FAEF1FF0F4EF20F007EF20F0E2
:103FF80034C64BF635C64CF636C64DF637C64EF6C1
:104008000601324B332B4BC6BFF54CC6C0F54DC627
:10401800C1F54EC6C2F5000E0501C36F000EC46F90
:10402800200EC56F410EC66FDEEC2BF0BFC534F60F
:10403800C0C535F6C1C536F6C2C537F606013451D6
:10404800455D0501636F0601355146590501646FE9
:104058000601365147590501656F06013751485920
:104068000501666FDCEC5EF0050166BF47EF20F0E6
:1040780066516511641109E1020E635DD8A047EF2E
:1040880020F049EF20F0FCEF1FF034C600F635C6EB
:1040980001F636C602F637C603F645C604F646C626
:1040A80005F647C606F648C607F68BEC4AF0060141
:1040B800D8A061EF20F063EF20F0FCEF1FF04B5128
:1040C800455D0501636F06014C5146590501646F52
:1040D80006014D5147590501656F06014E51485972
:1040E8000501666FDCEC5EF0050166BF89EF20F024
:1040F80066516511641107E1020E635DD8B087EF60
:1041080020F089EF20F0DAEF20F04BC645F64CC6D8
:1041180046F64DC647F64EC648F6F4EF20F04BC6B5
:10412800A6F54CC6A7F54DC6A8F54EC6A9F5000ECE
:104138000501AA6F000EAB6F200EAC6F410EAD6F7C
:10414800DCEC35F0A6C54BF6A7C54CF6A8C54DF670
:10415800A9C54EF606013207D8A033074B51455D75
:104168000501636F06014C5146590501646F06014C
:104178004D5147590501656F06014E5148590501D2
:10418800666FDCEC5EF0050166BFD8EF20F0665183
:104198006511641107E1020E635DD8B0D6EF20F017
:1041A800D8EF20F0DAEF20F089EF20F045C600F6CE
:1041B80046C601F647C602F648C603F64BC604F6DD
:1041C8004CC605F64DC606F64EC607F68BEC4AF009
:1041D8000601D8A0F2EF20F0F4EF20F093EF20F0E2
:1041E80022C62CF62CC62DF60601C4BFFEEF20F021
:1041F80000EF21F006EF21F0C3C625F6C4C626F667
:104208000AEF21F0000E266F060E256F25C630F640
:1042180026C631F6304B312B660E2D19D8A417EF70
:1042280021F019EF21F039EF21F033BF20EF21F011
:104238001EEF21F02CEF21F0000E4B6F000E4C6F9B
:10424800800E4D6F3F0E4E6F000E336F000E326FB3
:10425800670E2C19D8B433EF21F035EF21F039EF80
:1042680021F03251302733513123000E436F000EB5
:10427800426F45C63AF646C63BF647C63CF648C6C0
:104288003DF64BC634F64CC635F64DC636F64EC628
:1042980037F6CBEF21F03AC6A6F53BC6A7F53CC6E4
:1042A800A8F53DC6A9F54BC6AAF54CC6ABF54DC653
:1042B800ACF54EC6ADF5DCEC35F0A6C5BFF5A7C527
:1042C800C0F5A8C5C1F5A9C5C2F5F4EC40F0BFC555
:1042D8003EF6C0C53FF6C1C540F6C2C541F63EC66A
:1042E80018F63FC619F640C61AF641C61BF688EC02
:1042F8004EF018C62EF619C62FF63AC6D8F53BC6A4
:10430800D9F53CC6DAF53DC6DBF53EC6C3F53FC672
:10431800C4F540C6C5F541C6C6F54BC6BFF54CC683
:10432800C0F54DC6C1F54EC6C2F5DEEC2BF0BFC5D3
:10433800DCF5C0C5DDF5C1C5DEF5C2C5DFF5B7ECF6
:1043480061F0D8C53AF6D9C53BF6DAC53CF6DBC507
:104358003DF64BC6A6F54CC6A7F54DC6A8F54EC604
:10436800A9F5000E0501AA6F000EAB6F200EAC6F09
:10437800410EAD6FDCEC35F0A6C54BF6A7C54CF683
:10438800A8C54DF6A9C54EF60601424B432B305140
:10439800425D4351800A0501FB6F06013151800AD5
:1043A8000501FB59D8A0DBEF21F0DDEF21F04FEF3D
:1043B80021F04BC6BFF54CC6C0F54DC6C1F54EC67B
:1043C800C2F5000EC36F000EC46FA00EC56F400E7D
:1043D800C66FDEEC2BF0BFC53EF6C0C53FF6C1C5C3
:1043E80040F6C2C541F63AC600F63BC601F63CC6E1
:1043F80002F63DC603F63EC604F63FC605F640C6BD
:1044080006F641C607F68BEC4AF00601D8B00FEF66
:1044180022F011EF22F01BEF22F0000E3E6F000E8B
:104428003F6F000E406F000E416F45EF22F03AC615
:1044380063F53BC664F53CC665F53DC666F53EC604
:1044480067F53FC668F540C669F541C66AF566EC8A
:1044580058F00501D8A033EF22F035EF22F045EFF0
:1044680022F006012EB13BEF22F03DEF22F045EF9E
:1044780022F0000E3E6F000E3F6F000E406F000EE0
:10448800416F45C663F546C664F547C665F548C637
:1044980066F53EC667F53FC668F540C669F541C68C
:1044A8006AF582EC29F063C53AF664C53BF665C542
:1044B8003CF666C53DF63AC600F63BC601F63CC674
:1044C80002F63DC603F6000E0501C36F000EC46F69
:1044D800200EC56F410EC66F34C6BFF535C6C0F590
:1044E80036C6C1F537C6C2F5DEEC2BF0BFC504F6FB
:1044F800C0C505F6C1C506F6C2C507F68BEC4AF07D
:104508000601D8A08AEF22F08CEF22F0B5EF22F056
:10451800324B332B34C6BFF535C6C0F536C6C1F5A8
:1045280037C6C2F5000E0501C36F000EC46F200E1A
:10453800C56F410EC66FDEEC2BF0BFC534F6C0C5A3
:1045480035F6C1C536F6C2C537F6660E06012D1911
:10455800D8A4B1EF22F0B3EF22F0B5EF22F0304B40
:10456800312B34C64BF635C64CF636C64DF637C633
:104578004EF632C623F633C624F62B6B000E286F90
:10458800000E276F000E436F000E426FB2EF23F04C
:104598003AC6A6F53BC6A7F53CC6A8F53DC6A9F59B
:1045A8004BC6AAF54CC6ABF54DC6ACF54EC6ADF537
:1045B800DCEC35F0A6C5BFF5A7C5C0F5A8C5C1F5A3
:1045C800A9C5C2F5F4EC40F0BFC53EF6C0C53FF63C
:1045D800C1C540F6C2C541F63EC618F63FC619F633
:1045E80040C61AF641C61BF688EC4EF0060119BF04
:1045F80009EF23F0195107E10A0E185DD8B007EF4B
:1046080023F009EF23F019EF23F03EC618F63FC652
:1046180019F640C61AF641C61BF688EC4EF018C6C5
:104628002EF619C62FF61DEF23F0000E2F6F090E78
:104638002E6F06012B51D8A424EF23F026EF23F088
:104648004EEF23F024BF2DEF23F02BEF23F04EEF96
:1046580023F0640E4925D96E090E4A21DA6E2E0E12
:10466800DF6E494B4A2B3807D8A03907010E2B6F4C
:104678004EEF23F0640E4925D96E090E4A21DA6EF1
:10468800300EDF6E494B4A2B3807D8A03907270769
:10469800D8A0280727512811D8A455EF23F057EFA1
:1046A80023F03EEF23F0640E4925D96E090E4A2106
:1046B800DA6E2E51300FDF6E494B4A2B3807D8A0DF
:1046C80039073AC6D8F53BC6D9F53CC6DAF53DC632
:1046D800DBF53EC6C3F53FC6C4F540C6C5F541C6C1
:1046E800C6F54BC6BFF54CC6C0F54DC6C1F54EC69E
:1046F800C2F5DEEC2BF0BFC5DCF5C0C5DDF5C1C5E4
:10470800DEF5C2C5DFF5B7EC61F0D8C53AF6D9C514
:104718003BF6DAC53CF6DBC53DF64BC6A6F54CC6FE
:10472800A7F54DC6A8F54EC6A9F5000E0501AA6F56
:10473800000EAB6F200EAC6F410EAD6FDCEC35F0A8
:10474800A6C54BF6A7C54CF6A8C54DF6A9C54EF6A5
:1047580006012307D8A02407424B432B3051425D62
:104768004351800A0501FB6F06013151800A05019A
:10477800FB59D8B0C2EF23F0C4EF23F0D3EF23F0F6
:1047880006014ABFD1EF23F04A5109E14B0E495DBA
:10479800D8A0D1EF23F0D3EF23F0CCEF22F0000E16
:1047A8000601436F4F0E426F640E4225D96E090E03
:1047B8004321DA6EDF6A640E0501FB6F090EFC6F98
:1047C800060149510501FB5F06014A510501FC5BE1
:1047D800060142510501FB25636F0601435105019E
:1047E800FC21646F640E656F090E666F49C667F534
:1047F8004AC668F5B6EC5FF006014951425D496F5B
:104808004A5143594A6F4451D8A40DEF24F010EF90
:1048180024F0010E11EF24F0000E426F436BDDA36C
:1048280018EF24F01AEF24F050EF24F02BEF24F0C7
:1048380006014907D8A04A07640E4925D96E090E12
:104848004A21DA6E300EDF6E3807D8A039073851A2
:10485800425D4351800A0501FB6F06013951800A08
:104868000501FB59D8B03BEF24F03DEF24F050EFA1
:1048780024F006014951425D4351800A0501FB6F4E
:1048880006014A51800A0501FB59D8A04EEF24F0D1
:1048980050EF24F01CEF24F006014451D8B457EF30
:1048A80024F059EF24F064EF24F04907D8A04A0710
:1048B800640E4925D96E090E4A21DA6E44C6DFF422
:1048C8004251385F4351395B1CC677F51DC678F5F0
:1048D800640E49250501796F090E06014A21050173
:1048E8007A6F38C67BF539C67CF512EC59F01200A0
:1048F8001EC6D8F51FC6D9F520C6DAF521C6DBF5E0
:1049080022C6DCF523C6DDF524C6DEF525C6DFF5AF
:10491800B7EC61F0D8C546F6D9C547F6DAC548F60A
:10492800DBC549F646C6E0F547C6E1F548C6E2F5F7
:1049380049C6E3F570EC64F0E0C54EF6E1C54FF604
:10494800E2C550F6E3C551F6060120EE05F01C510C
:10495800D9261D51DA22DEC44AF6DEC44BF6DEC47F
:104968004CF6DEC44DF6000E006F000E016F480EC7
:10497800026F420E036F4EC604F64FC605F650C6C8
:1049880006F651C607F68BEC4AF00601D8B0CFEF11
:1049980024F0D1EF24F0EEEF24F04AC6BFF54BC661
:1049A800C0F54CC6C1F54DC6C2F5CD0E0501C36FA5
:1049B800CC0EC46FCC0EC56F3D0EC66FDEEC2BF06F
:1049C800BFC54AF6C0C54BF6C1C54CF6C2C54DF6C3
:1049D8005AEF25F0000E006F000E016FA00E026F57
:1049E800410E036F4EC604F64FC605F650C606F6CE
:1049F80051C607F68BEC4AF00601D8B006EF25F051
:104A080008EF25F025EF25F04AC6BFF54BC6C0F5DF
:104A18004CC6C1F54DC6C2F59A0E0501C36F990E75
:104A2800C46F990EC56F3E0EC66FDEEC2BF0BFC586
:104A38004AF6C0C54BF6C1C54CF6C2C54DF65AEF8D
:104A480025F04EC600F64FC601F650C602F651C60E
:104A580003F6000E046F000E056FA00E066F400EE1
:104A6800076F8BEC4AF00601D8B03DEF25F03FEF19
:104A780025F05AEF25F04AC6BFF54BC6C0F54CC61F
:104A8800C1F54DC6C2F5000E0501C36F000EC46F17
:104A9800000EC56F400EC66FDEEC2BF0BFC54AF6A0
:104AA800C0C54BF6C1C54CF6C2C54DF6060120EE91
:104AB80001F01C51D9261D51DA22DEC4BFF5DEC42F
:104AC800C0F5DEC4C1F5DEC4C2F546C6C3F547C6A7
:104AD800C4F548C6C5F549C6C6F5DEEC2BF0BFC51A
:104AE80026F6C0C527F6C1C528F6C2C529F64EC6A2
:104AF80000F64FC601F650C602F651C603F6000E80
:104B08000601046F000E056F480E066F420E076F10
:104B18008BEC4AF00601D8B094EF25F096EF25F01B
:104B280075EF27F046C652F647C653F648C654F600
:104B380049C655F6000E006F000E016FF00E026FA9
:104B4800410E036F4EC604F64FC605F650C606F66C
:104B580051C607F68BEC4AF00601D8B0B6EF25F03F
:104B6800B8EF25F0FEEF25F0000E006F000E016F84
:104B7800200E026F420E036F52C604F653C605F6A6
:104B880054C606F655C607F68BEC4AF00601D8B0AF
:104B9800D0EF25F0D2EF25F0DAEF25F0000E526FB6
:104BA800000E536F200E546F420E556F52C600F61A
:104BB80053C601F654C602F655C603F6000E046F36
:104BC800000E056F200E066FC20E076F8BEC4AF0C1
:104BD8000601D8B0F2EF25F0F4EF25F0D1EF26F07A
:104BE800000E526F000E536F200E546FC20E556F99
:104BF800D1EF26F0000E006F000E016F200E026F3D
:104C0800410E036F4EC604F64FC605F650C606F6AB
:104C180051C607F68BEC4AF00601D8B016EF26F01D
:104C280018EF26F08DEF26F04EC6BFF54FC6C0F53B
:104C380050C6C1F551C6C2F5CD0E0501C36FCC0EE5
:104C4800C46F4C0EC56F3F0EC66FDEEC2BF0BFC5B0
:104C58003EF6C0C53FF6C1C540F6C2C541F63EC6E0
:104C680000F63FC601F640C602F641C603F652C634
:104C780004F653C605F654C606F655C607F68BEC79
:104C88004AF00601D8B04BEF26F04DEF26F055EF6D
:104C980026F03EC652F63FC653F640C654F641C605
:104CA80055F652C600F653C601F654C602F655C666
:104CB80003F63EC663F53FC664F540C665F541C6D2
:104CC80066F5A8EC63F063C504F664C505F665C52A
:104CD80006F666C507F68BEC4AF00601D8B077EF02
:104CE80026F079EF26F0D1EF26F03EC663F53FC6F1
:104CF80064F540C665F541C666F5A8EC63F063C582
:104D080052F664C553F665C554F666C555F6D1EF37
:104D180026F0000E006F000E016FA00E026F400E0D
:104D2800036F52C604F653C605F654C606F655C6B2
:104D380007F68BEC4AF00601D8B0A5EF26F0A7EFEE
:104D480026F0AFEF26F0000E526F000E536FA00E44
:104D5800546F400E556F52C600F653C601F654C63E
:104D680002F655C603F6000E046F000E056FA00E7E
:104D7800066FC00E076F8BEC4AF00601D8B0C7EF7C
:104D880026F0C9EF26F0D1EF26F0000E526F000E84
:104D9800536FA00E546FC00E556F52C6BFF553C661
:104DA800C0F554C6C1F555C6C2F5060120EE05F09A
:104DB8001C51D9261D51DA22DEC4AAF5DEC4ABF592
:104DC800DEC4ACF5DEC4ADF54AC6A6F54BC6A7F5FC
:104DD8004CC6A8F54DC6A9F5DCEC35F0A6C5C3F55B
:104DE800A7C5C4F5A8C5C5F5A9C5C6F5DEEC2BF061
:104DF800BFC552F6C0C553F6C1C554F6C2C555F66F
:104E0800060120EE1DF01C51D9261D51DA22DEC400
:104E180063F5DEC464F5DEC465F5DEC466F552C626
:104E280067F553C668F554C669F555C66AF582EC48
:104E380029F0060120EE1DF01C51D9261D51DA2259
:104E4800050163C5DEF464C5DEF465C5DEF466C538
:104E5800DEF4060120EE11F01C51D9261D51DA228C
:104E6800DEC410F6DEC411F6DEC412F6DEC413F694
:104E780020EE1DF01C51D9261D51DA22DEC408F699
:104E8800DEC409F6DEC40AF6DEC40BF620EE0DF029
:104E98001C51D9261D51DA22DEC40CF6DEC40DF6EB
:104EA800DEC40EF6DEC40FF620EC4BF008C614F68E
:104EB80009C615F60AC616F60BC617F6B4EC4BF07B
:104EC800060120EE1DF01C51D9261D51DA2210C60C
:104ED800DEF411C6DEF412C6DEF413C6DEF483EF88
:104EE80027F020EE1DF01C51D9261D51DA22000EA4
:104EF800DE6E000EDE6E000EDE6E000EDD6E20EE43
:104F08001DF01C51D9261D51DA22DEC4BFF5DEC4BE
:104F1800C0F5DEC4C1F5DEC4C2F54AC6C3F54BC64A
:104F2800C4F54CC6C5F54DC6C6F5DEEC2BF0BFC5BD
:104F38002AF6C0C52BF6C1C52CF6C2C52DF606014A
:104F480020EE21F01C51D9261D51DA22DEC4DCF5F1
:104F5800DEC4DDF5DEC4DEF5DEC4DFF546C6D8F511
:104F680047C6D9F548C6DAF549C6DBF5B7EC61F0AE
:104F7800D8C5BFF5D9C5C0F5DAC5C1F5DBC5C2F5D9
:104F8800060120EE09F01C51D9261D51DA22DEC493
:104F9800C3F5DEC4C4F5DEC4C5F5DEC4C6F5DEEC73
:104FA8002BF0BFC53AF6C0C53BF6C1C53CF6C2C535
:104FB8003DF6330E0501C36F330EC46F330EC56F54
:104FC8003F0EC66F3AC6BFF53BC6C0F53CC6C1F535
:104FD8003DC6C2F5DEEC2BF0BFC563F5C0C564F570
:104FE800C1C565F5C2C566F59A0E0501C36F990E70
:104FF800C46F990EC56F3E0EC66F10C7BFF511C7B7
:10500800C0F512C7C1F513C7C2F5DEEC2BF0BFC55A
:1050180067F5C0C568F5C1C569F5C2C56AF582EC12
:1050280029F063C53AF664C53BF665C53CF666C526
:105038003DF63AC610F73BC611F73CC612F73DC617
:1050480013F7060120EE21F01C51D9261D51DA2252
:1050580046C6DEF447C6DEF448C6DEF449C6DEF4CA
:105068002AC667F52BC668F52CC669F52DC66AF5FC
:1050780026C663F527C664F528C665F529C666F50C
:1050880082EC29F063C52EF664C52FF665C530F6A7
:1050980066C531F62EC663F52FC664F530C665F5CC
:1050A80031C666F53AC667F53BC668F53CC669F58C
:1050B8003DC66AF582EC29F063C542F664C543F63D
:1050C80065C544F666C545F61CC6D9F41DC6DAF4AE
:1050D800DE04D8A472EF28F074EF28F0F5EF28F07A
:1050E800060145BF7CEF28F07AEF28F086EF28F01C
:1050F800000E326F000E336F000E346FBF0E356F27
:105108008EEF28F0000E326F000E336F000E346FF2
:105118003F0E356F42C667F543C668F544C669F564
:1051280045C66AF532C663F533C664F534C665F517
:1051380035C666F582EC29F063C518F664C519F61C
:1051480065C51AF666C51BF688EC4EF006011851BF
:10515800CB271951CC23000E0C6F000E0D6F480E93
:105168000E6F450E0F6FCBC698F5CCC699F50501A5
:10517800000E99BFFF0E9A6F9B6F010EE2EC44F090
:1051880098C508F699C509F69AC50AF69BC50BF69F
:1051980020EC4BF008C614F609C615F60AC616F632
:1051A8000BC617F6000E0601106F000E116F000EE9
:1051B800126F000E136FB4EC4BF010C618F611C640
:1051C80019F612C61AF613C61BF688EC4EF018C666
:1051D800CBF619C6CCF6CBC61CF6CCC61DF681EFAD
:1051E80029F01CC6D9F41DC6DAF4020EDE18D8A4BC
:1051F80000EF29F002EF29F081EF29F0060145BF01
:105208000AEF29F008EF29F014EF29F0000E366FA5
:10521800000E376F000E386FBF0E396F1CEF29F084
:10522800000E366F000E376F000E386F3F0E396F65
:1052380042C667F543C668F544C669F545C66AF5CA
:1052480036C663F537C664F538C665F539C666F5FA
:1052580082EC29F063C518F664C519F665C51AF617
:1052680066C51BF688EC4EF006011851C92719517E
:10527800CA23000E0C6F000E0D6F480E0E6F450E00
:105288000F6FC9C698F5CAC699F50501000E99BFF2
:10529800FF0E9A6F9B6F010EE2EC44F098C508F67A
:1052A80099C509F69AC50AF69BC50BF620EC4BF092
:1052B80008C614F609C615F60AC616F60BC617F67A
:1052C800000E0601106F000E116F000E126F000E17
:1052D800136FB4EC4BF010C618F611C619F612C6C7
:1052E8001AF613C61BF688EC4EF018C6C9F619C68E
:1052F800CAF6C9C61CF6CAC61DF6120005016651D3
:10530800800B6F6F66516625716F65AF8EEF29F060
:1053180090EF29F091EF29F071817151D8B497EF8E
:1053280029F099EF29F0ADEF29F07129D8A49FEF62
:1053380029F0A1EF29F0A9EF29F0000E636F000E04
:10534800646F000E656F000E666F658F666BB5EF54
:1053580029F0000E636F000E646F000E656F000E7B
:10536800666F6A51800B706F6F517019D8B4BFEFB8
:1053780029F0C1EF29F0C2EF29F06F8D6A516A2533
:10538800706F69AFCAEF29F0CCEF29F0CDEF29F0A3
:1053980070817051D8B4D3EF29F0D5EF29F0E9EF37
:1053A80029F07029D8A4DBEF29F0DDEF29F0E5EF2B
:1053B80029F0000E676F000E686F000E696F000E0F
:1053C8006A6F698F6A6BF1EF29F0000E676F000E44
:1053D800686F000E696F000E6A6F7151705DD8B00A
:1053E800F8EF29F0FAEF29F021EF2AF06FADFFEF7F
:1053F80029F001EF2AF003EF2AF0800E6F1B71C528
:1054080072F570C571F572C570F563C572F567C53B
:1054180063F572C567F564C572F568C564F572C54C
:1054280068F565C572F569C565F572C569F566C53E
:1054380072F56AC566F572C56AF5726B715170C509
:105448006BF56C6B6B5F000E6C5B6CBF35EF2AF015
:105458006C5109E11A0E6B5DD8A035EF2AF037EFD1
:105468002AF06EEF2AF06351641165116611D8A411
:1054780040EF2AF043EF2AF0010E44EF2AF0000E25
:10548800726F000E636F000E646F000E656F000E82
:10549800666F70C571F577EF2AF072A156EF2AF0A2
:1054A80058EF2AF05EEF2AF0D89072310109726F36
:1054B80060EF2AF0D890723363A165EF2AF067EFA6
:1054C8002AF068EF2AF0728F6635663365336433E5
:1054D8006333712B7051715DD8A075EF2AF077EFA7
:1054E8002AF051EF2AF06FBD7CEF2AF07EEF2AF008
:1054F800BEEF2AF07151D8A484EF2AF086EF2AF083
:1055080090EF2AF0000E636F000E646F000E656F57
:10551800000E666FDDEF2BF0675163276851642337
:10552800695165236A51662366A19DEF2AF09FEFB2
:105538002AF04BEF2BF072A1A4EF2AF0A6EF2AF085
:10554800ACEF2AF0D89072310109726FAEEF2AF0F1
:10555800D890723363A1B3EF2AF0B5EF2AF0B6EF13
:105568002AF0728F66356633653364336333712B83
:105578004BEF2BF06751635D685164596951655968
:105588006651800A6B6F6A51800A6B59D8B0CFEFA9
:105598002AF0D1EF2AF0FCEF2AF06351675D6B6FB8
:1055A800645168596C6F655169596D6F66516A59D4
:1055B8006E6FFF0E6B25636FFF0E6C21646FFF0E1D
:1055C8006D21656FFF0E6E21666F800E6F1B726D09
:1055D8007251D8A4F2EF2AF0F4EF2AF004EF2BF07E
:1055E800010E6327000E64236523662304EF2BF066
:1055F8006751635F6851645B6951655B6A51665BBB
:105608006351641165116611D8A40DEF2BF00FEFEB
:105618002BF044EF2BF07251D8A415EF2BF017EFB5
:105628002BF044EF2BF0000E636F000E646F000E3A
:10563800656F000E666FDDEF2BF0D8906337643727
:105648006537663772AF2BEF2BF02DEF2BF02EEF6F
:105658002BF0638172A133EF2BF035EF2BF039EF8C
:105668002BF0D88072373BEF2BF0D89072377151FE
:10567800D8B441EF2BF043EF2BF044EF2BF0710738
:1056880065AF49EF2BF04BEF2BF021EF2BF0706B50
:1056980072AF51EF2BF053EF2BF06BEF2BF072C57D
:1056A8006BF57F0E6B17D8B45CEF2BF05EEF2BF029
:1056B80062EF2BF0010E706F6BEF2BF063A167EFB9
:1056C8002BF069EF2BF06BEF2BF05EEF2BF07051A6
:1056D800D8B471EF2BF073EF2BF09EEF2BF0010E87
:1056E8006327000E64236523662366A17EEF2BF0F3
:1056F80080EF2BF09EEF2BF063C56BF564C56CF55E
:1057080065C56DF566C56EF56E356E336D336C33F4
:105718006B336BC563F56CC564F56DC565F56EC512
:1057280066F57129D8B49BEF2BF09DEF2BF09EEF17
:105738002BF0712B7129D8B4A4EF2BF0A6EF2BF026
:10574800AEEF2BF07151D8A4ACEF2BF0AEEF2BF0ED
:10575800BFEF2BF0000E636F000E646F000E656FD5
:10576800000E666F7151D8A4BCEF2BF0BEEF2BF082
:10577800BFEF2BF06F6B71A1C4EF2BF0C6EF2BF0CE
:10578800C9EF2BF0658FCAEF2BF0659FD890713168
:10579800666F6FAFD2EF2BF0D4EF2BF0D5EF2BF075
:1057A800668F63C563F564C564F565C565F566C54B
:1057B80066F512000501C251800BCB6FC251C2259C
:1057C800D16FC1AFEAEF2BF0ECEF2BF0EDEF2BF040
:1057D800D181D151D8B4F3EF2BF0F5EF2BF008EFCE
:1057E8002CF0D129D8A4FBEF2BF0FDEF2BF005EF1F
:1057F8002CF0000EBF6F000EC06F000EC16F000EC0
:10580800C26FC18F10EF2CF0000EBF6F000EC06F7B
:10581800000EC16F000EC26FC651800BCB1BC65164
:10582800C625CC6FC5AF1BEF2CF01DEF2CF01EEF7B
:105838002CF0CC81CC51D8B424EF2CF026EF2CF0EE
:1058480039EF2CF0CC29D8A42CEF2CF02EEF2CF02B
:1058580036EF2CF0000EC36F000EC46F000EC56F3C
:10586800000EC66FC58F41EF2CF0000EC36F000EFF
:10587800C46F000EC56F000EC66FCC51D8B447EF89
:105888002CF049EF2CF051EF2CF0D151D8A44FEF68
:105898002CF051EF2CF05BEF2CF0000EBF6F000ED8
:1058A800C06F000EC16F000EC26FF1EF2DF0C55131
:1058B800BF03F3C4D6F5F4C4D7F5D651CD6FCE6B7C
:1058C800CF6BD06BD751D26FD36BD46BD56BC45120
:1058D800C003F3C4D6F5F4C4D7F5D651CD27000ECE
:1058E800CE23CF23D023D751D227000ED323D423BE
:1058F800D523C351C103F3C4D6F5F4C4D7F5D651A3
:10590800CD27000ECE23CF23D023D751D227000E88
:10591800D323D423D523CFC5D0F5CEC5CFF5CDC558
:10592800CEF5CD6BC351C003F3C4D6F5F4C4D7F597
:10593800D651CD27D751CE23000ECF23000ED0232A
:10594800C451BF03F3C4D6F5F4C4D7F5D651CD2757
:10595800D751CE23000ECF23000ED023CFC5D0F5CC
:10596800CEC5CFF5CDC5CEF5CD6BC351BF03F3C4BE
:10597800D6F5F4C4D7F5D651CD27D751CE23000E8E
:10598800CF23000ED023C551C003F3C4D6F5F4C409
:10599800D7F5D651D227D751D323000ED423000EE2
:1059A800D523C451C103F3C4D6F5F4C4D7F5D651F1
:1059B800D227D751D323000ED423000ED523C551A7
:1059C800C103F3C4D6F5F4C4D7F5D651C76FD75180
:1059D800C86FC96BCA6BC9C5CAF5C8C5C9F5C7C5FB
:1059E800C8F5C76BC751D227C851D323C951D4238F
:1059F800CA51D523CDC5C7F5CEC5C8F5CFC5C9F59C
:105A0800D0C5CAF5190E0EEF2DF0D890CA33C93398
:105A1800C833C733E82E09EF2DF0C751D227C85134
:105A2800D323C951D423CA51D523CFC5D0F5CEC568
:105A3800CFF5CDC5CEF5CD6BCC51D1C5C7F5C86B6B
:105A4800C727000EC823820EC725D66FFF0EC821B0
:105A5800D76F44EF2DF0D890D237D337D437D53716
:105A6800D0AF39EF2DF03BEF2DF03CEF2DF0D28188
:105A7800D890CD37CE37CF37D037D607D8A0D7076D
:105A8800D4AF49EF2DF04BEF2DF02FEF2DF0CC6B6D
:105A9800D0AF51EF2DF053EF2DF077EF2DF0FF0E33
:105AA800CD15C76FFF0ECE15C86FFF0ECF15C96F86
:105AB8007F0ED015CA6FC751C811C911CA11D8B401
:105AC80068EF2DF06AEF2DF06EEF2DF0010ECC6F20
:105AD80077EF2DF0D2A173EF2DF075EF2DF077EF62
:105AE8002DF06AEF2DF0CC51D8B47DEF2DF07FEF7B
:105AF8002DF0A3EF2DF0010ED227000ED323D423CF
:105B0800D523D5A18AEF2DF08CEF2DF0A3EF2DF042
:105B1800D2C5C7F5D3C5C8F5D4C5C9F5D5C5CAF525
:105B2800CA35CA33C933C833C733C7C5D2F5C8C5A0
:105B3800D3F5C9C5D4F5CAC5D5F5D64BD72BD7BF2C
:105B4800AEEF2DF0D75108E1D629D8A0AEEF2DF051
:105B5800B0EF2DF0BAEF2DF0000ED26F000ED36F1C
:105B6800800ED46F7F0ED56FE7EF2DF0D7BFC7EF4C
:105B78002DF0D75106E1D605D8B0C5EF2DF0C7EF07
:105B88002DF0D2EF2DF0000ED26F000ED36F000E65
:105B9800D46F000ED56FCB6BE7EF2DF0D6C5D1F5DE
:105BA800FF0ED217FF0ED3177F0ED417000ED5178E
:105BB800D1A1E1EF2DF0E3EF2DF0E4EF2DF0D48F3C
:105BC800D890D131D56FCB51D513D2C5BFF5D3C538
:105BD800C0F5D4C5C1F5D5C5C2F5120006011E6FC2
:105BE8001C0E06011E19D8A4FCEF2DF0FEEF2DF0B7
:105BF80005EF2FF0000E0501C36F000EC46F110EE4
:105C0800C56F430EC66F000EAA6F000EAB6F7A0EFB
:105C1800AC6F440EAD6F1C0E08EC43F005016BC56C
:105C280098F56CC599F59A6B9B6B000EE2EC44F005
:105C380098C5A6F599C5A7F59AC5A8F59BC5A9F570
:105C4800DCEC35F0A6C5BFF5A7C5C0F5A8C5C1F5FC
:105C5800A9C5C2F5DEEC2BF0BFC518F6C0C519F60C
:105C6800C1C51AF6C2C51BF688EC4EF018C6C7F6B1
:105C780019C6C8F6160ED3EC3FF0D8C51FF6D9C51D
:105C880020F6DAC521F6DBC522F6000E0501AA6F5B
:105C9800000EAB6F7A0EAC6F440EAD6FC7C698F5A9
:105CA800C8C699F59A6B9B6B000EE2EC44F098C558
:105CB800C3F599C5C4F59AC5C5F59BC5C6F51FC6F4
:105CC800BFF520C6C0F521C6C1F522C6C2F5DEEC77
:105CD8002BF0BFC5A6F5C0C5A7F5C1C5A8F5C2C5B7
:105CE800A9F5DCEC35F0A6C518F6A7C519F6A8C5C0
:105CF8001AF6A9C51BF688EC4EF018C6A6F719C601
:105D0800A7F7260E0601C75D020EC859D8B08FEF57
:105D18002EF091EF2EF09CEF2EF0C85107E1970E70
:105D2800C75DD8B09AEF2EF09CEF2EF0A4EF2EF0BE
:105D3800010EF06F000E1D6F010E1C6F02EF30F0A8
:105D4800C85107E11F0EC75DD8B0ADEF2EF0AFEF19
:105D58002EF0B7EF2EF0020EF06F000E1D6F020E40
:105D68001C6F02EF30F0CD0E0501C36FCC0EC46F6F
:105D78008C0EC56F3F0EC66FDBC698F5DCC699F56D
:105D88009A6B9B6B000EE2EC44F098C5BFF599C581
:105D9800C0F59AC5C1F59BC5C2F5DEEC2BF0BFC5B1
:105DA80000F6C0C501F6C1C502F6C2C503F6A6C70E
:105DB80098F5A7C799F505019A6B9B6B000EE2EC65
:105DC80044F098C504F699C505F69AC506F69BC52C
:105DD80007F68BEC4AF00601D8B0F5EF2EF0F7EF96
:105DE8002EF0FFEF2EF0030EF06F000E1D6F020E67
:105DF8001C6F02EF30F0000E1D6F000E1C6F02EFDB
:105E080030F0110E1E19D8A40CEF2FF00EEF2FF062
:105E1800FFEF2EF0000E0501C36F000EC46F920E47
:105E2800C56F420EC66F000EAA6F000EAB6F7A0EDA
:105E3800AC6F440EAD6F110E08EC43F005016BC555
:105E480098F56CC599F59A6B9B6B000EE2EC44F0E3
:105E580098C5A6F599C5A7F59AC5A8F59BC5A9F54E
:105E6800DCEC35F0A6C5BFF5A7C5C0F5A8C5C1F5DA
:105E7800A9C5C2F5DEEC2BF0BFC518F6C0C519F6EA
:105E8800C1C51AF6C2C51BF688EC4EF018C6C5F691
:105E980019C6C6F6040ED3EC3FF0D8C51FF6D9C50F
:105EA80020F6DAC521F6DBC522F6000E0501AA6F39
:105EB800000EAB6F7A0EAC6F440EAD6FC5C698F589
:105EC800C6C699F59A6B9B6B000EE2EC44F098C538
:105ED800C3F599C5C4F59AC5C5F59BC5C6F51FC6D2
:105EE800BFF520C6C0F521C6C1F522C6C2F5DEEC55
:105EF8002BF0BFC5A6F5C0C5A7F5C1C5A8F5C2C595
:105F0800A9F5DCEC35F0A6C518F6A7C519F6A8C59D
:105F18001AF6A9C51BF688EC4EF018C6A4F719C6E0
:105F2800A5F72C0E0601C55D010EC659D8A09FEF36
:105F38002FF0A1EF2FF0A9EF2FF0040EF06F000E55
:105F48001D6F010E1C6F02EF30F0C65107E1150EF0
:105F5800C55DD8B0B2EF2FF0B4EF2FF0BCEF2FF043
:105F6800050EF06F000E1D6F020E1C6F02EF30F071
:105F7800CD0E0501C36FCC0EC46F8C0EC56F3F0EDE
:105F8800C66FD9C698F5DAC699F59A6B9B6B000E61
:105F9800E2EC44F098C5BFF599C5C0F59AC5C1F5BE
:105FA8009BC5C2F5DEEC2BF0BFC500F6C0C501F6F7
:105FB800C1C502F6C2C503F6A4C798F5A5C799F5E9
:105FC80005019A6B9B6B000EE2EC44F098C504F651
:105FD80099C505F69AC506F69BC507F68BEC4AF0F7
:105FE8000601D8B0FAEF2FF0FCEF2FF0FFEF2EF0FC
:105FF800060EF06F000E1D6F020E1C6F120051C6C8
:10600800D9F452C6DAF4DEC4F6F4DDC4F7F4000EAF
:10601800F86E0800F550250AD8A415EF30F017EFF0
:1060280030F0FBEF31F051C6D9F452C6DAF4DE2A6B
:10603800000EDD22000E0601C26F000EC16FC1C640
:10604800DDF6C369C469576B4AEF30F0DD8351C68A
:10605800D9F452C6DAF4DE2A000EDD224AEF30F017
:10606800010E576F4AEF30F051C6D9F452C6DAF430
:10607800DEC4F6F4DDC4F7F4000EF86E0800F5503F
:10608800300AD8B42AEF30F034EF30F05751D8B492
:1060980050EF30F052EF30F038EF30F051C663F582
:1060A80052C664F553C665F554C666F5E6EC52F07B
:1060B80063C5C1F664C5C2F60601C2BF68EF30F019
:1060C80066EF30F06DEF30F0DD81C16DC21FD8B0E2
:1060D800C22B51C6D9F452C6DAF4DEC4F6F4DDC4D4
:1060E800F7F4000EF86E0800F5502E0AD8A47FEFDA
:1060F80030F081EF30F096EF30F051C6D9F452C647
:10610800DAF4DE2A000EDD2251C663F552C664F5C4
:1061180053C665F554C666F5E6EC52F063C5C3F69A
:1061280064C5C4F651C6D9F452C6DAF4DEC45DF6C5
:10613800DDC45EF65DC6F6F45EC6F7F4000EF86ED2
:106148000800F550640AD8B4ACEF30F0AEEF30F088
:10615800BEEF30F05DC6F6F45EC6F7F4000EF86EDA
:106168000800F550690AD8A4BCEF30F0BEEF30F053
:10617800EDEF30F053C6D9F454C6DAF4DFC455F65F
:10618800020EDE26DFC456F6000EDD2255C6D9F40F
:1061980056C6DAF4DEC459F6DDC45AF6010E060115
:1061A8005D25556F000E5E21566F51C6D9F452C653
:1061B800DAF455C6DEF456C6DDF44FC680F550C68F
:1061C80081F559C682F55AC683F500EC44F012EF02
:1061D80032F05DC6F6F45EC6F7F4000EF86E0800FD
:1061E800F550580AD8A4FBEF30F0FDEF30F03CEF43
:1061F80031F053C6D9F454C6DAF4DFC455F6020EAA
:10620800DE26DFC456F6000EDD2255C6D9F456C682
:10621800DAF4DEC459F6DDC45AF6010E06015D252E
:10622800556F000E5E21566F51C6D9F452C6DAF486
:1062380055C6DEF456C6DDF42EEF31F04FC680F5B4
:1062480050C681F559C682F55AC683F5B7EC48F0B1
:1062580012EF32F05DC6F6F45EC6F7F4000EF86E83
:106268000800F550580AD8B422EF31F03CEF31F06D
:1062780051C6D9F452C6DAF4DEC45DF6DDC45EF662
:106288005DC6F6F45EC6F7F4000EF86E0800F5C4B5
:1062980058F65AEF31F05D4B5E2B6AEF31F06C0E19
:1062A800586F6AEF31F0586B6AEF31F006015851B8
:1062B8004C0AD8B44FEF31F02A0AD8B453EF31F072
:1062C8000A0AD8B44FEF31F057EF31F05DC6F6F453
:1062D8005EC6F7F4000EF86E0800F550660AD8A4FA
:1062E80078EF31F07AEF31F0F2EF31F0B0EF31F0D2
:1062F80053C6D9F454C6DAF4DFC455F6040EDE26C4
:10630800DFC456F6000EDD2255C6D9F456C6DAF4B7
:10631800DEC459F6DEC45AF6DEC45BF6DEC45CF6AB
:10632800BBEF31F053C6D9F454C6DAF4DFC455F6DE
:10633800040EDE26DFC456F6000EDD2255C6D9F45B
:1063480056C6DAF4DEC459F6DEC45AF6DEC45BF685
:10635800DEC45CF6BBEF31F058514C0AD8B496EF66
:1063680031F0200AD8B47CEF31F0BBEF31F0010EE8
:106378005D25556F000E5E21566F51C6D9F452C681
:10638800DAF455C6DEF456C6DDF4E4EF31F04FC654
:106398001CF650C61DF659C61EF65AC61FF65BC631
:1063A80020F65CC621F65DC6F6F45EC6F7F4000E6C
:1063B800F86E0800F5C422F606EC1FF012EF32F072
:1063C8005DC6F6F45EC6F7F4000EF86E0800F550E8
:1063D800660AD8B4CBEF31F0F2EF31F051C6D9F4F8
:1063E80052C6DAF4DE2A000EDD2212EF32F051C670
:1063F800D9F452C6DAF4DEC4F6F4DDC4F7F4000EBC
:10640800F86E0800F5500501676F686B4FC669F5AF
:1064180050C66AF54DEC53F0F2EF31F01200030E5E
:106428008BEC63F063C5ECF564C5EDF5000E050172
:10643800AA6FF00EAB6F7F0EAC6F450EAD6FECC55B
:1064480098F5EDC599F5000E99BFFF0E9A6F9B6FF1
:10645800010EE2EC44F098C5A6F599C5A7F59AC5D2
:10646800A8F59BC5A9F5DCEC35F0A6C5BFF5A7C511
:10647800C0F5A8C5C1F5A9C5C2F56F0E0501C36F62
:10648800120EC46F830EC56F400EC66FDEEC2BF084
:10649800BFC5F6F5C0C5F7F5C1C5F8F5C2C5F9F52C
:1064A800F6C528F7F7C529F7F8C52AF7F9C52BF770
:1064B800ABEC67F063C5F2F564C5F3F565C5F4F5B3
:1064C80066C5F5F524C767F525C768F526C769F5D4
:1064D80027C76AF5D3EC5BF067C5EEF568C5EFF53D
:1064E80069C5F0F56AC5F1F520C7DCF521C7DDF50A
:1064F80022C7DEF523C7DFF5F6C5D8F5F7C5D9F508
:10650800F8C5DAF5F9C5DBF5B7EC61F0D8C5E0F503
:10651800D9C5E1F5DAC5E2F5DBC5E3F570EC64F061
:10652800E0C500F6E1C501F6E2C502F6E3C503F6EB
:10653800CD0E0601046FCC0E056F4C0E066F3D0E96
:10654800076F8BEC4AF00601D8B0ADEF32F0AFEF31
:1065580032F0BAEF32F0050EE461B5EF32F0B7EF82
:1065680032F0BBEF32F0E42BBBEF32F0E46BF6C550
:1065780020F7F7C521F7F8C522F7F9C523F7EDEF9E
:1065880033F0F16B040EE465CCEF32F0CEEF32F06D
:10659800FCEF33F0F6C500F6F7C501F6F8C502F6CC
:1065A800F9C503F6660E046F660E056FE60E066FF4
:1065B8003F0E076F8BEC4AF00601D8A0E6EF32F0E9
:1065C800E8EF32F01EEF33F0F6C500F6F7C501F636
:1065D800F8C502F6F9C503F6CD0E046FCC0E056FAB
:1065E8000C0E066F400E076F8BEC4AF00601D8B010
:1065F80000EF33F002EF33F01EEF33F00501F151F5
:10660800F0110BE1E80EEE5D030EEF59D8A00FEF85
:1066180033F011EF33F0FCEF33F0010E0601E56FB4
:10662800F2C524F7F3C525F7F4C526F7F5C527F70E
:10663800FCEF33F0F6C500F6F7C501F6F8C502F62B
:10664800F9C503F69A0E046F990E056F190E066FB9
:10665800400E076F8BEC4AF00601D8A036EF33F0F6
:1066680038EF33F014EF33F00501F151F0110BE17D
:10667800E80EEE5D030EEF59D8A045EF33F047EF73
:1066880033F04CEF33F0020E0601E56F14EF33F0F0
:10669800FCEF33F0010EF16F040EE46556EF33F0B2
:1066A80058EF33F0FCEF33F0660E006F660E016FA3
:1066B800A60E026F3F0E036FF6C504F6F7C505F682
:1066C800F8C506F6F9C507F68BEC4AF00601D8A01E
:1066D80070EF33F072EF33F08DEF33F00501F151C5
:1066E800F0110BE1E80EEE5D030EEF59D8A07FEF35
:1066F80033F081EF33F0FCEF33F00601E56BF2C5C0
:1067080024F7F3C525F7F4C526F7F5C527F7FCEFF9
:1067180033F0F6C500F6F7C501F6F8C502F6F9C577
:1067280003F69A0E046F990E056F190E066F400E48
:10673800076F8BEC4AF00601D8A0A5EF33F0A7EF5E
:1067480033F014EF33F00501F151F0110BE1E80ECD
:10675800EE5D030EEF59D8A0B4EF33F0B6EF33F087
:106768004CEF33F047EF33F0020EF16F040EE4659F
:10677800C0EF33F0C2EF33F0FCEF33F0660E006F7A
:10678800660E016FA60E026F3F0E036FF6C504F684
:10679800F7C505F6F8C506F6F9C507F68BEC4AF015
:1067A8000601D8A0DAEF33F0DCEF33F0FCEF33F07A
:1067B8000501F151F0110BE1D00EEE5D070EEF5916
:1067C800D8A0E9EF33F0EBEF33F0FCEF33F081EFD3
:1067D80033F0E551000AD8B4C5EF32F0010AD8B455
:1067E8004EEF33F0030AD8B4B8EF33F0FCEF33F0D0
:1067F8001200060108510911D8A405EF34F007EF7B
:1068080034F011EF34F0000E086F000E096F000E1F
:106818000A6F000E0B6FDBEF35F0ABEC67F063C56A
:106828001AF664C51BF665C51CF666C51DF6060195
:1068380020EE08F00851D9260951DA22DEC463F5A2
:10684800DEC464F5DEC465F5DEC466F50AC667F520
:106858000BC668F50CC669F50DC66AF566EC58F006
:106868000501D8B03AEF34F03CEF34F0CBEF34F018
:10687800060120EE08F00851D9260951DA220AC685
:10688800DEF40BC6DEF40CC6DEF40DC6DEF408C674
:10689800D9F409C6DAF4DEC400F6DEC401F6DEC4B3
:1068A80002F6DEC403F60AC604F60BC605F60CC6E5
:1068B80006F60DC607F68BEC4AF00601D8B067EF6E
:1068C80034F069EF34F099EF34F008C6D9F409C60A
:1068D800DAF410EE04F00851E1260951E222DEC490
:1068E800E6F4DEC4E6F4DEC4E6F4DEC4E6F420EE44
:1068F8000CF00851D9260951DA221AC6DEF41BC653
:10690800DEF41CC6DEF41DC6DEF420EE10F00851DD
:10691800D9260951DA220EC6DEF40FC6DEF410C6F7
:10692800DEF411C6DEF4CBEF34F020EE04F00851AB
:10693800D9260951DA220AC6DEF40BC6DEF40CC6E3
:10694800DEF40DC6DEF408C6D9F409C6DAF40AC6C0
:10695800DEF40BC6DEF40CC6DEF40DC6DEF420EE63
:106968000CF00851D9260951DA221AC6DEF41BC6E2
:10697800DEF41CC6DEF41DC6DEF420EE10F008516D
:10698800D9260951DA22DE6ADE6ADE6ADD6A060184
:1069980020EE10F00851D9260951DA22DE50DE1017
:1069A800DE10DE10D8A4DBEF34F0DDEF34F0EBEFCF
:1069B80034F008C6D9F409C6DAF4DEC408F6DEC431
:1069C80009F6DEC40AF6DEC40BF6DBEF35F020EE7E
:1069D8000CF00851D9260951DA22DEC467F5DEC465
:1069E80068F5DEC469F5DEC46AF5D3EC5BF067C50B
:1069F8001EF668C51FF669C520F66AC521F60601A8
:106A080020EE10F00851D9260951DA22DE501E5D19
:106A1800DE501F59DE502059DE502159D8A017EFFB
:106A280035F019EF35F039EF35F020EE08F0085160
:106A3800D9260951DA2208C6E1F409C6E2F4DEC40F
:106A4800E6F4DEC4E6F4DEC4E6F4DEC4E6F408C622
:106A5800D9F409C6DAF4DEC408F6DEC409F6DEC4E1
:106A68000AF6DEC40BF6DBEF35F01EC698F51FC636
:106A780099F520C69AF521C69BF5000EE2EC44F084
:106A880098C5A6F599C5A7F59AC5A8F59BC5A9F512
:106A9800060120EE10F00851D9260951DA22DEC489
:106AA80098F5DEC499F5DEC49AF5DEC49BF5000EB0
:106AB800E2EC44F098C5AAF599C5ABF59AC5ACF5D2
:106AC8009BC5ADF5DCEC35F0A6C512F6A7C513F6E7
:106AD800A8C514F6A9C515F612C6C3F513C6C4F59C
:106AE80014C6C5F515C6C6F5060120EE04F0085112
:106AF800D9260951DA22DEC4DCF5DEC4DDF5DEC4B0
:106B0800DEF5DEC4DFF520EE08F00851D92609517C
:106B1800DA22DEC4D8F5DEC4D9F5DEC4DAF5DEC47F
:106B2800DBF5B7EC61F0D8C5BFF5D9C5C0F5DAC556
:106B3800C1F5DBC5C2F5DEEC2BF0BFC516F6C0C546
:106B480017F6C1C518F6C2C519F616C663F517C6F5
:106B580064F518C665F519C666F5060120EE04F059
:106B68000851D9260951DA22DEC467F5DEC468F572
:106B7800DEC469F5DEC46AF582EC29F008C6D9F4EA
:106B880009C6DAF4050163C5DEF464C5DEF465C53B
:106B9800DEF466C5DEF408C6D9F409C6DAF4DEC444
:106BA80008F6DEC409F6DEC40AF6DEC40BF61200E7
:106BB8000501A951800BB66FA951A925BD6FA8AFD2
:106BC800E8EF35F0EAEF35F0EBEF35F0BD81BD5178
:106BD800D8B4F1EF35F0F3EF35F007EF36F0BD2913
:106BE800D8A4F9EF35F0FBEF35F003EF36F0000EDF
:106BF800A66F000EA76F000EA86F000EA96FA88FD2
:106C0800A96B0FEF36F0000EA66F000EA76F000EEF
:106C1800A86F000EA96FAD51800BB61BAD51AD2505
:106C2800BE6FACAF1AEF36F01CEF36F01DEF36F042
:106C3800BE81BE51D8B423EF36F025EF36F039EFD8
:106C480036F0BE29D8A42BEF36F02DEF36F035EF0D
:106C580036F0000EAA6F000EAB6F000EAC6F000E80
:106C6800AD6FAC8FAD6B41EF36F0000EAA6F000E22
:106C7800AB6F000EAC6F000EAD6FAA51AB11AC112B
:106C8800AD11D8A44AEF36F04CEF36F064EF36F089
:106C9800000EA66F000EA76F000EA86F000EA96F5A
:106CA800800EA8137F0EA913B651A913A6C5A6F581
:106CB800A7C5A7F5A8C5A8F5A9C5A9F5A4EF37F0F4
:106CC800BD51D8A46AEF36F06CEF36F076EF36F0A7
:106CD800000EA66F000EA76F000EA86F000EA96F1A
:106CE800A4EF37F0BE51BDC5AEF5AF6BAE5F000E79
:106CF800AF5B7F0EAE25B76F000EAF21B86FA6C58C
:106D0800B2F5A7C5B3F5A8C5B4F5A9C5B5F5000E84
:106D1800A66F000EA76F000EA86F000EA96F000ED9
:106D2800B96F000EBA6F000EBB6F000EBC6FBE6B62
:106D3800D6EF36F0BE51D8B4A4EF36F0A6EF36F051
:106D4800BDEF36F0D890B237B337B437B537D890EF
:106D5800A637A737A837A937BCAFB5EF36F0B7EFD6
:106D680036F0B8EF36F0A681D890B937BA37BB37C6
:106D7800BC37AA51B25DAB51B359AC51B459AD51FE
:106D8800B559D8A0CAEF36F0CCEF36F0D5EF36F0CB
:106D9800BC8DAA51B25FAB51B35BAC51B45BAD5182
:106DA800B55BBE2B190EBE65DCEF36F0DEEF36F0B4
:106DB8009EEF36F0B251B311B411B511D8B4E7EF64
:106DC80036F0E9EF36F001EF37F0B98101EF37F02F
:106DD800D890A637A737A837A937BCAFF6EF36F053
:106DE800F8EF36F0F9EF36F0A681D890B937BA3710
:106DF800BB37BC37B707D8A0B807A8AF06EF37F03E
:106E080008EF37F0ECEF36F0BE6BBCAF0EEF37F0A3
:106E180010EF37F034EF37F0FF0EB915AE6FFF0EF5
:106E2800BA15AF6FFF0EBB15B06F7F0EBC15B16FF3
:106E3800AE51AF11B011B111D8B425EF37F027EF2B
:106E480037F02BEF37F0010EBE6F34EF37F0A6A105
:106E580030EF37F032EF37F034EF37F027EF37F015
:106E6800BE51D8B43AEF37F03CEF37F060EF37F067
:106E7800010EA627000EA723A823A923A9A147EF3F
:106E880037F049EF37F060EF37F0A6C5AEF5A7C584
:106E9800AFF5A8C5B0F5A9C5B1F5B135B133B03373
:106EA800AF33AE33AEC5A6F5AFC5A7F5B0C5A8F5E7
:106EB800B1C5A9F5B74BB82BB8BF6BEF37F0B851D0
:106EC80008E1B729D8A06BEF37F06DEF37F078EF0E
:106ED80037F0000EB86FB769000EA66F000EA76FE7
:106EE800000EA86F000EA96FB8BF85EF37F0B85134
:106EF80006E1B705D8B083EF37F085EF37F092EFAA
:106F080037F0000EB86F000EB76F000EA66F000EB8
:106F1800A76F000EA86F000EA96FB66BB7C5BDF5B9
:106F2800BDA199EF37F09BEF37F09EEF37F0A88FB0
:106F38009FEF37F0A89FD890BD31A96F58EF36F072
:106F48001200DBC68BF5DCC68CF5BEC67FF50501E5
:106F5800806B7FBF80077FC581F580C582F5000EF5
:106F680082BFFF0E836F846FDBC663F5DCC664F5F2
:106F7800656B666B0601F3510501676F686B696B9A
:106F88006A6B47EC5DF063C56FF564C570F565C560
:106F980071F566C572F5640E0501736F000E746FA6
:106FA800000E756F000E766F15EC4FF005018151DC
:106FB8006F5D8D6F825170598E6F835171598F6FCC
:106FC80084517259906F90BFF7EF37F090518F113D
:106FD8008E1107E1140E8D5DD8B0F5EF37F0F7EF9D
:106FE80037F0FFEF37F0140E8D6F000E8E6F000E26
:106FF8008F6F000E906F0601DB5105017F6F060150
:10700800DC510501806F816B826B8D517F5D8E51E4
:1070180080598F5181598251800A836F9051800A1B
:107028008359D8B01AEF38F01CEF38F022EF38F057
:10703800DBC68DF5DCC68EF58F6B906B8DC543F581
:107048008EC544F5BFC67FF5806B7FBF80077FC5BF
:1070580081F580C582F5000E82BFFF0E836F846FB5
:10706800D9C663F5DAC664F5656B666B0601F2513D
:107078000501676F686B696B6A6B47EC5DF063C508
:107088006FF564C570F565C571F566C572F5640E72
:107098000501736F000E746F000E756F000E766F2A
:1070A80015EC4FF0050181516F5D8D6F825170595C
:1070B8008E6F835171598F6F84517259906F90BF41
:1070C80073EF38F090518F118E1107E1140E8D5D1A
:1070D800D8B071EF38F073EF38F07BEF38F0140E5A
:1070E8008D6F000E8E6F000E8F6F000E906F060171
:1070F800D95105017F6F0601DA510501806F816B57
:10710800826B8D517F5D8E5180598F51815982518B
:10711800800A836F9051800A8359D8B096EF38F06F
:1071280098EF38F09EEF38F0D9C68DF5DAC68EF5AF
:107138008F6B906B8DC5D7F68EC5D8F60601D751E3
:107148004324D56FD8514420D66FD55105018B5DA6
:107158000601D65105018C59D8B0B5EF38F0B7EF14
:1071680038F0E8EF38F0C0C67FF5806B7FBF800746
:107178007FC581F580C582F5000E82BFFF0E836F43
:10718800846F43500601D55D0501856F44500601A3
:10719800D6590501866F85518B5D876F86518C594D
:1071A800886F896BD8A0890789518A6F8151875D5B
:1071B8008D6F825188598E6F835189598F6F845191
:1071C8008A59906FEEEF38F043C58DF544C58EF5BA
:1071D8008F6B906B90BFFEEF38F090518F118E112E
:1071E80007E1140E8D5DD8B0FCEF38F0FEEF38F0F3
:1071F80006EF39F0140E8D6F000E8E6F000E8F6F34
:10720800000E906F8B517F6F8C51806F816B826BFA
:107218008D517F5D8E5180598F5181598251800ADD
:10722800836F9051800A8359D8B01DEF39F01FEF52
:1072380039F025EF39F08BC58DF58CC58EF58F6B40
:10724800906B8DC5AEF78EC5AFF7AEC77DF5AFC7EE
:107258007EF512000601EF05D8B435EF39F037EFA7
:1072680039F040EF39F0030EEF19D8A43EEF39F0AA
:1072780040EF39F0E7EF39F0000E0501AA6F000E74
:10728800AB6F7A0EAC6F440EAD6F1C0E08EC43F07A
:1072980005016BC598F56CC599F59A6B9B6B000E4B
:1072A800E2EC44F098C5A6F599C5A7F59AC5A8F5E6
:1072B8009BC5A9F5DCEC35F0A6C5BFF5A7C5C0F59B
:1072C800A8C5C1F5A9C5C2F5000E0501C36F000E1A
:1072D800C46F110EC56F430EC66FDEEC2BF0BFC531
:1072E80064F7C0C565F7C1C566F7C2C567F7160E6E
:1072F800D3EC3FF0D8C55AF6D9C55BF6DAC55CF6CB
:10730800DBC55DF664C7C3F565C7C4F566C7C5F5D3
:1073180067C7C6F55AC6BFF55BC6C0F55CC6C1F5FA
:107328005DC6C2F5DEEC2BF0BFC5A6F5C0C5A7F556
:10733800C1C5A8F5C2C5A9F5000E0501AA6F000EC2
:10734800AB6F7A0EAC6F440EAD6FDCEC35F0A6C5B2
:1073580060F7A7C561F7A8C562F7A9C563F7A8C60E
:1073680022F6A9C623F6AAC624F6ABC625F610EC63
:1073780063F022C65CF723C65DF724C65EF725C610
:107388005FF7B00E06011C6F070E1D6F5CC71EF677
:107398005DC71FF65EC720F65FC721F660C722F6F5
:1073A80061C723F662C724F663C725F67CEC24F090
:1073B8001CC6CFF61DC6D0F6CFC665F5D0C666F595
:1073C800010E10EC5DF0020E0601EF19D8B4EFEFD4
:1073D80039F0F1EF39F0FAEF39F0030EEF19D8A4CC
:1073E800F8EF39F0FAEF39F0B3EF3AF0000E050193
:1073F800AA6F000EAB6F7A0EAC6F440EAD6F110E14
:1074080008EC43F005016BC598F56CC599F59A6BC6
:107418009B6B000EE2EC44F098C5A6F599C5A7F55C
:107428009AC5A8F59BC5A9F5DCEC35F0A6C5BFF54E
:10743800A7C5C0F5A8C5C1F5A9C5C2F5000E0501C7
:10744800C36F000EC46F920EC56F420EC66FDEEC9E
:107458002BF0BFC558F7C0C559F7C1C55AF7C2C503
:107468005BF7040ED3EC3FF0D8C55AF6D9C55BF6E6
:10747800DAC55CF6DBC55DF658C7C3F559C7C4F570
:107488005AC7C5F55BC7C6F55AC6BFF55BC6C0F592
:107498005CC6C1F55DC6C2F5DEEC2BF0BFC5A6F52E
:1074A800C0C5A7F5C1C5A8F5C2C5A9F5000E050157
:1074B800AA6F000EAB6F7A0EAC6F440EAD6FDCECAA
:1074C80035F0A6C554F7A7C555F7A8C556F7A9C5F9
:1074D80057F7D7C698F5D8C699F505019A6B9B6BEF
:1074E800000EE2EC44F098C556F699C557F69AC5D1
:1074F80058F69BC559F656C622F657C623F658C6FF
:1075080024F659C625F6F0EC62F022C650F723C6D9
:1075180051F724C652F725C653F77E0E06011C6F95
:10752800080E1D6F50C71EF651C71FF652C720F62A
:1075380053C721F654C722F655C723F656C724F673
:1075480057C725F67CEC24F01CC6CDF61DC6CEF632
:10755800CDC665F5CEC666F5020E10EC5DF01200DC
:107568003CC767F53DC768F53EC769F53FC76AF58B
:10757800D3EC5BF067C59AF568C59BF569C59CF5C2
:107588006AC59DF538C767F539C768F53AC769F51B
:107598003BC76AF5D3EC5BF067C59EF568C59FF5F8
:1075A80069C5A0F56AC5A1F52C0E08EC43F06BC5BA
:1075B800A2F56CC5A3F55D50D8B4E5EF3AF0E7EF56
:1075C8003AF0FEEF3AF0ABEC67F063C538F764C504
:1075D80039F765C53AF766C53BF7ABEC67F063C5A5
:1075E8003CF764C53DF765C53EF766C53FF7010E34
:1075F800526E5D6A5350D8A404EF3BF006EF3BF09F
:1076080005EF3CF00501A151A0110BE1880E9E5D2C
:10761800130E9F59D8A013EF3BF015EF3BF005EF81
:107628003CF0010E536E05EF3CF05250D8A41FEF0A
:107638003BF021EF3BF035EF3BF09D519C110BE106
:10764800B80E9A5D0B0E9B59D8A02DEF3BF02FEF8B
:107658003BF01FEF3CF00601F56B010E526E1FEF79
:107668003CF05350D8A43BEF3BF03DEF3BF055EFD7
:107678003BF0730EA25D060EA359D8A046EF3BF06F
:1076880048EF3BF055EF3BF0010E546EABEC67F062
:1076980063C53CF764C53DF765C53EF766C53FF76A
:1076A800526A5304D8A45BEF3BF05DEF3BF01FEF49
:1076B8003CF0350E0501A25D080EA359D8A067EF6E
:1076C8003BF069EF3BF01FEF3CF0010E546EABEC62
:1076D80067F063C53CF764C53DF765C53EF766C509
:1076E8003FF7526A1FEF3CF05A6A010E0601F56F28
:1076F8005304D8A482EF3BF084EF3BF0B7EF3BF0A4
:10770800A40E0501A25D060EA359D8B08EEF3BF07A
:1077180090EF3BF093EF3BF0546A6BEF3BF0D70EE2
:10772800A25D060EA359D8A09CEF3BF09EEF3BF05C
:107738001FEF3CF03A0EA25D070EA359D8B0A7EF91
:107748003BF0A9EF3BF01FEF3CF0020E546EABECA0
:1077580067F063C53CF764C53DF765C53EF766C588
:107768003FF71FEF3CF05350D8A4BDEF3BF0BFEFFD
:107778003BF01FEF3CF0A40E0501A25D060EA359D5
:10778800D8B0C9EF3BF0CBEF3BF0CFEF3BF0010EA9
:10779800536E90EF3BF0D70EA25D060EA359D8A00A
:1077A800D8EF3BF0DAEF3BF01FEF3CF03A0EA25D6A
:1077B800070EA359D8B0E3EF3BF0E5EF3BF01FEF1E
:1077C8003CF0A9EF3BF0010E5A6E350EA25D080E93
:1077D800A359D8A0F2EF3BF0F4EF3BF0F8EF3BF001
:1077E800010E546EABEF3BF0A40EA25D060EA3593A
:1077F800D8B001EF3CF003EF3CF01FEF3CF090EF06
:107808003BF054500501986F996B9951000AD8B410
:1078180010EF3CF01FEF3CF09851000AD8B419EF74
:107828003BF0010AD8B478EF3BF0030AD8B4E7EF8D
:107838003BF01FEF3CF012000601F505D8B427EF26
:107848003CF029EF3CF02DEF3CF06CEF3DF06CEF95
:107858003DF0EF51D8A433EF3CF035EF3CF037EF73
:107868003CF06CEF3DF030C767F531C768F532C7BB
:1078780069F533C76AF5D3EC5BF067C523F668C5CD
:1078880024F669C525F66AC526F62CC767F52DC7FF
:1078980068F52EC769F52FC76AF5D3EC5BF067C5A5
:1078A80027F668C528F669C529F66AC52AF60601C5
:1078B800F351D8B462EF3CF064EF3CF0E2EF3CF0F7
:1078C8001C0EF2EC2DF006011C512D6F2D05D8A4CD
:1078D80070EF3CF072EF3CF09EEF3CF0EB51D8A417
:1078E80078EF3CF07AEF3CF089EF3CF0ABEC67F0D6
:1078F80063C530F764C531F765C532F766C533F738
:10790800010E0601EB6FE2EF3CF0265125110BE169
:10791800E90E235D030E2459D8A095EF3CF097EFAC
:107928003CF0E2EF3CF0000ED46F010ED36FEB6B2E
:10793800E2EF3CF0020E2D19D8A4A5EF3CF0A7EF1A
:107948003CF0D2EF3CF0EA51D8A4ADEF3CF0AFEFF9
:107958003CF0BEEF3CF0ABEC67F063C530F764C5B4
:1079680031F765C532F766C533F7010E0601EA6FD0
:10797800E2EF3CF026512511241109E1C90E235DDF
:10798800D8A0C9EF3CF0CBEF3CF0E2EF3CF0000EA2
:10799800D46F020ED36FEA6BE2EF3CF0D351D411EF
:1079A800D8A4D9EF3CF0DBEF3CF0E2EF3CF0000E5E
:1079B800D46F000ED36FEB6BCFEF3CF0F251D8B41D
:1079C800E8EF3CF0EAEF3CF06CEF3DF0110EF2EC22
:1079D8002DF01CC62BF61DC62CF606012B052C1106
:1079E800D8A4F9EF3CF0FBEF3CF027EF3DF0E9516C
:1079F800D8A401EF3DF003EF3DF012EF3DF0ABEC02
:107A080067F063C52CF764C52DF765C52EF766C505
:107A18002FF7010E0601E96F6CEF3DF02A5129118D
:107A28000BE1E90E275D030E2859D8A01EEF3DF0A3
:107A380020EF3DF02BEF3CF0000ED26F010ED16F1E
:107A4800E96B6CEF3DF0020E2B192C11D8A42FEF27
:107A58003DF031EF3DF05CEF3DF0E851D8A437EF51
:107A68003DF039EF3DF048EF3DF0ABEC67F063C512
:107A78002CF764C52DF765C52EF766C52FF7010EDF
:107A88000601E86F6CEF3DF02A512911281109E130
:107A9800C90E275DD8A053EF3DF055EF3DF06CEFD0
:107AA8003DF0000ED26F020ED16FE86B6CEF3DF027
:107AB800D151D211D8A463EF3DF065EF3DF02BEF23
:107AC8003CF0000ED26F000ED16FE96B59EF3DF01C
:107AD800120040C767F541C768F542C769F543C753
:107AE8006AF5D3EC5BF067C57DF568C57EF569C5B9
:107AF8007FF56AC580F5020E0601F36186EF3DF059
:107B080088EF3DF090EF3DF0010EF2658EEF3DF00D
:107B180090EF3DF089EF3EF05F04D8A496EF3DF07A
:107B280098EF3DF089EF3EF0ABEC67F063C540F7A6
:107B380064C541F765C542F766C543F7010E5E6E39
:107B48005F6A89EF3EF083EC68F0050180517F1190
:107B58000BE1210E7D5D030E7E59D8A0B6EF3DF0F6
:107B6800B8EF3DF0A7EF3EF0010E0601F365BFEF59
:107B78003DF0C1EF3DF0CCEF3DF0010EF265C7EFEF
:107B88003DF0C9EF3DF0CCEF3DF0020E5E6E586A55
:107B9800010EF365D2EF3DF0D4EF3DF0DFEF3DF09D
:107BA800F251D8A4DAEF3DF0DCEF3DF0DFEF3DF025
:107BB800030E5E6E576AF351D8A4E5EF3DF0E7EF88
:107BC8003DF0F2EF3DF0010EF265EDEF3DF0EFEF25
:107BD8003DF0F2EF3DF0040E5E6E566AABEC67F0D6
:107BE80063C540F764C541F765C542F766C543F705
:107BF800A7EF3EF03AEC55F0010E0601F36507EFEA
:107C08003EF009EF3EF017EF3EF0F251D8A40FEF27
:107C18003EF011EF3EF017EF3EF0020E8BEC5FF0F6
:107C2800030E5E6E576A0601F351D8A41EEF3EF0AC
:107C380020EF3EF0A7EF3EF0010EF26526EF3EF092
:107C480028EF3EF0A7EF3EF0010E8BEC5FF0040E3C
:107C58005E6E566AA7EF3EF05DEC57F0010E060126
:107C6800F36539EF3EF03BEF3EF046EF3EF0010E94
:107C7800F26541EF3EF043EF3EF046EF3EF0020E74
:107C88005E6E586AF351D8A44CEF3EF04EEF3EF0CA
:107C9800A7EF3EF0010EF26554EF3EF056EF3EF0CE
:107CA800A7EF3EF0010E8BEC5FF02BEF3EF004ECFB
:107CB80057F0010E0601F36564EF3EF066EF3EF003
:107CC80071EF3EF0010EF2656CEF3EF06EEF3EF0A4
:107CD80071EF3EF0020E5E6E586A010EF36577EFA3
:107CE8003EF079EF3EF0A7EF3EF0F251D8A47FEFD7
:107CF8003EF081EF3EF0A7EF3EF0020E8BEC5FF016
:107D0800030E5E6E576AA7EF3EF05E5005017B6F6B
:107D18007C6B7C51000AD8B494EF3EF0A7EF3EF09C
:107D28007B51010AD8B4A7EF3DF0030AD8B4FEEF9F
:107D38003DF0010AD8B430EF3EF0070AD8B45BEF43
:107D48003EF0A7EF3EF0120018C767F519C768F5AF
:107D58001AC769F51BC76AF5D3EC5BF067C59EF6D1
:107D680068C59FF669C5A0F66AC5A1F60601A151C6
:107D7800A0119F1109E10B0E9E5DD8A0C6EF3EF041
:107D8800C8EF3EF0D4EF3EF0DF51D8B4CEEF3EF06E
:107D9800D0EF3EF0D4EF3EF0010EE16F79EC68F0E1
:107DA8000601E105D8B4DBEF3EF0DDEF3EF0DFEF92
:107DB8003EF0D2EF3FF0560E0501636F080E646F78
:107DC800B40E656F090E666FDFC667F5686BB6ECB3
:107DD8005FF00601DF51FE0FA46F560E0501636FB9
:107DE800080E646FA4C665F55EEC5CF063C59CF78D
:107DF80064C59DF7570E0601A425D96EDA6A080EE8
:107E0800DA22DF509A6F560EA425D96EDA6A080E68
:107E1800DA22DF509B6F9B519D6F9C6B9A519C257A
:107E280007019A6F0601000E9D2107019B6F9A5169
:107E38009C1909E19B519D19D8B425EF3FF027EF14
:107E48003FF02BEF3FF06EEC61F0D2EF3FF05CC8F3
:107E5800A2F60601DF51F70FA36FA251A319D8B4F8
:107E680038EF3FF03AEF3FF03CEF3FF027EF3FF0BD
:107E7800100E08015719D8A444EF3FF046EF3FF021
:107E880053EF3FF00E0E5919D8A44DEF3FF04FEFC6
:107E98003FF053EF3FF05EC8F3F660C8F2F6AA0E63
:107EA8005619D8A45AEF3FF05CEF3FF027EF3FF0A8
:107EB8005A0E5719D8A463EF3FF065EF3FF027EF4C
:107EC8003FF0BFEF3FF05805D8A46DEF3FF06FEFDC
:107ED8003FF076EF3FF0560E0601796F080E7A6F85
:107EE80048EC4CF0020E08015819D8A47EEF3FF078
:107EF80080EF3FF027EF3FF0560E0601796F080E2E
:107F08007A6FBEEC45F027EF3FF0020E5819D8A45F
:107F180090EF3FF092EF3FF027EF3FF0560E06014B
:107F2800796F080E7A6F18EC51F027EF3FF0020EC8
:107F38005819D8A4A2EF3FF0A4EF3FF027EF3FF085
:107F4800560E0601796F080E7A6FFFEC41F027EFA5
:107F58003FF0020E5819D8A4B4EF3FF0B6EF3FF047
:107F680027EF3FF0560E0601796F080E7A6F51EC35
:107F780047F027EF3FF05951010AD8B467EF3FF0B7
:107F8800160AD8B489EF3FF0400AD8B49BEF3FF007
:107F98000F0AD8B4ADEF3FF027EF3FF0120005010C
:107FA800F46F160E0501F419D8A4DDEF3FF0DFEFEA
:107FB8003FF058EF40F0160E08EC43F06BC5ECF5B7
:107FC8006CC5EDF5000E0501AA6FF00EAB6F7F0EC4
:107FD800AC6F450EAD6FECC598F5EDC599F5000E83
:107FE80099BFFF0E9A6F9B6F010EE2EC44F098C5A3
:107FF800A6F599C5A7F59AC5A8F59BC5A9F5DCEC22
:1080080035F0A6C5BFF5A7C5C0F5A8C5C1F5A9C572
:10801800C2F53D0E0501C36F0A0EC46F830EC56F0E
:10802800400EC66FDEEC2BF0BFC5DCF5C0C5DDF534
:10803800C1C5DEF5C2C5DFF5D60E0501E06F0D0E30
:10804800E16FA60EE26F3D0EE36FE0C5C3F5E1C533
:10805800C4F5E2C5C5F5E3C5C6F5DCC5BFF5DDC5A4
:10806800C0F5DEC5C1F5DFC5C2F5DEEC2BF0BFC536
:10807800A6F5C0C5A7F5C1C5A8F5C2C5A9F5CD0E19
:108088000501AA6FCC0EAB6FCC0EAC6F3D0EAD6F79
:10809800DCEC35F0A6C5F0F5A7C5F1F5A8C5F2F5F5
:1080A800A9C5F3F5D8EF40F0040EF419D8A45FEF92
:1080B80040F061EF40F0D8EF40F0040E08EC43F0D8
:1080C8006BC5EEF56CC5EFF5000E0501AA6FF00E55
:1080D800AB6F7F0EAC6F450EAD6FEEC598F5EFC573
:1080E80099F5000E99BFFF0E9A6F9B6F010EE2EC97
:1080F80044F098C5A6F599C5A7F59AC5A8F59BC5F6
:10810800A9F5DCEC35F0A6C5BFF5A7C5C0F5A8C52F
:10811800C1F5A9C5C2F56F0E0501C36F120EC46F74
:10812800830EC56F400EC66FDEEC2BF0BFC5E4F5BD
:10813800C0C5E5F5C1C5E6F5C2C5E7F5420E0501BE
:10814800E86F110EE96F8A0EEA6F3D0EEB6FE8C516
:10815800C3F5E9C5C4F5EAC5C5F5EBC5C6F5E4C57B
:10816800BFF5E5C5C0F5E6C5C1F5E7C5C2F5DEEC66
:108178002BF0BFC5A6F5C0C5A7F5C1C5A8F5C2C5F2
:10818800A9F5CD0E0501AA6FCC0EAB6F4C0EAC6FE6
:108198003E0EAD6FDCEC35F0A6C5F0F5A7C5F1F5E0
:1081A800A8C5F2F5A9C5F3F5F0C5BFF5F1C5C0F549
:1081B800F2C5C1F5F3C5C2F5000E0501C36F000E87
:1081C800C46F7A0EC56F440EC66FDEEC2BF0BFC5C8
:1081D800D8F5C0C5D9F5C1C5DAF5C2C5DBF51200B9
:1081E80000C7CFF501C7D0F502C7D1F503C7D2F54F
:1081F800BFC5CFF5C0C5D0F5C1C5D1F5C2C5D2F54B
:10820800810E0501C36FFF0EC46FCFC5C5F5D0C57C
:10821800C6F5D1C5C7F5D2C5C8F5180E19EF41F096
:10822800D890C833C733C633C533E82E14EF41F0AE
:10823800C551C325CD6F000EC421CE6FCEBF2EEF22
:1082480041F0CE5109E1170ECD5DD8A02EEF41F0D7
:1082580030EF41F03AEF41F0BFC5BFF5C0C5C0F5FA
:10826800C1C5C1F5C2C5C2F5FEEF41F0CEBF3FEFB3
:1082780041F041EF41F0B2EF41F0CDC5C3F5FF0E3B
:10828800C46FFF0EC56F7F0EC66F000EC76FC36742
:1082980050EF41F058EF41F0C735C733C633C53307
:1082A800C433C32F4BEF41F0C4C5C9F5C5C5CAF5E2
:1082B800C6C5CBF5C7C5CCF50501C951CF15C36FE8
:1082C800CA51D015C46FCB51D115C56FCC51D21539
:1082D800C66FC351C411C511C611D8A476EF41F0B9
:1082E80078EF41F07AEF41F030EF41F0CFC5C3F5B8
:1082F800D0C5C4F5D1C5C5F5D2C5C6F5200E8AEFDF
:1083080041F0D890C633C533C433C333E82E85EF64
:1083180041F0C351C411C511C611D8B496EF41F04C
:1083280098EF41F0A0EF41F0C951CF27CA51D023AF
:10833800CB51D123CC51D223C91DC36FCA1DC46FE1
:10834800CB1DC56FCC1DC66FC351CF17C451D017F5
:10835800C551D117C651D217F6EF41F0CFC5C3F5B5
:10836800D0C5C4F5D1C5C5F5D2C5C6F5200EC2EF36
:1083780041F0D890C633C533C433C333E82EBDEFBC
:1083880041F0C351C411C511C611D8A4CEEF41F0B4
:10839800D0EF41F0DAEF41F0000ECF6F000ED06F52
:1083A800000ED16F000ED26FF6EF41F0D890CF35A6
:1083B800C36FD035C46FD135C56FD235C66FC351C1
:1083C800C411C511C611D8B4ECEF41F0EEEF41F07D
:1083D800F6EF41F0000ECF6F000ED06F800ED16F18
:1083E800BF0ED26FCFC5BFF5D0C5C0F5D1C5C1F599
:1083F800D2C5C2F5120021EE7CF2100EDE6AE80644
:10840800FDE27C0E0501636F060E646F79C665F5A3
:108418007AC666F5000E686F110E676FB6EC5FF0EE
:1084280006018305D8A41BEF42F01DEF42F03EEF92
:1084380042F0040E05016B6F000E6C6F000E6D6F3D
:1084480084C66EF5D5EC5CF0150E06017B6FC60E82
:10845800E82EFED77B2FFCD70000040E0501696FBC
:10846800000E6A6F000E6B6FDBEC61F00601BE6FE9
:1084780067EF42F0020E8319D8A445EF42F047EFA8
:1084880042F067EF42F0040E05016B6F000E6C6F4F
:10849800000E6D6F84C66EF5D5EC5CF0150E060106
:1084A8007B6FC60EE82EFED77B2FFCD70000040E8C
:1084B8000501696F000E6A6F000E6B6FDBEC61F0EF
:1084C80000080601BE6F8505D8A46DEF42F06FEF76
:1084D80042F090EF42F0050E05016B6F000E6C6FD5
:1084E800000E6D6F86C66EF5D5EC5CF0150E0601B4
:1084F8007B6FC60EE82EFED77B2FFCD70000050E3B
:108508000501696F000E6A6F000E6B6FDBEC61F09E
:108518000601BF6FB9EF42F0020E8519D8A497EF94
:1085280042F099EF42F0B9EF42F0050E05016B6F8A
:10853800000E6C6F000E6D6F86C66EF5D5EC5CF0A4
:10854800150E06017B6FC60EE82EFED77B2FFCD7D3
:108558000000050E0501696F000E6A6F000E6B6F53
:10856800DBEC61F000080601BF6F550E7C6F7C0ED6
:108578000501636F060E646F0F0E656F5EEC5CF0AD
:1085880063C58DF664C58EF68DC68CF606018E51D0
:108598008B6F8F6BFE0E676F3D0E686F7C0E8F259D
:1085A800D96EDA6A060EDA22DF507B6F7B51696F6B
:1085B8006A6BABEC65F0100E06018F61E6EF42F0D6
:1085C800E8EF42F0EEEF42F0D20E676F3D0E686FB3
:1085D800ABEC65F006018F2B100E8F65F6EF42F0BD
:1085E800F8EF42F0CEEF42F07C0E0501636F060E05
:1085F800646F000E656F000E666F000E686F110ED7
:10860800676FB6EC5FF0120005018B6F000E050175
:10861800936F000E926F8B518BEC63F0D89005012D
:108628009235D96E9335DA6E730ED926050EDA2295
:1086380063C5DEF464C5DDF4924B932B93BF2EEF34
:1086480043F0935109E10C0E925DD8A02EEF43F050
:1086580030EF43F00FEF43F0000E916F000E906F74
:10866800000E956F000E946F000E976F000E966FB8
:10867800A5EF43F0D8909635D96E9735DA6E730E1C
:10868800D926050EDA2296C56FF597C570F5D890EC
:108698006F377037020E6F27000E7023730E6F2529
:1086A800E16E050E7021E26EDE50E65CDE50E658A3
:1086B800D8B061EF43F063EF43F0A3EF43F0D890F5
:1086C8009635D96E9735DA6E730ED926050EDA22ED
:1086D800DEC48CF5DDC48DF596C56DF597C56EF5D0
:1086E800D8906D376E37020E6D27000E6E23730E0D
:1086F8006D25D96E050E6E21DA6ED8909635E16E2D
:108708009735E26E730EE126050EE222DEC4E6F42A
:10871800DDC4E5F496C56DF597C56EF5D8906D374F
:108728006E37020E6D27000E6E23730E6D25D96EFF
:10873800050E6E21DA6E8CC5DEF48DC5DDF4964B20
:10874800972B0B0E6D6F000E6E6F94516D5F9551E8
:108758006E5B6D51965D9751800A6F6F6E51800AFE
:108768006F59D8A0BAEF43F0BCEF43F03EEF43F0A7
:10877800944B952B95BFCAEF43F0955109E10B0E29
:10878800945DD8A0CAEF43F0CCEF43F038EF43F044
:10879800000E956F020E946FD8909435D96E95356A
:1087A800DA6E730ED926050EDA22DE509027DD50D8
:1087B8009123944B952B95BFEBEF43F0955109E12D
:1087C8000A0E945DD8A0EBEF43F0EDEF43F0D0EF45
:1087D80043F090C563F591C564F5000E666F080E09
:1087E800656F17EC54F063C58EF564C58FF58EC5BB
:1087F8006BF58FC56CF51200050183BF06EF44F0D9
:1088080009EF44F0010E0AEF44F0000E8A6F0601EA
:10881800C4BF11EF44F013EF44F014EF44F0DD93BC
:10882800C4BF1BEF44F019EF44F022EF44F0000EF0
:108838000501876F010E866F26EF44F0C3C686F5E3
:10884800C4C687F5C1C688F5C2C689F505018A512F
:10885800D8B431EF44F033EF44F04AEF44F08807DE
:10886800D8A089078A51D8A43CEF44F03EEF44F0E1
:1088780044EF44F0000E856F2B0E846F48EF44F0F0
:10888800000E856F2D0E846F84C58AF5000E8C6FDF
:108898004F0E8B6F0901B36B84EF44F005018B0712
:1088A800D8A08C07640E8B25D96E090E8C21DA6E40
:1088B80082C563F583C564F5000E666F0A0E656FA1
:1088C800B6EC57F063C569F564C56AF555EC64F014
:1088D80005016951300FDF6E8607D8A08707880722
:1088E800D8A0890782C563F583C564F5000E666F55
:1088F8000A0E656F17EC54F063C582F564C583F5FD
:1089080005018CBF90EF44F08C5108E18B05D8A08D
:1089180090EF44F092EF44F0BDEF44F082518311A0
:10892800D8A499EF44F09BEF44F052EF44F087BF8E
:10893800A8EF44F0875106E18605D8B0A6EF44F0C9
:10894800A8EF44F052EF44F089BFB3EF44F08951E7
:1089580008E18805D8A0B3EF44F0B5EF44F0BDEFC7
:1089680044F00601DDB3BBEF44F0BDEF44F052EF35
:1089780044F005018A51D8B4C4EF44F0C6EF44F07E
:10898800D1EF44F08B07D8A08C07640E8B25D96EE5
:10899800090E8C21DA6E8AC5DFF480C577F581C5AA
:1089A80078F5640E8B25796F090E8C217A6F88C54E
:1089B8007BF589C57CF512EC59F012000501A06F12
:1089C8000501A051D8B4EBEF44F0EDEF44F00FEF00
:1089D80045F09BBFF4EF44F0F2EF44F00FEF45F0A1
:1089E80098C59CF599C59DF59AC59EF59BC59FF5BB
:1089F8009C1F9D1F9E1F9F1F9C2B000E9D239E2327
:108A08009F239CC5A2F59DC5A3F59EC5A4F59FC54A
:108A1800A5F517EF45F098C5A2F599C5A3F59AC530
:108A2800A4F59BC5A5F5985199119A119B11D8A445
:108A380020EF45F022EF45F02CEF45F0000E986F3F
:108A4800000E996F000E9A6F000E9B6FBDEF45F0F8
:108A5800960EA16F36EF45F0A12BD890A533A4331D
:108A6800A333A233000EA2159C6F000EA3159D6FB1
:108A7800000EA4159E6FFE0EA5159F6F9C519D11AB
:108A88009E119F11D8A44BEF45F04DEF45F030EF04
:108A980045F05BEF45F0A12B010EA227000EA323A2
:108AA800A423A523D890A533A433A333A233000E5F
:108AB800A2159C6F000EA3159D6F000EA4159E6F46
:108AC800FF0EA5159F6F9C519D119E119F11D8A453
:108AD80070EF45F072EF45F04FEF45F07AEF45F053
