:0430000081EF18F054
:103008003A333A333A333A33400C3A33400C3A3392
:1030180066323A3333333A333A333A333A333A331C
:103028003433400C400C400C3A333A333A333A3399
:103038003A333A333A334830342F3A333A33373025
:10304800993227333A333A33400C400C3A333A3307
:103058003A333A333A33400C3A333A3315301A2A72
:103068006C323A333A333A333A333A333A333A33BF
:103078004B325232902C5F29400C3A332630472A83
:103088003A333A333A333A333A333A333A333A33D0
:103098003A333A333A333A33400C3A33400C400C23
:1030A80072323A333A333A333A333A333A333A3379
:1030B8003A333A333A33962F3A333A333A333A3348
:1030C8003A333A333A333A333A333A333A333A3390
:1030D8003A333A333A333A333A333A333A333A3380
:1030E800400C3A333A333A33400C400C400C400C15
:1030F8003A333A333A333A33FF007FEF4DF000006A
:10310800C0C101C30302C2C60607C705C5C404CCB3
:103118000C0DCD0FCFCE0E0ACACB0BC90908C8D8E3
:103128001819D91BDBDA1A1EDEDF1FDD1D1CDC14A3
:10313800D4D515D71716D6D21213D311D1D010F073
:103148003031F133F3F23236F6F737F53534F43CF3
:10315800FCFD3DFF3F3EFEFA3A3BFB39F9F83828C3
:10316800E8E929EB2B2AEAEE2E2FEF2DEDEC2CE4E3
:103178002425E527E7E62622E2E323E12120E0A053
:103188006061A163A3A26266A6A767A56564A46C33
:10319800ACAD6DAF6F6EAEAA6A6BAB69A9A8687863
:1031A800B8B979BB7B7ABABE7E7FBF7DBDBC7CB423
:1031B8007475B577B7B67672B2B373B17170B05033
:1031C8009091519353529296565797559594549C73
:1031D8005C5D9D5F9F9E5E5A9A9B5B995958988843
:1031E8004849894B8B8A4A4E8E8F4F8D4D4C8C4463
:1031F80084854587474686824243834181804000D3
:10320800C1814001C0804101C0804100C1814001AD
:10321800C0804100C1814000C1814001C08041019E
:10322800C0804100C1814000C1814001C08041008F
:10323800C1814001C0804101C0804100C18140017D
:10324800C0804100C1814000C1814001C08041006F
:10325800C1814001C0804101C0804100C18140005E
:10326800C1814001C0804101C0804100C18140014D
:10327800C0804100C1814000C1814001C08041013E
:10328800C0804100C1814000C1814001C08041002F
:10329800C1814001C0804101C0804100C18140001E
:1032A800C1814001C0804101C0804100C18140010D
:1032B800C0804100C1814000C1814001C0804100FF
:1032C800C1814001C0804101C0804100C1814001ED
:1032D800C0804100C1814000C1814001C0804101DE
:1032E800C0804100C1814000C1814001C0804100CF
:1032F800C1814001C0804101C0804100C1814000BE
:10330800C0C101C30302C2C60607C705C5C404CCB1
:103318000C0DCD0FCFCE0E0ACACB0BC90908C8D8E1
:103328001819D91BDBDA1A1EDEDF1FDD1D1CDC14A1
:10333800D4D515D71716D6D21213D311D1D010F071
:103348003031F133F3F23236F6F737F53534F43CF1
:10335800FCFD3DFF3F3EFEFA3A3BFB39F9F83828C1
:10336800E8E929EB2B2AEAEE2E2FEF2DEDEC2CE4E1
:103378002425E527E7E62622E2E323E12120E0A051
:103388006061A163A3A26266A6A767A56564A46C31
:10339800ACAD6DAF6F6EAEAA6A6BAB69A9A8687861
:1033A800B8B979BB7B7ABABE7E7FBF7DBDBC7CB421
:1033B8007475B577B7B67672B2B373B17170B05031
:1033C8009091519353529296565797559594549C71
:1033D8005C5D9D5F9F9E5E5A9A9B5B995958988841
:1033E8004849894B8B8A4A4E8E8F4F8D4D4C8C4461
:1033F80084854587474686824243834181804000D1
:10340800C1814001C0804101C0804100C1814001AB
:10341800C0804100C1814000C1814001C08041019C
:10342800C0804100C1814000C1814001C08041008D
:10343800C1814001C0804101C0804100C18140017B
:10344800C0804100C1814000C1814001C08041006D
:10345800C1814001C0804101C0804100C18140005C
:10346800C1814001C0804101C0804100C18140014B
:10347800C0804100C1814000C1814001C08041013C
:10348800C0804100C1814000C1814001C08041002D
:10349800C1814001C0804101C0804100C18140001C
:1034A800C1814001C0804101C0804100C18140010B
:1034B800C0804100C1814000C1814001C0804100FD
:1034C800C1814001C0804101C0804100C1814001EB
:1034D800C0804100C1814000C1814001C0804101DC
:1034E800C0804100C1814000C1814001C0804100CD
:1034F800C1814001C0804101C0804100C1814000BC
:10350800C0C101C30302C2C60607C705C5C404CCAF
:103518000C0DCD0FCFCE0E0ACACB0BC90908C8D8DF
:103528001819D91BDBDA1A1EDEDF1FDD1D1CDC149F
:10353800D4D515D71716D6D21213D311D1D010F06F
:103548003031F133F3F23236F6F737F53534F43CEF
:10355800FCFD3DFF3F3EFEFA3A3BFB39F9F83828BF
:10356800E8E929EB2B2AEAEE2E2FEF2DEDEC2CE4DF
:103578002425E527E7E62622E2E323E12120E0A04F
:103588006061A163A3A26266A6A767A56564A46C2F
:10359800ACAD6DAF6F6EAEAA6A6BAB69A9A868785F
:1035A800B8B979BB7B7ABABE7E7FBF7DBDBC7CB41F
:1035B8007475B577B7B67672B2B373B17170B0502F
:1035C8009091519353529296565797559594549C6F
:1035D8005C5D9D5F9F9E5E5A9A9B5B99595898883F
:1035E8004849894B8B8A4A4E8E8F4F8D4D4C8C445F
:1035F80084854587474686824243834181804000CF
:10360800C1814001C0804101C0804100C1814001A9
:10361800C0804100C1814000C1814001C08041019A
:10362800C0804100C1814000C1814001C08041008B
:10363800C1814001C0804101C0804100C181400179
:10364800C0804100C1814000C1814001C08041006B
:10365800C1814001C0804101C0804100C18140005A
:10366800C1814001C0804101C0804100C181400149
:10367800C0804100C1814000C1814001C08041013A
:10368800C0804100C1814000C1814001C08041002B
:10369800C1814001C0804101C0804100C18140001A
:1036A800C1814001C0804101C0804100C181400109
:1036B800C0804100C1814000C1814001C0804100FB
:1036C800C1814001C0804101C0804100C1814001E9
:1036D800C0804100C1814000C1814001C0804101DA
:1036E800C0804100C1814000C1814001C0804100CB
:1036F800C1814001C0804101C0804100C1814000BA
:10370800C0C101C30302C2C60607C705C5C404CCAD
:103718000C0DCD0FCFCE0E0ACACB0BC90908C8D8DD
:103728001819D91BDBDA1A1EDEDF1FDD1D1CDC149D
:10373800D4D515D71716D6D21213D311D1D010F06D
:103748003031F133F3F23236F6F737F53534F43CED
:10375800FCFD3DFF3F3EFEFA3A3BFB39F9F83828BD
:10376800E8E929EB2B2AEAEE2E2FEF2DEDEC2CE4DD
:103778002425E527E7E62622E2E323E12120E0A04D
:103788006061A163A3A26266A6A767A56564A46C2D
:10379800ACAD6DAF6F6EAEAA6A6BAB69A9A868785D
:1037A800B8B979BB7B7ABABE7E7FBF7DBDBC7CB41D
:1037B8007475B577B7B67672B2B373B17170B0502D
:1037C8009091519353529296565797559594549C6D
:1037D8005C5D9D5F9F9E5E5A9A9B5B99595898883D
:1037E8004849894B8B8A4A4E8E8F4F8D4D4C8C445D
:1037F80084854587474686824243834181804000CD
:10380800C1814001C0804101C0804100C1814001A7
:10381800C0804100C1814000C1814001C080410198
:10382800C0804100C1814000C1814001C080410089
:10383800C1814001C0804101C0804100C181400177
:10384800C0804100C1814000C1814001C080410069
:10385800C1814001C0804101C0804100C181400058
:10386800C1814001C0804101C0804100C181400147
:10387800C0804100C1814000C1814001C080410138
:10388800C0804100C1814000C1814001C080410029
:10389800C1814001C0804101C0804100C181400018
:1038A800C1814001C0804101C0804100C181400107
:1038B800C0804100C1814000C1814001C0804100F9
:1038C800C1814001C0804101C0804100C1814001E7
:1038D800C0804100C1814000C1814001C0804101D8
:1038E800C0804100C1814000C1814001C0804100C9
:1038F800C1814001C0804101C0804100C1814000B8
:10390800C0C101C30302C2C60607C705C5C404CCAB
:103918000C0DCD0FCFCE0E0ACACB0BC90908C8D8DB
:103928001819D91BDBDA1A1EDEDF1FDD1D1CDC149B
:10393800D4D515D71716D6D21213D311D1D010F06B
:103948003031F133F3F23236F6F737F53534F43CEB
:10395800FCFD3DFF3F3EFEFA3A3BFB39F9F83828BB
:10396800E8E929EB2B2AEAEE2E2FEF2DEDEC2CE4DB
:103978002425E527E7E62622E2E323E12120E0A04B
:103988006061A163A3A26266A6A767A56564A46C2B
:10399800ACAD6DAF6F6EAEAA6A6BAB69A9A868785B
:1039A800B8B979BB7B7ABABE7E7FBF7DBDBC7CB41B
:1039B8007475B577B7B67672B2B373B17170B0502B
:1039C8009091519353529296565797559594549C6B
:1039D8005C5D9D5F9F9E5E5A9A9B5B99595898883B
:1039E8004849894B8B8A4A4E8E8F4F8D4D4C8C445B
:1039F80084854587474686824243834181804000CB
:103A0800C1814001C0804101C0804100C1814001A5
:103A1800C0804100C1814000C1814001C080410196
:103A2800C0804100C1814000C1814001C080410087
:103A3800C1814001C0804101C0804100C181400175
:103A4800C0804100C1814000C1814001C080410067
:103A5800C1814001C0804101C0804100C181400056
:103A6800C1814001C0804101C0804100C181400145
:103A7800C0804100C1814000C1814001C080410136
:103A8800C0804100C1814000C1814001C080410027
:103A9800C1814001C0804101C0804100C181400016
:103AA800C1814001C0804101C0804100C181400105
:103AB800C0804100C1814000C1814001C0804100F7
:103AC800C1814001C0804101C0804100C1814001E5
:103AD800C0804100C1814000C1814001C0804101D6
:103AE800C0804100C1814000C1814001C0804100C7
:103AF800C1814001C0804101C0804100C181409224
:103B0800AE000000000AC5006EBD000000007EC9BE
:103B1800000000000000000000000000000000009D
:103B2800000000000000000000000000000000008D
:103B3800000000000006C900000000E2C800BEC87E
:103B4800009AC8000000002ABC00000000D8B90094
:103B580030BA0000000000000000000066C6000047
:103B680000000000004348317C493A252E32667C2B
:103B7800563A252E32667C503A252E32667C5057AE
:103B88004D3A25647C0A0D20004348327C493A2589
:103B98002E32667C563A252E32667C503A252E32D5
:103BA800667C50574D3A25647C0A0D200053503AE4
:103BB800252E32667C55524745313A25647C55524C
:103BC8004745323A25647C200A0D200054656D7003
:103BD8003A252E32667C0A0D200056696E3A256415
:103BE8007C200A0D200050726F3A25647C0A0D2053
:103BF800004545503A2530325800563A2564006948
:103C08006E66006E616E00000601446B1EC645F6C6
:103C18001FC646F620C647F621C648F648BF19EF24
:103C28001EF017EF1EF02DEF1EF0010E446F45C673
:103C380063F546C664F547C665F548C666F56AEC99
:103C480061F063C545F664C546F665C547F666C5C1
:103C580048F6000E06014A6F000E496FC1C638F6D5
:103C6800C2C639F64451D8B43CEF1EF03EEF1EF000
:103C780052EF1EF04451D8A444EF1EF046EF1EF058
:103C88004CEF1EF0000E2A6F2B0E296F50EF1EF01E
:103C9800000E2A6F2D0E296F29C644F645C663F516
:103CA80046C664F547C665F548C666F5FFEC4DF0AF
:103CB800050163056411D8A464EF1EF066EF1EF0D9
:103CC8009DEF1EF006014451D8B46DEF1EF06FEF62
:103CD8001EF078EF1EF044C66EF93807D8A03907F1
:103CE800000E4A6F010E496F6E0E49250501636F7C
:103CF800090E06014A210501646F070E656F3C0E27
:103D0800666FF2EC60F00601FD0E3827FF0E3923CE
:103D18001CC677F51DC678F56E0E0501796F090E7C
:103D28007A6F38C67BF539C67CF5F6EC56F07DEF30
:103D380023F045C663F546C664F547C665F548C62B
:103D480066F5FFEC4DF0050163516411D8A4AFEF9F
:103D58001EF0B1EF1EF0D4EF1EF006014451D8B4A6
:103D6800B8EF1EF0BAEF1EF0C3EF1EF044C66EF9AE
:103D78003807D8A03907000E4A6F010E496F6E0E3A
:103D880049250501636F090E06014A210501646F83
:103D98000B0E656F3C0E666FF2EC60F087EF1EF05D
:103DA800000E06014B6F000E4C6F800E4D6F3F0EDC
:103DB8004E6F000E336F000E326F45C663F546C670
:103DC80064F547C665F548C666F5000E0501676FD8
:103DD800000E686F000E696F000E6A6F4AEC56F0AD
:103DE8000501D8B0FAEF1EF0FCEF1EF0F6EF1FF059
:103DF80009EF1FF034C64BF635C64CF636C64DF6FD
:103E080037C64EF60601324B332B4BC6BFF54CC6B0
:103E1800C0F54DC6C1F54EC6C2F5000E0501C36F0B
:103E2800000EC46F200EC56F410EC66FE0EC2AF07D
:103E3800BFC534F6C0C535F6C1C536F6C2C537F6B6
:103E480006013451455D0501636F06013551465938
:103E58000501646F0601365147590501656F060172
:103E6800375148590501666FC0EC5CF0050166BF23
:103E780049EF1FF066516511641109E1020E635D97
:103E8800D8A049EF1FF04BEF1FF0FEEF1EF034C62D
:103E980000F635C601F636C602F637C603F645C63D
:103EA80004F646C605F647C606F648C607F66FEC9A
:103EB80048F00601D8A063EF1FF065EF1FF0FEEF92
:103EC8001EF04B51455D0501636F06014C51465983
:103ED8000501646F06014D5147590501656F0601DB
:103EE8004E5148590501666FC0EC5CF0050166BF8C
:103EF8008BEF1FF066516511641107E1020E635DD7
:103F0800D8B089EF1FF08BEF1FF0DCEF1FF04BC626
:103F180045F64CC646F64DC647F64EC648F6F6EF89
:103F28001FF04BC6A6F54CC6A7F54DC6A8F54EC65C
:103F3800A9F5000E0501AA6F000EAB6F200EAC6F3D
:103F4800410EAD6FDEEC34F0A6C54BF6A7C54CF6B6
:103F5800A8C54DF6A9C54EF606013207D8A0330705
:103F68004B51455D0501636F06014C5146590501EA
:103F7800646F06014D5147590501656F06014E51A1
:103F880048590501666FC0EC5CF0050166BFDAEFC1
:103F98001FF066516511641107E1020E635DD8B028
:103FA800D8EF1FF0DAEF1FF0DCEF1FF08BEF1FF0F8
:103FB80045C600F646C601F647C602F648C603F6E9
:103FC8004BC604F64CC605F64DC606F64EC607F6B1
:103FD8006FEC48F00601D8A0F4EF1FF0F6EF1FF0E1
:103FE80095EF1FF022C62CF62CC62DF60601C4BF8D
:103FF80000EF20F002EF20F008EF20F0C3C625F60E
:10400800C4C626F60CEF20F0000E266F060E256FAC
:1040180025C630F626C631F6304B312B660E2D19E3
:10402800D8A419EF20F01BEF20F03BEF20F033BFAE
:1040380022EF20F020EF20F02EEF20F0000E4B6F43
:10404800000E4C6F800E4D6F3F0E4E6F000E336F9B
:10405800000E326F670E2C19D8B435EF20F037EF09
:1040680020F03BEF20F03251302733513123000E3E
:10407800436F000E426F45C63AF646C63BF647C642
:104088003CF648C63DF64BC634F64CC635F64DC62A
:1040980036F64EC637F6CDEF20F03AC6A6F53BC643
:1040A800A7F53CC6A8F53DC6A9F54BC6AAF54CC66A
:1040B800ABF54DC6ACF54EC6ADF5DEEC34F0A6C595
:1040C800BFF5A7C5C0F5A8C5C1F5A9C5C2F593EC4C
:1040D8003FF0BFC53EF6C0C53FF6C1C540F6C2C5F4
:1040E80041F63EC618F63FC619F640C61AF641C64E
:1040F8001BF66CEC4CF018C62EF619C62FF63AC60D
:10410800D8F53BC6D9F53CC6DAF53DC6DBF53EC663
:10411800C3F53FC6C4F540C6C5F541C6C6F54BC68E
:10412800BFF54CC6C0F54DC6C1F54EC6C2F5E0ECAC
:104138002AF0BFC5DCF5C0C5DDF5C1C5DEF5C2C5D1
:10414800DFF5BFEC5FF0D8C53AF6D9C53BF6DAC55E
:104158003CF6DBC53DF64BC6A6F54CC6A7F54DC6E5
:10416800A8F54EC6A9F5000E0501AA6F000EAB6FA3
:10417800200EAC6F410EAD6FDEEC34F0A6C54BF6E9
:10418800A7C54CF6A8C54DF6A9C54EF60601424B83
:10419800432B3051425D4351800A0501FB6F0601F4
:1041A8003151800A0501FB59D8A0DDEF20F0DFEF7F
:1041B80020F051EF20F04BC6BFF54CC6C0F54DC6F8
:1041C800C1F54EC6C2F5000EC36F000EC46FA00E37
:1041D800C56F400EC66FE0EC2AF0BFC53EF6C0C5FD
:1041E8003FF6C1C540F6C2C541F63AC600F63BC621
:1041F80001F63CC602F63DC603F63EC604F63FC6C7
:1042080005F640C606F641C607F66FEC48F006010B
:10421800D8B011EF21F013EF21F01DEF21F0000EBF
:104228003E6F000E3F6F000E406F000E416F47EF6C
:1042380021F03AC663F53BC664F53CC665F53DC654
:1042480066F53EC667F53FC668F540C669F541C6DE
:104258006AF54AEC56F00501D8A035EF21F037EFA2
:1042680021F047EF21F006012EB13DEF21F03FEF9D
:1042780021F047EF21F0000E3E6F000E3F6F000E59
:10428800406F000E416F45C663F546C664F547C6E4
:1042980065F548C666F53EC667F53FC668F540C68B
:1042A80069F541C66AF584EC28F063C53AF664C539
:1042B8003BF665C53CF666C53DF63AC600F63BC614
:1042C80001F63CC602F63DC603F6000E0501C36FB3
:1042D800000EC46F200EC56F410EC66F34C6BFF501
:1042E80035C6C0F536C6C1F537C6C2F5E0EC2AF0CA
:1042F800BFC504F6C0C505F6C1C506F6C2C507F6B2
:104308006FEC48F00601D8A08CEF21F08EEF21F079
:10431800B7EF21F0324B332B34C6BFF535C6C0F5A5
:1043280036C6C1F537C6C2F5000E0501C36F000ECB
:10433800C46F200EC56F410EC66FE0EC2AF0BFC5F2
:1043480034F6C0C535F6C1C536F6C2C537F6660EB1
:1043580006012D19D8A4B3EF21F0B5EF21F0B7EF7E
:1043680021F0304B312B34C64BF635C64CF636C6E9
:104378004DF637C64EF632C623F633C624F62B6BF7
:10438800000E286F000E276F000E436F000E426F5D
:10439800B4EF22F03AC6A6F53BC6A7F53CC6A8F589
:1043A8003DC6A9F54BC6AAF54CC6ABF54DC6ACF54E
:1043B8004EC6ADF5DEEC34F0A6C5BFF5A7C5C0F511
:1043C800A8C5C1F5A9C5C2F593EC3FF0BFC53EF637
:1043D800C0C53FF6C1C540F6C2C541F63EC618F68F
:1043E8003FC619F640C61AF641C61BF66CEC4CF0EF
:1043F800060119BF0BEF22F0195107E10A0E185DEB
:10440800D8B009EF22F00BEF22F01BEF22F03EC6E6
:1044180018F63FC619F640C61AF641C61BF66CECEC
:104428004CF018C62EF619C62FF61FEF22F0000E14
:104438002F6F090E2E6F06012B51D8A426EF22F0FC
:1044480028EF22F050EF22F024BF2FEF22F02DEFBB
:1044580022F050EF22F06E0E4925D96E090E4A213E
:10446800DA6E2E0EDF6E494B4A2B3807D8A0390773
:10447800010E2B6F50EF22F06E0E4925D96E090EF2
:104488004A21DA6E300EDF6E494B4A2B3807D8A026
:1044980039072707D8A0280727512811D8A457EF8C
:1044A80022F059EF22F040EF22F06E0E4925D96E26
:1044B800090E4A21DA6E2E51300FDF6E494B4A2B16
:1044C8003807D8A039073AC6D8F53BC6D9F53CC64F
:1044D800DAF53DC6DBF53EC6C3F53FC6C4F540C6B2
:1044E800C5F541C6C6F54BC6BFF54CC6C0F54DC6A9
:1044F800C1F54EC6C2F5E0EC2AF0BFC5DCF5C0C573
:10450800DDF5C1C5DEF5C2C5DFF5BFEC5FF0D8C586
:104518003AF6D9C53BF6DAC53CF6DBC53DF64BC6DF
:10452800A6F54CC6A7F54DC6A8F54EC6A9F5000ECA
:104538000501AA6F000EAB6F200EAC6F410EAD6F78
:10454800DEEC34F0A6C54BF6A7C54CF6A8C54DF66B
:10455800A9C54EF606012307D8A02407424B432BD2
:104568003051425D4351800A0501FB6F060131510C
:10457800800A0501FB59D8B0C4EF22F0C6EF22F03B
:10458800D5EF22F006014ABFD3EF22F04A5109E1E4
:104598004B0E495DD8A0D3EF22F0D5EF22F0CEEF35
:1045A80021F0000E0601436F4F0E426F6E0E42253A
:1045B800D96E090E4321DA6EDF6A6E0E0501FB6FB4
:1045C800090EFC6F060149510501FB5F06014A51BE
:1045D8000501FC5B060142510501FB25636F0601DD
:1045E80043510501FC21646F6E0E656F090E666FFD
:1045F80049C667F54AC668F5C3EC5DF0060149513E
:10460800425D496F4A5143594A6F4451D8A40FEF4C
:1046180023F012EF23F0010E13EF23F0000E426F88
:10462800436BDDA31AEF23F01CEF23F052EF23F0C6
:104638002DEF23F006014907D8A04A076E0E492539
:10464800D96E090E4A21DA6E300EDF6E3807D8A00F
:1046580039073851425D4351800A0501FB6F060155
:104668003951800A0501FB59D8B03DEF23F03FEFDF
:1046780023F052EF23F006014951425D4351800A6D
:104688000501FB6F06014A51800A0501FB59D8A0B4
:1046980050EF23F052EF23F01EEF23F006014451B0
:1046A800D8B459EF23F05BEF23F066EF23F0490706
:1046B800D8A04A076E0E4925D96E090E4A21DA6E2E
:1046C80044C6DFF44251385F4351395B1CC677F565
:1046D8001DC678F56E0E49250501796F090E06018C
:1046E8004A2105017A6F38C67BF539C67CF5F6ECA8
:1046F80056F012001EC6D8F51FC6D9F520C6DAF541
:1047080021C6DBF522C6DCF523C6DDF524C6DEF5B9
:1047180025C6DFF5BFEC5FF0D8C546F6D9C547F624
:10472800DAC548F6DBC549F646C6E0F547C6E1F501
:1047380048C6E2F549C6E3F56AEC62F0E0C54EF614
:10474800E1C54FF6E2C550F6E3C551F6060120EE85
:1047580005F01C51D9261D51DA22DEC44AF6DEC402
:104768004BF6DEC44CF6DEC44DF6000E006F000EAC
:10477800016F480E026F420E036F4EC604F64FC615
:1047880005F650C606F651C607F66FEC48F0060166
:10479800D8B0D1EF23F0D3EF23F0F0EF23F04AC6DF
:1047A800BFF54BC6C0F54CC6C1F54DC6C2F5CD0E1A
:1047B8000501C36FCC0EC46FCC0EC56F3D0EC66F1E
:1047C800E0EC2AF0BFC54AF6C0C54BF6C1C54CF6A9
:1047D800C2C54DF65CEF24F0000E006F000E016FAD
:1047E800A00E026F410E036F4EC604F64FC605F6C3
:1047F80050C606F651C607F66FEC48F00601D8B069
:1048080008EF24F00AEF24F027EF24F04AC6BFF59A
:104818004BC6C0F54CC6C1F54DC6C2F59A0E05018A
:10482800C36F990EC46F990EC56F3E0EC66FE0EC4C
:104838002AF0BFC54AF6C0C54BF6C1C54CF6C2C57D
:104848004DF65CEF24F04EC600F64FC601F650C692
:1048580002F651C603F6000E046F000E056FA00E97
:10486800066F400E076F6FEC48F00601D8B03FEFB7
:1048780024F041EF24F05CEF24F04AC6BFF54BC6A4
:10488800C0F54CC6C1F54DC6C2F5000E0501C36F93
:10489800000EC46F000EC56F400EC66FE0EC2AF024
:1048A800BFC54AF6C0C54BF6C1C54CF6C2C54DF6E4
:1048B800060120EE01F01C51D9261D51DA22DEC472
:1048C800BFF5DEC4C0F5DEC4C1F5DEC4C2F546C618
:1048D800C3F547C6C4F548C6C5F549C6C6F5E0ECF4
:1048E8002AF0BFC526F6C0C527F6C1C528F6C2C539
:1048F80029F64EC600F64FC601F650C602F651C656
:1049080003F6000E0601046F000E056F480E066FD1
:10491800420E076F6FEC48F00601D8B096EF24F00E
:1049280098EF24F077EF26F046C652F647C653F6BE
:1049380048C654F649C655F6000E006F000E016FC2
:10494800F00E026F410E036F4EC604F64FC605F611
:1049580050C606F651C607F66FEC48F00601D8B007
:10496800B8EF24F0BAEF24F000EF25F0000E006F46
:10497800000E016F200E026F420E036F52C604F63E
:1049880053C605F654C606F655C607F66FEC48F04A
:104998000601D8B0D2EF24F0D4EF24F0DCEF24F0F5
:1049A800000E526F000E536F200E546F420E556F5B
:1049B80052C600F653C601F654C602F655C603F6AB
:1049C800000E046F000E056F200E066FC20E076FF3
:1049D8006FEC48F00601D8B0F4EF24F0F6EF24F0BD
:1049E800D3EF25F0000E526F000E536F200E546F58
:1049F800C20E556FD3EF25F0000E006F000E016F49
:104A0800200E026F410E036F4EC604F64FC605F620
:104A180050C606F651C607F66FEC48F00601D8B046
:104A280018EF25F01AEF25F08FEF25F04EC6BFF5E9
:104A38004FC6C0F550C6C1F551C6C2F5CD0E050129
:104A4800C36FCC0EC46F4C0EC56F3F0EC66FE0EC43
:104A58002AF0BFC53EF6C0C53FF6C1C540F6C2C57F
:104A680041F63EC600F63FC601F640C602F641C60C
:104A780003F652C604F653C605F654C606F655C6DE
:104A880007F66FEC48F00601D8B04DEF25F04FEF70
:104A980025F057EF25F03EC652F63FC653F640C6FE
:104AA80054F641C655F652C600F653C601F654C62A
:104AB80002F655C603F63EC663F53FC664F540C622
:104AC80065F541C666F56AEC61F063C504F664C530
:104AD80005F665C506F666C507F66FEC48F00601EB
:104AE800D8B079EF25F07BEF25F0D3EF25F03EC65F
:104AF80063F53FC664F540C665F541C666F56AECE0
:104B080061F063C552F664C553F665C554F666C5CB
:104B180055F6D3EF25F0000E006F000E016FA00EC2
:104B2800026F400E036F52C604F653C605F654C60C
:104B380006F655C607F66FEC48F00601D8B0A7EFA1
:104B480025F0A9EF25F0B1EF25F0000E526F000E09
:104B5800536FA00E546F400E556F52C600F653C6E1
:104B680001F654C602F655C603F6000E046F000E91
:104B7800056FA00E066FC00E076F6FEC48F00601B8
:104B8800D8B0C9EF25F0CBEF25F0D3EF25F0000E14
:104B9800526F000E536FA00E546FC00E556F52C661
:104BA800BFF553C6C0F554C6C1F555C6C2F50601D2
:104BB80020EE05F01C51D9261D51DA22DEC4AAF5D3
:104BC800DEC4ABF5DEC4ACF5DEC4ADF54AC6A6F569
:104BD8004BC6A7F54CC6A8F54DC6A9F5DEEC34F0D2
:104BE800A6C5C3F5A7C5C4F5A8C5C5F5A9C5C6F525
:104BF800E0EC2AF0BFC552F6C0C553F6C1C554F65D
:104C0800C2C555F6060120EE1DF01C51D9261D51CE
:104C1800DA22DEC463F5DEC464F5DEC465F5DEC4FD
:104C280066F552C667F553C668F554C669F555C6A4
:104C38006AF584EC28F0060120EE1DF01C51D926F7
:104C48001D51DA22050163C5DEF464C5DEF465C5CD
:104C5800DEF466C5DEF4060120EE11F01C51D926FB
:104C68001D51DA22DEC410F6DEC411F6DEC412F6D7
:104C7800DEC413F620EE1DF01C51D9261D51DA2290
:104C8800DEC408F6DEC409F6DEC40AF6DEC40BF696
:104C980020EE0DF01C51D9261D51DA22DEC40CF687
:104CA800DEC40DF6DEC40EF6DEC40FF604EC49F0E1
:104CB80008C614F609C615F60AC616F60BC617F680
:104CC80098EC49F0060120EE1DF01C51D9261D5123
:104CD800DA2210C6DEF411C6DEF412C6DEF413C6FC
:104CE800DEF485EF26F020EE1DF01C51D9261D516B
:104CF800DA22000EDE6E000EDE6E000EDE6E000E94
:104D0800DD6E20EE1DF01C51D9261D51DA22DEC4BD
:104D1800BFF5DEC4C0F5DEC4C1F5DEC4C2F54AC6BF
:104D2800C3F54BC6C4F54CC6C5F54DC6C6F5E0EC93
:104D38002AF0BFC52AF6C0C52BF6C1C52CF6C2C5D8
:104D48002DF6060120EE21F01C51D9261D51DA223C
:104D5800DEC4DCF5DEC4DDF5DEC4DEF5DEC4DFF579
:104D680046C6D8F547C6D9F548C6DAF549C6DBF5CB
:104D7800BFEC5FF0D8C5BFF5D9C5C0F5DAC5C1F538
:104D8800DBC5C2F5060120EE09F01C51D9261D51DC
:104D9800DA22DEC4C3F5DEC4C4F5DEC4C5F5DEC45C
:104DA800C6F5E0EC2AF0BFC53AF6C0C53BF6C1C56A
:104DB8003CF6C2C53DF6330E0501C36F330EC46F12
:104DC800330EC56F3F0EC66F3AC6BFF53BC6C0F57A
:104DD8003CC6C1F53DC6C2F5E0EC2AF0BFC563F597
:104DE800C0C564F5C1C565F5C2C566F59A0E05016D
:104DF800C36F990EC46F990EC56F3E0EC66F28C754
:104E0800BFF529C7C0F52AC7C1F52BC7C2F5E0EC25
:104E18002AF0BFC567F5C0C568F5C1C569F5C2C543
:104E28006AF584EC28F063C53AF664C53BF665C5B7
:104E38003CF666C53DF63AC628F73BC629F73CC698
:104E48002AF73DC62BF7060120EE21F01C51D92682
:104E58001D51DA2246C6DEF447C6DEF448C6DEF443
:104E680049C6DEF42AC667F52BC668F52CC669F56F
:104E78002DC66AF526C663F527C664F528C665F506
:104E880029C666F584EC28F063C52EF664C52FF6AE
:104E980065C530F666C531F62EC663F52FC664F5CE
:104EA80030C665F531C666F53AC667F53BC668F59E
:104EB8003CC669F53DC66AF584EC28F063C542F640
:104EC80064C543F665C544F666C545F61CC6D9F4FF
:104ED8001DC6DAF4DE04D8A474EF27F076EF27F0C5
:104EE800F7EF27F0060145BF7EEF27F07CEF27F0AC
:104EF80088EF27F0000E326F000E336F000E346F0C
:104F0800BF0E356F90EF27F0000E326F000E336F33
:104F1800000E346F3F0E356F42C667F543C668F51D
:104F280044C669F545C66AF532C663F533C664F505
:104F380034C665F535C666F584EC28F063C518F601
:104F480064C519F665C51AF666C51BF66CEC4CF017
:104F580006011851CB271951CC23000E0C6F000EF7
:104F68000D6F480E0E6F450E0F6FCBC698F5CCC669
:104F780099F50501000E99BFFF0E9A6F9B6F010E00
:104F88007DEC43F098C508F699C509F69AC50AF666
:104F98009BC50BF604EC49F008C614F609C615F6CD
:104FA8000AC616F60BC617F6000E0601106F000E9D
:104FB800116F000E126F000E136F98EC49F010C6B7
:104FC80018F611C619F612C61AF613C61BF66CECBB
:104FD8004CF018C6CBF619C6CCF6CBC61CF6CCC618
:104FE8001DF683EF28F01CC6D9F41DC6DAF4020EAC
:104FF800DE18D8A402EF28F004EF28F083EF28F099
:10500800060145BF0CEF28F00AEF28F016EF28F04C
:10501800000E366F000E376F000E386FBF0E396FF7
:105028001EEF28F0000E366F000E376F000E386F37
:105038003F0E396F42C667F543C668F544C669F541
:1050480045C66AF536C663F537C664F538C665F5EC
:1050580039C666F584EC28F063C518F664C519F6F8
:1050680065C51AF666C51BF66CEC4CF006011851BE
:10507800C9271951CA23000E0C6F000E0D6F480E78
:105088000E6F450E0F6FC9C698F5CAC699F505018A
:10509800000E99BFFF0E9A6F9B6F010E7DEC43F0D7
:1050A80098C508F699C509F69AC50AF69BC50BF680
:1050B80004EC49F008C614F609C615F60AC616F631
:1050C8000BC617F6000E0601106F000E116F000ECA
:1050D800126F000E136F98EC49F010C618F611C63F
:1050E80019F612C61AF613C61BF66CEC4CF018C665
:1050F800C9F619C6CAF6C9C61CF6CAC61DF61200F4
:1051080005016651800B6F6F66516625716F65AF3B
:1051180090EF28F092EF28F093EF28F07181715109
:10512800D8B499EF28F09BEF28F0AFEF28F0712959
:10513800D8A4A1EF28F0A3EF28F0ABEF28F0000ED9
:10514800636F000E646F000E656F000E666F658FEB
:10515800666BB7EF28F0000E636F000E646F000EE9
:10516800656F000E666F6A51800B706F6F51701912
:10517800D8B4C1EF28F0C3EF28F0C4EF28F06F8D42
:105188006A516A25706F69AFCCEF28F0CEEF28F02E
:10519800CFEF28F070817051D8B4D5EF28F0D7EF51
:1051A80028F0EBEF28F07029D8A4DDEF28F0DFEF26
:1051B80028F0E7EF28F0000E676F000E686F000E0A
:1051C800696F000E6A6F698F6A6BF3EF28F0000E43
:1051D800676F000E686F000E696F000E6A6F71517D
:1051E800705DD8B0FAEF28F0FCEF28F023EF29F033
:1051F8006FAD01EF29F003EF29F005EF29F0800EDC
:105208006F1B71C572F570C571F572C570F563C510
:1052180072F567C563F572C567F564C572F568C54B
:1052280064F572C568F565C572F569C565F572C539
:1052380069F566C572F56AC566F572C56AF5726B79
:10524800715170C56BF56C6B6B5F000E6C5B6CBF5E
:1052580037EF29F06C5109E11A0E6B5DD8A037EFD2
:1052680029F039EF29F070EF29F0635164116511C5
:105278006611D8A442EF29F045EF29F0010E46EF58
:1052880029F0000E726F000E636F000E646F000E3F
:10529800656F000E666F70C571F579EF29F072A120
:1052A80058EF29F05AEF29F060EF29F0D8907231C1
:1052B8000109726F62EF29F0D890723363A167EF2A
:1052C80029F069EF29F06AEF29F0728F66356633A5
:1052D800653364336333712B7051715DD8A077EFF8
:1052E80029F079EF29F053EF29F06FBD7EEF29F00F
:1052F80080EF29F0C0EF29F07151D8A486EF29F08A
:1053080088EF29F092EF29F0000E636F000E646FAA
:10531800000E656F000E666FDFEF2AF06751632796
:1053280068516423695165236A51662366A19FEF1A
:1053380029F0A1EF29F04DEF2AF072A1A6EF29F08C
:10534800A8EF29F0AEEF29F0D89072310109726FF9
:10535800B0EF29F0D890723363A1B5EF29F0B7EF19
:1053680029F0B8EF29F0728F6635663365336433F8
:105378006333712B4DEF2AF06751635D68516459AF
:10538800695165596651800A6B6F6A51800A6B5979
:10539800D8B0D1EF29F0D3EF29F0FEEF29F063510F
:1053A800675D6B6F645168596C6F655169596D6FB2
:1053B80066516A596E6FFF0E6B25636FFF0E6C2185
:1053C800646FFF0E6D21656FFF0E6E21666F800E94
:1053D8006F1B726D7251D8A4F4EF29F0F6EF29F023
:1053E80006EF2AF0010E6327000E64236523662367
:1053F80006EF2AF06751635F6851645B6951655B2A
:105408006A51665B6351641165116611D8A40FEF88
:105418002AF011EF2AF046EF2AF07251D8A417EFBC
:105428002AF019EF2AF046EF2AF0000E636F000EFB
:10543800646F000E656F000E666FDFEF2AF0D8907C
:10544800633764376537663772AF2DEF2AF02FEF71
:105458002AF030EF2AF0638172A135EF2AF037EF96
:105468002AF03BEF2AF0D88072373DEF2AF0D89027
:1054780072377151D8B443EF2AF045EF2AF046EF5E
:105488002AF0710765AF4BEF2AF04DEF2AF023EFB2
:105498002AF0706B72AF53EF2AF055EF2AF06DEFD8
:1054A8002AF072C56BF57F0E6B17D8B45EEF2AF041
:1054B80060EF2AF064EF2AF0010E706F6DEF2AF0AA
:1054C80063A169EF2AF06BEF2AF06DEF2AF060EF25
:1054D8002AF07051D8B473EF2AF075EF2AF0A0EFD4
:1054E8002AF0010E6327000E64236523662366A154
:1054F80080EF2AF082EF2AF0A0EF2AF063C56BF55F
:1055080064C56CF565C56DF566C56EF56E356E33AB
:105518006D336C336B336BC563F56CC564F56DC562
:1055280065F56EC566F57129D8B49DEF2AF09FEF31
:105538002AF0A0EF2AF0712B7129D8B4A6EF2AF02F
:10554800A8EF2AF0B0EF2AF07151D8A4AEEF2AF0F4
:10555800B0EF2AF0C1EF2AF0000E636F000E646FFF
:10556800000E656F000E666F7151D8A4BEEF2AF069
:10557800C0EF2AF0C1EF2AF06F6B71A1C6EF2AF0D5
:10558800C8EF2AF0CBEF2AF0658FCCEF2AF0659FA1
:10559800D8907131666F6FAFD4EF2AF0D6EF2AF04A
:1055A800D7EF2AF0668F63C563F564C564F565C5F2
:1055B80065F566C566F512000501C251800BCB6F13
:1055C800C251C225D16FC1AFECEF2AF0EEEF2AF03D
:1055D800EFEF2AF0D181D151D8B4F5EF2AF0F7EFE7
:1055E8002AF00AEF2BF0D129D8A4FDEF2AF0FFEF1B
:1055F8002AF007EF2BF0000EBF6F000EC06F000EF1
:10560800C16F000EC26FC18F12EF2BF0000EBF6F7B
:10561800000EC06F000EC16F000EC26FC651800B26
:10562800CB1BC651C625CC6FC5AF1DEF2BF01FEFA6
:105638002BF020EF2BF0CC81CC51D8B426EF2BF0F7
:1056480028EF2BF03BEF2BF0CC29D8A42EEF2BF032
:1056580030EF2BF038EF2BF0000EC36F000EC46F45
:10566800000EC56F000EC66FC58F43EF2BF0000EFE
:10567800C36F000EC46F000EC56F000EC66FCC510D
:10568800D8B449EF2BF04BEF2BF053EF2BF0D1515F
:10569800D8A451EF2BF053EF2BF05DEF2BF0000E59
:1056A800BF6F000EC06F000EC16F000EC26FF3EF28
:1056B8002CF0C551BF03F3C4D6F5F4C4D7F5D651C1
:1056C800CD6FCE6BCF6BD06BD751D26FD36BD46B02
:1056D800D56BC451C003F3C4D6F5F4C4D7F5D6517D
:1056E800CD27000ECE23CF23D023D751D227000EAB
:1056F800D323D423D523C351C103F3C4D6F5F4C4AB
:10570800D7F5D651CD27000ECE23CF23D023D7519E
:10571800D227000ED323D423D523CFC5D0F5CEC5A9
:10572800CFF5CDC5CEF5CD6BC351C003F3C4D6F5C7
:10573800F4C4D7F5D651CD27D751CE23000ECF23A9
:10574800000ED023C451BF03F3C4D6F5F4C4D7F573
:10575800D651CD27D751CE23000ECF23000ED0230C
:10576800CFC5D0F5CEC5CFF5CDC5CEF5CD6BC351E0
:10577800BF03F3C4D6F5F4C4D7F5D651CD27D75116
:10578800CE23000ECF23000ED023C551C003F3C48F
:10579800D6F5F4C4D7F5D651D227D751D323000E66
:1057A800D423000ED523C451C103F3C4D6F5F4C4E1
:1057B800D7F5D651D227D751D323000ED423000EC4
:1057C800D523C551C103F3C4D6F5F4C4D7F5D651D2
:1057D800C76FD751C86FC96BCA6BC9C5CAF5C8C5E9
:1057E800C9F5C7C5C8F5C76BC751D227C851D32358
:1057F800C951D423CA51D523CDC5C7F5CEC5C8F5DF
:10580800CFC5C9F5D0C5CAF5190E10EF2CF0D89040
:10581800CA33C933C833C733E82E0BEF2CF0C7514E
:10582800D227C851D323C951D423CA51D523CFC5B0
:10583800D0F5CEC5CFF5CDC5CEF5CD6BCC51D1C504
:10584800C7F5C86BC727000EC823820EC725D66FB9
:10585800FF0EC821D76F46EF2CF0D890D237D33738
:10586800D437D537D0AF3BEF2CF03DEF2CF03EEFDF
:105878002CF0D281D890CD37CE37CF37D037D60756
:10588800D8A0D707D4AF4BEF2CF04DEF2CF031EF69
:105898002CF0CC6BD0AF53EF2CF055EF2CF079EF08
:1058A8002CF0FF0ECD15C76FFF0ECE15C86FFF0E7B
:1058B800CF15C96F7F0ED015CA6FC751C811C9114E
:1058C800CA11D8B46AEF2CF06CEF2CF070EF2CF002
:1058D800010ECC6F79EF2CF0D2A175EF2CF077EF99
:1058E8002CF079EF2CF06CEF2CF0CC51D8B47FEF82
:1058F8002CF081EF2CF0A5EF2CF0010ED227000E32
:10590800D323D423D523D5A18CEF2CF08EEF2CF004
:10591800A5EF2CF0D2C5C7F5D3C5C8F5D4C5C9F5D0
:10592800D5C5CAF5CA35CA33C933C833C733C7C59D
:10593800D2F5C8C5D3F5C9C5D4F5CAC5D5F5D64B72
:10594800D72BD7BFB0EF2CF0D75108E1D629D8A074
:10595800B0EF2CF0B2EF2CF0BCEF2CF0000ED26FB1
:10596800000ED36F800ED46F7F0ED56FE9EF2CF049
:10597800D7BFC9EF2CF0D75106E1D605D8B0C7EF8D
:105988002CF0C9EF2CF0D4EF2CF0000ED26F000EE3
:10599800D36F000ED46F000ED56FCB6BE9EF2CF0F0
:1059A800D6C5D1F5FF0ED217FF0ED3177F0ED41729
:1059B800000ED517D1A1E3EF2CF0E5EF2CF0E6EFC0
:1059C8002CF0D48FD890D131D56FCB51D513D2C507
:1059D800BFF5D3C5C0F5D4C5C1F5D5C5C2F512000C
:1059E80006011E6F1C0E06011E19D8A4FEEF2CF02E
:1059F80000EF2DF007EF2EF0000E0501C36F000E2B
:105A0800C46F110EC56F430EC66F000EAA6F000E4D
:105A1800AB6F7A0EAC6F440EAD6F1C0EA3EC41F069
:105A280005016BC598F56CC599F59A6B9B6B000ED3
:105A38007DEC43F098C5A6F599C5A7F59AC5A8F5D4
:105A48009BC5A9F5DEEC34F0A6C5BFF5A7C5C0F522
:105A5800A8C5C1F5A9C5C2F5E0EC2AF0BFC518F67E
:105A6800C0C519F6C1C51AF6C2C51BF66CEC4CF0D8
:105A780018C6C7F619C6C8F6160E65EC3DF0D8C5A7
:105A88001FF6D9C520F6DAC521F6DBC522F6000EC9
:105A98000501AA6F000EAB6F7A0EAC6F440EAD6FA6
:105AA800C7C698F5C8C699F59A6B9B6B000E7DEC36
:105AB80043F098C5C3F599C5C4F59AC5C5F59BC506
:105AC800C6F51FC6BFF520C6C0F521C6C1F522C65A
:105AD800C2F5E0EC2AF0BFC5A6F5C0C5A7F5C1C55B
:105AE800A8F5C2C5A9F5DEEC34F0A6C518F6A7C519
:105AF80019F6A8C51AF6A9C51BF66CEC4CF018C621
:105B0800A3F719C6A4F7260E0601C75D020EC859E9
:105B1800D8B091EF2DF093EF2DF09EEF2DF0C851F6
:105B280007E1970EC75DD8B09CEF2DF09EEF2DF0E2
:105B3800A6EF2DF0010EF26F000E1D6F010E1C6F07
:105B480004EF2FF0C85107E11F0EC75DD8B0AFEFC3
:105B58002DF0B1EF2DF0B9EF2DF0020EF26F000E1F
:105B68001D6F020E1C6F04EF2FF0CD0E0501C36FE1
:105B7800CC0EC46F8C0EC56F3F0EC66FDBC698F592
:105B8800DCC699F59A6B9B6B000E7DEC43F098C5CB
:105B9800BFF599C5C0F59AC5C1F59BC5C2F5E0EC3E
:105BA8002AF0BFC500F6C0C501F6C1C502F6C2C5D8
:105BB80003F6A3C798F5A4C799F505019A6B9B6BE3
:105BC800000E7DEC43F098C504F699C505F69AC514
:105BD80006F69BC507F66FEC48F00601D8B0F7EF5C
:105BE8002DF0F9EF2DF001EF2EF0030EF26F000EFD
:105BF8001D6F020E1C6F04EF2FF0000E1D6F000EBC
:105C08001C6F04EF2FF0110E1E19D8A40EEF2EF002
:105C180010EF2EF001EF2EF0000E0501C36F000EFD
:105C2800C46F920EC56F420EC66F000EAA6F000EAB
:105C3800AB6F7A0EAC6F440EAD6F110EA3EC41F052
:105C480005016BC598F56CC599F59A6B9B6B000EB1
:105C58007DEC43F098C5A6F599C5A7F59AC5A8F5B2
:105C68009BC5A9F5DEEC34F0A6C5BFF5A7C5C0F500
:105C7800A8C5C1F5A9C5C2F5E0EC2AF0BFC518F65C
:105C8800C0C519F6C1C51AF6C2C51BF66CEC4CF0B6
:105C980018C6C5F619C6C6F6040E65EC3DF0D8C59B
:105CA8001FF6D9C520F6DAC521F6DBC522F6000EA7
:105CB8000501AA6F000EAB6F7A0EAC6F440EAD6F84
:105CC800C5C698F5C6C699F59A6B9B6B000E7DEC18
:105CD80043F098C5C3F599C5C4F59AC5C5F59BC5E4
:105CE800C6F51FC6BFF520C6C0F521C6C1F522C638
:105CF800C2F5E0EC2AF0BFC5A6F5C0C5A7F5C1C539
:105D0800A8F5C2C5A9F5DEEC34F0A6C518F6A7C5F6
:105D180019F6A8C51AF6A9C51BF66CEC4CF018C6FE
:105D2800A1F719C6A2F72C0E0601C55D010EC659CA
:105D3800D8A0A1EF2EF0A3EF2EF0ABEF2EF0040EBB
:105D4800F26F000E1D6F010E1C6F04EF2FF0C6518D
:105D580007E1100EC55DD8B0B4EF2EF0B6EF2EF007
:105D6800BEEF2EF0050EF26F000E1D6F020E1C6FB7
:105D780004EF2FF0CD0E0501C36FCC0EC46F8C0E4F
:105D8800C56F3F0EC66FD9C698F5DAC699F59A6BF6
:105D98009B6B000E7DEC43F098C5BFF599C5C0F527
:105DA8009AC5C1F59BC5C2F5E0EC2AF0BFC500F65F
:105DB800C0C501F6C1C502F6C2C503F6A1C798F56C
:105DC800A2C799F505019A6B9B6B000E7DEC43F019
:105DD80098C504F699C505F69AC506F69BC507F653
:105DE8006FEC48F00601D8B0FCEF2EF0FEEF2EF075
:105DF80001EF2EF0060EF26F000E1D6F020E1C6FE3
:105E0800120051C6D9F452C6DAF4DEC4F6F4DDC481
:105E1800F7F4000EF86E0800F550250AD8A417EF1D
:105E28002FF019EF2FF0FDEF30F051C6D9F452C61C
:105E3800DAF4DE2A000EDD22000E0601C26F000E23
:105E4800C16FC1C6DDF6C369C469576B4CEF2FF04B
:105E5800DD8351C6D9F452C6DAF4DE2A000EDD22FB
:105E68004CEF2FF0010E576F4CEF2FF051C6D9F4BD
:105E780052C6DAF4DEC4F6F4DDC4F7F4000EF86EA8
:105E88000800F550300AD8B42CEF2FF036EF2FF079
:105E98005751D8B452EF2FF054EF2FF03AEF2FF0BC
:105EA80051C663F552C664F553C665F554C666F522
:105EB800CBEC50F063C5C1F664C5C2F60601C2BF9B
:105EC8006AEF2FF068EF2FF06FEF2FF0DD81C16DD3
:105ED800C21FD8B0C22B51C6D9F452C6DAF4DEC4F8
:105EE800F6F4DDC4F7F4000EF86E0800F5502E0A3B
:105EF800D8A481EF2FF083EF2FF098EF2FF051C641
:105F0800D9F452C6DAF4DE2A000EDD2251C663F552
:105F180052C664F553C665F554C666F5CBEC50F029
:105F280063C5C3F664C5C4F651C6D9F452C6DAF4DB
:105F3800DEC45DF6DDC45EF65DC6F6F45EC6F7F453
:105F4800000EF86E0800F550640AD8B4AEEF2FF0D2
:105F5800B0EF2FF0C0EF2FF05DC6F6F45EC6F7F491
:105F6800000EF86E0800F550690AD8A4BEEF2FF0AD
:105F7800C0EF2FF0EFEF2FF053C6D9F454C6DAF480
:105F8800DFC455F6020EDE26DFC456F6000EDD220B
:105F980055C6D9F456C6DAF4DEC459F6DDC45AF645
:105FA800010E06015D25556F000E5E21566F51C624
:105FB800D9F452C6DAF455C6DEF456C6DDF44FC637
:105FC80080F550C681F559C682F55AC683F59BEC13
:105FD80042F014EF31F05DC6F6F45EC6F7F4000E39
:105FE800F86E0800F550580AD8A4FDEF2FF0FFEF1F
:105FF8002FF03EEF30F053C6D9F454C6DAF4DFC4BC
:1060080055F6020EDE26DFC456F6000EDD2255C612
:10601800D9F456C6DAF4DEC459F6DDC45AF6010ED0
:1060280006015D25556F000E5E21566F51C6D9F4E5
:1060380052C6DAF455C6DEF456C6DDF430EF30F059
:106048004FC680F550C681F559C682F55AC683F504
:106058009BEC46F014EF31F05DC6F6F45EC6F7F43B
:10606800000EF86E0800F550580AD8B424EF30F046
:106078003EEF30F051C6D9F452C6DAF4DEC45DF60C
:10608800DDC45EF65DC6F6F45EC6F7F4000EF86E83
:106098000800F5C458F65CEF30F05D4B5E2B6CEFF2
:1060A80030F06C0E586F6CEF30F0586B6CEF30F0CE
:1060B800060158514C0AD8B451EF30F02A0AD8B426
:1060C80055EF30F00A0AD8B451EF30F059EF30F0FC
:1060D8005DC6F6F45EC6F7F4000EF86E0800F550DB
:1060E800660AD8A47AEF30F07CEF30F0F4EF30F0A5
:1060F800B2EF30F053C6D9F454C6DAF4DFC455F61B
:10610800040EDE26DFC456F6000EDD2255C6D9F48D
:1061180056C6DAF4DEC459F6DEC45AF6DEC45BF6B7
:10612800DEC45CF6BDEF30F053C6D9F454C6DAF4D9
:10613800DFC455F6040EDE26DFC456F6000EDD2257
:1061480055C6D9F456C6DAF4DEC459F6DEC45AF692
:10615800DEC45BF6DEC45CF6BDEF30F058514C0A85
:10616800D8B498EF30F0200AD8B47EEF30F0BDEF05
:1061780030F0010E5D25556F000E5E21566F51C639
:10618800D9F452C6DAF455C6DEF456C6DDF4E6EFA5
:1061980030F04FC61CF650C61DF659C61EF65AC634
:1061A8001FF65BC620F65CC621F65DC6F6F45EC631
:1061B800F7F4000EF86E0800F5C422F608EC1EF09D
:1061C80014EF31F05DC6F6F45EC6F7F4000EF86E13
:1061D8000800F550660AD8B4CDEF30F0F4EF30F08F
:1061E80051C6D9F452C6DAF4DE2A000EDD2214EFC5
:1061F80031F051C6D9F452C6DAF4DEC4F6F4DDC47F
:10620800F7F4000EF86E0800F5500501676F686B2B
:106218004FC669F550C66AF532EC51F0F4EF30F02C
:106228001200030E4DEC61F063C5ECF564C5EDF5A5
:10623800000E0501AA6FF00EAB6F7F0EAC6F450E16
:10624800AD6FECC598F5EDC599F5000E99BFFF0E39
:106258009A6F9B6F010E7DEC43F098C5A6F599C522
:10626800A7F59AC5A8F59BC5A9F5DEEC34F0A6C537
:10627800BFF5A7C5C0F5A8C5C1F5A9C5C2F56F0E7C
:106288000501C36F120EC46F830EC56F400EC66F33
:10629800E0EC2AF0BFC5F6F5C0C5F7F5C1C5F8F5BD
:1062A800C2C5F9F5F6C524F7F7C525F7F8C526F7E9
:1062B800F9C527F779EC65F063C5F2F564C5F3F520
:1062C80065C5F4F566C5F5F520C767F521C768F516
:1062D80022C769F523C76AF5B7EC59F067C5EEF52B
:1062E80068C5EFF569C5F0F56AC5F1F51CC7DCF5B9
:1062F8001DC7DDF51EC7DEF51FC7DFF5F6C5D8F5E6
:10630800F7C5D9F5F8C5DAF5F9C5DBF5BFEC5FF0E7
:10631800D8C5E0F5D9C5E1F5DAC5E2F5DBC5E3F5A1
:106328006AEC62F0E0C500F6E1C501F6E2C502F6E6
:10633800E3C503F6CD0E0601046FCC0E056F4C0EB7
:10634800066F3D0E076F6FEC48F00601D8B0AFEF4F
:1063580031F0B1EF31F0BCEF31F0050EE461B7EF89
:1063680031F0B9EF31F0BDEF31F0E42BBDEF31F092
:10637800E46BF6C51CF7F7C51DF7F8C51EF7F9C598
:106388001FF7EFEF32F0F36B040EE465CEEF31F058
:10639800D0EF31F0FEEF32F0F6C500F6F7C501F6A2
:1063A800F8C502F6F9C503F6660E046F660E056FAA
:1063B800E60E066F3F0E076F6FEC48F00601D8A097
:1063C800E8EF31F0EAEF31F020EF32F0F6C500F6F1
:1063D800F7C501F6F8C502F6F9C503F6CD0E046F48
:1063E800CC0E056F0C0E066F400E076F6FEC48F071
:1063F8000601D8B002EF32F004EF32F020EF32F0AD
:106408000501F151F0110BE1E80EEE5D030EEF59B5
:10641800D8A011EF32F013EF32F0FEEF32F0010E98
:106428000601E56FF2C520F7F3C521F7F4C522F799
:10643800F5C523F7FEEF32F0F6C500F6F7C501F60D
:10644800F8C502F6F9C503F69A0E046F990E056FA2
:10645800190E066F400E076F6FEC48F00601D8A0C2
:1064680038EF32F03AEF32F016EF32F00501F15121
:10647800F0110BE1E80EEE5D030EEF59D8A047EFDF
:1064880032F049EF32F04EEF32F0020E0601E56FBE
:1064980016EF32F0FEEF32F0010EF36F040EE465F2
:1064A80058EF32F05AEF32F0FEEF32F0660E006F1E
:1064B800660E016FA60E026F3F0E036FF6C504F657
:1064C800F7C505F6F8C506F6F9C507F66FEC48F006
:1064D8000601D8A072EF32F074EF32F08FEF32F08D
:1064E8000501F151F0110BE1E80EEE5D030EEF59D5
:1064F800D8A081EF32F083EF32F0FEEF32F00601E0
:10650800E56BF2C520F7F3C521F7F4C522F7F5C509
:1065180023F7FEEF32F0F6C500F6F7C501F6F8C529
:1065280002F6F9C503F69A0E046F990E056F190E57
:10653800066F400E076F6FEC48F00601D8A0A7EF72
:1065480032F0A9EF32F016EF32F00501F151F011F7
:106558000BE1E80EEE5D030EEF59D8A0B6EF32F06E
:10656800B8EF32F04EEF32F049EF32F0020EF36F2F
:10657800040EE465C2EF32F0C4EF32F0FEEF32F001
:10658800660E006F660E016FA60E026F3F0E036F58
:10659800F6C504F6F7C505F6F8C506F6F9C507F613
:1065A8006FEC48F00601D8A0DCEF32F0DEEF32F0F5
:1065B800FEEF32F00501F151F0110BE1D00EEE5D66
:1065C800070EEF59D8A0EBEF32F0EDEF32F0FEEF07
:1065D80032F083EF32F0E551000AD8B4C7EF31F05A
:1065E800010AD8B450EF32F0030AD8B4BAEF32F047
:1065F800FEEF32F01200060108510911D8A407EF86
:1066080033F009EF33F013EF33F0000E086F000E8C
:10661800096F000E0A6F000E0B6FDDEF34F079EC96
:1066280065F063C51AF664C51BF665C51CF666C534
:106638001DF6060120EE08F00851D9260951DA2284
:10664800DEC463F5DEC464F5DEC465F5DEC466F554
:106658000AC667F50BC668F50CC669F50DC66AF576
:106668004AEC56F00501D8B03CEF33F03EEF33F07A
:10667800CDEF33F0060120EE08F00851D926095174
:10668800DA220AC6DEF40BC6DEF40CC6DEF40DC64A
:10669800DEF408C6D9F409C6DAF4DEC400F6DEC4AE
:1066A80001F6DEC402F6DEC403F60AC604F60BC61B
:1066B80005F60CC606F60DC607F66FEC48F006019F
:1066C800D8B069EF33F06BEF33F09BEF33F008C6C7
:1066D800D9F409C6DAF410EE04F00851E12609519C
:1066E800E222DEC4E6F4DEC4E6F4DEC4E6F4DEC488
:1066F800E6F420EE0CF00851D9260951DA221AC620
:10670800DEF41BC6DEF41CC6DEF41DC6DEF420EE85
:1067180010F00851D9260951DA220EC6DEF40FC648
:10672800DEF410C6DEF411C6DEF4CDEF33F020EE51
:1067380004F00851D9260951DA220AC6DEF40BC63C
:10674800DEF40CC6DEF40DC6DEF408C6D9F409C6BC
:10675800DAF40AC6DEF40BC6DEF40CC6DEF40DC6A7
:10676800DEF420EE0CF00851D9260951DA221AC6B7
:10677800DEF41BC6DEF41CC6DEF41DC6DEF420EE15
:1067880010F00851D9260951DA22DE6ADE6ADE6A7B
:10679800DD6A060120EE10F00851D9260951DA22E7
:1067A800DE50DE10DE10DE10D8A4DDEF33F0DFEFB0
:1067B80033F0EDEF33F008C6D9F409C6DAF4DEC4D5
:1067C80008F6DEC409F6DEC40AF6DEC40BF6DDEF11
:1067D80034F020EE0CF00851D9260951DA22DEC433
:1067E80067F5DEC468F5DEC469F5DEC46AF5B7ECA2
:1067F80059F067C51EF668C51FF669C520F66AC553
:1068080021F6060120EE10F00851D9260951DA22A6
:10681800DE501E5DDE501F59DE502059DE502159D2
:10682800D8A019EF34F01BEF34F03BEF34F020EE32
:1068380008F00851D9260951DA2208C6E1F409C638
:10684800E2F4DEC4E6F4DEC4E6F4DEC4E6F4DEC454
:10685800E6F408C6D9F409C6DAF4DEC408F6DEC4DC
:1068680009F6DEC40AF6DEC40BF6DDEF34F01EC608
:1068780098F51FC699F520C69AF521C69BF5000E16
:106888007DEC43F098C5A6F599C5A7F59AC5A8F576
:106898009BC5A9F5060120EE10F00851D92609512B
:1068A800DA22DEC498F5DEC499F5DEC49AF5DEC4B2
:1068B8009BF5000E7DEC43F098C5AAF599C5ABF59C
:1068C8009AC5ACF59BC5ADF5DEEC34F0A6C512F65D
:1068D800A7C513F6A8C514F6A9C515F612C6C3F5BB
:1068E80013C6C4F514C6C5F515C6C6F5060120EECF
:1068F80004F00851D9260951DA22DEC4DCF5DEC4D9
:10690800DDF5DEC4DEF5DEC4DFF520EE08F0085163
:10691800D9260951DA22DEC4D8F5DEC4D9F5DEC499
:10692800DAF5DEC4DBF5BFEC5FF0D8C5BFF5D9C535
:10693800C0F5DAC5C1F5DBC5C2F5E0EC2AF0BFC584
:1069480016F6C0C517F6C1C518F6C2C519F616C69B
:1069580063F517C664F518C665F519C666F5060128
:1069680020EE04F00851D9260951DA22DEC467F571
:10697800DEC468F5DEC469F5DEC46AF584EC28F087
:1069880008C6D9F409C6DAF4050163C5DEF464C59E
:10699800DEF465C5DEF466C5DEF408C6D9F409C6BA
:1069A800DAF4DEC408F6DEC409F6DEC40AF6DEC48C
:1069B8000BF612000501A951800BB66FA951A92544
:1069C800BD6FA8AFEAEF34F0ECEF34F0EDEF34F040
:1069D800BD81BD51D8B4F3EF34F0F5EF34F009EFD1
:1069E80035F0BD29D8A4FBEF34F0FDEF34F005EF06
:1069F80035F0000EA66F000EA76F000EA86F000EF0
:106A0800A96FA88FA96B11EF35F0000EA66F000EC5
:106A1800A76F000EA86F000EA96FAD51800BB61BB3
:106A2800AD51AD25BE6FACAF1CEF35F01EEF35F0A4
:106A38001FEF35F0BE81BE51D8B425EF35F027EFF2
:106A480035F03BEF35F0BE29D8A42DEF35F02FEF08
:106A580035F037EF35F0000EAA6F000EAB6F000E61
:106A6800AC6F000EAD6FAC8FAD6B43EF35F0000E21
:106A7800AA6F000EAB6F000EAC6F000EAD6FAA517F
:106A8800AB11AC11AD11D8A44CEF35F04EEF35F089
:106A980066EF35F0000EA66F000EA76F000EA86F08
:106AA800000EA96F800EA8137F0EA913B651A91363
:106AB800A6C5A6F5A7C5A7F5A8C5A8F5A9C5A9F5AA
:106AC800A6EF36F0BD51D8A46CEF35F06EEF35F077
:106AD80078EF35F0000EA66F000EA76F000EA86FB6
:106AE800000EA96FA6EF36F0BE51BDC5AEF5AF6B6F
:106AF800AE5F000EAF5B7F0EAE25B76F000EAF2105
:106B0800B86FA6C5B2F5A7C5B3F5A8C5B4F5A9C5AC
:106B1800B5F5000EA66F000EA76F000EA86F000E49
:106B2800A96F000EB96F000EBA6F000EBB6F000E92
:106B3800BC6FBE6BD8EF35F0BE51D8B4A6EF35F0B8
:106B4800A8EF35F0BFEF35F0D890B237B337B43788
:106B5800B537D890A637A737A837A937BCAFB7EF4E
:106B680035F0B9EF35F0BAEF35F0A681D890B937DE
:106B7800BA37BB37BC37AA51B25DAB51B359AC5128
:106B8800B459AD51B559D8A0CCEF35F0CEEF35F0AA
:106B9800D7EF35F0BC8DAA51B25FAB51B35BAC51A6
:106BA800B45BAD51B55BBE2B190EBE65DEEF35F09B
:106BB800E0EF35F0A0EF35F0B251B311B411B511D3
:106BC800D8B4E9EF35F0EBEF35F003EF36F0B981E3
:106BD80003EF36F0D890A637A737A837A937BCAF48
:106BE800F8EF35F0FAEF35F0FBEF35F0A681D890E5
:106BF800B937BA37BB37BC37B707D8A0B807A8AF7B
:106C080008EF36F00AEF36F0EEEF35F0BE6BBCAFAA
:106C180010EF36F012EF36F036EF36F0FF0EB915FA
:106C2800AE6FFF0EBA15AF6FFF0EBB15B06F7F0EBC
:106C3800BC15B16FAE51AF11B011B111D8B427EF77
:106C480036F029EF36F02DEF36F0010EBE6F36EF35
:106C580036F0A6A132EF36F034EF36F036EF36F0E4
:106C680029EF36F0BE51D8B43CEF36F03EEF36F09F
:106C780062EF36F0010EA627000EA723A823A9234A
:106C8800A9A149EF36F04BEF36F062EF36F0A6C512
:106C9800AEF5A7C5AFF5A8C5B0F5A9C5B1F5B1352D
:106CA800B133B033AF33AE33AEC5A6F5AFC5A7F534
:106CB800B0C5A8F5B1C5A9F5B74BB82BB8BF6DEFEE
:106CC80036F0B85108E1B729D8A06DEF36F06FEF6C
:106CD80036F07AEF36F0000EB86FB769000EA66F7F
:106CE800000EA76F000EA86F000EA96FB8BF87EF40
:106CF80036F0B85106E1B705D8B085EF36F087EF22
:106D080036F094EF36F0000EB86F000EB76F000E35
:106D1800A66F000EA76F000EA86F000EA96FB66BC6
:106D2800B7C5BDF5BDA19BEF36F09DEF36F0A0EFDE
:106D380036F0A88FA1EF36F0A89FD890BD31A96F83
:106D48005AEF35F012000601F105D8B4AEEF36F06F
:106D5800B0EF36F0B9EF36F0030EF119D8A4B7EF5B
:106D680036F0B9EF36F060EF37F0000E0501AA6F84
:106D7800000EAB6F7A0EAC6F440EAD6F1C0EA3EC19
:106D880041F005016BC598F56CC599F59A6B9B6B3D
:106D9800000E7DEC43F098C5A6F599C5A7F59AC5F0
:106DA800A8F59BC5A9F5DEEC34F0A6C5BFF5A7C5C7
:106DB800C0F5A8C5C1F5A9C5C2F5000E0501C36F88
:106DC800000EC46F110EC56F430EC66FE0EC2AF0BB
:106DD800BFC564F7C0C565F7C1C566F7C2C567F723
:106DE800160E65EC3DF0D8C55AF6D9C55BF6DAC57E
:106DF8005CF6DBC55DF664C7C3F565C7C4F566C751
:106E0800C5F567C7C6F55AC6BFF55BC6C0F55CC60B
:106E1800C1F55DC6C2F5E0EC2AF0BFC5A6F5C0C550
:106E2800A7F5C1C5A8F5C2C5A9F5000E0501AA6F49
:106E3800000EAB6F7A0EAC6F440EAD6FDEEC34F023
:106E4800A6C560F7A7C561F7A8C562F7A9C563F726
:106E5800A8C622F6A9C623F6AAC624F6ABC625F606
:106E6800D2EC60F022C65CF723C65DF724C65EF755
:106E780025C65FF7AD0E06011C6F070E1D6F5CC7B8
:106E88001EF65DC71FF65EC720F65FC721F660C70E
:106E980022F661C723F662C724F663C725F67EEC9F
:106EA80023F01CC6CFF61DC6D0F6CFC665F5D0C6F2
:106EB80066F5010EF4EC5AF0020E0601F119D8B489
:106EC80068EF37F06AEF37F073EF37F0030EF11918
:106ED800D8A471EF37F073EF37F02CEF38F0000ECD
:106EE8000501AA6F000EAB6F7A0EAC6F440EAD6F42
:106EF800110EA3EC41F005016BC598F56CC599F529
:106F08009A6B9B6B000E7DEC43F098C5A6F599C56E
:106F1800A7F59AC5A8F59BC5A9F5DEEC34F0A6C57A
:106F2800BFF5A7C5C0F5A8C5C1F5A9C5C2F5000E2E
:106F38000501C36F000EC46F920EC56F420EC66F77
:106F4800E0EC2AF0BFC558F7C0C559F7C1C55AF7D4
:106F5800C2C55BF7040E65EC3DF0D8C55AF6D9C535
:106F68005BF6DAC55CF6DBC55DF658C7C3F559C7ED
:106F7800C4F55AC7C5F55BC7C6F55AC6BFF55BC6A3
:106F8800C0F55CC6C1F55DC6C2F5E0EC2AF0BFC528
:106F9800A6F5C0C5A7F5C1C5A8F5C2C5A9F5000ED7
:106FA8000501AA6F000EAB6F7A0EAC6F440EAD6F81
:106FB800DEEC34F0A6C554F7A7C555F7A8C556F7B3
:106FC800A9C557F7D7C698F5D8C699F505019A6B9C
:106FD8009B6B000E7DEC43F098C556F699C557F6A5
:106FE8009AC558F69BC559F656C622F657C623F6D3
:106FF80058C624F659C625F6B2EC60F022C650F7FA
:1070080023C651F724C652F725C653F7700E06015A
:107018001C6F080E1D6F50C71EF651C71FF652C7CA
:1070280020F653C721F654C722F655C723F656C78C
:1070380024F657C725F67EEC23F01CC6CDF61DC6F0
:10704800CEF6CDC665F5CEC666F5020EF4EC5AF05E
:1070580012003CC767F53DC768F53EC769F53FC7ED
:107068006AF5B7EC59F067C59AF568C59BF569C527
:107078009CF56AC59DF538C767F539C768F53AC7FD
:1070880069F53BC76AF5B7EC59F067C59EF568C561
:107098009FF569C5A0F56AC5A1F52C0EA3EC41F0D2
:1070A8006BC5A2F56CC5A3F55D50D8B45EEF38F09A
:1070B80060EF38F077EF38F079EC65F063C538F7B2
:1070C80064C539F765C53AF766C53BF779EC65F0ED
:1070D80063C53CF764C53DF765C53EF766C53FF730
:1070E800010E526E5D6A5350D8A47DEF38F07FEFE1
:1070F80038F07EEF39F00501A151A0110BE1880E9F
:107108009E5D130E9F59D8A08CEF38F08EEF38F0A3
:107118007EEF39F0010E536E7EEF39F05250D8A44D
:1071280098EF38F09AEF38F0AEEF38F09D519C1197
:107138000BE1B80E9A5D0B0E9B59D8A0A6EF38F05C
:10714800A8EF38F098EF39F00601F76B010E526E90
:1071580098EF39F05350D8A4B4EF38F0B6EF38F0C0
:10716800CEEF38F0730EA25D060EA359D8A0BFEF7C
:1071780038F0C1EF38F0CEEF38F0010E546E79ECEC
:1071880065F063C53CF764C53DF765C53EF766C560
:107198003FF7526A5304D8A4D4EF38F0D6EF38F04A
:1071A80098EF39F0350E0501A25D080EA359D8A055
:1071B800E0EF38F0E2EF38F098EF39F0010E546E56
:1071C80079EC65F063C53CF764C53DF765C53EF7E6
:1071D80066C53FF7526A98EF39F05A6A010E060100
:1071E800F76F5304D8A4FBEF38F0FDEF38F030EF19
:1071F80039F0A40E0501A25D060EA359D8B007EF19
:1072080039F009EF39F00CEF39F0546AE4EF38F04F
:10721800D70EA25D060EA359D8A015EF39F017EFC7
:1072280039F098EF39F03A0EA25D070EA359D8B09D
:1072380020EF39F022EF39F098EF39F0020E546E52
:1072480079EC65F063C53CF764C53DF765C53EF765
:1072580066C53FF798EF39F05350D8A436EF39F0A8
:1072680038EF39F098EF39F0A40E0501A25D060E4B
:10727800A359D8B042EF39F044EF39F048EF39F06C
:10728800010E536E09EF39F0D70EA25D060EA35911
:10729800D8A051EF39F053EF39F098EF39F03A0EA2
:1072A800A25D070EA359D8B05CEF39F05EEF39F054
:1072B80098EF39F022EF39F0010E5A6E350EA25DC3
:1072C800080EA359D8A06BEF39F06DEF39F071EFC4
:1072D80039F0010E546E24EF39F0A40EA25D060EAB
:1072E800A359D8B07AEF39F07CEF39F098EF39F03C
:1072F80009EF39F054500501986F996B9951000ABC
:10730800D8B489EF39F098EF39F09851000AD8B419
:1073180092EF38F0010AD8B4F1EF38F0030AD8B484
:1073280060EF39F098EF39F012000601F705D8B48C
:10733800A0EF39F0A2EF39F0A6EF39F0E5EF3AF017
:10734800E5EF3AF0F151D8A4ACEF39F0AEEF39F0EF
:10735800B0EF39F0E5EF3AF030C767F531C768F5B7
:1073680032C769F533C76AF5B7EC59F067C523F634
:1073780068C524F669C525F66AC526F62CC767F5DB
:107388002DC768F52EC769F52FC76AF5B7EC59F010
:1073980067C527F668C528F669C529F66AC52AF6B5
:1073A8000601F551D8B4DBEF39F0DDEF39F05BEFCA
:1073B8003AF01C0EF4EC2CF006011C512D6F2D0533
:1073C800D8A4E9EF39F0EBEF39F017EF3AF0ED51C7
:1073D800D8A4F1EF39F0F3EF39F002EF3AF079EC95
:1073E80065F063C530F764C531F765C532F766C522
:1073F80033F7010E0601ED6F5BEF3AF026512511C8
:107408000BE1E90E235D030E2459D8A00EEF3AF0E4
:1074180010EF3AF05BEF3AF0000ED46F010ED36F25
:10742800ED6B5BEF3AF0020E2D19D8A41EEF3AF07F
:1074380020EF3AF04BEF3AF0EC51D8A426EF3AF0AF
:1074480028EF3AF037EF3AF079EC65F063C530F79A
:1074580064C531F765C532F766C533F7010E060115
:10746800EC6F5BEF3AF026512511241109E1C90EA2
:10747800235DD8A042EF3AF044EF3AF05BEF3AF0E0
:10748800000ED46F020ED36FEC6B5BEF3AF0D35162
:10749800D411D8A452EF3AF054EF3AF05BEF3AF037
:1074A800000ED46F000ED36FED6B48EF3AF0F45135
:1074B800D8B461EF3AF063EF3AF0E5EF3AF0110E25
:1074C800F4EC2CF01CC62BF61DC62CF606012B0579
:1074D8002C11D8A472EF3AF074EF3AF0A0EF3AF01A
:1074E800EB51D8A47AEF3AF07CEF3AF08BEF3AF010
:1074F80079EC65F063C52CF764C52DF765C52EF7E3
:1075080066C52FF7010E0601EB6FE5EF3AF02A5139
:1075180029110BE1E90E275D030E2859D8A097EF32
:107528003AF099EF3AF0A4EF39F0000ED26F010E5D
:10753800D16FEB6BE5EF3AF0020E2B192C11D8A4A2
:10754800A8EF3AF0AAEF3AF0D5EF3AF0EA51D8A40A
:10755800B0EF3AF0B2EF3AF0C1EF3AF079EC65F0FB
:1075680063C52CF764C52DF765C52EF766C52FF7DB
:10757800010E0601EA6FE5EF3AF02A5129112811A8
:1075880009E1C90E275DD8A0CCEF3AF0CEEF3AF06A
:10759800E5EF3AF0000ED26F020ED16FEA6BE5EF1D
:1075A8003AF0D151D211D8A4DCEF3AF0DEEF3AF03C
:1075B800A4EF39F0000ED26F000ED16FEB6BD2EF53
:1075C8003AF01200DBC685F5DCC686F5DBC663F546
:1075D800DCC664F50501656B666B0601F5510501AE
:1075E800676F686B696B6A6B2BEC5BF063C56FF553
:1075F80064C570F565C571F566C572F5640E05015B
:10760800736F000E746F000E756F000E766FF9ECD5
:107618004CF0EB0E05016F25876FFF0E7021886F08
:10762800FF0E7121896FFF0E72218A6F8ABF21EFC9
:107638003BF01FEF3BF029EF3BF0000E876F000E89
:10764800886F000E896F000E8A6F0601DB510501F5
:107658007F6F0601DC510501806F816B826B87515A
:107668007F5D88518059895181598251800A836F81
:107678008A51800A8359D8B044EF3BF046EF3BF07B
:107688004CEF3BF0DBC687F5DCC688F5896B8A6B67
:1076980087C543F588C544F5D9C663F5DAC664F5E8
:1076A800656B666B0601F4510501676F686B696B62
:1076B8006A6B2BEC5BF063C56FF564C570F565C547
:1076C80071F566C572F5640E0501736F000E746F6F
:1076D800000E756F000E766FF9EC4CF0F10E050197
:1076E8006F25876FFF0E7021886FFF0E7121896FDC
:1076F800FF0E72218A6F8ABF86EF3BF084EF3BF062
:107708008EEF3BF0000E876F000E886F000E896FBA
:10771800000E8A6F0601D95105017F6F0601DA5103
:107728000501806F816B826B87517F5D885180591D
:10773800895181598251800A836F8A51800A8359FD
:10774800D8B0A9EF3BF0ABEF3BF0B1EF3BF0D9C6B7
:1077580087F5DAC688F5896B8A6B87C5D7F688C539
:10776800D8F60601D7514324D56FD8514420D66F97
:10777800D5510501855D0601D65105018659D8B058
:10778800C8EF3BF0CAEF3BF0EDEF3BF0435006018A
:10779800D55D05017F6F44500601D6590501806FFC
:1077A8007F51855D816F80518659826F836BD8A028
:1077B80083078351846FEC0E8125876FFF0E82212A
:1077C800886FFF0E8321896FFF0E84218A6FF3EF84
:1077D8003BF043C587F544C588F5896B8A6B8ABF3A
:1077E800FAEF3BF0F8EF3BF002EF3CF0000E876F4A
:1077F800000E886F000E896F000E8A6F85517F6FAB
:107808008651806F816B826B87517F5D885180596B
:10781800895181598251800A836F8A51800A83591C
:10782800D8B019EF3CF01BEF3CF021EF3CF085C5D8
:1078380087F586C588F5896B8A6B87C5ABF788C5D8
:10784800ACF7ABC77DF5ACC77EF5120040C767F54E
:1078580041C768F542C769F543C76AF5B7EC59F0FF
:1078680067C57DF568C57EF569C57FF56AC580F58C
:10787800020E0601F56143EF3CF045EF3CF04DEF99
:107888003CF0010EF4654BEF3CF04DEF3CF046EF59
:107898003DF05F04D8A453EF3CF055EF3CF046EFC1
:1078A8003DF079EC65F063C540F764C541F765C5FF
:1078B80042F766C543F7010E5E6E5F6A46EF3DF01C
:1078C8005BEC66F0050180517F110BE1210E7D5DB7
:1078D800030E7E59D8A073EF3CF075EF3CF064EFCF
:1078E8003DF0010E0601F5657CEF3CF07EEF3CF0C3
:1078F80089EF3CF0010EF46584EF3CF086EF3CF034
:1079080089EF3CF0020E5E6E586A010EF5658FEF46
:107918003CF091EF3CF09CEF3CF0F451D8A497EF89
:107928003CF099EF3CF09CEF3CF0030E5E6E576A1A
:10793800F551D8A4A2EF3CF0A4EF3CF0AFEF3CF037
:10794800010EF465AAEF3CF0ACEF3CF0AFEF3CF071
:10795800040E5E6E566A79EC65F063C540F764C53F
:1079680041F765C542F766C543F764EF3DF01EEC85
:1079780053F0010E0601F565C4EF3CF0C6EF3CF08C
:10798800D4EF3CF0F451D8A4CCEF3CF0CEEF3CF06F
:10799800D4EF3CF0020E6FEC5DF0030E5E6E576A9A
:1079A8000601F551D8A4DBEF3CF0DDEF3CF064EFC5
:1079B8003DF0010EF465E3EF3CF0E5EF3CF064EFD9
:1079C8003DF0010E6FEC5DF0040E5E6E566A64EFDA
:1079D8003DF041EC55F0010E0601F565F6EF3CF07F
:1079E800F8EF3CF003EF3DF0010EF465FEEF3CF0DC
:1079F80000EF3DF003EF3DF0020E5E6E586AF55160
:107A0800D8A409EF3DF00BEF3DF064EF3DF0010E17
:107A1800F46511EF3DF013EF3DF064EF3DF0010E1A
:107A28006FEC5DF0E8EF3CF0E8EC54F0010E060175
:107A3800F56521EF3DF023EF3DF02EEF3DF0010E0F
:107A4800F46529EF3DF02BEF3DF02EEF3DF0020EEF
:107A58005E6E586A010EF56534EF3DF036EF3DF085
:107A680064EF3DF0F451D8A43CEF3DF03EEF3DF01B
:107A780064EF3DF0020E6FEC5DF0030E5E6E576A28
:107A880064EF3DF05E5005017B6F7C6B7C51000A12
:107A9800D8B451EF3DF064EF3DF07B51010AD8B402
:107AA80064EF3CF0030AD8B4BBEF3CF0010AD8B449
:107AB800EDEF3CF0070AD8B418EF3DF064EF3DF065
:107AC80012000501F46F160E0501F419D8A46FEF22
:107AD8003DF071EF3DF0EAEF3DF0160EA3EC41F0FA
:107AE8006BC5ECF56CC5EDF5000E0501AA6FF00E3F
:107AF800AB6F7F0EAC6F450EAD6FECC598F5EDC55D
:107B080099F5000E99BFFF0E9A6F9B6F010E7DECE1
:107B180043F098C5A6F599C5A7F59AC5A8F59BC5DC
:107B2800A9F5DEEC34F0A6C5BFF5A7C5C0F5A8C514
:107B3800C1F5A9C5C2F53D0E0501C36F0A0EC46F94
:107B4800830EC56F400EC66FE0EC2AF0BFC5DCF5AA
:107B5800C0C5DDF5C1C5DEF5C2C5DFF5D60E050128
:107B6800E06F0D0EE16FA60EE26F3D0EE36FE0C50C
:107B7800C3F5E1C5C4F5E2C5C5F5E3C5C6F5DCC581
:107B8800BFF5DDC5C0F5DEC5C1F5DFC5C2F5E0EC62
:107B98002AF0BFC5A6F5C0C5A7F5C1C5A8F5C2C5D9
:107BA800A9F5CD0E0501AA6FCC0EAB6FCC0EAC6F4C
:107BB8003D0EAD6FDEEC34F0A6C5F0F5A7C5F1F5C6
:107BC800A8C5F2F5A9C5F3F56AEF3EF0040EF4195D
:107BD800D8A4F1EF3DF0F3EF3DF06AEF3EF0040E6C
:107BE800A3EC41F06BC5EEF56CC5EFF5000E050191
:107BF800AA6FF00EAB6F7F0EAC6F450EAD6FEEC582
:107C080098F5EFC599F5000E99BFFF0E9A6F9B6F17
:107C1800010E7DEC43F098C5A6F599C5A7F59AC560
:107C2800A8F59BC5A9F5DEEC34F0A6C5BFF5A7C538
:107C3800C0F5A8C5C1F5A9C5C2F56F0E0501C36F8A
:107C4800120EC46F830EC56F400EC66FE0EC2AF0AB
:107C5800BFC5E4F5C0C5E5F5C1C5E6F5C2C5E7F59C
:107C6800420E0501E86F110EE96F8A0EEA6F3D0EAC
:107C7800EB6FE8C5C3F5E9C5C4F5EAC5C5F5EBC5BD
:107C8800C6F5E4C5BFF5E5C5C0F5E6C5C1F5E7C568
:107C9800C2F5E0EC2AF0BFC5A6F5C0C5A7F5C1C579
:107CA800A8F5C2C5A9F5CD0E0501AA6FCC0EAB6F1C
:107CB8004C0EAC6F3E0EAD6FDEEC34F0A6C5F0F5A1
:107CC800A7C5F1F5A8C5F2F5A9C5F3F5F0C5BFF547
:107CD800F1C5C0F5F2C5C1F5F3C5C2F5000E050141
:107CE800C36F000EC46F7A0EC56F440EC66FE0EC0A
:107CF8002AF0BFC5D8F5C0C5D9F5C1C5DAF5C2C5E2
:107D0800DBF51200000E0501AA6F000EAB6F7A0EAC
:107D1800AC6F440EAD6F1C0EA3EC41F005016BC5B2
:107D280098F56CC599F59A6B9B6B000E7DEC43F04A
:107D380098C5A6F599C5A7F59AC5A8F59BC5A9F54F
:107D4800DEEC34F0A6C5BFF5A7C5C0F5A8C5C1F5DA
:107D5800A9C5C2F5000E0501C36F000EC46F110E50
:107D6800C56F430EC66FE0EC2AF0BFC564F7C0C507
:107D780065F7C1C566F7C2C567F7000E0501AA6FAA
:107D8800000EAB6F7A0EAC6F440EAD6F110EA3EC04
:107D980041F005016BC598F56CC599F59A6B9B6B1D
:107DA800000E7DEC43F098C5A6F599C5A7F59AC5D0
:107DB800A8F59BC5A9F5DEEC34F0A6C5BFF5A7C5A7
:107DC800C0F5A8C5C1F5A9C5C2F5000E0501C36F68
:107DD800000EC46F920EC56F420EC66FE0EC2AF01B
:107DE800BFC558F7C0C559F7C1C55AF7C2C55BF733
:107DF800E20E0601676F3B0E686F2C0EA3EC41F094
:107E08006BC569F66CC56AF68AEC63F06D0E0601FF
:107E1800676F3B0E686F160E65EC3DF0D8C569F6C6
:107E2800D9C56AF6DAC56BF6DBC56CF664C76DF6BC
:107E380065C76EF666C76FF667C770F660C771F6F6
:107E480061C772F662C773F663C774F6CFC675F674
:107E5800D0C676F68AEC63F0910E0601676F3B0E8A
:107E6800686F040E65EC3DF0D8C569F6D9C56AF6A9
:107E7800DAC56BF6DBC56CF658C76DF659C76EF6F2
:107E88005AC76FF65BC770F654C771F655C772F6D6
:107E980056C773F657C774F6CDC675F6CEC676F6CE
:107EA8008AEC63F0B50E0601676F3B0E686FA8C6D3
:107EB80069F6A9C66AF6AAC66BF6ABC66CF6F5C62D
:107EC8006DF66E6BF4C66FF6706B8AEC63F0EE0EAF
:107ED8000601676F3B0E686FF2C669F66A6B8AEC3B
:107EE80063F0D40E0601676F3B0E686F24C769F60E
:107EF80025C76AF626C76BF627C76CF68AEC63F0C7
:107F0800020E0601676F3C0E686F1C0EA3EC41F071
:107F18006BC569F66CC56AF68AEC63F0120000C797
:107F2800CFF501C7D0F502C7D1F503C7D2F5BFC554
:107F3800CFF5C0C5D0F5C1C5D1F5C2C5D2F5810E02
:107F48000501C36FFF0EC46FCFC5C5F5D0C5C6F513
:107F5800D1C5C7F5D2C5C8F5180EB8EF3FF0D8900F
:107F6800C833C733C633C533E82EB3EF3FF0C55126
:107F7800C325CD6F000EC421CE6FCEBFCDEF3FF02D
:107F8800CE5109E1170ECD5DD8A0CDEF3FF0CFEF70
:107F98003FF0D9EF3FF0BFC5BFF5C0C5C0F5C1C5BB
:107FA800C1F5C2C5C2F59DEF40F0CEBFDEEF3FF090
:107FB800E0EF3FF051EF40F0CDC5C3F5FF0EC46FC1
:107FC800FF0EC56F7F0EC66F000EC76FC367EFEF5A
:107FD8003FF0F7EF3FF0C735C733C633C533C43377
:107FE800C32FEAEF3FF0C4C5C9F5C5C5CAF5C6C574
:107FF800CBF5C7C5CCF50501C951CF15C36FCA511B
:10800800D015C46FCB51D115C56FCC51D215C66FE1
:10801800C351C411C511C611D8A415EF40F017EF0C
:1080280040F019EF40F0CFEF3FF0CFC5C3F5D0C512
:10803800C4F5D1C5C5F5D2C5C6F5200E29EF40F067
:10804800D890C633C533C433C333E82E24EF40F089
:10805800C351C411C511C611D8B435EF40F037EF7C
:1080680040F03FEF40F0C951CF27CA51D023CB5140
:10807800D123CC51D223C91DC36FCA1DC46FCB1DD8
:10808800C56FCC1DC66FC351CF17C451D017C5518A
:10809800D117C651D21795EF40F0CFC5C3F5D0C55B
:1080A800C4F5D1C5C5F5D2C5C6F5200E61EF40F0BF
:1080B800D890C633C533C433C333E82E5CEF40F0E1
:1080C800C351C411C511C611D8A46DEF40F06FEFAC
:1080D80040F079EF40F0000ECF6F000ED06F000E29
:1080E800D16F000ED26F95EF40F0D890CF35C36FA7
:1080F800D035C46FD135C56FD235C66FC351C411E1
:10810800C511C611D8B48BEF40F08DEF40F095EF54
:1081180040F0000ECF6F000ED06F800ED16FBF0EF3
:10812800D26FCFC5BFF5D0C5C0F5D1C5C1F5D2C591
:10813800C2F5120014C767F515C768F516C769F5C3
:1081480017C76AF5B7EC59F067C59EF668C59FF67C
:1081580069C5A0F66AC5A1F60601A151A0119F1133
:1081680009E10B0E9E5DD8A0BCEF40F0BEEF40F0D9
:10817800CAEF40F0DF51D8B4C4EF40F0C6EF40F08A
:10818800CAEF40F0010EE16F51EC66F00601E1051F
:10819800D8B4D1EF40F0D3EF40F0D5EF40F0A2EFE4
:1081A80041F0480E0501636F080E646FBE0E656FDF
:1081B800090E666FDFC667F5686BC3EC5DF00601F4
:1081C800DF51FE0FA46F480E0501636F080E646F40
:1081D800A4C665F542EC5AF063C595F764C596F7F1
:1081E800490E0601A425D96EDA6A080EDA22DF5094
:1081F8009A6F480EA425D96EDA6A080EDA22DF5083
:108208009B6F9B519D6F9C6B9A519C250701936FA7
:108218000601000E9D210701946F9351951909E1FC
:1082280094519619D8B41BEF41F01DEF41F021EF9E
:1082380041F052EC5FF0A2EF41F04EC8A2F6060101
:10824800DF51F70FA36FA251A319D8B42EEF41F055
:1082580030EF41F032EF41F01DEF41F0100E080110
:108268004919D8A43AEF41F03CEF41F049EF41F009
:108278000E0E4B19D8A443EF41F045EF41F049EFFA
:1082880041F050C8F5F652C8F4F6AA0E4819D8A419
:1082980050EF41F052EF41F01DEF41F05A0E4919ED
:1082A800D8A459EF41F05BEF41F01DEF41F093EF97
:1082B80041F04A05D8A463EF41F065EF41F06CEF57
:1082C80041F0480E0601796F080E7A6F2CEC4AF0DF
:1082D800020E08014A19D8A474EF41F076EF41F074
:1082E8001DEF41F0480E0601796F080E7A6F59ECC0
:1082F80044F01DEF41F0020E4A19D8A486EF41F070
:1083080088EF41F01DEF41F0480E0601796F080E25
:108318007A6FFDEC4EF01DEF41F01DEF41F04B512F
:10832800010AD8B45DEF41F0160AD8B47FEF41F0E6
:10833800400AD8B491EF41F01DEF41F01200050159
:108348008B6F000E0501936F000E926F8B514DECF1
:1083580061F0D89005019235D96E9335DA6E730EB7
:10836800D926050EDA2263C5DEF464C5DDF4924B26
:10837800932B93BFC9EF41F0935109E10C0E925D25
:10838800D8A0C9EF41F0CBEF41F0AAEF41F0000EC1
:10839800916F000E906F000E956F000E946F000E97
:1083A800976F000E966F40EF42F0D8909635D96ED1
:1083B8009735DA6E730ED926050EDA2296C56FF553
:1083C80097C570F5D8906F377037020E6F27000E7B
:1083D8007023730E6F25E16E050E7021E26EDE507C
:1083E800E65CDE50E658D8B0FCEF41F0FEEF41F015
:1083F8003EEF42F0D8909635D96E9735DA6E730E07
:10840800D926050EDA22DEC48CF5DDC48DF596C5B5
:108418006DF597C56EF5D8906D376E37020E6D27DE
:10842800000E6E23730E6D25D96E050E6E21DA6E61
:10843800D8909635E16E9735E26E730EE126050EFB
:10844800E222DEC4E6F4DDC4E5F496C56DF597C511
:108458006EF5D8906D376E37020E6D27000E6E23BD
:10846800730E6D25D96E050E6E21DA6E8CC5DEF49D
:108478008DC5DDF4964B972B0B0E6D6F000E6E6F4E
:1084880094516D5F95516E5B6D51965D9751800A61
:108498006F6F6E51800A6F59D8A055EF42F057EFB1
:1084A80042F0D9EF41F0944B952B95BF65EF42F020
:1084B800955109E10B0E945DD8A065EF42F067EF86
:1084C80042F0D3EF41F0000E956F020E946FD890F2
:1084D8009435D96E9535DA6E730ED926050EDA22E3
:1084E800DE509027DD509123944B952B95BF86EF56
:1084F80042F0955109E10A0E945DD8A086EF42F04A
:1085080088EF42F06BEF42F090C563F591C564F5D2
:10851800000E666F080E656FFCEC51F063C58EF5B2
:1085280064C58FF58EC56BF58FC56CF51200050116
:1085380083BFA1EF42F0A4EF42F0010EA5EF42F095
:10854800000E8A6F0601C4BFACEF42F0AEEF42F0F6
:10855800AFEF42F0DD93C4BFB6EF42F0B4EF42F0A4
:10856800BDEF42F0000E0501876F010E866FC1EF67
:1085780042F0C3C686F5C4C687F5C1C688F5C2C62B
:1085880089F505018A51D8B4CCEF42F0CEEF42F01C
:10859800E5EF42F08807D8A089078A51D8A4D7EF19
:1085A80042F0D9EF42F0DFEF42F0000E856F2B0E5C
:1085B800846FE3EF42F0000E856F2D0E846F84C543
:1085C8008AF5000E8C6F4F0E8B6F0901BD6B1FEF84
:1085D80043F005018B07D8A08C076E0E8B25D96E4A
:1085E800090E8C21DA6E82C563F583C564F5000E29
:1085F800666F0A0E656F9AEC55F063C569F564C538
:108608006AF54FEC62F005016951300FDF6E86079D
:10861800D8A087078807D8A0890782C563F583C5CE
:1086280064F5000E666F0A0E656FFCEC51F063C5C9
:1086380082F564C583F505018CBF2BEF43F08C519F
:1086480008E18B05D8A02BEF43F02DEF43F058EF4E
:1086580043F082518311D8A434EF43F036EF43F04E
:10866800EDEF42F087BF43EF43F0875106E18605FF
:10867800D8B041EF43F043EF43F0EDEF42F089BF4C
:108688004EEF43F0895108E18805D8A04EEF43F03A
:1086980050EF43F058EF43F00601DDB356EF43F0D7
:1086A80058EF43F0EDEF42F005018A51D8B45FEF7F
:1086B80043F061EF43F06CEF43F08B07D8A08C07D1
:1086C8006E0E8B25D96E090E8C21DA6E8AC5DFF401
:1086D80080C577F581C578F56E0E8B25796F090E03
:1086E8008C217A6F88C57BF589C57CF5F6EC56F048
:1086F80012000501A06F0501A051D8B486EF43F020
:1087080088EF43F0AAEF43F09BBF8FEF43F08DEF64
:1087180043F0AAEF43F098C59CF599C59DF59AC515
:108728009EF59BC59FF59C1F9D1F9E1F9F1F9C2B01
:10873800000E9D239E239F239CC5A2F59DC5A3F5EE
:108748009EC5A4F59FC5A5F5B2EF43F098C5A2F55F
:1087580099C5A3F59AC5A4F59BC5A5F59851991196
:108768009A119B11D8A4BBEF43F0BDEF43F0C7EFBC
:1087780043F0000E986F000E996F000E9A6F000E6E
:108788009B6F58EF44F0960EA16FD1EF43F0A12BE9
:10879800D890A533A433A333A233000EA2159C6F3F
:1087A800000EA3159D6F000EA4159E6FFE0EA51555
:1087B8009F6F9C519D119E119F11D8A4E6EF43F025
:1087C800E8EF43F0CBEF43F0F6EF43F0A12B010EB7
:1087D800A227000EA323A423A523D890A533A4334E
:1087E800A333A233000EA2159C6F000EA3159D6F34
:1087F800000EA4159E6FFF0EA5159F6F9C519D112D
:108808009E119F11D8A40BEF44F00DEF44F0EAEF4E
:1088180043F015EF44F0A107D890A237A337A43747
:10882800A537A4BF1AEF44F01CEF44F024EF44F03E
:10883800020EA16122EF44F024EF44F00FEF44F060
:10884800A1B129EF44F02BEF44F02CEF44F0A49FA2
:10885800D890A133A1C59CF59D6B9E6B9F6B9CC561
:108868009FF59E6B9D6B9C6B9C51A2139D51A3130E
:108878009E51A4139F51A513A051D8B446EF44F0BC
:1088880048EF44F050EF44F09BBF4FEF44F04DEFFA
:1088980044F050EF44F0A58FA2C598F5A3C599F50B
:1088A800A4C59AF5A5C59BF51200000E06018E6FAA
:1088B800000E8F6F000E906F000E916F21EE7DF20B
:1088C800100EDE6AE806FDE27D0E0501636F060EF6
:1088D800646F79C665F57AC666F5000E686F110E85
:1088E800676FC3EC5DF00601986B98517B6F7C6BEA
:1088F800070E7B27000E7C237D0E7B25D96E060E86
:108908007C21DA6E8E0E9825E16EE26A060EE2226E
:10891800DFC4E7F4150E06017B6FC60EE82EFED7FE
:108928007B2FFCD700000601982B030E98659FEF5C
:1089380044F0A1EF44F079EF44F08E0E0501BF6FCB
:10894800060EC06F040EC16F540E1BEC63F0D00E00
:1089580006017B6FC90EE82EFED77B2FFCD700D00F
:10896800550E06017D6F040E0501786F540EA4ECB8
:1089780061F078C592F679C593F6840E0501636FA8
:10898800060E646F92C665F593C666F5000E686FAD
:10899800040E676FC3EC5DF0030E0501786F5C0E83
:1089A800A4EC61F078C594F679C595F6060120EE39
:1089B80002F09451D9269551DA22DF50886F7D0E46
:1089C8000501636F060E646F0F0E656F42EC5AF077
:1089D80063C596F664C597F696C68DF60601975157
:1089E8008C6F996BFD0E676F3B0E686F7D0E992536
:1089F800D96EDA6A060EDA22DF507B6F7B51696F17
:108A08006A6B8AEC63F0100E060199610EEF45F06F
:108A180010EF45F016EF45F0D20E676F3B0E686F0A
:108A28008AEC63F00601992B100E99651EEF45F04C
:108A380020EF45F0F6EF44F07D0E0501636F060E5A
:108A4800646F000E666F000E656F000E686F110E82
:108A5800676F30EC61F012004B50020D000EF324EA
:108A6800D96E080EF420DA6EDE6ADD6A0201B2A75A
:108A780040EF45F042EF45F064EF45F04B50020DF2
:108A8800000EF324D96E080EF420DA6E0801DF8296
:108A980007017A517B117C11D8B455EF45F057EF97
:108AA80045F064EF45F002D864EF45F00500FA6E32
:108AB8007A51FD6E7B51FE6E7C51FF6EFA501200AA
:108AC8000201B2A36AEF45F06CEF45F08EEF45F076
:108AD8004B50020D000EF324D96E080EF420DA6E06
