:0430000081EF18F054
:10300800E43AE43AE43AE43A400CE43A400CE43A6C
:10301800163AE43ADE3AE43AE43AE43AE43AE43A8C
:10302800DF3A400C400C400CE43AE43AE43AE43A23
:10303800E43AE43AE43AC437C436E43AE43AB33713
:10304800493AD43AE43AE43A400C400CE43AE43AD7
:10305800E43AE43AE43A400CE43AE43A91377F310E
:103068001C3AE43AE43AE43AE43AE43AE43AE43A30
:10307800F539FC3922332131400CE43AA237AC311E
:10308800E43AE43AE43AE43AE43AE43AE43AE43A48
:10309800E43AE43AE43AE43A400CE43A400C400CAE
:1030A800223AE43AE43AE43AE43AE43AE43AE43AEA
:1030B800E43AE43AE43A1237E43AE43AE43AE43AED
:1030C800E43AE43AE43AE43AE43AE43AE43AE43A08
:1030D800E43AE43AE43AE43AE43AE43AE43AE43AF8
:1030E800400CE43AE43AE43A400C400C400C400C02
:1030F800E43AE43AE43AE43AFF00DAEF57F0000041
:10310800C0C101C30302C2C60607C705C5C404CCB3
:103118000C0DCD0FCFCE0E0ACACB0BC90908C8D8E3
:103128001819D91BDBDA1A1EDEDF1FDD1D1CDC14A3
:10313800D4D515D71716D6D21213D311D1D010F073
:103148003031F133F3F23236F6F737F53534F43CF3
:10315800FCFD3DFF3F3EFEFA3A3BFB39F9F83828C3
:10316800E8E929EB2B2AEAEE2E2FEF2DEDEC2CE4E3
:103178002425E527E7E62622E2E323E12120E0A053
:103188006061A163A3A26266A6A767A56564A46C33
:10319800ACAD6DAF6F6EAEAA6A6BAB69A9A8687863
:1031A800B8B979BB7B7ABABE7E7FBF7DBDBC7CB423
:1031B8007475B577B7B67672B2B373B17170B05033
:1031C8009091519353529296565797559594549C73
:1031D8005C5D9D5F9F9E5E5A9A9B5B995958988843
:1031E8004849894B8B8A4A4E8E8F4F8D4D4C8C4463
:1031F80084854587474686824243834181804000D3
:10320800C1814001C0804101C0804100C1814001AD
:10321800C0804100C1814000C1814001C08041019E
:10322800C0804100C1814000C1814001C08041008F
:10323800C1814001C0804101C0804100C18140017D
:10324800C0804100C1814000C1814001C08041006F
:10325800C1814001C0804101C0804100C18140005E
:10326800C1814001C0804101C0804100C18140014D
:10327800C0804100C1814000C1814001C08041013E
:10328800C0804100C1814000C1814001C08041002F
:10329800C1814001C0804101C0804100C18140001E
:1032A800C1814001C0804101C0804100C18140010D
:1032B800C0804100C1814000C1814001C0804100FF
:1032C800C1814001C0804101C0804100C1814001ED
:1032D800C0804100C1814000C1814001C0804101DE
:1032E800C0804100C1814000C1814001C0804100CF
:1032F800C1814001C0804101C0804100C1814000BE
:10330800C0C101C30302C2C60607C705C5C404CCB1
:103318000C0DCD0FCFCE0E0ACACB0BC90908C8D8E1
:103328001819D91BDBDA1A1EDEDF1FDD1D1CDC14A1
:10333800D4D515D71716D6D21213D311D1D010F071
:103348003031F133F3F23236F6F737F53534F43CF1
:10335800FCFD3DFF3F3EFEFA3A3BFB39F9F83828C1
:10336800E8E929EB2B2AEAEE2E2FEF2DEDEC2CE4E1
:103378002425E527E7E62622E2E323E12120E0A051
:103388006061A163A3A26266A6A767A56564A46C31
:10339800ACAD6DAF6F6EAEAA6A6BAB69A9A8687861
:1033A800B8B979BB7B7ABABE7E7FBF7DBDBC7CB421
:1033B8007475B577B7B67672B2B373B17170B05031
:1033C8009091519353529296565797559594549C71
:1033D8005C5D9D5F9F9E5E5A9A9B5B995958988841
:1033E8004849894B8B8A4A4E8E8F4F8D4D4C8C4461
:1033F80084854587474686824243834181804000D1
:10340800C1814001C0804101C0804100C1814001AB
:10341800C0804100C1814000C1814001C08041019C
:10342800C0804100C1814000C1814001C08041008D
:10343800C1814001C0804101C0804100C18140017B
:10344800C0804100C1814000C1814001C08041006D
:10345800C1814001C0804101C0804100C18140005C
:10346800C1814001C0804101C0804100C18140014B
:10347800C0804100C1814000C1814001C08041013C
:10348800C0804100C1814000C1814001C08041002D
:10349800C1814001C0804101C0804100C18140001C
:1034A800C1814001C0804101C0804100C18140010B
:1034B800C0804100C1814000C1814001C0804100FD
:1034C800C1814001C0804101C0804100C1814001EB
:1034D800C0804100C1814000C1814001C0804101DC
:1034E800C0804100C1814000C1814001C0804100CD
:1034F800C1814001C0804101C0804100C1814000BC
:10350800C0C101C30302C2C60607C705C5C404CCAF
:103518000C0DCD0FCFCE0E0ACACB0BC90908C8D8DF
:103528001819D91BDBDA1A1EDEDF1FDD1D1CDC149F
:10353800D4D515D71716D6D21213D311D1D010F06F
:103548003031F133F3F23236F6F737F53534F43CEF
:10355800FCFD3DFF3F3EFEFA3A3BFB39F9F83828BF
:10356800E8E929EB2B2AEAEE2E2FEF2DEDEC2CE4DF
:103578002425E527E7E62622E2E323E12120E0A04F
:103588006061A163A3A26266A6A767A56564A46C2F
:10359800ACAD6DAF6F6EAEAA6A6BAB69A9A868785F
:1035A800B8B979BB7B7ABABE7E7FBF7DBDBC7CB41F
:1035B8007475B577B7B67672B2B373B17170B0502F
:1035C8009091519353529296565797559594549C6F
:1035D8005C5D9D5F9F9E5E5A9A9B5B99595898883F
:1035E8004849894B8B8A4A4E8E8F4F8D4D4C8C445F
:1035F80084854587474686824243834181804000CF
:10360800C1814001C0804101C0804100C1814001A9
:10361800C0804100C1814000C1814001C08041019A
:10362800C0804100C1814000C1814001C08041008B
:10363800C1814001C0804101C0804100C181400179
:10364800C0804100C1814000C1814001C08041006B
:10365800C1814001C0804101C0804100C18140005A
:10366800C1814001C0804101C0804100C181400149
:10367800C0804100C1814000C1814001C08041013A
:10368800C0804100C1814000C1814001C08041002B
:10369800C1814001C0804101C0804100C18140001A
:1036A800C1814001C0804101C0804100C181400109
:1036B800C0804100C1814000C1814001C0804100FB
:1036C800C1814001C0804101C0804100C1814001E9
:1036D800C0804100C1814000C1814001C0804101DA
:1036E800C0804100C1814000C1814001C0804100CB
:1036F800C1814001C0804101C0804100C1814000BA
:10370800C0C101C30302C2C60607C705C5C404CCAD
:103718000C0DCD0FCFCE0E0ACACB0BC90908C8D8DD
:103728001819D91BDBDA1A1EDEDF1FDD1D1CDC149D
:10373800D4D515D71716D6D21213D311D1D010F06D
:103748003031F133F3F23236F6F737F53534F43CED
:10375800FCFD3DFF3F3EFEFA3A3BFB39F9F83828BD
:10376800E8E929EB2B2AEAEE2E2FEF2DEDEC2CE4DD
:103778002425E527E7E62622E2E323E12120E0A04D
:103788006061A163A3A26266A6A767A56564A46C2D
:10379800ACAD6DAF6F6EAEAA6A6BAB69A9A868785D
:1037A800B8B979BB7B7ABABE7E7FBF7DBDBC7CB41D
:1037B8007475B577B7B67672B2B373B17170B0502D
:1037C8009091519353529296565797559594549C6D
:1037D8005C5D9D5F9F9E5E5A9A9B5B99595898883D
:1037E8004849894B8B8A4A4E8E8F4F8D4D4C8C445D
:1037F80084854587474686824243834181804000CD
:10380800C1814001C0804101C0804100C1814001A7
:10381800C0804100C1814000C1814001C080410198
:10382800C0804100C1814000C1814001C080410089
:10383800C1814001C0804101C0804100C181400177
:10384800C0804100C1814000C1814001C080410069
:10385800C1814001C0804101C0804100C181400058
:10386800C1814001C0804101C0804100C181400147
:10387800C0804100C1814000C1814001C080410138
:10388800C0804100C1814000C1814001C080410029
:10389800C1814001C0804101C0804100C181400018
:1038A800C1814001C0804101C0804100C181400107
:1038B800C0804100C1814000C1814001C0804100F9
:1038C800C1814001C0804101C0804100C1814001E7
:1038D800C0804100C1814000C1814001C0804101D8
:1038E800C0804100C1814000C1814001C0804100C9
:1038F800C1814001C0804101C0804100C1814000B8
:10390800C0C101C30302C2C60607C705C5C404CCAB
:103918000C0DCD0FCFCE0E0ACACB0BC90908C8D8DB
:103928001819D91BDBDA1A1EDEDF1FDD1D1CDC149B
:10393800D4D515D71716D6D21213D311D1D010F06B
:103948003031F133F3F23236F6F737F53534F43CEB
:10395800FCFD3DFF3F3EFEFA3A3BFB39F9F83828BB
:10396800E8E929EB2B2AEAEE2E2FEF2DEDEC2CE4DB
:103978002425E527E7E62622E2E323E12120E0A04B
:103988006061A163A3A26266A6A767A56564A46C2B
:10399800ACAD6DAF6F6EAEAA6A6BAB69A9A868785B
:1039A800B8B979BB7B7ABABE7E7FBF7DBDBC7CB41B
:1039B8007475B577B7B67672B2B373B17170B0502B
:1039C8009091519353529296565797559594549C6B
:1039D8005C5D9D5F9F9E5E5A9A9B5B99595898883B
:1039E8004849894B8B8A4A4E8E8F4F8D4D4C8C445B
:1039F80084854587474686824243834181804000CB
:103A0800C1814001C0804101C0804100C1814001A5
:103A1800C0804100C1814000C1814001C080410196
:103A2800C0804100C1814000C1814001C080410087
:103A3800C1814001C0804101C0804100C181400175
:103A4800C0804100C1814000C1814001C080410067
:103A5800C1814001C0804101C0804100C181400056
:103A6800C1814001C0804101C0804100C181400145
:103A7800C0804100C1814000C1814001C080410136
:103A8800C0804100C1814000C1814001C080410027
:103A9800C1814001C0804101C0804100C181400016
:103AA800C1814001C0804101C0804100C181400105
:103AB800C0804100C1814000C1814001C0804100F7
:103AC800C1814001C0804101C0804100C1814001E5
:103AD800C0804100C1814000C1814001C0804101D6
:103AE800C0804100C1814000C1814001C0804100C7
:103AF800C1814001C0804101C0804100C1814000B6
:103B0800C0C101C30302C2C60607C705C5C404CCA9
:103B18000C0DCD0FCFCE0E0ACACB0BC90908C8D8D9
:103B28001819D91BDBDA1A1EDEDF1FDD1D1CDC1499
:103B3800D4D515D71716D6D21213D311D1D010F069
:103B48003031F133F3F23236F6F737F53534F43CE9
:103B5800FCFD3DFF3F3EFEFA3A3BFB39F9F83828B9
:103B6800E8E929EB2B2AEAEE2E2FEF2DEDEC2CE4D9
:103B78002425E527E7E62622E2E323E12120E0A049
:103B88006061A163A3A26266A6A767A56564A46C29
:103B9800ACAD6DAF6F6EAEAA6A6BAB69A9A8687859
:103BA800B8B979BB7B7ABABE7E7FBF7DBDBC7CB419
:103BB8007475B577B7B67672B2B373B17170B05029
:103BC8009091519353529296565797559594549C69
:103BD8005C5D9D5F9F9E5E5A9A9B5B995958988839
:103BE8004849894B8B8A4A4E8E8F4F8D4D4C8C4459
:103BF80084854587474686824243834181804000C9
:103C0800C1814001C0804101C0804100C1814001A3
:103C1800C0804100C1814000C1814001C080410194
:103C2800C0804100C1814000C1814001C080410085
:103C3800C1814001C0804101C0804100C181400173
:103C4800C0804100C1814000C1814001C080410065
:103C5800C1814001C0804101C0804100C181400054
:103C6800C1814001C0804101C0804100C181400143
:103C7800C0804100C1814000C1814001C080410134
:103C8800C0804100C1814000C1814001C080410025
:103C9800C1814001C0804101C0804100C181400014
:103CA800C1814001C0804101C0804100C181400103
:103CB800C0804100C1814000C1814001C0804100F5
:103CC800C1814001C0804101C0804100C1814001E3
:103CD800C0804100C1814000C1814001C0804101D4
:103CE800C0804100C1814000C1814001C0804100C5
:103CF800C1814001C0804101C0804100C1814012A2
:103D0800CA0000000034E300AEDB000000003EE81B
:103D1800000000000000000000000000000000009B
:103D2800000000000000000000000000000000008B
:103D3800000000000026E70000000002E700DEE6C1
:103D480000BAE6000000006ADA0000000018D80097
:103D580070D8000000000000000000005EE40000D1
:103D68000000000000269E783EEEE9913E13CECC7E
:103D78003EAAAA2A3FD1F717378071313F2D2D2D42
:103D88002D2D2D2D2D2D2D2D2D2D2D2D2D2D2D2D5B
:103D98002D2D2D2D2D2D2D2D2D2D2D2D2D2D2D2D4B
:103DA8002D0A0A004348317C493A252E32667C5652
:103DB8003A252E32667C503A252E32667C50574D75
:103DC8003A25647C0A0D004348327C493A252E3254
:103DD800667C563A252E32667C503A252E32667C11
:103DE80050574D3A25647C0A0D00B5B1C7B0D4CB05
:103DF800D0D03A202575D0A1CAB12575B7D6D6D36B
:103E08002575C3EB0A0053503A252E32667C4C6563
:103E180076313A25647C4C6576323A25647C0A0D05
:103E28000050726F73746174653A25647C0A0D00E2
:103E380050726F746570793A25647C0A0D00546578
:103E48006D703A252E32667C0A0D0056696E3A2549
:103E5800647C0A0D002530325800696E66006E6178
:053E68006E00200000C7
:103E6E000601526B2AC653F62BC654F62CC655F6CF
:103E7E002DC656F656BF48EF1FF046EF1FF05CEF0B
:103E8E001FF0010E526F53C664F554C665F555C644
:103E9E0066F556C667F564EC70F064C553F665C5F5
:103EAE0054F666C555F667C556F6000E0601586FF0
:103EBE00000E576FD7C646F6D8C647F65251D8B43D
:103ECE006BEF1FF06DEF1FF081EF1FF05251D8A472
:103EDE0073EF1FF075EF1FF07BEF1FF0000E386FC2
:103EEE002B0E376F7FEF1FF0000E386F2D0E376FD2
:103EFE0037C652F653C664F554C665F555C666F513
:103F0E0056C667F514EC5BF0050164056511D8A47F
:103F1E0093EF1FF095EF1FF0CCEF1FF006015251FB
:103F2E00D8B49CEF1FF09EEF1FF0A7EF1FF052C604
:103F3E0083F94607D8A04707000E586F010E576F3A
:103F4E00830E57250501646F090E060158210501E0
:103F5E00656F620E666F3E0E676FEAEC6FF00601DC
:103F6E00FD0E4627FF0E472328C678F529C679F59C
:103F7E00830E05017A6F090E7B6F46C67CF547C628
:103F8E007DF5B6EC64F096EF24F053C664F554C696
:103F9E0065F555C666F556C667F514EC5BF005017A
:103FAE0064516511D8A4DEEF1FF0E0EF1FF003EFB0
:103FBE0020F006015251D8B4E7EF1FF0E9EF1FF0E1
:103FCE00F2EF1FF052C683F94607D8A04707000E3E
:103FDE00586F010E576F830E57250501646F090E3A
:103FEE00060158210501656F660E666F3E0E676FFE
:103FFE00EAEC6FF0B6EF1FF0000E0601596F000EDF
:10400E005A6F800E5B6F3F0E5C6F000E416F000E9D
:10401E00406F53C664F554C665F555C666F556C66B
:10402E0067F5000E0501686F000E696F000E6A6F6E
:10403E00000E6B6F0AEC64F00501D8B029EF20F08A
:10404E002BEF20F025EF21F038EF20F042C659F685
:10405E0043C65AF644C65BF645C65CF60601404BAF
:10406E00412B59C6A7F55AC6A8F55BC6A9F55CC67D
:10407E00AAF5000E0501AB6F000EAC6F200EAD6FF2
:10408E00410EAE6F0AEC36F0A7C542F6A8C543F650
:10409E00A9C544F6AAC545F606014251535D050170
:1040AE00646F0601435154590501656F0601445171
:1040BE0055590501666F0601455156590501676F41
:1040CE00E0EC6BF0050167BF78EF20F067516611E9
:1040DE00651109E1020E645DD8A078EF20F07AEF49
:1040EE0020F02DEF20F042C60CF643C60DF644C666
:1040FE000EF645C60FF653C610F654C611F655C643
:10410E0012F656C613F66CEC54F00601D8A092EFD8
:10411E0020F094EF20F02DEF20F05951535D050162
:10412E00646F06015A5154590501656F06015B51C2
:10413E0055590501666F06015C5156590501676FA9
:10414E00E0EC6BF0050167BFBAEF20F06751661126
:10415E00651107E1020E645DD8B0B8EF20F0BAEF3A
:10416E0020F00BEF21F059C653F65AC654F65BC633
:10417E0055F65CC656F625EF21F059C6C0F55AC65F
:10418E00C1F55BC6C2F55CC6C3F5000E0501C46F72
:10419E00000EC56F200EC66F410EC76FF7EC3BF0D9
:1041AE00C0C559F6C1C55AF6C2C55BF6C3C55CF6A5
:1041BE0006014007D8A041075951535D0501646FB0
:1041CE0006015A5154590501656F06015B51555947
:1041DE000501666F06015C5156590501676FE0ECEB
:1041EE006BF0050167BF09EF21F06751661165118C
:1041FE0007E1020E645DD8B007EF21F009EF21F060
:10420E000BEF21F0BAEF20F053C60CF654C60DF6A4
:10421E0055C60EF656C60FF659C610F65AC611F604
:10422E005BC612F65CC613F66CEC54F00601D8A011
:10423E0023EF21F025EF21F0C4EF20F02EC63AF641
:10424E003AC63BF60601DABF2FEF21F031EF21F02F
:10425E0037EF21F0D9C633F6DAC634F63BEF21F04C
:10426E00000E346F060E336F33C63EF634C63FF67D
:10427E003E4B3F2B660E3B19D8A448EF21F04AEF78
:10428E0021F06AEF21F041BF51EF21F04FEF21F005
:10429E005DEF21F0000E596F000E5A6F800E5B6FAE
:1042AE003F0E5C6F000E416F000E406F670E3A19A5
:1042BE00D8B464EF21F066EF21F06AEF21F040519F
:1042CE003E2741513F23000E516F000E506F53C6D3
:1042DE0048F654C649F655C64AF656C64BF659C662
:1042EE0042F65AC643F65BC644F65CC645F6FCEF8C
:1042FE0021F048C6C0F549C6C1F54AC6C2F54BC63F
:10430E00C3F559C6C4F55AC6C5F55BC6C6F55CC637
:10431E00C7F5F7EC3BF0C0C5D9F5C1C5DAF5C2C596
:10432E00DBF5C3C5DCF592EC44F0D9C54CF6DAC525
:10433E004DF6DBC54EF6DCC54FF64CC624F64DC623
:10434E0025F64EC626F64FC627F668EC58F024C65C
:10435E003CF625C63DF648C600F649C601F64AC6E5
:10436E0002F64BC603F64CC6ABF54DC6ACF54EC6C3
:10437E00ADF54FC6AEF559C6A7F55AC6A8F55BC63C
:10438E00A9F55CC6AAF50AEC36F0A7C504F6A8C5D1
:10439E0005F6A9C506F6AAC507F693EC6EF000C69B
:1043AE0048F601C649F602C64AF603C64BF659C68A
:1043BE00C0F55AC6C1F55BC6C2F55CC6C3F5000EA4
:1043CE000501C46F000EC56F200EC66F410EC76F7C
:1043DE00F7EC3BF0C0C559F6C1C55AF6C2C55BF63F
:1043EE00C3C55CF60601504B512B3E51505D5151E9
:1043FE00800A2F6F3F51800A2F59D8A009EF22F063
:10440E000BEF22F080EF21F059C6A7F55AC6A8F59A
:10441E005BC6A9F55CC6AAF5000E0501AB6F000ED2
:10442E00AC6FA00EAD6F400EAE6F0AEC36F0A7C5A6
:10443E004CF6A8C54DF6A9C54EF6AAC54FF648C608
:10444E000CF649C60DF64AC60EF64BC60FF64CC60E
:10445E0010F64DC611F64EC612F64FC613F66CEC9C
:10446E0054F00601D8B03EEF22F040EF22F04AEFB2
:10447E0022F0000E4C6F000E4D6F000E4E6F000EB0
:10448E004F6F74EF22F048C664F549C665F54AC60B
:10449E0066F54BC667F54CC668F54DC669F54EC652
:1044AE006AF54FC66BF50AEC64F00501D8A062EF11
:1044BE0022F064EF22F074EF22F006013CB16AEFB5
:1044CE0022F06CEF22F074EF22F0000E4C6F000E13
:1044DE004D6F000E4E6F000E4F6F53C6D9F554C67A
:1044EE00DAF555C6DBF556C6DCF54CC6DDF54DC620
:1044FE00DEF54EC6DFF54FC6E0F5FCEC2CF0D9C567
:10450E0048F6DAC549F6DBC54AF6DCC54BF648C6B1
:10451E000CF649C60DF64AC60EF64BC60FF6000E41
:10452E000501AB6F000EAC6F200EAD6F410EAE6F7E
:10453E0042C6A7F543C6A8F544C6A9F545C6AAF5D1
:10454E000AEC36F0A7C510F6A8C511F6A9C512F6E5
:10455E00AAC513F66CEC54F00601D8A0B9EF22F000
:10456E00BBEF22F0E4EF22F0404B412B42C6A7F501
:10457E0043C6A8F544C6A9F545C6AAF5000E050121
:10458E00AB6F000EAC6F200EAD6F410EAE6F0AEC2E
:10459E0036F0A7C542F6A8C543F6A9C544F6AAC586
:1045AE0045F6660E06013B19D8A4E0EF22F0E2EFC5
:1045BE0022F0E4EF22F03E4B3F2B42C659F643C6A3
:1045CE005AF644C65BF645C65CF640C631F641C6A1
:1045DE0032F6396B000E366F000E356F000E516FCE
:1045EE00000E506FE1EF23F048C6C0F549C6C1F585
:1045FE004AC6C2F54BC6C3F559C6C4F55AC6C5F56B
:10460E005BC6C6F55CC6C7F5F7EC3BF0C0C5D9F581
:10461E00C1C5DAF5C2C5DBF5C3C5DCF592EC44F0D5
:10462E00D9C54CF6DAC54DF6DBC54EF6DCC54FF6F0
:10463E004CC624F64DC625F64EC626F64FC627F6B0
:10464E0068EC58F0060125BF38EF23F0255107E13D
:10465E000A0E245DD8B036EF23F038EF23F048EF82
:10466E0023F04CC624F64DC625F64EC626F64FC68A
:10467E0027F668EC58F024C63CF625C63DF64CEFFE
:10468E0023F0000E3D6F090E3C6F06013951D8A480
:10469E0053EF23F055EF23F07DEF23F032BF5CEFA5
:1046AE0023F05AEF23F07DEF23F0830E5725D96EBA
:1046BE00090E5821DA6E2E0EDF6E574B582B460719
:1046CE00D8A04707010E396F7DEF23F0830E5725D3
:1046DE00D96E090E5821DA6E300EDF6E574B582BFD
:1046EE004607D8A047073507D8A0360735513611EB
:1046FE00D8A484EF23F086EF23F06DEF23F0830E22
:10470E005725D96E090E5821DA6E3C51300FDF6EE7
:10471E00574B582B4607D8A0470748C600F649C640
:10472E0001F64AC602F64BC603F64CC6ABF54DC6AD
:10473E00ACF54EC6ADF54FC6AEF559C6A7F55AC681
:10474E00A8F55BC6A9F55CC6AAF50AEC36F0A7C5B6
:10475E0004F6A8C505F6A9C506F6AAC507F693EC94
:10476E006EF000C648F601C649F602C64AF603C602
:10477E004BF659C6C0F55AC6C1F55BC6C2F55CC646
:10478E00C3F5000E0501C46F000EC56F200EC66F77
:10479E00410EC76FF7EC3BF0C0C559F6C1C55AF6CE
:1047AE00C2C55BF6C3C55CF606013107D8A0320759
:1047BE00504B512B3E51505D5151800A2F6F3F513E
:1047CE00800A2F59D8B0EEEF23F0F0EF23F0FEEF72
:1047DE0023F058BFFCEF23F0585109E14B0E575D03
:1047EE00D8A0FCEF23F0FEEF23F0FBEF22F0000E3B
:1047FE00516F4F0E506F830E5025D96E090E5121F9
:10480E00DA6EDF6A830E2F6F090E306F57512F5FEE
:10481E005851305B50512F250501646F06015151DF
:10482E0030210501656F830E666F090E676F57C6DF
:10483E0068F558C669F5E3EC6CF006015751505D0A
:10484E00576F58515159586F5251D8A431EF24F027
:10485E0034EF24F0010E35EF24F0000E506F516B43
:10486E00E1A33CEF24F03EEF24F06CEF24F04EEF8A
:10487E0024F05707D8A05807830E5725D96E090E76
:10488E005821DA6E300EDF6E4607D8A04707465124
:10489E00505D5151800A2F6F4751800A2F59D8B061
:1048AE005BEF24F05DEF24F06CEF24F05751505D78
:1048BE005151800A2F6F5851800A2F59D8A06AEF94
:1048CE0024F06CEF24F040EF24F05251D8B472EF84
:1048DE0024F074EF24F07FEF24F05707D8A0580788
:1048EE00830E5725D96E090E5821DA6E52C6DFF4A3
:1048FE005051465F5151475B28C678F529C679F568
:10490E00830E572505017A6F090E06015821050100
:10491E007B6F46C67CF547C67DF5B6EC64F012009B
:10492E002AC600F62BC601F62CC602F62DC603F6D5
:10493E002EC604F62FC605F630C606F631C607F6A5
:10494E0093EC6EF000C656F601C657F602C658F640
:10495E0003C659F656C608F657C609F658C60AF6DD
:10496E0059C60BF665EC71F008C65AF609C65BF629
:10497E000AC65CF60BC65DF656C608F657C609F6AD
:10498E0058C60AF659C60BF665EC71F008C60CF659
:10499E0009C60DF60AC60EF60BC60FF6000E060178
:1049AE00106F000E116F800E126F3F0E136F6CECB6
:1049BE0054F00601D8B0E6EF24F0E8EF24F0F0EF63
:1049CE0024F0000E566F000E576F000E586F000E3B
:1049DE00596F20EE05F02851D9262951DA22DEC46E
:1049EE0052F6DEC453F6DEC454F6DEC455F6000E9F
:1049FE000C6F000E0D6F480E0E6F420E0F6F5AC6E3
:104A0E0010F65BC611F65CC612F65DC613F66CECBC
:104A1E0054F00601D8B016EF25F018EF25F035EF5B
:104A2E0025F052C6A7F553C6A8F554C6A9F555C626
:104A3E00AAF5CD0E0501AB6FCC0EAC6FCC0EAD6FE3
:104A4E003D0EAE6F0AEC36F0A7C552F6A8C553F66A
:104A5E00A9C554F6AAC555F6A1EF25F0000E0C6FA8
:104A6E00000E0D6FA00E0E6F410E0F6F5AC610F690
:104A7E005BC611F65CC612F65DC613F66CEC54F00E
:104A8E000601D8B04DEF25F04FEF25F06CEF25F075
:104A9E0052C6A7F553C6A8F554C6A9F555C6AAF52C
:104AAE009A0E0501AB6F990EAC6F990EAD6F3E0E5F
:104ABE00AE6F0AEC36F0A7C552F6A8C553F6A9C5D7
:104ACE0054F6AAC555F6A1EF25F05AC60CF65BC6EC
:104ADE000DF65CC60EF65DC60FF6000E106F000EDC
:104AEE00116FA00E126F400E136F6CEC54F0060196
:104AFE00D8B084EF25F086EF25F0A1EF25F052C651
:104B0E00A7F553C6A8F554C6A9F555C6AAF5000EC5
:104B1E000501AB6F000EAC6F000EAD6F400EAE6FA9
:104B2E000AEC36F0A7C552F6A8C553F6A9C554F639
:104B3E00AAC555F6060120EE01F02851D9262951B5
:104B4E00DA22DEC4A7F5DEC4A8F5DEC4A9F5DEC4FC
:104B5E00AAF556C6ABF557C6ACF558C6ADF559C64F
:104B6E00AEF50AEC36F0A7C532F6A8C533F6A9C5E0
:104B7E0034F6AAC535F65AC60CF65BC60DF65CC6FB
:104B8E000EF65DC60FF6000E0601106F000E116FC9
:104B9E00480E126F420E136F6CEC54F00601D8B033
:104BAE00DBEF25F0DDEF25F0BCEF27F056C65EF605
:104BBE0057C65FF658C660F659C661F6000E0C6F02
:104BCE00000E0D6FF00E0E6F410E0F6F5AC610F6DF
:104BDE005BC611F65CC612F65DC613F66CEC54F0AD
:104BEE000601D8B0FDEF25F0FFEF25F045EF26F0DA
:104BFE00000E0C6F000E0D6F200E0E6F420E0F6F1B
:104C0E005EC610F65FC611F660C612F661C613F6E2
:104C1E006CEC54F00601D8B017EF26F019EF26F021
:104C2E0021EF26F0000E5E6F000E5F6F200E606F9C
:104C3E00420E616F5EC60CF65FC60DF660C60EF6CE
:104C4E0061C60FF6000E106F000E116F200E126F60
:104C5E00C20E136F6CEC54F00601D8B039EF26F08B
:104C6E003BEF26F018EF27F0000E5E6F000E5F6F21
:104C7E00200E606FC20E616F18EF27F0000E0C6FE2
:104C8E00000E0D6F200E0E6F410E0F6F5AC610F6EE
:104C9E005BC611F65CC612F65DC613F66CEC54F0EC
:104CAE000601D8B05DEF26F05FEF26F0D4EF26F0C8
:104CBE005AC6A7F55BC6A8F55CC6A9F55DC6AAF5EA
:104CCE00CD0E0501AB6FCC0EAC6F4C0EAD6F3F0E23
:104CDE00AE6F0AEC36F0A7C54AF6A8C54BF6A9C5C5
:104CEE004CF6AAC54DF64AC60CF64BC60DF64CC68A
:104CFE000EF64DC60FF65EC610F65FC611F660C60E
:104D0E0012F661C613F66CEC54F00601D8B092EFB1
:104D1E0026F094EF26F09CEF26F04AC65EF64BC6C0
:104D2E005FF64CC660F64DC661F65EC60CF65FC603
:104D3E000DF660C60EF661C60FF64AC664F54BC692
:104D4E0065F54CC666F54DC667F564EC70F064C546
:104D5E0010F665C511F666C512F667C513F66CEC4E
:104D6E0054F00601D8B0BEEF26F0C0EF26F018EFD3
:104D7E0027F04AC664F54BC665F54CC666F54DC6BA
:104D8E0067F564EC70F064C55EF665C55FF666C5E2
:104D9E0060F667C561F618EF27F0000E0C6F000E77
:104DAE000D6FA00E0E6F400E0F6F5EC610F65FC633
:104DBE0011F660C612F661C613F66CEC54F00601DD
:104DCE00D8B0ECEF26F0EEEF26F0F6EF26F0000E60
:104DDE005E6F000E5F6FA00E606F400E616F5EC65D
:104DEE000CF65FC60DF660C60EF661C60FF6000E27
:104DFE00106F000E116FA00E126FC00E136F6CECC1
:104E0E0054F00601D8B00EEF27F010EF27F018EF90
:104E1E0027F0000E5E6F000E5F6FA00E606FC00E6B
:104E2E00616F5EC6A7F55FC6A8F560C6A9F561C637
:104E3E00AAF5060120EE05F02851D9262951DA22CD
:104E4E00DEC4C4F5DEC4C5F5DEC4C6F5DEC4C7F5E2
:104E5E0052C6C0F553C6C1F554C6C2F555C6C3F504
:104E6E00F7EC3BF0C0C5ABF5C1C5ACF5C2C5ADF5B1
:104E7E00C3C5AEF50AEC36F0A7C55EF6A8C55FF65B
:104E8E00A9C560F6AAC561F6060120EE1DF02851EF
:104E9E00D9262951DA22DEC4D9F5DEC4DAF5DEC40C
:104EAE00DBF5DEC4DCF55EC6DDF55FC6DEF560C69D
:104EBE00DFF561C6E0F5FCEC2CF0060120EE1DF0EE
:104ECE002851D9262951DA220501D9C5DEF4DAC5D1
:104EDE00DEF4DBC5DEF4DCC5DEF4060120EE11F0F7
:104EEE002851D9262951DA22DEC41CF6DEC41DF65D
:104EFE00DEC41EF6DEC41FF620EE1DF02851D926A4
:104F0E002951DA22DEC414F6DEC415F6DEC416F616
:104F1E00DEC417F620EE0DF02851D9262951DA22DB
:104F2E00DEC418F6DEC419F6DEC41AF6DEC41BF6AD
:104F3E0001EC55F014C620F615C621F616C622F65B
:104F4E0017C623F695EC55F0060120EE1DF02851FC
:104F5E00D9262951DA221CC6DEF41DC6DEF41EC681
:104F6E00DEF41FC6DEF4CAEF27F020EE1DF0285146
:104F7E00D9262951DA22000EDE6E000EDE6E000EEC
:104F8E00DE6E000EDD6E20EE1DF02851D926295161
:104F9E00DA22DEC4A7F5DEC4A8F5DEC4A9F5DEC4A8
:104FAE00AAF552C6ABF553C6ACF554C6ADF555C60B
:104FBE00AEF50AEC36F0A7C536F6A8C537F6A9C584
:104FCE0038F6AAC539F6060120EE21F02851D92669
:104FDE002951DA22DEC404F6DEC405F6DEC406F676
:104FEE00DEC407F656C600F657C601F658C602F6D8
:104FFE0059C603F693EC6EF000C6A7F501C6A8F5E8
:10500E0002C6A9F503C6AAF5060120EE09F028513D
:10501E00D9262951DA22DEC4ABF5DEC4ACF5DEC4E6
:10502E00ADF5DEC4AEF50AEC36F0A7C546F6A8C55A
:10503E0047F6A9C548F6AAC549F6330E0501AB6F6A
:10504E00330EAC6F330EAD6F3F0EAE6F46C6A7F587
:10505E0047C6A8F548C6A9F549C6AAF50AEC36F022
:10506E00A7C5D9F5A8C5DAF5A9C5DBF5AAC5DCF53E
:10507E009A0E0501AB6F990EAC6F990EAD6F3E0E89
:10508E00AE6F22C7A7F523C7A8F524C7A9F525C774
:10509E00AAF50AEC36F0A7C5DDF5A8C5DEF5A9C55B
:1050AE00DFF5AAC5E0F5FCEC2CF0D9C546F6DAC55D
:1050BE0047F6DBC548F6DCC549F646C622F747C6B5
:1050CE0023F748C624F749C625F7060120EE21F03E
:1050DE002851D9262951DA2256C6DEF457C6DEF4F7
:1050EE0058C6DEF459C6DEF436C6DDF537C6DEF533
:1050FE0038C6DFF539C6E0F532C6D9F533C6DAF56E
:10510E0034C6DBF535C6DCF5FCEC2CF0D9C53AF629
:10511E00DAC53BF6DBC53CF6DCC53DF63AC6D9F53D
:10512E003BC6DAF53CC6DBF53DC6DCF546C6DDF51D
:10513E0047C6DEF548C6DFF549C6E0F5FCEC2CF0B7
:10514E00D9C54EF6DAC54FF6DBC550F6DCC551F6BD
:10515E0028C6D9F429C6DAF4DE04D8A4B9EF28F0AB
:10516E00BBEF28F03CEF29F0060151BFC3EF28F04A
:10517E00C1EF28F0CDEF28F0000E3E6F000E3F6F0E
:10518E00000E406FBF0E416FD5EF28F0000E3E6F40
:10519E00000E3F6F000E406F3F0E416F4EC6DDF5A5
:1051AE004FC6DEF550C6DFF551C6E0F53EC6D9F561
:1051BE003FC6DAF540C6DBF541C6DCF5FCEC2CF05B
:1051CE00D9C524F6DAC525F6DBC526F6DCC527F6E5
:1051DE0068EC58F006012451DD272551DE23000E20
:1051EE00186F000E196F200E1A6F450E1B6FDDC65D
:1051FE0099F5DEC69AF50501000E9ABFFF0E9B6F5C
:10520E009C6F010E5BEC4BF099C514F69AC515F622
:10521E009BC516F69CC517F601EC55F014C620F684
:10522E0015C621F616C622F617C623F6000E06017F
:10523E001C6F000E1D6F000E1E6F000E1F6F95EC83
:10524E0055F01CC624F61DC625F61EC626F61FC62C
:10525E0027F668EC58F024C6DDF625C6DEF6DDC668
:10526E0028F6DEC629F6C8EF29F028C6D9F429C6D5
:10527E00DAF4020EDE18D8A447EF29F049EF29F030
:10528E00C8EF29F0060151BF51EF29F04FEF29F079
:10529E005BEF29F0000E426F000E436F000E446F5D
:1052AE00BF0E456F63EF29F0000E426F000E436F85
:1052BE00000E446F3F0E456F4EC6DDF54FC6DEF550
:1052CE0050C6DFF551C6E0F542C6D9F543C6DAF54C
:1052DE0044C6DBF545C6DCF5FCEC2CF0D9C524F64E
:1052EE00DAC525F6DBC526F6DCC527F668EC58F0E0
:1052FE0006012451DB272551DC23000E186F000E0A
:10530E00196F200E1A6F450E1B6FDBC699F5DCC6A2
:10531E009AF50501000E9ABFFF0E9B6F9C6F010E52
:10532E005BEC4BF099C514F69AC515F69BC516F6AF
:10533E009CC517F601EC55F014C620F615C621F6DD
:10534E0016C622F617C623F6000E06011C6F000EB7
:10535E001D6F000E1E6F000E1F6F95EC55F01CC6D4
:10536E0024F61DC625F61EC626F61FC627F668ECC1
:10537E0058F024C6DBF625C6DCF6DBC628F6DCC6FE
:10538E0029F6120012C742F613C743F614C744F6A5
:10539E0015C745F608C642F609C643F60AC644F6D0
:1053AE000BC645F6000E0601296F000E286F4551FB
:1053BE0009E1800E445DD8A0E7EF29F0E9EF29F06E
:1053CE00F0EF29F045AFEEEF29F0F0EF29F057EFAF
:1053DE002AF0D89042350501E96F060143350501E3
:1053EE00EA6F060144350501EB6F060145350501EF
:1053FE00EC6FE951EA11EB11EC11D8A409EF2AF088
:10540E000BEF2AF01EEF2AF0000E0601426F000E7F
:10541E00436F800E446FFF0E456F42C608F643C6BB
:10542E0009F644C60AF645C60BF6FBEF2CF006014C
:10543E0045AF24EF2AF026EF2AF036EF2AF0000EC1
:10544E000701986F210E976FFF0E0601426FFF0E38
:10545E00436FFF0E446F7F0E456F14EF2AF0E70E79
:10546E002827FF0E292342C6A7F543C6A8F544C632
:10547E00A9F545C6AAF5000E0501AB6F000EAC6F7F
:10548E00000EAD6F4C0EAE6F0AEC36F0A7C542F6AD
:10549E00A8C543F6A9C544F6AAC545F684EF2AF079
:1054AE00800E445D7F0E4559D8A060EF2AF062EF62
:1054BE002AF06CEF2AF008C608F609C609F60AC6E5
:1054CE000AF60BC60BF6FBEF2CF0800E441909E121
:1054DE003F0E451942114311D8A478EF2AF07AEF06
:1054EE002AF084EF2AF0000E086F000E096F000EEE
:1054FE000A6F000E0B6FFBEF2CF00D0E060142270C
:10550E00FB0E43234A0E4423000E452342C6E9F503
:10551E0043C6EAF544C6EBF545C6ECF5180E9EEF0C
:10552E002AF00501D890EC33EB33EA33E933E82E59
:10553E0098EF2AF0810EE925ED6FFF0EEA21EE6F4E
:10554E00ED51060128270501EE5106012923FF0E14
:10555E0042150501E96FFF0E060143150501EA6FBD
:10556E007F0E060144150501EB6F000E0601451571
:10557E000501EC6FF30EE9250601426F040E0501DD
:10558E00EA210601436F350E0501EB210601446F3A
:10559E003F0E0501EC210601456F42C600F643C6DB
:1055AE0001F644C602F645C603F6000E046F000E61
:1055BE00056F800E066F3F0E076F93EC6EF000C600
:1055CE0042F601C643F602C644F603C645F642C687
:1055DE00C0F543C6C1F544C6C2F545C6C3F5000EB7
:1055EE000501DD6F000EDE6F000EDF6F400EE06F07
:1055FE0042C6D9F543C6DAF544C6DBF545C6DCF539
:10560E00FCEC2CF0D9C5C4F5DAC5C5F5DBC5C6F57D
:10561E00DCC5C7F5F7EC3BF0C0C532F6C1C533F6B5
:10562E00C2C534F6C3C535F632C6A7F533C6A8F5DE
:10563E0034C6A9F535C6AAF532C6ABF533C6ACF5F8
:10564E0034C6ADF535C6AEF50AEC36F0A7C536F65E
:10565E00A8C537F6A9C538F6AAC539F636C6A7F5D0
:10566E0037C6A8F538C6A9F539C6AAF536C6ABF5BC
:10567E0037C6ACF538C6ADF539C6AEF50AEC36F020
:10568E00A7C53AF6A8C53BF6A9C53CF6AAC53DF690
:10569E00130E0501DD6FCE0EDE6FCC0EDF6F3E0EEC
:1056AE00E06F260EAB6F9E0EAC6F780EAD6F3E0E9A
:1056BE00AE6F3AC6A7F53BC6A8F53CC6A9F53DC6E2
:1056CE00AAF50AEC36F0A7C5D9F5A8C5DAF5A9C52D
:1056DE00DBF5AAC5DCF5FCEC2CF0D9C53EF6DAC537
:1056EE003FF6DBC540F6DCC541F63EC6A7F53FC624
:1056FE00A8F540C6A9F541C6AAF53AC6ABF53BC614
:10570E00ACF53CC6ADF53DC6AEF50AEC36F0A7C518
:10571E0010F6A8C511F6A9C512F6AAC513F6AA0E5B
:10572E000501DD6FAA0EDE6F2A0EDF6F3F0EE06FF2
:10573E00EE0EAB6FE90EAC6F910EAD6F3E0EAE6F0F
:10574E003AC6A7F53BC6A8F53CC6A9F53DC6AAF5CF
:10575E000AEC36F0A7C5D9F5A8C5DAF5A9C5DBF56B
:10576E00AAC5DCF5FCEC2CF0D9C53EF6DAC53FF641
:10577E00DBC540F6DCC541F63EC6A7F53FC6A8F52B
:10578E0040C6A9F541C6AAF536C6ABF537C6ACF587
:10579E0038C6ADF539C6AEF50AEC36F0A7C514F627
:1057AE00A8C515F6A9C516F6AAC517F614C6D9F5D5
:1057BE0015C6DAF516C6DBF517C6DCF510C6DDF52F
:1057CE0011C6DEF512C6DFF513C6E0F5FCEC2CF0C3
:1057DE00D9C50CF6DAC50DF6DBC50EF6DCC50FF62F
:1057EE00000E0501AB6F000EAC6F000EAD6F3F0EDD
:1057FE00AE6F42C6A7F543C6A8F544C6A9F545C681
:10580E00AAF50AEC36F0A7C53EF6A8C53FF6A9C51F
:10581E0040F6AAC541F63EC6A7F53FC6A8F540C656
:10582E00A9F541C6AAF542C6ABF543C6ACF544C6CA
:10583E00ADF545C6AEF50AEC36F0A7C52AF6A8C5F5
:10584E002BF6A9C52CF6AAC52DF628C699F529C69C
:10585E009AF50501000E9ABFFF0E9B6F9C6F010E0D
:10586E005BEC4BF099C52EF69AC52FF69BC530F61C
:10587E009CC531F632C6ABF533C6ACF534C6ADF5C4
:10588E0035C6AEF50CC6DDF50DC6DEF50EC6DFF57A
:10589E000FC6E0F52AC6D9F52BC6DAF52CC6DBF510
:1058AE002DC6DCF5FCEC2CF0D9C5A7F5DAC5A8F5AC
:1058BE00DBC5A9F5DCC5AAF50AEC36F0A7C518F6C6
:1058CE00A8C519F6A9C51AF6AAC51BF6D10E05016B
:1058DE00AB6FF70EAC6F170EAD6F370EAE6F2EC6E9
:1058EE00A7F52FC6A8F530C6A9F531C6AAF50AEC5C
:1058FE0036F0A7C5DDF5A8C5DEF5A9C5DFF5AAC545
:10590E00E0F518C6D9F519C6DAF51AC6DBF51BC6C9
:10591E00DCF5FCEC2CF0D9C51CF6DAC51DF6DBC5A2
:10592E001EF6DCC51FF62AC604F62BC605F62CC6D7
:10593E0006F62DC607F61CC600F61DC601F61EC6D7
:10594E0002F61FC603F693EC6EF000C620F601C6F3
:10595E0021F602C622F603C623F642C6DDF543C67D
:10596E00DEF544C6DFF545C6E0F520C6D9F521C6FD
:10597E00DAF522C6DBF523C6DCF5FCEC2CF0D9C536
:10598E0024F6DAC525F6DBC526F6DCC527F624C6D1
:10599E00D9F525C6DAF526C6DBF527C6DCF5800E69
:1059AE000501AB6F710EAC6F310EAD6F3F0EAE6F6A
:1059BE002EC6A7F52FC6A8F530C6A9F531C6AAF58D
:1059CE000AEC36F0A7C5DDF5A8C5DEF5A9C5DFF5ED
:1059DE00AAC5E0F5FCEC2CF0D9C508F6DAC509F637
:1059EE00DBC50AF6DCC50BF612000501DC51800B97
:1059FE00E56FDC51DC25E76FDBAF08EF2DF00AEF2A
:105A0E002DF00BEF2DF0E781E751D8B411EF2DF00B
:105A1E0013EF2DF027EF2DF0E729D8A419EF2DF075
:105A2E001BEF2DF023EF2DF0000ED96F000EDA6F65
:105A3E00000EDB6F000EDC6FDB8FDC6B2FEF2DF0BB
:105A4E00000ED96F000EDA6F000EDB6F000EDC6FEA
:105A5E00E051800BE66FE551E619D8B439EF2DF021
:105A6E003BEF2DF03CEF2DF0E58DE051E025E66F9C
:105A7E00DFAF44EF2DF046EF2DF047EF2DF0E6812E
:105A8E00E651D8B44DEF2DF04FEF2DF063EF2DF022
:105A9E00E629D8A455EF2DF057EF2DF05FEF2DF03E
:105AAE00000EDD6F000EDE6F000EDF6F000EE06F7A
:105ABE00DF8FE06B6BEF2DF0000EDD6F000EDE6FF3
:105ACE00000EDF6F000EE06FE751E65DD8B072EFAB
:105ADE002DF074EF2DF09BEF2DF0E5AD79EF2DF05D
:105AEE007BEF2DF07DEF2DF0800EE51BE7C5E8F581
:105AFE00E6C5E7F5E8C5E6F5D9C5E8F5DDC5D9F59E
:105B0E00E8C5DDF5DAC5E8F5DEC5DAF5E8C5DEF59A
:105B1E00DBC5E8F5DFC5DBF5E8C5DFF5DCC5E8F587
:105B2E00E0C5DCF5E8C5E0F5E86BE751E6C5E1F563
:105B3E00E26BE15F000EE25BE2BFAFEF2DF0E251F0
:105B4E0009E11A0EE15DD8A0AFEF2DF0B1EF2DF007
:105B5E00E8EF2DF0D951DA11DB11DC11D8A4BAEF30
:105B6E002DF0BDEF2DF0010EBEEF2DF0000EE86F03
:105B7E00000ED96F000EDA6F000EDB6F000EDC6FB9
:105B8E00E6C5E7F5F1EF2DF0E8A1D0EF2DF0D2EF5D
:105B9E002DF0D8EF2DF0D890E8310109E86FDAEF4B
:105BAE002DF0D890E833D9A1DFEF2DF0E1EF2DF0F5
:105BBE00E2EF2DF0E88FDC35DC33DB33DA33D9332B
:105BCE00E72BE651E75DD8A0EFEF2DF0F1EF2DF0CA
:105BDE00CBEF2DF0E5BDF6EF2DF0F8EF2DF038EF11
:105BEE002EF0E751D8A4FEEF2DF000EF2EF00AEFC5
:105BFE002EF0000ED96F000EDA6F000EDB6F000E66
:105C0E00DC6F57EF2FF0DD51D927DE51DA23DF514C
:105C1E00DB23E051DC23DCA117EF2EF019EF2EF081
:105C2E00C5EF2EF0E8A11EEF2EF020EF2EF026EF9E
:105C3E002EF0D890E8310109E86F28EF2EF0D890B9
:105C4E00E833D9A12DEF2EF02FEF2EF030EF2EF0FE
:105C5E00E88FDC35DC33DB33DA33D933E72BC5EFB2
:105C6E002EF0DD51D95DDE51DA59DF51DB59DC51B1
:105C7E00800AE16FE051800AE159D8B049EF2EF069
:105C8E004BEF2EF076EF2EF0D951DD5DE16FDA514C
:105C9E00DE59E26FDB51DF59E36FDC51E059E46FFF
:105CAE00FF0EE125D96FFF0EE221DA6FFF0EE32121
:105CBE00DB6FFF0EE421DC6F800EE51BE86DE85113
:105CCE00D8A46CEF2EF06EEF2EF07EEF2EF0010EBC
:105CDE00D927000EDA23DB23DC237EEF2EF0DD51F5
:105CEE00D95FDE51DA5BDF51DB5BE051DC5BD95112
:105CFE00DA11DB11DC11D8A487EF2EF089EF2EF02C
:105D0E00BEEF2EF0E851D8A48FEF2EF091EF2EF0CB
:105D1E00BEEF2EF0000ED96F000EDA6F000EDB6FA5
:105D2E00000EDC6F57EF2FF0D890D937DA37DB370C
:105D3E00DC37E8AFA5EF2EF0A7EF2EF0A8EF2EF090
:105D4E00D981E8A1ADEF2EF0AFEF2EF0B3EF2EF02C
:105D5E00D880E837B5EF2EF0D890E837E751D8B4B1
:105D6E00BBEF2EF0BDEF2EF0BEEF2EF0E707DBAF50
:105D7E00C3EF2EF0C5EF2EF09BEF2EF0E66BE8AFE3
:105D8E00CBEF2EF0CDEF2EF0E5EF2EF0E8C5E1F5DE
:105D9E007F0EE117D8B4D6EF2EF0D8EF2EF0DCEF51
:105DAE002EF0010EE66FE5EF2EF0D9A1E1EF2EF009
:105DBE00E3EF2EF0E5EF2EF0D8EF2EF0E651D8B44B
:105DCE00EBEF2EF0EDEF2EF018EF2FF0010ED9279E
:105DDE00000EDA23DB23DC23DCA1F8EF2EF0FAEF42
:105DEE002EF018EF2FF0D9C5E1F5DAC5E2F5DBC5D7
:105DFE00E3F5DCC5E4F5E435E433E333E233E133D4
:105E0E00E1C5D9F5E2C5DAF5E3C5DBF5E4C5DCF5A8
:105E1E00E729D8B415EF2FF017EF2FF018EF2FF06A
:105E2E00E72BE729D8B41EEF2FF020EF2FF028EF45
:105E3E002FF0E751D8A426EF2FF028EF2FF039EFEF
:105E4E002FF0000ED96F000EDA6F000EDB6F000E12
:105E5E00DC6FE751D8A436EF2FF038EF2FF039EF83
:105E6E002FF0E56BE7A13EEF2FF040EF2FF043EF61
:105E7E002FF0DB8F44EF2FF0DB9FD890E731DC6FF4
:105E8E00E5AF4CEF2FF04EEF2FF04FEF2FF0DC8FF2
:105E9E00D9C5D9F5DAC5DAF5DBC5DBF5DCC5DCF538
:105EAE0012000601396F1C0E06013919D8A462EFD3
:105EBE002FF064EF2FF086EF30F0010EEA656AEFF7
:105ECE002FF06CEF2FF086EF30F0000E0501C46F4F
:105EDE00000EC56F7A0EC66F440EC76F1C0EABEC6C
:105EEE0047F005016CC599F56DC59AF59B6B9C6BDA
:105EFE00000E5BEC4BF099C5C0F59AC5C1F59BC57C
:105F0E00C2F59CC5C3F5F7EC3BF0C0C5A7F5C1C5FE
:105F1E00A8F5C2C5A9F5C3C5AAF5000E0501AB6F5C
:105F2E00000EAC6F110EAD6F430EAE6F0AEC36F075
:105F3E00A7C53EF6A8C53FF6A9C540F6AAC541F6C7
:105F4E00160EA3EC40F014C63AF615C63BF616C66E
:105F5E003CF617C63DF63EC6ABF53FC6ACF540C6A1
:105F6E00ADF541C6AEF53AC6A7F53BC6A8F53CC69B
:105F7E00A9F53DC6AAF50AEC36F0A7C5C0F5A8C529
:105F8E00C1F5A9C5C2F5AAC5C3F5000E0501C46FBA
:105F9E00000EC56F7A0EC66F440EC76FF7EC3BF05E
:105FAE00C0C531F6C1C532F6C2C533F6C3C534F627
:105FBE00000E06010C6F000E0D6FF00E0E6F410EEF
:105FCE000F6F3EC610F63FC611F640C612F641C61A
:105FDE0013F66CEC54F00601D8A0F8EF2FF0FAEFA0
:105FEE002FF003EF30F0010EE86F000E0501F26F97
:105FFE00020EF16FA8EF31F03EC60CF63FC60DF65D
:10600E0040C60EF641C60FF6000E106F800E116FD1
:10601E00090E126F440E136F6CEC54F00601D8B0DB
:10602E001BEF30F01DEF30F053EF30F0CD0E0501C9
:10603E00AB6FCC0EAC6F8C0EAD6F3F0EAE6FDFC67E
:10604E0099F5E0C69AF59B6B9C6B000E5BEC4BF0E2
:10605E0099C5A7F59AC5A8F59BC5A9F59CC5AAF53E
:10606E000AEC36F0A7C50CF6A8C50DF6A9C50EF6B6
:10607E00AAC50FF631C610F632C611F633C612F6A1
:10608E0034C613F66CEC54F00601D8B051EF30F074
:10609E0053EF30F05CEF30F0020EE86F000E0501AA
:1060AE00F26F030EF16FA8EF31F0000E0C6F000EC1
:1060BE000D6F160E0E6F430E0F6F3EC610F63FC6D7
:1060CE0011F640C612F641C613F66CEC54F00601FA
:1060DE00D8A074EF30F076EF30F07FEF30F0030E93
:1060EE00E86F000E0501F26F010EF16FA8EF31F0AF
:1060FE00000E0501F26F000EF16FA8EF31F0110ED8
:10610E003919D8A48DEF30F08FEF30F07FEF30F0EB
:10611E00010EE96595EF30F097EF30F07FEF30F03C
:10612E00000E0501C46F000EC56F7A0EC66F440EC9
:10613E00C76F110EABEC47F005016CC599F56DC537
:10614E009AF59B6B9C6B000E5BEC4BF099C5C0F502
:10615E009AC5C1F59BC5C2F59CC5C3F5F7EC3BF0DE
:10616E00C0C5A7F5C1C5A8F5C2C5A9F5C3C5AAF591
:10617E00000E0501AB6F000EAC6F110EAD6F430E2E
:10618E00AE6F0AEC36F0A7C542F6A8C543F6A9C510
:10619E0044F6AAC545F6040EA3EC40F014C63AF632
:1061AE0015C63BF616C63CF617C63DF642C6ABF50F
:1061BE0043C6ACF544C6ADF545C6AEF53AC6A7F531
:1061CE003BC6A8F53CC6A9F53DC6AAF50AEC36F0C5
:1061DE00A7C5C0F5A8C5C1F5A9C5C2F5AAC5C3F521
:1061EE00000E0501C46F000EC56F7A0EC66F440E09
:1061FE00C76FF7EC3BF0C0C535F6C1C536F6C2C564
:10620E0037F6C3C538F6000E06010C6F000E0D6F83
:10621E00A00E0E6F410E0F6F42C610F643C611F65A
:10622E0044C612F645C613F66CEC54F00601D8A01F
:10623E0023EF31F025EF31F02EEF31F0040EE86F41
:10624E00000E0501F26F020EF16FA8EF31F042C69B
:10625E000CF643C60DF644C60EF645C60FF6000EF6
:10626E00106F000E116F960E126F430E136F6CECC3
:10627E0054F00601D8B046EF31F048EF31F07EEF22
:10628E0031F0CD0E0501AB6FCC0EAC6F8C0EAD6F39
:10629E003F0EAE6F45C599F546C59AF59B6B9C6B47
:1062AE00000E5BEC4BF099C5A7F59AC5A8F59BC5FA
:1062BE00A9F59CC5AAF50AEC36F0A7C50CF6A8C53B
:1062CE000DF6A9C50EF6AAC50FF635C610F636C6DA
:1062DE0011F637C612F638C613F66CEC54F00601FA
:1062EE00D8B07CEF31F07EEF31F087EF31F0050E54
:1062FE00E86F000E0501F26F030EF16FA8EF31F09B
:10630E00000E0C6F000E0D6F480E0E6F420E0F6FCB
:10631E0042C610F643C611F644C612F645C613F62B
:10632E006CEC54F00601D8A09FEF31F0A1EF31F0E4
:10633E007FEF30F0060EE86F000E0501F26F010ED2
:10634E00F16F120006014C6FCFEC74F064C54EF67F
:10635E0065C54FF666C550F667C551F6060120EEC7
:10636E0003F04651D9264751DA22DF50D8B4C2EF96
:10637E0031F0C4EF31F001EF32F020EE09F046516A
:10638E00D9264751DA22DEC468F5DEC469F5DEC4CB
:10639E006AF5DEC46BF525EC67F068C552F669C583
:1063AE0053F66AC554F66BC555F606015551541190
:1063BE000BE1880E525D130E5359D8A0E9EF31F060
:1063CE00EBEF31F0D9EF33F020EE03F04651D92642
:1063DE004751DA22DF6A48C6D9F449C6DAF4DF6AD1
:1063EE004AC6D9F44BC6DAF4010EDF6ED9EF33F09C
:1063FE00D9EF33F020EE04F04651D9264751DA2278
:10640E00DF50D8B40DEF32F00FEF32F017EF32F05D
:10641E0048C6D9F449C6DAF4010EDF6ED9EF33F06F
:10642E004C5158EC2FF00501F15106014D6F4D0501
:10643E00D8A424EF32F026EF32F0B4EF32F046C695
:10644E00D9F447C6DAF4DF50D8A430EF32F032EF89
:10645E0032F048EF32F020EE05F04651D926475182
:10646E00DA224EC6DEF44FC6DEF450C6DEF451C656
:10647E00DEF446C6D9F447C6DAF4010EDF6ED9EF64
:10648E0033F020EE05F04651D9264751DA22DEC40C
:10649E0068F5DEC469F5DEC46AF5DEC46BF525EC7D
:1064AE0067F068C552F669C553F66AC554F66BC5F2
:1064BE0055F60601555154110BE1E90E525D030ECE
:1064CE005359D8A06DEF32F06FEF32F0D9EF33F0B1
:1064DE0048C6D9F449C6DAF4010EDF6E4AC6D9F4BD
:1064EE004BC6DAF4DF6A20EE03F04651D926475147
:1064FE00DA22010EDF6E20EE09F04651D926475101
:10650E00DA224EC6DEF44FC6DEF450C6DEF451C6B5
:10651E00DEF446C6D9F447C6DAF4DF6A20EE0DF093
:10652E004651D9264751DA22DF2A20EE0DF0465188
:10653E00D9264751DA22130EDF64A8EF32F0AAEF04
:10654E0032F0FFEF31F020EE04F04651D9264751DC
:10655E00DA22010EDF6ED9EF33F0020E4D19D8A4F8
:10656E00BBEF32F0BDEF32F050EF33F020EE01F022
:10657E004651D9264751DA22DF50D8A4C9EF32F05E
:10658E00CBEF32F0E3EF32F020EE05F04651D92694
:10659E004751DA224EC6DEF44FC6DEF450C6DEF4A4
:1065AE0051C6DEF420EE01F04651D9264751DA22CB
:1065BE00010EDF6ED9EF33F020EE05F04651D926ED
:1065CE004751DA22DEC468F5DEC469F5DEC46AF529
:1065DE00DEC46BF525EC67F068C552F669C553F657
:1065EE006AC554F66BC555F6060155515411531133
:1065FE0009E1C90E525DD8A007EF33F009EF33F071
:10660E00D9EF33F048C6D9F449C6DAF4020EDF6E7C
:10661E004AC6D9F44BC6DAF4DF6A20EE03F04651CF
:10662E00D9264751DA22010EDF6E20EE09F04651CF
:10663E00D9264751DA224EC6DEF44FC6DEF450C6D6
:10664E00DEF451C6DEF420EE01F04651D926475154
:10665E00DA22DF6A20EE0DF04651D9264751DA22B2
:10666E00DF2A20EE0DF04651D9264751DA22130EBD
:10667E00DF6444EF33F046EF33F0FFEF31F020EEFE
:10668E0004F04651D9264751DA22010EDF6ED9EFBA
:10669E0033F0030E4D19D8A457EF33F059EF33F002
:1066AE00C1EF33F020EE02F04651D9264751DA22DF
:1066BE00DF50D8A465EF33F067EF33F07FEF33F0A0
:1066CE0020EE05F04651D9264751DA224EC6DEF4A9
:1066DE004FC6DEF450C6DEF451C6DEF420EE02F0F4
:1066EE004651D9264751DA22010EDF6ED9EF33F02B
:1066FE0020EE05F04651D9264751DA22DEC468F560
:10670E00DEC469F5DEC46AF5DEC46BF525EC67F010
:10671E0068C552F669C553F66AC554F66BC555F68B
:10672E00060155515411531109E1C90E525DD8A0FD
:10673E00A3EF33F0A5EF33F0D9EF33F048C6D9F419
:10674E0049C6DAF4030EDF6E4AC6D9F44BC6DAF444
:10675E00DF6A20EE02F04651D9264751DA22DF6A6F
:10676E0020EE04F04651D9264751DA22010EDF6E93
:10677E00D9EF33F048C6D9F449C6DAF4DF6A46C613
:10678E00D9F447C6DAF4DF6A20EE01F04651D92675
:10679E004751DA22DF6A20EE02F04651D9264751E0
:1067AE00DA22DF6A12005FC6D9F460C6DAF4DEC4FC
:1067BE00F6F4DDC4F7F4000EF86E0800F550250A65
:1067CE00D8A4ECEF33F0EEEF33F0F2EF35F05FC616
:1067DE00D9F460C6DAF4DE2A000EDD22000E0601C0
:1067EE00D86F000ED76FD7C6E1F6D969DA69656B37
:1067FE0021EF34F0E1835FC6D9F460C6DAF4DE2A05
:10680E00000EDD2221EF34F0010E656F21EF34F022
:10681E005FC6D9F460C6DAF4DEC4F6F4DDC4F7F46C
:10682E00000EF86E0800F550300AD8B401EF34F0BF
:10683E000BEF34F06551D8B427EF34F029EF34F074
:10684E000FEF34F05FC664F560C665F561C666F598
:10685E0062C667F5C7EC5EF064C5D7F665C5D8F6B7
:10686E000601D8BF3FEF34F03DEF34F044EF34F083
:10687E00E181D76DD81FD8B0D82B5FC6D9F460C6CA
:10688E00DAF4DEC4F6F4DDC4F7F4000EF86E080098
:10689E00F5502E0AD8A456EF34F058EF34F06DEFC1
:1068AE0034F05FC6D9F460C6DAF4DE2A000EDD22BB
:1068BE005FC664F560C665F561C666F562C667F5C6
:1068CE00C7EC5EF064C5D9F665C5DAF65FC6D9F4D5
:1068DE0060C6DAF4DEC46BF6DDC46CF66BC6F6F495
:1068EE006CC6F7F4000EF86E0800F550640AD8B4C2
:1068FE0083EF34F085EF34F095EF34F06BC6F6F499
:10690E006CC6F7F4000EF86E0800F550690AD8A4AC
:10691E0093EF34F095EF34F0C4EF34F061C6D9F450
:10692E0062C6DAF4DFC463F6020EDE26DFC464F656
:10693E00000EDD2263C6D9F464C6DAF4DEC467F64F
:10694E00DDC468F6010E06016B25636F000E6C2127
:10695E00646F5FC6D9F460C6DAF463C6DEF464C64B
:10696E00DDF45DC681F55EC682F567C683F568C641
:10697E0084F59AEC49F009EF36F06BC6F6F46CC666
:10698E00F7F4000EF86E0800F550580AD8B4D2EF9E
:10699E0034F0D4EF34F0E4EF34F06BC6F6F46CC69A
:1069AE00F7F4000EF86E0800F550750AD8A4E2EF61
:1069BE0034F0E4EF34F033EF35F061C6D9F462C64B
:1069CE00DAF4DFC463F6020EDE26DFC464F6000ED0
:1069DE00DD2263C6D9F464C6DAF4DEC467F6DDC41C
:1069EE0068F6010E06016B25636F000E6C21646F55
:1069FE005FC6D9F460C6DAF463C6DEF464C6DDF4AD
:106A0E0021EF35F05DC681F55EC682F567C683F56A
:106A1E0068C684F5A1EC52F009EF36F05DC681F53B
:106A2E005EC682F567C683F568C684F55FEC51F0E5
:106A3E0009EF36F06BC6F6F46CC6F7F4000EF86E7E
:106A4E000800F550580AD8B415EF35F02D0AD8B411
:106A5E0009EF35F033EF35F05FC6D9F460C6DAF4DE
:106A6E00DEC46BF6DDC46CF66BC6F6F46CC6F7F4DA
:106A7E00000EF86E0800F5C466F651EF35F06B4B5C
:106A8E006C2B61EF35F06C0E666F61EF35F0666B57
:106A9E0061EF35F0060166514C0AD8B446EF35F079
:106AAE002A0AD8B44AEF35F00A0AD8B446EF35F0C0
:106ABE004EEF35F06BC6F6F46CC6F7F4000EF86EBA
:106ACE000800F550660AD8A46FEF35F071EF35F077
:106ADE00E9EF35F0A7EF35F061C6D9F462C6DAF406
:106AEE00DFC463F6040EDE26DFC464F6000EDD227C
:106AFE0063C6D9F464C6DAF4DEC467F6DEC468F69B
:106B0E00DEC469F6DEC46AF6B2EF35F061C6D9F4BA
:106B1E0062C6DAF4DFC463F6040EDE26DFC464F662
:106B2E00000EDD2263C6D9F464C6DAF4DEC467F65D
:106B3E00DEC468F6DEC469F6DEC46AF6B2EF35F07E
:106B4E0066514C0AD8B48DEF35F0200AD8B473EFE5
:106B5E0035F0B2EF35F0010E6B25636F000E6C2130
:106B6E00646F5FC6D9F460C6DAF463C6DEF464C639
:106B7E00DDF4DBEF35F05DC628F65EC629F667C696
:106B8E002AF668C62BF669C62CF66AC62DF66BC6B3
:106B9E00F6F46CC6F7F4000EF86E0800F5C42EF687
:106BAE0037EC1FF009EF36F06BC6F6F46CC6F7F44F
:106BBE00000EF86E0800F550660AD8B4C2EF35F034
:106BCE00E9EF35F05FC6D9F460C6DAF4DE2A000EBE
:106BDE00DD2209EF36F05FC6D9F460C6DAF4DEC402
:106BEE00F6F4DDC4F7F4000EF86E0800F55005015A
:106BFE00686F696B5DC66AF55EC66BF52EEC5FF06D
:106C0E00E9EF35F012000501AA51800BB36FAA51BE
:106C1E00AA25B96FA9AF16EF36F018EF36F019EFB7
:106C2E0036F0B981B951D8B41FEF36F021EF36F0F6
:106C3E0034EF36F0B929D8A427EF36F029EF36F025
:106C4E0031EF36F0000EA76F000EA86F000EA96F81
:106C5E00000EAA6FA98F3CEF36F0000EA76F000E44
:106C6E00A86F000EA96F000EAA6FAE51800BB31B5A
:106C7E00AE51AE25B46FADAF47EF36F049EF36F0FB
:106C8E004AEF36F0B481B451D8B450EF36F052EF2B
:106C9E0036F065EF36F0B429D8A458EF36F05AEF37
:106CAE0036F062EF36F0000EAB6F000EAC6F000EDA
:106CBE00AD6F000EAE6FAD8F6DEF36F0000EAB6F99
:106CCE00000EAC6F000EAD6F000EAE6FB451D8B4A7
:106CDE0073EF36F075EF36F07DEF36F0B951D8A47C
:106CEE007BEF36F07DEF36F087EF36F0000EA76FB4
:106CFE00000EA86F000EA96F000EAA6F1DEF38F0E0
:106D0E00AD51A703F3C4BEF5F4C4BFF5BE51B56FC4
:106D1E00B66BB76BB86BBF51BA6FBB6BBC6BBD6B51
:106D2E00AC51A803F3C4BEF5F4C4BFF5BE51B527EC
:106D3E00000EB623B723B823BF51BA27000EBB23CC
:106D4E00BC23BD23AB51A903F3C4BEF5F4C4BFF5F8
:106D5E00BE51B527000EB623B723B823BF51BA27AD
:106D6E00000EBB23BC23BD23B7C5B8F5B6C5B7F51A
:106D7E00B5C5B6F5B56BAB51A803F3C4BEF5F4C4F7
:106D8E00BFF5BE51B527BF51B623000EB723000E77
:106D9E00B823AC51A703F3C4BEF5F4C4BFF5BE517E
:106DAE00B527BF51B623000EB723000EB823B7C5C3
:106DBE00B8F5B6C5B7F5B5C5B6F5B56BAB51A70306
:106DCE00F3C4BEF5F4C4BFF5BE51B527BF51B6230B
:106DDE00000EB723000EB823AD51A803F3C4BEF5C1
:106DEE00F4C4BFF5BE51BA27BF51BB23000EBC235E
:106DFE00000EBD23AC51A903F3C4BEF5F4C4BFF518
:106E0E00BE51BA27BF51BB23000EBC23000EBD23BB
:106E1E00AD51A903F3C4BEF5F4C4BFF5BE51AF6FB7
:106E2E00BF51B06FB16BB26BB1C5B2F5B0C5B1F5B4
:106E3E00AFC5B0F5AF6BAF51BA27B051BB23B1514F
:106E4E00BC23B251BD23B5C5AFF5B6C5B0F5B7C5B8
:106E5E00B1F5B8C5B2F5190E3AEF37F0D890B23396
:106E6E00B133B033AF33E82E35EF37F0AF51BA2729
:106E7E00B051BB23B151BC23B251BD23B7C5B8F538
:106E8E00B6C5B7F5B5C5B6F5B56BB451B9C5AFF561
:106E9E00B06BAF27000EB023820EAF25BE6FFF0E74
:106EAE00B021BF6F70EF37F0D890BA37BB37BC3711
:106EBE00BD37B8AF65EF37F067EF37F068EF37F0F3
:106ECE00BA81D890B537B637B737B837BE07D8A01E
:106EDE00BF07BCAF75EF37F077EF37F05BEF37F0EA
:106EEE00B46BB8AF7DEF37F07FEF37F0A3EF37F02D
:106EFE00FF0EB515AF6FFF0EB615B06FFF0EB715BF
:106F0E00B16F7F0EB815B26FAF51B011B111B21192
:106F1E00D8B494EF37F096EF37F09AEF37F0010EC2
:106F2E00B46FA3EF37F0BAA19FEF37F0A1EF37F0B0
:106F3E00A3EF37F096EF37F0B451D8B4A9EF37F08E
:106F4E00ABEF37F0CFEF37F0010EBA27000EBB23B1
:106F5E00BC23BD23BDA1B6EF37F0B8EF37F0CFEFAE
:106F6E0037F0BAC5AFF5BBC5B0F5BCC5B1F5BDC5FB
:106F7E00B2F5B235B233B133B033AF33AFC5BAF5C4
:106F8E00B0C5BBF5B1C5BCF5B2C5BDF5BE4BBF2B8B
:106F9E00BFBFDAEF37F0BF5108E1BE29D8A0DAEF54
:106FAE0037F0DCEF37F0E6EF37F0000EBA6F000E79
:106FBE00BB6F800EBC6F7F0EBD6F13EF38F0BFBF7F
:106FCE00F3EF37F0BF5106E1BE05D8B0F1EF37F061
:106FDE00F3EF37F0FEEF37F0000EBA6F000EBB6F17
:106FEE00000EBC6F000EBD6FB36B13EF38F0BEC555
:106FFE00B9F5FF0EBA17FF0EBB177F0EBC17000EAA
:10700E00BD17B9A10DEF38F00FEF38F010EF38F0D3
:10701E00BC8FD890B931BD6FB351BD13BAC5A7F5AA
:10702E00BBC5A8F5BCC5A9F5BDC5AAF512002EC7EE
:10703E0068F52FC769F530C76AF531C76BF525ECD2
:10704E0067F068C5F3F569C5F4F56AC5F5F56BC566
:10705E00F6F5030E81EC70F064C5F1F565C5F2F539
:10706E00F1C546F6F2C547F63AEC3FF046C6F7F5DF
:10707E0047C6F8F548C6F9F549C6FAF5F7C55AF701
:10708E00F8C55BF7F9C55CF7FAC55DF72AC704F6D4
:10709E002BC705F62CC706F62DC707F6F7C500F663
:1070AE00F8C501F6F9C502F6FAC503F693EC6EF0D3
:1070BE0000C608F601C609F602C60AF603C60BF6A6
:1070CE0065EC71F008C60CF609C60DF60AC60EF68A
:1070DE000BC60FF6000E0601106F000E116F800E1C
:1070EE00126F3F0E136F6CEC54F00601D8B082EFA6
:1070FE0038F084EF38F08FEF38F0050EE4618AEF48
:10710E0038F08CEF38F090EF38F0E42B90EF38F049
:10711E00E46BF7C52AF7F8C52BF7F9C52CF7FAC5B6
:10712E002DF708EF3AF0E76B040EE465A1EF38F0A7
:10713E00A3EF38F017EF3AF0F7C50CF6F8C50DF6D9
:10714E00F9C50EF6FAC50FF6000E0501DD6F000E3D
:10715E00DE6FA00EDF6F400EE06FECC6D9F5EDC608
:10716E00DAF5EEC6DBF5EFC6DCF5FCEC2CF0D9C596
:10717E0010F6DAC511F6DBC512F6DCC513F66CECAB
:10718E0054F00601D8A0CEEF38F0D0EF38F01BEF58
:10719E0039F0F7C50CF6F8C50DF6F9C50EF6FAC5B9
:1071AE000FF6000E0501DD6F000EDE6F200EDF6F95
:1071BE00410EE06FECC6D9F5EDC6DAF5EEC6DBF59D
:1071CE00EFC6DCF5FCEC2CF0D9C510F6DAC511F6DD
:1071DE00DBC512F6DCC513F66CEC54F00601D8B024
:1071EE00FBEF38F0FDEF38F01BEF39F00501F651EB
:1071FE00F5110BE1E80EF35D030EF459D8A00AEF7A
:10720E0039F00CEF39F017EF3AF0010E0601E56F89
:10721E00CFEC74F064C52EF765C52FF766C530F751
:10722E0067C531F717EF3AF0F7C50CF6F8C50DF64E
:10723E00F9C50EF6FAC50FF6000E0501DD6F000E4C
:10724E00DE6F200EDF6F410EE06FECC6D9F5EDC696
:10725E00DAF5EEC6DBF5EFC6DCF5FCEC2CF0D9C5A5
:10726E0010F6DAC511F6DBC512F6DCC513F66CECBA
:10727E0054F00601D8A046EF39F048EF39F00FEF81
:10728E0039F00501F651F5110BE1E80EF35D030E31
:10729E00F459D8A055EF39F057EF39F05CEF39F0CB
:1072AE00020E0601E56F0FEF39F017EF3AF0010EFF
:1072BE00E76F040EE46566EF39F068EF39F017EF0B
:1072CE003AF0ECC60CF6EDC60DF6EEC60EF6EFC6AF
:1072DE000FF6F7C510F6F8C511F6F9C512F6FAC590
:1072EE0013F66CEC54F00601D8A080EF39F082EF63
:1072FE0039F095EF39F00501F651F5110BE1E80E75
:10730E00F35D030EF459D8A08FEF39F091EF39F0F9
:10731E0017EF3AF00601E56B0FEF39F0F7C50CF6F3
:10732E00F8C50DF6F9C50EF6FAC50FF6000E0501F5
:10733E00DD6F000EDE6F200EDF6F410EE06FECC6CC
:10734E00D9F5EDC6DAF5EEC6DBF5EFC6DCF5FCECED
:10735E002CF0D9C510F6DAC511F6DBC512F6DCC570
:10736E0013F66CEC54F00601D8A0C0EF39F0C2EF62
:10737E0039F00FEF39F00501F651F5110BE1E80E7A
:10738E00F35D030EF459D8A0CFEF39F0D1EF39F0F9
:10739E005CEF39F057EF39F0020EE76F040EE4653B
:1073AE00DBEF39F0DDEF39F017EF3AF0ECC60CF603
:1073BE00EDC60DF6EEC60EF6EFC60FF6F7C510F6D5
:1073CE00F8C511F6F9C512F6FAC513F66CEC54F0C1
:1073DE000601D8A0F5EF39F0F7EF39F017EF3AF0D4
:1073EE000501F651F5110BE1D00EF35D070EF459C0
:1073FE00D8A004EF3AF006EF3AF017EF3AF091EF1B
:10740E0039F0E551000AD8B49AEF38F0010AD8B431
:10741E005EEF39F0030AD8B4D3EF39F017EF3AF034
:10742E001200060114511511D8A420EF3AF022EFE4
:10743E003AF02CEF3AF0000E146F000E156F000E9E
:10744E00166F000E176FF6EF3BF0CFEC74F064C5BD
:10745E0026F665C527F666C528F667C529F6060120
:10746E0020EE08F01451D9261551DA22DEC464F547
:10747E00DEC465F5DEC466F5DEC467F516C668F5CE
:10748E0017C669F518C66AF519C66BF50AEC64F0ED
:10749E000501D8B055EF3AF057EF3AF0E6EF3AF073
:1074AE00060120EE08F01451D9261551DA2216C61F
:1074BE00DEF417C6DEF418C6DEF419C6DEF414C602
:1074CE00D9F415C6DAF4DEC40CF6DEC40DF6DEC44D
:1074DE000EF6DEC40FF616C610F617C611F618C64F
:1074EE0012F619C613F66CEC54F00601D8B082EF02
:1074FE003AF084EF3AF0B4EF3AF014C6D9F415C668
:10750E00DAF410EE04F01451E1261551E222DEC435
:10751E00E6F4DEC4E6F4DEC4E6F4DEC4E6F420EE01
:10752E000CF01451D9261551DA2226C6DEF427C6E0
:10753E00DEF428C6DEF429C6DEF420EE10F0145177
:10754E00D9261551DA221AC6DEF41BC6DEF41CC685
:10755E00DEF41DC6DEF4E6EF3AF020EE04F0145130
:10756E00D9261551DA2216C6DEF417C6DEF418C671
:10757E00DEF419C6DEF414C6D9F415C6DAF416C64E
:10758E00DEF417C6DEF418C6DEF419C6DEF420EEFD
:10759E000CF01451D9261551DA2226C6DEF427C670
:1075AE00DEF428C6DEF429C6DEF420EE10F0145107
:1075BE00D9261551DA22DE6ADE6ADE6ADD6A060136
:1075CE0020EE10F01451D9261551DA22DE50DE10BD
:1075DE00DE10DE10D8A4F6EF3AF0F8EF3AF006EF30
:1075EE003BF014C6D9F415C6DAF4DEC414F6DEC4C4
:1075FE0015F6DEC416F6DEC417F6F6EF3BF020EEF7
:10760E000CF01451D9261551DA22DEC468F5DEC409
:10761E0069F5DEC46AF5DEC46BF525EC67F068C566
:10762E002AF669C52BF66AC52CF66BC52DF6060132
:10763E0020EE10F01451D9261551DA22DE502A5DB3
:10764E00DE502B59DE502C59DE502D59D8A032EF7A
:10765E003BF034EF3BF054EF3BF020EE08F01451CA
:10766E00D9261551DA2214C6E1F415C6E2F4DEC4A9
:10767E00E6F4DEC4E6F4DEC4E6F4DEC4E6F414C6D4
:10768E00D9F415C6DAF4DEC414F6DEC415F6DEC47B
:10769E0016F6DEC417F6F6EF3BF02AC699F52BC6A2
:1076AE009AF52CC69BF52DC69CF5000E5BEC4BF0A7
:1076BE0099C5C0F59AC5C1F59BC5C2F59CC5C3F564
:1076CE00060120EE10F01451D9261551DA22DEC42F
:1076DE0099F5DEC49AF5DEC49BF5DEC49CF5000E6A
:1076EE005BEC4BF099C5C4F59AC5C5F59BC5C6F5BF
:1076FE009CC5C7F5F7EC3BF0C0C51EF6C1C51FF61D
:10770E00C2C520F6C3C521F61EC6ABF51FC6ACF525
:10771E0020C6ADF521C6AEF5060120EE04F01451DB
:10772E00D9261551DA22DEC404F6DEC405F6DEC40F
:10773E0006F6DEC407F620EE08F01451D9261551D0
:10774E00DA22DEC400F6DEC401F6DEC402F6DEC4C2
:10775E0003F693EC6EF000C6A7F501C6A8F502C6B7
:10776E00A9F503C6AAF50AEC36F0A7C522F6A8C5F8
:10777E0023F6A9C524F6AAC525F622C6D9F523C631
:10778E00DAF524C6DBF525C6DCF5060120EE04F09D
:10779E001451D9261551DA22DEC4DDF5DEC4DEF52C
:1077AE00DEC4DFF5DEC4E0F5FCEC2CF014C6D9F433
:1077BE0015C6DAF40501D9C5DEF4DAC5DEF4DBC58B
:1077CE00DEF4DCC5DEF414C6D9F415C6DAF4DEC474
:1077DE0014F6DEC415F6DEC416F6DEC417F6120075
:1077EE000501C351800BD06FC351C325D76FC2AFF4
:1077FE0003EF3CF005EF3CF006EF3CF0D781D7519C
:10780E00D8B40CEF3CF00EEF3CF022EF3CF0D72951
:10781E00D8A414EF3CF016EF3CF01EEF3CF0000E37
:10782E00C06F000EC16F000EC26F000EC36FC28F0D
:10783E00C36B2AEF3CF0000EC06F000EC16F000E3E
:10784E00C26F000EC36FC751800BD01BC751C72527
:10785E00D86FC6AF35EF3CF037EF3CF038EF3CF069
:10786E00D881D851D8B43EEF3CF040EF3CF054EF05
:10787E003CF0D829D8A446EF3CF048EF3CF050EF4E
:10788E003CF0000EC46F000EC56F000EC66F000EEA
:10789E00C76FC68FC76B5CEF3CF0000EC46F000E57
:1078AE00C56F000EC66F000EC76FC451C511C6114D
:1078BE00C711D8A465EF3CF067EF3CF07FEF3CF0CA
:1078CE00000EC06F000EC16F000EC26F000EC36FB0
:1078DE00800EC2137F0EC313D051C313C0C5C0F5A3
:1078EE00C1C5C1F5C2C5C2F5C3C5C3F5BFEF3DF0F5
:1078FE00D751D8A485EF3CF087EF3CF091EF3CF0E8
:10790E00000EC06F000EC16F000EC26F000EC36F6F
:10791E00BFEF3DF0D851D7C5C8F5C96BC85F000E93
:10792E00C95B7F0EC825D16F000EC921D26FC0C5AD
:10793E00CCF5C1C5CDF5C2C5CEF5C3C5CFF5000E8C
:10794E00C06F000EC16F000EC26F000EC36F000E2F
:10795E00D36F000ED46F000ED56F000ED66FD86B9E
:10796E00F1EF3CF0D851D8B4BFEF3CF0C1EF3CF092
:10797E00D8EF3CF0D890CC37CD37CE37CF37D89024
:10798E00C037C137C237C337D6AFD0EF3CF0D2EFD6
:10799E003CF0D3EF3CF0C081D890D337D437D537F5
:1079AE00D637C451CC5DC551CD59C651CE59C751EC
:1079BE00CF59D8A0E5EF3CF0E7EF3CF0F0EF3CF00C
:1079CE00D68DC451CC5FC551CD5BC651CE5BC75170
:1079DE00CF5BD82B190ED865F7EF3CF0F9EF3CF0E2
:1079EE00B9EF3CF0CC51CD11CE11CF11D8B402EF7E
:1079FE003DF004EF3DF01CEF3DF0D3811CEF3DF068
:107A0E00D890C037C137C237C337D6AF11EF3DF06C
:107A1E0013EF3DF014EF3DF0C081D890D337D4373B
:107A2E00D537D637D107D8A0D207C2AF21EF3DF058
:107A3E0023EF3DF007EF3DF0D86BD6AF29EF3DF0C9
:107A4E002BEF3DF04FEF3DF0FF0ED315C86FFF0E3D
:107A5E00D415C96FFF0ED515CA6F7F0ED615CB6F15
:107A6E00C851C911CA11CB11D8B440EF3DF042EF45
:107A7E003DF046EF3DF0010ED86F4FEF3DF0C0A147
:107A8E004BEF3DF04DEF3DF04FEF3DF042EF3DF04F
:107A9E00D851D8B455EF3DF057EF3DF07BEF3DF0A8
:107AAE00010EC027000EC123C223C323C3A162EF60
:107ABE003DF064EF3DF07BEF3DF0C0C5C8F5C1C5AC
:107ACE00C9F5C2C5CAF5C3C5CBF5CB35CB33CA3361
:107ADE00C933C833C8C5C0F5C9C5C1F5CAC5C2F5D5
:107AEE00CBC5C3F5D14BD22BD2BF86EF3DF0D251D1
:107AFE0008E1D129D8A086EF3DF088EF3DF093EF55
:107B0E003DF0000ED26FD169000EC06F000EC16F36
:107B1E00000EC26F000EC36FD2BFA0EF3DF0D25168
:107B2E0006E1D105D8B09EEF3DF0A0EF3DF0ADEFF0
:107B3E003DF0000ED26F000ED16F000EC06F000E22
:107B4E00C16F000EC26F000EC36FD06BD1C5D7F5DB
:107B5E00D7A1B4EF3DF0B6EF3DF0B9EF3DF0C28FD7
:107B6E00BAEF3DF0C29FD890D731C36F73EF3CF0A0
:107B7E00120026C768F527C769F528C76AF529C711
:107B8E006BF525EC67F068C5C5F669C5C6F66AC51E
:107B9E00C7F66BC5C8F60601C851C711C61109E173
:107BAE000B0EC55DD8A0DEEF3DF0E0EF3DF0ECEF43
:107BBE003DF0E351D8B4E6EF3DF0E8EF3DF0ECEFE9
:107BCE003DF0010EE26FABEC75F00601E205D8B4A4
:107BDE00F3EF3DF0F5EF3DF0F7EF3DF039EF3FF00D
:107BEE001F0E0501646F090E656F480E666F0B0E52
:107BFE00676FE3C668F5696BE3EC6CF00601E35161
:107C0E00FE0FCF6F1F0E0501646F090E656FCFC695
:107C1E0066F5F5EC68F064C5C9F665C5CAF6200EC2
:107C2E000601CF25D96EDA6A090EDA22DF50C16F4E
:107C3E001F0ECF25D96EDA6A090EDA22DF50C26F17
:107C4E00C251C46FC36BC151C325CB6F000EC4218B
:107C5E00CC6FCB51C91909E1CC51CA19D8B43AEF3E
:107C6E003EF03CEF3EF040EF3EF04AEC6EF039EF66
:107C7E003FF025C9CDF6E351F70FCE6FCD51CE199A
:107C8E00D8B44CEF3EF04EEF3EF050EF3EF03CEFEE
:107C9E003EF0100E09012019D8A458EF3EF05AEF0D
:107CAE003EF06AEF3EF00E0E2219D8A461EF3EF0C0
:107CBE0063EF3EF06AEF3EF01F0E0501646F090E92
:107CCE00656FF5EC58F0AA0E09011F19D8A472EFD2
:107CDE003EF074EF3EF03CEF3EF05A0E2019D8A461
:107CEE007BEF3EF07DEF3EF03CEF3EF01EEF3FF0BF
:107CFE002105D8A485EF3EF087EF3EF08EEF3EF0E3
:107D0E001F0E0601876F090E886F06EC52F0020EE9
:107D1E0009012119D8A496EF3EF098EF3EF03CEF02
:107D2E003EF01F0E0601876F090E886F7CEC4AF03D
:107D3E003CEF3EF0020E2119D8A4A8EF3EF0AAEFB8
:107D4E003EF03CEF3EF01F0E0601876F090E886F66
:107D5E0013EC5CF03CEF3EF0020E2119D8A4BAEF02
:107D6E003EF0BCEF3EF03CEF3EF01F0E0601876F7B
:107D7E00090E886FD1EC4DF03CEF3EF02105D8A4F2
:107D8E00CBEF3EF0CDEF3EF0D4EF3EF01F0E0601EE
:107D9E00876F090E886F3CEC53F0020E0901211912
:107DAE00D8A4DCEF3EF0DEEF3EF03CEF3EF01F0ECF
:107DBE0006019C6F090E9D6F61EC43F03CEF3EF0A7
:107DCE002105D8A4EDEF3EF0EFEF3EF0F6EF3EF0DA
:107DDE001F0E0601876F090E886F94EC5BF0020E82
:107DEE0009012119D8A4FEEF3EF000EF3FF03CEF61
:107DFE003EF01F0E06019C6F090E9D6F29EC56F08A
:107E0E003CEF3EF02105D8A40FEF3FF011EF3FF00D
:107E1E003CEF3EF01F0E0601876F090E886F7EEC59
:107E2E0059F03CEF3EF06BEC75F03CEF3EF022511A
:107E3E00010AD8B47FEF3EF0030AD8B4C5EF3EF086
:107E4E000A0AD8B4E7EF3EF01E0AD8B409EF3FF0A5
:107E5E00010AD8B4A1EF3EF0400AD8B4B3EF3EF019
:107E6E001AEF3FF01200000E06014A6F000E4B6F24
:107E7E00A00E4C6F400E4D6F6F0E4E6F120E4F6F69
:107E8E00830E506F400E516F000E526F400E536FA7
:107E9E001C0E546F460E556F000E566F500E576FD8
:107EAE00C30E586F470E596F000E5A6F000E5B6F60
:107EBE007A0E5C6F450E5D6F330E5E6F130E5F6F45
:107ECE00950E606F430E616F000E0501DD6F000EA3
:107EDE00DE6F800EDF6FBF0EE06F4EC6ABF54FC686
:107EEE00ACF550C6ADF551C6AEF546C699F547C6CA
:107EFE009AF5000E9ABFFF0E9B6F9C6F010E5BEC06
:107F0E004BF099C5A7F59AC5A8F59BC5A9F59CC5D3
:107F1E00AAF50AEC36F0A7C5C4F5A8C5C5F5A9C5DE
:107F2E00C6F5AAC5C7F54AC6ABF54BC6ACF54CC6E9
:107F3E00ADF54DC6AEF5FF0E0501996F0F0E9A6F9A
:107F4E00000E9B6F000E9C6F000E5BEC4BF099C504
:107F5E00A7F59AC5A8F59BC5A9F59CC5AAF50AEC87
:107F6E0036F0A7C5C0F5A8C5C1F5A9C5C2F5AAC505
:107F7E00C3F5F7EC3BF0C0C5D9F5C1C5DAF5C2C5FE
:107F8E00DBF5C3C5DCF5FCEC2CF0D9C56AF6DAC519
:107F9E006BF6DBC56CF6DCC56DF66AC6A7F56BC66F
:107FAE00A8F56CC6A9F56DC6AAF552C6ABF553C6B3
:107FBE00ACF554C6ADF555C6AEF50AEC36F0A7C510
:107FCE0062F6A8C563F6A9C564F6AAC565F656C6D7
:107FDE00C4F557C6C5F558C6C6F559C6C7F562C627
:107FEE00C0F563C6C1F564C6C2F565C6C3F5F7EC48
:107FFE003BF0C0C56EF6C1C56FF6C2C570F6C3C5FF
:10800E0071F66EC608F66FC609F670C60AF671C628
:10801E000BF6C9EC29F008C672F609C673F60AC645
:10802E0074F60BC675F672C6ABF573C6ACF574C6B0
:10803E00ADF575C6AEF55AC6C4F55BC6C5F55CC6DC
:10804E00C6F55DC6C7F5000E0501C06F000EC16F07
:10805E00800EC26F3F0EC36FF7EC3BF0C0C5A7F5A5
:10806E00C1C5A8F5C2C5A9F5C3C5AAF50AEC36F077
:10807E00A7C5DDF5A8C5DEF5A9C5DFF5AAC5E0F5EE
:10808E005EC6C4F55FC6C5F560C6C6F561C6C7F562
:10809E00000E0501C06F000EC16F800EC26F3F0E45
:1080AE00C36FF7EC3BF0C0C5D9F5C1C5DAF5C2C553
:1080BE00DBF5C3C5DCF5FCEC2CF0D9C576F6DAC5DC
:1080CE0077F6DBC578F6DCC579F6000E0501C06FD4
:1080DE00000EC16F800EC26F3F0EC36F76C6C4F521
:1080EE0077C6C5F578C6C6F579C6C7F5F7EC3BF089
:1080FE00C0C566F6C1C567F6C2C568F6C3C569F6E2
:10810E0066C6D9F567C6DAF568C6DBF569C6DCF56D
:10811E00330E0501DD6F930EDE6F880EDF6FC30E1B
:10812E00E06FFCEC2CF0D9C546F6DAC547F6DBC598
:10813E0048F6DCC549F6120006012C6F160E060134
:10814E002C19D8A4ADEF40F0AFEF40F04BEF41F05B
:10815E00160EABEC47F06CC528F66DC529F6000E71
:10816E000501C46FF00EC56F7F0EC66F450EC76F4B
:10817E0028C699F529C69AF5000E9ABFFF0E9B6F79
:10818E009C6F010E5BEC4BF099C5C0F59AC5C1F51D
:10819E009BC5C2F59CC5C3F5F7EC3BF0C0C5A7F572
:1081AE00C1C5A8F5C2C5A9F5C3C5AAF53D0E050101
:1081BE00AB6F0A0EAC6F830EAD6F400EAE6F0AEC56
:1081CE0036F0A7C518F6A8C519F6A9C51AF6AAC598
:1081DE001BF6100E06011C6F9C0E1D6FCA0E1E6F35
:1081EE003D0E1F6F1CC6ABF51DC6ACF51EC6ADF51C
:1081FE001FC6AEF518C6A7F519C6A8F51AC6A9F575
:10820E001BC6AAF50AEC36F0A7C5C0F5A8C5C1F580
:10821E00A9C5C2F5AAC5C3F5CD0E0501C46FCC0E16
:10822E00C56FCC0EC66F3D0EC76FF7EC3BF0C0C5E9
:10823E002DF6C1C52EF6C2C52FF6C3C530F62DC616
:10824E000CF62EC60DF62FC60EF630C60FF6660EBF
:10825E000601106F660E116F660E126F400E136FD1
:10826E006CEC54F00601D8A03FEF41F041EF41F025
:10827E00EEEF41F0660E2D6F660E2E6F660E2F6FAF
:10828E00400E306FEEEF41F0040E2C19D8A452EFD1
:10829E0041F054EF41F0EEEF41F0040EABEC47F03D
:1082AE006CC52AF66DC52BF6000E0501C46FF00ED7
:1082BE00C56F7F0EC66F450EC76F2AC699F52BC6C2
:1082CE009AF5000E9ABFFF0E9B6F9C6F010E5BEC32
:1082DE004BF099C5C0F59AC5C1F59BC5C2F59CC5B5
:1082EE00C3F5F7EC3BF0C0C5A7F5C1C5A8F5C2C5EF
:1082FE00A9F5C3C5AAF56F0E0501AB6F120EAC6FD3
:10830E00830EAD6F400EAE6F0AEC36F0A7C520F6A9
:10831E00A8C521F6A9C522F6AAC523F62A0E06017E
:10832E00246FFC0E256F8B0E266F3D0E276F24C615
:10833E00ABF525C6ACF526C6ADF527C6AEF520C6FF
:10834E00A7F521C6A8F522C6A9F523C6AAF50AECFB
:10835E0036F0A7C5C0F5A8C5C1F5A9C5C2F5AAC511
:10836E00C3F5CD0E0501C46FCC0EC56F4C0EC66F96
:10837E003E0EC76FF7EC3BF0C0C52DF6C1C52EF60D
:10838E00C2C52FF6C3C530F62DC60CF62EC60DF699
:10839E002FC60EF630C60FF6000E0601106F000E39
:1083AE00116F000E126F400E136F6CEC54F006013D
:1083BE00D8A0E4EF41F0E6EF41F0EEEF41F0000E11
:1083CE002D6F000E2E6F000E2F6F400E306F2DC6CC
:1083DE00A7F52EC6A8F52FC6A9F530C6AAF5000E2C
:1083EE000501AB6F000EAC6F7A0EAD6F440EAE6F23
:1083FE000AEC36F0A7C514F6A8C515F6A9C516F6EB
:10840E00AAC517F612003AC768F53BC769F53CC70F
:10841E006AF53DC76BF525EC67F068C59BF569C538
:10842E009CF56AC59DF56BC59EF52C0EABEC47F021
:10843E006CC59FF56DC5A0F55D50D8B429EF42F01F
:10844E002BEF42F038EF42F0CFEC74F064C53AF700
:10845E0065C53BF766C53CF767C53DF7010E506E27
:10846E005D6A5150D8A43EEF42F040EF42F046EF25
:10847E0043F005019E519D110BE1880E9B5D130E7D
:10848E009C59D8A04DEF42F04FEF42F046EF43F02B
:10849E00010E516E46EF43F05050D8A459EF42F002
:1084AE005BEF42F085EF42F09E519D110BE1B80E4D
:1084BE009B5D0B0E9C59D8A067EF42F069EF42F01E
:1084CE006CEF42F05E6A010E506E350E9F5D080E27
:1084DE00A059D8A075EF42F077EF42F060EF43F06D
:1084EE00010E526ECFEC74F064C53AF765C53BF7DA
:1084FE0066C53CF767C53DF760EF43F05150D8A411
:10850E008BEF42F08DEF42F0A5EF42F0730E9F5DC0
:10851E00060EA059D8A096EF42F098EF42F0A5EFC4
:10852E0042F0010E526ECFEC74F064C53AF765C599
:10853E003BF766C53CF767C53DF7506A5104D8A4B2
:10854E00ABEF42F0ADEF42F060EF43F0350E0501B8
:10855E009F5D080EA059D8A0B7EF42F0B9EF42F0D8
:10856E0060EF43F0010E526ECFEC74F064C53AF733
:10857E0065C53BF766C53CF767C53DF7506A60EFCA
:10858E0043F0576A010E5E6E5104D8A4D1EF42F04B
:10859E00D3EF42F0FBEF42F0A40E9F5D060EA05902
:1085AE00D8B0DCEF42F0DEEF42F0E1EF42F0526A7B
:1085BE00BBEF42F0D70E9F5D060EA059D8A0EAEF92
:1085CE0042F0ECEF42F060EF43F03A0E9F5D070E83
:1085DE00A059D8B0F5EF42F0F7EF42F060EF43F05C
:1085EE00020E526E79EF42F05150D8A401EF43F0D3
:1085FE0003EF43F060EF43F0A40E9F5D060EA0590B
:10860E00D8B00CEF43F00EEF43F012EF43F0010E33
:10861E00516EDEEF42F0D70E9F5D060EA059D8A028
:10862E001BEF43F01DEF43F060EF43F03A0E9F5DFA
:10863E00070EA059D8B026EF43F028EF43F060EFB5
:10864E0043F0F7EF42F0010E576E350E9F5D080EA8
:10865E00A059D8A035EF43F037EF43F039EF43F090
:10866E0077EF42F0A40E9F5D060EA059D8B042EFF0
:10867E0043F044EF43F060EF43F0DEEF42F0525030
:10868E000501996F9A6B9A51000AD8B451EF43F0D5
:10869E0060EF43F09951000AD8B453EF42F0010A4B
:1086AE00D8B4C8EF42F0030AD8B42AEF43F060EF13
:1086BE0043F01200000E0601B56F000EB66F000EED
:1086CE00B76F000EB86F21EEA0F2100EDE6AE8064C
:1086DE00FDE2A00E0501646F060E656F9CC666F581
:1086EE009DC667F5000E696F110E686FE3EC6CF0B6
:1086FE000601BF6BBF519E6F9F6B070E9E27000E2C
:10870E009F23A00E9E25D96E060E9F21DA6EB50E02
:10871E00BF25E16EE26A060EE222DFC4E7F4150E13
:10872E0006019E6FC60EE82EFED79E2FFCD70000C8
:10873E000601BF2B030EBF65A7EF43F0A9EF43F071
:10874E0081EF43F0B6C664F5B55139EC68F064C5F7
:10875E00B9F665C5BAF6B8C664F50601B75139EC77
:10876E0068F064C5BBF665C5BCF6580E0601B95D6A
:10877E00020EBA59D8A0C6EF43F0C8EF43F0D3EFBC
:10878E0043F0470EB95D050EBA59D8A0D1EF43F0AC
:10879E00D3EF43F0D8EF43F0020E5CEC60F091EFB4
:1087AE0044F0BC5109E13C0EBB5DD8A0E1EF43F0B3
:1087BE00E3EF43F0EEEF43F0BC5109E1970EBB5DE2
:1087CE00D8A0ECEF43F0EEEF43F0F3EF43F0020EE0
:1087DE005CEC60F091EF44F0B50E0501C06F060E33
:1087EE00C16F020EC26F020EFFEC71F0B70E0501E3
:1087FE00C06F060EC16F020EC26F060EFFEC71F057
:10880E00D00E06019E6FC90EE82EFED79E2FFCD706
:10881E0000D0550E0601A06F020E0501796F020EF3
:10882E00BBEC70F079C5B1F67AC5B2F6A70E0501AC
:10883E00646F060E656FB1C666F5B2C667F5000EBB
:10884E00696F020E686FE3EC6CF0020E0501796F32
:10885E00060EBBEC70F079C5B3F67AC5B4F6A90E68
:10886E000501646F060E656FB3C666F5B4C667F58F
:10887E00000E696F020E686FE3EC6CF0A00E05013E
:10888E00646F060E656F0F0E666FF5EC68F064C5CB
:10889E00BDF665C5BEF6BDC6B0F60601BE51AF6FDC
:1088AE00C06B5D0E756F3E0E766FA00EC025D96E35
:1088BE00DA6A060EDA22DF509E6F9E51776F786B62
:1088CE0088EC72F0100E0601C06170EF44F072EF8A
:1088DE0044F078EF44F06A0E756F3E0E766F88ECBA
:1088EE0072F00601C02B100EC06580EF44F082EFCF
:1088FE0044F058EF44F0A00E0501646F060E656F4C
:10890E00000E676F000E666F000E696F110E686FB6
:10891E0047EC70F012000EC7E9F50FC7EAF510C765
:10892E00EBF511C7ECF5D9C5E9F5DAC5EAF5DBC506
:10893E00EBF5DCC5ECF5810E0501DD6FFF0EDE6F8C
:10894E00E9C5DFF5EAC5E0F5EBC5E1F5ECC5E2F505
:10895E00180EB7EF44F0D890E233E133E033DF3353
:10896E00E82EB2EF44F0DF51DD25E76F000EDE2179
:10897E00E86FE8BFCCEF44F0E85109E1170EE75D70
:10898E00D8A0CCEF44F0CEEF44F0D8EF44F0D9C5E8
:10899E00D9F5DAC5DAF5DBC5DBF5DCC5DCF59CEF20
:1089AE0045F0E8BFDDEF44F0DFEF44F050EF45F067
:1089BE00E7C5DDF5FF0EDE6FFF0EDF6F7F0EE06F9A
:1089CE00000EE16FDD67EEEF44F0F6EF44F0E135B7
:1089DE00E133E033DF33DE33DD2FE9EF44F0DEC584
:1089EE00E3F5DFC5E4F5E0C5E5F5E1C5E6F505011E
:1089FE00E351E915DD6FE451EA15DE6FE551EB1534
:108A0E00DF6FE651EC15E06FDD51DE11DF11E01185
:108A1E00D8A414EF45F016EF45F018EF45F0CEEF61
:108A2E0044F0E9C5DDF5EAC5DEF5EBC5DFF5ECC5CD
:108A3E00E0F5200E28EF45F0D890E033DF33DE333B
:108A4E00DD33E82E23EF45F0DD51DE11DF11E011AD
:108A5E00D8B434EF45F036EF45F03EEF45F0E35134
:108A6E00E927E451EA23E551EB23E651EC23E31D1C
:108A7E00DD6FE41DDE6FE51DDF6FE61DE06FDD517E
:108A8E00E917DE51EA17DF51EB17E051EC1794EFBF
:108A9E0045F0E9C5DDF5EAC5DEF5EBC5DFF5ECC55C
:108AAE00E0F5200E60EF45F0D890E033DF33DE3393
:108ABE00DD33E82E5BEF45F0DD51DE11DF11E01105
:108ACE00D8A46CEF45F06EEF45F078EF45F0000E50
