:0430000081EF18F054
:103008008634863486348634400C8634400C8634C4
:10301800B8338634803486348634863486348634AD
:103028008134400C400C400C863486348634863417
:1030380086348634863495318430863486348431B7
:10304800F133733486348634400C400C863486342D
:10305800863486348634400C863486346231912B2B
:10306800BE33863486348634863486348634863451
:10307800A333AA338C2DD62A400C86347331BE2B49
:103088008634863486348634863486348634863468
:103098008634863486348634400C8634400C400CA2
:1030A800C43386348634863486348634863486340B
:1030B800863486348634D2308634863486348634F0
:1030C8008634863486348634863486348634863428
:1030D8008634863486348634863486348634863418
:1030E800400C863486348634400C400C400C400C2E
:1030F8008634863486348634FF0021EF51F0000090
:10310800C0C101C30302C2C60607C705C5C404CCB3
:103118000C0DCD0FCFCE0E0ACACB0BC90908C8D8E3
:103128001819D91BDBDA1A1EDEDF1FDD1D1CDC14A3
:10313800D4D515D71716D6D21213D311D1D010F073
:103148003031F133F3F23236F6F737F53534F43CF3
:10315800FCFD3DFF3F3EFEFA3A3BFB39F9F83828C3
:10316800E8E929EB2B2AEAEE2E2FEF2DEDEC2CE4E3
:103178002425E527E7E62622E2E323E12120E0A053
:103188006061A163A3A26266A6A767A56564A46C33
:10319800ACAD6DAF6F6EAEAA6A6BAB69A9A8687863
:1031A800B8B979BB7B7ABABE7E7FBF7DBDBC7CB423
:1031B8007475B577B7B67672B2B373B17170B05033
:1031C8009091519353529296565797559594549C73
:1031D8005C5D9D5F9F9E5E5A9A9B5B995958988843
:1031E8004849894B8B8A4A4E8E8F4F8D4D4C8C4463
:1031F80084854587474686824243834181804000D3
:10320800C1814001C0804101C0804100C1814001AD
:10321800C0804100C1814000C1814001C08041019E
:10322800C0804100C1814000C1814001C08041008F
:10323800C1814001C0804101C0804100C18140017D
:10324800C0804100C1814000C1814001C08041006F
:10325800C1814001C0804101C0804100C18140005E
:10326800C1814001C0804101C0804100C18140014D
:10327800C0804100C1814000C1814001C08041013E
:10328800C0804100C1814000C1814001C08041002F
:10329800C1814001C0804101C0804100C18140001E
:1032A800C1814001C0804101C0804100C18140010D
:1032B800C0804100C1814000C1814001C0804100FF
:1032C800C1814001C0804101C0804100C1814001ED
:1032D800C0804100C1814000C1814001C0804101DE
:1032E800C0804100C1814000C1814001C0804100CF
:1032F800C1814001C0804101C0804100C1814000BE
:10330800C0C101C30302C2C60607C705C5C404CCB1
:103318000C0DCD0FCFCE0E0ACACB0BC90908C8D8E1
:103328001819D91BDBDA1A1EDEDF1FDD1D1CDC14A1
:10333800D4D515D71716D6D21213D311D1D010F071
:103348003031F133F3F23236F6F737F53534F43CF1
:10335800FCFD3DFF3F3EFEFA3A3BFB39F9F83828C1
:10336800E8E929EB2B2AEAEE2E2FEF2DEDEC2CE4E1
:103378002425E527E7E62622E2E323E12120E0A051
:103388006061A163A3A26266A6A767A56564A46C31
:10339800ACAD6DAF6F6EAEAA6A6BAB69A9A8687861
:1033A800B8B979BB7B7ABABE7E7FBF7DBDBC7CB421
:1033B8007475B577B7B67672B2B373B17170B05031
:1033C8009091519353529296565797559594549C71
:1033D8005C5D9D5F9F9E5E5A9A9B5B995958988841
:1033E8004849894B8B8A4A4E8E8F4F8D4D4C8C4461
:1033F80084854587474686824243834181804000D1
:10340800C1814001C0804101C0804100C1814001AB
:10341800C0804100C1814000C1814001C08041019C
:10342800C0804100C1814000C1814001C08041008D
:10343800C1814001C0804101C0804100C18140017B
:10344800C0804100C1814000C1814001C08041006D
:10345800C1814001C0804101C0804100C18140005C
:10346800C1814001C0804101C0804100C18140014B
:10347800C0804100C1814000C1814001C08041013C
:10348800C0804100C1814000C1814001C08041002D
:10349800C1814001C0804101C0804100C18140001C
:1034A800C1814001C0804101C0804100C18140010B
:1034B800C0804100C1814000C1814001C0804100FD
:1034C800C1814001C0804101C0804100C1814001EB
:1034D800C0804100C1814000C1814001C0804101DC
:1034E800C0804100C1814000C1814001C0804100CD
:1034F800C1814001C0804101C0804100C1814000BC
:10350800C0C101C30302C2C60607C705C5C404CCAF
:103518000C0DCD0FCFCE0E0ACACB0BC90908C8D8DF
:103528001819D91BDBDA1A1EDEDF1FDD1D1CDC149F
:10353800D4D515D71716D6D21213D311D1D010F06F
:103548003031F133F3F23236F6F737F53534F43CEF
:10355800FCFD3DFF3F3EFEFA3A3BFB39F9F83828BF
:10356800E8E929EB2B2AEAEE2E2FEF2DEDEC2CE4DF
:103578002425E527E7E62622E2E323E12120E0A04F
:103588006061A163A3A26266A6A767A56564A46C2F
:10359800ACAD6DAF6F6EAEAA6A6BAB69A9A868785F
:1035A800B8B979BB7B7ABABE7E7FBF7DBDBC7CB41F
:1035B8007475B577B7B67672B2B373B17170B0502F
:1035C8009091519353529296565797559594549C6F
:1035D8005C5D9D5F9F9E5E5A9A9B5B99595898883F
:1035E8004849894B8B8A4A4E8E8F4F8D4D4C8C445F
:1035F80084854587474686824243834181804000CF
:10360800C1814001C0804101C0804100C1814001A9
:10361800C0804100C1814000C1814001C08041019A
:10362800C0804100C1814000C1814001C08041008B
:10363800C1814001C0804101C0804100C181400179
:10364800C0804100C1814000C1814001C08041006B
:10365800C1814001C0804101C0804100C18140005A
:10366800C1814001C0804101C0804100C181400149
:10367800C0804100C1814000C1814001C08041013A
:10368800C0804100C1814000C1814001C08041002B
:10369800C1814001C0804101C0804100C18140001A
:1036A800C1814001C0804101C0804100C181400109
:1036B800C0804100C1814000C1814001C0804100FB
:1036C800C1814001C0804101C0804100C1814001E9
:1036D800C0804100C1814000C1814001C0804101DA
:1036E800C0804100C1814000C1814001C0804100CB
:1036F800C1814001C0804101C0804100C1814000BA
:10370800C0C101C30302C2C60607C705C5C404CCAD
:103718000C0DCD0FCFCE0E0ACACB0BC90908C8D8DD
:103728001819D91BDBDA1A1EDEDF1FDD1D1CDC149D
:10373800D4D515D71716D6D21213D311D1D010F06D
:103748003031F133F3F23236F6F737F53534F43CED
:10375800FCFD3DFF3F3EFEFA3A3BFB39F9F83828BD
:10376800E8E929EB2B2AEAEE2E2FEF2DEDEC2CE4DD
:103778002425E527E7E62622E2E323E12120E0A04D
:103788006061A163A3A26266A6A767A56564A46C2D
:10379800ACAD6DAF6F6EAEAA6A6BAB69A9A868785D
:1037A800B8B979BB7B7ABABE7E7FBF7DBDBC7CB41D
:1037B8007475B577B7B67672B2B373B17170B0502D
:1037C8009091519353529296565797559594549C6D
:1037D8005C5D9D5F9F9E5E5A9A9B5B99595898883D
:1037E8004849894B8B8A4A4E8E8F4F8D4D4C8C445D
:1037F80084854587474686824243834181804000CD
:10380800C1814001C0804101C0804100C1814001A7
:10381800C0804100C1814000C1814001C080410198
:10382800C0804100C1814000C1814001C080410089
:10383800C1814001C0804101C0804100C181400177
:10384800C0804100C1814000C1814001C080410069
:10385800C1814001C0804101C0804100C181400058
:10386800C1814001C0804101C0804100C181400147
:10387800C0804100C1814000C1814001C080410138
:10388800C0804100C1814000C1814001C080410029
:10389800C1814001C0804101C0804100C181400018
:1038A800C1814001C0804101C0804100C181400107
:1038B800C0804100C1814000C1814001C0804100F9
:1038C800C1814001C0804101C0804100C1814001E7
:1038D800C0804100C1814000C1814001C0804101D8
:1038E800C0804100C1814000C1814001C0804100C9
:1038F800C1814001C0804101C0804100C1814000B8
:10390800C0C101C30302C2C60607C705C5C404CCAB
:103918000C0DCD0FCFCE0E0ACACB0BC90908C8D8DB
:103928001819D91BDBDA1A1EDEDF1FDD1D1CDC149B
:10393800D4D515D71716D6D21213D311D1D010F06B
:103948003031F133F3F23236F6F737F53534F43CEB
:10395800FCFD3DFF3F3EFEFA3A3BFB39F9F83828BB
:10396800E8E929EB2B2AEAEE2E2FEF2DEDEC2CE4DB
:103978002425E527E7E62622E2E323E12120E0A04B
:103988006061A163A3A26266A6A767A56564A46C2B
:10399800ACAD6DAF6F6EAEAA6A6BAB69A9A868785B
:1039A800B8B979BB7B7ABABE7E7FBF7DBDBC7CB41B
:1039B8007475B577B7B67672B2B373B17170B0502B
:1039C8009091519353529296565797559594549C6B
:1039D8005C5D9D5F9F9E5E5A9A9B5B99595898883B
:1039E8004849894B8B8A4A4E8E8F4F8D4D4C8C445B
:1039F80084854587474686824243834181804000CB
:103A0800C1814001C0804101C0804100C1814001A5
:103A1800C0804100C1814000C1814001C080410196
:103A2800C0804100C1814000C1814001C080410087
:103A3800C1814001C0804101C0804100C181400175
:103A4800C0804100C1814000C1814001C080410067
:103A5800C1814001C0804101C0804100C181400056
:103A6800C1814001C0804101C0804100C181400145
:103A7800C0804100C1814000C1814001C080410136
:103A8800C0804100C1814000C1814001C080410027
:103A9800C1814001C0804101C0804100C181400016
:103AA800C1814001C0804101C0804100C181400105
:103AB800C0804100C1814000C1814001C0804100F7
:103AC800C1814001C0804101C0804100C1814001E5
:103AD800C0804100C1814000C1814001C0804101D6
:103AE800C0804100C1814000C1814001C0804100C7
:103AF800C1814001C0804101C0804100C1814000B6
:103B0800C0C101C30302C2C60607C705C5C404CCA9
:103B18000C0DCD0FCFCE0E0ACACB0BC90908C8D8D9
:103B28001819D91BDBDA1A1EDEDF1FDD1D1CDC1499
:103B3800D4D515D71716D6D21213D311D1D010F069
:103B48003031F133F3F23236F6F737F53534F43CE9
:103B5800FCFD3DFF3F3EFEFA3A3BFB39F9F83828B9
:103B6800E8E929EB2B2AEAEE2E2FEF2DEDEC2CE4D9
:103B78002425E527E7E62622E2E323E12120E0A049
:103B88006061A163A3A26266A6A767A56564A46C29
:103B9800ACAD6DAF6F6EAEAA6A6BAB69A9A8687859
:103BA800B8B979BB7B7ABABE7E7FBF7DBDBC7CB419
:103BB8007475B577B7B67672B2B373B17170B05029
:103BC8009091519353529296565797559594549C69
:103BD8005C5D9D5F9F9E5E5A9A9B5B995958988839
:103BE8004849894B8B8A4A4E8E8F4F8D4D4C8C4459
:103BF80084854587474686824243834181804000C9
:103C0800C1814001C0804101C0804100C1814001A3
:103C1800C0804100C1814000C1814001C080410194
:103C2800C0804100C1814000C1814001C080410085
:103C3800C1814001C0804101C0804100C181400173
:103C4800C0804100C1814000C1814001C080410065
:103C5800C1814001C0804101C0804100C181400054
:103C6800C1814001C0804101C0804100C181400143
:103C7800C0804100C1814000C1814001C080410134
:103C8800C0804100C1814000C1814001C080410025
:103C9800C1814001C0804101C0804100C181400014
:103CA800C1814001C0804101C0804100C181400103
:103CB800C0804100C1814000C1814001C0804100F5
:103CC800C1814001C0804101C0804100C1814001E3
:103CD800C0804100C1814000C1814001C0804101D4
:103CE800C0804100C1814000C1814001C0804100C5
:103CF800C1814001C0804101C0804100C18140BEF6
:103D0800B30000000042CA00AEC20000000028CF85
:103D1800000000000000000000000000000000009B
:103D2800000000000000000000000000000000008B
:103D3800000000000044CE0000000020CE00FCCDB2
:103D480000D8CD000000001AC10000000020BE000D
:103D580078BE00000000000000000000CECB00008C
:103D680000000000004348317C493A252E32667C29
:103D7800563A252E32667C503A252E32667C5057AC
:103D88004D3A25647C0A0D20004348327C493A2587
:103D98002E32667C563A252E32667C503A252E32D3
:103DA800667C50574D3A25647C0A0D200053503AE2
:103DB800252E32667C55524745313A25647C55524A
:103DC8004745323A25647C200A0D200054656D7001
:103DD8003A252E32667C0A0D200056696E3A256413
:103DE8007C200A0D20007069643A25647C0A0D2045
:103DF8000050726F3A25647C0A0D200025647C25EA
:103E0800640A0D2000563A25640A0D002530325800
:103E180000696E66006E616E00000601446B1EC686
:103E280045F61FC646F620C647F621C648F648BFDF
:103E380022EF1FF020EF1FF036EF1FF0010E446F46
:103E480045C663F546C664F547C665F548C666F5D2
:103E580026EC64F063C545F664C546F665C547F6C5
:103E680066C548F6000E06014A6F000E496FC3C6C4
:103E780038F6C4C639F64451D8B445EF1FF047EFB9
:103E88001FF05BEF1FF04451D8A44DEF1FF04FEF28
:103E98001FF055EF1FF0000E2A6F2B0E296F59EFF8
:103EA8001FF0000E2A6F2D0E296F29C644F645C64D
:103EB80063F546C664F547C665F548C666F525EC5C
:103EC80050F0050163056411D8A46DEF1FF06FEF82
:103ED8001FF0A6EF1FF006014451D8B476EF1FF08B
:103EE80078EF1FF081EF1FF044C673F93807D8A0A8
:103EF8003907000E4A6F010E496F730E49250501F7
:103F0800636F090E06014A210501646F190E656F7A
:103F18003E0E666FAEEC63F00601FD0E3827FF0E0D
:103F280039231CC677F51DC678F5730E0501796F20
:103F3800090E7A6F38C67BF539C67CF58CEC59F0DA
:103F480086EF24F045C663F546C664F547C665F5B1
:103F580048C666F525EC50F0050163516411D8A4F4
:103F6800B8EF1FF0BAEF1FF0DDEF1FF00601445164
:103F7800D8B4C1EF1FF0C3EF1FF0CCEF1FF044C659
:103F880073F93807D8A03907000E4A6F010E496F38
:103F9800730E49250501636F090E06014A210501C3
:103FA800646F1D0E656F3E0E666FAEEC63F090EFAA
:103FB8001FF0000E06014B6F000E4C6F800E4D6F08
:103FC8003F0E4E6F000E336F000E326F45C663F51D
:103FD80046C664F547C665F548C666F5000E050190
:103FE800676F000E686F000E696F000E6A6FE0EC75
:103FF80058F00501D8B003EF20F005EF20F0FFEFEF
:1040080020F012EF20F034C64BF635C64CF636C613
:104018004DF637C64EF60601324B332B4BC6BFF56D
:104028004CC6C0F54DC6C1F54EC6C2F5000E050119
:10403800C36F000EC46F200EC56F410EC66F02EC31
:104048002EF0BFC534F6C0C535F6C1C536F6C2C5B3
:1040580037F606013451455D0501636F0601355198
:1040680046590501646F0601365147590501656FC8
:104078000601375148590501666FB8EC5EF0050135
:1040880066BF52EF20F066516511641109E1020E16
:10409800635DD8A052EF20F054EF20F007EF20F036
:1040A80034C600F635C601F636C602F637C603F63C
:1040B80045C604F646C605F647C606F648C607F6D8
:1040C80006EC4AF00601D8A06CEF20F06EEF20F065
:1040D80007EF20F04B51455D0501636F06014C5118
:1040E80046590501646F06014D5147590501656F31
:1040F80006014E5148590501666FB8EC5EF005019E
:1041080066BF94EF20F066516511641107E1020E55
:10411800635DD8B092EF20F094EF20F0E5EF20F047
:104128004BC645F64CC646F64DC647F64EC648F64B
:10413800FFEF20F04BC6A6F54CC6A7F54DC6A8F56F
:104148004EC6A9F5000E0501AA6F000EAB6F200E32
:10415800AC6F410EAD6FDAEC35F0A6C54BF6A7C5CE
:104168004CF6A8C54DF6A9C54EF606013207D8A0EB
:1041780033074B51455D0501636F06014C514659A4
:104188000501646F06014D5147590501656F060128
:104198004E5148590501666FB8EC5EF0050166BFDF
:1041A800E3EF20F066516511641107E1020E635DCB
:1041B800D8B0E1EF20F0E3EF20F0E5EF20F094EF46
:1041C80020F045C600F646C601F647C602F648C6C0
:1041D80003F64BC604F64CC605F64DC606F64EC6A3
:1041E80007F606EC4AF00601D8A0FDEF20F0FFEF35
:1041F80020F09EEF20F022C62CF62CC62DF60601E4
:10420800C6BF09EF21F00BEF21F011EF21F0C5C671
:1042180025F6C6C626F615EF21F0000E266F060E07
:10422800256F25C630F626C631F6304B312B660E83
:104238002D19D8A422EF21F024EF21F044EF21F02A
:1042480033BF2BEF21F029EF21F037EF21F0000EDB
:104258004B6F000E4C6F800E4D6F3F0E4E6F000E71
:10426800336F000E326F670E2C19D8B43EEF21F071
:1042780040EF21F044EF21F0325130273351312300
:10428800000E436F000E426F45C63AF646C63BF62F
:1042980047C63CF648C63DF64BC634F64CC635F61E
:1042A8004DC636F64EC637F6D6EF21F03AC6A6F515
:1042B8003BC6A7F53CC6A8F53DC6A9F54BC6AAF569
:1042C8004CC6ABF54DC6ACF54EC6ADF5DAEC35F0DF
:1042D800A6C5BFF5A7C5C0F5A8C5C1F5A9C5C2F54E
:1042E800A6EC40F0BFC53EF6C0C53FF6C1C540F6D6
:1042F800C2C541F63EC618F63FC619F640C61AF6BC
:1043080041C61BF676EC4DF018C62EF619C62FF6E8
:104318003AC6D8F53BC6D9F53CC6DAF53DC6DBF555
:104328003EC6C3F53FC6C4F540C6C5F541C6C6F589
:104338004BC6BFF54CC6C0F54DC6C1F54EC6C2F555
:1043480002EC2EF0BFC5DCF5C0C5DDF5C1C5DEF554
:10435800C2C5DFF513EC62F0D8C53AF6D9C53BF60D
:10436800DAC53CF6DBC53DF64BC6A6F54CC6A7F547
:104378004DC6A8F54EC6A9F5000E0501AA6F000E98
:10438800AB6F200EAC6F410EAD6FDAEC35F0A6C501
:104398004BF6A7C54CF6A8C54DF6A9C54EF60601BD
:1043A800424B432B3051425D4351800A0501F66F61
:1043B80006013151800A0501F659D8A0E6EF21F02F
:1043C800E8EF21F05AEF21F04BC6BFF54CC6C0F517
:1043D8004DC6C1F54EC6C2F5000EC36F000EC46FC0
:1043E800A00EC56F400EC66F02EC2EF0BFC53EF69C
:1043F800C0C53FF6C1C540F6C2C541F63AC600F68B
:104408003BC601F63CC602F63DC603F63EC604F6B8
:104418003FC605F640C606F641C607F606EC4AF062
:104428000601D8B01AEF22F01CEF22F026EF22F096
:10443800000E3E6F000E3F6F000E406F000E416F82
:1044480050EF22F03AC663F53BC664F53CC665F505
:104458003DC666F53EC667F53FC668F540C669F5D0
:1044680041C66AF5E0EC58F00501D8A03EEF22F00D
:1044780040EF22F050EF22F006012EB146EF22F075
:1044880048EF22F050EF22F0000E3E6F000E3F6F13
:10449800000E406F000E416F45C663F546C664F5D1
:1044A80047C665F548C666F53EC667F53FC668F572
:1044B80040C669F541C66AF58DEC29F063C53AF640
:1044C80064C53BF665C53CF666C53DF63AC600F6DA
:1044D8003BC601F63CC602F63DC603F6000E0501D2
:1044E800C36F000EC46F200EC56F410EC66F34C671
:1044F800BFF535C6C0F536C6C1F537C6C2F502ECFC
:104508002EF0BFC504F6C0C505F6C1C506F6C2C57E
:1045180007F606EC4AF00601D8A095EF22F097EFCF
:1045280022F0C0EF22F0324B332B34C6BFF535C62C
:10453800C0F536C6C1F537C6C2F5000E0501C36F12
:10454800000EC46F200EC56F410EC66F02EC2EF030
:10455800BFC534F6C0C535F6C1C536F6C2C537F68F
:10456800660E06012D19D8A4BCEF22F0BEEF22F08A
:10457800C0EF22F0304B312B34C64BF635C64CF623
:1045880036C64DF637C64EF632C623F633C624F67F
:104598002B6B000E286F000E276F000E436F000E66
:1045A800426FBDEF23F03AC6A6F53BC6A7F53CC659
:1045B800A8F53DC6A9F54BC6AAF54CC6ABF54DC640
:1045C800ACF54EC6ADF5DAEC35F0A6C5BFF5A7C516
:1045D800C0F5A8C5C1F5A9C5C2F5A6EC40F0BFC590
:1045E8003EF6C0C53FF6C1C540F6C2C541F63EC657
:1045F80018F63FC619F640C61AF641C61BF676EC01
:104608004DF0060119BF14EF23F0195107E10A0E06
:10461800185DD8B012EF23F014EF23F024EF23F045
:104628003EC618F63FC619F640C61AF641C61BF62E
:1046380076EC4DF018C62EF619C62FF628EF23F0A3
:10464800000E2F6F090E2E6F06012B51D8A42FEFE5
:1046580023F031EF23F059EF23F024BF38EF23F094
:1046680036EF23F059EF23F0730E4925D96E090E62
:104678004A21DA6E2E0EDF6E494B4A2B3807D8A036
:104688003907010E2B6F59EF23F0730E4925D96EA8
:10469800090E4A21DA6E300EDF6E494B4A2B380775
:1046A800D8A039072707D8A0280727512811D8A448
:1046B80060EF23F062EF23F049EF23F0730E4925F2
:1046C800D96E090E4A21DA6E2E51300FDF6E494B32
:1046D8004A2B3807D8A039073AC6D8F53BC6D9F5CA
:1046E8003CC6DAF53DC6DBF53EC6C3F53FC6C4F5A4
:1046F80040C6C5F541C6C6F54BC6BFF54CC6C0F5A4
:104708004DC6C1F54EC6C2F502EC2EF0BFC5DCF5AC
:10471800C0C5DDF5C1C5DEF5C2C5DFF513EC62F035
:10472800D8C53AF6D9C53BF6DAC53CF6DBC53DF641
:104738004BC6A6F54CC6A7F54DC6A8F54EC6A9F5B5
:10474800000E0501AA6F000EAB6F200EAC6F410E74
:10475800AD6FDAEC35F0A6C54BF6A7C54CF6A8C583
:104768004DF6A9C54EF606012307D8A02407424BEB
:10477800432B3051425D4351800A0501F66F060113
:104788003151800A0501F659D8B0CDEF23F0CFEFAB
:1047980023F0DEEF23F006014ABFDCEF23F04A5195
:1047A80009E14B0E495DD8A0DCEF23F0DEEF23F0E2
:1047B800D7EF22F0000E0601436F4F0E426F730EC3
:1047C8004225D96E090E4321DA6EDF6A730E0501A0
:1047D800F66F090EF76F060149510501F65F0601EC
:1047E8004A510501F75B060142510501F625636F41
:1047F800060143510501F721646F730E656F090EB9
:10480800666F49C667F54AC668F5E9EC5FF00601C8
:104818004951425D496F4A5143594A6F4451D8A49E
:1048280018EF24F01BEF24F0010E1CEF24F0000E0B
:10483800426F436BD9A323EF24F025EF24F05BEFFD
:1048480024F036EF24F006014907D8A04A07730E72
:104858004925D96E090E4A21DA6E300EDF6E380707
:10486800D8A039073851425D4351800A0501F66FD7
:1048780006013951800A0501F659D8B046EF24F0EF
:1048880048EF24F05BEF24F006014951425D4351A3
:10489800800A0501F66F06014A51800A0501F6599A
:1048A800D8A059EF24F05BEF24F027EF24F006019D
:1048B8004451D8B462EF24F064EF24F06FEF24F091
:1048C8004907D8A04A07730E4925D96E090E4A210F
:1048D800DA6E44C6DFF44251385F4351395B1CC677
:1048E80077F51DC678F5730E49250501796F090E10
:1048F80006014A2105017A6F38C67BF539C67CF571
:104908008CEC59F012001EC6D8F51FC6D9F520C682
:10491800DAF521C6DBF522C6DCF523C6DDF524C6AB
:10492800DEF525C6DFF513EC62F0D8C546F6D9C525
:1049380047F6DAC548F6DBC549F646C6E0F547C688
:10494800E1F548C6E2F549C6E3F5D1EC64F0E0C507
:104958004EF6E1C54FF6E2C550F6E3C551F606013D
:1049680020EE05F01C51D9261D51DA22DEC44AF684
:10497800DEC44BF6DEC44CF6DEC44DF6000E006F06
:10498800000E016F480E026F420E036F4EC604F60A
:104998004FC605F650C606F651C607F606EC4AF0AD
:1049A8000601D8B0DAEF24F0DCEF24F0F9EF24F0B8
:1049B8004AC6BFF54BC6C0F54CC6C1F54DC6C2F5D3
:1049C800CD0E0501C36FCC0EC46FCC0EC56F3D0E66
:1049D800C66F02EC2EF0BFC54AF6C0C54BF6C1C57E
:1049E8004CF6C2C54DF665EF25F0000E006F000EBF
:1049F800016FA00E026F410E036F4EC604F64FC63C
:104A080005F650C606F651C607F606EC4AF006014A
:104A1800D8B011EF25F013EF25F030EF25F04AC696
:104A2800BFF54BC6C0F54CC6C1F54DC6C2F59A0ECA
:104A38000501C36F990EC46F990EC56F3E0EC66F00
:104A480002EC2EF0BFC54AF6C0C54BF6C1C54CF600
:104A5800C2C54DF665EF25F04EC600F64FC601F605
:104A680050C602F651C603F6000E046F000E056F1D
:104A7800A00E066F400E076F06EC4AF00601D8B08C
:104A880048EF25F04AEF25F065EF25F04AC6BFF557
:104A98004BC6C0F54CC6C1F54DC6C2F5000E0501A2
:104AA800C36F000EC46F000EC56F400EC66F02ECD8
:104AB8002EF0BFC54AF6C0C54BF6C1C54CF6C2C5F7
:104AC8004DF6060120EE01F01C51D9261D51DA22BF
:104AD800DEC4BFF5DEC4C0F5DEC4C1F5DEC4C2F570
:104AE80046C6C3F547C6C4F548C6C5F549C6C6F5A2
:104AF80002EC2EF0BFC526F6C0C527F6C1C528F6BC
:104B0800C2C529F64EC600F64FC601F650C602F6D3
:104B180051C603F6000E0601046F000E056F480E1D
:104B2800066F420E076F06EC4AF00601D8B09FEFF9
:104B380025F0A1EF25F080EF27F046C652F647C6CC
:104B480053F648C654F649C655F6000E006F000ED7
:104B5800016FF00E026F410E036F4EC604F64FC68A
:104B680005F650C606F651C607F606EC4AF00601E9
:104B7800D8B0C1EF25F0C3EF25F009EF26F0000EFD
:104B8800006F000E016F200E026F420E036F52C6B7
:104B980004F653C605F654C606F655C607F606ECDF
:104BA8004AF00601D8B0DBEF25F0DDEF25F0E5EFA0
:104BB80025F0000E526F000E536F200E546F420EF8
:104BC800556F52C600F653C601F654C602F655C6CE
:104BD80003F6000E046F000E056F200E066FC20E5E
:104BE800076F06EC4AF00601D8B0FDEF25F0FFEF9D
:104BF80025F0DCEF26F0000E526F000E536F200EEA
:104C0800546FC20E556FDCEF26F0000E006F000ED9
:104C1800016F200E026F410E036F4EC604F64FC699
:104C280005F650C606F651C607F606EC4AF0060128
:104C3800D8B021EF26F023EF26F098EF26F04EC6E5
:104C4800BFF54FC6C0F550C6C1F551C6C2F5CD0E69
:104C58000501C36FCC0EC46F4C0EC56F3F0EC66FF7
:104C680002EC2EF0BFC53EF6C0C53FF6C1C540F602
:104C7800C2C541F63EC600F63FC601F640C602F67A
:104C880041C603F652C604F653C605F654C606F6E0
:104C980055C607F606EC4AF00601D8B056EF26F0DE
:104CA80058EF26F060EF26F03EC652F63FC653F6A0
:104CB80040C654F641C655F652C600F653C601F62C
:104CC80054C602F655C603F63EC663F53FC664F5FC
:104CD80040C665F541C666F526EC64F063C504F682
:104CE80064C505F665C506F666C507F606EC4AF01E
:104CF8000601D8B082EF26F084EF26F0DCEF26F02C
:104D08003EC663F53FC664F540C665F541C666F51F
:104D180026EC64F063C552F664C553F665C554F6CF
:104D280066C555F6DCEF26F0000E006F000E016F29
:104D3800A00E026F400E036F52C604F653C605F666
:104D480054C606F655C607F606EC4AF00601D8B072
:104D5800B0EF26F0B2EF26F0BAEF26F0000E526F51
:104D6800000E536FA00E546F400E556F52C600F6DA
:104D780053C601F654C602F655C603F6000E046F74
:104D8800000E056FA00E066FC00E076F06EC4AF006
:104D98000601D8B0D2EF26F0D4EF26F0DCEF26F0EB
:104DA800000E526F000E536FA00E546FC00E556F59
:104DB80052C6BFF553C6C0F554C6C1F555C6C2F5AF
:104DC800060120EE05F01C51D9261D51DA22DEC459
:104DD800AAF5DEC4ABF5DEC4ACF5DEC4ADF54AC653
:104DE800A6F54BC6A7F54CC6A8F54DC6A9F5DAEC4D
:104DF80035F0A6C5C3F5A7C5C4F5A8C5C5F5A9C5A9
:104E0800C6F502EC2EF0BFC552F6C0C553F6C1C5B3
:104E180054F6C2C555F6060120EE1DF01C51D926E0
:104E28001D51DA22DEC463F5DEC464F5DEC465F51F
:104E3800DEC466F552C667F553C668F554C669F50B
:104E480055C66AF58DEC29F0060120EE1DF01C51BF
:104E5800D9261D51DA22050163C5DEF464C5DEF4E6
:104E680065C5DEF466C5DEF4060120EE11F01C51BE
:104E7800D9261D51DA22DEC410F6DEC411F6DEC4CE
:104E880012F6DEC413F620EE1DF01C51D9261D5172
:104E9800DA22DEC408F6DEC409F6DEC40AF6DEC489
:104EA8000BF620EE0DF01C51D9261D51DA22DEC476
:104EB8000CF6DEC40DF6DEC40EF6DEC40FF69BEC6F
:104EC8004AF008C614F609C615F60AC616F60BC641
:104ED80017F62FEC4BF0060120EE1DF01C51D926D9
:104EE8001D51DA2210C6DEF411C6DEF412C6DEF455
:104EF80013C6DEF48EEF27F020EE1DF01C51D926E4
:104F08001D51DA22000EDE6E000EDE6E000EDE6E21
:104F1800000EDD6E20EE1DF01C51D9261D51DA223F
:104F2800DEC4BFF5DEC4C0F5DEC4C1F5DEC4C2F51B
:104F38004AC6C3F54BC6C4F54CC6C5F54DC6C6F53D
:104F480002EC2EF0BFC52AF6C0C52BF6C1C52CF65B
:104F5800C2C52DF6060120EE21F01C51D9261D519F
:104F6800DA22DEC4DCF5DEC4DDF5DEC4DEF5DEC43F
:104F7800DFF546C6D8F547C6D9F548C6DAF549C6B5
:104F8800DBF513EC62F0D8C5BFF5D9C5C0F5DAC5B5
:104F9800C1F5DBC5C2F5060120EE09F01C51D92682
:104FA8001D51DA22DEC4C3F5DEC4C4F5DEC4C5F57E
:104FB800DEC4C6F502EC2EF0BFC53AF6C0C53BF616
:104FC800C1C53CF6C2C53DF6330E0501C36F330EAD
:104FD800C46F330EC56F3F0EC66F3AC6BFF53BC6EA
:104FE800C0F53CC6C1F53DC6C2F502EC2EF0BFC502
:104FF80063F5C0C564F5C1C565F5C2C566F59A0E09
:105008000501C36F990EC46F990EC56F3E0EC66F2A
:1050180010C7BFF511C7C0F512C7C1F513C7C2F550
:1050280002EC2EF0BFC567F5C0C568F5C1C569F5C6
:10503800C2C56AF58DEC29F063C53AF664C53BF63E
:1050480065C53CF666C53DF63AC610F73BC611F78E
:105058003CC612F73DC613F7060120EE21F01C519D
:10506800D9261D51DA2246C6DEF447C6DEF448C604
:10507800DEF449C6DEF42AC667F52BC668F52CC6E9
:1050880069F52DC66AF526C663F527C664F528C6F0
:1050980065F529C666F58DEC29F063C52EF664C55D
:1050A8002FF665C530F666C531F62EC663F52FC6F0
:1050B80064F530C665F531C666F53AC667F53BC690
:1050C80068F53CC669F53DC66AF58DEC29F063C5FF
:1050D80042F664C543F665C544F666C545F61CC682
:1050E800D9F41DC6DAF4DE04D8A47DEF28F07FEFEA
:1050F80028F000EF29F0060145BF87EF28F085EF7B
:1051080028F091EF28F0000E326F000E336F000E7A
:10511800346FBF0E356F99EF28F0000E326F000E16
:10512800336F000E346F3F0E356F42C667F543C6C6
:1051380068F544C669F545C66AF532C663F533C6EF
:1051480064F534C665F535C666F58DEC29F063C59A
:1051580018F664C519F665C51AF666C51BF676EC29
:105168004DF006011851C9271951CA23000E0C6FBA
:10517800000E0D6F480E0E6F450E0F6FC9C698F5DD
:10518800CAC699F50501000E99BFFF0E9A6F9B6F6D
:10519800010E8BEC43F098C508F699C509F69AC537
:1051A8000AF69BC50BF69BEC4AF008C614F609C62E
:1051B80015F60AC616F60BC617F6000E0601106F8E
:1051C800000E116F000E126F000E136F2FEC4BF0D4
:1051D80010C618F611C619F612C61AF613C61BF62B
:1051E80076EC4DF018C6C9F619C6CAF6C9C61CF63B
:1051F800CAC61DF68CEF29F01CC6D9F41DC6DAF410
:10520800020EDE18D8A40BEF29F00DEF29F08CEF71
:1052180029F0060145BF15EF29F013EF29F01FEF1C
:1052280029F0000E366F000E376F000E386FBF0E74
:10523800396F27EF29F0000E366F000E376F000E1A
:10524800386F3F0E396F42C667F543C668F544C6E6
:1052580069F545C66AF536C663F537C664F538C6D6
:1052680065F539C666F58DEC29F063C518F664C591
:1052780019F665C51AF666C51BF676EC4DF00601FB
:105288001851C7271951C823000E0C6F000E0D6F57
:10529800480E0E6F450E0F6FC7C698F5C8C699F52C
:1052A8000501000E99BFFF0E9A6F9B6F010E8BECE4
:1052B80043F098C508F699C509F69AC50AF69BC53C
:1052C8000BF69BEC4AF008C614F609C615F60AC692
:1052D80016F60BC617F6000E0601106F000E116FBA
:1052E800000E126F000E136F2FEC4BF010C618F65D
:1052F80011C619F612C61AF613C61BF676EC4DF04F
:1053080018C6C7F619C6C8F6C7C61CF6C8C61DF61D
:10531800120005016651800B6F6F66516625716F2B
:1053280065AF99EF29F09BEF29F09CEF29F0718187
:105338007151D8B4A2EF29F0A4EF29F0B8EF29F001
:105348007129D8A4AAEF29F0ACEF29F0B4EF29F01D
:10535800000E636F000E646F000E656F000E666FBF
:10536800658F666BC0EF29F0000E636F000E646FE7
:10537800000E656F000E666F6A51800B706F6F517B
:105388007019D8B4CAEF29F0CCEF29F0CDEF29F085
:105398006F8D6A516A25706F69AFD5EF29F0D7EF25
:1053A80029F0D8EF29F070817051D8B4DEEF29F0D8
:1053B800E0EF29F0F4EF29F07029D8A4E6EF29F0FE
:1053C800E8EF29F0F0EF29F0000E676F000E686F24
:1053D800000E696F000E6A6F698F6A6BFCEF29F027
:1053E800000E676F000E686F000E696F000E6A6F1F
:1053F8007151705DD8B003EF2AF005EF2AF02CEF59
:105408002AF06FAD0AEF2AF00CEF2AF00EEF2AF01F
:10541800800E6F1B71C572F570C571F572C570F598
:1054280063C572F567C563F572C567F564C572F53E
:1054380068C564F572C568F565C572F569C565F531
:1054480072C569F566C572F56AC566F572C56AF50D
:10545800726B715170C56BF56C6B6B5F000E6C5B9A
:105468006CBF40EF2AF06C5109E11A0E6B5DD8A0B1
:1054780040EF2AF042EF2AF079EF2AF063516411E5
:1054880065116611D8A44BEF2AF04EEF2AF0010EF1
:105498004FEF2AF0000E726F000E636F000E646FFC
:1054A800000E656F000E666F70C571F582EF2AF009
:1054B80072A161EF2AF063EF2AF069EF2AF0D89021
:1054C80072310109726F6BEF2AF0D890723363A1C1
:1054D80070EF2AF072EF2AF073EF2AF0728F6635B8
:1054E8006633653364336333712B7051715DD8A0B3
:1054F80080EF2AF082EF2AF05CEF2AF06FBD87EF89
:105508002AF089EF2AF0C9EF2AF07151D8A48FEF59
:105518002AF091EF2AF09BEF2AF0000E636F000E3D
:10552800646F000E656F000E666FE8EF2BF0675131
:10553800632768516423695165236A51662366A10C
:10554800A8EF2AF0AAEF2AF056EF2BF072A1AFEFDE
:105558002AF0B1EF2AF0B7EF2AF0D890723101099A
:10556800726FB9EF2AF0D890723363A1BEEF2AF0B8
:10557800C0EF2AF0C1EF2AF0728F663566336533C3
:1055880064336333712B56EF2BF06751635D6851B9
:105598006459695165596651800A6B6F6A51800A6E
:1055A8006B59D8B0DAEF2AF0DCEF2AF007EF2BF0CE
:1055B8006351675D6B6F645168596C6F65516959C8
:1055C8006D6F66516A596E6FFF0E6B25636FFF0E24
:1055D8006C21646FFF0E6D21656FFF0E6E21666F83
:1055E800800E6F1B726D7251D8A4FDEF2AF0FFEF89
:1055F8002AF00FEF2BF0010E6327000E64236523BA
:1056080066230FEF2BF06751635F6851645B695144
:10561800655B6A51665B6351641165116611D8A4B4
:1056280018EF2BF01AEF2BF04FEF2BF07251D8A494
:1056380020EF2BF022EF2BF04FEF2BF0000E636FD3
:10564800000E646F000E656F000E666FE8EF2BF0BA
:10565800D890633764376537663772AF36EF2BF00B
:1056680038EF2BF039EF2BF0638172A13EEF2BF06E
:1056780040EF2BF044EF2BF0D880723746EF2BF039
:10568800D89072377151D8B44CEF2BF04EEF2BF005
:105698004FEF2BF0710765AF54EF2BF056EF2BF05F
:1056A8002CEF2BF0706B72AF5CEF2BF05EEF2BF0F2
:1056B80076EF2BF072C56BF57F0E6B17D8B467EFDA
:1056C8002BF069EF2BF06DEF2BF0010E706F76EF7A
:1056D8002BF063A172EF2BF074EF2BF076EF2BF029
:1056E80069EF2BF07051D8B47CEF2BF07EEF2BF0E4
:1056F800A9EF2BF0010E6327000E642365236623B0
:1057080066A189EF2BF08BEF2BF0A9EF2BF063C587
:105718006BF564C56CF565C56DF566C56EF56E35DA
:105728006E336D336C336B336BC563F56CC564F5E1
:105738006DC565F56EC566F57129D8B4A6EF2BF071
:10574800A8EF2BF0A9EF2BF0712B7129D8B4AFEF8C
:105758002BF0B1EF2BF0B9EF2BF07151D8A4B7EFC4
:105768002BF0B9EF2BF0CAEF2BF0000E636F000E91
:10577800646F000E656F000E666F7151D8A4C7EF95
:105788002BF0C9EF2BF0CAEF2BF06F6B71A1CFEFA5
:105798002BF0D1EF2BF0D4EF2BF0658FD5EF2BF05A
:1057A800659FD8907131666F6FAFDDEF2BF0DFEF3B
:1057B8002BF0E0EF2BF0668F63C563F564C564F5E5
:1057C80065C565F566C566F5120051C6D9F452C6B9
:1057D800DAF4DEC4F6F4DDC4F7F4000EF86E08005F
:1057E800F550250AD8A4FBEF2BF0FDEF2BF0EAEFDC
:1057F8002DF051C6D9F452C6DAF4DE2A000EDD22A5
:10580800000E0601C46F000EC36FC3C6D9F6C56982
:10581800C669556B30EF2CF0D98351C6D9F452C6FE
:10582800DAF4DE2A000EDD2230EF2CF0010E556F7F
:1058380030EF2CF051C6D9F452C6DAF4DEC4F6F4CF
:10584800DDC4F7F4000EF86E0800F550300AD8B43D
:1058580010EF2CF01AEF2CF05551D8B436EF2CF08D
:1058680038EF2CF01EEF2CF051C663F552C664F5E4
:1058780053C665F554C666F558EC53F063C5C3F6D0
:1058880064C5C4F60601C4BF4EEF2CF04CEF2CF0F3
:1058980053EF2CF0D981C36DC41FD8B0C42B51C6A7
:1058A800D9F452C6DAF4DEC4F6F4DDC4F7F4000E17
:1058B800F86E0800F5502E0AD8A465EF2CF067EFB3
:1058C8002CF07CEF2CF051C6D9F452C6DAF4DE2A5B
:1058D800000EDD2251C663F552C664F553C665F560
:1058E80054C666F558EC53F063C5C5F664C5C6F6EC
:1058F80051C6D9F452C6DAF4DEC45BF6DDC45CF6F0
:105908005BC6F6F45CC6F7F4000EF86E0800F550B6
:10591800640AD8B492EF2CF094EF2CF0A4EF2CF09A
:105928005BC6F6F45CC6F7F4000EF86E0800F55096
:10593800690AD8A4A2EF2CF0A4EF2CF0D6EF2CF033
:1059480053C6D9F454C6DAF4DFC4F8F5020EDE26DD
:10595800DFC4F9F5000EDD22F8C5D9F4F9C5DAF48B
:10596800DEC457F6DDC458F6010E06015B250501B5
:10597800F86F000E06015C210501F96F51C6D9F4D4
:1059880052C6DAF4F8C5DEF4F9C5DDF44FC680F581
:1059980050C681F557C682F558C683F5A9EC42F082
:1059A80001EF2EF05BC6F6F45CC6F7F4000EF86E55
:1059B8000800F550580AD8A4E4EF2CF0E6EF2CF0D4
:1059C80028EF2DF053C6D9F454C6DAF4DFC4F8F53D
:1059D800020EDE26DFC4F9F5000EDD22F8C5D9F483
:1059E800F9C5DAF4DEC457F6DDC458F6010E06012F
:1059F8005B250501F86F000E06015C210501F96FB2
:105A080051C6D9F452C6DAF4F8C5DEF4F9C5DDF4A6
:105A18001AEF2DF04FC680F550C681F557C682F5AE
:105A280058C683F532EC48F001EF2EF05BC6F6F469
:105A38005CC6F7F4000EF86E0800F550580AD8B4A2
:105A48000EEF2DF028EF2DF051C6D9F452C6DAF436
:105A5800DEC45BF6DDC45CF65BC6F6F45CC6F7F440
:105A6800000EF86E0800F5C456F646EF2DF05B4BB5
:105A78005C2B56EF2DF06C0E566F56EF2DF0566BD3
:105A880056EF2DF0060156514C0AD8B43BEF2DF0D5
:105A98002A0AD8B43FEF2DF00A0AD8B43BEF2DF00C
:105AA80043EF2DF05BC6F6F45CC6F7F4000EF86E13
:105AB8000800F550660AD8A464EF2DF066EF2DF0C3
:105AC800E1EF2DF09CEF2DF053C6D9F454C6DAF46B
:105AD800DFC4F8F5040EDE26DFC4F9F5000EDD227A
:105AE800F8C5D9F4F9C5DAF4DEC457F6DEC458F6B9
:105AF800DEC459F6DEC45AF6A7EF2DF053C6D9F422
:105B080054C6DAF4DFC4F8F5040EDE26DFC4F9F56E
:105B1800000EDD22F8C5D9F4F9C5DAF4DEC457F66B
:105B2800DEC458F6DEC459F6DEC45AF6A7EF2DF0E7
:105B380056514C0AD8B482EF2DF0200AD8B468EF39
:105B48002DF0A7EF2DF0010E5B250501F86F000E73
:105B580006015C210501F96F51C6D9F452C6DAF481
:105B6800F8C5DEF4F9C5DDF4D3EF2DF04FC61CF609
:105B780050C61DF657C61EF658C61FF659C620F65B
:105B88005AC621F65BC6F6F45CC6F7F4000EF86E4A
:105B98000800F5C422F611EC1FF001EF2EF05BC6E9
:105BA800F6F45CC6F7F4000EF86E0800F550660AC5
:105BB800D8B4BAEF2DF0E1EF2DF051C6D9F452C6A2
:105BC800DAF4DE2A000EDD2201EF2EF051C6D9F4F8
:105BD80052C6DAF4DEC4F6F4DDC4F7F4000EF86E4B
:105BE8000800F5500501676F686B4FC669F550C628
:105BF8006AF5BFEC53F0E1EF2DF012000501C25138
:105C0800800BCB6FC251C225D16FC1AF0EEF2EF002
:105C180010EF2EF011EF2EF0D181D151D8B417EF3B
:105C28002EF019EF2EF02CEF2EF0D129D8A41FEF6B
:105C38002EF021EF2EF029EF2EF0000EBF6F000E90
:105C4800C06F000EC16F000EC26FC18F34EF2EF00F
:105C5800000EBF6F000EC06F000EC16F000EC26F46
:105C6800C651800BCB1BC651C625CC6FC5AF3FEFC5
:105C78002EF041EF2EF042EF2EF0CC81CC51D8B46B
:105C880048EF2EF04AEF2EF05DEF2EF0CC29D8A485
:105C980050EF2EF052EF2EF05AEF2EF0000EC36F99
:105CA800000EC46F000EC56F000EC66FC58F65EF7E
:105CB8002EF0000EC36F000EC46F000EC56F000EED
:105CC800C66FCC51D8B46BEF2EF06DEF2EF075EF98
:105CD8002EF0D151D8A473EF2EF075EF2EF07FEF90
:105CE8002EF0000EBF6F000EC06F000EC16F000EC9
:105CF800C26F15EF30F0C551BF03F3C4D6F5F4C435
:105D0800D7F5D651CD6FCE6BCF6BD06BD751D26F45
:105D1800D36BD46BD56BC451C003F3C4D6F5F4C4AC
:105D2800D7F5D651CD27000ECE23CF23D023D75178
:105D3800D227000ED323D423D523C351C103F3C4E0
:105D4800D6F5F4C4D7F5D651CD27000ECE23CF23F0
:105D5800D023D751D227000ED323D423D523CFC5A0
:105D6800D0F5CEC5CFF5CDC5CEF5CD6BC351C003AB
:105D7800F3C4D6F5F4C4D7F5D651CD27D751CE23E1
:105D8800000ECF23000ED023C451BF03F3C4D6F5B1
:105D9800F4C4D7F5D651CD27D751CE23000ECF2343
:105DA800000ED023CFC5D0F5CEC5CFF5CDC5CEF5E5
:105DB800CD6BC351BF03F3C4D6F5F4C4D7F5D651A0
:105DC800CD27D751CE23000ECF23000ED023C551A7
:105DD800C003F3C4D6F5F4C4D7F5D651D227D751AA
:105DE800D323000ED423000ED523C451C103F3C41A
:105DF800D6F5F4C4D7F5D651D227D751D323000E00
:105E0800D423000ED523C551C103F3C4D6F5F4C479
:105E1800D7F5D651C76FD751C86FC96BCA6BC9C5FB
:105E2800CAF5C8C5C9F5C7C5C8F5C76BC751D227D4
:105E3800C851D323C951D423CA51D523CDC5C7F5D9
:105E4800CEC5C8F5CFC5C9F5D0C5CAF5190E32EF0C
:105E58002FF0D890CA33C933C833C733E82E2DEF93
:105E68002FF0C751D227C851D323C951D423CA51BF
:105E7800D523CFC5D0F5CEC5CFF5CDC5CEF5CD6BE5
:105E8800CC51D1C5C7F5C86BC727000EC823820EF1
:105E9800C725D66FFF0EC821D76F68EF2FF0D890AF
:105EA800D237D337D437D537D0AF5DEF2FF05FEF88
:105EB8002FF060EF2FF0D281D890CD37CE37CF3783
:105EC800D037D607D8A0D707D4AF6DEF2FF06FEF34
:105ED8002FF053EF2FF0CC6BD0AF75EF2FF077EF9B
:105EE8002FF09BEF2FF0FF0ECD15C76FFF0ECE15CD
:105EF800C86FFF0ECF15C96F7F0ED015CA6FC75177
:105F0800C811C911CA11D8B48CEF2FF08EEF2FF039
:105F180092EF2FF0010ECC6F9BEF2FF0D2A197EFED
:105F28002FF099EF2FF09BEF2FF08EEF2FF0CC5141
:105F3800D8B4A1EF2FF0A3EF2FF0C7EF2FF0010E89
:105F4800D227000ED323D423D523D5A1AEEF2FF02B
:105F5800B0EF2FF0C7EF2FF0D2C5C7F5D3C5C8F5FE
:105F6800D4C5C9F5D5C5CAF5CA35CA33C933C83386
:105F7800C733C7C5D2F5C8C5D3F5C9C5D4F5CAC591
:105F8800D5F5D64BD72BD7BFD2EF2FF0D75108E195
:105F9800D629D8A0D2EF2FF0D4EF2FF0DEEF2FF0D4
:105FA800000ED26F000ED36F800ED46F7F0ED56FA8
:105FB8000BEF30F0D7BFEBEF2FF0D75106E1D60546
:105FC800D8B0E9EF2FF0EBEF2FF0F6EF2FF0000E3F
:105FD800D26F000ED36F000ED46F000ED56FCB6B4F
:105FE8000BEF30F0D6C5D1F5FF0ED217FF0ED31741
:105FF8007F0ED417000ED517D1A105EF30F007EFAB
:1060080030F008EF30F0D48FD890D131D56FCB5124
:10601800D513D2C5BFF5D3C5C0F5D4C5C1F5D5C50F
:10602800C2F512000501F76F1C0E0501F719D8A477
:1060380020EF30F022EF30F045EF31F0010E06018D
:10604800F06529EF30F02BEF30F045EF31F0000E1E
:106058000501AA6F000EAB6F7A0EAC6F440EAD6FE0
:106068001C0EB1EC41F005016BC598F56CC599F5AE
:106078009A6B9B6B000E8BEC43F098C5A6F599C5FF
:10608800A7F59AC5A8F59BC5A9F5DAEC35F0A6C51C
:10609800BFF5A7C5C0F5A8C5C1F5A9C5C2F5000ECD
:1060A8000501C36F000EC46F110EC56F430EC66F96
:1060B80002EC2EF0BFC5A8F6C0C5A9F6C1C5AAF660
:1060C800C2C5ABF6160E7AEC3EF0D8C5F8F5D9C5C0
:1060D800F9F5DAC5FAF5DBC5FBF5A8C6C3F5A9C617
:1060E800C4F5AAC6C5F5ABC6C6F5F8C5BFF5F9C56A
:1060F800C0F5FAC5C1F5FBC5C2F502EC2EF0BFC567
:10610800A6F5C0C5A7F5C1C5A8F5C2C5A9F5000E75
:106118000501AA6F000EAB6F7A0EAC6F440EAD6F1F
:10612800DAEC35F0A6C538F7A7C539F7A8C53AF7A8
:10613800A9C53BF7A8C600F6A9C601F6AAC602F685
:10614800ABC603F6000E0601046F800E056F090E3C
:10615800066F440E076F06EC4AF00601D8B0B7EF99
:1061680030F0B9EF30F0D3EF30F0000E006F000ED2
:10617800016F160E026F430E036FA8C604F6A9C678
:1061880005F6AAC606F6ABC607F606EC4AF00601FF
:10619800D8A0D1EF30F0D3EF30F0DCEF30F0010EC3
:1061A800ED6F000E0501F66F010EF56F10EF32F07E
:1061B800000E006F000E016FF00E026F410E036FAC
:1061C800A8C604F6A9C605F6AAC606F6ABC607F61B
:1061D80006EC4AF00601D8A0F4EF30F0F6EF30F004
:1061E800FFEF30F0020EED6F000E0501F66F020EA4
:1061F800F56F10EF32F0CD0E0501C36FCC0EC46FF2
:106208008C0EC56F3F0EC66FD7C698F5D8C699F5E0
:106218009A6B9B6B000E8BEC43F098C5BFF599C544
:10622800C0F59AC5C1F59BC5C2F502EC2EF0BFC5F5
:1062380000F6C0C501F6C1C502F6C2C503F638C7E7
:1062480004F639C705F63AC706F63BC707F606EC63
:106258004AF00601D8B033EF31F035EF31F03EEFB8
:1062680031F0030EED6F000E0501F66F020EF56FAB
:1062780010EF32F0000E0501F66F000EF56F10EF0B
:1062880032F0110E0501F719D8A44DEF31F04FEF98
:1062980031F03EEF31F0010E0601EF6556EF31F0B7
:1062A80058EF31F03EEF31F0000E0501AA6F000EF5
:1062B800AB6F7A0EAC6F440EAD6F110EB1EC41F0BE
:1062C80005016BC598F56CC599F59A6B9B6B000E2B
:1062D8008BEC43F098C5A6F599C5A7F59AC5A8F51E
:1062E8009BC5A9F5DAEC35F0A6C5BFF5A7C5C0F57D
:1062F800A8C5C1F5A9C5C2F5000E0501C36F000EFA
:10630800C46F110EC56F430EC66F02EC2EF0BFC5E9
:10631800A4F6C0C5A5F6C1C5A6F6C2C5A7F6040E63
:106328007AEC3EF0D8C5F8F5D9C5F9F5DAC5FAF52D
:10633800DBC5FBF5A4C6C3F5A5C6C4F5A6C6C5F559
:10634800A7C6C6F5F8C5BFF5F9C5C0F5FAC5C1F5C4
:10635800FBC5C2F502EC2EF0BFC5A6F5C0C5A7F572
:10636800C1C5A8F5C2C5A9F5000E0501AA6F000EA2
:10637800AB6F7A0EAC6F440EAD6FDAEC35F0A6C594
:1063880034F7A7C535F7A8C536F7A9C537F7A4C6A2
:1063980000F6A5C601F6A6C602F6A7C603F6000EC5
:1063A8000601046F000E056F960E066F430E076F09
:1063B80006EC4AF00601D8A0E4EF31F0E6EF31F040
:1063C800EFEF31F0040EED6F000E0501F66F010ED0
:1063D800F56F10EF32F0000E006F000E016FA00E87
:1063E800026F410E036FA4C604F6A5C605F6A6C63D
:1063F80006F6A7C607F606EC4AF00601D8A007EF8E
:1064080032F009EF32F03EEF31F0050EED6F000E7D
:106418000501F66F020EF56F1200030E09EC64F029
:1064280063C5ECF564C5EDF5000E0501AA6FF00E25
:10643800AB6F7F0EAC6F450EAD6FECC598F5EDC533
:1064480099F5000E99BFFF0E9A6F9B6F010E8BECAA
:1064580043F098C5A6F599C5A7F59AC5A8F59BC5B3
:10646800A9F5DAEC35F0A6C5BFF5A7C5C0F5A8C5EE
:10647800C1F5A9C5C2F56F0E0501C36F120EC46F31
:10648800830EC56F400EC66F02EC2EF0BFC5F6F541
:10649800C0C5F7F5C1C5F8F5C2C5F9F5F6C528F7C1
:1064A800F7C529F7F8C52AF7F9C52BF71FEC68F0E7
:1064B80063C5F2F564C5F3F565C5F4F566C5F5F58C
:1064C80024C767F525C768F526C769F527C76AF59C
:1064D800AFEC5BF067C5EEF568C5EFF569C5F0F59B
:1064E8006AC5F1F520C7DCF521C7DDF522C7DEF561
:1064F80023C7DFF5F6C5D8F5F7C5D9F5F8C5DAF538
:10650800F9C5DBF513EC62F0D8C5E0F5D9C5E1F5BE
:10651800DAC5E2F5DBC5E3F5D1EC64F0E0C500F6D9
:10652800E1C501F6E2C502F6E3C503F6CD0E0601A4
:10653800046FCC0E056F4C0E066F3D0E076F06EC10
:106548004AF00601D8B0ABEF32F0ADEF32F0B8EF59
:1065580032F0050EE061B3EF32F0B5EF32F0B9EF8B
:1065680032F0E02BB9EF32F0E06BF6C520F7F7C553
:1065780021F7F8C522F7F9C523F7EBEF33F0EE6BF7
:10658800040EE065CAEF32F0CCEF32F0FAEF33F0E8
:10659800F6C500F6F7C501F6F8C502F6F9C503F623
:1065A800660E046F660E056FE60E066F3F0E076FE8
:1065B80006EC4AF00601D8A0E4EF32F0E6EF32F03C
:1065C8001CEF33F0F6C500F6F7C501F6F8C502F67C
:1065D800F9C503F6CD0E046FCC0E056F0C0E066FD1
:1065E800400E076F06EC4AF00601D8B0FEEF32F015
:1065F80000EF33F01CEF33F00501F151F0110BE11E
:10660800E80EEE5D030EEF59D8A00DEF33F00FEF53
:1066180033F0FAEF33F0010E0601E16FF2C524F70B
:10662800F3C525F7F4C526F7F5C527F7FAEF33F0D4
:10663800F6C500F6F7C501F6F8C502F6F9C503F682
:106648009A0E046F990E056F190E066F400E076FAC
:1066580006EC4AF00601D8A034EF33F036EF33F0F9
:1066680012EF33F00501F151F0110BE1E80EEE5D88
:10667800030EEF59D8A043EF33F045EF33F04AEF5C
:1066880033F0020E0601E16F12EF33F0FAEF33F048
:10669800010EEE6F040EE06554EF33F056EF33F061
:1066A800FAEF33F0660E006F660E016FA60E026FEA
:1066B8003F0E036FF6C504F6F7C505F6F8C506F6EE
:1066C800F9C507F606EC4AF00601D8A06EEF33F0DC
:1066D80070EF33F08BEF33F00501F151F0110BE15E
:1066E800E80EEE5D030EEF59D8A07DEF33F07FEF93
:1066F80033F0FAEF33F00601E16BF2C524F7F3C586
:1067080025F7F4C526F7F5C527F7FAEF33F0F6C5F0
:1067180000F6F7C501F6F8C502F6F9C503F69A0EB4
:10672800046F990E056F190E066F400E076F06EC81
:106738004AF00601D8A0A3EF33F0A5EF33F012EF2B
:1067480033F00501F151F0110BE1E80EEE5D030E97
:10675800EF59D8A0B2EF33F0B4EF33F04AEF33F08B
:1067680045EF33F0020EEE6F040EE065BEEF33F036
:10677800C0EF33F0FAEF33F0660E006F660E016F6C
:10678800A60E026F3F0E036FF6C504F6F7C505F6B1
:10679800F8C506F6F9C507F606EC4AF00601D8A0D2
:1067A800D8EF33F0DAEF33F0FAEF33F00501F151B7
:1067B800F0110BE1D00EEE5D070EEF59D8A0E7EF10
:1067C80033F0E9EF33F0FAEF33F07FEF33F0E151D4
:1067D800000AD8B4C3EF32F0010AD8B44CEF33F052
:1067E800030AD8B4B6EF33F0FAEF33F0120006011B
:1067F80008510911D8A403EF34F005EF34F00FEF76
:1068080034F0000E086F000E096F000E0A6F000EBC
:106818000B6FD9EF35F01FEC68F063C51AF664C545
:106828001BF665C51CF666C51DF6060120EE08F0C8
:106838000851D9260951DA22DEC463F5DEC464F5AD
:10684800DEC465F5DEC466F50AC667F50BC668F5ED
:106858000CC669F50DC66AF5E0EC58F00501D8B02C
:1068680038EF34F03AEF34F0C9EF34F0060120EE97
:1068780008F00851D9260951DA220AC6DEF40BC6F7
:10688800DEF40CC6DEF40DC6DEF408C6D9F409C67B
:10689800DAF4DEC400F6DEC401F6DEC402F6DEC4B5
:1068A80003F60AC604F60BC605F60CC606F60DC6B0
:1068B80007F606EC4AF00601D8B065EF34F067EF4A
:1068C80034F097EF34F008C6D9F409C6DAF410EEBC
:1068D80004F00851E1260951E222DEC4E6F4DEC4E0
:1068E800E6F4DEC4E6F4DEC4E6F420EE0CF008516B
:1068F800D9260951DA221AC6DEF41BC6DEF41CC6F4
:10690800DEF41DC6DEF420EE10F00851D926095138
:10691800DA220EC6DEF40FC6DEF410C6DEF411C6A7
:10692800DEF4C9EF34F020EE04F00851D9260951FD
:10693800DA220AC6DEF40BC6DEF40CC6DEF40DC697
:10694800DEF408C6D9F409C6DAF40AC6DEF40BC6C2
:10695800DEF40CC6DEF40DC6DEF420EE0CF00851B1
:10696800D9260951DA221AC6DEF41BC6DEF41CC683
:10697800DEF41DC6DEF420EE10F00851D9260951C8
:10698800DA22DE6ADE6ADE6ADD6A060120EE10F0CF
:106998000851D9260951DA22DE50DE10DE10DE1049
:1069A800D8A4D9EF34F0DBEF34F0E9EF34F008C6BF
:1069B800D9F409C6DAF4DEC408F6DEC409F6DEC482
:1069C8000AF6DEC40BF6D9EF35F020EE0CF00851CC
:1069D800D9260951DA22DEC467F5DEC468F5DEC4BB
:1069E80069F5DEC46AF5AFEC5BF067C51EF668C5ED
:1069F8001FF669C520F66AC521F6060120EE10F0DB
:106A08000851D9260951DA22DE501E5DDE501F5981
:106A1800DE502059DE502159D8A015EF35F017EF78
:106A280035F037EF35F020EE08F00851D926095136
:106A3800DA2208C6E1F409C6E2F4DEC4E6F4DEC4EC
:106A4800E6F4DEC4E6F4DEC4E6F408C6D9F409C602
:106A5800DAF4DEC408F6DEC409F6DEC40AF6DEC4DB
:106A68000BF6D9EF35F01EC698F51FC699F520C666
:106A78009AF521C69BF5000E8BEC43F098C5A6F558
:106A880099C5A7F59AC5A8F59BC5A9F5060120EEF5
:106A980010F00851D9260951DA22DEC498F5DEC46F
:106AA80099F5DEC49AF5DEC49BF5000E8BEC43F035
:106AB80098C5AAF599C5ABF59AC5ACF59BC5ADF5D2
:106AC800DAEC35F0A6C512F6A7C513F6A8C514F674
:106AD800A9C515F612C6C3F513C6C4F514C6C5F57F
:106AE80015C6C6F5060120EE04F00851D92609514D
:106AF800DA22DEC4DCF5DEC4DDF5DEC4DEF5DEC494
:106B0800DFF520EE08F00851D9260951DA22DEC453
:106B1800D8F5DEC4D9F5DEC4DAF5DEC4DBF513EC4E
:106B280062F0D8C5BFF5D9C5C0F5DAC5C1F5DBC572
:106B3800C2F502EC2EF0BFC516F6C0C517F6C1C5E2
:106B480018F6C2C519F616C663F517C664F518C651
:106B580065F519C666F5060120EE04F00851D92638
:106B68000951DA22DEC467F5DEC468F5DEC469F5CA
:106B7800DEC46AF58DEC29F008C6D9F409C6DAF442
:106B8800050163C5DEF464C5DEF465C5DEF466C5DB
:106B9800DEF408C6D9F409C6DAF4DEC408F6DEC4A1
:106BA80009F6DEC40AF6DEC40BF612000501A95187
:106BB800800BB66FA951A925BD6FA8AFE6EF35F0D8
:106BC800E8EF35F0E9EF35F0BD81BD51D8B4EFEF0E
:106BD80035F0F1EF35F005EF36F0BD29D8A4F7EF21
:106BE80035F0F9EF35F001EF36F0000EA66F000E24
:106BF800A76F000EA86F000EA96FA88FA96B0DEFE5
:106C080036F0000EA66F000EA76F000EA86F000EDC
:106C1800A96FAD51800BB61BAD51AD25BE6FACAFA2
:106C280018EF36F01AEF36F01BEF36F0BE81BE5182
:106C3800D8B421EF36F023EF36F037EF36F0BE291F
:106C4800D8A429EF36F02BEF36F033EF36F0000EEC
:106C5800AA6F000EAB6F000EAC6F000EAD6FAC8F5D
:106C6800AD6B3FEF36F0000EAA6F000EAB6F000E53
:106C7800AC6F000EAD6FAA51AB11AC11AD11D8A419
:106C880048EF36F04AEF36F062EF36F0000EA66FA6
:106C9800000EA76F000EA86F000EA96F800EA81334
:106CA8007F0EA913B651A913A6C5A6F5A7C5A7F5C2
:106CB800A8C5A8F5A9C5A9F5A2EF37F0BD51D8A474
:106CC80068EF36F06AEF36F074EF36F0000EA66F14
:106CD800000EA76F000EA86F000EA96FA2EF37F085
:106CE800BE51BDC5AEF5AF6BAE5F000EAF5B7F0E9C
:106CF800AE25B76F000EAF21B86FA6C5B2F5A7C510
:106D0800B3F5A8C5B4F5A9C5B5F5000EA66F000E74
:106D1800A76F000EA86F000EA96F000EB96F000EC6
:106D2800BA6F000EBB6F000EBC6FBE6BD4EF36F0AF
:106D3800BE51D8B4A2EF36F0A4EF36F0BBEF36F070
:106D4800D890B237B337B437B537D890A637A73706
:106D5800A837A937BCAFB3EF36F0B5EF36F0B6EFCA
:106D680036F0A681D890B937BA37BB37BC37AA51A5
:106D7800B25DAB51B359AC51B459AD51B559D8A066
:106D8800C8EF36F0CAEF36F0D3EF36F0BC8DAA5113
:106D9800B25FAB51B35BAC51B45BAD51B55BBE2BCD
:106DA800190EBE65DAEF36F0DCEF36F09CEF36F000
:106DB800B251B311B411B511D8B4E5EF36F0E7EF1D
:106DC80036F0FFEF36F0B981FFEF36F0D890A637EE
:106DD800A737A837A937BCAFF4EF36F0F6EF36F08F
:106DE800F7EF36F0A681D890B937BA37BB37BC373A
:106DF800B707D8A0B807A8AF04EF37F006EF37F009
:106E0800EAEF36F0BE6BBCAF0CEF37F00EEF37F0A1
:106E180032EF37F0FF0EB915AE6FFF0EBA15AF6F30
:106E2800FF0EBB15B06F7F0EBC15B16FAE51AF1121
:106E3800B011B111D8B423EF37F025EF37F029EFAF
:106E480037F0010EBE6F32EF37F0A6A12EEF37F004
:106E580030EF37F032EF37F025EF37F0BE51D8B4C6
:106E680038EF37F03AEF37F05EEF37F0010EA6272C
:106E7800000EA723A823A923A9A145EF37F047EFC0
:106E880037F05EEF37F0A6C5AEF5A7C5AFF5A8C5D4
:106E9800B0F5A9C5B1F5B135B133B033AF33AE33C1
:106EA800AEC5A6F5AFC5A7F5B0C5A8F5B1C5A9F596
:106EB800B74BB82BB8BF69EF37F0B85108E1B7291D
:106EC800D8A069EF37F06BEF37F076EF37F0000EA8
:106ED800B86FB769000EA66F000EA76F000EA86FF7
:106EE800000EA96FB8BF83EF37F0B85106E1B705B8
:106EF800D8B081EF37F083EF37F090EF37F0000E1E
:106F0800B86F000EB76F000EA66F000EA76F000EC9
:106F1800A86F000EA96FB66BB7C5BDF5BDA197EFF9
:106F280037F099EF37F09CEF37F0A88F9DEF37F0E7
:106F3800A89FD890BD31A96F56EF36F01200D7C67A
:106F48008BF5D8C68CF5C0C67FF50501806B7FBF71
:106F580080077FC581F580C582F5000E82BFFF0ED0
:106F6800836F846FD7C663F5D8C664F5656B666BA7
:106F78000601F0510501676F686B696B6A6B23EC5A
:106F88005DF063C56FF564C570F565C571F566C5D7
:106F980072F5640E0501736F000E746F000E756F45
:106FA800000E766F9FEC4FF0050181516F5D8D6F7C
:106FB800825170598E6F835171598F6F84517259F4
:106FC800906F90BFF5EF37F090518F118E1107E158
:106FD800140E8D5DD8B0F3EF37F0F5EF37F0FDEF15
:106FE80037F0140E8D6F000E8E6F000E8F6F000E2F
:106FF800906F0601D75105017F6F0601D851050131
:10700800806F816B826B8D517F5D8E5180598F515E
:1070180081598251800A836F9051800A8359D8B070
:1070280018EF38F01AEF38F020EF38F0D7C68DF5A2
:10703800D8C68EF58F6B906B8DC53FF58EC540F524
:10704800C1C67FF5806B7FBF80077FC581F580C58E
:1070580082F5000E82BFFF0E836F846F41C563F512
:1070680042C564F5656B666B0601EF510501676FF4
:10707800686B696B6A6B23EC5DF063C56FF564C57B
:1070880070F565C571F566C572F5640E0501736F17
:10709800000E746F000E756F000E766F9FEC4FF048
:1070A800050181516F5D8D6F825170598E6F8351CB
:1070B80071598F6F84517259906F90BF71EF38F08A
:1070C80090518F118E1107E1140E8D5DD8B06FEFBE
:1070D80038F071EF38F079EF38F0140E8D6F000E3C
:1070E8008E6F000E8F6F000E906F41507F6F425071
:1070F800806F816B826B8D517F5D8E5180598F516E
:1071080081598251800A836F9051800A8359D8B07F
:1071180090EF38F092EF38F098EF38F041C58DF5E0
:1071280042C58EF58F6B906B8DC5D5F68EC5D6F69C
:107138000601D5513F24D36FD6514020D46FD35187
:1071480005018B5D0601D45105018C59D8B0AFEF0C
:1071580038F0B1EF38F0E2EF38F0C2C67FF5806B57
:107168007FBF80077FC581F580C582F5000E82BF8D
:10717800FF0E836F846F3F500601D35D0501856F55
:1071880040500601D4590501866F85518B5D876F84
:1071980086518C59886F896BD8A0890789518A6F65
:1071A8008151875D8D6F825188598E6F83518959BE
:1071B8008F6F84518A59906FE8EF38F03FC58DF58D
:1071C80040C58EF58F6B906B90BFF8EF38F09051FB
:1071D8008F118E1107E1140E8D5DD8B0F6EF38F0DF
:1071E800F8EF38F000EF39F0140E8D6F000E8E6F47
:1071F800000E8F6F000E906F8B517F6F8C51806FD8
:10720800816B826B8D517F5D8E5180598F51815971
:107218008251800A836F9051800A8359D8B017EF42
:1072280039F019EF39F01FEF39F08BC58DF58CC5A2
:107238008EF58F6B906B8DC5B2F78EC5B3F7B2C75D
:107248007DF5B3C77EF512000501FE05D8B42FEF12
:1072580039F031EF39F03AEF39F0030EFE19D8A4BE
:1072680038EF39F03AEF39F0E0EF39F0000EAA6F55
:10727800000EAB6F7A0EAC6F440EAD6F1C0EB1EC06
:1072880041F005016BC598F56CC599F59A6B9B6B38
:10729800000E8BEC43F098C5A6F599C5A7F59AC5DD
:1072A800A8F59BC5A9F5DAEC35F0A6C5BFF5A7C5C5
:1072B800C0F5A8C5C1F5A9C5C2F5000E0501C36F83
:1072C800000EC46F110EC56F430EC66F02EC2EF090
:1072D800BFC560F7C0C561F7C1C562F7C2C563F72E
:1072E800160E7AEC3EF0D8C55AF6D9C55BF6DAC563
:1072F8005CF6DBC55DF660C7C3F561C7C4F562C758
:10730800C5F563C7C6F55AC6BFF55BC6C0F55CC60A
:10731800C1F55DC6C2F502EC2EF0BFC5A6F5C0C525
:10732800A7F5C1C5A8F5C2C5A9F5000E0501AA6F44
:10733800000EAB6F7A0EAC6F440EAD6FDAEC35F021
:10734800A6C568F7A7C569F7A8C56AF7A9C56BF701
:10735800ACC622F6ADC623F6AEC624F6AFC625F6F1
:107368008EEC63F022C65CF723C65DF724C65EF791
:1073780025C65FF7B40E06011C6F070E1D6F5CC7AC
:107388001EF65DC71FF65EC720F65FC721F668C701
:1073980022F669C723F66AC724F66BC725F687EC79
:1073A80024F01CC6CDF61DC6CEF6CDC665F5CEC6F4
:1073B80066F5010EECEC5CF0020E0501FE19D8B47E
:1073C800E8EF39F0EAEF39F0F3EF39F0030EFE1980
:1073D800D8A4F1EF39F0F3EF39F0ABEF3AF0000E43
:1073E800AA6F000EAB6F7A0EAC6F440EAD6F110E24
:1073F800B1EC41F005016BC598F56CC599F59A6B30
:107408009B6B000E8BEC43F098C5A6F599C5A7F5C4
:107418009AC5A8F59BC5A9F5DAEC35F0A6C5BFF560
:10742800A7C5C0F5A8C5C1F5A9C5C2F5000E0501D7
:10743800C36F000EC46F110EC56F430EC66F02EC0A
:107448002EF0BFC558F7C0C559F7C1C55AF7C2C510
:107458005BF7040E7AEC3EF0D8C55AF6D9C55BF650
:10746800DAC55CF6DBC55DF658C7C3F559C7C4F580
:107478005AC7C5F55BC7C6F55AC6BFF55BC6C0F5A2
:107488005CC6C1F55DC6C2F502EC2EF0BFC5A6F517
:10749800C0C5A7F5C1C5A8F5C2C5A9F5000E050167
:1074A800AA6F000EAB6F7A0EAC6F440EAD6FDAECBC
:1074B80035F0A6C564F7A7C565F7A8C566F7A9C5D9
:1074C80067F7D5C698F5D6C699F505019A6B9B6BF3
:1074D800000E8BEC43F098C556F699C557F69AC539
:1074E80058F69BC559F656C622F657C623F658C60F
:1074F80024F659C625F66EEC63F022C654F723C667
:1075080055F724C656F725C657F7670E06011C6FB0
:10751800080E1D6F54C71EF655C71FF656C720F62E
:1075280057C721F664C722F665C723F666C724F64F
:1075380067C725F687EC24F01CC6CBF61DC6CCF62B
:10754800CBC665F5CCC666F5020EECEC5CF0120015
:1075580040C767F541C768F542C769F543C76AF58B
:10756800AFEC5BF067C59AF568C59BF569C59CF5F6
:107578006AC59DF53CC767F53DC768F53EC769F51F
:107588003FC76AF5AFEC5BF067C59EF568C59FF528
:1075980069C5A0F56AC5A1F52C0EB1EC41F06BC523
:1075A800A2F56CC5A3F55C50D8B4DDEF3AF0DFEF77
:1075B8003AF0F6EF3AF01FEC68F063C53CF764C5A3
:1075C8003DF765C53EF766C53FF71FEC68F063C534
:1075D80040F764C541F765C542F766C543F7010E34
:1075E800516E5C6A5250D8A4FCEF3AF0FEEF3AF0C4
:1075F800F9EF3BF00501A151A0110BE1880E9E5D4A
:10760800130E9F59D8A00BEF3BF00DEF3BF0F9EFAD
:107618003BF0010E526EF9EF3BF05150D8A417EF32
:107628003BF019EF3BF02CEF3BF09D519C110BE127
:10763800B80E9A5D0B0E9B59D8A025EF3BF027EFAB
:107648003BF013EF3CF05F6A010E516E13EF3CF014
:107658005250D8A432EF3BF034EF3BF04CEF3BF004
:10766800730EA25D060EA359D8A03DEF3BF03FEF85
:107678003BF04CEF3BF0010E536E1FEC68F063C516
:1076880040F764C541F765C542F766C543F7516AD7
:107698005204D8A452EF3BF054EF3BF013EF3CF008
:1076A800350E0501A25D080EA359D8A05EEF3BF088
:1076B80060EF3BF013EF3CF0010E536E1FEC68F0E7
:1076C80063C540F764C541F765C542F766C543F72A
:1076D800516A13EF3CF0596A010E5F6E5204D8A448
:1076E80078EF3BF07AEF3BF0ACEF3BF0A40EA25DF5
:1076F800060EA359D8B083EF3BF085EF3BF088EF37
:107708003BF0536A62EF3BF0D70EA25D060EA35919
:10771800D8A091EF3BF093EF3BF013EF3CF03A0E1B
:10772800A25D070EA359D8B09CEF3BF09EEF3BF04B
:1077380013EF3CF0020E536E1FEC68F063C540F780
:1077480064C541F765C542F766C543F713EF3CF0DA
:107758005250D8A4B2EF3BF0B4EF3BF013EF3CF03B
:10776800A40EA25D060EA359D8B0BDEF3BF0BFEF43
:107778003BF0C3EF3BF0010E526E85EF3BF0D70EA6
:10778800A25D060EA359D8A0CCEF3BF0CEEF3BF09C
:1077980013EF3CF03A0EA25D070EA359D8B0D7EF0D
:1077A8003BF0D9EF3BF013EF3CF09EEF3BF0010EBE
:1077B800596E350EA25D080EA359D8A0E6EF3BF02E
:1077C800E8EF3BF0ECEF3BF0010E536EA0EF3BF01F
:1077D800A40EA25D060EA359D8B0F5EF3BF0F7EF63
:1077E8003BF013EF3CF085EF3BF053500501986FE9
:1077F800996B9951000AD8B404EF3CF013EF3CF0B0
:107808009851000AD8B411EF3BF0010AD8B46FEFD1
:107818003BF0030AD8B4DBEF3BF013EF3CF0120067
:1078280044C767F545C768F546C769F547C76AF5A8
:10783800AFEC5BF067C57DF568C57EF569C57FF57A
:107848006AC580F5020E0601F0612DEF3CF02FEFBE
:107858003CF037EF3CF0010EEF6535EF3CF037EFC9
:107868003CF030EF3DF05E04D8A43DEF3CF03FEF34
:107878003CF030EF3DF01FEC68F063C544F764C599
:1078880045F765C546F766C547F7010E5D6E5E6A42
:1078980030EF3DF0F5EC68F0050180517F110BE108
:1078A800210E7D5D030E7E59D8A05DEF3CF05FEFA1
:1078B8003CF04EEF3DF0010E0601F06566EF3CF03E
:1078C80068EF3CF073EF3CF0010EEF656EEF3CF0B3
:1078D80070EF3CF073EF3CF0020E5D6E586A010EDB
:1078E800F06579EF3CF07BEF3CF086EF3CF0EF5130
:1078F800D8A481EF3CF083EF3CF086EF3CF0030E18
:107908005D6E576AF051D8A48CEF3CF08EEF3CF0D6
:1079180099EF3CF0010EEF6594EF3CF096EF3CF0E8
:1079280099EF3CF0040E5D6E566A1FEC68F063C573
:1079380044F764C545F765C546F766C547F74EEF92
:107948003DF00CEC56F0010E0601F065AEEF3CF090
:10795800B0EF3CF0BEEF3CF0EF51D8A4B6EF3CF0EE
:10796800B8EF3CF0BEEF3CF0020E93EC5FF0030E74
:107978005D6E576A0601F051D8A4C5EF3CF0C7EF19
:107988003CF04EEF3DF0010EEF65CDEF3CF0CFEF50
:107998003CF04EEF3DF0010E93EC5FF0040E5D6E8F
:1079A800566A4EEF3DF02FEC58F0010E0601F065D7
:1079B800E0EF3CF0E2EF3CF0EDEF3CF0010EEF655C
:1079C800E8EF3CF0EAEF3CF0EDEF3CF0020E5D6EC4
:1079D800586AF051D8A4F3EF3CF0F5EF3CF04EEFC5
:1079E8003DF0010EEF65FBEF3CF0FDEF3CF04EEF94
:1079F8003DF0010E93EC5FF0D2EF3CF0D6EC57F07F
:107A0800010E0601F0650BEF3DF00DEF3DF018EFAC
:107A18003DF0010EEF6513EF3DF015EF3DF018EF67
:107A28003DF0020E5D6E586A010EF0651EEF3DF0E6
:107A380020EF3DF04EEF3DF0EF51D8A426EF3DF09A
:107A480028EF3DF04EEF3DF0020E93EC5FF0030E91
:107A58005D6E576A4EEF3DF05D5005017B6F7C6BA4
:107A68007C51000AD8B43BEF3DF04EEF3DF07B511E
:107A7800010AD8B44EEF3CF0030AD8B4A5EF3CF0A5
:107A8800010AD8B4D7EF3CF0070AD8B402EF3DF0AA
:107A98004EEF3DF0120018C767F519C768F51AC709
:107AA80069F51BC76AF5AFEC5BF067C59AF668C560
:107AB8009BF669C59CF66AC59DF606019D519C1109
:107AC8009B1109E10B0E9A5DD8A06DEF3DF06FEFA9
:107AD8003DF07BEF3DF0DB51D8B475EF3DF077EF2B
:107AE8003DF07BEF3DF0010EDD6FEBEC68F0060139
:107AF800DD05D8B482EF3DF084EF3DF086EF3DF030
:107B080079EF3EF0640E0501636F0A0E646F000E94
:107B1800656F0A0E666FDBC667F5686BE9EC5FF0A8
:107B28000601DB51FE0FA06F640E0501636F0A0E9C
:107B3800646FA0C665F53AEC5CF063C5A6F764C54A
:107B4800A7F7650E0601A025D96EDA6A0A0EDA22B1
:107B5800DF50966F640EA025D96EDA6A0A0EDA2213
:107B6800DF50976F9751996F986B96519825070139
:107B7800A46F0601000E99210701A56FA451A6194B
:107B880009E1A551A719D8B4CCEF3DF0CEEF3DF0EF
:107B9800D2EF3DF0CAEC61F079EF3EF06ACA9EF68A
:107BA8000601DB51F70F9F6F9E519F19D8B4DFEF85
:107BB8003DF0E1EF3DF0E3EF3DF0CEEF3DF0100E8C
:107BC8000A016519D8A4EBEF3DF0EDEF3DF0FAEFAF
:107BD8003DF00E0E6719D8A4F4EF3DF0F6EF3DF036
:107BE800FAEF3DF06CCAF0F66ECAEFF6AA0E641909
:107BF800D8A401EF3EF003EF3EF0CEEF3DF05A0E71
:107C08006519D8A40AEF3EF00CEF3EF0CEEF3DF038
:107C180066EF3EF06605D8A414EF3EF016EF3EF08E
:107C28001DEF3EF0640E0601756F0A0E766FC3EC09
:107C38004BF0020E0A016619D8A425EF3EF027EF93
:107C48003EF0CEEF3DF0640E0601756F0A0E766FBA
:107C580067EC44F0CEEF3DF0020E6619D8A437EF7A
:107C68003EF039EF3EF0CEEF3DF0640E0601756F41
:107C78000A0E766FA5EC50F0CEEF3DF0020E6619B5
:107C8800D8A449EF3EF04BEF3EF0CEEF3DF0640E46
:107C98000601756F0A0E766F9BEC3FF0CEEF3DF054
:107CA800020E6619D8A45BEF3EF05DEF3EF0CEEF12
:107CB8003DF0640E0601756F0A0E766FCAEC46F049
:107CC800CEEF3DF06751010AD8B40EEF3EF0160A28
:107CD800D8B430EF3EF0400AD8B442EF3EF00F0A75
:107CE800D8B454EF3EF0CEEF3DF012000501F46F2A
:107CF800160E0501F419D8A484EF3EF086EF3EF085
:107D0800FFEF3EF0160EB1EC41F06BC5ECF56CC51B
:107D1800EDF5000E0501AA6FF00EAB6F7F0EAC6F8C
:107D2800450EAD6FECC598F5EDC599F5000E99BFF8
:107D3800FF0E9A6F9B6F010E8BEC43F098C5A6F56A
:107D480099C5A7F59AC5A8F59BC5A9F5DAEC35F04C
:107D5800A6C5BFF5A7C5C0F5A8C5C1F5A9C5C2F593
:107D68003D0E0501C36F0A0EC46F830EC56F400E2A
:107D7800C66F02EC2EF0BFC5DCF5C0C5DDF5C1C588
:107D8800DEF5C2C5DFF5D60E0501E06F0D0EE16F19
:107D9800A60EE26F3D0EE36FE0C5C3F5E1C5C4F57D
:107DA800E2C5C5F5E3C5C6F5DCC5BFF5DDC5C0F55B
:107DB800DEC5C1F5DFC5C2F502EC2EF0BFC5A6F5DC
:107DC800C0C5A7F5C1C5A8F5C2C5A9F5CD0E050161
:107DD800AA6FCC0EAB6FCC0EAC6F3D0EAD6FDAEC6C
:107DE80035F0A6C5F0F5A7C5F1F5A8C5F2F5A9C502
:107DF800F3F57FEF3FF0040EF419D8A406EF3FF037
:107E080008EF3FF07FEF3FF0040EB1EC41F06BC597
:107E1800EEF56CC5EFF5000E0501AA6FF00EAB6F1D
:107E28007F0EAC6F450EAD6FEEC598F5EFC599F5B1
:107E3800000E99BFFF0E9A6F9B6F010E8BEC43F0FB
:107E480098C5A6F599C5A7F59AC5A8F59BC5A9F53E
:107E5800DAEC35F0A6C5BFF5A7C5C0F5A8C5C1F5CC
:107E6800A9C5C2F56F0E0501C36F120EC46F830E4C
:107E7800C56F400EC66F02EC2EF0BFC5E4F5C0C555
:107E8800E5F5C1C5E6F5C2C5E7F5420E0501E86F9F
:107E9800110EE96F8A0EEA6F3D0EEB6FE8C5C3F568
:107EA800E9C5C4F5EAC5C5F5EBC5C6F5E4C5BFF532
:107EB800E5C5C0F5E6C5C1F5E7C5C2F502EC2EF08B
:107EC800BFC5A6F5C0C5A7F5C1C5A8F5C2C5A9F522
:107ED800CD0E0501AA6FCC0EAB6F4C0EAC6F3E0EEB
:107EE800AD6FDAEC35F0A6C5F0F5A7C5F1F5A8C574
:107EF800F2F5A9C5F3F5F0C5BFF5F1C5C0F5F2C5B2
:107F0800C1F5F3C5C2F5000E0501C36F000EC46FBD
:107F18007A0EC56F440EC66F02EC2EF0BFC5D8F5B9
:107F2800C0C5D9F5C1C5DAF5C2C5DBF5120021EE29
:107F380077F2100EDE6AE806FDE2770E0501636F40
:107F4800060E646F75C665F576C666F5000E686F31
:107F5800110E676FE9EC5FF006017E05D8A4B7EF54
:107F68003FF0B9EF3FF0DAEF3FF0040E05016B6F19
:107F7800000E6C6F000E6D6F7FC66EF5B1EC5CF095
:107F8800150E0501FC6FC60EE82EFED7FC2FFCD798
:107F98000000040E0501696F000E6A6F000E6B6F1A
:107FA80037EC62F00601C06F03EF40F0020E7E1955
:107FB800D8A4E1EF3FF0E3EF3FF003EF40F0040E09
:107FC80005016B6F000E6C6F000E6D6F7FC66EF54E
:107FD800B1EC5CF0150E0501FC6FC60EE82EFED75D
:107FE800FC2FFCD70000040E0501696F000E6A6FB4
:107FF800000E6B6F37EC62F000080601C06F800559
:10800800D8A409EF40F00BEF40F02CEF40F0050E3C
:1080180005016B6F000E6C6F000E6D6F81C66EF5FB
:10802800B1EC5CF0150E0501FC6FC60EE82EFED70C
:10803800FC2FFCD70000050E0501696F000E6A6F62
:10804800000E6B6F37EC62F00601C16F55EF40F020
:10805800020E8019D8A433EF40F035EF40F055EF09
:1080680040F0050E05016B6F000E6C6F000E6D6F12
:1080780081C66EF5B1EC5CF0150E0501FC6FC60EFD
:10808800E82EFED7FC2FFCD70000050E0501696F0E
:10809800000E6A6F000E6B6F37EC62F00008060185
:1080A800C16F550E776F770E0501636F060E646F0B
:1080B8000F0E656F3AEC5CF063C588F664C589F607
:1080C80088C687F606018951866F8A6B140E636F1E
:1080D8003E0E646F770E8A25D96EDA6A060EDA22AA
:1080E800DF500501FC6FFC510601656F666B29ECDA
:1080F80066F0100E06018A6184EF40F086EF40F0CA
:108108008CEF40F0D20E636F3D0E646F29EC66F081
:1081180006018A2B100E8A6594EF40F096EF40F026
:108128006AEF40F0770E0501636F060E646F000E6C
:10813800656F000E666F000E686F110E676FE9ECD1
:108148005FF0120000C7CFF501C7D0F502C7D1F51F
:1081580003C7D2F5BFC5CFF5C0C5D0F5C1C5D1F5A8
:10816800C2C5D2F5810E0501C36FFF0EC46FCFC51E
:10817800C5F5D0C5C6F5D1C5C7F5D2C5C8F5180E21
:10818800CBEF40F0D890C833C733C633C533E82E99
:10819800C6EF40F0C551C325CD6F000EC421CE6F88
:1081A800CEBFE0EF40F0CE5109E1170ECD5DD8A06B
:1081B800E0EF40F0E2EF40F0ECEF40F0BFC5BFF574
:1081C800C0C5C0F5C1C5C1F5C2C5C2F5B0EF41F023
:1081D800CEBFF1EF40F0F3EF40F064EF41F0CDC5D2
:1081E800C3F5FF0EC46FFF0EC56F7F0EC66F000E7E
:1081F800C76FC36702EF41F00AEF41F0C735C733D5
:10820800C633C533C433C32FFDEF40F0C4C5C9F529
:10821800C5C5CAF5C6C5CBF5C7C5CCF50501C95155
:10822800CF15C36FCA51D015C46FCB51D115C56FC7
:10823800CC51D215C66FC351C411C511C611D8A4EB
:1082480028EF41F02AEF41F02CEF41F0E2EF40F047
:10825800CFC5C3F5D0C5C4F5D1C5C5F5D2C5C6F5DA
:10826800200E3CEF41F0D890C633C533C433C33336
:10827800E82E37EF41F0C351C411C511C611D8B467
:1082880048EF41F04AEF41F052EF41F0C951CF2792
:10829800CA51D023CB51D123CC51D223C91DC36F8E
:1082A800CA1DC46FCB1DC56FCC1DC66FC351CF1778
:1082B800C451D017C551D117C651D217A8EF41F0F4
:1082C800CFC5C3F5D0C5C4F5D1C5C5F5D2C5C6F56A
:1082D800200E74EF41F0D890C633C533C433C3338E
:1082E800E82E6FEF41F0C351C411C511C611D8A4CF
:1082F80080EF41F082EF41F08CEF41F0000ECF6F3C
:10830800000ED06F000ED16F000ED26FA8EF41F0B3
:10831800D890CF35C36FD035C46FD135C56FD2353E
:10832800C66FC351C411C511C611D8B49EEF41F030
:10833800A0EF41F0A8EF41F0000ECF6F000ED06F14
:10834800800ED16FBF0ED26FCFC5BFF5D0C5C0F5B7
:10835800D1C5C1F5D2C5C2F5120005018B6F000E5B
:108368000501936F000E926F8B5109EC64F0D89061
:1083780005019235D96E9335DA6E730ED926050E3E
:10838800DA2263C5DEF464C5DDF4924B932B93BF08
:10839800D7EF41F0935109E10C0E925DD8A0D7EFC9
:1083A80041F0D9EF41F0B8EF41F0000E916F000EA7
:1083B800906F000E956F000E946F000E976F000E71
:1083C800966F4EEF42F0D8909635D96E9735DA6EA3
:1083D800730ED926050EDA2296C56FF597C570F586
:1083E800D8906F377037020E6F27000E7023730E08
:1083F8006F25E16E050E7021E26EDE50E65CDE5000
:10840800E658D8B00AEF42F00CEF42F04CEF42F0D9
:10841800D8909635D96E9735DA6E730ED926050E33
:10842800DA22DEC48CF5DDC48DF596C56DF597C5E9
:108438006EF5D8906D376E37020E6D27000E6E23DD
:10844800730E6D25D96E050E6E21DA6ED8909635AD
:10845800E16E9735E26E730EE126050EE222DEC468
:10846800E6F4DDC4E5F496C56DF597C56EF5D890CC
:108478006D376E37020E6D27000E6E23730E6D2555
:10848800D96E050E6E21DA6E8CC5DEF48DC5DDF46D
:10849800964B972B0B0E6D6F000E6E6F94516D5FA0
:1084A80095516E5B6D51965D9751800A6F6F6E5155
:1084B800800A6F59D8A063EF42F065EF42F0E7EF0A
:1084C80041F0944B952B95BF73EF42F0955109E11C
:1084D8000B0E945DD8A073EF42F075EF42F0E1EF18
:1084E80041F0000E956F020E946FD8909435D96EB6
:1084F8009535DA6E730ED926050EDA22DE509027EE
:10850800DD509123944B952B95BF94EF42F09551F4
:1085180009E10A0E945DD8A094EF42F096EF42F07C
:1085280079EF42F090C563F591C564F5000E666F6A
:10853800080E656F89EC54F063C58EF564C58FF538
:108548008EC56BF58FC56CF51200050183BFAFEFC3
:1085580042F0B2EF42F0010EB3EF42F0000E8A6F24
:108568000601C6BFBAEF42F0BCEF42F0BDEF42F0E1
:10857800D993C6BFC4EF42F0C2EF42F0CBEF42F04E
:10858800000E0501876F010E866FCFEF42F0C5C65A
:1085980086F5C6C687F5C3C688F5C4C689F505013C
:1085A8008A51D8B4DAEF42F0DCEF42F0F3EF42F050
:1085B8008807D8A089078A51D8A4E5EF42F0E7EFE9
:1085C80042F0EDEF42F0000E856F2B0E846FF1EF55
:1085D80042F0000E856F2D0E846F84C58AF5000E5B
:1085E8008C6F4F0E8B6F0901C26B2DEF43F00501A5
:1085F8008B07D8A08C07730E8B25D96E090E8C219A
:10860800DA6E82C563F583C564F5000E666F0A0EDF
:10861800656F88EC58F063C569F564C56AF5B6EC12
:1086280064F005016951300FDF6E8607D8A087070F
:108638008807D8A0890782C563F583C564F5000E4D
:10864800666F0A0E656F89EC54F063C582F564C5E0
:1086580083F505018CBF39EF43F08C5108E18B0598
:10866800D8A039EF43F03BEF43F066EF43F0825177
:108678008311D8A442EF43F044EF43F0FBEF42F0FC
:1086880087BF51EF43F0875106E18605D8B04FEF19
:1086980043F051EF43F0FBEF42F089BF5CEF43F04A
:1086A800895108E18805D8A05CEF43F05EEF43F0FC
:1086B80066EF43F00601D9B364EF43F066EF43F089
:1086C800FBEF42F005018A51D8B46DEF43F06FEF2C
:1086D80043F07AEF43F08B07D8A08C07730E8B25F5
:1086E800D96E090E8C21DA6E8AC5DFF480C577F55C
:1086F80081C578F5730E8B25796F090E8C217A6FF9
:1087080088C57BF589C57CF58CEC59F0120005010C
:10871800A06F0501A051D8B494EF43F096EF43F051
:10872800B8EF43F09BBF9DEF43F09BEF43F0B8EFEA
:1087380043F098C59CF599C59DF59AC59EF59BC5CE
:108748009FF59C1F9D1F9E1F9F1F9C2B000E9D2306
:108758009E239F239CC5A2F59DC5A3F59EC5A4F5A0
:108768009FC5A5F5C0EF43F098C5A2F599C5A3F537
:108778009AC5A4F59BC5A5F5985199119A119B1115
:10878800D8A4C9EF43F0CBEF43F0D5EF43F0000E88
:10879800986F000E996F000E9A6F000E9B6F66EF30
:1087A80044F0960EA16FDFEF43F0A12BD890A533CC
:1087B800A433A333A233000EA2159C6F000EA31599
:1087C8009D6F000EA4159E6FFE0EA5159F6F9C5100
:1087D8009D119E119F11D8A4F4EF43F0F6EF43F0DA
:1087E800D9EF43F004EF44F0A12B010EA227000EAD
:1087F800A323A423A523D890A533A433A333A2335A
:10880800000EA2159C6F000EA3159D6F000EA415F7
:108818009E6FFF0EA5159F6F9C519D119E119F1174
:10882800D8A419EF44F01BEF44F0F8EF43F023EF1E
:1088380044F0A107D890A237A337A437A537A4BF1F
:1088480028EF44F02AEF44F032EF44F0020EA16121
:1088580030EF44F032EF44F01DEF44F0A1B137EFB0
:1088680044F039EF44F03AEF44F0A49FD890A13394
:10887800A1C59CF59D6B9E6B9F6B9CC59FF59E6BE0
:108888009D6B9C6B9C51A2139D51A3139E51A413E5
:108898009F51A513A051D8B454EF44F056EF44F0BB
:1088A8005EEF44F09BBF5DEF44F05BEF44F05EEF9A
:1088B80044F0A58FA2C598F5A3C599F5A4C59AF566
:1088C800A5C59BF51200000E06018A6F000E8B6F7E
:1088D800000E8C6F000E8D6F21EE79F2100EDE6A9D
:1088E800E806FDE2790E0501636F060E646F75C632
:1088F80065F576C666F5000E686F110E676FE9ECD0
:108908005FF00601946B9451776F786B070E7727A9
:10891800000E7823790E7725D96E060E7821DA6E47
:108928008A0E9425E16EE26A060EE222DFC4E7F4BD
:10893800150E0601776FC60EE82EFED7772FFCD7E7
:1089480000000601942B030E9465ADEF44F0AFEFE1
:1089580044F087EF44F08A0E0501BF6F060EC06F22
:10896800040EC16F540EB7EC65F0D00E0601776F98
:10897800C90EE82EFED7772FFCD700D0550E06017A
:10898800796F040E0501786F540E60EC64F078C5B9
:108998008EF679C58FF6800E0501636F060E646F3B
:1089A8008EC665F58FC666F5000E686F040E676F94
:1089B800E9EC5FF0030E0501786F5C0E60EC64F083
:1089C80078C590F679C591F6060120EE02F090512F
:1089D800D9269151DA22DF50846F790E0501636F31
:1089E800060E646F0F0E656F3AEC5CF063C592F685
:1089F80064C593F692C689F606019351886F956B04
:108A0800140E636F3E0E646F790E9525D96EDA6A7F
:108A1800060EDA22DF50776F7751656F666B29ECA7
:108A280066F0100E060195611CEF45F01EEF45F04B
:108A380024EF45F0D20E636F3D0E646F29EC66F0AB
:108A48000601952B100E95652CEF45F02EEF45F09D
:108A580004EF45F0790E0501636F060E646F000E92
:108A6800666F000E656F000E686F110E676FECEC95
:108A780063F0120030C767F531C768F532C769F58A
:108A880033C76AF5AFEC5BF067C509F668C50AF647
:108A980069C50BF66AC50CF61C0E16EC30F005011C
:108AA800F5510601086FE851D8B45DEF45F05FEF66
:108AB80045F078EF45F00C510B110BE1880E095D7C
:108AC800130E0A59D8A06BEF45F06DEF45F00DEF86
:108AD80046F0E86B000ED26F000ED16F640EF06F97
