:0430000081EF18F054
:10300800B834B834B834B834400CB834400CB83498
:10301800F033B834B234B834B834B834B834B83417
:10302800B334400C400C400CB834B834B834B8341D
:10303800B834B834B834C631B530B834B834B5312A
:103048002334A534B834B834400C400CB834B83400
:10305800B834B834B834400CB834B8349331D02BC1
:10306800F633B834B834B834B834B834B834B834BB
:10307800D533DC339E2D452B400CB834A431FD2BC1
:10308800B834B834B834B834B834B834B834B834D8
:10309800B834B834B834B834400CB834400C400CA8
:1030A800FC33B834B834B834B834B834B834B83475
:1030B800B834B834B8340331B834B834B834B83460
:1030C800B834B834B834B834B834B834B834B83498
:1030D800B834B834B834B834B834B834B834B83488
:1030E800400CB834B834B834400C400C400C400C98
:1030F800B834B834B834B834FF006DEF52F000007B
:10310800C0C101C30302C2C60607C705C5C404CCB3
:103118000C0DCD0FCFCE0E0ACACB0BC90908C8D8E3
:103128001819D91BDBDA1A1EDEDF1FDD1D1CDC14A3
:10313800D4D515D71716D6D21213D311D1D010F073
:103148003031F133F3F23236F6F737F53534F43CF3
:10315800FCFD3DFF3F3EFEFA3A3BFB39F9F83828C3
:10316800E8E929EB2B2AEAEE2E2FEF2DEDEC2CE4E3
:103178002425E527E7E62622E2E323E12120E0A053
:103188006061A163A3A26266A6A767A56564A46C33
:10319800ACAD6DAF6F6EAEAA6A6BAB69A9A8687863
:1031A800B8B979BB7B7ABABE7E7FBF7DBDBC7CB423
:1031B8007475B577B7B67672B2B373B17170B05033
:1031C8009091519353529296565797559594549C73
:1031D8005C5D9D5F9F9E5E5A9A9B5B995958988843
:1031E8004849894B8B8A4A4E8E8F4F8D4D4C8C4463
:1031F80084854587474686824243834181804000D3
:10320800C1814001C0804101C0804100C1814001AD
:10321800C0804100C1814000C1814001C08041019E
:10322800C0804100C1814000C1814001C08041008F
:10323800C1814001C0804101C0804100C18140017D
:10324800C0804100C1814000C1814001C08041006F
:10325800C1814001C0804101C0804100C18140005E
:10326800C1814001C0804101C0804100C18140014D
:10327800C0804100C1814000C1814001C08041013E
:10328800C0804100C1814000C1814001C08041002F
:10329800C1814001C0804101C0804100C18140001E
:1032A800C1814001C0804101C0804100C18140010D
:1032B800C0804100C1814000C1814001C0804100FF
:1032C800C1814001C0804101C0804100C1814001ED
:1032D800C0804100C1814000C1814001C0804101DE
:1032E800C0804100C1814000C1814001C0804100CF
:1032F800C1814001C0804101C0804100C1814000BE
:10330800C0C101C30302C2C60607C705C5C404CCB1
:103318000C0DCD0FCFCE0E0ACACB0BC90908C8D8E1
:103328001819D91BDBDA1A1EDEDF1FDD1D1CDC14A1
:10333800D4D515D71716D6D21213D311D1D010F071
:103348003031F133F3F23236F6F737F53534F43CF1
:10335800FCFD3DFF3F3EFEFA3A3BFB39F9F83828C1
:10336800E8E929EB2B2AEAEE2E2FEF2DEDEC2CE4E1
:103378002425E527E7E62622E2E323E12120E0A051
:103388006061A163A3A26266A6A767A56564A46C31
:10339800ACAD6DAF6F6EAEAA6A6BAB69A9A8687861
:1033A800B8B979BB7B7ABABE7E7FBF7DBDBC7CB421
:1033B8007475B577B7B67672B2B373B17170B05031
:1033C8009091519353529296565797559594549C71
:1033D8005C5D9D5F9F9E5E5A9A9B5B995958988841
:1033E8004849894B8B8A4A4E8E8F4F8D4D4C8C4461
:1033F80084854587474686824243834181804000D1
:10340800C1814001C0804101C0804100C1814001AB
:10341800C0804100C1814000C1814001C08041019C
:10342800C0804100C1814000C1814001C08041008D
:10343800C1814001C0804101C0804100C18140017B
:10344800C0804100C1814000C1814001C08041006D
:10345800C1814001C0804101C0804100C18140005C
:10346800C1814001C0804101C0804100C18140014B
:10347800C0804100C1814000C1814001C08041013C
:10348800C0804100C1814000C1814001C08041002D
:10349800C1814001C0804101C0804100C18140001C
:1034A800C1814001C0804101C0804100C18140010B
:1034B800C0804100C1814000C1814001C0804100FD
:1034C800C1814001C0804101C0804100C1814001EB
:1034D800C0804100C1814000C1814001C0804101DC
:1034E800C0804100C1814000C1814001C0804100CD
:1034F800C1814001C0804101C0804100C1814000BC
:10350800C0C101C30302C2C60607C705C5C404CCAF
:103518000C0DCD0FCFCE0E0ACACB0BC90908C8D8DF
:103528001819D91BDBDA1A1EDEDF1FDD1D1CDC149F
:10353800D4D515D71716D6D21213D311D1D010F06F
:103548003031F133F3F23236F6F737F53534F43CEF
:10355800FCFD3DFF3F3EFEFA3A3BFB39F9F83828BF
:10356800E8E929EB2B2AEAEE2E2FEF2DEDEC2CE4DF
:103578002425E527E7E62622E2E323E12120E0A04F
:103588006061A163A3A26266A6A767A56564A46C2F
:10359800ACAD6DAF6F6EAEAA6A6BAB69A9A868785F
:1035A800B8B979BB7B7ABABE7E7FBF7DBDBC7CB41F
:1035B8007475B577B7B67672B2B373B17170B0502F
:1035C8009091519353529296565797559594549C6F
:1035D8005C5D9D5F9F9E5E5A9A9B5B99595898883F
:1035E8004849894B8B8A4A4E8E8F4F8D4D4C8C445F
:1035F80084854587474686824243834181804000CF
:10360800C1814001C0804101C0804100C1814001A9
:10361800C0804100C1814000C1814001C08041019A
:10362800C0804100C1814000C1814001C08041008B
:10363800C1814001C0804101C0804100C181400179
:10364800C0804100C1814000C1814001C08041006B
:10365800C1814001C0804101C0804100C18140005A
:10366800C1814001C0804101C0804100C181400149
:10367800C0804100C1814000C1814001C08041013A
:10368800C0804100C1814000C1814001C08041002B
:10369800C1814001C0804101C0804100C18140001A
:1036A800C1814001C0804101C0804100C181400109
:1036B800C0804100C1814000C1814001C0804100FB
:1036C800C1814001C0804101C0804100C1814001E9
:1036D800C0804100C1814000C1814001C0804101DA
:1036E800C0804100C1814000C1814001C0804100CB
:1036F800C1814001C0804101C0804100C1814000BA
:10370800C0C101C30302C2C60607C705C5C404CCAD
:103718000C0DCD0FCFCE0E0ACACB0BC90908C8D8DD
:103728001819D91BDBDA1A1EDEDF1FDD1D1CDC149D
:10373800D4D515D71716D6D21213D311D1D010F06D
:103748003031F133F3F23236F6F737F53534F43CED
:10375800FCFD3DFF3F3EFEFA3A3BFB39F9F83828BD
:10376800E8E929EB2B2AEAEE2E2FEF2DEDEC2CE4DD
:103778002425E527E7E62622E2E323E12120E0A04D
:103788006061A163A3A26266A6A767A56564A46C2D
:10379800ACAD6DAF6F6EAEAA6A6BAB69A9A868785D
:1037A800B8B979BB7B7ABABE7E7FBF7DBDBC7CB41D
:1037B8007475B577B7B67672B2B373B17170B0502D
:1037C8009091519353529296565797559594549C6D
:1037D8005C5D9D5F9F9E5E5A9A9B5B99595898883D
:1037E8004849894B8B8A4A4E8E8F4F8D4D4C8C445D
:1037F80084854587474686824243834181804000CD
:10380800C1814001C0804101C0804100C1814001A7
:10381800C0804100C1814000C1814001C080410198
:10382800C0804100C1814000C1814001C080410089
:10383800C1814001C0804101C0804100C181400177
:10384800C0804100C1814000C1814001C080410069
:10385800C1814001C0804101C0804100C181400058
:10386800C1814001C0804101C0804100C181400147
:10387800C0804100C1814000C1814001C080410138
:10388800C0804100C1814000C1814001C080410029
:10389800C1814001C0804101C0804100C181400018
:1038A800C1814001C0804101C0804100C181400107
:1038B800C0804100C1814000C1814001C0804100F9
:1038C800C1814001C0804101C0804100C1814001E7
:1038D800C0804100C1814000C1814001C0804101D8
:1038E800C0804100C1814000C1814001C0804100C9
:1038F800C1814001C0804101C0804100C1814000B8
:10390800C0C101C30302C2C60607C705C5C404CCAB
:103918000C0DCD0FCFCE0E0ACACB0BC90908C8D8DB
:103928001819D91BDBDA1A1EDEDF1FDD1D1CDC149B
:10393800D4D515D71716D6D21213D311D1D010F06B
:103948003031F133F3F23236F6F737F53534F43CEB
:10395800FCFD3DFF3F3EFEFA3A3BFB39F9F83828BB
:10396800E8E929EB2B2AEAEE2E2FEF2DEDEC2CE4DB
:103978002425E527E7E62622E2E323E12120E0A04B
:103988006061A163A3A26266A6A767A56564A46C2B
:10399800ACAD6DAF6F6EAEAA6A6BAB69A9A868785B
:1039A800B8B979BB7B7ABABE7E7FBF7DBDBC7CB41B
:1039B8007475B577B7B67672B2B373B17170B0502B
:1039C8009091519353529296565797559594549C6B
:1039D8005C5D9D5F9F9E5E5A9A9B5B99595898883B
:1039E8004849894B8B8A4A4E8E8F4F8D4D4C8C445B
:1039F80084854587474686824243834181804000CB
:103A0800C1814001C0804101C0804100C1814001A5
:103A1800C0804100C1814000C1814001C080410196
:103A2800C0804100C1814000C1814001C080410087
:103A3800C1814001C0804101C0804100C181400175
:103A4800C0804100C1814000C1814001C080410067
:103A5800C1814001C0804101C0804100C181400056
:103A6800C1814001C0804101C0804100C181400145
:103A7800C0804100C1814000C1814001C080410136
:103A8800C0804100C1814000C1814001C080410027
:103A9800C1814001C0804101C0804100C181400016
:103AA800C1814001C0804101C0804100C181400105
:103AB800C0804100C1814000C1814001C0804100F7
:103AC800C1814001C0804101C0804100C1814001E5
:103AD800C0804100C1814000C1814001C0804101D6
:103AE800C0804100C1814000C1814001C0804100C7
:103AF800C1814001C0804101C0804100C1814000B6
:103B0800C0C101C30302C2C60607C705C5C404CCA9
:103B18000C0DCD0FCFCE0E0ACACB0BC90908C8D8D9
:103B28001819D91BDBDA1A1EDEDF1FDD1D1CDC1499
:103B3800D4D515D71716D6D21213D311D1D010F069
:103B48003031F133F3F23236F6F737F53534F43CE9
:103B5800FCFD3DFF3F3EFEFA3A3BFB39F9F83828B9
:103B6800E8E929EB2B2AEAEE2E2FEF2DEDEC2CE4D9
:103B78002425E527E7E62622E2E323E12120E0A049
:103B88006061A163A3A26266A6A767A56564A46C29
:103B9800ACAD6DAF6F6EAEAA6A6BAB69A9A8687859
:103BA800B8B979BB7B7ABABE7E7FBF7DBDBC7CB419
:103BB8007475B577B7B67672B2B373B17170B05029
:103BC8009091519353529296565797559594549C69
:103BD8005C5D9D5F9F9E5E5A9A9B5B995958988839
:103BE8004849894B8B8A4A4E8E8F4F8D4D4C8C4459
:103BF80084854587474686824243834181804000C9
:103C0800C1814001C0804101C0804100C1814001A3
:103C1800C0804100C1814000C1814001C080410194
:103C2800C0804100C1814000C1814001C080410085
:103C3800C1814001C0804101C0804100C181400173
:103C4800C0804100C1814000C1814001C080410065
:103C5800C1814001C0804101C0804100C181400054
:103C6800C1814001C0804101C0804100C181400143
:103C7800C0804100C1814000C1814001C080410134
:103C8800C0804100C1814000C1814001C080410025
:103C9800C1814001C0804101C0804100C181400014
:103CA800C1814001C0804101C0804100C181400103
:103CB800C0804100C1814000C1814001C0804100F5
:103CC800C1814001C0804101C0804100C1814001E3
:103CD800C0804100C1814000C1814001C0804101D4
:103CE800C0804100C1814000C1814001C0804100C5
:103CF800C1814001C0804101C0804100C1814002B2
:103D0800B4000000000ACB0072C300000000A6CF78
:103D1800000000000000000000000000000000009B
:103D2800000000000000000000000000000000008B
:103D380000000000000CCF00000000E8CE00C4CE58
:103D480000A0CE00000000DCC100000000E2BE00C0
:103D58003ABF0000000000000000000096CC000000
:103D680000000000004348317C493A252E32667C29
:103D7800563A252E32667C503A252E32667C5057AC
:103D88004D3A25647C0A0D20004348327C493A2587
:103D98002E32667C563A252E32667C503A252E32D3
:103DA800667C50574D3A25647C0A0D200053503AE2
:103DB800252E32667C55524745313A25647C55524A
:103DC8004745323A25647C200A0D200054656D7001
:103DD8003A252E32667C0A0D200056696E3A256413
:103DE8007C200A0D20007069643A25647C0A0D2045
:103DF8000050726F3A25647C0A0D2000563A2564FB
:103E08000A0D002530325800696E66006E616E003A
:013E180000A9
:103E1A000601446B1EC645F61FC646F620C647F67F
:103E2A0021C648F648BF1EEF1FF01CEF1FF032EF05
:103E3A001FF0010E446F45C663F546C664F547C6D2
:103E4A0065F548C666F56BEC64F063C545F664C56E
:103E5A0046F665C547F666C548F6000E06014A6F7E
:103E6A00000E496FBBC638F6BCC639F64451D8B401
:103E7A0041EF1FF043EF1FF057EF1FF04451D8A452
:103E8A0049EF1FF04BEF1FF051EF1FF0000E2A6FA2
:103E9A002B0E296F55EF1FF0000E2A6F2D0E296F7A
:103EAA0029C644F645C663F546C664F547C665F5B0
:103EBA0048C666F571EC51F0050163056411D8A492
:103ECA0069EF1FF06BEF1FF0A2EF1FF006014451DC
:103EDA00D8B472EF1FF074EF1FF07DEF1FF044C6E5
:103EEA0073F93807D8A03907000E4A6F010E496FD7
:103EFA00730E49250501636F090E06014A21050162
:103F0A00646F100E656F3E0E666F10EC64F006016A
:103F1A00FD0E3827FF0E39231CC677F51DC678F526
:103F2A00730E0501796F090E7A6F38C67BF539C6AB
:103F3A007CF5AEEC59F082EF24F045C663F546C62F
:103F4A0064F547C665F548C666F571EC51F005019A
:103F5A0063516411D8A4B4EF1FF0B6EF1FF0D9EF84
:103F6A001FF006014451D8B4BDEF1FF0BFEF1FF098
:103F7A00C8EF1FF044C673F93807D8A03907000EF6
:103F8A004A6F010E496F730E49250501636F090EC9
:103F9A0006014A210501646F140E656F3E0E666FB5
:103FAA0010EC64F08CEF1FF0000E06014B6F000E50
:103FBA004C6F800E4D6F3F0E4E6F000E336F000E2A
:103FCA00326F45C663F546C664F547C665F548C609
:103FDA0066F5000E0501676F000E686F000E696FC7
:103FEA00000E6A6F02EC59F00501D8B0FFEF1FF01E
:103FFA0001EF20F0FBEF20F00EEF20F034C64BF675
:10400A0035C64CF636C64DF637C64EF60601324B65
:10401A00332B4BC6BFF54CC6C0F54DC6C1F54EC6CF
:10402A00C2F5000E0501C36F000EC46F200EC56FE6
:10403A00410EC66FFEEC2DF0BFC534F6C0C535F68D
:10404A00C1C536F6C2C537F606013451455D0501CC
:10405A00636F0601355146590501646F06013651F1
:10406A0047590501656F0601375148590501666FC1
:10407A0019EC5FF0050166BF4EEF20F0665165113D
:10408A00641109E1020E635DD8A04EEF20F050EFF3
:10409A0020F003EF20F034C600F635C601F636C626
:1040AA0002F637C603F645C604F646C605F647C6FF
:1040BA0006F648C607F6C7EC4AF00601D8A068EF2C
:1040CA0020F06AEF20F003EF20F04B51455D050127
:1040DA00636F06014C5146590501646F06014D5143
:1040EA0047590501656F06014E5148590501666F2A
:1040FA0019EC5FF0050166BF90EF20F0665165117B
:10410A00641107E1020E635DD8B08EEF20F090EFE4
:10411A0020F0E1EF20F04BC645F64CC646F64DC6F8
:10412A0047F64EC648F6FBEF20F04BC6A6F54CC63E
:10413A00A7F54DC6A8F54EC6A9F5000E0501AA6F4A
:10414A00000EAB6F200EAC6F410EAD6FD1EC35F0A7
:10415A00A6C54BF6A7C54CF6A8C54DF6A9C54EF699
:10416A0006013207D8A033074B51455D0501636F3D
:10417A0006014C5146590501646F06014D514759D4
:10418A000501656F06014E5148590501666F19EC24
:10419A005FF0050166BFDFEF20F06651651164111B
:1041AA0007E1020E635DD8B0DDEF20F0DFEF20F00B
:1041BA00E1EF20F090EF20F045C600F646C601F682
:1041CA0047C602F648C603F64BC604F64CC605F6C1
:1041DA004DC606F64EC607F6C7EC4AF00601D8A049
:1041EA00F9EF20F0FBEF20F09AEF20F022C62CF630
:1041FA002CC62DF60601BEBF05EF21F007EF21F010
:10420A000DEF21F0BDC625F6BEC626F611EF21F048
:10421A00000E266F060E256F25C630F626C631F625
:10422A00304B312B660E2D19D8A41EEF21F020EF4A
:10423A0021F040EF21F033BF27EF21F025EF21F0E5
:10424A0033EF21F0000E4B6F000E4C6F800E4D6F56
:10425A003F0E4E6F000E336F000E326F670E2C1931
:10426A00D8B43AEF21F03CEF21F040EF21F032517F
:10427A00302733513123000E436F000E426F45C67B
:10428A003AF646C63BF647C63CF648C63DF64BC626
:10429A0034F64CC635F64DC636F64EC637F6D2EF6C
:1042AA0021F03AC6A6F53BC6A7F53CC6A8F53DC619
:1042BA00A9F54BC6AAF54CC6ABF54DC6ACF54EC62C
:1042CA00ADF5D1EC35F0A6C5BFF5A7C5C0F5A8C5B3
:1042DA00C1F5A9C5C2F543EC40F0BFC53EF6C0C55D
:1042EA003FF6C1C540F6C2C541F63EC618F63FC6FE
:1042FA0019F640C61AF641C61BF637EC4EF018C638
:10430A002EF619C62FF63AC6D8F53BC6D9F53CC6DD
:10431A00DAF53DC6DBF53EC6C3F53FC6C4F540C671
:10432A00C5F541C6C6F54BC6BFF54CC6C0F54DC668
:10433A00C1F54EC6C2F5FEEC2DF0BFC5DCF5C0C511
:10434A00DDF5C1C5DEF5C2C5DFF575EC62F0D8C58D
:10435A003AF6D9C53BF6DAC53CF6DBC53DF64BC69F
:10436A00A6F54CC6A7F54DC6A8F54EC6A9F5000E8A
:10437A000501AA6F000EAB6F200EAC6F410EAD6F38
:10438A00D1EC35F0A6C54BF6A7C54CF6A8C54DF637
:10439A00A9C54EF60601424B432B3051425D4351AB
:1043AA00800A0501F66F06013151800A0501F659A6
:1043BA00D8A0E2EF21F0E4EF21F056EF21F04BC64E
:1043CA00BFF54CC6C0F54DC6C1F54EC6C2F5000EC6
:1043DA00C36F000EC46FA00EC56F400EC66FFEEC11
:1043EA002DF0BFC53EF6C0C53FF6C1C540F6C2C5F1
:1043FA0041F63AC600F63BC601F63CC602F63DC691
:10440A0003F63EC604F63FC605F640C606F641C6A2
:10441A0007F6C7EC4AF00601D8B016EF22F018EFFB
:10442A0022F022EF22F0000E3E6F000E3F6F000EC8
:10443A00406F000E416F4CEF22F03AC663F53BC65F
:10444A0064F53CC665F53DC666F53EC667F53FC6EA
:10445A0068F540C669F541C66AF502EC59F00501EE
:10446A00D8A03AEF22F03CEF22F04CEF22F00601FE
:10447A002EB142EF22F044EF22F04CEF22F0000E70
:10448A003E6F000E3F6F000E406F000E416F45C633
:10449A0063F546C664F547C665F548C666F53EC681
:1044AA0067F53FC668F540C669F541C66AF589EC05
:1044BA0029F063C53AF664C53BF665C53CF666C5A0
:1044CA003DF63AC600F63BC601F63CC602F63DC6C4
:1044DA0003F6000E0501C36F000EC46F200EC56FF0
:1044EA00410EC66F34C6BFF535C6C0F536C6C1F52E
:1044FA0037C6C2F5FEEC2DF0BFC504F6C0C505F6F9
:10450A00C1C506F6C2C507F6C7EC4AF00601D8A02F
:10451A0091EF22F093EF22F0BCEF22F0324B332BD3
:10452A0034C6BFF535C6C0F536C6C1F537C6C2F5BD
:10453A00000E0501C36F000EC46F200EC56F410E39
:10454A00C66FFEEC2DF0BFC534F6C0C535F6C1C541
:10455A0036F6C2C537F6660E06012D19D8A4B8EF8D
:10456A0022F0BAEF22F0BCEF22F0304B312B34C6E6
:10457A004BF635C64CF636C64DF637C64EF632C63B
:10458A0023F633C624F62B6B000E286F000E276F16
:10459A00000E436F000E426FB9EF23F03AC6A6F53C
:1045AA003BC6A7F53CC6A8F53DC6A9F54BC6AAF574
:1045BA004CC6ABF54DC6ACF54EC6ADF5D1EC35F0F3
:1045CA00A6C5BFF5A7C5C0F5A8C5C1F5A9C5C2F559
:1045DA0043EC40F0BFC53EF6C0C53FF6C1C540F644
:1045EA00C2C541F63EC618F63FC619F640C61AF6C7
:1045FA0041C61BF637EC4EF0060119BF10EF23F047
:10460A00195107E10A0E185DD8B00EEF23F010EF2A
:10461A0023F020EF23F03EC618F63FC619F640C62F
:10462A001AF641C61BF637EC4EF018C62EF619C616
:10463A002FF624EF23F0000E2F6F090E2E6F0601BE
:10464A002B51D8A42BEF23F02DEF23F055EF23F0B5
:10465A0024BF34EF23F032EF23F055EF23F0730E2B
:10466A004925D96E090E4A21DA6E2E0EDF6E494BA4
:10467A004A2B3807D8A03907010E2B6F55EF23F0C4
:10468A00730E4925D96E090E4A21DA6E300EDF6E95
:10469A00494B4A2B3807D8A039072707D8A028073B
:1046AA0027512811D8A45CEF23F05EEF23F045EFE1
:1046BA0023F0730E4925D96E090E4A21DA6E2E515E
:1046CA00300FDF6E494B4A2B3807D8A039073AC654
:1046DA00D8F53BC6D9F53CC6DAF53DC6DBF53EC68C
:1046EA00C3F53FC6C4F540C6C5F541C6C6F54BC6B7
:1046FA00BFF54CC6C0F54DC6C1F54EC6C2F5FEECB7
:10470A002DF0BFC5DCF5C0C5DDF5C1C5DEF5C2C5F6
:10471A00DFF575EC62F0D8C53AF6D9C53BF6DAC5CD
:10472A003CF6DBC53DF64BC6A6F54CC6A7F54DC60D
:10473A00A8F54EC6A9F5000E0501AA6F000EAB6FCB
:10474A00200EAC6F410EAD6FD1EC35F0A6C54BF61D
:10475A00A7C54CF6A8C54DF6A9C54EF6060123070E
:10476A00D8A02407424B432B3051425D4351800A63
:10477A000501F66F06013151800A0501F659D8B0D4
:10478A00C9EF23F0CBEF23F0DAEF23F006014ABF9B
:10479A00D8EF23F04A5109E14B0E495DD8A0D8EF72
:1047AA0023F0DAEF23F0D3EF22F0000E0601436F75
:1047BA004F0E426F730E4225D96E090E4321DA6EEF
:1047CA00DF6A730E0501F66F090EF76F060149518C
:1047DA000501F65F06014A510501F75B06014251E0
:1047EA000501F625636F060143510501F721646F40
:1047FA00730E656F090E666F49C667F54AC668F596
:10480A004AEC60F006014951425D496F4A514359E9
:10481A004A6F4451D8A414EF24F017EF24F0010E84
:10482A0018EF24F0000E426F436BC9A31FEF24F068
:10483A0021EF24F057EF24F032EF24F00601490764
:10484A00D8A04A07730E4925D96E090E4A21DA6E95
:10485A00300EDF6E3807D8A039073851425D435110
:10486A00800A0501F66F06013951800A0501F659D9
:10487A00D8B042EF24F044EF24F057EF24F00601B9
:10488A004951425D4351800A0501F66F06014A51BA
:10489A00800A0501F659D8A055EF24F057EF24F005
:1048AA0023EF24F006014451D8B45EEF24F060EF00
:1048BA0024F06BEF24F04907D8A04A07730E492564
:1048CA00D96E090E4A21DA6E44C6DFF44251385FC6
:1048DA004351395B1CC677F51DC678F5730E492519
:1048EA000501796F090E06014A2105017A6F38C65A
:1048FA007BF539C67CF5AEEC59F012001EC6D8F528
:10490A001FC6D9F520C6DAF521C6DBF522C6DCF5C5
:10491A0023C6DDF524C6DEF525C6DFF575EC62F0A3
:10492A00D8C546F6D9C547F6DAC548F6DBC549F60D
:10493A0046C6E0F547C6E1F548C6E2F549C6E3F5DD
:10494A0050EC65F0E0C54EF6E1C54FF6E2C550F60B
:10495A00E3C551F6060120EE05F01C51D9261D517A
:10496A00DA22DEC44AF6DEC44BF6DEC44CF6DEC4F6
:10497A004DF6000E006F000E016F480E026F420ED8
:10498A00036F4EC604F64FC605F650C606F651C664
:10499A0007F6C7EC4AF00601D8B0D6EF24F0D8EFF4
:1049AA0024F0F5EF24F04AC6BFF54BC6C0F54CC655
:1049BA00C1F54DC6C2F5CD0E0501C36FCC0EC46F4D
:1049CA00CC0EC56F3D0EC66FFEEC2DF0BFC54AF684
:1049DA00C0C54BF6C1C54CF6C2C54DF661EF25F010
:1049EA00000E006F000E016FA00E026F410E036FE2
:1049FA004EC604F64FC605F650C606F651C607F669
:104A0A00C7EC4AF00601D8B00DEF25F00FEF25F0FC
:104A1A002CEF25F04AC6BFF54BC6C0F54CC6C1F50A
:104A2A004DC6C2F59A0E0501C36F990EC46F990E51
:104A3A00C56F3E0EC66FFEEC2DF0BFC54AF6C0C567
:104A4A004BF6C1C54CF6C2C54DF661EF25F04EC610
:104A5A0000F64FC601F650C602F651C603F6000E1E
:104A6A00046F000E056FA00E066F400E076FC7ECAD
:104A7A004AF00601D8B044EF25F046EF25F061EF81
:104A8A0025F04AC6BFF54BC6C0F54CC6C1F54DC6A2
:104A9A00C2F5000E0501C36F000EC46F000EC56F8C
:104AAA00400EC66FFEEC2DF0BFC54AF6C0C54BF6E8
:104ABA00C1C54CF6C2C54DF6060120EE01F01C51E7
:104ACA00D9261D51DA22DEC4BFF5DEC4C0F5DEC424
:104ADA00C1F5DEC4C2F546C6C3F547C6C4F548C625
:104AEA00C5F549C6C6F5FEEC2DF0BFC526F6C0C50C
:104AFA0027F6C1C528F6C2C529F64EC600F64FC626
:104B0A0001F650C602F651C603F6000E0601046FFE
:104B1A00000E056F480E066F420E076FC7EC4AF08B
:104B2A000601D8B09BEF25F09DEF25F07CEF27F02A
:104B3A0046C652F647C653F648C654F649C655F60F
:104B4A00000E006F000E016FF00E026F410E036F30
:104B5A004EC604F64FC605F650C606F651C607F607
:104B6A00C7EC4AF00601D8B0BDEF25F0BFEF25F03B
:104B7A0005EF26F0000E006F000E016F200E026F87
:104B8A00420E036F52C604F653C605F654C606F61D
:104B9A0055C607F6C7EC4AF00601D8B0D7EF25F09C
:104BAA00D9EF25F0E1EF25F0000E526F000E536F9A
:104BBA00200E546F420E556F52C600F653C601F6C8
:104BCA0054C602F655C603F6000E046F000E056FB2
:104BDA00200E066FC20E076FC7EC4AF00601D8B066
:104BEA00F9EF25F0FBEF25F0D8EF26F0000E526F13
:104BFA00000E536F200E546FC20E556FD8EF26F079
:104C0A00000E006F000E016F200E026F410E036F3F
:104C1A004EC604F64FC605F650C606F651C607F646
:104C2A00C7EC4AF00601D8B01DEF26F01FEF26F0B8
:104C3A0094EF26F04EC6BFF54FC6C0F550C6C1F573
:104C4A0051C6C2F5CD0E0501C36FCC0EC46F4C0E12
:104C5A00C56F3F0EC66FFEEC2DF0BFC53EF6C0C550
:104C6A003FF6C1C540F6C2C541F63EC600F63FC68C
:104C7A0001F640C602F641C603F652C604F653C60A
:104C8A0005F654C606F655C607F6C7EC4AF00601FD
:104C9A00D8B052EF26F054EF26F05CEF26F03EC66D
:104CAA0052F63FC653F640C654F641C655F652C6AA
:104CBA0000F653C601F654C602F655C603F63EC6BA
:104CCA0063F53FC664F540C665F541C666F56BEC0B
:104CDA0064F063C504F664C505F665C506F666C5DF
:104CEA0007F6C7EC4AF00601D8B07EEF26F080EF4F
:104CFA0026F0D8EF26F03EC663F53FC664F540C6F7
:104D0A0065F541C666F56BEC64F063C552F664C599
:104D1A0053F665C554F666C555F6D8EF26F0000E6B
:104D2A00006F000E016FA00E026F400E036F52C695
:104D3A0004F653C605F654C606F655C607F6C7EC7A
:104D4A004AF00601D8B0ACEF26F0AEEF26F0B6EF87
:104D5A0026F0000E526F000E536FA00E546F400ED5
:104D6A00556F52C600F653C601F654C602F655C62A
:104D7A0003F6000E046F000E056FA00E066FC00E3C
:104D8A00076FC7EC4AF00601D8B0CEEF26F0D0EF95
:104D9A0026F0D8EF26F0000E526F000E536FA00EC9
:104DAA00546FC00E556F52C6BFF553C6C0F554C6F0
:104DBA00C1F555C6C2F5060120EE05F01C51D926EB
:104DCA001D51DA22DEC4AAF5DEC4ABF5DEC4ACF5A9
:104DDA00DEC4ADF54AC6A6F54BC6A7F54CC6A8F57E
:104DEA004DC6A9F5D1EC35F0A6C5C3F5A7C5C4F5DE
:104DFA00A8C5C5F5A9C5C6F5FEEC2DF0BFC552F686
:104E0A00C0C553F6C1C554F6C2C555F6060120EE13
:104E1A001DF01C51D9261D51DA22DEC463F5DEC409
:104E2A0064F5DEC465F5DEC466F552C667F553C699
:104E3A0068F554C669F555C66AF589EC29F0060184
:104E4A0020EE1DF01C51D9261D51DA22050163C539
:104E5A00DEF464C5DEF465C5DEF466C5DEF406017B
:104E6A0020EE11F01C51D9261D51DA22DEC410F6AB
:104E7A00DEC411F6DEC412F6DEC413F620EE1DF00F
:104E8A001C51D9261D51DA22DEC408F6DEC409F601
:104E9A00DEC40AF6DEC40BF620EE0DF01C51D9264C
:104EAA001D51DA22DEC40CF6DEC40DF6DEC40EF69F
:104EBA00DEC40FF65CEC4BF008C614F609C615F60C
:104ECA000AC616F60BC617F6F0EC4BF0060120EEF2
:104EDA001DF01C51D9261D51DA2210C6DEF411C666
:104EEA00DEF412C6DEF413C6DEF48AEF27F020EEF3
:104EFA001DF01C51D9261D51DA22000EDE6E000E5D
:104F0A00DE6E000EDE6E000EDD6E20EE1DF01C5110
:104F1A00D9261D51DA22DEC4BFF5DEC4C0F5DEC4CF
:104F2A00C1F5DEC4C2F54AC6C3F54BC6C4F54CC6C4
:104F3A00C5F54DC6C6F5FEEC2DF0BFC52AF6C0C5AF
:104F4A002BF6C1C52CF6C2C52DF6060120EE21F0BE
:104F5A001C51D9261D51DA22DEC4DCF5DEC4DDF58A
:104F6A00DEC4DEF5DEC4DFF546C6D8F547C6D9F598
:104F7A0048C6DAF549C6DBF575EC62F0D8C5BFF567
:104F8A00D9C5C0F5DAC5C1F5DBC5C2F5060120EE03
:104F9A0009F01C51D9261D51DA22DEC4C3F5DEC43C
:104FAA00C4F5DEC4C5F5DEC4C6F5FEEC2DF0BFC5FA
:104FBA003AF6C0C53BF6C1C53CF6C2C53DF6330E4E
:104FCA000501C36F330EC46F330EC56F3F0EC66F34
:104FDA003AC6BFF53BC6C0F53CC6C1F53DC6C2F5EB
:104FEA00FEEC2DF0BFC563F5C0C564F5C1C565F516
:104FFA00C2C566F59A0E0501C36F990EC46F990E64
:10500A00C56F3E0EC66F10C7BFF511C7C0F512C7F0
:10501A00C1F513C7C2F5FEEC2DF0BFC567F5C0C5D3
:10502A0068F5C1C569F5C2C56AF589EC29F063C599
:10503A003AF664C53BF665C53CF666C53DF63AC622
:10504A0010F73BC611F73CC612F73DC613F7060127
:10505A0020EE21F01C51D9261D51DA2246C6DEF473
:10506A0047C6DEF448C6DEF449C6DEF42AC667F54A
:10507A002BC668F52CC669F52DC66AF526C663F5F2
:10508A0027C664F528C665F529C666F589EC29F0B0
:10509A0063C52EF664C52FF665C530F666C531F6CA
:1050AA002EC663F52FC664F530C665F531C666F5BA
:1050BA003AC667F53BC668F53CC669F53DC66AF56A
:1050CA0089EC29F063C542F664C543F665C544F622
:1050DA0066C545F61CC6D9F41DC6DAF4DE04D8A4A2
:1050EA0079EF28F07BEF28F0FCEF28F0060145BFA6
:1050FA0083EF28F081EF28F08DEF28F0000E326F51
:10510A00000E336F000E346FBF0E356F95EF28F027
:10511A00000E326F000E336F000E346F3F0E356F84
:10512A0042C667F543C668F544C669F545C66AF5D9
:10513A0032C663F533C664F534C665F535C666F519
:10514A0089EC29F063C518F664C519F665C51AF61F
:10515A0066C51BF637EC4EF006011851C1271951E6
:10516A00C223000E0C6F000E0D6F480E0E6F450E17
:10517A000F6FC1C698F5C2C699F50501000E99BF11
:10518A00FF0E9A6F9B6F010E2AEC44F098C508F641
:10519A0099C509F69AC50AF69BC50BF65CEC4BF065
:1051AA0008C614F609C615F60AC616F60BC617F689
:1051BA00000E0601106F000E116F000E126F000E26
:1051CA00136FF0EC4BF010C618F611C619F612C69A
:1051DA001AF613C61BF637EC4EF018C6C1F619C6F6
:1051EA00C2F6C1C61CF6C2C61DF688EF29F01CC657
:1051FA00D9F41DC6DAF4020EDE18D8A407EF29F096
:10520A0009EF29F088EF29F0060145BF11EF29F0CF
:10521A000FEF29F01BEF29F0000E366F000E376FE3
:10522A00000E386FBF0E396F23EF29F0000E366F6C
:10523A00000E376F000E386F3F0E396F42C667F5A2
:10524A0043C668F544C669F545C66AF536C663F5C8
:10525A0037C664F538C665F539C666F589EC29F0AE
:10526A0063C518F664C519F665C51AF666C51BF650
:10527A0037EC4EF006011851BF271951C023000E12
:10528A000C6F000E0D6F480E0E6F450E0F6FBFC6E6
:10529A0098F5C0C699F50501000E99BFFF0E9A6FE1
:1052AA009B6F010E2AEC44F098C508F699C509F6D9
:1052BA009AC50AF69BC50BF65CEC4BF008C614F6C9
:1052CA0009C615F60AC616F60BC617F6000E06012B
:1052DA00106F000E116F000E126F000E136FF0ECBC
:1052EA004BF010C618F611C619F612C61AF613C6EE
:1052FA001BF637EC4EF018C6BFF619C6C0F6BFC685
:10530A001CF6C0C61DF6120005016651800B6F6FB0
:10531A0066516625716F65AF95EF29F097EF29F011
:10532A0098EF29F071817151D8B49EEF29F0A0EF5E
:10533A0029F0B4EF29F07129D8A4A6EF29F0A8EF33
:10534A0029F0B0EF29F0000E636F000E646F000EB3
:10535A00656F000E666F658F666BBCEF29F0000EF5
:10536A00636F000E646F000E656F000E666F6A5100
:10537A00800B706F6F517019D8B4C6EF29F0C8EF5F
:10538A0029F0C9EF29F06F8D6A516A25706F69AFEC
:10539A00D1EF29F0D3EF29F0D4EF29F070817051C1
:1053AA00D8B4DAEF29F0DCEF29F0F0EF29F0702910
:1053BA00D8A4E2EF29F0E4EF29F0ECEF29F0000E8F
:1053CA00676F000E686F000E696F000E6A6F698F53
:1053DA006A6BF8EF29F0000E676F000E686F000E17
:1053EA00696F000E6A6F7151705DD8B0FFEF29F0D6
:1053FA0001EF2AF028EF2AF06FAD06EF2AF008EF46
:10540A002AF00AEF2AF0800E6F1B71C572F570C57B
:10541A0071F572C570F563C572F567C563F572C536
:10542A0067F564C572F568C564F572C568F565C542
:10543A0072F569C565F572C569F566C572F56AC51D
:10544A0066F572C56AF5726B715170C56BF56C6B56
:10545A006B5F000E6C5B6CBF3CEF2AF06C5109E18C
:10546A001A0E6B5DD8A03CEF2AF03EEF2AF075EFDA
:10547A002AF06351641165116611D8A447EF2AF026
:10548A004AEF2AF0010E4BEF2AF0000E726F000E5F
:10549A00636F000E646F000E656F000E666F70C555
:1054AA0071F57EEF2AF072A15DEF2AF05FEF2AF024
:1054BA0065EF2AF0D89072310109726F67EF2AF00E
:1054CA00D890723363A16CEF2AF06EEF2AF06FEF77
:1054DA002AF0728F66356633653364336333712B12
:1054EA007051715DD8A07CEF2AF07EEF2AF058EF58
:1054FA002AF06FBD83EF2AF085EF2AF0C5EF2AF074
:10550A007151D8A48BEF2AF08DEF2AF097EF2AF089
:10551A00000E636F000E646F000E656F000E666FFB
:10552A00E4EF2BF0675163276851642369516523BF
:10553A006A51662366A1A4EF2AF0A6EF2AF052EF79
:10554A002BF072A1ABEF2AF0ADEF2AF0B3EF2AF0FD
:10555A00D89072310109726FB5EF2AF0D890723380
:10556A0063A1BAEF2AF0BCEF2AF0BDEF2AF0728FDE
:10557A0066356633653364336333712B52EF2BF030
:10558A006751635D68516459695165596651800A6A
:10559A006B6F6A51800A6B59D8B0D6EF2AF0D8EFF0
:1055AA002AF003EF2BF06351675D6B6F6451685902
:1055BA006C6F655169596D6F66516A596E6FFF0E4E
:1055CA006B25636FFF0E6C21646FFF0E6D21656F93
:1055DA00FF0E6E21666F800E6F1B726D7251D8A41A
:1055EA00F9EF2AF0FBEF2AF00BEF2BF0010E6327FD
:1055FA00000E6423652366230BEF2BF06751635F6C
:10560A006851645B6951655B6A51665B63516411F9
:10561A0065116611D8A414EF2BF016EF2BF04BEF9F
:10562A002BF07251D8A41CEF2BF01EEF2BF04BEF8E
:10563A002BF0000E636F000E646F000E656F000E94
:10564A00666FE4EF2BF0D8906337643765376637B7
:10565A0072AF32EF2BF034EF2BF035EF2BF0638182
:10566A0072A13AEF2BF03CEF2BF040EF2BF0D880F1
:10567A00723742EF2BF0D89072377151D8B448EF95
:10568A002BF04AEF2BF04BEF2BF0710765AF50EF81
:10569A002BF052EF2BF028EF2BF0706B72AF58EF14
:1056AA002BF05AEF2BF072EF2BF072C56BF57F0ED1
:1056BA006B17D8B463EF2BF065EF2BF069EF2BF083
:1056CA00010E706F72EF2BF063A16EEF2BF070EF8B
:1056DA002BF072EF2BF065EF2BF07051D8B478EF06
:1056EA002BF07AEF2BF0A5EF2BF0010E6327000EBB
:1056FA0064236523662366A185EF2BF087EF2BF0E1
:10570A00A5EF2BF063C56BF564C56CF565C56DF542
:10571A0066C56EF56E356E336D336C336B336BC5A0
:10572A0063F56CC564F56DC565F56EC566F57129D9
:10573A00D8B4A2EF2BF0A4EF2BF0A5EF2BF0712B2E
:10574A007129D8B4ABEF2BF0ADEF2BF0B5EF2BF0FE
:10575A007151D8A4B3EF2BF0B5EF2BF0C6EF2BF0B5
:10576A00000E636F000E646F000E656F000E666FA9
:10577A007151D8A4C3EF2BF0C5EF2BF0C6EF2BF075
:10578A006F6B71A1CBEF2BF0CDEF2BF0D0EF2BF09D
:10579A00658FD1EF2BF0659FD8907131666F6FAF2F
:1057AA00D9EF2BF0DBEF2BF0DCEF2BF0668F63C524
:1057BA0063F564C564F565C565F566C566F51200E9
:1057CA0051C6D9F452C6DAF4DEC4F6F4DDC4F7F4ED
:1057DA00000EF86E0800F550250AD8A4F7EF2BF052
:1057EA00F9EF2BF0E6EF2DF051C6D9F452C6DAF4F0
:1057FA00DE2A000EDD22000E0601BC6F000EBB6F12
:10580A00BBC6C9F6BD69BE69556B2CEF2CF0C983BE
:10581A0051C6D9F452C6DAF4DE2A000EDD222CEF84
:10582A002CF0010E556F2CEF2CF051C6D9F452C64C
:10583A00DAF4DEC4F6F4DDC4F7F4000EF86E0800FC
:10584A00F550300AD8B40CEF2CF016EF2CF0555165
:10585A00D8B432EF2CF034EF2CF01AEF2CF051C6FA
:10586A0063F552C664F553C665F554C666F533EC5E
:10587A0054F063C5BBF664C5BCF60601BCBF4AEF6B
:10588A002CF048EF2CF04FEF2CF0C981BB6DBC1FF8
:10589A00D8B0BC2B51C6D9F452C6DAF4DEC4F6F439
:1058AA00DDC4F7F4000EF86E0800F5502E0AD8A4ED
:1058BA0061EF2CF063EF2CF078EF2CF051C6D9F49D
:1058CA0052C6DAF4DE2A000EDD2251C663F552C64C
:1058DA0064F553C665F554C666F533EC54F063C5F2
:1058EA00BDF664C5BEF651C6D9F452C6DAF4DEC4B2
:1058FA005BF6DDC45CF65BC6F6F45CC6F7F4000E34
:10590A00F86E0800F550640AD8B48EEF2CF090EFC8
:10591A002CF0A0EF2CF05BC6F6F45CC6F7F4000E90
:10592A00F86E0800F550690AD8A49EEF2CF0A0EF93
:10593A002CF0D2EF2CF053C6D9F454C6DAF4DFC4F3
:10594A00F8F5020EDE26DFC4F9F5000EDD22F8C5F1
:10595A00D9F4F9C5DAF4DEC457F6DDC458F6010EF7
:10596A0006015B250501F86F000E06015C210501A1
:10597A00F96F51C6D9F452C6DAF4F8C5DEF4F9C59E
:10598A00DDF44FC680F550C681F557C682F558C674
:10599A0083F548EC43F0FDEF2DF05BC6F6F45CC6E8
:1059AA00F7F4000EF86E0800F550580AD8A4E0EF94
:1059BA002CF0E2EF2CF024EF2DF053C6D9F454C6A4
:1059CA00DAF4DFC4F8F5020EDE26DFC4F9F5000EBC
:1059DA00DD22F8C5D9F4F9C5DAF4DEC457F6DDC418
:1059EA0058F6010E06015B250501F86F000E060147
:1059FA005C210501F96F51C6D9F452C6DAF4F8C52B
:105A0A00DEF4F9C5DDF416EF2DF04FC680F550C669
:105A1A0081F557C682F558C683F589EC49F0FDEF42
:105A2A002DF05BC6F6F45CC6F7F4000EF86E0800BB
:105A3A00F550580AD8B40AEF2DF024EF2DF051C6CC
:105A4A00D9F452C6DAF4DEC45BF6DDC45CF65BC692
:105A5A00F6F45CC6F7F4000EF86E0800F5C456F6C4
:105A6A0042EF2DF05B4B5C2B52EF2DF06C0E566F14
:105A7A0052EF2DF0566B52EF2DF0060156514C0A9B
:105A8A00D8B437EF2DF02A0AD8B43BEF2DF00A0A22
:105A9A00D8B437EF2DF03FEF2DF05BC6F6F45CC6B5
:105AAA00F7F4000EF86E0800F550660AD8A460EF05
:105ABA002DF062EF2DF0DDEF2DF098EF2DF053C6AB
:105ACA00D9F454C6DAF4DFC4F8F5040EDE26DFC4CE
:105ADA00F9F5000EDD22F8C5D9F4F9C5DAF4DEC409
:105AEA0057F6DEC458F6DEC459F6DEC45AF6A3EFFA
:105AFA002DF053C6D9F454C6DAF4DFC4F8F5040E0F
:105B0A00DE26DFC4F9F5000EDD22F8C5D9F4F9C5A1
:105B1A00DAF4DEC457F6DEC458F6DEC459F6DEC43B
:105B2A005AF6A3EF2DF056514C0AD8B47EEF2DF059
:105B3A00200AD8B464EF2DF0A3EF2DF0010E5B25F7
:105B4A000501F86F000E06015C210501F96F51C6C7
:105B5A00D9F452C6DAF4F8C5DEF4F9C5DDF4CFEFAC
:105B6A002DF04FC61CF650C61DF657C61EF658C66F
:105B7A001FF659C620F65AC621F65BC6F6F45CC66D
:105B8A00F7F4000EF86E0800F5C422F60DEC1FF0CB
:105B9A00FDEF2DF05BC6F6F45CC6F7F4000EF86E66
:105BAA000800F550660AD8B4B6EF2DF0DDEF2DF0F7
:105BBA0051C6D9F452C6DAF4DE2A000EDD22FDEF10
:105BCA002DF051C6D9F452C6DAF4DEC4F6F4DDC4B7
:105BDA00F7F4000EF86E0800F5500501676F686B60
:105BEA004FC669F550C66AF59AEC54F0DDEF2DF010
:105BFA0012000501C251800BCB6FC251C225D16F71
:105C0A00C1AF0AEF2EF00CEF2EF00DEF2EF0D1817E
:105C1A00D151D8B413EF2EF015EF2EF028EF2EF055
:105C2A00D129D8A41BEF2EF01DEF2EF025EF2EF070
:105C3A00000EBF6F000EC06F000EC16F000EC26F64
:105C4A00C18F30EF2EF0000EBF6F000EC06F000E36
:105C5A00C16F000EC26FC651800BCB1BC651C62541
:105C6A00CC6FC5AF3BEF2EF03DEF2EF03EEF2EF09E
:105C7A00CC81CC51D8B444EF2EF046EF2EF059EF38
:105C8A002EF0CC29D8A44CEF2EF04EEF2EF056EF82
:105C9A002EF0000EC36F000EC46F000EC56F000E0B
:105CAA00C66FC58F61EF2EF0000EC36F000EC46F72
:105CBA00000EC56F000EC66FCC51D8B467EF2EF038
:105CCA0069EF2EF071EF2EF0D151D8A46FEF2EF0BC
:105CDA0071EF2EF07BEF2EF0000EBF6F000EC06F3B
:105CEA00000EC16F000EC26F11EF30F0C551BF0335
:105CFA00F3C4D6F5F4C4D7F5D651CD6FCE6BCF6BBE
:105D0A00D06BD751D26FD36BD46BD56BC451C00350
:105D1A00F3C4D6F5F4C4D7F5D651CD27000ECE2359
:105D2A00CF23D023D751D227000ED323D423D52370
:105D3A00C351C103F3C4D6F5F4C4D7F5D651CD2760
:105D4A00000ECE23CF23D023D751D227000ED32340
:105D5A00D423D523CFC5D0F5CEC5CFF5CDC5CEF545
:105D6A00CD6BC351C003F3C4D6F5F4C4D7F5D651ED
:105D7A00CD27D751CE23000ECF23000ED023C451F6
:105D8A00BF03F3C4D6F5F4C4D7F5D651CD27D751FE
:105D9A00CE23000ECF23000ED023CFC5D0F5CEC51B
:105DAA00CFF5CDC5CEF5CD6BC351BF03F3C4D6F540
:105DBA00F4C4D7F5D651CD27D751CE23000ECF2321
:105DCA00000ED023C551C003F3C4D6F5F4C4D7F5E9
:105DDA00D651D227D751D323000ED423000ED52370
:105DEA00C451C103F3C4D6F5F4C4D7F5D651D227AA
:105DFA00D751D323000ED423000ED523C551C10396
:105E0A00F3C4D6F5F4C4D7F5D651C76FD751C86FC6
:105E1A00C96BCA6BC9C5CAF5C8C5C9F5C7C5C8F52E
:105E2A00C76BC751D227C851D323C951D423CA51EA
:105E3A00D523CDC5C7F5CEC5C8F5CFC5C9F5D0C5DB
:105E4A00CAF5190E2EEF2FF0D890CA33C933C833CA
:105E5A00C733E82E29EF2FF0C751D227C851D323D1
:105E6A00C951D423CA51D523CFC5D0F5CEC5CFF554
:105E7A00CDC5CEF5CD6BCC51D1C5C7F5C86BC727FB
:105E8A00000EC823820EC725D66FFF0EC821D76F12
:105E9A0064EF2FF0D890D237D337D437D537D0AF75
:105EAA0059EF2FF05BEF2FF05CEF2FF0D281D890F3
:105EBA00CD37CE37CF37D037D607D8A0D707D4AF0C
:105ECA0069EF2FF06BEF2FF04FEF2FF0CC6BD0AFC5
:105EDA0071EF2FF073EF2FF097EF2FF0FF0ECD1524
:105EEA00C76FFF0ECE15C86FFF0ECF15C96F7F0E95
:105EFA00D015CA6FC751C811C911CA11D8B488EFD1
:105F0A002FF08AEF2FF08EEF2FF0010ECC6F97EF64
:105F1A002FF0D2A193EF2FF095EF2FF097EF2FF0FC
:105F2A008AEF2FF0CC51D8B49DEF2FF09FEF2FF0CE
:105F3A00C3EF2FF0010ED227000ED323D423D5238B
:105F4A00D5A1AAEF2FF0ACEF2FF0C3EF2FF0D2C5F7
:105F5A00C7F5D3C5C8F5D4C5C9F5D5C5CAF5CA3577
:105F6A00CA33C933C833C733C7C5D2F5C8C5D3F591
:105F7A00C9C5D4F5CAC5D5F5D64BD72BD7BFCEEFF1
:105F8A002FF0D75108E1D629D8A0CEEF2FF0D0EFC5
:105F9A002FF0DAEF2FF0000ED26F000ED36F800EC3
:105FAA00D46F7F0ED56F07EF30F0D7BFE7EF2FF032
:105FBA00D75106E1D605D8B0E5EF2FF0E7EF2FF07D
:105FCA00F2EF2FF0000ED26F000ED36F000ED46FD7
:105FDA00000ED56FCB6B07EF30F0D6C5D1F5FF0EAB
:105FEA00D217FF0ED3177F0ED417000ED517D1A1E3
:105FFA0001EF30F003EF30F004EF30F0D48FD89097
:10600A00D131D56FCB51D513D2C5BFF5D3C5C0F5A4
:10601A00D4C5C1F5D5C5C2F512000501F76F1C0E2E
:10602A000501F719D8A41CEF30F01EEF30F03FEF4E
:10603A0031F0010EFF6524EF30F026EF30F03FEF2C
:10604A0031F0000EAA6F000EAB6F7A0EAC6F440EE1
:10605A00AD6F1C0E50EC42F005016BC598F56CC58E
:10606A0099F59A6B9B6B000E2AEC44F098C5A6F53D
:10607A0099C5A7F59AC5A8F59BC5A9F5D1EC35F040
:10608A00A6C5BFF5A7C5C0F5A8C5C1F5A9C5C2F57E
:10609A00000E0501C36F000EC46F110EC56F430ECB
:1060AA00C66FFEEC2DF0BFC5A8F6C0C5A9F6C1C5DE
:1060BA00AAF6C2C5ABF6160E03EC3DF0D8C5F8F544
:1060CA00D9C5F9F5DAC5FAF5DBC5FBF5A8C6C3F5F6
:1060DA00A9C6C4F5AAC6C5F5ABC6C6F5F8C5BFF5C7
:1060EA00F9C5C0F5FAC5C1F5FBC5C2F5FEEC2DF040
:1060FA00BFC5A6F5C0C5A7F5C1C5A8F5C2C5A9F50E
:10610A00000E0501AA6F000EAB6F7A0EAC6F440E3B
:10611A00AD6FD1EC35F0A6C53CF7A7C53DF7A8C5CC
:10612A003EF7A9C53FF7A8C600F6A9C601F6AAC652
:10613A0002F6ABC603F6000E0601046F800E056F69
:10614A00090E066F440E076FC7EC4AF00601D8B075
:10615A00B1EF30F0B3EF30F0CDEF30F0000E006F5A
:10616A00000E016F160E026F430E036FA8C604F6E7
:10617A00A9C605F6AAC606F6ABC607F6C7EC4AF0E4
:10618A000601D8A0CBEF30F0CDEF30F0D6EF30F0EB
:10619A00010EDE6F000E0501F66F010EF56F07EFB7
:1061AA0032F0000E006F000E016FF00E026F410E0A
:1061BA00036FA8C604F6A9C605F6AAC606F6ABC6B4
:1061CA0007F6C7EC4AF00601D8A0EEEF30F0F0EF80
:1061DA0030F0F9EF30F0020EDE6F000E0501F66FB7
:1061EA00020EF56F07EF32F0CD0E0501C36FCC0E2C
:1061FA00C46F8C0EC56F3F0EC66F47C598F548C56C
:10620A0099F59A6B9B6B000E2AEC44F098C5BFF582
:10621A0099C5C0F59AC5C1F59BC5C2F5FEEC2DF02E
:10622A00BFC500F6C0C501F6C1C502F6C2C503F670
:10623A003CC704F63DC705F63EC706F63FC707F654
:10624A00C7EC4AF00601D8B02DEF31F02FEF31F04C
:10625A0038EF31F0030EDE6F000E0501F66F020E05
:10626A00F56F07EF32F0000E0501F66F000EF56FBD
:10627A0007EF32F0110EF719D8A446EF31F048EFC4
:10628A0031F038EF31F0010EFE654EEF31F050EF8C
:10629A0031F038EF31F0000EAA6F000EAB6F7A0EB4
:1062AA00AC6F440EAD6F110E50EC42F005016BC598
:1062BA0098F56CC599F59A6B9B6B000E2AEC44F025
:1062CA0098C5A6F599C5A7F59AC5A8F59BC5A9F5D8
:1062DA00D1EC35F0A6C5BFF5A7C5C0F5A8C5C1F56F
:1062EA00A9C5C2F5000E0501C36F000EC46F110ED9
:1062FA00C56F430EC66FFEEC2DF0BFC5A4F6C0C530
:10630A00A5F6C1C5A6F6C2C5A7F6040E03EC3DF074
:10631A00D8C5F8F5D9C5F9F5DAC5FAF5DBC5FBF53F
:10632A00A4C6C3F5A5C6C4F5A6C6C5F5A7C6C6F5CF
:10633A00F8C5BFF5F9C5C0F5FAC5C1F5FBC5C2F583
:10634A00FEEC2DF0BFC5A6F5C0C5A7F5C1C5A8F5D9
:10635A00C2C5A9F5000E0501AA6F000EAB6F7A0E31
:10636A00AC6F440EAD6FD1EC35F0A6C538F7A7C5B2
:10637A0039F7A8C53AF7A9C53BF7A4C600F6A5C6DA
:10638A0001F6A6C602F6A7C603F6000E0601046FBA
:10639A00000E056F960E066F430E076FC7EC4AF0A4
:1063AA000601D8A0DBEF31F0DDEF31F0E6EF31F096
:1063BA00040EDE6F000E0501F66F010EF56F07EF92
:1063CA0032F0000E006F000E016FA00E026F410E38
:1063DA00036FA4C604F6A5C605F6A6C606F6A7C6A2
:1063EA0007F6C7EC4AF00601D8A0FEEF31F000EF3D
:1063FA0032F038EF31F0050EDE6F000E0501F66F50
:10640A00020EF56F1200030E88EC64F063C5ECF51A
:10641A0064C5EDF5000E0501AA6FF00EAB6F7F0E95
:10642A00AC6F450EAD6FECC598F5EDC599F5000E4C
:10643A0099BFFF0E9A6F9B6F010E2AEC44F098C524
:10644A00A6F599C5A7F59AC5A8F59BC5A9F5D1ECF6
:10645A0035F0A6C5BFF5A7C5C0F5A8C5C1F5A9C53C
:10646A00C2F56F0E0501C36F120EC46F830EC56F9E
:10647A00400EC66FFEEC2DF0BFC5F6F5C0C5F7F5A8
:10648A00C1C5F8F5C2C5F9F5F6C558F7F7C559F704
:10649A00F8C55AF7F9C55BF783EC68F063C5F2F5FE
:1064AA0064C5F3F565C5F4F566C5F5F52CC767F55A
:1064BA002DC768F52EC769F52FC76AF5D3EC5BF0CF
:1064CA0067C5EEF568C5EFF569C5F0F56AC5F1F57A
:1064DA0028C7DCF529C7DDF52AC7DEF52BC7DFF5A6
:1064EA00F6C5D8F5F7C5D9F5F8C5DAF5F9C5DBF576
:1064FA0075EC62F0D8C5E0F5D9C5E1F5DAC5E2F583
:10650A00DBC5E3F550EC65F0E0C500F6E1C501F640
:10651A00E2C502F6E3C503F6CD0E0601046FCC0E02
:10652A00056F4C0E066F3D0E076FC7EC4AF0060169
:10653A00D8B0A2EF32F0A4EF32F0AFEF32F0050E8E
:10654A00D061AAEF32F0ACEF32F0B0EF32F0D02BDC
:10655A00B0EF32F0D06BF6C528F7F7C529F7F8C5C2
:10656A002AF7F9C52BF7E2EF33F0DD6B040ED0659D
:10657A00C1EF32F0C3EF32F0F1EF33F0F6C500F6B7
:10658A00F7C501F6F8C502F6F9C503F6660E046FFB
:10659A00660E056FE60E066F3F0E076FC7EC4AF0F0
:1065AA000601D8A0DBEF32F0DDEF32F013EF33F063
:1065BA00F6C500F6F7C501F6F8C502F6F9C503F601
:1065CA00CD0E046FCC0E056F0C0E066F400E076FD2
:1065DA00C7EC4AF00601D8B0F5EF32F0F7EF32F027
:1065EA0013EF33F00501F151F0110BE1E80EEE5D06
:1065FA00030EEF59D8A004EF33F006EF33F0F1EFB2
:10660A0033F0010E0601D16FF2C52CF7F3C52DF751
:10661A00F4C52EF7F5C52FF7F1EF33F0F6C500F6FE
:10662A00F7C501F6F8C502F6F9C503F69A0E046F26
:10663A00990E056F190E066F400E076FC7EC4AF0E8
:10664A000601D8A02BEF33F02DEF33F009EF33F02A
:10665A000501F151F0110BE1E80EEE5D030EEF5961
:10666A00D8A03AEF33F03CEF33F041EF33F0020EAB
:10667A000601D16F09EF33F0F1EF33F0010EDD6F50
:10668A00040ED0654BEF33F04DEF33F0F1EF33F0FA
:10669A00660E006F660E016FA60E026F3F0E036F45
:1066AA00F6C504F6F7C505F6F8C506F6F9C507F600
:1066BA00C7EC4AF00601D8A065EF33F067EF33F074
:1066CA0082EF33F00501F151F0110BE1E80EEE5DB6
:1066DA00030EEF59D8A074EF33F076EF33F0F1EFF1
:1066EA0033F00601D16BF2C52CF7F3C52DF7F4C5CB
:1066FA002EF7F5C52FF7F1EF33F0F6C500F6F7C51B
:10670A0001F6F8C502F6F9C503F69A0E046F990E5A
:10671A00056F190E066F400E076FC7EC4AF00601A7
:10672A00D8A09AEF33F09CEF33F009EF33F005016C
:10673A00F151F0110BE1E80EEE5D030EEF59D8A00E
:10674A00A9EF33F0ABEF33F041EF33F03CEF33F026
:10675A00020EDD6F040ED065B5EF33F0B7EF33F0FC
:10676A00F1EF33F0660E006F660E016FA60E026F30
:10677A003F0E036FF6C504F6F7C505F6F8C506F62B
:10678A00F9C507F6C7EC4AF00601D8A0CFEF33F0F7
:10679A00D1EF33F0F1EF33F00501F151F0110BE1D4
:1067AA00D00EEE5D070EEF59D8A0DEEF33F0E0EF22
:1067BA0033F0F1EF33F076EF33F0D151000AD8B469
:1067CA00BAEF32F0010AD8B443EF33F0030AD8B46F
:1067DA00ADEF33F0F1EF33F0120006010851091161
:1067EA00D8A4FAEF33F0FCEF33F006EF34F0000EE2
:1067FA00086F000E096F000E0A6F000E0B6FD0EFC4
:10680A0035F083EC68F063C51AF664C51BF665C5F6
:10681A001CF666C51DF6060120EE08F00851D926B9
:10682A000951DA22DEC463F5DEC464F5DEC465F517
:10683A00DEC466F50AC667F50BC668F50CC669F5C7
:10684A000DC66AF502EC59F00501D8B02FEF34F005
:10685A0031EF34F0C0EF34F0060120EE08F00851B1
:10686A00D9260951DA220AC6DEF40BC6DEF40CC6B2
:10687A00DEF40DC6DEF408C6D9F409C6DAF4DEC4BD
:10688A0000F6DEC401F6DEC402F6DEC403F60AC66A
:10689A0004F60BC605F60CC606F60DC607F6C7ECD7
:1068AA004AF00601D8B05CEF34F05EEF34F08EEFB8
:1068BA0034F008C6D9F409C6DAF410EE04F0085127
:1068CA00E1260951E222DEC4E6F4DEC4E6F4DEC4BF
:1068DA00E6F4DEC4E6F420EE0CF00851D92609519C
:1068EA00DA221AC6DEF41BC6DEF41CC6DEF41DC6A6
:1068FA00DEF420EE10F00851D9260951DA220EC62C
:10690A00DEF40FC6DEF410C6DEF411C6DEF4C0EF04
:10691A0034F020EE04F00851D9260951DA220AC6C9
:10692A00DEF40BC6DEF40CC6DEF40DC6DEF408C6D1
:10693A00D9F409C6DAF40AC6DEF40BC6DEF40CC6CC
:10694A00DEF40DC6DEF420EE0CF00851D92609510A
:10695A00DA221AC6DEF41BC6DEF41CC6DEF41DC635
:10696A00DEF420EE10F00851D9260951DA22DE6A47
:10697A00DE6ADE6ADD6A060120EE10F00851D926C9
:10698A000951DA22DE50DE10DE10DE10D8A4D0EF74
:10699A0034F0D2EF34F0E0EF34F008C6D9F409C687
:1069AA00DAF4DEC408F6DEC409F6DEC40AF6DEC48A
:1069BA000BF6D0EF35F020EE0CF00851D92609512C
:1069CA00DA22DEC467F5DEC468F5DEC469F5DEC422
:1069DA006AF5D3EC5BF067C51EF668C51FF669C594
:1069EA0020F66AC521F6060120EE10F00851D926D4
:1069FA000951DA22DE501E5DDE501F59DE50205941
:106A0A00DE502159D8A00CEF35F00EEF35F02EEFFD
:106A1A0035F020EE08F00851D9260951DA2208C6C5
:106A2A00E1F409C6E2F4DEC4E6F4DEC4E6F4DEC448
:106A3A00E6F4DEC4E6F408C6D9F409C6DAF4DEC41C
:106A4A0008F6DEC409F6DEC40AF6DEC40BF6D0EF99
:106A5A0035F01EC698F51FC699F520C69AF521C6C7
:106A6A009BF5000E2AEC44F098C5A6F599C5A7F542
:106A7A009AC5A8F59BC5A9F5060120EE10F00851A4
:106A8A00D9260951DA22DEC498F5DEC499F5DEC4A6
:106A9A009AF5DEC49BF5000E2AEC44F098C5AAF5D7
:106AAA0099C5ABF59AC5ACF59BC5ADF5D1EC35F0FA
:106ABA00A6C512F6A7C513F6A8C514F6A9C515F6F4
:106ACA0012C6C3F513C6C4F514C6C5F515C6C6F570
:106ADA00060120EE04F00851D9260951DA22DEC453
:106AEA00DCF5DEC4DDF5DEC4DEF5DEC4DFF520EE5E
:106AFA0008F00851D9260951DA22DEC4D8F5DEC4D5
:106B0A00D9F5DEC4DAF5DEC4DBF575EC62F0D8C57A
:106B1A00BFF5D9C5C0F5DAC5C1F5DBC5C2F5FEECCE
:106B2A002DF0BFC516F6C0C517F6C1C518F6C2C501
:106B3A0019F616C663F517C664F518C665F519C6BB
:106B4A0066F5060120EE04F00851D9260951DA2229
:106B5A00DEC467F5DEC468F5DEC469F5DEC46AF52D
:106B6A0089EC29F008C6D9F409C6DAF4050163C527
:106B7A00DEF464C5DEF465C5DEF466C5DEF408C677
:106B8A00D9F409C6DAF4DEC408F6DEC409F6DEC4AE
:106B9A000AF6DEC40BF612000501A951800BB66F86
:106BAA00A951A925BD6FA8AFDDEF35F0DFEF35F0AC
:106BBA00E0EF35F0BD81BD51D8B4E6EF35F0E8EF2E
:106BCA0035F0FCEF35F0BD29D8A4EEEF35F0F0EF43
:106BDA0035F0F8EF35F0000EA66F000EA76F000E25
:106BEA00A86F000EA96FA88FA96B04EF36F0000EEC
:106BFA00A66F000EA76F000EA86F000EA96FAD5109
:106C0A00800BB61BAD51AD25BE6FACAF0FEF36F0A2
:106C1A0011EF36F012EF36F0BE81BE51D8B418EF3C
:106C2A0036F01AEF36F02EEF36F0BE29D8A420EF50
:106C3A0036F022EF36F02AEF36F0000EAA6F000E79
:106C4A00AB6F000EAC6F000EAD6FAC8FAD6B36EF55
:106C5A0036F0000EAA6F000EAB6F000EAC6F000E7E
:106C6A00AD6FAA51AB11AC11AD11D8A43FEF36F0FC
:106C7A0041EF36F059EF36F0000EA66F000EA76FFF
:106C8A00000EA86F000EA96F800EA8137F0EA9131D
:106C9A00B651A913A6C5A6F5A7C5A7F5A8C5A8F50F
:106CAA00A9C5A9F599EF37F0BD51D8A45FEF36F021
:106CBA0061EF36F06BEF36F0000EA66F000EA76F8D
:106CCA00000EA86F000EA96F99EF37F0BE51BDC52F
:106CDA00AEF5AF6BAE5F000EAF5B7F0EAE25B76F42
:106CEA00000EAF21B86FA6C5B2F5A7C5B3F5A8C502
:106CFA00B4F5A9C5B5F5000EA66F000EA76F000E74
:106D0A00A86F000EA96F000EB96F000EBA6F000EC1
:106D1A00BB6F000EBC6FBE6BCBEF36F0BE51D8B462
:106D2A0099EF36F09BEF36F0B2EF36F0D890B237E3
:106D3A00B337B437B537D890A637A737A837A937A6
:106D4A00BCAFAAEF36F0ACEF36F0ADEF36F0A68165
:106D5A00D890B937BA37BB37BC37AA51B25DAB51F5
:106D6A00B359AC51B459AD51B559D8A0BFEF36F0AB
:106D7A00C1EF36F0CAEF36F0BC8DAA51B25FAB5103
:106D8A00B35BAC51B45BAD51B55BBE2B190EBE659E
:106D9A00D1EF36F0D3EF36F093EF36F0B251B311AC
:106DAA00B411B511D8B4DCEF36F0DEEF36F0F6EFF9
:106DBA0036F0B981F6EF36F0D890A637A737A8375C
:106DCA00A937BCAFEBEF36F0EDEF36F0EEEF36F069
:106DDA00A681D890B937BA37BB37BC37B707D8A01E
:106DEA00B807A8AFFBEF36F0FDEF36F0E1EF36F06B
:106DFA00BE6BBCAF03EF37F005EF37F029EF37F082
:106E0A00FF0EB915AE6FFF0EBA15AF6FFF0EBB15A9
:106E1A00B06F7F0EBC15B16FAE51AF11B011B11189
:106E2A00D8B41AEF37F01CEF37F020EF37F0010E25
:106E3A00BE6F29EF37F0A6A125EF37F027EF37F01D
:106E4A0029EF37F01CEF37F0BE51D8B42FEF37F0E7
:106E5A0031EF37F055EF37F0010EA627000EA723C2
:106E6A00A823A923A9A13CEF37F03EEF37F055EF4D
:106E7A0037F0A6C5AEF5A7C5AFF5A8C5B0F5A9C543
:106E8A00B1F5B135B133B033AF33AE33AEC5A6F5D4
:106E9A00AFC5A7F5B0C5A8F5B1C5A9F5B74BB82BCD
:106EAA00B8BF60EF37F0B85108E1B729D8A060EF52
:106EBA0037F062EF37F06DEF37F0000EB86FB76951
:106ECA00000EA66F000EA76F000EA86F000EA96F26
:106EDA00B8BF7AEF37F0B85106E1B705D8B078EF06
:106EEA0037F07AEF37F087EF37F0000EB86F000E01
:106EFA00B76F000EA66F000EA76F000EA86F000EE8
:106F0A00A96FB66BB7C5BDF5BDA18EEF37F090EF8F
:106F1A0037F093EF37F0A88F94EF37F0A89FD89007
:106F2A00BD31A96F4DEF36F0120047C58FF548C540
:106F3A0090F5B8C67FF50501806B7FBF80077FC5D6
:106F4A0081F580C582F5000E82BFFF0E836F846FC4
:106F5A0047C563F548C564F5656B666BFF51676F96
:106F6A00686B696B6A6B84EC5DF063C56FF564C529
:106F7A0070F565C571F566C572F5640E0501736F26
:106F8A00000E746F000E756F000E766FEBEC50F00A
:106F9A00050181516F5D916F82517059926F8351D2
:106FAA007159936F84517259946F94BFEAEF37F015
:106FBA0094519311921107E1140E915DD8B0E8EF44
:106FCA0037F0EAEF37F0F2EF37F0140E916F000E58
:106FDA00926F000E936F000E946F47507F6F485068
:106FEA00806F816B826B91517F5D92518059935171
:106FFA0081598251800A836F9451800A8359D8B08B
:10700A0009EF38F00BEF38F011EF38F047C591F57A
:10701A0048C592F5936B946B91C543F592C544F5B7
:10702A00B9C67FF5806B7FBF80077FC581F580C5B4
:10703A0082F5000E82BFFF0E836F846F45C563F52C
:10704A0046C564F5656B666BFE51676F686B696B65
:10705A006A6B84EC5DF063C56FF564C570F565C550
:10706A0071F566C572F5640E0501736F000E746FD3
:10707A00000E756F000E766FEBEC50F00501815132
:10708A006F5D916F82517059926F83517159936FED
:10709A0084517259946F94BF60EF38F094519311F0
:1070AA00921107E1140E915DD8B05EEF38F060EFEF
:1070BA0038F068EF38F0140E916F000E926F000EE0
:1070CA00936F000E946F45507F6F4650806F816BAF
:1070DA00826B91517F5D92518059935181598251AE
:1070EA00800A836F9451800A8359D8B07FEF38F0B1
:1070FA0081EF38F087EF38F045C591F546C592F52E
:10710A00936B946B91C5C7F692C5C8F60601C75131
:10711A00432405018D6F0601C851442005018E6F75
:10712A008D518F5D8E519059D8B09EEF38F0A0EFF7
:10713A0038F0CDEF38F0BAC67FF5806B7FBF800795
:10714A007FC581F580C582F5000E82BFFF0E836F71
:10715A00846F43508D5D856F44508E59866F85517B
:10716A008F5D876F86519059886F896BD8A0890780
:10717A0089518A6F8151875D916F82518859926FC7
:10718A0083518959936F84518A59946FD3EF38F098
:10719A0043C591F544C592F5936B946B94BFE3EFA5
:1071AA0038F094519311921107E1140E915DD8B001
:1071BA00E1EF38F0E3EF38F0EBEF38F0140E916FAF
:1071CA00000E926F000E936F000E946F8F517F6FB7
:1071DA009051806F816B826B91517F5D9251805982
:1071EA00935181598251800A836F9451800A83593D
:1071FA00D8B002EF39F004EF39F00AEF39F08FC551
:10720A0091F590C592F5936B946B91C58BF592C5E8
:10721A008CF58BC57DF58CC57EF5120044C767F5E4
:10722A0045C768F546C769F547C76AF5D3EC5BF009
:10723A0067C59AF568C59BF569C59CF56AC59DF54C
:10724A0040C767F541C768F542C769F543C76AF59C
:10725A00D3EC5BF067C59EF568C59FF569C5A0F5D7
:10726A006AC5A1F52C0E50EC42F06BC5A2F56CC5AF
:10727A00A3F55E50D8B444EF39F046EF39F05DEF2C
:10728A0039F083EC68F063C540F764C541F765C51A
:10729A0042F766C543F783EC68F063C544F764C5F3
:1072AA0045F765C546F766C547F7010E536E5E6A30
:1072BA005450D8A463EF39F065EF39F060EF3AF033
:1072CA000501A151A0110BE1880E9E5D130E9F5975
:1072DA00D8A072EF39F074EF39F060EF3AF0010E8E
:1072EA00546E60EF3AF05350D8A47EEF39F080EF35
:1072FA0039F093EF39F09D519C110BE1B80E9A5D6C
:10730A000B0E9B59D8A08CEF39F08EEF39F07AEF3B
:10731A003AF05F6A010E536E7AEF3AF05450D8A4ED
:10732A0099EF39F09BEF39F0B3EF39F0730EA25DA4
:10733A00060EA359D8A0A4EF39F0A6EF39F0B3EF9F
:10734A0039F0010E556E83EC68F063C544F764C5E5
:10735A0045F765C546F766C547F7536A5404D8A486
:10736A00B9EF39F0BBEF39F07AEF3AF0350E050193
:10737A00A25D080EA359D8A0C5EF39F0C7EF39F0BE
:10738A007AEF3AF0010E556E83EC68F063C544F764
:10739A0064C545F765C546F766C547F7536A7AEF88
:1073AA003AF05B6A010E5F6E5404D8A4DFEF39F03D
:1073BA00E1EF39F013EF3AF0A40EA25D060EA359DD
:1073CA00D8B0EAEF39F0ECEF39F0EFEF39F0556A5F
:1073DA00C9EF39F0D70EA25D060EA359D8A0F8EF6F
:1073EA0039F0FAEF39F07AEF3AF03A0EA25D070E69
:1073FA00A359D8B003EF3AF005EF3AF07AEF3AF032
:10740A00020E556E83EC68F063C544F764C545F710
:10741A0065C546F766C547F77AEF3AF05450D8A4DF
:10742A0019EF3AF01BEF3AF07AEF3AF0A40EA25DA8
:10743A00060EA359D8B024EF3AF026EF3AF02AEF15
:10744A003AF0010E546EECEF39F0D70EA25D060E3B
:10745A00A359D8A033EF3AF035EF3AF07AEF3AF081
:10746A003A0EA25D070EA359D8B03EEF3AF040EFAC
:10747A003AF07AEF3AF005EF3AF0010E5B6E350E0C
:10748A00A25D080EA359D8A04DEF3AF04FEF3AF09B
:10749A0053EF3AF0010E556E07EF3AF0A40EA25DD3
:1074AA00060EA359D8B05CEF3AF05EEF3AF07AEFE5
:1074BA003AF0ECEF39F055500501986F996B9951F4
:1074CA00000AD8B46BEF3AF07AEF3AF09851000A12
:1074DA00D8B478EF39F0010AD8B4D6EF39F0030AF4
:1074EA00D8B442EF3AF07AEF3AF0120048C767F59B
:1074FA0049C768F54AC769F54BC76AF5D3EC5BF02B
:10750A0067C5F9F568C5FAF569C5FBF56AC5FCF5FD
:10751A00020E0501FF6194EF3AF096EF3AF09EEF02
:10752A003AF0010EFE659CEF3AF09EEF3AF0B4EFA6
:10753A003BF00601F105D8A4A5EF3AF0A7EF3AF01F
:10754A00B4EF3BF083EC68F063C548F764C549F7CC
:10755A0065C54AF766C54BF7010E0601F06FF16B78
:10756A00B4EF3BF059EC69F00501FC51FB110BE15A
:10757A00210EF95D030EFA59D8A0C6EF3AF0C8EF0A
:10758A003AF0D3EF3BF0010EFF65CEEF3AF0D0EFC1
:10759A003AF0DFEF3AF0010EFE65D6EF3AF0D8EF97
:1075AA003AF0DFEF3AF0020E0601F06F010EDB6FE0
:1075BA00010EDA6F010E0501FF65E6EF3AF0E8EF1A
:1075CA003AF0F5EF3AF0FE51D8A4EEEF3AF0F0EFC8
:1075DA003AF0F5EF3AF0030E0601F06F010EDB6F99
:1075EA000501FF51D8A4FCEF3AF0FEEF3AF00BEF99
:1075FA003BF0010EFE6504EF3BF006EF3BF00BEFAC
:10760A003BF0040E0601F06F010EDA6F83EC68F0AE
:10761A0063C548F764C549F765C54AF766C54BF7B8
:10762A00D3EF3BF04EEC41F024EC3EF0010E0501A5
:10763A00FF6522EF3BF024EF3BF034EF3BF0FE51C5
:10764A00D8A42AEF3BF02CEF3BF034EF3BF0020ECC
:10765A00F4EC5FF0030E0601F06F010EDB6F05011B
:10766A00FF51D8A43BEF3BF03DEF3BF0D3EF3BF0AB
:10767A00010EFE6543EF3BF045EF3BF0D3EF3BF0E5
:10768A00010EF4EC5FF0040E0601F06F010EDA6FE2
:10769A00D3EF3BF04EEC41F0010E0501FF6558EFC8
:1076AA003BF05AEF3BF069EF3BF0010EFE6560EFED
:1076BA003BF062EF3BF069EF3BF0020E0601F06F20
:1076CA00010EDB6F010EDA6F0501FF51D8A470EFCE
:1076DA003BF072EF3BF0D3EF3BF0010EFE6578EF23
:1076EA003BF07AEF3BF0D3EF3BF0010EF4EC5FF0A6
:1076FA0048EF3BF024EC3EF0010E0501FF6588EFF0
:10770A003BF08AEF3BF099EF3BF0010EFE6590EFFC
:10771A003BF092EF3BF099EF3BF0020E0601F06F5F
:10772A00010EDB6F010EDA6F010E0501FF65A0EF96
:10773A003BF0A2EF3BF0D3EF3BF0FE51D8A4A8EF09
:10774A003BF0AAEF3BF0D3EF3BF0020EF4EC5FF014
:10775A00030E0601F06F010EDB6FD3EF3BF006015B
:10776A00F0510501F76FF86BF851000AD8B4C0EF71
:10777A003BF0D3EF3BF0F751010AD8B4B7EF3AF038
:10778A00030AD8B417EF3BF0010AD8B44FEF3BF025
:10779A00070AD8B47FEF3BF0D3EF3BF0120018C7CB
:1077AA0067F519C768F51AC769F51BC76AF5D3ECF7
:1077BA005BF067C59AF668C59BF669C59CF66AC50B
:1077CA009DF606019D519C119B1109E10B0E9A5DD4
:1077DA00D8A0F2EF3BF0F4EF3BF000EF3CF0CB51D6
:1077EA00D8B4FAEF3BF0FCEF3BF000EF3CF0010EAF
:1077FA00CD6F4FEC69F00601CD05D8B407EF3CF028
:10780A0009EF3CF00BEF3CF002EF3DF0640E05018E
:10781A00636F0A0E646F000E656F0A0E666FCBC641
:10782A0067F5686B4AEC60F00601CB51FE0FA06F5A
:10783A00640E0501636F0A0E646FA0C665F59BECC2
:10784A005CF063C596F764C597F7650E0601A02537
:10785A00D96EDA6A0A0EDA22DF50966F640EA02514
:10786A00D96EDA6A0A0EDA22DF50976F9751996F4A
:10787A00986B965198250701946F0601000E99217D
:10788A000701956F9451961909E195519719D8B442
:10789A0051EF3CF053EF3CF057EF3CF02CEC62F028
:1078AA0002EF3DF06ACA9EF60601CB51F70F9F6FB1
:1078BA009E519F19D8B464EF3CF066EF3CF068EF34
:1078CA003CF053EF3CF0100E0A016519D8A470EF92
:1078DA003CF072EF3CF082EF3CF00E0E6719D8A430
:1078EA0079EF3CF07BEF3CF082EF3CF0640E05014F
:1078FA00636F0A0E646F65EC50F0AA0E0A016419F0
:10790A00D8A48AEF3CF08CEF3CF053EF3CF05A0ECF
:10791A006519D8A493EF3CF095EF3CF053EF3CF097
:10792A00EFEF3CF06605D8A49DEF3CF09FEF3CF0EA
:10793A00A6EF3CF0640E0601756F0A0E766F84ECB2
:10794A004CF0020E0A016619D8A4AEEF3CF0B0EF73
:10795A003CF053EF3CF0640E0601756F0A0E766F29
:10796A0006EC45F053EF3CF0020E6619D8A4C0EFBE
:10797A003CF0C2EF3CF053EF3CF0640E0601756F29
:10798A000A0E766FF1EC51F053EF3CF0020E6619D5
:10799A00D8A4D2EF3CF0D4EF3CF053EF3CF0640EA5
:1079AA000601756F0A0E766F38EC3FF053EF3CF024
:1079BA00020E6619D8A4E4EF3CF0E6EF3CF053EF70
:1079CA003CF0640E0601756F0A0E766F69EC47F09B
:1079DA0053EF3CF06751010AD8B497EF3CF0160A0E
:1079EA00D8B4B9EF3CF0400AD8B4CBEF3CF00F0A58
:1079FA00D8B4DDEF3CF053EF3CF012000501F46F10
:107A0A00160E0501F419D8A40DEF3DF00FEF3DF065
:107A1A0088EF3DF0160E50EC42F06BC5ECF56CC5E4
:107A2A00EDF5000E0501AA6FF00EAB6F7F0EAC6F7D
:107A3A00450EAD6FECC598F5EDC599F5000E99BFE9
:107A4A00FF0E9A6F9B6F010E2AEC44F098C5A6F5BB
:107A5A0099C5A7F59AC5A8F59BC5A9F5D1EC35F046
:107A6A00A6C5BFF5A7C5C0F5A8C5C1F5A9C5C2F584
:107A7A003D0E0501C36F0A0EC46F830EC56F400E1B
:107A8A00C66FFEEC2DF0BFC5DCF5C0C5DDF5C1C57E
:107A9A00DEF5C2C5DFF5D60E0501E06F0D0EE16F0A
:107AAA00A60EE26F3D0EE36FE0C5C3F5E1C5C4F56E
:107ABA00E2C5C5F5E3C5C6F5DCC5BFF5DDC5C0F54C
:107ACA00DEC5C1F5DFC5C2F5FEEC2DF0BFC5A6F5D2
:107ADA00C0C5A7F5C1C5A8F5C2C5A9F5CD0E050152
:107AEA00AA6FCC0EAB6FCC0EAC6F3D0EAD6FD1EC66
:107AFA0035F0A6C5F0F5A7C5F1F5A8C5F2F5A9C5F3
:107B0A00F3F508EF3EF0040EF419D8A48FEF3DF018
:107B1A0091EF3DF008EF3EF0040E50EC42F06BC5D9
:107B2A00EEF56CC5EFF5000E0501AA6FF00EAB6F0E
:107B3A007F0EAC6F450EAD6FEEC598F5EFC599F5A2
:107B4A00000E99BFFF0E9A6F9B6F010E2AEC44F04C
:107B5A0098C5A6F599C5A7F59AC5A8F59BC5A9F52F
:107B6A00D1EC35F0A6C5BFF5A7C5C0F5A8C5C1F5C6
:107B7A00A9C5C2F56F0E0501C36F120EC46F830E3D
:107B8A00C56F400EC66FFEEC2DF0BFC5E4F5C0C54B
:107B9A00E5F5C1C5E6F5C2C5E7F5420E0501E86F90
:107BAA00110EE96F8A0EEA6F3D0EEB6FE8C5C3F559
:107BBA00E9C5C4F5EAC5C5F5EBC5C6F5E4C5BFF523
:107BCA00E5C5C0F5E6C5C1F5E7C5C2F5FEEC2DF081
:107BDA00BFC5A6F5C0C5A7F5C1C5A8F5C2C5A9F513
:107BEA00CD0E0501AA6FCC0EAB6F4C0EAC6F3E0EDC
:107BFA00AD6FD1EC35F0A6C5F0F5A7C5F1F5A8C56E
:107C0A00F2F5A9C5F3F5F0C5BFF5F1C5C0F5F2C5A2
:107C1A00C1F5F3C5C2F5000E0501C36F000EC46FAE
:107C2A007A0EC56F440EC66FFEEC2DF0BFC5D8F5AF
:107C3A00C0C5D9F5C1C5DAF5C2C5DBF512004CC716
:107C4A0067F54DC768F54EC769F54FC76AF5D3ECB6
:107C5A005BF067C556F668C557F669C558F66AC532
:107C6A0059F627EF3FF0020EA1EC66F083EC68F0BC
:107C7A0063C54CF764C54DF765C54EF766C54FF742
:107C8A00020E0601DA6F37EF3FF0595158115711BA
:107C9A0009E1C90E565DD8A055EF3EF057EF3EF008
:107CAA0037EF3FF0020EB5EC66F083EC68F063C57F
:107CBA004CF764C54DF765C54EF766C54FF7030E19
:107CCA000601DA6F37EF3FF0000E0501AA6F000ECA
:107CDA00AB6F7A0EAC6F440EAD6F110E50EC42F0E2
:107CEA0005016BC598F56CC599F59A6B9B6B000EEF
:107CFA002AEC44F098C5A6F599C5A7F59AC5A8F542
:107D0A009BC5A9F5D1EC35F0A6C5BFF5A7C5C0F549
:107D1A00A8C5C1F5A9C5C2F5000E0501C36F000EBD
:107D2A00C46F110EC56F430EC66FFEEC2DF0BFC5B2
:107D3A00D5F7C0C5D6F7C1C5D7F7C2C5D8F7040E5F
:107D4A0003EC3DF0D8C55AF6D9C55BF6DAC55CF640
:107D5A00DBC55DF6D5C7C3F5D6C7C4F5D7C7C5F524
:107D6A00D8C7C6F55AC6BFF55BC6C0F55CC6C1F52D
:107D7A005DC6C2F5FEEC2DF0BFC5A6F5C0C5A7F5D8
:107D8A00C1C5A8F5C2C5A9F5000E0501AA6F000E66
:107D9A00AB6F7A0EAC6F440EAD6FD1EC35F0A6C561
:107DAA00D1F7A7C5D2F7A8C5D3F7A9C5D4F7C7C6CF
:107DBA0098F5C8C699F505019A6B9B6B000E2AECDB
:107DCA0044F098C55EF699C55FF69AC560F69BC5FC
:107DDA0061F65EC622F65FC623F660C624F661C661
:107DEA0025F6D0EC63F022C6CDF723C6CEF724C61B
:107DFA00CFF725C6D0F7670E06011C6F080E1D6F58
:107E0A00CDC71EF6CEC71FF6CFC720F6D0C721F6BC
:107E1A00D1C722F6D2C723F6D3C724F6D4C725F68C
:107E2A0083EC24F01CC6D9F71DC6DAF7D9C765F565
:107E3A00DAC766F5020E4DEC5DF0010E0601DC6F45
:107E4A0037EF3FF00601DA51010AD8B438EF3EF0B5
:107E5A00030AD8B44AEF3EF0010AD8B469EF3EF0FB
:107E6A0037EF3FF0120021EE77F2100EDE6AE806D5
:107E7A00FDE2770E0501636F060E646F75C665F540
:107E8A0076C666F5000E686F110E676F4AEC60F0F1
:107E9A0006017E05D8A454EF3FF056EF3FF077EF86
:107EAA003FF0040E05016B6F000E6C6F000E6D6FD4
:107EBA007FC66EF512EC5DF0150E0501FC6FC60E5D
:107ECA00E82EFED7FC2FFCD70000040E0501696FCF
:107EDA00000E6A6F000E6B6F99EC62F00601B86FC4
:107EEA00A0EF3FF0020E7E19D8A47EEF3FF080EF9C
:107EFA003FF0A0EF3FF0040E05016B6F000E6C6FB0
:107F0A00000E6D6F7FC66EF512EC5DF0150E050161
:107F1A00FC6FC60EE82EFED7FC2FFCD70000040E1D
:107F2A000501696F000E6A6F000E6B6F99EC62F0C3
:107F3A0000080601B86F8005D8A4A6EF3FF0A8EFA5
:107F4A003FF0C9EF3FF0050E05016B6F000E6C6F35
:107F5A00000E6D6F81C66EF512EC5DF0150E05010F
:107F6A00FC6FC60EE82EFED7FC2FFCD70000050ECC
:107F7A000501696F000E6A6F000E6B6F99EC62F073
:107F8A000601B96FF2EF3FF0020E8019D8A4D0EFC4
:107F9A003FF0D2EF3FF0F2EF3FF0050E05016B6FB5
:107FAA00000E6C6F000E6D6F81C66EF512EC5DF0FF
:107FBA00150E0501FC6FC60EE82EFED7FC2FFCD766
:107FCA000000050E0501696F000E6A6F000E6B6FE7
:107FDA0099EC62F000080601B96F550E776F770EBB
:107FEA000501636F060E646F0F0E656F9BEC5CF004
:107FFA0063C588F664C589F688C687F6060189517D
:10800A00866F8A6B0B0E636F3E0E646F770E8A253E
:10801A00D96EDA6A060EDA22DF500501FC6FFC51CE
:10802A000601656F666B8DEC66F0100E06018A61BB
:10803A0021EF40F023EF40F029EF40F0D20E636FBA
:10804A003D0E646F8DEC66F006018A2B100E8A6570
:10805A0031EF40F033EF40F007EF40F0770E0501C3
:10806A00636F060E646F000E656F000E666F000E7A
:10807A00686F110E676F4AEC60F0120000C7CFF507
:10808A0001C7D0F502C7D1F503C7D2F5BFC5CFF5F1
:10809A00C0C5D0F5C1C5D1F5C2C5D2F5810E05015D
:1080AA00C36FFF0EC46FCFC5C5F5D0C5C6F5D1C520
:1080BA00C7F5D2C5C8F5180E68EF40F0D890C83396
:1080CA00C733C633C533E82E63EF40F0C551C32525
:1080DA00CD6F000EC421CE6FCEBF7DEF40F0CE51E2
:1080EA0009E1170ECD5DD8A07DEF40F07FEF40F09B
:1080FA0089EF40F0BFC5BFF5C0C5C0F5C1C5C1F520
:10810A00C2C5C2F54DEF41F0CEBF8EEF40F090EF01
:10811A0040F001EF41F0CDC5C3F5FF0EC46FFF0E6D
:10812A00C56F7F0EC66F000EC76FC3679FEF40F023
:10813A00A7EF40F0C735C733C633C533C433C32F9F
:10814A009AEF40F0C4C5C9F5C5C5CAF5C6C5CBF591
:10815A00C7C5CCF50501C951CF15C36FCA51D01592
:10816A00C46FCB51D115C56FCC51D215C66FC3514F
:10817A00C411C511C611D8A4C5EF40F0C7EF40F02D
:10818A00C9EF40F07FEF40F0CFC5C3F5D0C5C4F5C5
:10819A00D1C5C5F5D2C5C6F5200ED9EF40F0D890A5
:1081AA00C633C533C433C333E82ED4EF40F0C351CA
:1081BA00C411C511C611D8B4E5EF40F0E7EF40F09D
:1081CA00EFEF40F0C951CF27CA51D023CB51D12369
:1081DA00CC51D223C91DC36FCA1DC46FCB1DC56F35
:1081EA00CC1DC66FC351CF17C451D017C551D11773
:1081FA00C651D21745EF41F0CFC5C3F5D0C5C4F576
:10820A00D1C5C5F5D2C5C6F5200E11EF41F0D890FB
:10821A00C633C533C433C333E82E0CEF41F0C35120
:10822A00C411C511C611D8A41DEF41F01FEF41F0CA
:10823A0029EF41F0000ECF6F000ED06F000ED16F04
:10824A00000ED26F45EF41F0D890CF35C36FD035CD
:10825A00C46FD135C56FD235C66FC351C411C511AC
:10826A00C611D8B43BEF41F03DEF41F045EF41F084
:10827A00000ECF6F000ED06F800ED16FBF0ED26F7F
:10828A00CFC5BFF5D0C5C0F5D1C5C1F5D2C5C2F5B8
:10829A00120050C767F551C768F552C769F553C749
:1082AA006AF5D3EC5BF067C556F668C557F669C53B
:1082BA0058F66AC559F63FEF42F0010EA1EC66F096
:1082CA0083EC68F063C550F764C551F765C552F78A
:1082DA0066C553F7020E0601DB6F4FEF42F05951A4
:1082EA005811571109E1C90E565DD8A07FEF41F028
:1082FA0081EF41F04FEF42F0010EB5EC66F083ECEE
:10830A0068F063C550F764C551F765C552F766C58D
:10831A0053F7030E0601DB6F4FEF42F0000E050123
:10832A00AA6F000EAB6F7A0EAC6F440EAD6F1C0EC7
:10833A0050EC42F005016BC598F56CC599F59A6B3E
:10834A009B6B000E2AEC44F098C5A6F599C5A7F5D3
:10835A009AC5A8F59BC5A9F5D1EC35F0A6C5BFF518
:10836A00A7C5C0F5A8C5C1F5A9C5C2F5000E050186
:10837A00C36F000EC46F110EC56F430EC66FFEECBD
:10838A002DF0BFC5E8F6C0C5E9F6C1C5EAF6C2C513
:10839A00EBF6160E03EC3DF0D8C55AF6D9C55BF6D6
:1083AA00DAC55CF6DBC55DF6E8C6C3F5E9C6C4F511
:1083BA00EAC6C5F5EBC6C6F55AC6BFF55BC6C0F533
:1083CA005CC6C1F55DC6C2F5FEEC2DF0BFC5A6F5CB
:1083DA00C0C5A7F5C1C5A8F5C2C5A9F5000E050116
:1083EA00AA6F000EAB6F7A0EAC6F440EAD6FD1EC74
:1083FA0035F0A6C5E4F6A7C5E5F6A8C5E6F6A9C50B
:10840A00E7F654C722F655C723F656C724F657C7C8
:10841A0025F6F0EC63F022C6E0F623C6E1F624C6A0
:10842A00E2F625C6E3F6A60E06011C6F070E1D6FBF
:10843A00E0C61EF6E1C61FF6E2C620F6E3C621F63E
:10844A00E4C622F6E5C623F6E6C624F6E7C625F60E
:10845A0083EC24F01CC6ECF61DC6EDF6ECC665F5F9
:10846A00EDC666F5010E4DEC5DF0010E0601DC6FFE
:10847A004FEF42F00601DB51010AD8B462EF41F036
:10848A00030AD8B474EF41F0010AD8B493EF41F06B
:10849A004FEF42F0120005018B6F000E0501936F3A
:1084AA00000E926F8B5188EC64F0D89005019235DA
:1084BA00D96E9335DA6E730ED926050EDA2263C5A4
:1084CA00DEF464C5DDF4924B932B93BF76EF42F052
:1084DA00935109E10C0E925DD8A076EF42F078EF45
:1084EA0042F057EF42F0000E916F000E906F000EAF
:1084FA00956F000E946F000E976F000E966FEDEF5A
:10850A0042F0D8909635D96E9735DA6E730ED92621
:10851A00050EDA2296C56FF597C570F5D8906F37B4
:10852A007037020E6F27000E7023730E6F25E16EEF
:10853A00050E7021E26EDE50E65CDE50E658D8B0D9
:10854A00A9EF42F0ABEF42F0EBEF42F0D89096354C
:10855A00D96E9735DA6E730ED926050EDA22DEC485
:10856A008CF5DDC48DF596C56DF597C56EF5D89079
:10857A006D376E37020E6D27000E6E23730E6D2552
:10858A00D96E050E6E21DA6ED8909635E16E973562
:10859A00E26E730EE126050EE222DEC4E6F4DDC4C5
:1085AA00E5F496C56DF597C56EF5D8906D376E37BB
:1085BA00020E6D27000E6E23730E6D25D96E050E01
:1085CA006E21DA6E8CC5DEF48DC5DDF4964B972BE1
:1085DA000B0E6D6F000E6E6F94516D5F95516E5B51
:1085EA006D51965D9751800A6F6F6E51800A6F596F
:1085FA00D8A002EF43F004EF43F086EF42F0944B29
:10860A00952B95BF12EF43F0955109E10B0E945D3E
:10861A00D8A012EF43F014EF43F080EF42F0000EBF
:10862A00956F020E946FD8909435D96E9535DA6E9F
:10863A00730ED926050EDA22DE509027DD509123DB
:10864A00944B952B95BF33EF43F0955109E10A0EF0
:10865A00945DD8A033EF43F035EF43F018EF43F0C1
:10866A0090C563F591C564F5000E666F080E656FD7
:10867A00C7EC55F063C58EF564C58FF58EC56BF5ED
:10868A008FC56CF51200050183BF4EEF43F051EF21
:10869A0043F0010E52EF43F0000E8A6F0601BEBF8F
:1086AA0059EF43F05BEF43F05CEF43F0C993BEBF71
:1086BA0063EF43F061EF43F06AEF43F0000E050108
:1086CA00876F010E866F6EEF43F0BDC686F5BEC694
:1086DA0087F5BBC688F5BCC689F505018A51D8B4A9
:1086EA0079EF43F07BEF43F092EF43F08807D8A08D
:1086FA0089078A51D8A484EF43F086EF43F08CEFC0
:10870A0043F0000E856F2B0E846F90EF43F0000E3E
:10871A00856F2D0E846F84C58AF5000E8C6F4F0EFF
:10872A008B6F0901C26BCCEF43F005018B07D8A010
:10873A008C07730E8B25D96E090E8C21DA6E82C5D1
:10874A0063F583C564F5000E666F0A0E656F54EC17
:10875A0058F063C569F564C56AF535EC65F005013D
:10876A006951300FDF6E8607D8A087078807D8A01F
:10877A00890782C563F583C564F5000E666F0A0E24
:10878A00656FC7EC55F063C582F564C583F50501CD
:10879A008CBFD8EF43F08C5108E18B05D8A0D8EFF5
:1087AA0043F0DAEF43F005EF44F082518311D8A485
:1087BA00E1EF43F0E3EF43F09AEF43F087BFF0EFC6
:1087CA0043F0875106E18605D8B0EEEF43F0F0EFAB
:1087DA0043F09AEF43F089BFFBEF43F0895108E178
:1087EA008805D8A0FBEF43F0FDEF43F005EF44F016
:1087FA000601C9B303EF44F005EF44F09AEF43F0E2
:10880A0005018A51D8B40CEF44F00EEF44F019EF89
:10881A0044F08B07D8A08C07730E8B25D96E090EEE
:10882A008C21DA6E8AC5DFF480C577F581C578F5C3
:10883A00730E8B25796F090E8C217A6F88C57BF5AB
:10884A0089C57CF5AEEC59F012000501A06F05014F
:10885A00A051D8B433EF44F035EF44F057EF44F069
:10886A009BBF3CEF44F03AEF44F057EF44F098C511
:10887A009CF599C59DF59AC59EF59BC59FF59C1FCC
:10888A009D1F9E1F9F1F9C2B000E9D239E239F238F
:10889A009CC5A2F59DC5A3F59EC5A4F59FC5A5F5E2
:1088AA005FEF44F098C5A2F599C5A3F59AC5A4F55A
:1088BA009BC5A5F5985199119A119B11D8A468EFF7
:1088CA0044F06AEF44F074EF44F0000E986F000E23
:1088DA00996F000E9A6F000E9B6F05EF45F0960E8A
:1088EA00A16F7EEF44F0A12BD890A533A433A33314
:1088FA00A233000EA2159C6F000EA3159D6F000EE9
:10890A00A4159E6FFE0EA5159F6F9C519D119E1179
:10891A009F11D8A493EF44F095EF44F078EF44F018
:10892A00A3EF44F0A12B010EA227000EA323A42338
:10893A00A523D890A533A433A333A233000EA215DE
:10894A009C6F000EA3159D6F000EA4159E6FFF0E5F
:10895A00A5159F6F9C519D119E119F11D8A4B8EF28
:10896A0044F0BAEF44F097EF44F0C2EF44F0A107A5
:10897A00D890A237A337A437A537A4BFC7EF44F0CE
:10898A00C9EF44F0D1EF44F0020EA161CFEF44F0F9
:10899A00D1EF44F0BCEF44F0A1B1D6EF44F0D8EFE8
:1089AA0044F0D9EF44F0A49FD890A133A1C59CF517
:1089BA009D6B9E6B9F6B9CC59FF59E6B9D6B9C6B85
:1089CA009C51A2139D51A3139E51A4139F51A51309
:1089DA00A051D8B4F3EF44F0F5EF44F0FDEF44F0C2
:1089EA009BBFFCEF44F0FAEF44F0FDEF44F0A58F93
:1089FA00A2C598F5A3C599F5A4C59AF5A5C59BF591
:108A0A001200000E06018A6F000E8B6F000E8C6F2B
:108A1A00000E8D6F21EE79F2100EDE6AE806FDE295
:108A2A00790E0501636F060E646F75C665F576C625
:108A3A0066F5000E686F110E676F4AEC60F006016A
:108A4A00946B9451776F786B070E7727000E782313
:108A5A00790E7725D96E060E7821DA6E8A0E94255C
:108A6A00E16EE26A060EE222DFC4E7F4150E0601A1
:108A7A00776FC60EE82EFED7772FFCD700000601C7
:108A8A00942B030E94654CEF45F04EEF45F026EF1C
:108A9A0045F08A0E0501BF6F060EC06F040EC16F46
:108AAA00540E1BEC66F0D00E0601776FC90EE82E45
:108ABA00FED7772FFCD700D0550E0601796F040E2A
:108ACA000501786F540EC2EC64F078C58EF679C54C
