:0400000081EF00F09C
:10000800CB5BCB5BCB5BCB5B4000CB5B4000CB5B84
:10001800A15BCB5BC55BCB5BCB5BCB5BCB5BCB5BD8
:10002800C65B400040004000CB5BCB5BCB5BCB5B4F
:10003800CB5BCB5BCB5BAE58E557CB5BCB5B9D58C3
:10004800FC5ABB5BCB5BCB5B40004000CB5BCB5B24
:10005800CB5BCB5BCB5B4000CB5BCB5B7B58FA537A
:10006800A35BCB5BCB5BCB5BCB5BCB5BCB5BCB5B80
:10007800DB5AE25AFF546F534000CB5B8C5827542D
:10008800D35A6E5BCB5BCB5BCB5BCB5BCB5BCB5B8E
:10009800CB5BCB5BCB5BCB5B4000CB5B40004000DA
:1000A800A55BCB5BCB5BCB5BCB5BCB5BCB5BCB5B3E
:1000B800CB5BCB5BCB5B2058CB5BCB5BCB5BCB5BB6
:1000C800CB5BCB5BCB5BCB5BCB5BCB5BCB5BCB5BF8
:1000D800CB5BCB5BCB5BCB5BCB5BCB5BCB5BCB5BE8
:1000E8004000CB5BCB5BCB5B400040004000400056
:0E00F800CB5BCB5BCB5BCB5BFF001AEFA1F0C9
:10F744000000C0C101C30302C2C60607C705C5C481
:10F7540004CC0C0DCD0FCFCE0E0ACACB0BC90908B1
:10F76400C8D81819D91BDBDA1A1EDEDF1FDD1D1CF1
:10F77400DC14D4D515D71716D6D21213D311D1D081
:10F7840010F03031F133F3F23236F6F737F5353421
:10F79400F43CFCFD3DFF3F3EFEFA3A3BFB39F9F8F1
:10F7A4003828E8E929EB2B2AEAEE2E2FEF2DEDEC91
:10F7B4002CE42425E527E7E62622E2E323E12120C1
:10F7C400E0A06061A163A3A26266A6A767A56564C1
:10F7D400A46CACAD6DAF6F6EAEAA6A6BAB69A9A831
:10F7E4006878B8B979BB7B7ABABE7E7FBF7DBDBC71
:10F7F4007CB47475B577B7B67672B2B373B1717001
:10F80400B050909151935352929656579755959460
:10F81400549C5C5D9D5F9F9E5E5A9A9B5B99595870
:10F8240098884849894B8B8A4A4E8E8F4F8D4D4C10
:10F834008C44848545874746868242438341818040
:10F844004000C1814001C0804101C0804100C181AC
:10F854004001C0804100C1814000C1814001C0809D
:10F864004101C0804100C1814000C1814001C0808C
:10F874004100C1814001C0804101C0804100C1817B
:10F884004001C0804100C1814000C1814001C0806D
:10F894004100C1814001C0804101C0804100C1815B
:10F8A4004000C1814001C0804101C0804100C1814C
:10F8B4004001C0804100C1814000C1814001C0803D
:10F8C4004101C0804100C1814000C1814001C0802C
:10F8D4004100C1814001C0804101C0804100C1811B
:10F8E4004000C1814001C0804101C0804100C1810C
:10F8F4004001C0804100C1814000C1814001C080FD
:10F904004100C1814001C0804101C0804100C181EA
:10F914004001C0804100C1814000C1814001C080DC
:10F924004101C0804100C1814000C1814001C080CB
:10F934004100C1814001C0804101C0804100C181BA
:10F944004000C0C101C30302C2C60607C705C5C43F
:10F9540004CC0C0DCD0FCFCE0E0ACACB0BC90908AF
:10F96400C8D81819D91BDBDA1A1EDEDF1FDD1D1CEF
:10F97400DC14D4D515D71716D6D21213D311D1D07F
:10F9840010F03031F133F3F23236F6F737F535341F
:10F99400F43CFCFD3DFF3F3EFEFA3A3BFB39F9F8EF
:10F9A4003828E8E929EB2B2AEAEE2E2FEF2DEDEC8F
:10F9B4002CE42425E527E7E62622E2E323E12120BF
:10F9C400E0A06061A163A3A26266A6A767A56564BF
:10F9D400A46CACAD6DAF6F6EAEAA6A6BAB69A9A82F
:10F9E4006878B8B979BB7B7ABABE7E7FBF7DBDBC6F
:10F9F4007CB47475B577B7B67672B2B373B17170FF
:10FA0400B05090915193535292965657975595945E
:10FA1400549C5C5D9D5F9F9E5E5A9A9B5B9959586E
:10FA240098884849894B8B8A4A4E8E8F4F8D4D4C0E
:10FA34008C4484854587474686824243834181803E
:10FA44004000C1814001C0804101C0804100C181AA
:10FA54004001C0804100C1814000C1814001C0809B
:10FA64004101C0804100C1814000C1814001C0808A
:10FA74004100C1814001C0804101C0804100C18179
:10FA84004001C0804100C1814000C1814001C0806B
:10FA94004100C1814001C0804101C0804100C18159
:10FAA4004000C1814001C0804101C0804100C1814A
:10FAB4004001C0804100C1814000C1814001C0803B
:10FAC4004101C0804100C1814000C1814001C0802A
:10FAD4004100C1814001C0804101C0804100C18119
:10FAE4004000C1814001C0804101C0804100C1810A
:10FAF4004001C0804100C1814000C1814001C080FB
:10FB04004100C1814001C0804101C0804100C181E8
:10FB14004001C0804100C1814000C1814001C080DA
:10FB24004101C0804100C1814000C1814001C080C9
:10FB34004100C1814001C0804101C0804100C181B8
:10FB44004000C0C101C30302C2C60607C705C5C43D
:10FB540004CC0C0DCD0FCFCE0E0ACACB0BC90908AD
:10FB6400C8D81819D91BDBDA1A1EDEDF1FDD1D1CED
:10FB7400DC14D4D515D71716D6D21213D311D1D07D
:10FB840010F03031F133F3F23236F6F737F535341D
:10FB9400F43CFCFD3DFF3F3EFEFA3A3BFB39F9F8ED
:10FBA4003828E8E929EB2B2AEAEE2E2FEF2DEDEC8D
:10FBB4002CE42425E527E7E62622E2E323E12120BD
:10FBC400E0A06061A163A3A26266A6A767A56564BD
:10FBD400A46CACAD6DAF6F6EAEAA6A6BAB69A9A82D
:10FBE4006878B8B979BB7B7ABABE7E7FBF7DBDBC6D
:10FBF4007CB47475B577B7B67672B2B373B17170FD
:10FC0400B05090915193535292965657975595945C
:10FC1400549C5C5D9D5F9F9E5E5A9A9B5B9959586C
:10FC240098884849894B8B8A4A4E8E8F4F8D4D4C0C
:10FC34008C4484854587474686824243834181803C
:10FC44004000C1814001C0804101C0804100C181A8
:10FC54004001C0804100C1814000C1814001C08099
:10FC64004101C0804100C1814000C1814001C08088
:10FC74004100C1814001C0804101C0804100C18177
:10FC84004001C0804100C1814000C1814001C08069
:10FC94004100C1814001C0804101C0804100C18157
:10FCA4004000C1814001C0804101C0804100C18148
:10FCB4004001C0804100C1814000C1814001C08039
:10FCC4004101C0804100C1814000C1814001C08028
:10FCD4004100C1814001C0804101C0804100C18117
:10FCE4004000C1814001C0804101C0804100C18108
:10FCF4004001C0804100C1814000C1814001C080F9
:10FD04004100C1814001C0804101C0804100C181E6
:10FD14004001C0804100C1814000C1814001C080D8
:10FD24004101C0804100C1814000C1814001C080C7
:10FD34004100C1814001C0804101C0804100C181B6
:10FD44004000C0C101C30302C2C60607C705C5C43B
:10FD540004CC0C0DCD0FCFCE0E0ACACB0BC90908AB
:10FD6400C8D81819D91BDBDA1A1EDEDF1FDD1D1CEB
:10FD7400DC14D4D515D71716D6D21213D311D1D07B
:10FD840010F03031F133F3F23236F6F737F535341B
:10FD9400F43CFCFD3DFF3F3EFEFA3A3BFB39F9F8EB
:10FDA4003828E8E929EB2B2AEAEE2E2FEF2DEDEC8B
:10FDB4002CE42425E527E7E62622E2E323E12120BB
:10FDC400E0A06061A163A3A26266A6A767A56564BB
:10FDD400A46CACAD6DAF6F6EAEAA6A6BAB69A9A82B
:10FDE4006878B8B979BB7B7ABABE7E7FBF7DBDBC6B
:10FDF4007CB47475B577B7B67672B2B373B17170FB
:10FE0400B05090915193535292965657975595945A
:10FE1400549C5C5D9D5F9F9E5E5A9A9B5B9959586A
:10FE240098884849894B8B8A4A4E8E8F4F8D4D4C0A
:10FE34008C4484854587474686824243834181803A
:10FE44004000C1814001C0804101C0804100C181A6
:10FE54004001C0804100C1814000C1814001C08097
:10FE64004101C0804100C1814000C1814001C08086
:10FE74004100C1814001C0804101C0804100C18175
:10FE84004001C0804100C1814000C1814001C08067
:10FE94004100C1814001C0804101C0804100C18155
:10FEA4004000C1814001C0804101C0804100C18146
:10FEB4004001C0804100C1814000C1814001C08037
:10FEC4004101C0804100C1814000C1814001C08026
:10FED4004100C1814001C0804101C0804100C18115
:10FEE4004000C1814001C0804101C0804100C18106
:10FEF4004001C0804100C1814000C1814001C080F7
:10FF04004100C1814001C0804101C0804100C181E4
:10FF14004001C0804100C1814000C1814001C080D6
:10FF24004101C0804100C1814000C1814001C080C5
:10FF34004100C1814001C0804101C0804100C181B4
:10FF44004096540100000000000000000000000082
:10FF5400000000000000000000000000000000009D
:10FF6400000000000000000000000000000000008D
:10FF740000000000000000000000000000586A01BA
:10FF8400346A01106A01000000585301000000FAAD
:10FF94006301E45F01000000D86B01000000000071
:10FFA400000000000000000000000000000000004D
:10FFB400000000000000000000000000000000E855
:10FFC4006A01000000C46A01A06A017C6A010000A1
:10FFD40000365C01000000EA5C01425D01000000A3
:10FFE400000000000000DE67010000000000005671
:0CFFF400696E3A25647C200A0D20000094
:020000040001F9
:10000000C6C67BF5C7C67CF5C8C67DF5C9C67EF5F4
:10001000CAC67FF5CBC680F5CCC681F5CDC682F5C4
:100020008BECB0F07BC5EAF67CC5EBF67DC5ECF653
:100030007EC5EDF6060120EE01F0C451D926C5516A
:10004000DA22DEC4BCF6DEC4BDF6DEC4BEF6DEC413
:10005000BFF6EAC6C0F6EBC6C1F6ECC6C2F6EDC600
:10006000C3F62CEC85F0BCC6CEF6BDC6CFF6BEC638
:10007000D0F6BFC6D1F6EAC66BF5EBC66CF5ECC69A
:100080006DF5EDC66EF558ECB3F06BC5AEF56CC50D
:10009000AFF56DC5B0F56EC5B1F5000E0501B26FD7
:1000A000000EB36F480EB46F420EB56F9DECA1F019
:1000B0000501D8B05EEF80F060EF80F003EF81F0D3
:1000C000060120EE1DF0C451D926C551DA22DEC446
:1000D0006BF5DEC46CF5DEC46DF5DEC46EF5EAC604
:1000E0006FF5EBC670F5ECC671F5EDC672F5D0ECA8
:1000F00082F0060120EE1DF0C451D926C551DA2246
:1001000005016BC5DEF46CC5DEF46DC5DEF46EC5AD
:10011000DEF4060120EE0DF0C451D926C551DA22D5
:10012000DEC4AEF5DEC4AFF5DEC4B0F5DEC4B1F5B5
:1001300020EE1DF0C451D926C551DA22DEC4B2F535
:10014000DEC4B3F5DEC4B4F5DEC4B5F59DECA1F0B4
:100150000501D8B0AEEF80F0B0EF80F0C5EF80F0D1
:10016000060120EE0DF0C451D926C551DA2210EE59
:100170001DF0C451E126C551E222DEC4E6F4DEC41E
:10018000E6F4DEC4E6F4DEC4E6F4060120EE1DF07B
:10019000C451D926C551DA22DEC4AEF5DEC4AFF5AE
:1001A000DEC4B0F5DEC4B1F520EE11F0C451D9269D
:1001B000C551DA22DEC4B2F5DEC4B3F5DEC4B4F54F
:1001C000DEC4B5F59DECA1F00501D8B0EAEF80F0F2
:1001D000ECEF80F012EF81F0060120EE11F0C45137
:1001E000D926C551DA2210EE1DF0C451E126C551C1
:1001F000E222DEC4E6F4DEC4E6F4DEC4E6F4DEC4E5
:10020000E6F412EF81F0060120EE1DF0C451D9266C
:10021000C551DA22000EDE6E000EDE6E000EDE6EBE
:10022000000EDD6E060120EE05F0C451D926C55141
:10023000DA22DEC4BCF6DEC4BDF6DEC4BEF6DEC421
:10024000BFF620EE1DF0C451D926C551DA22DEC416
:10025000C0F6DEC4C1F6DEC4C2F6DEC4C3F62CECC2
:1002600085F0BCC6D2F6BDC6D3F6BEC6D4F6BFC6B0
:10027000D5F6060120EE21F0C451D926C551DA2267
:10028000DEC47FF5DEC480F5DEC481F5DEC482F510
:10029000EAC67BF5EBC67CF5ECC67DF5EDC67EF5D2
:1002A0008BECB0F07BC5BCF67CC5BDF67DC5BEF65B
:1002B0007EC5BFF6060120EE09F0C451D926C5510E
:1002C000DA22DEC4C0F6DEC4C1F6DEC4C2F6DEC485
:1002D000C3F62CEC85F0BCC6D6F6BDC6D7F6BEC6B6
:1002E000D8F6BFC6D9F6060120EE21F0C451D926B2
:1002F000C551DA22EAC6DEF4EBC6DEF4ECC6DEF463
:10030000EDC6DEF4D2C66FF5D3C670F5D4C671F56E
:10031000D5C672F5CEC66BF5CFC66CF5D0C66DF5F9
:10032000D1C66EF5D0EC82F06BC5DAF66CC5DBF6A3
:100330006DC5DCF66EC5DDF6DAC66BF5DBC66CF5B1
:10034000DCC66DF5DDC66EF5D6C66FF5D7C670F5A1
:10035000D8C671F5D9C672F5D0EC82F06BC5E6F659
:100360006CC5E7F66DC5E8F66EC5E9F6C4C6D9F406
:10037000C5C6DAF4DE04D8A4C0EF81F0C2EF81F084
:1003800043EF82F00601E9BFCAEF81F0C8EF81F0C8
:10039000D4EF81F0000EDE6F000EDF6F000EE06F15
:1003A000BF0EE16FDCEF81F0000EDE6F000EDF6F3D
:1003B000000EE06F3F0EE16FE6C66FF5E7C670F521
:1003C000E8C671F5E9C672F5DEC66BF5DFC66CF5F9
:1003D000E0C66DF5E1C66EF5D0EC82F06BC5BCF6FB
:1003E0006CC5BDF66DC5BEF66EC5BFF68DECA0F052
:1003F0000601BC518727BD518823000E0501BE6F41
:10040000000EBF6F480EC06F450EC16F87C6A0F5C6
:1004100088C6A1F5000EA1BFFF0EA26FA36F010E4B
:1004200098EC96F0A0C5BAF5A1C5BBF5A2C5BCF580
:10043000A3C5BDF5B5EC9DF0BAC5C8F5BBC5C9F5FA
:10044000BCC5CAF5BDC5CBF5000E0501C46F000ED5
:10045000C56F000EC66F000EC76F49EC9EF0C4C595
:10046000BCF6C5C5BDF6C6C5BEF6C7C5BFF68DECA4
:10047000A0F0BCC687F6BDC688F687C6C4F688C697
:10048000C5F6CFEF82F0C4C6D9F4C5C6DAF4020EC1
:10049000DE18D8A44EEF82F050EF82F0CFEF82F05A
:1004A0000601E9BF58EF82F056EF82F062EF82F06A
:1004B000000EE26F000EE36F000EE46FBF0EE56FFB
:1004C0006AEF82F0000EE26F000EE36F000EE46F41
:1004D0003F0EE56FE6C66FF5E7C670F5E8C671F545
:1004E000E9C672F5E2C66BF5E3C66CF5E4C66DF5D8
:1004F000E5C66EF5D0EC82F06BC5BCF66CC5BDF6FA
:100500006DC5BEF66EC5BFF68DECA0F00601BC5100
:100510008527BD518623000E0501BE6F000EBF6FFB
:10052000480EC06F450EC16F85C6A0F586C6A1F501
:10053000000EA1BFFF0EA26FA36F010E98EC96F004
:10054000A0C5BAF5A1C5BBF5A2C5BCF5A3C5BDF54F
:10055000B5EC9DF0BAC5C8F5BBC5C9F5BCC5CAF5B3
:10056000BDC5CBF5000E0501C46F000EC56F000EB2
:10057000C66F000EC76F49EC9EF0C4C5BCF6C5C57A
:10058000BDF6C6C5BEF6C7C5BFF68DECA0F0BCC6AD
:1005900085F6BDC686F685C6C4F686C6C5F61200C3
:1005A00005016E51800B776F6E516E25796F6DAFBF
:1005B000DCEF82F0DEEF82F0DFEF82F079817951BB
:1005C000D8B4E5EF82F0E7EF82F0FBEF82F0792913
:1005D000D8A4EDEF82F0EFEF82F0F7EF82F0000E9B
:1005E0006B6F000E6C6F000E6D6F000E6E6F6D8F77
:1005F0006E6B03EF83F0000E6B6F000E6C6F000EDE
:100600006D6F000E6E6F7251800B786F7751781995
:10061000D8B40DEF83F00FEF83F010EF83F0778DF8
:1006200072517225786F71AF18EF83F01AEF83F073
:100630001BEF83F078817851D8B421EF83F023EF5A
:1006400083F037EF83F07829D8A429EF83F02BEFDC
:1006500083F033EF83F0000E6F6F000E706F000EAB
:10066000716F000E726F718F726B3FEF83F0000E2F
:100670006F6F000E706F000E716F000E726F795108
:10068000785DD8B046EF83F048EF83F06FEF83F0EA
:1006900077AD4DEF83F04FEF83F051EF83F0800E95
:1006A000771B79C57AF578C579F57AC578F56BC584
:1006B0007AF56FC56BF57AC56FF56CC57AF570C5BF
:1006C0006CF57AC570F56DC57AF571C56DF57AC5AD
:1006D00071F56EC57AF572C56EF57AC572F57A6BED
:1006E000795178C573F5746B735F000E745B74BFDA
:1006F00083EF83F0745109E11A0E735DD8A083EF84
:1007000083F085EF83F0BCEF83F06B516C116D11BA
:100710006E11D8A48EEF83F091EF83F0010E92EF6B
:1007200083F0000E7A6F000E6B6F000E6C6F000E80
:100730006D6F000E6E6F78C579F5C5EF83F07AA105
:10074000A4EF83F0A6EF83F0ACEF83F0D8907A317A
:1007500001097A6FAEEF83F0D8907A336BA1B3EFD3
:1007600083F0B5EF83F0B6EF83F07A8F6E356E339A
:100770006D336C336B33792B7851795DD8A0C3EF2F
:1007800083F0C5EF83F09FEF83F077BDCAEF83F06E
:10079000CCEF83F00CEF84F07951D8A4D2EF83F042
:1007A000D4EF83F0DEEF83F0000E6B6F000E6C6F02
:1007B000000E6D6F000E6E6F2BEF85F06F516B2783
:1007C00070516C2371516D2372516E236EA1EBEF4A
:1007D00083F0EDEF83F099EF84F07AA1F2EF83F0EC
:1007E000F4EF83F0FAEF83F0D8907A3101097A6F51
:1007F000FCEF83F0D8907A336BA101EF84F003EF24
:1008000084F004EF84F07A8F6E356E336D336C3381
:100810006B33792B99EF84F06F516B5D70516C598C
:1008200071516D596E51800A736F7251800A7359FC
:10083000D8B01DEF84F01FEF84F04AEF84F06B51C5
:100840006F5D736F6C517059746F6D517159756F25
:100850006E517259766FFF0E73256B6FFF0E742108
:100860006C6FFF0E75216D6FFF0E76216E6F800E1F
:10087000771B7A6D7A51D8A440EF84F042EF84F070
:1008800052EF84F0010E6B27000E6C236D236E2354
:1008900052EF84F06F516B5F70516C5B71516D5B07
:1008A00072516E5B6B516C116D116E11D8A45BEFC0
:1008B00084F05DEF84F092EF84F07A51D8A463EF76
:1008C00084F065EF84F092EF84F0000E6B6F000E01
:1008D0006C6F000E6D6F000E6E6F2BEF85F0D89071
:1008E0006B376C376D376E377AAF79EF84F07BEF0B
:1008F00084F07CEF84F06B817AA181EF84F083EF48
:1009000084F087EF84F0D8807A3789EF84F0D8902C
:100910007A377951D8B48FEF84F091EF84F092EF69
:1009200084F079076DAF97EF84F099EF84F06FEF63
:1009300084F0786B7AAF9FEF84F0A1EF84F0B9EF89
:1009400084F07AC573F57F0E7317D8B4AAEF84F0DC
:10095000ACEF84F0B0EF84F0010E786FB9EF84F063
:100960006BA1B5EF84F0B7EF84F0B9EF84F0ACEF92
:1009700084F07851D8B4BFEF84F0C1EF84F0ECEF8D
:1009800084F0010E6B27000E6C236D236E236EA185
:10099000CCEF84F0CEEF84F0ECEF84F06BC573F510
:1009A0006CC574F56DC575F56EC576F5763576331F
:1009B00075337433733373C56BF574C56CF575C5D6
:1009C0006DF576C56EF57929D8B4E9EF84F0EBEFD3
:1009D00084F0ECEF84F0792B7929D8B4F2EF84F02D
:1009E000F4EF84F0FCEF84F07951D8A4FAEF84F0AE
:1009F000FCEF84F00DEF85F0000E6B6F000E6C6F56
:100A0000000E6D6F000E6E6F7951D8A40AEF85F05D
:100A10000CEF85F00DEF85F0776B79A112EF85F083
:100A200014EF85F017EF85F06D8F18EF85F06D9F4F
:100A3000D89079316E6F77AF20EF85F022EF85F097
:100A400023EF85F06E8F6BC56BF56CC56CF56DC5CE
:100A50006DF56EC56EF512000601BF51800B0501E4
:100A6000CB6F0601BF51BF250501D16F0601BEAF97
:100A70003CEF85F03EEF85F040EF85F00501D18138
:100A80000501D151D8B447EF85F049EF85F05EEF0D
:100A900085F0D129D8A44FEF85F051EF85F05AEFBA
:100AA00085F0000E0601BC6F000EBD6F000EBE6F1C
:100AB000000EBF6F0601BE8F67EF85F0000E0601C6
:100AC000BC6F000EBD6F000EBE6F000EBF6FC35136
:100AD000800B0501CB1B0601C351C3250501CC6F5B
:100AE0000601C2AF76EF85F078EF85F07AEF85F0FA
:100AF0000501CC810501CC51D8B481EF85F083EF9D
:100B000085F098EF85F0CC29D8A489EF85F08BEF9C
:100B100085F094EF85F0000E0601C06F000EC16FE6
:100B2000000EC26F000EC36F0601C28FA1EF85F0E9
:100B3000000E0601C06F000EC16F000EC26F000EE6
:100B4000C36F0501CC51D8B4A8EF85F0AAEF85F0AA
:100B5000B2EF85F0D151D8A4B0EF85F0B2EF85F0B7
:100B6000BDEF85F0000E0601BC6F000EBD6F000EDC
:100B7000BE6F000EBF6F65EF87F00601C251BC0368
:100B8000F3C4D6F5F4C4D7F50501D651CD6FCE6BBD
:100B9000CF6BD06BD751D26FD36BD46BD56B0601B3
:100BA000C151BD03F3C4D6F5F4C4D7F50501D65140
:100BB000CD27000ECE23CF23D023D751D227000E2E
:100BC000D323D423D5230601C051BE03F3C4D6F5E5
:100BD000F4C4D7F50501D651CD27000ECE23CF237F
:100BE000D023D751D227000ED323D423D523CFC56A
:100BF000D0F5CEC5CFF5CDC5CEF5CD6B0601C05134
:100C0000BD03F3C4D6F5F4C4D7F50501D651CD27FD
:100C1000D751CE23000ECF23000ED0230601C151A1
:100C2000BC03F3C4D6F5F4C4D7F50501D651CD27DE
:100C3000D751CE23000ECF23000ED023CFC5D0F541
:100C4000CEC5CFF5CDC5CEF5CD6B0601C051BC03E9
:100C5000F3C4D6F5F4C4D7F50501D651CD27D75145
:100C6000CE23000ECF23000ED0230601C251BD03B8
:100C7000F3C4D6F5F4C4D7F50501D651D227D75120
:100C8000D323000ED423000ED5230601C151BE0389
:100C9000F3C4D6F5F4C4D7F50501D651D227D75100
:100CA000D323000ED423000ED5230601C251BE0368
:100CB000F3C4D6F5F4C4D7F50501D651C76FD751A3
:100CC000C86FC96BCA6BC9C5CAF5C8C5C9F5C7C560
:100CD000C8F5C76BC751D227C851D323C951D423F4
:100CE000CA51D523CDC5C7F5CEC5C8F5CFC5C9F501
:100CF000D0C5CAF5190E82EF86F0D890CA33C93331
:100D0000C833C733E82E7DEF86F0C751D227C851CC
:100D1000D323C951D423CA51D523CFC5D0F5CEC5CD
:100D2000CFF5CDC5CEF5CD6BCC51D1C5C7F5C86BD0
:100D3000C727000EC823820EC725D66FFF0EC82115
:100D4000D76FB8EF86F0D890D237D337D437D537AE
:100D5000D0AFADEF86F0AFEF86F0B0EF86F0D28186
:100D6000D890CD37CE37CF37D037D607D8A0D707D2
:100D7000D4AFBDEF86F0BFEF86F0A3EF86F0CC6B6B
:100D8000D0AFC5EF86F0C7EF86F0EBEF86F0FF0E31
:100D9000CD15C76FFF0ECE15C86FFF0ECF15C96FEB
:100DA0007F0ED015CA6FC751C811C911CA11D8B466
:100DB000DCEF86F0DEEF86F0E2EF86F0010ECC6F1E
:100DC000EBEF86F0D2A1E7EF86F0E9EF86F0EBEFEC
:100DD00086F0DEEF86F0CC51D8B4F1EF86F0F3EF79
:100DE00086F017EF87F0010ED227000ED323D4230D
:100DF000D523D5A1FEEF86F000EF87F017EF87F03F
:100E0000D2C5C7F5D3C5C8F5D4C5C9F5D5C5CAF58A
:100E1000CA35CA33C933C833C733C7C5D2F5C8C505
:100E2000D3F5C9C5D4F5CAC5D5F5D64BD72BD7BF91
:100E300022EF87F0D75108E1D629D8A022EF87F01A
:100E400024EF87F02EEF87F0000ED26F000ED36FE5
:100E5000800ED46F7F0ED56F5BEF87F0D7BF3BEF6F
:100E600087F0D75106E1D605D8B039EF87F03BEFD0
:100E700087F046EF87F0000ED26F000ED36F000EA2
:100E8000D46F000ED56FCB6B5BEF87F0D6C5D1F575
:100E9000FF0ED217FF0ED3177F0ED417000ED517F3
:100EA000D1A155EF87F057EF87F058EF87F0D48F37
:100EB000D890D131D56FCB51D513D2C5BCF6D3C59F
:100EC000BDF6D4C5BEF6D5C5BFF612000501FE516C
:100ED000D8B46DEF87F06FEF87F074EF87F0010EF5
:100EE0000601066F76EF87F00601066B1C511D1197
:100EF000D8B47DEF87F07FEF87F054EF89F00FC60D
:100F00006BF510C66CF5270E05016E6F100E6D6F38
:100F1000DFECABF06BC516F66CC517F6030E0501DA
:100F20006E6FE80E6D6F0FC66BF510C66CF5DFECDB
:100F3000ABF06BC572F56CC573F5000E0501756FEE
:100F40000A0E746F2AECADF00A0E05017203F3C4A9
:100F500078F5F4C479F57303F3507927000E6E6FBA
:100F6000640E6D6F0FC66BF510C66CF5DFECABF061
:100F70006BC572F56CC573F5000E0501756F0A0E31
:100F8000746F2AECADF00501725178250601186FD7
:100F90000501735179210601196F000E05016E6F6D
:100FA0000A0E6D6F0FC66BF510C66CF5DFECABF07B
:100FB0006BC572F56CC573F5000E0501756F0A0EF1
:100FC000746F2AECADF00A0E05017203F3C478F5D4
:100FD000F4C479F57303F35079270FC672F510C680
:100FE00073F5000E756F0A0E746F2AECADF00501F3
:100FF0007251782506011A6F050173517921060196
:101000001B6F165123ECAFF0050173510701D26F2E
:101010000601185123ECAFF0050173510701D36F9E
:1010200006011A5123ECAFF0050173510701D46F8B
:1010300000C66BF501C66CF5270E05016E6F100E2C
:101040006D6FDFECABF06BC507F66CC508F6030EF1
:1010500005016E6FE80E6D6F00C66BF501C66CF58D
:10106000DFECABF06BC572F56CC573F5000E0501D6
:10107000756F0A0E746F2AECADF00A0E050172034B
:10108000F3C478F5F4C479F57303F3507927000EAF
:101090006E6F640E6D6F00C66BF501C66CF5DFEC0C
:1010A000ABF06BC572F56CC573F5000E0501756F7D
:1010B0000A0E746F2AECADF0050172517825060115
:1010C000096F05017351792106010A6F000E0501B0
:1010D0006E6F0A0E6D6F00C66BF501C66CF5DFEC26
:1010E000ABF06BC572F56CC573F5000E0501756F3D
:1010F0000A0E746F2AECADF00A0E05017203F3C4F8
:1011000078F5F4C479F57303F350792700C672F5C6
:1011100001C673F5000E756F0A0E746F2AECADF000
:1011200005017251782506010B6F05017351792174
:1011300006010C6F075123ECAFF005017351070155
:10114000D66F0601095123ECAFF005017351070179
:10115000D76F06010B5123ECAFF005017351070166
:10116000D86F000E0501736F000E746F000E756F5F
:1011700016C676F51AECACF0000000000000000086
:10118000000000000000000000000000010E05014A
:10119000736F000E746F000E756F18C676F51AEC3B
:1011A000ACF00000000000000000000000000000A3
:1011B000000000000000020E0501736F000E746F46
:1011C000000E756F1AC676F51AECACF00000000040
:1011D000000000000000000000000000000000000F
:1011E000040E0501736F000E746F000E756F07C655
:1011F00076F51AECACF000000000000000000000E2
:1012000000000000000000000000050E0501736FE3
:10121000000E746F000E756F09C676F51AECACF00F
:1012200000000000000000000000000000000000BE
:1012300000000000060E0501736F000E746F000EB3
:10124000756F0BC676F51AECACF0000000000000DC
:101250000000000000000000000000000000D00EB0
:101260000501786FC90EE82EFED7782FFCD700D085
:10127000000E05016D6F530E6C6FCF0E6E6F070E73
:101280006F6F000E716F0A0E706F75ECAEF0000993
:10129000D8B44DEF89F04FEF89F038EF89F0000EA8
:1012A00006011D6F000E1C6F12000501B151800B6D
:1012B000BE6FB151B125C56FB0AF61EF89F063EF7B
:1012C00089F064EF89F0C581C551D8B46AEF89F01F
:1012D0006CEF89F080EF89F0C529D8A472EF89F00E
:1012E00074EF89F07CEF89F0000EAE6F000EAF6FE7
:1012F000000EB06F000EB16FB08FB16B88EF89F048
:10130000000EAE6F000EAF6F000EB06F000EB16F2B
:10131000B551800BBE1BB551B525C66FB4AF93EF69
:1013200089F095EF89F096EF89F0C681C651D8B45F
:101330009CEF89F09EEF89F0B2EF89F0C629D8A41E
:10134000A4EF89F0A6EF89F0AEEF89F0000EB26F3E
:10135000000EB36F000EB46F000EB56FB48FB56B97
:10136000BAEF89F0000EB26F000EB36F000EB46FCB
:10137000000EB56FB251B311B411B511D8A4C3EFBB
:1013800089F0C5EF89F0DDEF89F0000EAE6F000E39
:10139000AF6F000EB06F000EB16F800EB0137F0EF6
:1013A000B113BE51B113AEC5AEF5AFC5AFF5B0C503
:1013B000B0F5B1C5B1F51DEF8BF0C551D8A4E3EF81
:1013C00089F0E5EF89F0EFEF89F0000EAE6F000EC7
:1013D000AF6F000EB06F000EB16F1DEF8BF0C651F6
:1013E000C5C5B6F5B76BB65F000EB75B7F0EB62509
:1013F000BF6F000EB721C06FAEC5BAF5AFC5BBF564
:10140000B0C5BCF5B1C5BDF5000EAE6F000EAF6F37
:10141000000EB06F000EB16F000EC16F000EC26FF4
:10142000000EC36F000EC46FC66B4FEF8AF0C6513B
:10143000D8B41DEF8AF01FEF8AF036EF8AF0D8900B
:10144000BA37BB37BC37BD37D890AE37AF37B037B8
:10145000B137C4AF2EEF8AF030EF8AF031EF8AF067
:10146000AE81D890C137C237C337C437B251BA5DE5
:10147000B351BB59B451BC59B551BD59D8A043EF74
:101480008AF045EF8AF04EEF8AF0C48DB251BA5F10
:10149000B351BB5BB451BC5BB551BD5BC62B190EE0
:1014A000C66555EF8AF057EF8AF017EF8AF0BA5108
:1014B000BB11BC11BD11D8B460EF8AF062EF8AF0A5
:1014C0007AEF8AF0C1817AEF8AF0D890AE37AF37E1
:1014D000B037B137C4AF6FEF8AF071EF8AF072EFB7
:1014E0008AF0AE81D890C137C237C337C437BF073F
:1014F000D8A0C007B0AF7FEF8AF081EF8AF065EF28
:101500008AF0C66BC4AF87EF8AF089EF8AF0ADEF3F
:101510008AF0FF0EC115B66FFF0EC215B76FFF0E32
:10152000C315B86F7F0EC415B96FB651B711B81196
:10153000B911D8B49EEF8AF0A0EF8AF0A4EF8AF038
:10154000010EC66FADEF8AF0AEA1A9EF8AF0ABEF46
:101550008AF0ADEF8AF0A0EF8AF0C651D8B4B3EFAD
:101560008AF0B5EF8AF0D9EF8AF0010EAE27000EAF
:10157000AF23B023B123B1A1C0EF8AF0C2EF8AF04C
:10158000D9EF8AF0AEC5B6F5AFC5B7F5B0C5B8F5B9
:10159000B1C5B9F5B935B933B833B733B633B6C514
:1015A000AEF5B7C5AFF5B8C5B0F5B9C5B1F5BF4B28
:1015B000C02BC0BFE4EF8AF0C05108E1BF29D8A01A
:1015C000E4EF8AF0E6EF8AF0F1EF8AF0000EC06FE8
:1015D000BF69000EAE6F000EAF6F000EB06F000E51
:1015E000B16FC0BFFEEF8AF0C05106E1BF05D8B0B1
:1015F000FCEF8AF0FEEF8AF00BEF8BF0000EC06F6D
:10160000000EBF6F000EAE6F000EAF6F000EB06F1A
:10161000000EB16FBE6BBFC5C5F5C5A112EF8BF053
:1016200014EF8BF017EF8BF0B08F18EF8BF0B09FAB
:10163000D890C531B16FD1EF89F0120042C76FF574
:1016400043C770F544C771F545C772F597ECAAF02A
:101650006FC5A2F570C5A3F571C5A4F572C5A5F552
:101660003EC76FF53FC770F540C771F541C772F5CA
:1016700097ECAAF06FC5A6F570C5A7F571C5A8F5DA
:1016800072C5A9F50D0EB1EC94F073C5AAF574C539
:10169000ABF55C50D8B44FEF8BF051EF8BF068EFA7
:1016A0008BF084ECB6F06BC53EF76CC53FF76DC5AB
:1016B00040F76EC541F784ECB6F06BC542F76CC5D8
:1016C00043F76DC544F76EC545F7010E536E5C6A6E
:1016D0000501F951D8A46FEF8BF071EF8BF08BEF10
:1016E0008CF0A951A8110BE1880EA65D130EA75925
:1016F000D8A07DEF8BF07FEF8BF08BEF8CF0010E9D
:10170000F96F8BEF8CF05350D8A489EF8BF08BEFEF
:101710008BF09EEF8BF0A551A4110BE1B80EA25DEA
:101720000B0EA359D8A097EF8BF099EF8BF0A4EF95
:101730008CF0FE6B010E536EA4EF8CF0F951D8A41F
:10174000A4EF8BF0A6EF8BF0BEEF8BF0730EAA5DCB
:10175000060EAB59D8A0AFEF8BF0B1EF8BF0BEEF18
:101760008BF0010E546E84ECB6F06BC542F76CC57D
:1017700043F76DC544F76EC545F7536A0501F90592
:10178000D8A4C5EF8BF0C7EF8BF0A4EF8CF0350E2B
:10179000AA5D080EAB59D8A0D0EF8BF0D2EF8BF03A
:1017A000A4EF8CF0010E546E84ECB6F06BC542F7DA
:1017B0006CC543F76DC544F76EC545F7536AA4EF92
:1017C0008CF0FA05D8A4E7EF8BF0E9EF8BF0EEEFA1
:1017D0008BF0FD51020DF3C4FDF5FA6B010EFE6FA7
:1017E000F905D8A4F6EF8BF0F8EF8BF02AEF8CF028
:1017F000A40EAA5D060EAB59D8B001EF8CF003EF32
:101800008CF006EF8CF0546AD4EF8BF0D70EAA5D03
:10181000060EAB59D8A00FEF8CF011EF8CF0A4EFAF
:101820008CF03A0EAA5D070EAB59D8B01AEF8CF0C7
:101830001CEF8CF0A4EF8CF0020E546E84ECB6F02A
:101840006BC542F76CC543F76DC544F76EC545F7E8
:10185000A4EF8CF0F951D8A430EF8CF032EF8CF07B
:10186000A4EF8CF0A40EAA5D060EAB59D8B03BEFE6
:101870008CF03DEF8CF041EF8CF0010EF96F03EF2F
:101880008CF0D70EAA5D060EAB59D8A04AEF8CF0AB
:101890004CEF8CF0A4EF8CF03A0EAA5D070EAB591A
:1018A000D8B055EF8CF057EF8CF0A4EF8CF01CEF14
:1018B0008CF0FA51D8A45FEF8CF061EF8CF06FEFF1
:1018C0008CF0010EFA6FFDC56BF56C6B000E6E6F40
:1018D000020E6D6F1BECA6F005016B51FD6F350E0E
:1018E000AA5D080EAB59D8A078EF8CF07AEF8CF097
:1018F0007EEF8CF0010E546E1EEF8CF0A40EAA5DEC
:10190000060EAB59D8B087EF8CF089EF8CF0A4EFBE
:101910008CF003EF8CF05450A06FA16BA151000A22
:10192000D8B495EF8CF0A4EF8CF0A051000AD8B495
:1019300083EF8BF0010AD8B4E1EF8BF0030AD8B43F
:1019400059EF8CF0A4EF8CF012000601B505D8B465
:10195000ACEF8CF0AEEF8CF0B7EF8CF0030EB51956
:10196000D8A4B5EF8CF0B7EF8CF065EF8DF0000EDA
:101970000501B26F000EB36F7A0EB46F440EB56FEF
:10198000050EB1EC94F0050173C5A0F574C5A1F581
:10199000A26BA36B000E98EC96F0A0C5AEF5A1C5A6
:1019A000AFF5A2C5B0F5A3C5B1F555EC89F0AEC54C
:1019B000BCF6AFC5BDF6B0C5BEF6B1C5BFF6AB0E41
:1019C0000601C06FAA0EC16F270EC26F430EC36F10
:1019D0002CEC85F0BCC626F7BDC627F7BEC628F797
:1019E000BFC629F7040E5CEC8FF0C4C6F2F6C5C67C
:1019F000F3F6C6C6F4F6C7C6F5F626C7C0F627C77F
:101A0000C1F628C7C2F629C7C3F6F2C6BCF6F3C6AC
:101A1000BDF6F4C6BEF6F5C6BFF62CEC85F0BCC626
:101A2000AEF5BDC6AFF5BEC6B0F5BFC6B1F5000E8A
:101A30000501B26F000EB36F7A0EB46F440EB56F2E
:101A400055EC89F0AEC51EF7AFC51FF7B0C520F73E
:101A5000B1C521F74EC7C4F64FC7C5F650C7C6F685
:101A600051C7C7F6F6C6C8F6F7C6C9F60601CA6B6F
:101A7000CB6BB3EC93F0C4C62EF7C5C62FF7C6C622
:101A800030F7C7C631F7980E0601C46F070EC56F51
:101A90002EC7C6F62FC7C7F630C7C8F631C7C9F676
:101AA0001EC7CAF61FC7CBF620C7CCF621C7CDF696
:101AB00000EC80F0C4C68DF6C5C68EF68DC66DF5F9
:101AC0008EC66EF5010E55ECACF0020E0601B5198E
:101AD000D8B46DEF8DF06FEF8DF078EF8DF0030ED1
:101AE000B519D8A476EF8DF078EF8DF01FEF8EF05A
:101AF000000E0501B26F000EB36F7A0EB46F440E84
:101B0000B56F010EB1EC94F0050173C5A0F574C575
:101B1000A1F5A26BA36B000E98EC96F0A0C5AEF5F4
:101B2000A1C5AFF5A2C5B0F5A3C5B1F555EC89F0D7
:101B3000AEC5BCF6AFC5BDF6B0C5BEF6B1C5BFF605
:101B4000AB0E0601C06FAA0EC16F270EC26F430E07
:101B5000C36F2CEC85F0BCC622F7BDC623F7BEC60A
:101B600024F7BFC625F7000E5CEC8FF0C4C6F2F672
:101B7000C5C6F3F6C6C6F4F6C7C6F5F622C7C0F664
:101B800023C7C1F624C7C2F625C7C3F6F2C6BCF602
:101B9000F3C6BDF6F4C6BEF6F5C6BFF62CEC85F06E
:101BA000BCC6AEF5BDC6AFF5BEC6B0F5BFC6B1F595
:101BB000000E0501B26F000EB36F7A0EB46F440EC3
:101BC000B56F55EC89F0AEC51AF7AFC51BF7B0C5B8
:101BD0001CF7B1C51DF795C6A0F596C6A1F5050180
:101BE000A26BA36B000E98EC96F0A0C5EEF6A1C513
:101BF000EFF6A2C5F0F6A3C5F1F6D00E0601C46F4C
:101C0000080EC56FEEC6C6F6EFC6C7F6F0C6C8F634
:101C1000F1C6C9F61AC7CAF61BC7CBF61CC7CCF665
:101C20001DC7CDF600EC80F0C4C683F6C5C684F6A9
:101C300083C66DF584C66EF5020E55ECACF012004D
:101C4000CFBE25EF8EF027EF8EF029EF8EF05BEF01
:101C50008FF00501FE05D8A430EF8EF032EF8EF044
:101C60007DEF8EF0FD51D8B438EF8EF03AEF8EF064
:101C700057EF8EF0010E5A6E5950D8B442EF8EF0E5
:101C800044EF8EF057EF8EF02C0E06018D5D010EA5
:101C90008E59D8A04EEF8EF050EF8EF057EF8EF0A9
:101CA000050E74EC97F0BAC591F6BBC592F6050126
:101CB000FC51D8B45EEF8EF060EF8EF07DEF8EF0C9
:101CC000010E5A6E5850D8B468EF8EF06AEF8EF05D
:101CD0007DEF8EF00601845109E1C80E835DD8A026
:101CE00074EF8EF076EF8EF07DEF8EF0010E74ECD7
:101CF00097F0BAC58FF6BBC590F65904D8B483EFF8
:101D00008EF085EF8EF08DEF8EF05804D8A48BEF17
:101D10008EF08DEF8EF05BEF8FF05F50D8B493EFC5
:101D20008EF095EF8EF0F4EF8EF006019105921192
:101D3000D8A49DEF8EF09FEF8EF0BFEF8EF0010ED6
:101D40000501FD65A6EF8EF0A8EF8EF0BFEF8EF0D7
:101D500006017A5107E1060E795DD8B0B2EF8EF038
:101D6000B4EF8EF0BFEF8EF05F6A010EB16F010E1F
:101D7000F8ECAEF0000E0601786F010E776F020EE0
:101D8000060191199211D8A4C8EF8EF0CAEF8EF017
:101D9000DFEF8EF0010E0501FD65D1EF8EF0D3EF80
:101DA0008EF0DFEF8EF05F6A010E0601B16F010E5B
:101DB000F8ECAEF0000E0601786F000E776F0601AA
:101DC0007A5109E1060E795DD8A0E9EF8EF0EBEFCC
:101DD0008EF0F4EF8EF0010EF8ECAEF05F6A000EBC
:101DE00006017A6F060E796F5E50D8B4FAEF8EF066
:101DF000FCEF8EF05BEF8FF006018F059011D8A4F9
:101E000004EF8FF006EF8FF026EF8FF0010E050143
:101E1000FC650DEF8FF00FEF8FF026EF8FF00601CE
:101E2000765107E1060E755DD8B019EF8FF01BEF04
:101E30008FF026EF8FF05E6A020EB06F020EF8ECA4
:101E4000AEF0000E0601746F010E736F020E0601F4
:101E50008F199011D8A42FEF8FF031EF8FF046EF4C
:101E60008FF0010E0501FC6538EF8FF03AEF8FF02F
:101E700046EF8FF05E6A020E0601B06F020EF8ECBC
:101E8000AEF0000E0601746F010E736F06017651FD
:101E900009E1060E755DD8A050EF8FF052EF8FF07C
:101EA0005BEF8FF0020EF8ECAEF05E6A000E0601FA
:101EB000766F060E756F12000501F06F040E0501B6
:101EC000F019D8A466EF8FF068EF8FF0E1EF8FF094
:101ED000040EB1EC94F073C5E8F574C5E9F5000E95
:101EE0000501B26FF00EB36F7F0EB46F450EB56F84
:101EF000E8C5A0F5E9C5A1F5000EA1BFFF0EA26FD0
:101F0000A36F010E98EC96F0A0C5AEF5A1C5AFF594
:101F1000A2C5B0F5A3C5B1F555EC89F0AEC5BCF6C8
:101F2000AFC5BDF6B0C5BEF6B1C5BFF66F0E0601B2
:101F3000C06F120EC16F830EC26F400EC36F2CECC8
:101F400085F0BCC6D8F5BDC6D9F5BEC6DAF5BFC6A4
:101F5000DBF5660E0501DC6FFB0EDD6F080EDE6F34
:101F60003D0EDF6FDCC5C0F6DDC5C1F6DEC5C2F6CD
:101F7000DFC5C3F6D8C5BCF6D9C5BDF6DAC5BEF611
:101F8000DBC5BFF62CEC85F0BCC6AEF5BDC6AFF523
:101F9000BEC6B0F5BFC6B1F5960E0501B26F430ED1
:101FA000B36F0B0EB46F3D0EB56F55EC89F0AEC537
:101FB000ECF5AFC5EDF5B0C5EEF5B1C5EFF560EFE9
:101FC00090F0F051D8A4E7EF8FF0E9EF8FF060EFD9
:101FD00090F0000EB1EC94F073C5EAF574C5EBF522
:101FE000000E0501B26FF00EB36F7F0EB46F450E99
:101FF000B56FEAC5A0F5EBC5A1F5000EA1BFFF0EB8
:10200000A26FA36F010E98EC96F0A0C5AEF5A1C526
:10201000AFF5A2C5B0F5A3C5B1F555EC89F0AEC5D5
:10202000BCF6AFC5BDF6B0C5BEF6B1C5BFF66F0E06
:102030000601C06F120EC16F830EC26F400EC36FD8
:102040002CEC85F0BCC6E0F5BDC6E1F5BEC6E2F5F8
:10205000BFC6E3F5F70E0501E46F110EE56FA50E9F
:10206000E66F3D0EE76FE4C5C0F6E5C5C1F6E6C50F
:10207000C2F6E7C5C3F6E0C5BCF6E1C5BDF6E2C5EC
:10208000BEF6E3C5BFF62CEC85F0BCC6AEF5BDC60A
:10209000AFF5BEC6B0F5BFC6B1F5000E0501B26F13
:1020A000000EB36F800EB46F3E0EB56F55EC89F025
:1020B000AEC5ECF5AFC5EDF5B0C5EEF5B1C5EFF5C4
:1020C000ECC5BCF6EDC5BDF6EEC5BEF6EFC5BFF678
:1020D000000E0601C06F000EC16F7A0EC26F440E73
:1020E000C36F2CEC85F0BCC6C4F6BDC6C5F6BEC633
:1020F000C6F6BFC6C7F61200030E57ECB2F06BC5AA
:10210000D8F56CC5D9F5000E0501B26FF00EB36FAE
:102110007F0EB46F450EB56FD8C5A0F5D9C5A1F532
:10212000000EA1BFFF0EA26FA36F010E98EC96F0F8
:10213000A0C5AEF5A1C5AFF5A2C5B0F5A3C5B1F573
:1021400055EC89F0AEC5BCF6AFC5BDF6B0C5BEF660
:10215000B1C5BFF66F0E0601C06F120EC16F830EC0
:10216000C26F400EC36F2CEC85F0BCC6DBF5BDC65C
:10217000DCF5BEC6DDF5BFC6DEF5DBC5AEF5DCC5FC
:10218000AFF5DDC5B0F5DEC5B1F5CD0E0501B26F19
:10219000CC0EB36F4C0EB46F400EB56F9DECA1F03A
:1021A0000501D8A0D6EF90F0D8EF90F0DAEF90F0DC
:1021B000020EDA6FDBC5AEF5DCC5AFF5DDC5B0F5F7
:1021C000DEC5B1F5660EB26F660EB36F260EB46F44
:1021D000400EB56F9DECA1F00501D8A0F2EF90F094
:1021E000F4EF90F010EF91F0DBC5AEF5DCC5AFF584
:1021F000DDC5B0F5DEC5B1F5330EB26F330EB36F8A
:10220000330EB46F400EB56F9DECA1F00501D8B050
:102210000CEF91F00EEF91F010EF91F0010EDA6FEC
:10222000330EAE6F330EAF6F130EB06F400EB16F43
:10223000DBC5B2F5DCC5B3F5DDC5B4F5DEC5B5F576
:102240009DECA1F00501D8A028EF91F02AEF91F0C4
:102250002BEF91F0DA6B0601B351D8A432EF91F075
:1022600034EF91F099EF91F0AB510501DA19D8B440
:102270003CEF91F03EEF91F099EF91F0DAC5ABF6BB
:1022800089EF91F0AD51D8B448EF91F04AEF91F059
:1022900051EF91F00501FD51020DF3C4FDF506016A
:1022A000AD6BAC6B010E0501FE6F99EF91F0AD5176
:1022B000D8A45DEF91F05FEF91F099EF91F0FDC53B
:1022C0006BF505016C6B000E6E6F020E6D6F1BECF3
:1022D000A6F005016B51FD6F010E0601AD6F99EF80
:1022E00091F0AD51D8B477EF91F079EF91F080EFA4
:1022F00091F00501FD51020DF3C4FDF50601AD6B32
:10230000010EAC6F0501FE6B030EF8ECAEF099EF19
:1023100091F00601AB51000AD8B442EF91F0010AE6
:10232000D8B457EF91F0030AD8B471EF91F099EF58
:1023300091F012007AC5D9F47BC5DAF4DEC4F6F464
:10234000DDC4F7F4000EF86E0800F550250AD8A495
:10235000ACEF91F0AEEF91F092EF92F07AC5D9F434
:102360007BC5DAF4DE2A000EDD22000E07017F6F46
:10237000000E7E6F7EC7A3F6806981697AC5D9F4A5
:102380007BC5DAF4DEC481F5DDC482F581C5F6F4DF
:1023900082C5F7F4000EF86E0800F550640AD8B450
:1023A000D4EF91F0D6EF91F0E6EF91F081C5F6F41D
:1023B00082C5F7F4000EF86E0800F550690AD8A43B
:1023C000E4EF91F0E6EF91F089EF92F07CC5D9F45B
:1023D0007DC5DAF4DFC47EF5020EDE26DFC47FF5AC
:1023E000000EDD227EC5D9F47FC5DAF4DEC483F5A4
:1023F000DDC484F5010E050181257E6F000E82216A
:102400007F6F7AC5D9F47BC5DAF47EC5DEF47FC56B
:10241000DDF4200E876F84BF10EF92F013EF92F07F
:10242000010E14EF92F0000E806F8707000E8725D3
:10243000D96EDA6A090EDA2283C56BF584C56CF5AC
:10244000000E6E6F0A0E6D6FA8ECA8F06BC571F5EB
:102450006CC572F53DECB3F005017151300FDF6EC4
:1024600083C56BF584C56CF5000E6E6F0A0E6D6F3B
:102470001BECA6F06BC583F56CC584F50501835193
:102480008411D8B446EF92F048EF92F050EF92F0FA
:102490008751D8A44EEF92F050EF92F015EF92F0E2
:1024A0008751D8B456EF92F058EF92F07EEF92F049
:1024B0008051D8B45EEF92F060EF92F07EEF92F030
:1024C0008707000E8725D96EDA6A090EDA222D0EEB
:1024D000DF6E7EEF92F0000E8725D96EDA6A090E64
:1024E000DA22DF507E6F7E516F6F706B78C571F5A9
:1024F00079C572F551ECA5F00501872B200E8719DF
:10250000D8A485EF92F087EF92F06BEF92F0A9EFED
:1025100092F07AC5D9F47BC5DAF4DE2A000EDD220A
:10252000A9EF92F07AC5D9F47BC5DAF4DEC4F6F4EB
:10253000DDC4F7F4000EF86E0800F55005016F6F6A
:10254000706B78C571F579C572F551ECA5F089EF1E
:1025500092F01200000E0501716F000E726F000EF6
:10256000736FAFECB0F00501786F78510601166F0C
:10257000176B010E0501716F000E726F000E736F05
:10258000AFECB0F00501786F78510601186F196B48
:10259000020E0501716F000E726F000E736FAFECCB
:1025A000B0F00501786F785106011A6F1B6B640E4D
:1025B0001803F3C478F5F4C479F51903F350050151
:1025C0007927100E7A6F270E7B6F7A51060116035A
:1025D000F3C47CF5F4C47DF51703F35005017D27A2
:1025E0007B51060116030501F3507D2778517C25A8
:1025F0007E6F79517D217F6F06011A5105017E257D
:1026000006010F6F1B5105017F210601106F165146
:1026100023ECAFF0050173510701D26F0601185189
:1026200023ECAFF0050173510701D36F06011A5176
:1026300023ECAFF0050173510701D46F040E0501BF
:10264000716F000E726F000E736FAFECB0F005018A
:10265000786F78510601076F086B050E0501716FE1
:10266000000E726F000E736FAFECB0F00501786F63
:1026700078510601096F0A6B060E0501716F000E95
:10268000726F000E736FAFECB0F00501786F785188
:1026900006010B6F0C6B640E0903F3C478F5F4C4E8
:1026A00079F50A03F35005017927100E7A6F270E8A
:1026B0007B6F7A5106010703F3C47CF5F4C47DF502
:1026C0000803F35005017D277B510601070305012F
:1026D000F3507D2778517C257E6F79517D217F6F66
:1026E00006010B5105017E250601006F0C51050105
:1026F0007F210601016F075123ECAFF005017351F3
:102700000701D66F0601095123ECAFF005017351A3
:102710000701D76F06010B5123ECAFF00501735190
:102720000701D86FD00E0501786FC90EE82EFED7CD
:10273000782FFCD700D0000E05016D6F530E6C6F23
:10274000CF0E6E6F070E6F6F000E716F0A0E706FF7
:1027500075ECAEF00009D8B4B0EF93F0B2EF93F09F
:102760009BEF93F0120084ECB6F06BC5D8F56CC506
:10277000D9F56DC5DAF56EC5DBF5C4C66BF5C5C612
:102780006CF5C6C66DF5C7C66EF522C66FF523C6D5
:1027900070F524C671F525C672F500ECA9F00501A7
:1027A000D8B0D5EF93F0D7EF93F0F7EF93F0C4C61E
:1027B00022F6C5C623F6C6C624F6C7C625F626C623
:1027C00056F727C657F728C658F729C659F7D8C568
:1027D00052F7D9C553F7DAC554F7DBC555F7C8C664
:1027E000C5F7C9C6C6F7CAC6C7F7CBC6C8F752C72A
:1027F0006FF553C770F554C771F555C772F597EC6F
:10280000AAF06FC5E4F570C5E5F571C5E6F572C5CA
:10281000E7F50701C5510501E45D0701C651050152
:10282000E5590701C7510501E6590701C8510501DE
:10283000E759D8A01EEF94F020EF94F032EF94F017
:1028400022C626F623C627F624C628F625C629F66C
:1028500026C6C4F627C6C5F628C6C6F629C6C7F6D4
:10286000B0EF94F0E4C5A0F5E5C5A1F5E6C5A2F585
:10287000E7C5A3F5000E98EC96F0A0C5AEF5A1C58E
:10288000AFF5A2C5B0F5A3C5B1F5C5C7A0F5C6C7DC
:10289000A1F5C7C7A2F5C8C7A3F5000E98EC96F03E
:1028A000A0C5B2F5A1C5B3F5A2C5B4F5A3C5B5F5EC
:1028B00055EC89F0AEC5DCF5AFC5DDF5B0C5DEF58C
:1028C000B1C5DFF5DCC5C0F6DDC5C1F6DEC5C2F6B3
:1028D000DFC5C3F656C77FF557C780F558C781F5E2
:1028E00059C782F522C67BF523C67CF524C67DF543
:1028F00025C67EF58BECB0F07BC5BCF67CC5BDF67D
:102900007DC5BEF67EC5BFF62CEC85F0BCC6E0F5F5
:10291000BDC6E1F5BEC6E2F5BFC6E3F5E0C56BF5A1
:10292000E1C56CF5E2C56DF5E3C56EF556C76FF50B
:1029300057C770F558C771F559C772F5D0EC82F0DA
:102940006BC526F66CC527F66DC528F66EC529F64B
:1029500026C6C4F627C6C5F628C6C6F629C6C7F6D3
:1029600012000501936F000E05019B6F000E9A6F18
:10297000935157ECB2F0D89005019A35D96E9B353A
:10298000DA6E7B0ED926050EDA226BC5DEF46CC535
:10299000DDF49A4B9B2B9BBFD7EF94F09B5109E141
:1029A0000C0E9A5DD8A0D7EF94F0D9EF94F0B8EF61
:1029B00094F0000E996F000E986F000E9D6F000E40
:1029C0009C6F000E9F6F000E9E6F4EEF95F0D8909B
:1029D0009E35D96E9F35DA6E7B0ED926050EDA222A
:1029E0009EC577F59FC578F5D89077377837020E72
:1029F0007727000E78237B0E7725E16E050E782170
:102A0000E26EDE50E65CDE50E658D8B00AEF95F094
:102A10000CEF95F04CEF95F0D8909E35D96E9F3520
:102A2000DA6E7B0ED926050EDA22DEC494F5DDC4FB
:102A300095F59EC575F59FC576F5D89075377637AF
:102A4000020E7527000E76237B0E7525D96E050EB6
:102A50007621DA6ED8909E35E16E9F35E26E7B0E60
:102A6000E126050EE222DEC4E6F4DDC4E5F49EC5EF
:102A700075F59FC576F5D89075377637020E7527B0
:102A8000000E76237B0E7525D96E050E7621DA6E43
:102A900094C5DEF495C5DDF49E4B9F2B0B0E756F30
:102AA000000E766F9C51755F9D51765B75519E5DF2
:102AB0009F51800A776F7651800A7759D8A063EFCB
:102AC00095F065EF95F0E7EF94F09C4B9D2B9DBF43
:102AD00073EF95F09D5109E10B0E9C5DD8A073EF4B
:102AE00095F075EF95F0E1EF94F0000E9D6F020EFA
:102AF0009C6FD8909C35D96E9D35DA6E7B0ED926A9
:102B0000050EDA22DE509827DD5099239C4B9D2B31
:102B10009DBF94EF95F09D5109E10A0E9C5DD8A0F0
:102B200094EF95F096EF95F079EF95F098C56BF5E9
:102B300099C56CF5000E6E6F080E6D6F1BECA6F05C
:102B40006BC596F56CC597F596C573F597C574F585
:102B50001200000E0501716F000E726F000E736F90
:102B6000AFECB0F00501786F78510601166F176B66
:102B7000010E0501716F000E726F000E736FAFECE6
:102B8000B0F00501786F78510601186F196B020ECD
:102B90000501716F000E726F000E736FAFECB0F035
:102BA0000501786F785106011A6F1B6B040E050141
:102BB000716F000E726F000E736FAFECB0F0050115
:102BC000786F78510601076F086B050E0501716F6C
:102BD000000E726F000E736FAFECB0F00501786FEE
:102BE00078510601096F0A6B060E0501716F000E20
:102BF000726F000E736FAFECB0F00501786F785113
:102C000006010B6F0C6B175109E1650E165DD8A01C
:102C10000CEF96F00EEF96F019EF96F0000E05010E
:102C2000736F000E746F000E756F000E766F1AECE6
:102C3000ACF00601195109E1650E185DD8A023EF2B
:102C400096F025EF96F030EF96F0010E0501736FC8
:102C5000000E746F000E756F000E766F1AECACF0FC
:102C600006011B5109E1650E1A5DD8A03AEF96F0F6
:102C70003CEF96F047EF96F0020E0501736F000EE1
:102C8000746F000E756F000E766F1AECACF0030EC9
:102C90000501736F000E746F000E756F000E766F76
:102CA0001AECACF00601085109E1650E075DD8A0E9
:102CB0005CEF96F05EEF96F069EF96F0040E05017A
:102CC000736F000E746F000E756F000E766F1AEC46
:102CD000ACF006010A5109E1650E095DD8A073EF59
:102CE00096F075EF96F080EF96F0050E0501736F84
:102CF000000E746F000E756F000E766F1AECACF05C
:102D000006010C5109E1650E0B5DD8A08AEF96F023
:102D10008CEF96F097EF96F0060E0501736F000E9C
:102D2000746F000E756F000E766F1AECACF0120027
:102D30000501A86F0501A851D8B4A1EF96F0A3EF43
:102D400096F0C5EF96F0A3BFAAEF96F0A8EF96F025
:102D5000C5EF96F0A0C5A4F5A1C5A5F5A2C5A6F539
:102D6000A3C5A7F5A41FA51FA61FA71FA42B000E70
:102D7000A523A623A723A4C5AAF5A5C5ABF5A6C57B
:102D8000ACF5A7C5ADF5CDEF96F0A0C5AAF5A1C5E8
:102D9000ABF5A2C5ACF5A3C5ADF5A051A111A2112B
:102DA000A311D8A4D6EF96F0D8EF96F0E2EF96F004
:102DB000000EA06F000EA16F000EA26F000EA36F99
:102DC00073EF97F0960EA96FECEF96F0A92BD890C1
:102DD000AD33AC33AB33AA33000EAA15A46F000E8B
:102DE000AB15A56F000EAC15A66FFE0EAD15A76F47
:102DF000A451A511A611A711D8A401EF97F003EFD4
:102E000097F0E6EF96F011EF97F0A92B010EAA27A5
:102E1000000EAB23AC23AD23D890AD33AC33AB3332
:102E2000AA33000EAA15A46F000EAB15A56F000EF5
:102E3000AC15A66FFF0EAD15A76FA451A511A61175
:102E4000A711D8A426EF97F028EF97F005EF97F099
:102E500030EF97F0A907D890AA37AB37AC37AD372A
:102E6000ACBF35EF97F037EF97F03FEF97F0020EDA
:102E7000A9613DEF97F03FEF97F02AEF97F0A9B1E6
:102E800044EF97F046EF97F047EF97F0AC9FD8905C
:102E9000A933A9C5A4F5A56BA66BA76BA4C5A7F517
:102EA000A66BA56BA46BA451AA13A551AB13A65195
:102EB000AC13A751AD13A851D8B461EF97F063EFED
:102EC00097F06BEF97F0A3BF6AEF97F068EF97F07A
:102ED0006BEF97F0AD8FAAC5A0F5ABC5A1F5ACC55A
:102EE000A2F5ADC5A3F512000501C46F050E0501DD
:102EF000C419D8A47EEF97F080EF97F0EAEF97F02F
:102F0000140EBC6FC80EBD6F2A0EBE6F450EBF6F8C
:102F1000C451B1EC94F073C51EF674C51FF61EC6FD
:102F2000A0F51FC6A1F50501A26BA36B000E98ECDE
:102F300096F0A0C5AEF5A1C5AFF5A2C5B0F5A3C585
:102F4000B1F5BCC5B2F5BDC5B3F5BEC5B4F5BFC5D9
:102F5000B5F59DECA1F00501D8B0B1EF97F0B3EF56
:102F600097F0CAEF97F0E10E06011E5D010E1F59A2
:102F7000D8A0BDEF97F0BFEF97F0D1EF97F0590EC3
:102F80001E5D020E1F59D8B0C8EF97F0CAEF97F038
:102F9000D1EF97F0000E0501BB6F010EBA6F4BEF3A
:102FA00098F0E00E1E5D010E1F59D8B0DAEF97F0D1
:102FB000DCEF97F0E3EF97F0000E0501BB6F020E18
:102FC000BA6F4BEF98F0000E0501BB6F000EBA6FA1
:102FD0004BEF98F0C405D8A4F0EF97F0F2EF97F01C
:102FE000E3EF97F0130EC06F760EC16F830EC26FC2
:102FF000440EC36FC451B1EC94F073C520F674C590
:1030000021F620C6A0F521C6A1F50501A26BA36B90
:10301000000E98EC96F0A0C5AEF5A1C5AFF5A2C51F
:10302000B0F5A3C5B1F5C0C5B2F5C1C5B3F5C2C50C
:10303000B4F5C3C5B5F59DECA1F00501D8B023EFFB
:1030400098F025EF98F0CAEF97F02D0E0601205D5D
:10305000010E2159D8A02FEF98F031EF98F03EEFF4
:1030600098F0E00E205D010E2159D8B03AEF98F0AB
:103070003CEF98F03EEF98F0CAEF97F02D0E205DF0
:10308000010E2159D8B047EF98F049EF98F0E3EFDF
:1030900097F0DCEF97F012005A04D8A452EF98F0A2
:1030A00054EF98F06BEF98F006016F4B702BF40E15
:1030B0006F1906E17005D8A460EF98F062EF98F000
:1030C0006BEF98F0010E596E010E586E000E706F86
:1030D000000E6F6F5A6A06016D4B6E2BC80E6D198C
:1030E0006E11D8A476EF98F078EF98F093EF98F0FF
:1030F000000E6E6F000E6D6FA92B77517811D8B44A
:1031000084EF98F086EF98F088EF98F06B4B6C2B7B
:1031100073517411D8B48FEF98F091EF98F093EF4A
:1031200098F0694B6A2B960E6B196C11D8A49BEF23
:1031300098F09DEF98F0B4EF98F0000E6C6F000ED1
:103140006B6F010E5F6E794B7A2B7A5109E1060E97
:10315000795DD8A0AEEF98F0B0EF98F0B4EF98F0AA
:10316000000E786F000E776F960E69196A11D8A459
:10317000BCEF98F0BEEF98F0D5EF98F0010E5E6EC0
:10318000754B762B000E6A6F000E696F765109E160
:10319000060E755DD8A0CFEF98F0D1EF98F0D5EF7F
:1031A00098F0000E746F000E736F67056811D8A455
:1031B000DCEF98F0DEEF98F0F9EF98F0654B662BB6
:1031C000665109E1C80E655DD8A0E9EF98F0EBEF14
:1031D00098F0F9EF98F0000E666F000E656F000E24
:1031E00007018B6F010E8A6F000E0601686F000EDB
:1031F000676F63516411D8B400EF99F002EF99F052
:1032000019EF99F06307D8A0640763516411D8A43B
:103210000CEF99F00EEF99F019EF99F00501F851C4
:10322000D8B415EF99F017EF99F019EF99F0010E56
:103230004C6E12000501F451020D400EF324D96EBC
:10324000080EF420DA6EDE6ADD6A0201C5A72BEFF4
:1032500099F02DEF99F050EF99F00501F451020D1E
:10326000400EF324D96E080EF420DA6E0801DF82D6
:103270000601375138113911D8B441EF99F043EFB5
:1032800099F050EF99F002D850EF99F00500FA6EDE
:103290003751FD6E3851FE6E3951FF6EFA501200F3
:1032A0000201C5A356EF99F058EF99F07BEF99F022
:1032B0000501F451020D400EF324D96E080EF420DE
:1032C000DA6E0801DF840601345135113611D8B4A5
:1032D0006CEF99F06EEF99F07BEF99F002D87BEFED
:1032E00099F00500FA6E3451FD6E3551FE6E36517F
:1032F000FF6EFA5012000201C5AD81EF99F083EF25
:1033000099F0A6EF99F00501F451020D400EF32457
:10331000D96E080EF420DA6E0801DF800601315103
:1033200032113311D8B497EF99F099EF99F0A6EFD5
:1033300099F002D8A6EF99F00500FA6E3151FD6EB2
:103340003251FE6E3351FF6EFA501200B4C230F5A6
:103350000501F4290F0B316E42503118D8A4B3EF98
:1033600099F0B5EF99F0B7EF99F0C2EF99F0600ED0
:10337000F425D96EDA6A080EDA2230C5DFF431C5D9
:10338000F4F5412A06012E512F113011D8B4CBEF9C
:1033900099F0CDEF99F0DAEF99F002D8DAEF99F0E1
:1033A0000500FA6E2E51FD6E2F51FE6E3051FF6EEC
:1033B000FA50120012004750020D000EF324D96E8D
:1033C000080EF420DA6EDE6ADD6A0201B2A7EBEFC6
:1033D00099F0EDEF99F00FEF9AF04750020D000EC3
:1033E000F324D96E080EF420DA6E0801DF8206019C
:1033F000435144114511D8B400EF9AF002EF9AF00E
:103400000FEF9AF002D80FEF9AF00500FA6E4351D1
:10341000FD6E4451FE6E4551FF6EFA5012000201DE
:10342000B2A315EF9AF017EF9AF039EF9AF04750E0
:10343000020D000EF324D96E080EF420DA6E080196
:10344000DF840601405141114211D8B42AEF9AF0AD
:103450002CEF9AF039EF9AF002D839EF9AF0050084
:10346000FA6E4051FD6E4151FE6E4251FF6EFA50B0
:1034700012000201B2AD3FEF9AF041EF9AF063EF14
:103480009AF04750020D000EF324D96E080EF42076
:10349000DA6E0801DF8006013D513E113F11D8B4BC
:1034A00054EF9AF056EF9AF063EF9AF002D863EF78
:1034B0009AF00500FA6E3D51FD6E3E51FE6E3F5191
:1034C000FF6EFA501200A1C21EF547281F0B1F6E97
:1034D00046501F18D8A46FEF9AF071EF9AF073EF6F
:1034E0009AF07EEF9AF0200E4724D96EDA6A090E20
:1034F000DA221EC5DFF41FC547F5452A06013A51F9
:103500003B113C11D8B487EF9AF089EF9AF096EF0F
:103510009AF002D896EF9AF00500FA6E3A51FD6ED5
:103520003B51FE6E3C51FF6EFA5012001200BCC6B9
:10353000D9F4BDC6DAF4BEC6DFF4060120EE01F010
:10354000BC51D926BD51DA22BFC6DEF4C0C6DEF4B6
:10355000C1C6DEF4C2C6DEF420EE05F0BC51D926A9
:10356000BD51DA22C3C6DEF4C4C6DEF4C5C6DEF43D
:10357000C6C6DEF420EE09F0BC51D926BD51DA22D0
:10358000C7C6DEF4C8C6DEF4C9C6DEF4CAC6DEF4B9
:1035900020EE15F0BC51D926BD51DA22CBC6DEF49F
:1035A000CCC6DEF4CDC6DEF4CEC6DEF420EE19F0D5
:1035B000BC51D926BD51DA22CFC6DEF4D0C6DEF426
:1035C000D1C6DEF4D2C6DEF4000E0501AE6F000EE9
:1035D000AF6F480EB06F440EB16FC3C6B2F5C4C62C
:1035E000B3F5C5C6B4F5C6C6B5F555EC89F0060108
:1035F00020EE0DF0BC51D926BD51DA220501AEC531
:10360000DEF4AFC5DEF4B0C5DEF4B1C5DEF4000E05
:10361000AE6F000EAF6F480EB06FC40EB16FC3C671
:10362000B2F5C4C6B3F5C5C6B4F5C6C6B5F555EC16
:1036300089F0060120EE11F0BC51D926BD51DA22E5
:103640000501AEC5DEF4AFC5DEF4B0C5DEF4B1C52C
:10365000DEF4060120EE1DF0BC51D926BD51DA2260
:10366000000EDE6E000EDE6E000EDE6E000EDD6EF3
:1036700020EE21F0BC51D926BD51DA22000EDE6EBB
:10368000000EDE6E000EDE6E000EDD6E20EE25F00A
:10369000BC51D926BD51DA22D3C6DEF4D4C6DDF43E
:1036A00012003AC76FF53BC770F53CC771F53DC7CF
:1036B00072F597ECAAF06FC57FF570C580F571C5FE
:1036C00081F572C582F5D8EF9BF0000E07014E6FB1
:1036D000000E4F6F000E506F000E516FEEECADF00C
:1036E000000E06018E6F000E8D6F000E0701BE6F7B
:1036F000000EBD6F000EB56F000EB66F000EB76FF7
:10370000000EB86F000EB96F000EBA6F000EBB6FDF
:10371000000EBC6F000E0601886F000E876F010E51
:103720003EECA7F0050182518111801109E1650E7F
:103730007F5DD8A09EEF9BF0A0EF9BF0EBEF9BF09E
:10374000010E526E84ECB6F06BC53AF76CC53BF7D0
:103750006DC53CF76EC53DF7EBEF9BF0010E59ECE4
:10376000B4F0050182518111801109E1650E7F5D80
:10377000D8A0BDEF9BF0BFEF9BF0EBEF9BF0020EEC
:10378000526EA2EF9BF0010E45ECB4F005018251A0
:103790008111801109E1650E7F5DD8A0D2EF9BF009
:1037A000D4EF9BF0EBEF9BF0030E526EA2EF9BF079
:1037B0005250000AD8B465EF9BF0010AD8B4AEEFBE
:1037C0009BF0030AD8B4C3EF9BF0010AD8B4EBEF27
:1037D0009BF0EBEF9BF01200050120EE03F080510F
:1037E000D9268151DA22DF506B6F20EE02F0805132
:1037F000D9268151DA22DF5026ECABF06BC5A1F659
:103800006CC5A2F6570E0601A15D030EA259D8A001
:103810000CEF9CF00EEF9CF012EF9CF0030EA26FE9
:10382000570EA16FF40EA15D010EA259D8B01BEF87
:103830009CF01DEF9CF021EF9CF0010EA26FF40EA6
:10384000A16FA1C69DF6A2C69EF680C5D9F481C51A
:10385000DAF4DF500501FD6FFDC5BAF6630EFD65B4
:1038600034EF9CF036EF9CF038EF9CF0640EFD6F67
:1038700020EE07F08051D9268151DA22DF506B6F9C
:1038800020EE06F08051D9268151DA22DF5026EC55
:10389000ABF06BC59FF66CC5A0F60601A05109E11F
:1038A000710E9F5DD8A057EF9CF059EF9CF05DEF33
:1038B0009CF0000EA06F710E9F6FA05107E1320EB9
:1038C0009F5DD8B066EF9CF068EF9CF06CEF9CF0C9
:1038D000000EA06F320E9F6F9FC69BF6A0C69CF68F
:1038E000050120EE04F08051D9268151DA22DF5003
:1038F000FC6FFCC5B9F6630EFC6581EF9CF083EFAD
:103900009CF085EF9CF0640EFC6F1200000E050128
:103910006D6F570E6C6FD90E6E6F070E6F6F000EC6
:10392000716F020E706F75ECAEF00009D8B49BEFAA
:103930009CF09DEF9CF086EF9CF0000E05016D6FF2
:10394000570E6C6F5B0E6E6F050E6F6F000E716F12
:10395000010E706FA1ECAEF00009D8B4B2EF9CF08C
:10396000B4EF9CF09DEF9CF0680E0501736FE40EC0
:10397000E82EFED7732FFCD700005BC5A5F6680EB6
:103980000501736FE40EE82EFED7732FFCD70000FD
:10399000C00E0601A519D8A4D0EF9CF0D2EF9CF080
:1039A000D4EF9CF014EF9DF0000E05016D6F570EE3
:1039B0006C6FB10E6E6F090E6F6F000E716F130E8C
:1039C000706F75ECAEF00009D8B4E9EF9CF0EBEF46
:1039D0009CF0D4EF9CF0680E0501736FE40EE82EA6
:1039E000FED7732FFCD70000000E05016D6F570E38
:1039F0006C6FD90E6E6F070E6F6F000E716F030E36
:103A0000706FA1ECAEF00009D8B409EF9DF00BEF98
:103A10009DF0F4EF9CF02A0E0501736F8D0EE82ED9
:103A2000FED7732FFCD700D0D00E0501736FC90EDF
:103A3000E82EFED7732FFCD700D0120006011551D7
:103A4000D8B425EF9DF027EF9DF075EF9DF0134B57
:103A5000142B5F4B602BB90E5F5D0B0E6059D8A025
:103A600034EF9DF036EF9DF03EEF9DF0000E726F4B
:103A7000010E716F000E606F000E5F6F600E135DC0
:103A8000EA0E1459D8A047EF9DF049EF9DF075EF6D
:103A90009DF0114B122B010EA76F125109E13C0E44
:103AA000115DD8A056EF9DF058EF9DF071EF9DF09D
:103AB0000F4B102B000E1D6F010E1C6F500E0F5D73
:103AC000C30E1059D8A067EF9DF069EF9DF06DEF20
:103AD0009DF0C30E106F500E0F6F000E106F000E92
:103AE0000F6F000E146F000E136F0651D8B47BEFEA
:103AF0009DF07DEF9DF0B4EF9DF0044B052B600E23
:103B0000045DEA0E0559D8A088EF9DF08AEF9DF07C
:103B1000B4EF9DF0024B032B035109E13C0E025D13
:103B2000D8A095EF9DF097EF9DF0B0EF9DF0004B82
:103B3000012B000E0E6F010E0D6F500E005DC30EB7
:103B40000159D8A0A6EF9DF0A8EF9DF0ACEF9DF035
:103B5000C30E016F500E006F000E016F000E006F5C
:103B6000000E056F000E046F1200BAC56BF5BBC5E1
:103B70006CF5BCC56DF5BDC56EF5A0ECA2F00501F8
:103B80006B516C11D8A4C7EF9DF0C9EF9DF0D3EF36
:103B90009DF0BEC5BAF5BFC5BBF5C0C5BCF5C1C576
:103BA000BDF548EF9EF0BEC56BF5BFC56CF5C0C551
:103BB0006DF5C1C56EF5A0ECA2F005016B516C115D
:103BC000D8A4E5EF9DF0E7EF9DF0F1EF9DF0BAC5C9
:103BD000BAF5BBC5BBF5BCC5BCF5BDC5BDF548EF69
:103BE0009EF0BAC56BF5BBC56CF5BCC56DF5BDC522
:103BF0006EF5A1ECAFF06BC5C2F56CC5C3F5BEC5E3
:103C00006BF5BFC56CF5C0C56DF5C1C56EF5A1EC12
:103C1000AFF005016B51C21909E16C51C319D8B459
:103C200014EF9EF016EF9EF02CEF9EF0BAC56BF5E8
:103C3000BBC56CF5BCC56DF5BDC56EF5A1ECAFF0AF
:103C400005016B516C11D8A428EF9EF02AEF9EF06D
:103C5000E7EF9DF0C9EF9DF0BAC5AEF5BBC5AFF576
:103C6000BCC5B0F5BDC5B1F5BEC5B2F5BFC5B3F5B0
:103C7000C0C5B4F5C1C5B5F59DECA1F00501D8A04E
:103C800044EF9EF046EF9EF0E7EF9DF0C9EF9DF008
:103C90001200C4C56BF5C5C56CF5C6C56DF5C7C5C5
:103CA0006EF5A0ECA2F005016B516C11D8A45BEF8E
:103CB0009EF05DEF9EF067EF9EF0C8C5C4F5C9C5E4
:103CC000C5F5CAC5C6F5CBC5C7F5DCEF9EF0C8C5BE
:103CD0006BF5C9C56CF5CAC56DF5CBC56EF5A0EC25
:103CE000A2F005016B516C11D8A479EF9EF07BEF27
:103CF0009EF085EF9EF0C4C5C4F5C5C5C5F5C6C523
:103D0000C6F5C7C5C7F5DCEF9EF0C4C56BF5C5C5E4
:103D10006CF5C6C56DF5C7C56EF5A1ECAFF06BC50A
:103D2000CCF56CC5CDF5C8C56BF5C9C56CF5CAC574
:103D30006DF5CBC56EF5A1ECAFF005016B51CC195B
:103D400009E16C51CD19D8B4A8EF9EF0AAEF9EF00E
:103D5000C0EF9EF0C4C56BF5C5C56CF5C6C56DF565
:103D6000C7C56EF5A1ECAFF005016B516C11D8A47D
:103D7000BCEF9EF0BEEF9EF05DEF9EF07BEF9EF0FD
:103D8000C4C5AEF5C5C5AFF5C6C5B0F5C7C5B1F577
:103D9000C8C5B2F5C9C5B3F5CAC5B4F5CBC5B5F547
:103DA0009DECA1F00501D8A0D8EF9EF0DAEF9EF0CF
:103DB0005DEF9EF07BEF9EF01200E0ECAAF0E806CB
:103DC000D8A4E5EF9EF0E7EF9EF0ECEF9EF0030E37
:103DD000F8ECAEF06CEF9FF00CECA4F00501FB05E5
:103DE000D8B4F5EF9EF0F7EF9EF0F9EF9EF06CEF90
:103DF0009FF020ECA3F0050172C5A0F573C5A1F5F5
:103E0000A26BA36B000E98EC96F0A0C54EF7A1C56F
:103E10004FF7A2C550F7A3C551F70501FD51D8B41E
:103E200014EF9FF016EF9FF021EF9FF0FC51D8A404
:103E30001CEF9FF01EEF9FF021EF9FF0010E060197
:103E4000B56F0501FD51D8A428EF9FF02AEF9FF030
:103E500035EF9FF0FC51D8B430EF9FF032EF9FF078
:103E600035EF9FF0020E0601B56F0501FD51D8B484
:103E70003CEF9FF03EEF9FF049EF9FF0FC51D8B42C
:103E800044EF9FF046EF9FF049EF9FF0030E0601CD
:103E9000B56F0501FD51D8A450EF9FF052EF9FF090
:103EA0006AEF9FF0FC51D8A458EF9FF05AEF9FF0B3
:103EB0006AEF9FF00601B56B000E07014E6F000E12
:103EC0004F6F000E506F000E516F000E06018E6F87
:103ED000000E8D6FA5EC8CF0120036C76FF537C75A
:103EE00070F538C771F539C772F597ECAAF06FC550
:103EF0007FF570C580F571C581F572C582F5E9EF72
:103F00009FF0000E0601846F000E836F000E080103
:103F1000F66F000EF56F000EED6F000EEE6F000EE7
:103F2000EF6F000EF06F000EF16F000EF26F000EDB
:103F3000F36F000EF46F000E0601866F000E856FA2
:103F4000020E3EECA7F0050182518111801109E1BA
:103F5000650E7F5DD8A0AFEF9FF0B1EF9FF0FCEF53
:103F60009FF0010E516E84ECB6F06BC536F76CC550
:103F700037F76DC538F76EC539F7FCEF9FF0020EC5
:103F800059ECB4F0050182518111801109E1650EEF
:103F90007F5DD8A0CEEF9FF0D0EF9FF0FCEF9FF0B9
:103FA000020E516EB3EF9FF0020E45ECB4F0050126
:103FB00082518111801109E1650E7F5DD8A0E3EF88
:103FC0009FF0E5EF9FF0FCEF9FF0030E516EB3EF13
:103FD0009FF05150000AD8B481EF9FF0010AD8B485
:103FE000BFEF9FF0030AD8B4D4EF9FF0010AD8B412
:103FF000FCEF9FF0FCEF9FF01200C80E05017C6FF4
:10400000000E7D6F000E7E6F000E7F6F74517A6F11
:1040100073C57BF528EFA0F005017C517D117E1161
:104020007F11D8A416EFA0F018EFA0F01AEFA0F0BF
:104030008CEFA0F07C07000E7D5B7E5B7F5B150E36
:104040000501786FC60EE82EFED7782FFCD700004A
:10405000000E05016D6F530E6C6F7A0E6E6F050EBC
:104060006F6F000E716F020E706F75ECAEF000098D
:10407000D8B43DEFA0F03FEFA0F00CEFA0F0C80ED9
:1040800005017C6F000E7D6F000E7E6F000E7F6F4E
:1040900066EFA0F005017C517D117E117F11D8A43F
:1040A00054EFA0F056EFA0F058EFA0F08CEFA0F086
:1040B0007C07000E7D5B7E5B7F5B150E0501786FD4
:1040C000C60EE82EFED7782FFCD70000000E0501A3
:1040D0006D6F530E6C6F75C56EF576C56FF5020E7C
:1040E0007725706F716B000E7123A1ECAEF00009A3
:1040F000D8B47DEFA0F07FEFA0F04AEFA0F0090E5A
:104100000501796F1E0E786FE40EE82EFED7782F2A
:10411000FCD7792FFAD7000012000601BE35BF3553
:104120000501D36FD351D8A498EFA0F09AEFA0F077
:10413000A5EFA0F0000E0601BC6F000EBD6F000ED3
:10414000BE6F000EBF6F19EFA1F0BCC6CEF5BDC6A5
:10415000CFF5BEC6D0F5BFC6D1F5200EB5EFA0F0A5
:10416000D890D133D033CF33CE33E82EB0EFA0F098
:10417000CE51D26F0601BE8FFF0EBC17FF0EBD17CA
:10418000FF0EBE17000EBF17960E0501D35FD3BFFB
:10419000CEEFA0F0CCEFA0F0E6EFA0F0D351800A74
:1041A000970FD8B0D6EFA0F0D8EFA0F0DAEFA0F0DC
:1041B0009AEFA0F00601D890BF33BE33BD33BC33B5
:1041C0000501D33FDAEFA0F000EFA1F01F0ED36599
:1041D000ECEFA0F0EEEFA0F0F8EFA0F09AEFA0F077
:1041E0000601D890BC37BD37BE37BF370501D307AE
:1041F000D351D8A4FEEFA0F000EFA1F0F0EFA0F0B3
:10420000D251D8B406EFA1F008EFA1F011EFA1F060
:104210000601BF1FBE1FBD1FBC6D000EBD23BE2308
:10422000BF23BCC6BCF6BDC6BDF6BEC6BEF6BFC685
:10423000BFF612009C0EF66E5E0EF76E010EF86E63
:1042400002EE71F110EE53F00900F5C4EEF4E55002
:10425000E150FAE1080EF66E6C0EF76E010EF86E84
:1042600001EEC5F310EE17F00900F5C4EEF4E550C9
:10427000E150FAE1500EF66E6E0EF76E010EF86E1A
:1042800001EEF6F210EE09F00900F5C4EEF4E55087
:10429000E150FAE1460EF66E6F0EF76E010EF86E03
:1042A0000900F5C4FFF5F20EF66E6E0EF76E010E04
:1042B000F86E01EE5CF110EE04F00900F5C4EEF4C6
:1042C000E550E150FAE102EE00F3640EEE6AE80612
:1042D000FDE102EE00F2D80EEE6AE806FDE102EE24
:1042E00000F1710EEE6AE806FDE102EE00F0F70E55
:1042F000EE6AE806FDE101EE00F3C50EEE6AE8069F
:10430000FDE101EE00F2BC0EEE6AE806FDE101EE11
:10431000F4F10B0EEE6AE806FDE101EE32F12A0E31
:10432000EE6AE806FDE10401080E5D6F000E5E6FA7
:10433000000E5F6F0001A7EFB3F0000E0501AE1590
:10434000B66F000EAF15B76F800EB015B86F7F0E49
:10435000B115B96FB651B711B811B911D8A4B3EFEF
:10436000A1F0B5EFA1F0BDEFA1F0000EAE6F000E11
:10437000AF6F000EB06F000EB16F000EB215B66FCA
:10438000000EB315B76F800EB415B86F7F0EB5155C
:10439000B96FB651B711B811B911D8A4D2EFA1F0C5
:1043A000D4EFA1F0DCEFA1F0000EB26F000EB36FFE
:1043B000000EB46F000EB56FB1AFE1EFA1F0E3EF07
:1043C000A1F0ECEFA1F0AE6DAF1FD8B0AF2BB01FD6
:1043D000D8B0B02B800EB157B5AFF1EFA1F0F3EF2D
:1043E000A1F0FCEFA1F0B26DB31FD8B0B32BB41F96
:1043F000D8B0B42B800EB557000EAE1B000EAF1B0D
:10440000000EB01B800EB11B000EB21B000EB31BC2
:10441000000EB41B800EB51BB251AE5DB351AF5947
:10442000B451B059B551B159D8B019EFA2F01BEF42
:10443000A2F01EEFA2F0D8901FEFA2F0D8801200D9
:104440004C04D8B426EFA2F028EFA2F02AEFA2F095
:104450009FEFA2F0A80E05016B6F080E6C6F800E27
:104460006D6F080E6E6FF8C56FF5706B78ECAFF07E
:104470000501F851FE0F7C6FA80E6B6F080E6C6F74
:104480007CC56DF568ECABF06BC55DF66CC55EF692
:10449000A90E05017C25D96EDA6A080EDA22DF50F2
:1044A000766FA80E7C25D96EDA6A080EDA22DF5004
:1044B000776F7751796F786B7651782506015B6F4E
:1044C0000501000E792106015C6F5B515D1909E160
:1044D0005C515E19D8B46FEFA2F071EFA2F075EFE6
:1044E000A2F07EECB1F09FEFA2F0AEC87AF5050124
:1044F000F851F70F7B6F7A517B19D8B482EFA2F095
:1045000084EFA2F086EFA2F071EFA2F0100E080186
:10451000A919D8A48EEFA2F090EFA2F071EFA2F04B
:104520000E0EAB19D8A497EFA2F099EFA2F071EF9D
:10453000A2F0B0C8FDF5B2C8FCF571EFA2F0120010
:1045400012C775F513C776F514C777F515C778F553
:104550006BC575F56CC576F56DC577F56EC578F5E7
:1045600075C56FF576C570F577C571F578C572F5C7
:10457000180EC1EFA2F00501D89072337133703379
:104580006F33E82EBBEFA2F06F51736F746B7351F2
:104590007411D8A4CEEFA2F0D0EFA2F0F0EFA2F009
:1045A000D89075356F6F7635706F7735716F783558
:1045B000726F6F51701171117211D8A4E2EFA2F0F5
:1045C000E4EFA2F0EAEFA2F0000E6C6F020E6B6F48
:1045D0001FEFA3F0000E6C6F030E6B6F1FEFA3F0C5
:1045E00073297411D8A4F7EFA2F0F9EFA2F01BEF32
:1045F000A3F075C56FF576C570F577C571F578C50B
:1046000072F5090ED8906F37703771377237E82E10
:1046100002EFA3F06F51701171117211D8B413EF42
:10462000A3F016EFA3F0010E17EFA3F0000E6B6FCF
:104630006C6B1FEFA3F0000E6C6F040E6B6F12001B
:104640000501FD51746F756B9DC66BF59EC66CF5CB
:10465000000E6E6F640E6D6FDFECABF005017451F0
:104660006B03F3C476F5F4C477F56C03F350772746
:1046700075516B03F350772776C599F677C59AF68F
:10468000FC51746F756B9BC66BF59CC66CF5000E88
:104690006E6F640E6D6FDFECABF0050174516B0350
:1046A000F3C476F5F4C477F56C03F35077277551AE
:1046B0006B03F350772776C595F677C596F6060116
:1046C00095519925936F96519A21946F93519D5DC1
:1046D00094519E59D8B06FEFA3F071EFA3F08CEF17
:1046E000A3F099C674F59AC675F5D890050174378C
:1046F0007537060193510501745F06019451050158
:10470000755BEA0E74250601976FFF0E0501752192
:104710000601986F92EFA3F0EA0E9925976FFF0EAE
:104720009A21986F97C672F598C673F512004AC71A
:104730006FF54BC770F54CC771F54DC772F597EC27
:10474000AAF06FC57FF570C580F571C581F572C59A
:1047500082F5F8EFA3F0010E6DECB4F084ECB6F046
:104760006BC54AF76CC54BF76DC54CF76EC54DF779
:10477000010E576E0BEFA4F00501825181118011DB
:1047800009E1970E7F5DD8A0C8EFA3F0CAEFA3F0B0
:104790000BEFA4F0010E81ECB4F0020E6DECB4F05E
:1047A00084ECB6F06BC54AF76CC54BF76DC54CF79A
:1047B0006EC54DF7020E576E0BEFA4F00501825146
:1047C0008111801109E1970E7F5DD8A0EAEFA3F077
:1047D000ECEFA3F00BEFA4F0020E81ECB4F0030EAB
:1047E000576E0BEFA4F0010E0501FB6F0BEFA4F069
:1047F0005750000AD8B4ABEFA3F0010AD8B4BCEF0D
:10480000A3F0030AD8B4DEEFA3F0010AD8B4F3EFA3
:10481000A3F00BEFA4F0120046C76FF547C770F581
:1048200048C771F549C772F597ECAAF06FC585F5D1
:1048300070C586F571C587F572C588F50501FF510C
:10484000D8B425EFA4F027EFA4F061EFA4F0FB6B40
:10485000576A010E5D6EFF6B61EFA4F085ECB7F057
:104860000501885187110BE1910E855D010E865976
:10487000D8A03DEFA4F03FEFA4F07AEFA4F0020E31
:104880005D6E84ECB6F06BC546F76CC547F76DC539
:1048900048F76EC549F77AEFA4F0010EFD6553EFB6
:1048A000A4F055EFA4F07AEFA4F0010EFC655BEFE5
:1048B000A4F05DEFA4F07AEFA4F097ECA3F07AEF08
:1048C000A4F05D50836F846B8451000AD8B46BEF01
:1048D000A4F07AEFA4F08351010AD8B42EEFA4F02B
:1048E000030AD8B44DEFA4F0010AD8B47AEFA4F0CB
:1048F0007AEFA4F012007FECB7F0000E0701BE6F54
:10490000000EBD6F000EB56F000EB66F000EB76FD4
:10491000000EB86F000EB96F000EBA6F000EBB6FBD
:10492000000EBC6F000E0801F66F000EF56F000E52
:10493000ED6F000EEE6F000EEF6F000EF06F000EC9
:10494000F16F000EF26F000EF36F000EF46F000EA9
:104950000601886F000E876F000E866F000E856F50
:10496000050E3EECA7F0010E59ECB4F0020E59EC26
:10497000B4F0090E05016F6F1E0E6E6FE40EE82E87
:10498000FED76E2FFCD76F2FFAD70000010E45EC33
:10499000B4F0020E45ECB4F0010E0501FF6F000EFD
:1049A00007014E6F000E4F6F000E506F000E516FDB
:1049B0000601B56BEEECADF0000E06018E6F000E39
:1049C0008D6F000E846F000E836F1200980E06012B
:1049D000BC6F070EBD6F010EBE6F9A0EBF6F990EB2
:1049E000C06F990EC16F3E0EC26F6C0EC36F090E81
:1049F000C46F790EC56F3C0EC66F0A0EC76FD70E17
:104A0000C86F230EC96F3C0ECA6F000ECB6F000E2D
:104A1000CC6F480ECD6F450ECE6F000ECF6F000EDF
:104A2000D06F000ED16F000ED26F000ED46F000E4B
:104A3000D36F97EC9AF0D00E0601BC6F080EBD6FD5
:104A4000020EBE6FCD0EBF6FCC0EC06F4C0EC16F8D
:104A50003F0EC26F9C0EC36F530EC46F490EC56FDD
:104A6000370EC66F6F0EC76F120EC86F830EC96FF9
:104A70003A0ECA6F000ECB6F000ECC6F480ECD6F92
:104A8000450ECE6F000ECF6F000ED06F000ED16FAF
:104A9000000ED26F000ED46F000ED36F97EC9AF019
:104AA0001200050171517211D8B459EFA5F05BEFF6
:104AB000A5F064EFA5F071517211D8A462EFA5F0D2
:104AC00064EFA5F069EFA5F06F5166ECB0F0B6EFBA
:104AD000A5F020EE09F07151D9267251DA22DE508C
:104AE000DE10D8B476EFA5F078EFA5F093EFA5F03F
:104AF00020EE09F07151D9267251DA2210EE02F03F
:104B00007151E1267251E222DE50E65CE650800AE5
:104B1000776FDE50800A7759D8B091EFA5F093EF08
:104B2000A5F0B6EFA5F020EE02F07151D926725132
:104B3000DA22DEC473F5DDC474F571C5D9F472C52B
:104B4000DAF4DEC475F5DDC476F573517525D96EDA
:104B500074517621DA6E6FC5DFF420EE02F07151E8
:104B6000D9267251DA22DE2A000EDD2212002AC76F
:104B70006FF52BC770F52CC771F52DC772F597EC43
:104B8000AAF06FC581F570C582F571C583F572C550
:104B900084F504EFA6F084518311821109E1650EBA
:104BA000815DD8A0D6EFA5F0D8EFA5F01AEFA6F05A
:104BB0007BECB7F0010E4B6E84ECB6F06BC52AF7B8
:104BC0006CC52BF76DC52CF76EC52DF71AEFA6F047
:104BD00084518311821109E1650E815DD8A0F3EF44
:104BE000A5F0F5EFA5F01AEFA6F07DECB7F04B6A53
:104BF00084ECB6F06BC52AF76CC52BF76DC52CF7A6
:104C00006EC52DF71AEFA6F04B5005017F6F806B34
:104C10008051000AD8B40FEFA6F01AEFA6F07F512A
:104C2000000AD8B4CBEFA5F0010AD8B4E8EFA5F09C
:104C30001AEFA6F012000501706B6EBF24EFA6F00C
:104C400022EFA6F02AEFA6F06D6D6E1FD8B06E2B86
:104C5000010E706F6CBF31EFA6F02FEFA6F037EFAB
:104C6000A6F06B6D6C1FD8B06C2B010E701B000E84
:104C7000726F000E716F6D516E11D8B442EFA6F0D5
:104C800044EFA6F06CEFA6F0010E6F6F4CEFA6F0AC
:104C9000D8906D376E376F2B6EAF51EFA6F053EF94
:104CA000A6F048EFA6F0D890713772376D516B5D62
:104CB0006E516C59D8A05FEFA6F061EFA6F066EFD9
:104CC000A6F06D516B5F6E516C5B7181D8906E3345
:104CD0006D336F2F53EFA6F07051D8B472EFA6F07A
:104CE00074EFA6F078EFA6F0716D721FD8B0722B3A
:104CF00071C56BF572C56CF51200BE6A860EBF6E8B
:104D0000C06AC16A040EC26E400EC36E0401026B1B
:104D1000060E0A6F126B1A6B226B2A6BFB0EC66EA5
:104D2000A00EC76E080EC86E020EC96E080ECA6EBF
:104D3000CB6AFB0E006F290E086F106B186B206B8F
:104D4000286B016B800E096F116B196B216B296B3E
:104D500003690B6913691B69070E236F2B690469CB
:104D60000C6914691C690F0E246F2C690201896B90
:104D7000886B876B866B190E746F130E726F230E20
:104D8000196F1C0E0C6F1A0E096F200E136F090E8F
:104D9000716F370E0A6F0A0E706F380E0B6F0401B9
:104DA000056B066B076B0D6B0E6B0F6B156B166B44
:0A4DB000176B256B266B276B1200B2
:104DBC00D8C426F53CECB6F00009D8B4E8EFA6F060
:104DCC00EAEFA6F0F2EFA6F0030E3E6E0201979BFF
:104DDC00DEECB1F03AEFA7F047ECB6F00009D8B42E
:104DEC00FAEFA6F0FCEFA6F00EEFA7F01BECB6F076
:104DFC000009D8B404EFA7F006EFA7F00EEFA7F068
:104E0C00010E3E6E02019799E2ECB4F03AEFA7F076
:104E1C0026ECB6F00009D8B416EFA7F018EFA7F0FF
:104E2C0028EFA7F01BECB6F00009D8B420EFA7F0E0
:104E3C0022EFA7F028EFA7F0020E3E6E0201979921
:104E4C000AEFA7F031ECB6F00009D8B430EFA7F0B8
:104E5C0032EFA7F038EFA7F0030E3E6E0201979DDC
:104E6C003AEFA7F0020197993E5026C5D8F41100ED
:104E7C0005016D6F05016D05D8A447EFA7F049EF4B
:104E8C00A7F053EFA7F0000E6C6F000E6B6FE9EC00
:104E9C00B6F083ECB7F098EFA7F0020E6D19D8A41A
:104EAC005AEFA7F05CEFA7F066EFA7F0000E6C6F5F
:104EBC00000E6B6FE3ECB6F081ECB7F098EFA7F057
:104ECC00020E6D19D8A46DEFA7F06FEFA7F071EF7C
:104EDC00A7F098EFA7F0020E6D19D8A478EFA7F001
:104EEC007AEFA7F07CEFA7F098EFA7F0050E6D19FD
:104EFC00D8A483EFA7F085EFA7F098EFA7F0000EEA
:104F0C006C6F000E6B6FE9ECB6F083ECB7F0000E33
:104F1C0005016C6F000E6B6FE3ECB6F081ECB7F033
:104F2C0098EFA7F01200050120EE40F06B51D92646
:104F3C006C51DA22DF506D6F0F0E6D1720EE40F0C2
:104F4C006B51D9266C51DA22DF506E6F6E390F0B14
:104F5C000A0DF3506D25716F20EE41F06B51D9267F
:104F6C006C51DA22DF506D6F0F0E6D1720EE41F091
:104F7C006B51D9266C51DA22DF506E6F6E390F0BE4
:104F8C000A0DF3506D25726F7151640DF3C46DF5FC
:104F9C00F4C46EF572516D250601F66F0501000E15
:104FAC006E210601F76FE80E05016D6F030E6E6F33
:104FBC006D510601F603F3C46FF5F4C470F5F703F5
:104FCC00F350050170276E510601F6030501F350ED
:104FDC0070276FC5F6F670C5F7F61200FAC401F526
:104FEC00FBC402F5B39E77A0FEEFA7F000EFA8F08C
:104FFC0022EFA8F076A005EFA8F007EFA8F022EFBB
:10500C00A8F076900601555156115711D8B411EFEE
:10501C00A8F013EFA8F049EFA8F002D820EFA8F001
:10502C000500FA6E5551FD6E5651FE6E5751FF6ECE
:10503C00FA50120049EFA8F077A227EFA8F029EF59
:10504C00A8F049EFA8F076A22EEFA8F030EFA8F068
:10505C0049EFA8F076920601525153115411D8B46D
:10506C003AEFA8F03CEFA8F049EFA8F002D849EFCE
:10507C00A8F00500FA6E5251FD6E5351FE6E54515C
:10508C00FF6EFA50120002C5FBF401C5FAF41100D0
:10509C00FAC405F5FBC406F5B59E86A058EFA8F03A
:1050AC005AEFA8F07CEFA8F085A05FEFA8F061EFB5
:1050BC00A8F07CEFA8F0859006014C514D114E11D3
:1050CC00D8B46BEFA8F06DEFA8F0A3EFA8F002D85E
:1050DC007AEFA8F00500FA6E4C51FD6E4D51FE6E44
:1050EC004E51FF6EFA501200A3EFA8F086A281EF8A
:1050FC00A8F083EFA8F0A3EFA8F085A288EFA8F0A2
:10510C008AEFA8F0A3EFA8F08592060149514A1145
