:0400000081EF00F09C
:10000800C55EC55EC55EC55E4000C55E4000C55E96
:100018009B5EC55EBF5EC55EC55EC55EC55EC55EF0
:10002800C05E400040004000C55EC55EC55EC55E5E
:10003800C55EC55EC55E955BBA5AC55EC55E845B26
:10004800F25DB55EC55EC55E40004000C55EC55E3A
:10005800C55EC55EC55E4000C55EC55E625B7D5619
:100068009D5EC55EC55EC55EC55EC55EC55EC55E98
:10007800D75DDE5DAF5793554000C55E735BAA56EA
:10008800CF5D6B5EC55EC55EC55EC55EC55EC55EA1
:10009800C55EC55EC55EC55E4000C55E40004000E9
:1000A8009F5EC55EC55EC55EC55EC55EC55EC55E56
:1000B800C55EC55EC55EF55AC55EC55EC55EC55EF4
:1000C800C55EC55EC55EC55EC55EC55EC55EC55E10
:1000D800C55EC55EC55EC55EC55EC55EC55EC55E00
:1000E8004000C55EC55EC55E40004000400040005F
:0E00F800C55EC55EC55EC55EFF0035EFA4F0B7
:10F6B8000000C0C101C30302C2C60607C705C5C40E
:10F6C80004CC0C0DCD0FCFCE0E0ACACB0BC909083E
:10F6D800C8D81819D91BDBDA1A1EDEDF1FDD1D1C7E
:10F6E800DC14D4D515D71716D6D21213D311D1D00E
:10F6F80010F03031F133F3F23236F6F737F53534AE
:10F70800F43CFCFD3DFF3F3EFEFA3A3BFB39F9F87D
:10F718003828E8E929EB2B2AEAEE2E2FEF2DEDEC1D
:10F728002CE42425E527E7E62622E2E323E121204D
:10F73800E0A06061A163A3A26266A6A767A565644D
:10F74800A46CACAD6DAF6F6EAEAA6A6BAB69A9A8BD
:10F758006878B8B979BB7B7ABABE7E7FBF7DBDBCFD
:10F768007CB47475B577B7B67672B2B373B171708D
:10F77800B0509091519353529296565797559594ED
:10F78800549C5C5D9D5F9F9E5E5A9A9B5B995958FD
:10F7980098884849894B8B8A4A4E8E8F4F8D4D4C9D
:10F7A8008C448485458747468682424383418180CD
:10F7B8004000C1814001C0804101C0804100C18139
:10F7C8004001C0804100C1814000C1814001C0802A
:10F7D8004101C0804100C1814000C1814001C08019
:10F7E8004100C1814001C0804101C0804100C18108
:10F7F8004001C0804100C1814000C1814001C080FA
:10F808004100C1814001C0804101C0804100C181E7
:10F818004000C1814001C0804101C0804100C181D8
:10F828004001C0804100C1814000C1814001C080C9
:10F838004101C0804100C1814000C1814001C080B8
:10F848004100C1814001C0804101C0804100C181A7
:10F858004000C1814001C0804101C0804100C18198
:10F868004001C0804100C1814000C1814001C08089
:10F878004100C1814001C0804101C0804100C18177
:10F888004001C0804100C1814000C1814001C08069
:10F898004101C0804100C1814000C1814001C08058
:10F8A8004100C1814001C0804101C0804100C18147
:10F8B8004000C0C101C30302C2C60607C705C5C4CC
:10F8C80004CC0C0DCD0FCFCE0E0ACACB0BC909083C
:10F8D800C8D81819D91BDBDA1A1EDEDF1FDD1D1C7C
:10F8E800DC14D4D515D71716D6D21213D311D1D00C
:10F8F80010F03031F133F3F23236F6F737F53534AC
:10F90800F43CFCFD3DFF3F3EFEFA3A3BFB39F9F87B
:10F918003828E8E929EB2B2AEAEE2E2FEF2DEDEC1B
:10F928002CE42425E527E7E62622E2E323E121204B
:10F93800E0A06061A163A3A26266A6A767A565644B
:10F94800A46CACAD6DAF6F6EAEAA6A6BAB69A9A8BB
:10F958006878B8B979BB7B7ABABE7E7FBF7DBDBCFB
:10F968007CB47475B577B7B67672B2B373B171708B
:10F97800B0509091519353529296565797559594EB
:10F98800549C5C5D9D5F9F9E5E5A9A9B5B995958FB
:10F9980098884849894B8B8A4A4E8E8F4F8D4D4C9B
:10F9A8008C448485458747468682424383418180CB
:10F9B8004000C1814001C0804101C0804100C18137
:10F9C8004001C0804100C1814000C1814001C08028
:10F9D8004101C0804100C1814000C1814001C08017
:10F9E8004100C1814001C0804101C0804100C18106
:10F9F8004001C0804100C1814000C1814001C080F8
:10FA08004100C1814001C0804101C0804100C181E5
:10FA18004000C1814001C0804101C0804100C181D6
:10FA28004001C0804100C1814000C1814001C080C7
:10FA38004101C0804100C1814000C1814001C080B6
:10FA48004100C1814001C0804101C0804100C181A5
:10FA58004000C1814001C0804101C0804100C18196
:10FA68004001C0804100C1814000C1814001C08087
:10FA78004100C1814001C0804101C0804100C18175
:10FA88004001C0804100C1814000C1814001C08067
:10FA98004101C0804100C1814000C1814001C08056
:10FAA8004100C1814001C0804101C0804100C18145
:10FAB8004000C0C101C30302C2C60607C705C5C4CA
:10FAC80004CC0C0DCD0FCFCE0E0ACACB0BC909083A
:10FAD800C8D81819D91BDBDA1A1EDEDF1FDD1D1C7A
:10FAE800DC14D4D515D71716D6D21213D311D1D00A
:10FAF80010F03031F133F3F23236F6F737F53534AA
:10FB0800F43CFCFD3DFF3F3EFEFA3A3BFB39F9F879
:10FB18003828E8E929EB2B2AEAEE2E2FEF2DEDEC19
:10FB28002CE42425E527E7E62622E2E323E1212049
:10FB3800E0A06061A163A3A26266A6A767A5656449
:10FB4800A46CACAD6DAF6F6EAEAA6A6BAB69A9A8B9
:10FB58006878B8B979BB7B7ABABE7E7FBF7DBDBCF9
:10FB68007CB47475B577B7B67672B2B373B1717089
:10FB7800B0509091519353529296565797559594E9
:10FB8800549C5C5D9D5F9F9E5E5A9A9B5B995958F9
:10FB980098884849894B8B8A4A4E8E8F4F8D4D4C99
:10FBA8008C448485458747468682424383418180C9
:10FBB8004000C1814001C0804101C0804100C18135
:10FBC8004001C0804100C1814000C1814001C08026
:10FBD8004101C0804100C1814000C1814001C08015
:10FBE8004100C1814001C0804101C0804100C18104
:10FBF8004001C0804100C1814000C1814001C080F6
:10FC08004100C1814001C0804101C0804100C181E3
:10FC18004000C1814001C0804101C0804100C181D4
:10FC28004001C0804100C1814000C1814001C080C5
:10FC38004101C0804100C1814000C1814001C080B4
:10FC48004100C1814001C0804101C0804100C181A3
:10FC58004000C1814001C0804101C0804100C18194
:10FC68004001C0804100C1814000C1814001C08085
:10FC78004100C1814001C0804101C0804100C18173
:10FC88004001C0804100C1814000C1814001C08065
:10FC98004101C0804100C1814000C1814001C08054
:10FCA8004100C1814001C0804101C0804100C18143
:10FCB8004000C0C101C30302C2C60607C705C5C4C8
:10FCC80004CC0C0DCD0FCFCE0E0ACACB0BC9090838
:10FCD800C8D81819D91BDBDA1A1EDEDF1FDD1D1C78
:10FCE800DC14D4D515D71716D6D21213D311D1D008
:10FCF80010F03031F133F3F23236F6F737F53534A8
:10FD0800F43CFCFD3DFF3F3EFEFA3A3BFB39F9F877
:10FD18003828E8E929EB2B2AEAEE2E2FEF2DEDEC17
:10FD28002CE42425E527E7E62622E2E323E1212047
:10FD3800E0A06061A163A3A26266A6A767A5656447
:10FD4800A46CACAD6DAF6F6EAEAA6A6BAB69A9A8B7
:10FD58006878B8B979BB7B7ABABE7E7FBF7DBDBCF7
:10FD68007CB47475B577B7B67672B2B373B1717087
:10FD7800B0509091519353529296565797559594E7
:10FD8800549C5C5D9D5F9F9E5E5A9A9B5B995958F7
:10FD980098884849894B8B8A4A4E8E8F4F8D4D4C97
:10FDA8008C448485458747468682424383418180C7
:10FDB8004000C1814001C0804101C0804100C18133
:10FDC8004001C0804100C1814000C1814001C08024
:10FDD8004101C0804100C1814000C1814001C08013
:10FDE8004100C1814001C0804101C0804100C18102
:10FDF8004001C0804100C1814000C1814001C080F4
:10FE08004100C1814001C0804101C0804100C181E1
:10FE18004000C1814001C0804101C0804100C181D2
:10FE28004001C0804100C1814000C1814001C080C3
:10FE38004101C0804100C1814000C1814001C080B2
:10FE48004100C1814001C0804101C0804100C181A1
:10FE58004000C1814001C0804101C0804100C18192
:10FE68004001C0804100C1814000C1814001C08083
:10FE78004100C1814001C0804101C0804100C18171
:10FE88004001C0804100C1814000C1814001C08063
:10FE98004101C0804100C1814000C1814001C08052
:10FEA8004100C1814001C0804101C0804100C18141
:10FEB80040EE5F01000000000000000000000000AC
:10FEC800000000000000000000000000000000002A
:10FED800000000000000000000000000000000001A
:10FEE800000000000000000000000000006476012F
:10FEF8004076011C7601000000145E01000000D469
:10FF08006F01386B01000000AE77010000000000AF
:10FF180000000000000000000000000000000000D9
:10FF2800000000000000000000000000000000F4D5
:10FF38007601000000D07601AC76018876010000D9
:10FF4800002E6701000000926801EA6801000000C5
:10FF5800000000000000EA730100000000000043F8
:10FF680048317C493A252E32667C50574D3A2564F3
:10FF78007C563A252E32667C503A252E32667C0A0B
:10FF88000D20004348327C493A252E32667C505772
:10FF98004D3A25647C563A252E32667C503A252EF9
:10FFA80032667C0A0D200054503A252E32667C5564
:10FFB800524745313A25647C55524745323A2564C3
:10FFC8007C200A0D2000566F7574313A25647C50E8
:10FFD800726F3A25647C0A0D2000566F7574323AA8
:10FFE80025647C50726F3A25647C0A0D2000696E86
:07FFF80066006E616E00005F
:020000040001F9
:100000000601446B1EC645F61FC646F620C647F6D7
:1000100021C648F648BF11EF80F00FEF80F025EFC2
:1000200080F0010E446F45C66BF546C66CF547C6B9
:100030006DF548C66EF526ECB8F06BC545F66CC597
:1000400046F66DC547F66EC548F6000E06014A6FC6
:10005000000E496F9CC634F69DC635F64451D8B49F
:1000600034EF80F036EF80F04AEF80F04451D8A4AE
:100070003CEF80F03EEF80F044EF80F0000E2A6FFE
:100080002B0E296F48EF80F0000E2A6F2D0E296F7E
:1000900029C644F645C66BF546C66CF547C66DF5F0
:1000A00048C66EF565ECA7F005016B056C11D8A488
:1000B0005CEF80F05EEF80F095EF80F00601445138
:1000C000D8B465EF80F067EF80F070EF80F044C641
:1000D00048FA3407D8A03507000E4A6F010E496F61
:1000E000480E492505016B6F0A0E06014A210501DC
:1000F0006C6FF60E6D6FFF0E6E6F8DECB7F0060134
:10010000FD0E3427FF0E35231CC67FF51DC680F576
:10011000480E0501816F0A0E826F34C683F535C61D
:1001200084F5F8ECB1F037EF85F045C66BF546C6BF
:100130006CF547C66DF548C66EF565ECA7F0050190
:100140006B516C11D8A4A7EF80F0A9EF80F0CCEF31
:1001500080F006014451D8B4B0EF80F0B2EF80F0E7
:10016000BBEF80F044C648FA3407D8A03507000E2C
:100170004A6F010E496F480E492505016B6F0A0E43
:1001800006014A2105016C6FFA0E6D6FFF0E6E6F4E
:100190008DECB7F07FEF80F0000E06014B6F000E84
:1001A0004C6F800E4D6F3F0E4E6F000E336F000E82
:1001B000326F45C66BF546C66CF547C66DF548C649
:1001C0006EF5000E05016F6F000E706F000E716FFF
:1001D000000E726F5EECAEF00501D8B0F2EF80F069
:1001E000F4EF80F0EEEF81F001EF81F036C64BF6D0
:1001F00037C64CF638C64DF639C64EF60601324BB8
:10020000332B4BC6C7F54CC6C8F54DC6C9F54EC60F
:10021000CAF5000E0501CB6F000ECC6F200ECD6F1E
:10022000410ECE6F5EEC8AF0C7C536F6C8C537F60C
:10023000C9C538F6CAC539F606013651455D05010E
:100240006B6F06013751465905016C6F0601385135
:10025000475905016D6F06013951485905016E6F07
:10026000F1ECB3F005016EBF41EF81F06E516D11FD
:100270006C1109E1020E6B5DD8A041EF81F043EFF4
:1002800081F0F6EF80F036C600F637C601F638C6C4
:1002900002F639C603F645C604F646C605F647C655
:1002A00006F648C607F678ECA2F00601D8A05BEF88
:1002B00081F05DEF81F0F6EF80F04B51455D050177
:1002C0006B6F06014C51465905016C6F06014D518B
:1002D000475905016D6F06014E51485905016E6F72
:1002E000F1ECB3F005016EBF83EF81F06E516D113B
:1002F0006C1107E1020E6B5DD8B081EF81F083EFE6
:1003000081F0D4EF81F04BC645F64CC646F64DC69B
:1003100047F64EC648F6EEEF81F04BC6AEF54CC63A
:10032000AFF54DC6B0F54EC6B1F5000E0501B26F82
:10033000000EB36F200EB46F410EB56F72EC8CF0EF
:10034000AEC54BF6AFC54CF6B0C54DF6B1C54EF6D1
:1003500006013207D8A033074B51455D05016B6F8D
:1003600006014C51465905016C6F06014D51475924
:1003700005016D6F06014E51485905016E6FF1EC94
:10038000B3F005016EBFD2EF81F06E516D116C11AB
:1003900007E1020E6B5DD8B0D0EF81F0D2EF81F0B3
:1003A000D4EF81F083EF81F045C600F646C601F632
:1003B00047C602F648C603F64BC604F64CC605F619
:1003C0004DC606F64EC607F678ECA2F00601D8A098
:1003D000ECEF81F0EEEF81F08DEF81F022C62CF68C
:1003E0002CC62DF606019FBFF8EF81F0FAEF81F0E1
:1003F00000EF82F09EC625F69FC626F604EF82F037
:10040000000E266F060E256F25C630F626C631F67D
:10041000304B312B660E2D19D8A411EF82F013EF5B
:1004200082F033EF82F033BF1AEF82F018EF82F0E0
:1004300026EF82F0000E4B6F000E4C6F800E4D6F5A
:100440003F0E4E6F000E336F000E326F670E2C1989
:10045000D8B42DEF82F02FEF82F033EF82F03251DB
:10046000302733513123000E3B6F000E3A6F45C6E3
:100470003CF646C63DF647C63EF648C63FF64BC676
:1004800036F64CC637F64DC638F64EC639F6C5EFC9
:1004900082F03CC6AEF53DC6AFF53EC6B0F53FC6F0
:1004A000B1F54BC6B2F54CC6B3F54DC6B4F54EC664
:1004B000B5F572EC8CF0AEC5C7F5AFC5C8F5B0C5E3
:1004C000C9F5B1C5CAF589EC96F0C7C540F6C8C5EF
:1004D00041F6C9C542F6CAC543F640C618F641C63C
:1004E00019F642C61AF643C61BF658ECA5F018C614
:1004F0002EF619C62FF63CC600F63DC601F63EC6DE
:1005000002F63FC603F640C6CBF541C6CCF542C65F
:10051000CDF543C6CEF54BC6C7F54CC6C8F54DC69E
:10052000C9F54EC6CAF55EEC8AF0C7C504F6C8C563
:1005300005F6C9C506F6CAC507F659ECB6F000C6F9
:100540003CF601C63DF602C63EF603C63FF64BC674
:10055000AEF54CC6AFF54DC6B0F54EC6B1F5000EC2
:100560000501B26F000EB36F200EB46F410EB56F70
:1005700072EC8CF0AEC54BF6AFC54CF6B0C54DF67F
:10058000B1C54EF606013A4B3B2B30513A5D3B511B
:10059000800A0501EE6F06013151800A0501EE590E
:1005A000D8A0D5EF82F0D7EF82F049EF82F04BC6AA
:1005B000C7F54CC6C8F54DC6C9F54EC6CAF5000EFE
:1005C000CB6F000ECC6FA00ECD6F400ECE6F5EECE9
:1005D0008AF0C7C540F6C8C541F6C9C542F6CAC5C6
:1005E00043F63CC600F63DC601F63EC602F63FC6DF
:1005F00003F640C604F641C605F642C606F643C6F3
:1006000007F678ECA2F00601D8B009EF83F00BEF03
:1006100083F015EF83F0000E406F000E416F000E67
:10062000426F000E436F3FEF83F03CC66BF53DC653
:100630006CF53EC66DF53FC66EF540C66FF541C61A
:1006400070F542C671F543C672F55EECAEF0050179
:10065000D8A02DEF83F02FEF83F03FEF83F006015A
:100660002EB135EF83F037EF83F03FEF83F0000ECC
:10067000406F000E416F000E426F000E436F45C683
:100680006BF546C66CF547C66DF548C66EF540C6B7
:100690006FF541C670F542C671F543C672F502ECBE
:1006A00088F06BC53CF66CC53DF66DC53EF66EC573
:1006B0003FF63CC600F63DC601F63EC602F63FC612
:1006C00003F6000E0501CB6F000ECC6F200ECD6F30
:1006D000410ECE6F36C6C7F537C6C8F538C6C9F560
:1006E00039C6CAF55EEC8AF0C7C504F6C8C505F67A
:1006F000C9C506F6CAC507F678ECA2F00601D8A06F
:1007000084EF83F086EF83F0AFEF83F0324B332B2F
:1007100036C6C7F537C6C8F538C6C9F539C6CAF5ED
:10072000000E0501CB6F000ECC6F200ECD6F410E79
:10073000CE6F5EEC8AF0C7C536F6C8C537F6C9C5B8
:1007400038F6CAC539F6660E06012D19D8A4ABEFE6
:1007500083F0ADEF83F0AFEF83F0304B312B36C633
:100760004BF637C64CF638C64DF639C64EF632C68D
:1007700023F633C624F62B6B000E286F000E276F6E
:10078000000E3B6F000E3A6FACEF84F03CC6AEF546
:100790003DC6AFF53EC6B0F53FC6B1F54BC6B2F5A6
:1007A0004CC6B3F54DC6B4F54EC6B5F572EC8CF03B
:1007B000AEC5C7F5AFC5C8F5B0C5C9F5B1C5CAF571
:1007C00089EC96F0C7C540F6C8C541F6C9C542F6E2
:1007D000CAC543F640C618F641C619F642C61AF60F
:1007E00043C61BF658ECA5F0060119BF03EF84F0D1
:1007F000195107E10A0E185DD8B001EF84F003EF3C
:1008000084F013EF84F040C618F641C619F642C6CC
:100810001AF643C61BF658ECA5F018C62EF619C6F4
:100820002FF617EF84F0000E2F6F090E2E6F0601C2
:100830002B51D8A41EEF84F020EF84F048EF84F011
:1008400024BF27EF84F025EF84F048EF84F0480EB2
:100850004925D96E0A0E4A21DA6E2E0EDF6E494BFB
:100860004A2B3407D8A03507010E2B6F48EF84F0D0
:10087000480E4925D96E0A0E4A21DA6E300EDF6E17
:10088000494B4A2B3407D8A035072707D8A028079B
:1008900027512811D8A44FEF84F051EF84F038EF9E
:1008A00084F0480E4925D96E0A0E4A21DA6E2E517F
:1008B000300FDF6E494B4A2B3407D8A035073CC6B2
:1008C00000F63DC601F63EC602F63FC603F640C638
:1008D000CBF541C6CCF542C6CDF543C6CEF54BC6E9
:1008E000C7F54CC6C8F54DC6C9F54EC6CAF55EEC8F
:1008F0008AF0C7C504F6C8C505F6C9C506F6CAC557
:1009000007F659ECB6F000C63CF601C63DF602C645
:100910003EF603C63FF64BC6AEF54CC6AFF54DC628
:10092000B0F54EC6B1F5000E0501B26F000EB36F03
:10093000200EB46F410EB56F72EC8CF0AEC54BF665
:10094000AFC54CF6B0C54DF6B1C54EF6060123074E
:10095000D8A024073A4B3B2B30513A5D3B51800ADB
:100960000501EE6F06013151800A0501EE59D8B03C
:10097000BCEF84F0BEEF84F0CDEF84F006014ABFF7
:10098000CBEF84F04A5109E14B0E495DD8A0CBEF83
:1009900084F0CDEF84F0C6EF83F0000E06013B6FCC
:1009A0004F0E3A6F480E3A25D96E0A0E3B21DA6E89
:1009B000DF6A480E0501EE6F0A0EEF6F060149511E
:1009C0000501EE5F06014A510501EF5B06013A5150
:1009D0000501EE256B6F06013B510501EF216C6FA0
:1009E000480E6D6F0A0E6E6F49C66FF54AC670F5F8
:1009F00022ECB5F0060149513A5D496F4A513B5925
:100A00004A6F4451D8A407EF85F00AEF85F0010E34
:100A10000BEF85F0000E3A6F3B6B4451D8B413EFE7
:100A200085F015EF85F020EF85F04907D8A04A073B
:100A3000480E4925D96E0A0E4A21DA6E44C6DFF403
:100A40003A51345F3B51355B1CC67FF51DC680F5BE
:100A5000480E49250501816F0A0E06014A2105014C
:100A6000826F34C683F535C684F5F8ECB1F0120018
:100A70001EC600F61FC601F620C602F621C603F602
:100A800022C604F623C605F624C606F625C607F6D2
:100A900059ECB6F000C642F601C643F602C644F66B
:100AA00003C645F6060120EE01F01C51D9261D5162
:100AB000DA22DEC4C7F5DEC4C8F5DEC4C9F5DEC47B
:100AC000CAF542C6CBF543C6CCF544C6CDF545C6FE
:100AD000CEF55EEC8AF0C7C526F6C8C527F6C9C5AF
:100AE00028F6CAC529F642C66BF543C66CF544C65E
:100AF0006DF545C66EF544ECB9F06BC500F66CC5F6
:100B000001F66DC502F66EC503F6000E0601046F10
:100B1000000E056F480E066F420E076F78ECA2F0CC
:100B20000601D8B096EF85F098EF85F037EF86F0A4
:100B300020EE1DF01C51D9261D51DA22DEC46BF5C2
:100B4000DEC46CF5DEC46DF5DEC46EF542C66FF52D
:100B500043C670F544C671F545C672F502EC88F0DF
:100B6000060120EE1DF01C51D9261D51DA22050187
:100B70006BC5DEF46CC5DEF46DC5DEF46EC5DEF467
:100B8000060120EE0DF01C51D9261D51DA22DEC4DB
:100B900000F6DEC401F6DEC402F6DEC403F620EE83
:100BA0001DF01C51D9261D51DA22DEC404F6DEC424
:100BB00005F6DEC406F6DEC407F678ECA2F0060100
:100BC000D8B0E5EF85F0E7EF85F0FBEF85F020EE9C
:100BD0000DF01C51D9261D51DA2210EE1DF01C51CA
:100BE000E1261D51E222DEC4E6F4DEC4E6F4DEC4F2
:100BF000E6F4DEC4E6F420EE1DF01C51D9261D51AA
:100C0000DA22DEC400F6DEC401F6DEC402F6DEC47B
:100C100003F620EE11F01C51D9261D51DA22DEC454
:100C200004F6DEC405F6DEC406F6DEC407F678EC8C
:100C3000A2F00601D8B01FEF86F021EF86F045EF55
:100C400086F020EE11F01C51D9261D51DA2210EE4B
:100C50001DF01C51E1261D51E222DEC4E6F4DEC483
:100C6000E6F4DEC4E6F4DEC4E6F445EF86F020EEFA
:100C70001DF01C51D9261D51DA22000EDE6E000E29
:100C8000DE6E000EDE6E000EDD6E20EE05F01C51F5
:100C9000D9261D51DA22DEC4C7F5DEC4C8F5DEC48C
:100CA000C9F5DEC4CAF520EE1DF01C51D9261D5130
:100CB000DA22DEC4CBF5DEC4CCF5DEC4CDF5DEC46D
:100CC000CEF55EEC8AF0C7C52AF6C8C52BF6C9C5B5
:100CD0002CF6CAC52DF6060120EE21F01C51D926AE
:100CE0001D51DA22DEC404F6DEC405F6DEC406F6C3
:100CF000DEC407F642C600F643C601F644C602F655
:100D000045C603F659ECB6F000C6C7F501C6C8F5EE
:100D100002C6C9F503C6CAF5060120EE09F01C514A
:100D2000D9261D51DA22DEC4CBF5DEC4CCF5DEC4F3
:100D3000CDF5DEC4CEF55EEC8AF0C7C52EF6C8C58B
:100D40002FF6C9C530F6CAC531F6060120EE21F0EE
:100D50001C51D9261D51DA2242C6DEF443C6DEF408
:100D600044C6DEF445C6DEF42AC66FF52BC670F520
:100D70002CC671F52DC672F526C66BF527C66CF527
:100D800028C66DF529C66EF502EC88F06BC532F603
:100D90006CC533F66DC534F66EC535F632C66BF5E7
:100DA00033C66CF534C66DF535C66EF52EC66FF5D7
:100DB0002FC670F530C671F531C672F502EC88F0B9
:100DC0006BC53EF66CC53FF66DC540F66EC541F687
:100DD0001CC6D9F41DC6DAF4DE04D8A4F2EF86F0FE
:100DE000F4EF86F075EF87F0060141BFFCEF86F067
:100DF000FAEF86F006EF87F0000E366F000E376FC1
:100E0000000E386FBF0E396F0EEF87F0000E366F91
:100E1000000E376F000E386F3F0E396F3EC66FF50C
:100E20003FC670F540C671F541C672F536C66BF522
:100E300037C66CF538C66DF539C66EF502EC88F02C
:100E40006BC518F66CC519F66DC51AF66EC51BF69E
:100E500058ECA5F006011851B0271951B123000E26
:100E60000C6F000E0D6F480E0E6F450E0F6FB0C663
:100E7000A0F5B1C6A1F50501000EA1BFFF0EA26F3E
:100E8000A36F010E84EC9AF0A0C508F6A1C509F67F
:100E9000A2C50AF6A3C50BF60DECA3F008C614F61E
:100EA00009C615F60AC616F60BC617F6000E060199
:100EB000106F000E116F000E126F000E136FA1EC79
:100EC000A3F010C618F611C619F612C61AF613C604
:100ED0001BF658ECA5F018C6B0F619C6B1F6B0C6A8
:100EE0001CF6B1C61DF601EF88F01CC6D9F41DC66C
:100EF000DAF4020EDE18D8A480EF87F082EF87F0D4
:100F000001EF88F0060141BF8AEF87F088EF87F094
:100F100094EF87F0000E3A6F000E3B6F000E3C6FAF
:100F2000BF0E3D6F9CEF87F0000E3A6F000E3B6FD7
:100F3000000E3C6F3F0E3D6F3EC66FF53FC670F52D
:100F400040C671F541C672F53AC66BF53BC66CF505
:100F50003CC66DF53DC66EF502EC88F06BC518F623
:100F60006CC519F66DC51AF66EC51BF658ECA5F0E2
:100F700006011851AE271951AF23000E0C6F000E59
:100F80000D6F480E0E6F450E0F6FAEC6A0F5AFC6C3
:100F9000A1F50501000EA1BFFF0EA26FA36F010E08
:100FA00084EC9AF0A0C508F6A1C509F6A2C50AF618
:100FB000A3C50BF60DECA3F008C614F609C615F68A
:100FC0000AC616F60BC617F6000E0601106F000EC5
:100FD000116F000E126F000E136FA1ECA3F010C67C
:100FE00018F611C619F612C61AF613C61BF658ECF7
:100FF000A5F018C6AEF619C6AFF6AEC61CF6AFC65B
:101000001DF6120005016E51800B776F6E516E2533
:10101000796F6DAF0EEF88F010EF88F011EF88F068
:1010200079817951D8B417EF88F019EF88F02DEF56
:1010300088F07929D8A41FEF88F021EF88F029EFF4
:1010400088F0000E6B6F000E6C6F000E6D6F000E5F
:101050006E6F6D8F6E6B35EF88F0000E6B6F000E4C
:101060006C6F000E6D6F000E6E6F7251800B786F9B
:1010700077517819D8B43FEF88F041EF88F042EF0C
:1010800088F0778D72517225786F71AF4AEF88F0D2
:101090004CEF88F04DEF88F078817851D8B453EF59
:1010A00088F055EF88F069EF88F07829D8A45BEFD5
:1010B00088F05DEF88F065EF88F0000E6F6F000E2E
:1010C000706F000E716F000E726F718F726B71EF27
:1010D00088F0000E6F6F000E706F000E716F000EC3
:1010E000726F7951785DD8B078EF88F07AEF88F038
:1010F000A1EF88F077AD7FEF88F081EF88F083EF84
:1011000088F0800E771B79C57AF578C579F57AC5B0
:1011100078F56BC57AF56FC56BF57AC56FF56CC55B
:101120007AF570C56CF57AC570F56DC57AF571C53F
:101130006DF57AC571F56EC57AF572C56EF57AC52D
:1011400072F57A6B795178C573F5746B735F000E25
:10115000745B74BFB5EF88F0745109E11A0E735DCA
:10116000D8A0B5EF88F0B7EF88F0EEEF88F06B51BC
:101170006C116D116E11D8A4C0EF88F0C3EF88F028
:10118000010EC4EF88F0000E7A6F000E6B6F000E38
:101190006C6F000E6D6F000E6E6F78C579F5F7EF0E
:1011A00088F07AA1D6EF88F0D8EF88F0DEEF88F0EB
:1011B000D8907A3101097A6FE0EF88F0D8907A33CD
:1011C0006BA1E5EF88F0E7EF88F0E8EF88F07A8F21
:1011D0006E356E336D336C336B33792B7851795DAB
:1011E000D8A0F5EF88F0F7EF88F0D1EF88F077BD61
:1011F000FCEF88F0FEEF88F03EEF89F07951D8A43B
:1012000004EF89F006EF89F010EF89F0000E6B6FA4
:10121000000E6C6F000E6D6F000E6E6F5DEF8AF04A
:101220006F516B2770516C2371516D2372516E2376
:101230006EA11DEF89F01FEF89F0CBEF89F07AA145
:1012400024EF89F026EF89F02CEF89F0D8907A31DD
:1012500001097A6F2EEF89F0D8907A336BA133EFC2
:1012600089F035EF89F036EF89F07A8F6E356E337D
:101270006D336C336B33792BCBEF89F06F516B5D32
:1012800070516C5971516D596E51800A736F725162
:10129000800A7359D8B04FEF89F051EF89F07CEF95
:1012A00089F06B516F5D736F6C517059746F6D5134
:1012B0007159756F6E517259766FFF0E73256B6F92
:1012C000FF0E74216C6FFF0E75216D6FFF0E76217E
:1012D0006E6F800E771B7A6D7A51D8A472EF89F009
:1012E00074EF89F084EF89F0010E6B27000E6C23F8
:1012F0006D236E2384EF89F06F516B5F70516C5BCF
:1013000071516D5B72516E5B6B516C116D116E1191
:10131000D8A48DEF89F08FEF89F0C4EF89F07A516E
:10132000D8A495EF89F097EF89F0C4EF89F0000E0B
:101330006B6F000E6C6F000E6D6F000E6E6F5DEFC9
:101340008AF0D8906B376C376D376E377AAFABEF6A
:1013500089F0ADEF89F0AEEF89F06B817AA1B3EF40
:1013600089F0B5EF89F0B9EF89F0D8807A37BBEF13
:1013700089F0D8907A377951D8B4C1EF89F0C3EFAA
:1013800089F0C4EF89F079076DAFC9EF89F0CBEF31
:1013900089F0A1EF89F0786B7AAFD1EF89F0D3EFC4
:1013A00089F0EBEF89F07AC573F57F0E7317D8B427
:1013B000DCEF89F0DEEF89F0E2EF89F0010E786F63
:1013C000EBEF89F06BA1E7EF89F0E9EF89F0EBEF44
:1013D00089F0DEEF89F07851D8B4F1EF89F0F3EFBE
:1013E00089F01EEF8AF0010E6B27000E6C236D232F
:1013F0006E236EA1FEEF89F000EF8AF01EEF8AF0F7
:101400006BC573F56CC574F56DC575F56EC576F570
:101410007635763375337433733373C56BF574C5B2
:101420006CF575C56DF576C56EF57929D8B41BEFE9
:101430008AF01DEF8AF01EEF8AF0792B7929D8B453
:1014400024EF8AF026EF8AF02EEF8AF07951D8A4A3
:101450002CEF8AF02EEF8AF03FEF8AF0000E6B6FD0
:10146000000E6C6F000E6D6F000E6E6F7951D8A478
:101470003CEF8AF03EEF8AF03FEF8AF0776B79A17C
:1014800044EF8AF046EF8AF049EF8AF06D8F4AEF19
:101490008AF06D9FD89079316E6F77AF52EF8AF0F6
:1014A00054EF8AF055EF8AF06E8F6BC56BF56CC503
:1014B0006CF56DC56DF56EC56EF512000501CA516E
:1014C000800BD36FCA51CA25D96FC9AF6AEF8AF0B2
:1014D0006CEF8AF06DEF8AF0D981D951D8B473EFEF
:1014E0008AF075EF8AF088EF8AF0D929D8A47BEFCB
:1014F0008AF07DEF8AF085EF8AF0000EC76F000E4C
:10150000C86F000EC96F000ECA6FC98F90EF8AF0C6
:10151000000EC76F000EC86F000EC96F000ECA6FB5
:10152000CE51800BD31BCE51CE25D46FCDAF9BEFC8
:101530008AF09DEF8AF09EEF8AF0D481D451D8B41E
:10154000A4EF8AF0A6EF8AF0B9EF8AF0D429D8A4E4
:10155000ACEF8AF0AEEF8AF0B6EF8AF0000ECB6FF8
:10156000000ECC6F000ECD6F000ECE6FCD8FC1EF91
:101570008AF0000ECB6F000ECC6F000ECD6F000E08
:10158000CE6FD451D8B4C7EF8AF0C9EF8AF0D1EF4B
:101590008AF0D951D8A4CFEF8AF0D1EF8AF0DBEFEF
:1015A0008AF0000EC76F000EC86F000EC96F000EE4
:1015B000CA6F71EF8CF0CD51C703F3C4DEF5F4C4EC
:1015C000DFF5DE51D56FD66BD76BD86BDF51DA6F95
:1015D000DB6BDC6BDD6BCC51C803F3C4DEF5F4C40C
:1015E000DFF5DE51D527000ED623D723D823DF51D0
:1015F000DA27000EDB23DC23DD23CB51C903F3C440
:10160000DEF5F4C4DFF5DE51D527000ED623D7234F
:10161000D823DF51DA27000EDB23DC23DD23D7C5F7
:10162000D8F5D6C5D7F5D5C5D6F5D56BCB51C803FA
:10163000F3C4DEF5F4C4DFF5DE51D527DF51D62340
:10164000000ED723000ED823CC51C703F3C4DEF518
:10165000F4C4DFF5DE51D527DF51D623000ED723A2
:10166000000ED823D7C5D8F5D6C5D7F5D5C5D6F53C
:10167000D56BCB51C703F3C4DEF5F4C4DFF5DE51FF
:10168000D527DF51D623000ED723000ED823CD5106
:10169000C803F3C4DEF5F4C4DFF5DE51DA27DF5109
:1016A000DB23000EDC23000EDD23CC51C903F3C481
:1016B000DEF5F4C4DFF5DE51DA27DF51DB23000E5F
:1016C000DC23000EDD23CD51C903F3C4DEF5F4C4E1
:1016D000DFF5DE51CF6FDF51D06FD16BD26BD1C54B
:1016E000D2F5D0C5D1F5CFC5D0F5CF6BCF51DA2724
:1016F000D051DB23D151DC23D251DD23D5C5CFF529
:10170000D6C5D0F5D7C5D1F5D8C5D2F5190E8EEF0F
:101710008BF0D890D233D133D033CF33E82E89EF4A
:101720008BF0CF51DA27D051DB23D151DC23D251BA
:10173000DD23D7C5D8F5D6C5D7F5D5C5D6F5D56B34
:10174000D451D9C5CFF5D06BCF27000ED023820E50
:10175000CF25DE6FFF0ED021DF6FC4EF8BF0D89066
:10176000DA37DB37DC37DD37D8AFB9EF8BF0BBEFDB
:101770008BF0BCEF8BF0DA81D890D537D637D737DE
:10178000D837DE07D8A0DF07DCAFC9EF8BF0CBEF8F
:101790008BF0AFEF8BF0D46BD8AFD1EF8BF0D3EFF2
:1017A0008BF0F7EF8BF0FF0ED515CF6FFF0ED61530
:1017B000D06FFF0ED715D16F7F0ED815D26FCF51D6
:1017C000D011D111D211D8B4E8EF8BF0EAEF8BF041
:1017D000EEEF8BF0010ED46FF7EF8BF0DAA1F3EFA1
:1017E0008BF0F5EF8BF0F7EF8BF0EAEF8BF0D45145
:1017F000D8B4FDEF8BF0FFEF8BF023EF8CF0010EF0
:10180000DA27000EDB23DC23DD23DDA10AEF8CF0D9
:101810000CEF8CF023EF8CF0DAC5CFF5DBC5D0F5FB
:10182000DCC5D1F5DDC5D2F5D235D233D133D033D5
:10183000CF33CFC5DAF5D0C5DBF5D1C5DCF5D2C5E0
:10184000DDF5DE4BDF2BDFBF2EEF8CF0DF5108E143
:10185000DE29D8A02EEF8CF030EF8CF03AEF8CF030
:10186000000EDA6F000EDB6F800EDC6F7F0EDD6F17
:1018700067EF8CF0DFBF47EF8CF0DF5106E1DE054C
:10188000D8B045EF8CF047EF8CF052EF8CF0000EA3
:10189000DA6F000EDB6F000EDC6F000EDD6FD36BB6
:1018A00067EF8CF0DEC5D9F5FF0EDA17FF0EDB17F8
:1018B0007F0EDC17000EDD17D9A161EF8CF063EF0E
:1018C0008CF064EF8CF0DC8FD890D931DD6FD35180
:1018D000DD13DAC5C7F5DBC5C8F5DCC5C9F5DDC55F
:1018E000CAF512000501B151800BBE6FB151B1258F
:1018F000C56FB0AF7EEF8CF080EF8CF081EF8CF095
:10190000C581C551D8B487EF8CF089EF8CF09DEF7D
:101910008CF0C529D8A48FEF8CF091EF8CF099EF63
:101920008CF0000EAE6F000EAF6F000EB06F000EA9
:10193000B16FB08FB16BA5EF8CF0000EAE6F000EE3
:10194000AF6F000EB06F000EB16FB551800BBE1BB4
:10195000B551B525C66FB4AFB0EF8CF0B2EF8CF0D7
:10196000B3EF8CF0C681C651D8B4B9EF8CF0BBEFA1
:101970008CF0CFEF8CF0C629D8A4C1EF8CF0C3EF68
:101980008CF0CBEF8CF0000EB26F000EB36F000E38
:10199000B46F000EB56FB48FB56BD7EF8CF0000E3F
:1019A000B26F000EB36F000EB46F000EB56FB25180
:1019B000B311B411B511D8A4E0EF8CF0E2EF8CF0C4
:1019C000FAEF8CF0000EAE6F000EAF6F000EB06F2E
:1019D000000EB16F800EB0137F0EB113BE51B11364
:1019E000AEC5AEF5AFC5AFF5B0C5B0F5B1C5B1F593
:1019F0003AEF8EF0C551D8A400EF8DF002EF8DF0D4
:101A00000CEF8DF0000EAE6F000EAF6F000EB06FDA
:101A1000000EB16F3AEF8EF0C651C5C5B6F5B76B83
:101A2000B65F000EB75B7F0EB625BF6F000EB72105
:101A3000C06FAEC5BAF5AFC5BBF5B0C5BCF5B1C595
:101A4000BDF5000EAE6F000EAF6F000EB06F000E52
:101A5000B16F000EC16F000EC26F000EC36F000E9B
:101A6000C46FC66B6CEF8DF0C651D8B43AEF8DF0F1
:101A70003CEF8DF053EF8DF0D890BA37BB37BC37C1
:101A8000BD37D890AE37AF37B037B137C4AF4BEFB3
:101A90008DF04DEF8DF04EEF8DF0AE81D890C137C7
:101AA000C237C337C437B251BA5DB351BB59B45111
:101AB000BC59B551BD59D8A060EF8DF062EF8DF0E3
:101AC0006BEF8DF0C48DB251BA5FB351BB5BB451B3
:101AD000BC5BB551BD5BC62B190EC66572EF8DF0B0
:101AE00074EF8DF034EF8DF0BA51BB11BC11BD1104
:101AF000D8B47DEF8DF07FEF8DF097EF8DF0C18141
:101B000097EF8DF0D890AE37AF37B037B137C4AF5D
:101B10008CEF8DF08EEF8DF08FEF8DF0AE81D89041
:101B2000C137C237C337C437BF07D8A0C007B0AF6B
:101B30009CEF8DF09EEF8DF082EF8DF0C66BC4AF01
:101B4000A4EF8DF0A6EF8DF0CAEF8DF0FF0EC1155A
:101B5000B66FFF0EC215B76FFF0EC315B86F7F0EBD
:101B6000C415B96FB651B711B811B911D8B4BBEFDC
:101B70008DF0BDEF8DF0C1EF8DF0010EC66FCAEF95
:101B80008DF0AEA1C6EF8DF0C8EF8DF0CAEF8DF0ED
:101B9000BDEF8DF0C651D8B4D0EF8DF0D2EF8DF0FF
:101BA000F6EF8DF0010EAE27000EAF23B023B12368
:101BB000B1A1DDEF8DF0DFEF8DF0F6EF8DF0AEC56A
:101BC000B6F5AFC5B7F5B0C5B8F5B1C5B9F5B93516
:101BD000B933B833B733B633B6C5AEF5B7C5AFF51D
:101BE000B8C5B0F5B9C5B1F5BF4BC02BC0BF01EF4B
:101BF0008EF0C05108E1BF29D8A001EF8EF003EFAD
:101C00008EF00EEF8EF0000EC06FBF69000EAE6F4B
:101C1000000EAF6F000EB06F000EB16FC0BF1BEFB4
:101C20008EF0C05106E1BF05D8B019EF8EF01BEF62
:101C30008EF028EF8EF0000EC06F000EBF6F000E0A
:101C4000AE6F000EAF6F000EB06F000EB16FBE6BC7
:101C5000BFC5C5F5C5A12FEF8EF031EF8EF034EF83
:101C60008EF0B08F35EF8EF0B09FD890C531B16F48
:101C7000EEEF8CF01200CEECB0F0E806D8A443EF03
:101C80008EF045EF8EF04AEF8EF0030ECCECB4F000
:101C9000DCEF8FF0E5ECA6F0050172C5A0F573C589
:101CA000A1F5A26BA36B000E84EC9AF0A0C530F7EF
:101CB000A1C531F7A2C532F7A3C533F72FEC94F0D5
:101CC0000601D705D8B467EF8EF069EF8EF072EF9A
:101CD0008EF0030ED719D8A470EF8EF072EF8EF04D
:101CE00022EF8FF0000E0501B26F000EB36F7A0E77
:101CF000B46F440EB56F050E9DEC98F0050173C5E9
:101D0000A0F574C5A1F5A26BA36B000E84EC9AF04C
:101D1000A0C5AEF5A1C5AFF5A2C5B0F5A3C5B1F597
:101D200072EC8CF0AEC5C7F5AFC5C8F5B0C5C9F546
:101D3000B1C5CAF5AB0E0501CB6FAA0ECC6F270E4D
:101D4000CD6F430ECE6F5EEC8AF0C7C550F7C8C5A5
:101D500051F7C9C552F7CAC553F7040E69EC95F09F
:101D600000C64AF601C64BF602C64CF603C64DF64F
:101D700050C7CBF551C7CCF552C7CDF553C7CEF5FB
:101D80004AC6C7F54BC6C8F54CC6C9F54DC6CAF517
:101D90005EEC8AF0C7C5AEF5C8C5AFF5C9C5B0F5EC
:101DA000CAC5B1F5000E0501B26F000EB36F7A0E11
:101DB000B46F440EB56F72EC8CF0AEC54CF7AFC586
:101DC0004DF7B0C54EF7B1C54FF730C708F631C76C
:101DD00009F632C70AF633C70BF6D00E06010C6FB0
:101DE000070E0D6F000E0E6F000E0F6FE5EC92F0F8
:101DF00008C648F709C649F70AC64AF70BC64BF7A3
:101E0000A40E06011C6F080E1D6F48C71EF649C7B9
:101E10001FF64AC720F64BC721F64CC722F64DC71E
:101E200023F64EC724F64FC725F638EC85F01CC6BE
:101E3000B4F61DC6B5F6B4C66DF5B5C66EF5010EA1
:101E400031ECB2F0020E0601D719D8B42AEF8FF0A8
:101E50002CEF8FF035EF8FF0030ED719D8A433EFA6
:101E60008FF035EF8FF0DCEF8FF0000E0501B26FD1
:101E7000000EB36F7A0EB46F440EB56F010E9DEC79
:101E800098F0050173C5A0F574C5A1F5A26BA36B0D
:101E9000000E84EC9AF0A0C5AEF5A1C5AFF5A2C5C1
:101EA000B0F5A3C5B1F572EC8CF0AEC5C7F5AFC502
:101EB000C8F5B0C5C9F5B1C5CAF5AB0E0501CB6F04
:101EC000AA0ECC6F270ECD6F430ECE6F5EEC8AF05C
:101ED000C7C544F7C8C545F7C9C546F7CAC547F7DA
:101EE000000E69EC95F000C64AF601C64BF602C634
:101EF0004CF603C64DF644C7CBF545C7CCF546C7EF
:101F0000CDF547C7CEF54AC6C7F54BC6C8F54CC692
:101F1000C9F54DC6CAF55EEC8AF0C7C5AEF5C8C5B1
:101F2000AFF5C9C5B0F5CAC5B1F5000E0501B26F70
:101F3000000EB36F7A0EB46F440EB56F72EC8CF076
:101F4000AEC540F7AFC541F7B0C542F7B1C543F7DD
:101F5000BAC6A0F5BBC6A1F50501A26BA36B000E26
:101F600084EC9AF0A0C546F6A1C547F6A2C548F68E
:101F7000A3C549F67D0E06011C6F080E1D6F46C6EF
:101F80001EF647C61FF648C620F649C621F640C7CA
:101F900022F641C723F642C724F643C725F638EC9C
:101FA00085F01CC6B2F61DC6B3F6B2C66DF5B3C653
:101FB0006EF5020E31ECB2F012001CC76FF51DC7B2
:101FC00070F51EC771F51FC772F543ECB0F06FC511
:101FD000A2F570C5A3F571C5A4F572C5A5F518C71E
:101FE0006FF519C770F51AC771F51BC772F543EC89
:101FF000B0F06FC5A6F570C5A7F571C5A8F572C597
:10200000A9F50D0E9DEC98F073C5AAF574C5ABF556
:102010005C50D8B40EEF90F010EF90F027EF90F0F6
:102020006EECBCF06BC518F76CC519F76DC51AF7E7
:102030006EC51BF76EECBCF06BC51CF76CC51DF7CD
:102040006DC51EF76EC51FF7010E526E5C6A050165
:10205000FA51D8A42EEF90F030EF90F04AEF91F0C3
:10206000A951A8110BE1880EA65D130EA759D8A09F
:102070003CEF90F03EEF90F04AEF91F0010EFA6FD6
:102080004AEF91F05250D8A448EF90F04AEF90F008
:102090005DEF90F0A551A4110BE1B80EA25D0B0EFF
:1020A000A359D8A056EF90F058EF90F063EF91F05D
:1020B000FE6B010E526E63EF91F0FA51D8A463EFFC
:1020C00090F065EF90F07DEF90F0730EAA5D060E34
:1020D000AB59D8A06EEF90F070EF90F07DEF90F0DC
:1020E000010E536E6EECBCF06BC51CF76CC51DF792
:1020F0006DC51EF76EC51FF7526A0501FA05D8A413
:1021000084EF90F086EF90F063EF91F0350EAA5DCA
:10211000080EAB59D8A08FEF90F091EF90F063EFDD
:1021200091F0010E536E6EECBCF06BC51CF76CC5E4
:102130001DF76DC51EF76EC51FF7526A63EF91F06C
:10214000FB05D8A4A6EF90F0A8EF90F0ADEF90F0CB
:10215000FD51020DF3C4FDF5FB6B010EFE6FFA0598
:10216000D8A4B5EF90F0B7EF90F0E9EF90F0A40E9F
:10217000AA5D060EAB59D8B0C0EF90F0C2EF90F058
:10218000C5EF90F0536A93EF90F0D70EAA5D060E5C
:10219000AB59D8A0CEEF90F0D0EF90F063EF91F074
:1021A0003A0EAA5D070EAB59D8B0D9EF90F0DBEF2D
:1021B00090F063EF91F0020E536E6EECBCF06BC5C5
:1021C0001CF76CC51DF76DC51EF76EC51FF763EFD5
:1021D00091F0FA51D8A4EFEF90F0F1EF90F063EFA7
:1021E00091F0A40EAA5D060EAB59D8B0FAEF90F0AC
:1021F000FCEF90F000EF91F0010EFA6FC2EF90F05B
:10220000D70EAA5D060EAB59D8A009EF91F00BEFDF
:1022100091F063EF91F03A0EAA5D070EAB59D8B07A
:1022200014EF91F016EF91F063EF91F0DBEF90F087
:10223000FB51D8A41EEF91F020EF91F02EEF91F01A
:10224000010EFB6FFDC56BF56C6B000E6E6F020E21
:102250006D6F64ECAAF005016B51FD6F350EAA5D40
:10226000080EAB59D8A037EF91F039EF91F03DEF60
:1022700091F0010E536EDDEF90F0A40EAA5D060EF4
:10228000AB59D8B046EF91F048EF91F063EF91F081
:10229000C2EF90F05350A06FA16BA151000AD8B4C7
:1022A00054EF91F063EF91F0A051000AD8B442EFDF
:1022B00090F0010AD8B4A0EF90F0030AD8B418EF58
:1022C00091F063EF91F0120051C6D9F452C6DAF4DE
:1022D000DEC4F6F4DDC4F7F4000EF86E0800F55025
:1022E000250AD8A476EF91F078EF91F0CDEF92F037
:1022F00051C6D9F452C6DAF4DE2A000EDD22000EF1
:1023000006019D6F000E9C6F9CC6C4F69E699F6976
:1023100051C6D9F452C6DAF4DEC4F6F4DDC4F7F4DB
:10232000000EF86E0800F5502E0AD8A49AEF91F02E
:102330009CEF91F0B1EF91F051C6D9F452C6DAF4A6
:10234000DE2A000EDD2251C66BF552C66CF553C66F
:102350006DF554C66EF532ECA9F06BC59EF66CC5F2
:102360009FF651C6D9F452C6DAF4DEC45AF6DDC47B
:102370005BF65AC6F6F45BC6F7F4000EF86E08007A
:10238000F550640AD8B4C7EF91F0C9EF91F0D9EFD6
:1023900091F05AC6F6F45BC6F7F4000EF86E08002A
:1023A000F550690AD8A4D7EF91F0D9EF91F00BEF6F
:1023B00092F053C6D9F454C6DAF4DFC4F0F5020E35
:1023C000DE26DFC4F1F5000EDD22F0C5D9F4F1C53B
:1023D000DAF4DEC455F6DDC456F6010E06015A25C0
:1023E0000501F06F000E06015B210501F16F51C67A
:1023F000D9F452C6DAF4F0C5DEF4F1C5DDF44FC607
:1024000088F550C689F555C68AF556C68BF508EC91
:102410009DF0E4EF92F051C6D9F452C6DAF4DEC46E
:102420005AF6DDC45BF65AC6F6F45BC6F7F4000E46
:10243000F86E0800F5C459F629EF92F05A4B5B2B61
:1024400039EF92F06C0E596F39EF92F0596B39EF0A
:1024500092F0060159514C0AD8B41EEF92F02A0AA4
:10246000D8B422EF92F00A0AD8B41EEF92F026EF09
:1024700092F05AC6F6F45BC6F7F4000EF86E080048
:10248000F550660AD8A447EF92F049EF92F0C4EFF6
:1024900092F07FEF92F053C6D9F454C6DAF4DFC459
:1024A000F0F5040EDE26DFC4F1F5000EDD22F0C5E6
:1024B000D9F4F1C5DAF4DEC455F6DEC456F6DEC44E
:1024C00057F6DEC458F68AEF92F053C6D9F454C6D4
:1024D000DAF4DFC4F0F5040EDE26DFC4F1F5000EF9
:1024E000DD22F0C5D9F4F1C5DAF4DEC455F6DEC458
:1024F00056F6DEC457F6DEC458F68AEF92F059510C
:102500004C0AD8B465EF92F0200AD8B44BEF92F0A1
:102510008AEF92F0010E5A250501F06F000E0601B8
:102520005B210501F16F51C6D9F452C6DAF4F0C54A
:10253000DEF4F1C5DDF4B6EF92F04FC61CF650C6DE
:102540001DF655C61EF656C61FF657C620F658C6C7
:1025500021F65AC6F6F45BC6F7F4000EF86E0800D2
:10256000F5C422F600EC80F0E4EF92F05AC6F6F4DF
:102570005BC6F7F4000EF86E0800F550660AD8B492
:102580009DEF92F0C4EF92F051C6D9F452C6DAF43E
:10259000DE2A000EDD22E4EF92F051C6D9F452C6D5
:1025A000DAF4DEC4F6F4DDC4F7F4000EF86E0800C9
:1025B000F55005016F6F706B4FC671F550C672F51F
:1025C00099ECA9F0C4EF92F012006EECBCF06BC570
:1025D000ECF56CC5EDF56DC5EEF56EC5EFF508C60D
:1025E0006BF509C66CF50AC66DF50BC66EF594C69B
:1025F0006FF595C670F596C671F597C672F55EECE7
:10260000AEF00501D8B007EF93F009EF93F065EF56
:1026100093F008C694F609C695F60AC696F60BC658
:1026200097F698C600F699C601F69AC602F69BC6BA
:1026300003F608C604F609C605F60AC606F60BC672
:1026400007F678ECA2F00601D8B029EF93F02BEF53
:1026500093F045EF93F098C638F799C639F79AC6C4
:102660003AF79BC63BF7ECC534F7EDC535F7EEC539
:1026700036F7EFC537F70CC6E0F60DC6E1F60EC625
:10268000E2F60FC6E3F665EF93F008C638F709C621
:1026900039F70AC63AF70BC63BF708C698F609C6DB
:1026A00099F60AC69AF60BC69BF6ECC534F7EDC54B
:1026B00035F7EEC536F7EFC537F7000EE06F000EC1
:1026C000E16F000EE26F000EE36F0601E051E111D1
:1026D000E211E311D8A46FEF93F071EF93F07BEF69
:1026E00093F098C608F699C609F69AC60AF69BC6EC
:1026F0000BF62EEF94F034C76FF535C770F536C77B
:1027000071F537C772F543ECB0F06FC5F0F570C5E1
:10271000F1F571C5F2F572C5F3F50601E051050159
:10272000F05D0601E1510501F1590601E251050193
:10273000F2590601E3510501F359D8A0A2EF93F035
:10274000A4EF93F0B6EF93F094C698F695C699F679
:1027500096C69AF697C69BF698C608F699C609F6E5
:102760009AC60AF69BC60BF62EEF94F0F0C5A0F5BC
:10277000F1C5A1F5F2C5A2F5F3C5A3F5000E84ECF1
:102780009AF0A0C5AEF5A1C5AFF5A2C5B0F5A3C539
:10279000B1F5E0C6A0F5E1C6A1F5E2C6A2F5E3C633
:1027A000A3F5000E84EC9AF0A0C5B2F5A1C5B3F56F
:1027B000A2C5B4F5A3C5B5F572EC8CF0AEC5E4F5D1
:1027C000AFC5E5F5B0C5E6F5B1C5E7F5E4C5CBF5B0
:1027D000E5C5CCF5E6C5CDF5E7C5CEF538C704F6B9
:1027E00039C705F63AC706F63BC707F694C600F6A2
:1027F00095C601F696C602F697C603F659ECB6F0F2
:1028000000C6C7F501C6C8F502C6C9F503C6CAF5B4
:102810005EEC8AF0C7C5E8F5C8C5E9F5C9C5EAF5B3
:10282000CAC5EBF5E8C56BF5E9C56CF5EAC56DF50C
:10283000EBC56EF538C76FF539C770F53AC771F556
:102840003BC772F502EC88F06BC598F66CC599F63B
:102850006DC59AF66EC59BF671EF93F0120020C716
:102860006FF521C770F522C771F523C772F543ECE8
:10287000B0F06FC585F570C586F571C587F572C571
:1028800088F5020E0501FD6148EF94F04AEF94F0DF
:1028900052EF94F0010EFC6550EF94F052EF94F07B
:1028A0004BEF95F0FF05D8A458EF94F05AEF94F051
:1028B0004BEF95F06EECBCF06BC520F76CC521F7C3
:1028C0006DC522F76EC523F7010E5D6E0501FF6B26
:1028D0004BEF95F073ECBDF00501885187110BE1CA
:1028E000210E855D030E8659D8A079EF94F07BEF19
:1028F00094F068EF95F0010EFD6581EF94F083EFA1
:1029000094F08EEF94F0010EFC6589EF94F08BEF5C
:1029100094F08EEF94F0020E5D6E596A010EFD6523
:1029200094EF94F096EF94F0A1EF94F0FC51D8A4BA
:102930009CEF94F09EEF94F0A1EF94F0030E5D6E87
:10294000586AFD51D8A4A7EF94F0A9EF94F0B4EF22
:1029500094F0010EFC65AFEF94F0B1EF94F0B4EF9A
:1029600094F0040E5D6E576A6EECBCF06BC520F7F8
:102970006CC521F76DC522F76EC523F768EF95F09A
:10298000FFECA9F0010E0501FD65C9EF94F0CBEF56
:1029900094F0D9EF94F0FC51D8A4D1EF94F0D3EF98
:1029A00094F0D9EF94F0020ECCECB4F0030E5D6E0F
:1029B000586A0501FD51D8A4E0EF94F0E2EF94F0DD
:1029C00068EF95F0010EFC65E8EF94F0EAEF94F003
:1029D00068EF95F0010ECCECB4F0040E5D6E576A12
:1029E00068EF95F0E5ECABF0010E0501FD65FBEF3E
:1029F00094F0FDEF94F008EF95F0010EFC6503EF05
:102A000095F005EF95F008EF95F0020E5D6E596AAE
:102A1000FD51D8A40EEF95F010EF95F068EF95F00A
:102A2000010EFC6516EF95F018EF95F068EF95F044
:102A3000010ECCECB4F0EDEF94F086ECABF0010EAF
:102A40000501FD6526EF95F028EF95F033EF95F041
:102A5000010EFC652EEF95F030EF95F033EF95F019
:102A6000020E5D6E596A010EFD6539EF95F03BEF80
:102A700095F068EF95F0FC51D8A441EF95F043EF45
:102A800095F068EF95F0020ECCECB4F0030E5D6E9D
:102A9000586A68EF95F05D50836F846B8451000A2B
:102AA000D8B455EF95F068EF95F08351010AD8B48A
:102AB0006AEF94F0030AD8B4C0EF94F0010AD8B4D6
:102AC000F2EF94F0070AD8B41DEF95F068EF95F097
:102AD000120006011C6F040E06011C19D8A473EF26
:102AE00095F075EF95F0EEEF95F0040E9DEC98F0F3
:102AF00073C514F674C515F6000E0501B26FF00E1D
:102B0000B36F7F0EB46F450EB56F14C6A0F515C632
:102B1000A1F5000EA1BFFF0EA26FA36F010E84EC02
:102B20009AF0A0C5AEF5A1C5AFF5A2C5B0F5A3C595
:102B3000B1F572EC8CF0AEC5C7F5AFC5C8F5B0C540
:102B4000C9F5B1C5CAF56F0E0501CB6F120ECC6F7A
:102B5000830ECD6F400ECE6F5EEC8AF0C7C504F6D3
:102B6000C8C505F6C9C506F6CAC507F6660E06014C
:102B7000086FFB0E096F080E0A6F3D0E0B6F08C63B
:102B8000CBF509C6CCF50AC6CDF50BC6CEF504C605
:102B9000C7F505C6C8F506C6C9F507C6CAF55EEC91
:102BA0008AF0C7C5AEF5C8C5AFF5C9C5B0F5CAC589
:102BB000B1F5960E0501B26F430EB36F0B0EB46FF5
:102BC0003D0EB56F72EC8CF0AEC518F6AFC519F6B8
:102BD000B0C51AF6B1C51BF66DEF96F01C51D8A41E
:102BE000F4EF95F0F6EF95F06DEF96F0000E9DEC9A
:102BF00098F073C516F674C517F6000E0501B26F8E
:102C0000F00EB36F7F0EB46F450EB56F16C6A0F50C
:102C100017C6A1F5000EA1BFFF0EA26FA36F010E94
:102C200084EC9AF0A0C5AEF5A1C5AFF5A2C5B0F58C
:102C3000A3C5B1F572EC8CF0AEC5C7F5AFC5C8F54C
:102C4000B0C5C9F5B1C5CAF56F0E0501CB6F120E3F
:102C5000CC6F830ECD6F400ECE6F5EEC8AF0C7C591
:102C60000CF6C8C50DF6C9C50EF6CAC50FF6F70EA7
:102C70000601106F110E116FA50E126F3D0E136F2E
:102C800010C6CBF511C6CCF512C6CDF513C6CEF5E0
:102C90000CC6C7F50DC6C8F50EC6C9F50FC6CAF5F0
:102CA0005EEC8AF0C7C5AEF5C8C5AFF5C9C5B0F5CD
:102CB000CAC5B1F5000E0501B26F000EB36F800EEC
:102CC000B46F3E0EB56F72EC8CF0AEC518F6AFC5A2
:102CD00019F6B0C51AF6B1C51BF618C6C7F519C660
:102CE000C8F51AC6C9F51BC6CAF5000E0501CB6F9B
:102CF000000ECC6F7A0ECD6F440ECE6F5EEC8AF074
:102D0000C7C500F6C8C501F6C9C502F6CAC503F6AF
:102D1000120000C7D7F501C7D8F502C7D9F503C718
:102D2000DAF5C7C5D7F5C8C5D8F5C9C5D9F5CAC537
:102D3000DAF5810E0501CB6FFF0ECC6FD7C5CDF54F
:102D4000D8C5CEF5D9C5CFF5DAC5D0F5180EAEEF9A
:102D500096F0D890D033CF33CE33CD33E82EA9EFD1
:102D600096F0CD51CB25D56F000ECC21D66FD6BFB6
:102D7000C3EF96F0D65109E1170ED55DD8A0C3EF89
:102D800096F0C5EF96F0CFEF96F0C7C5C7F5C8C56A
:102D9000C8F5C9C5C9F5CAC5CAF593EF97F0D6BF3E
:102DA000D4EF96F0D6EF96F047EF97F0D5C5CBF578
:102DB000FF0ECC6FFF0ECD6F7F0ECE6F000ECF6F6C
:102DC000CB67E5EF96F0EDEF96F0CF35CF33CE330E
:102DD000CD33CC33CB2FE0EF96F0CCC5D1F5CDC5BC
:102DE000D2F5CEC5D3F5CFC5D4F50501D151D71550
:102DF000CB6FD251D815CC6FD351D915CD6FD451DB
:102E0000DA15CE6FCB51CC11CD11CE11D8A40BEF6A
:102E100097F00DEF97F00FEF97F0C5EF96F0D7C54D
:102E2000CBF5D8C5CCF5D9C5CDF5DAC5CEF5200E94
:102E30001FEF97F0D890CE33CD33CC33CB33E82E81
:102E40001AEF97F0CB51CC11CD11CE11D8B42BEF96
:102E500097F02DEF97F035EF97F0D151D727D2515A
:102E6000D823D351D923D451DA23D11DCB6FD21D0E
:102E7000CC6FD31DCD6FD41DCE6FCB51D717CC5196
:102E8000D817CD51D917CE51DA178BEF97F0D7C598
:102E9000CBF5D8C5CCF5D9C5CDF5DAC5CEF5200E24
:102EA00057EF97F0D890CE33CD33CC33CB33E82ED9
:102EB00052EF97F0CB51CC11CD11CE11D8A463EFC6
:102EC00097F065EF97F06FEF97F0000ED76F000E59
:102ED000D86F000ED96F000EDA6F8BEF97F0D89095
:102EE000D735CB6FD835CC6FD935CD6FDA35CE6FBE
:102EF000CB51CC11CD11CE11D8B481EF97F083EF27
:102F000097F08BEF97F0000ED76F000ED86F800E02
:102F1000D96FBF0EDA6FD7C5C7F5D8C5C8F5D9C503
:102F2000C9F5DAC5CAF51200000E0501716F000E71
:102F3000726F000E736F7DECB6F00501786F7851FB
:102F400006018C6F8D6B010E0501716F000E726FA3
:102F5000000E736F7DECB6F00501786F78510601B5
:102F60008E6F8F6B020E0501716F000E726F000E77
:102F7000736F7DECB6F00501786F78510601906FA4
:102F8000916B640E8E03F3C478F5F4C479F58F0366
:102F9000F35005017927100E7A6F270E7B6F7A5157
:102FA00006018C03F3C47CF5F4C47DF58D03F35066
:102FB00005017D277B5106018C030501F3507D2718
:102FC00078517C257E6F79517D217F6F060190516C
:102FD00005017E250601856F915105017F210601BE
:102FE000866F8C51F7ECB4F0050173510701F46F53
:102FF00006018E51F7ECB4F0050173510701F56F2E
:1030000006019051F7ECB4F0050173510701F66F1A
:10301000040E0501716F000E726F000E736F7DEC70
:10302000B6F00501786F785106017D6F7E6B050E55
:103030000501716F000E726F000E736F7DECB6F0BC
:103040000501786F785106017F6F806B060E0501D0
:10305000716F000E726F000E736F7DECB6F005019C
:10306000786F78510601816F826B640E7F03F3C421
:1030700078F5F4C479F58003F35005017927100E33
:103080007A6F270E7B6F7A5106017D03F3C47CF5BE
:10309000F4C47DF57E03F35005017D277B510601C5
:1030A0007D030501F3507D2778517C257E6F795192
:1030B0007D217F6F0601815105017E250601766F16
:1030C000825105017F210601776F7D51F7ECB4F045
:1030D000050173510701F86F06017F51F7ECB4F059
:1030E000050173510701F96F06018151F7ECB4F046
:1030F000050173510701FA6FD00E0501786FC90EF3
:10310000E82EFED7782FFCD700D0000E05016D6F9A
:10311000530E6C6FF10E6E6F070E6F6F000E716FB6
:103120000A0E706F49ECB4F00009D8B49AEF98F029
:103130009CEF98F085EF98F012000501936F000E58
:1031400005019B6F000E9A6F935143ECB8F0D89035
:1031500005019A35D96E9B35DA6E7B0ED926050EA0
:10316000DA226BC5DEF46CC5DDF49A4B9B2B9BBF5A
:10317000C3EF98F09B5109E10C0E9A5DD8A0C3EF04
:1031800098F0C5EF98F0A4EF98F0000E996F000E3C
:10319000986F000E9D6F000E9C6F000E9F6F000ECB
:1031A0009E6F3AEF99F0D8909E35D96E9F35DA6EC2
:1031B0007B0ED926050EDA229EC577F59FC578F5D8
:1031C000D89077377837020E7727000E78237B0E5A
:1031D0007725E16E050E7821E26EDE50E65CDE506A
:1031E000E658D8B0F6EF98F0F8EF98F038EF99F08D
:1031F000D8909E35D96E9F35DA6E7B0ED926050E96
:10320000DA22DEC494F5DDC495F59EC575F59FC53B
:1032100076F5D89075377637020E7527000E76232F
:103220007B0E7525D96E050E7621DA6ED8909E3507
:10323000E16E9F35E26E7B0EE126050EE222DEC4D2
:10324000E6F4DDC4E5F49EC575F59FC576F5D89026
:1032500075377637020E7527000E76237B0E75259F
:10326000D96E050E7621DA6E94C5DEF495C5DDF4CF
:103270009E4B9F2B0B0E756F000E766F9C51755FEA
:103280009D51765B75519E5D9F51800A776F765197
:10329000800A7759D8A04FEF99F051EF99F0D3EF0A
:1032A00098F09C4B9D2B9DBF5FEF99F09D5109E1DC
:1032B0000B0E9C5DD8A05FEF99F061EF99F0CDEF18
:1032C00098F0000E9D6F020E9C6FD8909C35D96EC1
:1032D0009D35DA6E7B0ED926050EDA22DE50982750
:1032E000DD5099239C4B9D2B9DBF80EF99F09D5104
:1032F00009E10A0E9C5DD8A080EF99F082EF99F069
:1033000065EF99F098C56BF599C56CF5000E6E6F79
:10331000080E6D6F64ECAAF06BC596F56CC597F559
:1033200096C573F597C574F51200000E0501716F0F
:10333000000E726F000E736F7DECB6F00501786FB2
:10334000785106018C6F8D6B010E0501716F000EB7
:10335000726F000E736F7DECB6F00501786F7851D7
:1033600006018E6F8F6B020E0501716F000E726F7A
:10337000000E736F7DECB6F00501786F7851060191
:10338000906F916B040E0501716F000E726F000E4D
:10339000736F7DECB6F00501786F785106017D6F93
:1033A0007E6B050E0501716F000E726F000E736F5C
:1033B0007DECB6F00501786F785106017F6F806B68
:1033C000060E0501716F000E726F000E736F7DECBB
:1033D000B6F00501786F78510601816F826B8D51CF
:1033E00009E1650E8C5DD8A0F8EF99F0FAEF99F03D
:1033F00005EF9AF0000E0501736F000E746F000E5A
:10340000756F000E766FBDECB1F006018F5109E1CA
:10341000650E8E5DD8A00FEF9AF011EF9AF01CEFB9
:103420009AF0010E0501736F000E746F000E756F38
:10343000000E766FBDECB1F00601915109E1650E09
:10344000905DD8A026EF9AF028EF9AF033EF9AF02B
:10345000020E0501736F000E746F000E756F000E83
:10346000766FBDECB1F0030E0501736F000E746F43
:10347000000E756F000E766FBDECB1F006017E5147
:1034800009E1650E7D5DD8A048EF9AF04AEF9AF009
:1034900055EF9AF0040E0501736F000E746F000E65
:1034A000756F000E766FBDECB1F00601805109E139
:1034B000650E7F5DD8A05FEF9AF061EF9AF06CEF38
:1034C0009AF0050E0501736F000E746F000E756F94
:1034D000000E766FBDECB1F00601825109E1650E78
:1034E000815DD8A076EF9AF078EF9AF083EF9AF0AA
:1034F000060E0501736F000E746F000E756F000EDF
:10350000766FBDECB1F012000501A86F0501A8515E
:10351000D8B48DEF9AF08FEF9AF0B1EF9AF0A3BF85
:1035200096EF9AF094EF9AF0B1EF9AF0A0C5A4F557
:10353000A1C5A5F5A2C5A6F5A3C5A7F5A41FA51FFE
:10354000A61FA71FA42B000EA523A623A723A4C54F
:10355000AAF5A5C5ABF5A6C5ACF5A7C5ADF5B9EF00
:103560009AF0A0C5AAF5A1C5ABF5A2C5ACF5A3C557
:10357000ADF5A051A111A211A311D8A4C2EF9AF0E8
:10358000C4EF9AF0CEEF9AF0000EA06F000EA16F7C
:10359000000EA26F000EA36F5FEF9BF0960EA96F57
:1035A000D8EF9AF0A92BD890AD33AC33AB33AA3314
:1035B000000EAA15A46F000EAB15A56F000EAC157A
:1035C000A66FFE0EAD15A76FA451A511A611A711E8
:1035D000D8A4EDEF9AF0EFEF9AF0D2EF9AF0FDEF6A
:1035E0009AF0A92B010EAA27000EAB23AC23AD2322
:1035F000D890AD33AC33AB33AA33000EAA15A46F09
:10360000000EAB15A56F000EAC15A66FFF0EAD1525
:10361000A76FA451A511A611A711D8A412EF9BF072
:1036200014EF9BF0F1EF9AF01CEF9BF0A907D890F4
:10363000AA37AB37AC37AD37ACBF21EF9BF023EFE8
:103640009BF02BEF9BF0020EA96129EF9BF02BEF73
:103650009BF016EF9BF0A9B130EF9BF032EF9BF09F
:1036600033EF9BF0AC9FD890A933A9C5A4F5A56B07
:10367000A66BA76BA4C5A7F5A66BA56BA46BA451FD
:10368000AA13A551AB13A651AC13A751AD13A85162
:10369000D8B44DEF9BF04FEF9BF057EF9BF0A3BFDB
:1036A00056EF9BF054EF9BF057EF9BF0AD8FAAC500
:1036B000A0F5ABC5A1F5ACC5A2F5ADC5A3F512004B
:1036C0000501EE6F050E0501EE19D8A46AEF9BF017
:1036D0006CEF9BF0D5EF9BF0AB0ECB6FAA0ECC6FCF
:1036E000270ECD6F430ECE6F000EB26F000EB36F7C
:1036F0007A0EB46F440EB56F050E9DEC98F005017F
:1037000073C5A0F574C5A1F5A26BA36B000E84EC84
:103710009AF0A0C5AEF5A1C5AFF5A2C5B0F5A3C599
:10372000B1F572EC8CF0AEC5C7F5AFC5C8F5B0C544
:10373000C9F5B1C5CAF55EEC8AF0C7C518F6C8C5AB
:1037400019F6C9C51AF6CAC51BF658ECA5F018C675
:10375000A4F619C6A5F6260E0601A45D020EA5590B
:10376000D8A0B5EF9BF0B7EF9BF0BDEF9BF0000E3C
:103770001D6F010E1C6F37EF9CF0A55107E1970EEE
:10378000A45DD8B0C6EF9BF0C8EF9BF0CEEF9BF0E6
:10379000000E1D6F020E1C6F37EF9CF0000E06012D
:1037A0001D6F000E1C6F37EF9CF0EE05D8A4DBEF09
:1037B0009BF0DDEF9BF0CEEF9BF0AB0ECB6FAA0E34
:1037C000CC6F270ECD6F430ECE6F000EB26F000E82
:1037D000B36F7A0EB46F440EB56F010E9DEC98F086
:1037E000050173C5A0F574C5A1F5A26BA36B000E0E
:1037F00084EC9AF0A0C5AEF5A1C5AFF5A2C5B0F5B1
:10380000A3C5B1F572EC8CF0AEC5C7F5AFC5C8F570
:10381000B0C5C9F5B1C5CAF55EEC8AF0C7C518F6E2
:10382000C8C519F6C9C51AF6CAC51BF658ECA5F0E5
:1038300018C6A2F619C6A3F62C0E0601A25D010E4B
:10384000A359D8A026EF9CF028EF9CF02AEF9CF01B
:10385000B7EF9BF0A35107E1150EA25DD8B033EF8F
:103860009CF035EF9CF0CEEF9BF0C8EF9BF0120080
:103870000501FE05D8B43FEF9CF041EF9CF043EF0B
:103880009CF007EF9DF00601D751D8A44AEF9CF0B9
:103890004CEF9CF04EEF9CF007EF9DF014C76FF5D6
:1038A00015C770F516C771F517C772F543ECB0F080
:1038B0006FC5EFF570C5F0F571C5F1F572C5F2F59C
:1038C000000E05016F6F000E706F000E716F000E1D
:1038D000726F43ECB0F00501FD51D8B472EF9CF06B
:1038E00074EF9CF0FBEF9CF0050E60EC9BF0060182
:1038F0001C510501F36FF305D8A481EF9CF083EF11
:103900009CF0B2EF9CF00601D351D8A48AEF9CF052
:103910008CEF9CF09BEF9CF06EECBCF06BC514F749
:103920006CC515F76DC516F76EC517F7010E0601C4
:10393000D36FFBEF9CF00501F251F1110BE1E90EA1
:10394000EF5D030EF059D8A0A8EF9CF0AAEF9CF011
:10395000FBEF9CF0000E0601B76F010EB66FD36B44
:10396000FBEF9CF0020EF319D8A4B9EF9CF0BBEF6B
:103970009CF0EAEF9CF00601D251D8A4C2EF9CF073
:10398000C4EF9CF0D3EF9CF06EECBCF06BC514F769
:103990006CC515F76DC516F76EC517F7010E060154
:1039A000D26FFBEF9CF00501F251F1110BE12D0EEE
:1039B000EF5D010EF059D8A0E0EF9CF0E2EF9CF033
:1039C000FBEF9CF0000E0601B76F020EB66FD26BD4
:1039D000FBEF9CF00601B651B711D8A4F2EF9CF0B2
:1039E000F4EF9CF0FBEF9CF0000EB76F000EB66F8B
:1039F000D36BE7EF9CF00501FC51D8B402EF9DF0CA
:103A000004EF9DF007EF9DF0010E60EC9BF01200BB
:103A100005018BBF0EEF9DF011EF9DF0010E12EF2F
:103A20009DF0000E926F06019FBF1BEF9DF019EFF6
:103A30009DF022EF9DF0000E0501916F010E906F39
:103A400026EF9DF09EC690F59FC691F59CC68EF51B
:103A50009DC68FF505019251D8B431EF9DF033EF3B
:103A60009DF04AEF9DF08E07D8A08F079251D8A401
:103A70003CEF9DF03EEF9DF044EF9DF0000E8D6F0A
:103A80002B0E8C6F48EF9DF0000E8D6F2D0E8C6FFE
:103A90008CC592F5000E946F4F0E936F0A01976BD1
:103AA00083EF9DF09307D8A09407480E9325D96E15
:103AB0000A0E9421DA6E8AC56BF58BC56CF5000E83
:103AC0006E6F0A0E6D6F06ECAEF06BC571F56CC5CE
:103AD00072F529ECB9F005017151300FDF6E9007D6
:103AE000D8A091078E07D8A08F078AC56BF58BC524
:103AF0006CF5000E6E6F0A0E6D6F64ECAAF06BC56C
:103B00008AF56CC58BF5050194BF8FEF9DF094513C
:103B100008E19305D8A08FEF9DF091EF9DF0A7EFFE
:103B20009DF08A518B11D8A498EF9DF09AEF9DF0EB
:103B300052EF9DF091BFA7EF9DF0915106E19005E6
:103B4000D8B0A5EF9DF0A7EF9DF052EF9DF09251F8
:103B5000D8B4ADEF9DF0AFEF9DF0BAEF9DF09307B5
:103B6000D8A09407480E9325D96E0A0E9421DA6ED8
:103B700092C5DFF488C57FF589C580F5480E932589
:103B8000816F0A0E9421826F8EC583F58FC584F5EF
:103B9000F8ECB1F012000501F551020D000EF3240E
:103BA000D96E080EF420DA6EDE6ADD6A0201C5A75E
:103BB000DCEF9DF0DEEF9DF001EF9EF00501F55189
:103BC000020D000EF324D96E080EF420DA6E0801FF
:103BD000DF820701605161116211D8B4F2EF9DF0EC
:103BE000F4EF9DF001EF9EF002D801EF9EF005008A
:103BF000FA6E6051FD6E6151FE6E6251FF6EFA50B9
:103C000012000201C5A307EF9EF009EF9EF02CEF12
:103C10009EF00501F551020D000EF324D96E080E39
:103C2000F420DA6E0801DF8407015D515E115F1137
:103C3000D8B41DEF9EF01FEF9EF02CEF9EF002D83F
:103C40002CEF9EF00500FA6E5D51FD6E5E51FE6E2A
:103C50005F51FF6EFA5012000201C5AD32EF9EF0C7
:103C600034EF9EF057EF9EF00501F551020D000E66
:103C7000F324D96E080EF420DA6E0801DF80070104
:103C80005A515B115C11D8B448EF9EF04AEF9EF098
:103C900057EF9EF002D857EF9EF00500FA6E5A518A
:103CA000FD6E5B51FE6E5C51FF6EFA501200B4C2A5
:103CB00030F50501F5290F0B316E42503118D8A4AB
:103CC00064EF9EF066EF9EF068EF9EF073EF9EF05B
:103CD000200EF525D96EDA6A080EDA2230C5DFF437
:103CE00031C5F5F5412A0701545155115611D8B483
:103CF0007CEF9EF07EEF9EF08BEF9EF002D88BEF74
:103D00009EF00500FA6E5451FD6E5551FE6E5651EF
:103D1000FF6EFA50120012004750020D000EF324FD
:103D2000D96E090EF420DA6EDE6ADD6A0201B2A7EE
:103D30009CEF9EF09EEF9EF0C0EF9EF04750020D6C
:103D4000000EF324D96E090EF420DA6E0901DF8229
:103D50000701725173117411D8B4B1EF9EF0B3EF33
:103D60009EF0C0EF9EF002D8C0EF9EF00500FA6E04
:103D70007251FD6E7351FE6E7451FF6EFA50120057
:103D80000201B2A3C6EF9EF0C8EF9EF0EAEF9EF0EC
:103D90004750020D000EF324D96E090EF420DA6E9E
:103DA0000901DF8407016F5170117111D8B4DBEF85
:103DB0009EF0DDEF9EF0EAEF9EF002D8EAEF9EF073
:103DC0000500FA6E6F51FD6E7051FE6E7151FF6EFF
:103DD000FA5012000201B2ADF0EF9EF0F2EF9EF049
:103DE00014EF9FF04750020D000EF324D96E090E18
:103DF000F420DA6E0901DF8007016C516D116E113C
:103E0000D8B405EF9FF007EF9FF014EF9FF002D8B2
:103E100014EF9FF00500FA6E6C51FD6E6D51FE6E51
:103E20006E51FF6EFA501200A1C21EF547281F0BFB
:103E30001F6E46501F18D8A420EF9FF022EF9FF06E
:103E400024EF9FF02FEF9FF0400E4724D96EDA6ADF
:103E5000090EDA221EC5DFF41FC547F5452A070102
:103E6000635164116511D8B438EF9FF03AEF9FF0B9
:103E700047EF9FF002D847EF9FF00500FA6E6351BD
:103E8000FD6E6451FE6E6551FF6EFA501200120015
:103E900000C6D9F401C6DAF402C6DFF4060120EE4A
:103EA00001F00051D9260151DA2203C6DEF404C61E
:103EB000DEF405C6DEF406C6DEF420EE05F00051A1
:103EC000D9260151DA2207C6DEF408C6DEF409C697
:103ED000DEF40AC6DEF420EE09F00051D9260151C5
:103EE000DA220BC6DEF40CC6DEF40DC6DEF40EC616
:103EF000DEF420EE15F00051D9260151DA220FC66A
:103F0000DEF410C6DEF411C6DEF412C6DEF420EED6
:103F100019F00051D9260151DA2213C6DEF414C675
:103F2000DEF415C6DEF416C6DEF4000E0501AE6F33
:103F3000000EAF6F480EB06F440EB16F07C6B2F5FA
:103F400008C6B3F509C6B4F50AC6B5F572EC8CF02F
:103F5000060120EE0DF00051D9260151DA220501AB
:103F6000AEC5DEF4AFC5DEF4B0C5DEF4B1C5DEF437
:103F7000000EAE6F000EAF6F480EB06FC40EB16F83
:103F800007C6B2F508C6B3F509C6B4F50AC6B5F555
:103F900072EC8CF0060120EE11F00051D92601518F
:103FA000DA220501AEC5DEF4AFC5DEF4B0C5DEF43D
:103FB000B1C5DEF4060120EE1DF00051D9260151F5
:103FC000DA22000EDE6E000EDE6E000EDE6E000ED9
:103FD000DD6E20EE21F00051D9260151DA22000ECB
:103FE000DE6E000EDE6E000EDE6E000EDD6E20EE6A
:103FF00025F00051D9260151DA2217C6DEF418C681
:10400000DDF412005A04D8A408EFA0F00AEFA0F0E3
:1040100022EFA0F00701C24BC32BC80EC219C31177
:10402000D8A415EFA0F017EFA0F022EFA0F0010E3A
:104030000601DC6F010EDB6F000E0701C36F000E7F
:10404000C26F5A6A0701BA4BBB2BC80EBA19BB1113
:10405000D8A42DEFA0F02FEFA0F049EFA0F0000EB4
:10406000BB6F000EBA6FB451B511D8B43AEFA0F0DF
:104070003CEFA0F03EEFA0F0B84BB92BB251B3111A
:10408000D8B445EFA0F047EFA0F049EFA0F0B64B51
:10409000B72B960EB819B911D8A451EFA0F053EF71
:1040A000A0F06AEFA0F0000EB96F000EB86F010E1D
:1040B0005F6EBE4BBF2BBF5109E1060EBE5DD8A09F
:1040C00064EFA0F066EFA0F06AEFA0F0000EB56F0D
:1040D000000EB46F960EB619B711D8A472EFA0F007
:1040E00074EFA0F08BEFA0F0010E5E6EBC4BBD2B09
:1040F000000EB76F000EB66FBD5109E1060EBC5D34
:10410000D8A085EFA0F087EFA0F08BEFA0F0000E15
:10411000B36F000EB26F0601A051A111D8B493EF96
:10412000A0F095EFA0F0ACEFA0F0A007D8A0A107F9
:10413000A051A111D8A49FEFA0F0A1EFA0F0ACEF87
:10414000A0F00501F951D8B4A8EFA0F0AAEFA0F0B3
:10415000ACEFA0F0010E4B6E1200050120EE03F053
:104160008051D9268151DA22DF506B6F20EE02F0A8
:104170008051D9268151DA22DF508CECB0F06BC52A
:10418000C2F66CC5C3F6570E0601C25D030EC359D5
:10419000D8A0CDEFA0F0CFEFA0F0D3EFA0F0030EAA
:1041A000C36F570EC26FF40EC25D010EC359D8B073
:1041B000DCEFA0F0DEEFA0F0E2EFA0F0010EC36FA5
:1041C000F40EC26FC2C6BEF6C3C6BFF680C5D9F430
:1041D00081C5DAF4DF500501FD6FFDC5DEF6630E23
:1041E000FD65F5EFA0F0F7EFA0F0F9EFA0F0640E99
:1041F000FD6F20EE07F08051D9268151DA22DF5081
:104200006B6F20EE06F08051D9268151DA22DF5003
:104210008CECB0F06BC5C0F66CC5C1F60601C1519F
:1042200009E1710EC05DD8A018EFA1F01AEFA1F05E
:104230001EEFA1F0000EC16F710EC06FC15107E1FA
:10424000320EC05DD8B027EFA1F029EFA1F02DEF1D
:10425000A1F0000EC16F320EC06FC0C6D8F7C1C644
:10426000D9F7050120EE04F08051D9268151DA22D8
:10427000DF50FC6FFCC5DDF6630EFC6542EFA1F07C
:1042800044EFA1F046EFA1F0640EFC6F12000601AE
:104290008B51D8B44EEFA1F050EFA1F0A0EFA1F0F8
:1042A000894B8A2B0701A84BA92BB90EA85D0B0ED1
:1042B000A959D8A05EEFA1F060EFA1F068EFA1F0DE
:1042C000000EC56F010EC46F000EA96F000EA86F1F
:1042D000600E0601895DEA0E8A59D8A072EFA1F03E
:1042E00074EFA1F0A0EFA1F0874B882B010EC86FEF
:1042F000885109E13C0E875DD8A081EFA1F083EFE2
:10430000A1F09CEFA1F0854B862B000E936F010E60
:10431000926F500E855DC30E8659D8A092EFA1F022
:1043200094EFA1F098EFA1F0C30E866F500E856F49
:10433000000E866F000E856F000E8A6F000E896F6B
:104340007C51D8B4A6EFA1F0A8EFA1F0DFEFA1F067
:104350007A4B7B2B600E7A5DEA0E7B59D8A0B3EFC7
:10436000A1F0B5EFA1F0DFEFA1F0784B792B7951F7
:1043700009E13C0E785DD8A0C0EFA1F0C2EFA1F03A
:10438000DBEFA1F0764B772B000E846F010E836F6D
:10439000500E765DC30E7759D8A0D1EFA1F0D3EFC0
:1043A000A1F0D7EFA1F0C30E776F500E766F000E1D
:1043B000776F000E766F000E7B6F000E7A6F120023
:1043C000000E05016D6F570E6C6FFB0E6E6F070EC2
:1043D0006F6F000E716F020E706F49ECB4F0000940
:1043E000D8B4F5EFA1F0F7EFA1F0E0EFA1F0000EE7
:1043F00005016D6F570E6C6F5B0E6E6F050E6F6F64
:10440000000E716F010E706F75ECB4F00009D8B436
:104410000CEFA2F00EEFA2F0F7EFA1F0680E05018D
:10442000736FE40EE82EFED7732FFCD700005BC538
:10443000C6F6680E0501736FE40EE82EFED7732FE3
:10444000FCD70000C00E0601C619D8A42AEFA2F0BE
:104450002CEFA2F02EEFA2F06EEFA2F0000E0501FD
:104460006D6F570E6C6FC70E6E6F090E6F6F000E7B
:10447000716F130E706F49ECB4F00009D8B443EFBC
:10448000A2F045EFA2F02EEFA2F0680E0501736FC7
:10449000E40EE82EFED7732FFCD70000000E0501B6
:1044A0006D6F570E6C6FFB0E6E6F070E6F6F000E09
:1044B000716F030E706F75ECB4F00009D8B463EF40
:1044C000A2F065EFA2F04EEFA2F02A0E0501736F85
:1044D0008D0EE82EFED7732FFCD700D0D00E05012D
:1044E000736FC90EE82EFED7732FFCD700D01200D1
:1044F000000E060100150501E06F000E0601011512
:104500000501E16F800E060102150501E26F7F0EC5
:10451000060103150501E36FE051E111E211E3111A
:10452000D8A495EFA2F097EFA2F0A0EFA2F0000EB2
:104530000601006F000E016F000E026F000E036F88
:10454000000E060104150501E06F000E06010515B9
:104550000501E16F800E060106150501E26F7F0E71
:10456000060107150501E36FE051E111E211E311C6
:10457000D8A4BDEFA2F0BFEFA2F0C8EFA2F0000EEA
:104580000601046F000E056F000E066F000E076F28
:10459000060103AFCEEFA2F0D0EFA2F0D9EFA2F068
:1045A000006D011FD8B0012B021FD8B0022B800E66
:1045B000035707AFDEEFA2F0E0EFA2F0E9EFA2F0C1
:1045C000046D051FD8B0052B061FD8B0062B800E32
:1045D0000757000E001B000E011B000E021B800E71
:1045E000031B000E041B000E051B000E061B800E95
:1045F000071B0451005D055101590651025907512D
:104600000359D8B006EFA3F008EFA3F00BEFA3F027
:10461000D8900CEFA3F0D880120008C66BF509C63D
:104620006CF50AC66DF50BC66EF565ECA7F00501D5
:104630006B516C11D8A41FEFA3F021EFA3F02BEF67
:10464000A3F00CC608F60DC609F60EC60AF60FC68C
:104650000BF6A0EFA3F00CC66BF50DC66CF50EC6FD
:104660006DF50FC66EF565ECA7F005016B516C1189
:10467000D8A43DEFA3F03FEFA3F049EFA3F008C6A5
:1046800008F609C609F60AC60AF60BC60BF6A0EF2D
:10469000A3F008C66BF509C66CF50AC66DF50BC626
:1046A0006EF54BECB5F06BC5E4F56CC5E5F50CC6E5
:1046B0006BF50DC66CF50EC66DF50FC66EF54BECC1
:1046C000B5F005016B51E41909E16C51E519D8B455
:1046D0006CEFA3F06EEFA3F084EFA3F008C66BF5C8
:1046E00009C66CF50AC66DF50BC66EF54BECB5F058
:1046F00005016B516C11D8A480EFA3F082EFA3F0F9
:104700003FEFA3F021EFA3F008C600F609C601F6BB
:104710000AC602F60BC603F60CC604F60DC605F66D
:104720000EC606F60FC607F678ECA2F00601D8A072
:104730009CEFA3F09EEFA3F03FEFA3F021EFA3F0D7
:10474000120010C66BF511C66CF512C66DF513C6D6
:104750006EF565ECA7F005016B516C11D8A4B3EFB1
:10476000A3F0B5EFA3F0BFEFA3F014C610F615C683
:1047700011F616C612F617C613F634EFA4F014C6D7
:104780006BF515C66CF516C66DF517C66EF565ECBE
:10479000A7F005016B516C11D8A4D1EFA3F0D3EFB2
:1047A000A3F0DDEFA3F010C610F611C611F612C685
:1047B00012F613C613F634EFA4F010C66BF511C64B
:1047C0006CF512C66DF513C66EF54BECB5F06BC506
:1047D000E6F56CC5E7F514C66BF515C66CF516C69F
:1047E0006DF517C66EF54BECB5F005016B51E6198A
:1047F00009E16C51E719D8B400EFA4F002EFA4F07E
:1048000018EFA4F010C66BF511C66CF512C66DF565
:1048100013C66EF54BECB5F005016B516C11D8A4C5
:1048200014EFA4F016EFA4F0B5EFA3F0D3EFA3F0CC
:1048300010C600F611C601F612C602F613C603F63C
:1048400014C604F615C605F616C606F617C607F60C
:1048500078ECA2F00601D8A030EFA4F032EFA4F07B
:10486000B5EFA3F0D3EFA3F01200C80EF66E780EEA
:10487000F76E010EF86E02EEC7F110EE13F00900AC
:10488000F5C4EEF4E550E150FAE1BE0EF66E720E9C
:10489000F76E010EF86E02EECBF010EE34F0090068
:1048A000F5C4EEF4E550E150FAE10E0EF66E790E25
:1048B000F76E010EF86E01EEEFF310EE0FF0090047
:1048C000F5C4EEF4E550E150FAE1EE0EF66E780E26
:1048D000F76E010EF86E01EEE0F210EE10F0090036
:1048E000F5C4EEF4E550E150FAE12E0EF66E7B0EC3
:1048F000F76E010EF86E0900F5C4FFF5DA0EF66EDC
:104900007A0EF76E010EF86E01EE5CF110EE04F017
:104910000900F5C4EEF4E550E150FAE102EE00F3CF
:10492000AC0EEE6AE806FDE102EE00F2E00EEE6A81
:10493000E806FDE102EE00F1C70EEE6AE806FDE1D1
:1049400002EE00F0CB0EEE6AE806FDE101EE00F3A8
:10495000E00EEE6AE806FDE101EE76F26A0EEE6A1E
:10496000E806FDE101EEF5F10A0EEE6AE806FDE16A
:1049700001EE32F12A0EEE6AE806FDE10401080EAE
:104980005D6F000E5E6F000E5F6F0001ADEFB9F05E
:10499000C80E05017C6F000E7D6F000E7E6F000E4D
:1049A0007F6F74517A6F73C57BF5F3EFA4F0050147
:1049B0007C517D117E117F11D8A4E1EFA4F0E3EFCB
:1049C000A4F0E5EFA4F057EFA5F07C07000E7D5BA7
:1049D0007E5B7F5B150E0501786FC60EE82EFED755
:1049E000782FFCD70000000E05016D6F530E6C6F21
:1049F0007A0E6E6F050E6F6F000E716F020E706F84
:104A000049ECB4F00009D8B408EFA5F00AEFA5F01E
:104A1000D7EFA4F0C80E05017C6F000E7D6F000E6D
:104A20007E6F000E7F6F31EFA5F005017C517D1187
:104A30007E117F11D8A41FEFA5F021EFA5F023EF81
:104A4000A5F057EFA5F07C07000E7D5B7E5B7F5BDA
:104A5000150E0501786FC60EE82EFED7782FFCD70D
:104A60000000000E05016D6F530E6C6F75C56EF57D
:104A700076C56FF5020E7725706F716B000E71238E
:104A800075ECB4F00009D8B448EFA5F04AEFA5F0F2
:104A900015EFA5F0090E0501796F1E0E786FE40E73
:104AA000E82EFED7782FFCD7792FFAD70000120016
:104AB00006011A351B350501ED6FED51D8A463EFE2
:104AC000A5F065EFA5F070EFA5F0000E0601186FD8
:104AD000000E196F000E1A6F000E1B6FE4EFA5F0A9
:104AE00018C6E8F519C6E9F51AC6EAF51BC6EBF5CE
:104AF000200E80EFA5F0D890EB33EA33E933E833AA
:104B0000E82E7BEFA5F0E851EC6F06011A8FFF0E3F
:104B10001817FF0E1917FF0E1A17000E1B17960E07
:104B20000501ED5FEDBF99EFA5F097EFA5F0B1EFAF
:104B3000A5F0ED51800A970FD8B0A1EFA5F0A3EF33
:104B4000A5F0A5EFA5F065EFA5F00601D8901B3301
:104B50001A33193318330501ED3FA5EFA5F0CBEF5C
:104B6000A5F01F0EED65B7EFA5F0B9EFA5F0C3EF07
:104B7000A5F065EFA5F00601D890183719371A3758
:104B80001B370501ED07ED51D8A4C9EFA5F0CBEF18
:104B9000A5F0BBEFA5F0EC51D8B4D1EFA5F0D3EF61
:104BA000A5F0DCEFA5F006011B1F1A1F191F186DD9
:104BB000000E19231A231B2318C618F619C619F656
:104BC0001AC61AF61BC61BF61200670E0601626FA4
:104BD000FF0E636F040E69EC95F000C664F601C623
:104BE00065F602C666F603C667F6B4C668F6B5C6CD
:104BF00069F650C76AF651C76BF652C76CF653C7D1
:104C00006DF64CC76EF64DC76FF64EC770F64FC7C0
:104C100071F637ECBAF08B0E0601626FFF0E636F10
:104C2000000E69EC95F000C664F601C665F602C692
:104C300066F603C667F6B2C668F6B3C669F644C739
:104C40006AF645C76BF646C76CF647C76DF640C7B0
:104C50006EF641C76FF642C770F643C771F637EC80
:104C6000BAF0AF0E0601626FFF0E636F30C764F6D5
:104C700031C765F632C766F633C767F6FDC568F615
:104C8000696BFCC56AF66B6B37ECBAF0CE0E0601A9
:104C9000626FFF0E636FA4C664F6A5C665F6B6C65E
:104CA00066F6B7C667F637ECBAF0E20E0601626F39
:104CB000FF0E636FA2C664F6A3C665F6000E676FAB
:104CC000000E666F37ECBAF012004B04D8B46BEFED
:104CD000A6F06DEFA6F06FEFA6F0E4EFA6F09F0E42
:104CE00005016B6F090E6C6F550E6D6F080E6E6FC0
:104CF000F9C56FF5706B22ECB5F00501F951FE0FA7
:104D00007C6F9F0E6B6F090E6C6F7CC56DF50BECA5
:104D1000B1F06BC5A4F76CC5A5F7A00E05017C2505
:104D2000D96EDA6A090EDA22DF50766F9F0E7C2583
:104D3000D96EDA6A090EDA22DF50776F7751796F10
:104D4000786B765178250701A26F0501000E792155
:104D50000701A36FA251A41909E1A351A519D8B461
:104D6000B4EFA6F0B6EFA6F0BAEFA6F04CECB7F0B1
:104D7000E4EFA6F0A5C97AF50501F951F70F7B6FAD
:104D80007A517B19D8B4C7EFA6F0C9EFA6F0CBEFE4
:104D9000A6F0B6EFA6F0100E0901A019D8A4D3EF23
:104DA000A6F0D5EFA6F0B6EFA6F00E0EA219D8A485
:104DB000DCEFA6F0DEEFA6F0B6EFA6F0A7C9FDF592
:104DC000A9C9FCF5B6EFA6F01200BEC678F5BFC6BD
:104DD00079F50501FD51746F756BBEC66BF5BFC6E5
:104DE0006CF5000E6E6F640E6D6F82ECB1F0050114
:104DF00074516B03F3C476F5F4C477F56C03F35088
:104E0000772775516B03F350772776C5BCF677C5C6
:104E1000BDF6FC51746F756BD8C76BF5D9C76CF5CF
:104E2000000E6E6F640E6D6F82ECB1F0050174516F
:104E30006B03F3C476F5F4C477F56C03F35077276E
:104E400075516B03F350772776C5BAF677C5BBF675
:104E50000601BA51BC25B86FBB51BD21B96FB8511D
:104E60000501785D0601B95105017959D8B03BEFCC
:104E7000A7F03DEFA7F056EFA7F00601B851BC5DD3
:104E80000501746F0601B951BD590501756F78515F
:104E9000742779517523EA0E74250701D66FFF0E2A
:104EA000050175210701D76F60EFA7F0EA0E060133
:104EB000BC250701D66FFF0E0601BD210701D76F84
:104EC000D6C772F5D7C773F5120008C775F509C7BD
:104ED00076F50AC777F50BC778F56BC575F56CC520
:104EE00076F56DC577F56EC578F575C56FF576C540
:104EF00070F577C571F578C572F5180E86EFA7F0D5
:104F00000501D8907233713370336F33E82E80EF20
:104F1000A7F06F51736F746B73517411D8A493EF32
:104F2000A7F095EFA7F0B5EFA7F0D89075356F6FA4
:104F30007635706F7735716F7835726F6F5170118C
:104F400071117211D8A4A7EFA7F0A9EFA7F0AFEFE6
:104F5000A7F0000E6C6F020E6B6FE4EFA7F0000E6F
:104F60006C6F030E6B6FE4EFA7F073297411D8A474
:104F7000BCEFA7F0BEEFA7F0E0EFA7F075C56FF5A7
:104F800076C570F577C571F578C572F5090ED890BC
:104F90006F37703771377237E82EC7EFA7F06F5150
:104FA000701171117211D8B4D8EFA7F0DBEFA7F030
:104FB000010EDCEFA7F0000E6B6F6C6BE4EFA7F057
:104FC000000E6C6F040E6B6F120079ECBDF0000EDA
:104FD0000801CA6F000EC96F000EC16F000EC26FCC
:104FE000000EC36F000EC46F000EC56F000EC66FBB
:104FF000000EC76F000EC86F000EA36F000EA26FE9
:10500000000E9A6F000E9B6F000E9C6F000E9D6F3E
:10501000000E9E6F000E9F6F000EA06F000EA16F1E
:10502000000E0601B16F000EB06F000EAF6F000EE4
:10503000AE6F050E44ECACF0010E87ECBAF0020E38
:1050400087ECBAF0090E05016F6F1E0E6E6FE40E4D
:10505000E82EFED76E2FFCD76F2FFAD70000010E77
:1050600073ECBAF0020E73ECBAF0010E0501FF6F9B
:10507000000E0701306F000E316F000E326F000E10
:10508000336F0601D76B1DECB4F0000E0601B56F4F
