:0400000081EF00F09C
:1000080091629162916291624000916240009162B6
:10001800666291628A629162916291629162916272
:100028008B6240004000400091629162916291624F
:10003800916291629162675F565E91629162455FDB
:10004800C261816291629162400040009162916256
:10005800916291629162400091629162235FA65918
:100068006862916291629162916291629162916219
:10007800A761AE61535BED5840009162345FD3597C
:100088009F6136629162916291629162916291621E
:1000980091629162916291624000916240004000D9
:1000A8006A629162916291629162916291629162D7
:1000B800916291629162915E9162916291629162A4
:1000C8009162916291629162916291629162916290
:1000D8009162916291629162916291629162916280
:1000E80040009162916291624000400040004000EF
:0E00F8009162916291629162FF00BDEFABF0E8
:10F4DC000000C0C101C30302C2C60607C705C5C4EC
:10F4EC0004CC0C0DCD0FCFCE0E0ACACB0BC909081C
:10F4FC00C8D81819D91BDBDA1A1EDEDF1FDD1D1C5C
:10F50C00DC14D4D515D71716D6D21213D311D1D0EB
:10F51C0010F03031F133F3F23236F6F737F535348B
:10F52C00F43CFCFD3DFF3F3EFEFA3A3BFB39F9F85B
:10F53C003828E8E929EB2B2AEAEE2E2FEF2DEDECFB
:10F54C002CE42425E527E7E62622E2E323E121202B
:10F55C00E0A06061A163A3A26266A6A767A565642B
:10F56C00A46CACAD6DAF6F6EAEAA6A6BAB69A9A89B
:10F57C006878B8B979BB7B7ABABE7E7FBF7DBDBCDB
:10F58C007CB47475B577B7B67672B2B373B171706B
:10F59C00B0509091519353529296565797559594CB
:10F5AC00549C5C5D9D5F9F9E5E5A9A9B5B995958DB
:10F5BC0098884849894B8B8A4A4E8E8F4F8D4D4C7B
:10F5CC008C448485458747468682424383418180AB
:10F5DC004000C1814001C0804101C0804100C18117
:10F5EC004001C0804100C1814000C1814001C08008
:10F5FC004101C0804100C1814000C1814001C080F7
:10F60C004100C1814001C0804101C0804100C181E5
:10F61C004001C0804100C1814000C1814001C080D7
:10F62C004100C1814001C0804101C0804100C181C5
:10F63C004000C1814001C0804101C0804100C181B6
:10F64C004001C0804100C1814000C1814001C080A7
:10F65C004101C0804100C1814000C1814001C08096
:10F66C004100C1814001C0804101C0804100C18185
:10F67C004000C1814001C0804101C0804100C18176
:10F68C004001C0804100C1814000C1814001C08067
:10F69C004100C1814001C0804101C0804100C18155
:10F6AC004001C0804100C1814000C1814001C08047
:10F6BC004101C0804100C1814000C1814001C08036
:10F6CC004100C1814001C0804101C0804100C18125
:10F6DC004000C0C101C30302C2C60607C705C5C4AA
:10F6EC0004CC0C0DCD0FCFCE0E0ACACB0BC909081A
:10F6FC00C8D81819D91BDBDA1A1EDEDF1FDD1D1C5A
:10F70C00DC14D4D515D71716D6D21213D311D1D0E9
:10F71C0010F03031F133F3F23236F6F737F5353489
:10F72C00F43CFCFD3DFF3F3EFEFA3A3BFB39F9F859
:10F73C003828E8E929EB2B2AEAEE2E2FEF2DEDECF9
:10F74C002CE42425E527E7E62622E2E323E1212029
:10F75C00E0A06061A163A3A26266A6A767A5656429
:10F76C00A46CACAD6DAF6F6EAEAA6A6BAB69A9A899
:10F77C006878B8B979BB7B7ABABE7E7FBF7DBDBCD9
:10F78C007CB47475B577B7B67672B2B373B1717069
:10F79C00B0509091519353529296565797559594C9
:10F7AC00549C5C5D9D5F9F9E5E5A9A9B5B995958D9
:10F7BC0098884849894B8B8A4A4E8E8F4F8D4D4C79
:10F7CC008C448485458747468682424383418180A9
:10F7DC004000C1814001C0804101C0804100C18115
:10F7EC004001C0804100C1814000C1814001C08006
:10F7FC004101C0804100C1814000C1814001C080F5
:10F80C004100C1814001C0804101C0804100C181E3
:10F81C004001C0804100C1814000C1814001C080D5
:10F82C004100C1814001C0804101C0804100C181C3
:10F83C004000C1814001C0804101C0804100C181B4
:10F84C004001C0804100C1814000C1814001C080A5
:10F85C004101C0804100C1814000C1814001C08094
:10F86C004100C1814001C0804101C0804100C18183
:10F87C004000C1814001C0804101C0804100C18174
:10F88C004001C0804100C1814000C1814001C08065
:10F89C004100C1814001C0804101C0804100C18153
:10F8AC004001C0804100C1814000C1814001C08045
:10F8BC004101C0804100C1814000C1814001C08034
:10F8CC004100C1814001C0804101C0804100C18123
:10F8DC004000C0C101C30302C2C60607C705C5C4A8
:10F8EC0004CC0C0DCD0FCFCE0E0ACACB0BC9090818
:10F8FC00C8D81819D91BDBDA1A1EDEDF1FDD1D1C58
:10F90C00DC14D4D515D71716D6D21213D311D1D0E7
:10F91C0010F03031F133F3F23236F6F737F5353487
:10F92C00F43CFCFD3DFF3F3EFEFA3A3BFB39F9F857
:10F93C003828E8E929EB2B2AEAEE2E2FEF2DEDECF7
:10F94C002CE42425E527E7E62622E2E323E1212027
:10F95C00E0A06061A163A3A26266A6A767A5656427
:10F96C00A46CACAD6DAF6F6EAEAA6A6BAB69A9A897
:10F97C006878B8B979BB7B7ABABE7E7FBF7DBDBCD7
:10F98C007CB47475B577B7B67672B2B373B1717067
:10F99C00B0509091519353529296565797559594C7
:10F9AC00549C5C5D9D5F9F9E5E5A9A9B5B995958D7
:10F9BC0098884849894B8B8A4A4E8E8F4F8D4D4C77
:10F9CC008C448485458747468682424383418180A7
:10F9DC004000C1814001C0804101C0804100C18113
:10F9EC004001C0804100C1814000C1814001C08004
:10F9FC004101C0804100C1814000C1814001C080F3
:10FA0C004100C1814001C0804101C0804100C181E1
:10FA1C004001C0804100C1814000C1814001C080D3
:10FA2C004100C1814001C0804101C0804100C181C1
:10FA3C004000C1814001C0804101C0804100C181B2
:10FA4C004001C0804100C1814000C1814001C080A3
:10FA5C004101C0804100C1814000C1814001C08092
:10FA6C004100C1814001C0804101C0804100C18181
:10FA7C004000C1814001C0804101C0804100C18172
:10FA8C004001C0804100C1814000C1814001C08063
:10FA9C004100C1814001C0804101C0804100C18151
:10FAAC004001C0804100C1814000C1814001C08043
:10FABC004101C0804100C1814000C1814001C08032
:10FACC004100C1814001C0804101C0804100C18121
:10FADC004000C0C101C30302C2C60607C705C5C4A6
:10FAEC0004CC0C0DCD0FCFCE0E0ACACB0BC9090816
:10FAFC00C8D81819D91BDBDA1A1EDEDF1FDD1D1C56
:10FB0C00DC14D4D515D71716D6D21213D311D1D0E5
:10FB1C0010F03031F133F3F23236F6F737F5353485
:10FB2C00F43CFCFD3DFF3F3EFEFA3A3BFB39F9F855
:10FB3C003828E8E929EB2B2AEAEE2E2FEF2DEDECF5
:10FB4C002CE42425E527E7E62622E2E323E1212025
:10FB5C00E0A06061A163A3A26266A6A767A5656425
:10FB6C00A46CACAD6DAF6F6EAEAA6A6BAB69A9A895
:10FB7C006878B8B979BB7B7ABABE7E7FBF7DBDBCD5
:10FB8C007CB47475B577B7B67672B2B373B1717065
:10FB9C00B0509091519353529296565797559594C5
:10FBAC00549C5C5D9D5F9F9E5E5A9A9B5B995958D5
:10FBBC0098884849894B8B8A4A4E8E8F4F8D4D4C75
:10FBCC008C448485458747468682424383418180A5
:10FBDC004000C1814001C0804101C0804100C18111
:10FBEC004001C0804100C1814000C1814001C08002
:10FBFC004101C0804100C1814000C1814001C080F1
:10FC0C004100C1814001C0804101C0804100C181DF
:10FC1C004001C0804100C1814000C1814001C080D1
:10FC2C004100C1814001C0804101C0804100C181BF
:10FC3C004000C1814001C0804101C0804100C181B0
:10FC4C004001C0804100C1814000C1814001C080A1
:10FC5C004101C0804100C1814000C1814001C08090
:10FC6C004100C1814001C0804101C0804100C1817F
:10FC7C004000C1814001C0804101C0804100C18170
:10FC8C004001C0804100C1814000C1814001C08061
:10FC9C004100C1814001C0804101C0804100C1814F
:10FCAC004001C0804100C1814000C1814001C08041
:10FCBC004101C0804100C1814000C1814001C08030
:10FCCC004100C1814001C0804101C0804100C1811F
:10FCDC004000C0C101C30302C2C60607C705C5C4A4
:10FCEC0004CC0C0DCD0FCFCE0E0ACACB0BC9090814
:10FCFC00C8D81819D91BDBDA1A1EDEDF1FDD1D1C54
:10FD0C00DC14D4D515D71716D6D21213D311D1D0E3
:10FD1C0010F03031F133F3F23236F6F737F5353483
:10FD2C00F43CFCFD3DFF3F3EFEFA3A3BFB39F9F853
:10FD3C003828E8E929EB2B2AEAEE2E2FEF2DEDECF3
:10FD4C002CE42425E527E7E62622E2E323E1212023
:10FD5C00E0A06061A163A3A26266A6A767A5656423
:10FD6C00A46CACAD6DAF6F6EAEAA6A6BAB69A9A893
:10FD7C006878B8B979BB7B7ABABE7E7FBF7DBDBCD3
:10FD8C007CB47475B577B7B67672B2B373B1717063
:10FD9C00B0509091519353529296565797559594C3
:10FDAC00549C5C5D9D5F9F9E5E5A9A9B5B995958D3
:10FDBC0098884849894B8B8A4A4E8E8F4F8D4D4C73
:10FDCC008C448485458747468682424383418180A3
:10FDDC004000C1814001C0804101C0804100C1810F
:10FDEC004001C0804100C1814000C1814001C08000
:10FDFC004101C0804100C1814000C1814001C080EF
:10FE0C004100C1814001C0804101C0804100C181DD
:10FE1C004001C0804100C1814000C1814001C080CF
:10FE2C004100C1814001C0804101C0804100C181BD
:10FE3C004000C1814001C0804101C0804100C181AE
:10FE4C004001C0804100C1814000C1814001C0809F
:10FE5C004101C0804100C1814000C1814001C0808E
:10FE6C004100C1814001C0804101C0804100C1817D
:10FE7C004000C1814001C0804101C0804100C1816E
:10FE8C004001C0804100C1814000C1814001C0805F
:10FE9C004100C1814001C0804101C0804100C1814D
:10FEAC004001C0804100C1814000C1814001C0803F
:10FEBC004101C0804100C1814000C1814001C0802E
:10FECC004100C1814001C0804101C0804100C1811D
:10FEDC0040E66D0100000000000000000000000082
:10FEEC000000000000000000000000000000000006
:10FEFC0000000000000000000000000000000000F6
:10FF0C0000000000000000000000000000A68501B9
:10FF1C008285015E85010000000A6C01000000DA98
:10FF2C007E01A87901000000EE86010000000000AF
:10FF3C0000000000000000000000000000000000B5
:10FF4C00000000000000000000000000000000366F
:10FF5C008601000000128601EE8501CA85010000B1
:10FF6C00004C7501000000587601B07601000000CD
:10FF7C000000000000002C83010000000000004382
:10FF8C0048317C493A252E32667C563A252E32660B
:10FF9C007C503A252E32667C50574D3A25647C0AAB
:10FFAC000D20004348327C493A252E32667C563A65
:10FFBC00252E32667C503A252E32667C50574D3AAF
:10FFCC0025647C0A0D200054503A252E32667C554F
:10FFDC00524745313A25647C55524745323A25649F
:10FFEC007C200A0D20002530325800696E66006EA8
:04FFFC00616E000032
:020000040001F9
:100000000601506B2AC651F62BC652F62CC653F683
:100010002DC654F654BF11EF80F00FEF80F025EF9E
:1000200080F0010E506F51C66BF552C66CF553C689
:100030006DF554C66EF5C7ECBFF06BC551F66CC5D7
:1000400052F66DC553F66EC554F6000E0601566F96
:10005000000E556FD2C644F6D3C645F65051D8B4FB
:1000600034EF80F036EF80F04AEF80F05051D8A4A2
:100070003CEF80F03EEF80F044EF80F0000E366FF2
:100080002B0E356F48EF80F0000E366F2D0E356F5A
:1000900035C650F651C66BF552C66CF553C66DF5B4
:1000A00054C66EF5CEECACF005016B056C11D8A40E
:1000B0005CEF80F05EEF80F095EF80F0060150512C
:1000C000D8B465EF80F067EF80F070EF80F050C635
:1000D00042FA4407D8A04507000E566F010E556F2F
:1000E000420E552505016B6F0A0E060156210501CA
:1000F0006C6FF70E6D6FFF0E6E6F10ECBFF00601A8
:10010000FD0E4427FF0E452328C67FF529C680F53E
:10011000420E0501816F0A0E826F44C683F545C603
:1001200084F5B2ECB5F075EF85F051C66BF552C6AB
:100130006CF553C66DF554C66EF5CEECACF005010A
:100140006B516C11D8A4A7EF80F0A9EF80F0CCEF31
:1001500080F006015051D8B4B0EF80F0B2EF80F0DB
:10016000BBEF80F050C642FA4407D8A04507000E06
:10017000566F010E556F420E552505016B6F0A0E25
:100180000601562105016C6FFB0E6D6FFF0E6E6F41
:1001900010ECBFF07FEF80F0000E0601576F000EED
:1001A000586F800E596F3F0E5A6F000E3F6F000E52
:1001B0003E6F51C66BF552C66CF553C66DF554C60D
:1001C0006EF5000E05016F6F000E706F000E716FFF
:1001D000000E726FB1ECB4F00501D8B0F2EF80F010
:1001E000F4EF80F0EEEF81F001EF81F040C657F6BA
:1001F00041C658F642C659F643C65AF606013E4B6A
:100200003F2B57C6C7F558C6C8F559C6C9F55AC6D3
:10021000CAF5000E0501CB6F000ECC6F200ECD6F1E
:10022000410ECE6FA4EC8AF0C7C540F6C8C541F6B2
:10023000C9C542F6CAC543F606014051515D0501E4
:100240006B6F06014151525905016C6F0601425115
:10025000535905016D6F06014351545905016E6FE5
:1002600000ECBBF005016EBF41EF81F06E516D11E6
:100270006C1109E1020E6B5DD8A041EF81F043EFF4
:1002800081F0F6EF80F040C60CF641C60DF642C68E
:100290000EF643C60FF651C610F652C611F653C6F7
:1002A00012F654C613F6C0ECA7F00601D8A05BEF17
:1002B00081F05DEF81F0F6EF80F05751515D05015F
:1002C0006B6F06015851525905016C6F0601595167
:1002D000535905016D6F06015A51545905016E6F4E
:1002E00000ECBBF005016EBF83EF81F06E516D1124
:1002F0006C1107E1020E6B5DD8B081EF81F083EFE6
:1003000081F0D4EF81F057C651F658C652F659C65F
:1003100053F65AC654F6EEEF81F057C6AEF558C6FE
:10032000AFF559C6B0F55AC6B1F5000E0501B26F6A
:10033000000EB36F200EB46F410EB56FAAEC90F0B3
:10034000AEC557F6AFC558F6B0C559F6B1C55AF6A1
:1003500006013E07D8A03F075751515D05016B6F5D
:1003600006015851525905016C6F060159515359F4
:1003700005016D6F06015A51545905016E6F00EC6D
:10038000BBF005016EBFD2EF81F06E516D116C11A3
:1003900007E1020E6B5DD8B0D0EF81F0D2EF81F0B3
:1003A000D4EF81F083EF81F051C60CF652C60DF602
:1003B00053C60EF654C60FF657C610F658C611F6B9
:1003C00059C612F65AC613F6C0ECA7F00601D8A01B
:1003D000ECEF81F0EEEF81F08DEF81F02EC638F674
:1003E00038C639F60601D5BFF8EF81F0FAEF81F093
:1003F00000EF82F0D4C631F6D5C632F604EF82F0B3
:10040000000E326F060E316F31C63CF632C63DF635
:100410003C4B3D2B660E3919D8A411EF82F013EF37
:1004200082F033EF82F03FBF1AEF82F018EF82F0D4
:1004300026EF82F0000E576F000E586F800E596F36
:100440003F0E5A6F000E3F6F000E3E6F670E381959
:10045000D8B42DEF82F02FEF82F033EF82F03E51CF
:100460003C273F513D23000E4F6F000E4E6F51C68B
:1004700046F652C647F653C648F654C649F657C61E
:1004800040F658C641F659C642F65AC643F6C5EF7D
:1004900082F046C6AEF547C6AFF548C6B0F549C6C8
:1004A000B1F557C6B2F558C6B3F559C6B4F55AC634
:1004B000B5F5AAEC90F0AEC5C7F5AFC5C8F5B0C5A7
:1004C000C9F5B1C5CAF5A2EC9BF0C7C54AF6C8C5C7
:1004D0004BF6C9C54CF6CAC54DF64AC624F64BC6FE
:1004E00025F64CC626F64DC627F630ECABF024C6F2
:1004F0003AF625C63BF646C600F647C601F648C69C
:1005000002F649C603F64AC6CBF54BC6CCF54CC637
:10051000CDF54DC6CEF557C6C7F558C6C8F559C670
:10052000C9F55AC6CAF5A4EC8AF0C7C504F6C8C511
:1005300005F6C9C506F6CAC507F6B7ECBDF000C694
:1005400046F601C647F602C648F603C649F657C640
:10055000AEF558C6AFF559C6B0F55AC6B1F5000E9E
:100560000501B26F000EB36F200EB46F410EB56F70
:10057000AAEC90F0AEC557F6AFC558F6B0C559F61F
:10058000B1C55AF606014E4B4F2B3C514E5D4F51B3
:10059000800A0501F26F06013D51800A0501F259FA
:1005A000D8A0D5EF82F0D7EF82F049EF82F057C69E
:1005B000C7F558C6C8F559C6C9F55AC6CAF5000EDA
:1005C000CB6F000ECC6FA00ECD6F400ECE6FA4ECA3
:1005D0008AF0C7C54AF6C8C54BF6C9C54CF6CAC5A8
:1005E0004DF646C60CF647C60DF648C60EF649C689
:1005F0000FF64AC610F64BC611F64CC612F64DC69B
:1006000013F6C0ECA7F00601D8B009EF83F00BEFAA
:1006100083F015EF83F0000E4A6F000E4B6F000E53
:100620004C6F000E4D6F3FEF83F046C66BF547C62B
:100630006CF548C66DF549C66EF54AC66FF54BC6F2
:1006400070F54CC671F54DC672F5B1ECB4F005010C
:10065000D8A02DEF83F02FEF83F03FEF83F006015A
:100660003AB135EF83F037EF83F03FEF83F0000EC0
:100670004A6F000E4B6F000E4C6F000E4D6F51C64F
:100680006BF552C66CF553C66DF554C66EF54AC689
:100690006FF54BC670F54CC671F54DC672F548EC5A
:1006A00088F06BC546F66CC547F66DC548F66EC555
:1006B00049F646C60CF647C60DF648C60EF649C6BC
:1006C0000FF6000E0501CB6F000ECC6F200ECD6F24
:1006D000410ECE6F40C6C7F541C6C8F542C6C9F542
:1006E00043C6CAF5A4EC8AF0C7C510F6C8C511F612
:1006F000C9C512F6CAC513F6C0ECA7F00601D8A00A
:1007000084EF83F086EF83F0AFEF83F03E4B3F2B17
:1007100040C6C7F541C6C8F542C6C9F543C6CAF5C5
:10072000000E0501CB6F000ECC6F200ECD6F410E79
:10073000CE6FA4EC8AF0C7C540F6C8C541F6C9C55E
:1007400042F6CAC543F6660E06013919D8A4ABEFC6
:1007500083F0ADEF83F0AFEF83F03C4B3D2B40C611
:1007600057F641C658F642C659F643C65AF63EC633
:100770002FF63FC630F6376B000E346F000E336F26
:10078000000E4F6F000E4E6FACEF84F046C6AEF514
:1007900047C6AFF548C6B0F549C6B1F557C6B2F57C
:1007A00058C6B3F559C6B4F55AC6B5F5AAEC90F0DB
:1007B000AEC5C7F5AFC5C8F5B0C5C9F5B1C5CAF571
:1007C000A2EC9BF0C7C54AF6C8C54BF6C9C54CF6A6
:1007D000CAC54DF64AC624F64BC625F64CC626F6C3
:1007E0004DC627F630ECABF0060125BF03EF84F0D1
:1007F000255107E10A0E245DD8B001EF84F003EF24
:1008000084F013EF84F04AC624F64BC625F64CC696
:1008100026F64DC627F630ECABF024C63AF625C6D0
:100820003BF617EF84F0000E3B6F090E3A6F06019E
:100830003751D8A41EEF84F020EF84F048EF84F005
:1008400030BF27EF84F025EF84F048EF84F0420EAC
:100850005525D96E0A0E5621DA6E2E0EDF6E554BD7
:10086000562B4407D8A04507010E376F48EF84F098
:10087000420E5525D96E0A0E5621DA6E300EDF6E05
:10088000554B562B4407D8A045073307D8A034074B
:1008900033513411D8A44FEF84F051EF84F038EF86
:1008A00084F0420E5525D96E0A0E5621DA6E3A5161
:1008B000300FDF6E554B562B4407D8A0450746C670
:1008C00000F647C601F648C602F649C603F64AC610
:1008D000CBF54BC6CCF54CC6CDF54DC6CEF557C6BF
:1008E000C7F558C6C8F559C6C9F55AC6CAF5A4EC25
:1008F0008AF0C7C504F6C8C505F6C9C506F6CAC557
:1009000007F6B7ECBDF000C646F601C647F602C6CC
:1009100048F603C649F657C6AEF558C6AFF559C6F0
:10092000B0F55AC6B1F5000E0501B26F000EB36FF7
:10093000200EB46F410EB56FAAEC90F0AEC557F61D
:10094000AFC558F6B0C559F6B1C55AF606012F071E
:10095000D8A030074E4B4F2B3C514E5D4F51800A73
:100960000501F26F06013D51800A0501F259D8B028
:10097000BCEF84F0BEEF84F0CDEF84F0060156BFEB
:10098000CBEF84F0565109E14B0E555DD8A0CBEF6B
:1009900084F0CDEF84F0C6EF83F0000E06014F6FB8
:1009A0004F0E4E6F420E4E25D96E0A0E4F21DA6E53
:1009B000DF6A420E0501F26F0A0EF36F0601555110
:1009C0000501F25F060156510501F35B06014E5128
:1009D0000501F2256B6F06014F510501F3216C6F84
:1009E000420E6D6F0A0E6E6F55C66FF556C670F5E6
:1009F00030ECBCF0060155514E5D556F56514F59C4
:100A0000566F5051D8A407EF85F00AEF85F0010E1C
:100A10000BEF85F0000E4E6F4F6BE0A312EF85F0E9
:100A200014EF85F04AEF85F025EF85F006015507B4
:100A3000D8A05607420E5525D96E0A0E5621DA6EF9
:100A4000300EDF6E4407D8A0450744514E5D4F512C
:100A5000800A0501F26F06014551800A0501F2592D
:100A6000D8B035EF85F037EF85F04AEF85F0060115
:100A700055514E5D4F51800A0501F26F06015651E6
:100A8000800A0501F259D8A048EF85F04AEF85F0B9
:100A900016EF85F006015051D8B451EF85F053EFB1
:100AA00085F05EEF85F05507D8A05607420E552514
:100AB000D96E0A0E5621DA6E50C6DFF44E51445FED
:100AC0004F51455B28C67FF529C680F5420E552556
:100AD0000501816F0A0E060156210501826F44C689
:100AE00083F545C684F5B2ECB5F012002AC600F6CF
:100AF0002BC601F62CC602F62DC603F62EC604F64A
:100B00002FC605F630C606F631C607F6B7ECBDF0BF
:100B100000C64EF601C64FF602C650F603C651F6A1
:100B2000060120EE01F02851D9262951DA22DEC42F
:100B3000C7F5DEC4C8F5DEC4C9F5DEC4CAF54EC6C5
:100B4000CBF54FC6CCF550C6CDF551C6CEF5A4ECCD
:100B50008AF0C7C532F6C8C533F6C9C534F6CAC56A
:100B600035F64EC608F64FC609F650C60AF651C607
:100B70000BF6E6ECC0F008C60CF609C60DF60AC680
:100B80000EF60BC60FF6000E0601106F000E116F69
:100B9000480E126F420E136FC0ECA7F00601D8B0DA
:100BA000D4EF85F0D6EF85F075EF86F020EE1DF0DE
:100BB0002851D9262951DA22DEC46BF5DEC46CF542
:100BC000DEC46DF5DEC46EF54EC66FF54FC670F52A
:100BD00050C671F551C672F548EC88F0060120EE5A
:100BE0001DF02851D9262951DA2205016BC5DEF402
:100BF0006CC5DEF46DC5DEF46EC5DEF4060120EED4
:100C00000DF02851D9262951DA22DEC40CF6DEC4B3
:100C10000DF6DEC40EF6DEC40FF620EE1DF02851F0
:100C2000D9262951DA22DEC410F6DEC411F6DEC45C
:100C300012F6DEC413F6C0ECA7F00601D8B023EF1D
:100C400086F025EF86F039EF86F020EE0DF0285182
:100C5000D9262951DA2210EE1DF02851E12629511A
:100C6000E222DEC4E6F4DEC4E6F4DEC4E6F4DEC46A
:100C7000E6F420EE1DF02851D9262951DA22DEC4EF
:100C80000CF6DEC40DF6DEC40EF6DEC40FF620EE62
:100C900011F02851D9262951DA22DEC410F6DEC41B
:100CA00011F6DEC412F6DEC413F6C0ECA7F006019E
:100CB000D8B05DEF86F05FEF86F083EF86F020EE30
:100CC00011F02851D9262951DA2210EE1DF02851B1
:100CD000E1262951E222DEC4E6F4DEC4E6F4DEC4F5
:100CE000E6F4DEC4E6F483EF86F020EE1DF0285132
:100CF000D9262951DA22000EDE6E000EDE6E000EBD
:100D0000DE6E000EDD6E20EE05F02851D926295149
:100D1000DA22DEC4C7F5DEC4C8F5DEC4C9F5DEC418
:100D2000CAF520EE1DF02851D9262951DA22DEC459
:100D3000CBF5DEC4CCF5DEC4CDF5DEC4CEF5A4EC37
:100D40008AF0C7C536F6C8C537F6C9C538F6CAC56C
:100D500039F6060120EE21F02851D9262951DA2250
:100D6000DEC404F6DEC405F6DEC406F6DEC407F60D
:100D70004EC600F64FC601F650C602F651C603F63F
:100D8000B7ECBDF000C6C7F501C6C8F502C6C9F587
:100D900003C6CAF5060120EE09F02851D9262951CB
:100DA000DA22DEC4CBF5DEC4CCF5DEC4CDF5DEC47C
:100DB000CEF5A4EC8AF0C7C53AF6C8C53BF6C9C55E
:100DC0003CF6CAC53DF6060120EE21F02851D92691
:100DD0002951DA224EC6DEF44FC6DEF450C6DEF4E8
:100DE00051C6DEF436C66FF537C670F538C671F5F4
:100DF00039C672F532C66BF533C66CF534C66DF57F
:100E000035C66EF548EC88F06BC53EF66CC53FF60E
:100E10006DC540F66EC541F63EC66BF53FC66CF536
:100E200040C66DF541C66EF53AC66FF53BC670F526
:100E30003CC671F53DC672F548EC88F06BC54AF6C4
:100E40006CC54BF66DC54CF66EC54DF628C6D9F48B
:100E500029C6DAF4DE04D8A430EF87F032EF87F049
:100E6000B7EF87F006014DBF3AEF87F038EF87F014
:100E700044EF87F0000E426F000E436F000E446F88
:100E8000BF0E456F4CEF87F0000E426F000E436FB0
:100E9000000E446F3F0E456F4AC66FF54BC670F5A6
:100EA0004CC671F54DC672F542C66BF543C66CF57E
:100EB00044C66DF545C66EF548EC88F06BC524F662
:100EC0006CC525F66DC526F66EC527F630ECABF081
:100ED000060124510701C827060125510701C9232E
:100EE000000E0601186F000E196F480E1A6F450E9E
:100EF0001B6FC8C7A0F5C9C7A1F50501000EA1BFAA
:100F0000FF0EA26FA36F010E64ECA1F0A0C514F652
:100F1000A1C515F6A2C516F6A3C517F655ECA8F09F
:100F200014C620F615C621F616C622F617C623F6F5
:100F3000000E06011C6F000E1D6F000E1E6F000ECE
:100F40001F6FE9ECA8F01CC624F61DC625F61EC6C8
:100F500026F61FC627F630ECABF024C6C8F725C628
:100F6000C9F7C8C728F6C9C729F647EF88F028C6C9
:100F7000D9F429C6DAF4020EDE18D8A4C2EF87F03D
:100F8000C4EF87F047EF88F006014DBFCCEF87F044
:100F9000CAEF87F0D6EF87F0000E466F000E476F5E
:100FA000000E486FBF0E496FDEEF87F0000E466FF0
:100FB000000E476F000E486F3F0E496F4AC66FF52F
:100FC0004BC670F54CC671F54DC672F546C66BF54D
:100FD00047C66CF548C66DF549C66EF548EC88F015
:100FE0006BC524F66CC525F66DC526F66EC527F6CD
:100FF00030ECABF0060124510701C627060125514C
:101000000701C723000E0601186F000E196F480E66
:101010001A6F450E1B6FC6C7A0F5C7C7A1F505011E
:10102000000EA1BFFF0EA26FA36F010E64ECA1F032
:10103000A0C514F6A1C515F6A2C516F6A3C517F6E8
:1010400055ECA8F014C620F615C621F616C622F6F1
:1010500017C623F6000E06011C6F000E1D6F000E52
:101060001E6F000E1F6FE9ECA8F01CC624F61DC60B
:1010700025F61EC626F61FC627F630ECABF024C6B2
:10108000C6F725C6C7F7C6C728F6C7C729F6120090
:1010900005016E51800B776F6E516E25796F6DAFC4
:1010A00054EF88F056EF88F057EF88F07981795146
:1010B000D8B45DEF88F05FEF88F073EF88F079299E
:1010C000D8A465EF88F067EF88F06FEF88F0000E26
:1010D0006B6F000E6C6F000E6D6F000E6E6F6D8F7C
:1010E0006E6B7BEF88F0000E6B6F000E6C6F000E66
:1010F0006D6F000E6E6F7251800B786F775178199B
:10110000D8B485EF88F087EF88F088EF88F0778D86
:1011100072517225786F71AF90EF88F092EF88F07E
:1011200093EF88F078817851D8B499EF88F09BEFED
:1011300088F0AFEF88F07829D8A4A1EF88F0A3EF6A
:1011400088F0ABEF88F0000E6F6F000E706F000E2E
:10115000716F000E726F718F726BB7EF88F0000EB7
:101160006F6F000E706F000E716F000E726F79510D
:10117000785DD8B0BEEF88F0C0EF88F0E7EF88F078
:1011800077ADC5EF88F0C7EF88F0C9EF88F0800E23
:10119000771B79C57AF578C579F57AC578F56BC589
:1011A0007AF56FC56BF57AC56FF56CC57AF570C5C4
:1011B0006CF57AC570F56DC57AF571C56DF57AC5B2
:1011C00071F56EC57AF572C56EF57AC572F57A6BF2
:1011D000795178C573F5746B735F000E745B74BFDF
:1011E000FBEF88F0745109E11A0E735DD8A0FBEF94
:1011F00088F0FDEF88F034EF89F06B516C116D11C0
:101200006E11D8A406EF89F009EF89F0010E0AEFFC
:1012100089F0000E7A6F000E6B6F000E6C6F000E7F
:101220006D6F000E6E6F78C579F53DEF89F07AA18C
:101230001CEF89F01EEF89F024EF89F0D8907A3105
:1012400001097A6F26EF89F0D8907A336BA12BEFE2
:1012500089F02DEF89F02EEF89F07A8F6E356E339D
:101260006D336C336B33792B7851795DD8A03BEFBC
:1012700089F03DEF89F017EF89F077BD42EF89F0F3
:1012800044EF89F084EF89F07951D8A44AEF89F0CE
:101290004CEF89F056EF89F0000E6B6F000E6C6F0B
:1012A000000E6D6F000E6E6FA3EF8AF06F516B270B
:1012B00070516C2371516D2372516E236EA163EFD7
:1012C00089F065EF89F011EF8AF07AA16AEF89F071
:1012D0006CEF89F072EF89F0D8907A3101097A6F5A
:1012E00074EF89F0D8907A336BA179EF89F07BEFB6
:1012F00089F07CEF89F07A8F6E356E336D336C3305
:101300006B33792B11EF8AF06F516B5D70516C5913
:1013100071516D596E51800A736F7251800A735901
:10132000D8B095EF89F097EF89F0C2EF89F06B5153
:101330006F5D736F6C517059746F6D517159756F2A
:101340006E517259766FFF0E73256B6FFF0E74210D
:101350006C6FFF0E75216D6FFF0E76216E6F800E24
:10136000771B7A6D7A51D8A4B8EF89F0BAEF89F07B
:10137000CAEF89F0010E6B27000E6C236D236E23DC
:10138000CAEF89F06F516B5F70516C5B71516D5B8F
:1013900072516E5B6B516C116D116E11D8A4D3EF4D
:1013A00089F0D5EF89F00AEF8AF07A51D8A4DBEF03
:1013B00089F0DDEF89F00AEF8AF0000E6B6F000E06
:1013C0006C6F000E6D6F000E6E6FA3EF8AF0D890F9
:1013D0006B376C376D376E377AAFF1EF89F0F3EF1B
:1013E00089F0F4EF89F06B817AA1F9EF89F0FBEFD6
:1013F00089F0FFEF89F0D8807A3701EF8AF0D89032
:101400007A377951D8B407EF8AF009EF8AF00AEFFA
:101410008AF079076DAF0FEF8AF011EF8AF0E7EFEE
:1014200089F0786B7AAF17EF8AF019EF8AF031EF15
:101430008AF07AC573F57F0E7317D8B422EF8AF05D
:1014400024EF8AF028EF8AF0010E786F31EF8AF0EE
:101450006BA12DEF8AF02FEF8AF031EF8AF024EFA5
:101460008AF07851D8B437EF8AF039EF8AF064EF18
:101470008AF0010E6B27000E6C236D236E236EA184
:1014800044EF8AF046EF8AF064EF8AF06BC573F59B
:101490006CC574F56DC575F56EC576F57635763324
:1014A00075337433733373C56BF574C56CF575C5DB
:1014B0006DF576C56EF57929D8B461EF8AF063EFE2
:1014C0008AF064EF8AF0792B7929D8B46AEF8AF030
:1014D0006CEF8AF074EF8AF07951D8A472EF8AF039
:1014E00074EF8AF085EF8AF0000E6B6F000E6C6F60
:1014F000000E6D6F000E6E6F7951D8A482EF8AF0E6
:1015000084EF8AF085EF8AF0776B79A18AEF8AF011
:101510008CEF8AF08FEF8AF06D8F90EF8AF06D9FDD
:10152000D89079316E6F77AF98EF8AF09AEF8AF0A2
:101530009BEF8AF06E8F6BC56BF56CC56CF56DC556
:101540006DF56EC56EF512000501CA51800BD36FA3
:10155000CA51CA25D96FC9AFB0EF8AF0B2EF8AF08D
:10156000B3EF8AF0D981D951D8B4B9EF8AF0BBEF83
:101570008AF0CEEF8AF0D929D8A4C1EF8AF0C3EF60
:101580008AF0CBEF8AF0000EC76F000EC86F000E16
:10159000C96F000ECA6FC98FD6EF8AF0000EC76FF1
:1015A000000EC86F000EC96F000ECA6FCE51800BBF
:1015B000D31BCE51CE25D46FCDAFE1EF8AF0E3EF50
:1015C0008AF0E4EF8AF0D481D451D8B4EAEF8AF0FB
:1015D000ECEF8AF0FFEF8AF0D429D8A4F2EF8AF07A
:1015E000F4EF8AF0FCEF8AF0000ECB6F000ECC6FA8
:1015F000000ECD6F000ECE6FCD8F07EF8BF0000E7B
:10160000CB6F000ECC6F000ECD6F000ECE6FD4519D
:10161000D8B40DEF8BF00FEF8BF017EF8BF0D951A3
:10162000D8A415EF8BF017EF8BF021EF8BF0000EA5
:10163000C76F000EC86F000EC96F000ECA6FB7EFFC
:101640008CF0CD51C703F3C4DEF5F4C4DFF5DE51F1
:10165000D56FD66BD76BD86BDF51DA6FDB6BDC6B7A
:10166000DD6BCC51C803F3C4DEF5F4C4DFF5DE5105
:10167000D527000ED623D723D823DF51DA27000E33
:10168000DB23DC23DD23CB51C903F3C4DEF5F4C433
:10169000DFF5DE51D527000ED623D723D823DF511F
:1016A000DA27000EDB23DC23DD23D7C5D8F5D6C52A
:1016B000D7F5D5C5D6F5D56BCB51C803F3C4DEF548
:1016C000F4C4DFF5DE51D527DF51D623000ED72332
:1016D000000ED823CC51C703F3C4DEF5F4C4DFF504
:1016E000DE51D527DF51D623000ED723000ED82395
:1016F000D7C5D8F5D6C5D7F5D5C5D6F5D56BCB5159
:10170000C703F3C4DEF5F4C4DFF5DE51D527DF519E
:10171000D623000ED723000ED823CD51C803F3C41F
:10172000DEF5F4C4DFF5DE51DA27DF51DB23000EEE
:10173000DC23000EDD23CC51C903F3C4DEF5F4C471
:10174000DFF5DE51DA27DF51DB23000EDC23000E4C
:10175000DD23CD51C903F3C4DEF5F4C4DFF5DE515A
:10176000CF6FDF51D06FD16BD26BD1C5D2F5D0C561
:10177000D1F5CFC5D0F5CF6BCF51DA27D051DB23D0
:10178000D151DC23D251DD23D5C5CFF5D6C5D0F557
:10179000D7C5D1F5D8C5D2F5190ED4EF8BF0D890B6
:1017A000D233D133D033CF33E82ECFEF8BF0CF51BC
:1017B000DA27D051DB23D151DC23D251DD23D7C529
:1017C000D8F5D6C5D7F5D5C5D6F5D56BD451D9C57D
:1017D000CFF5D06BCF27000ED023820ECF25DE6F42
:1017E000FF0ED021DF6F0AEF8CF0D890DA37DB37AD
:1017F000DC37DD37D8AFFFEF8BF001EF8CF002EF75
:101800008CF0DA81D890D537D637D737D837DE077E
:10181000D8A0DF07DCAF0FEF8CF011EF8CF0F5EF05
:101820008BF0D46BD8AF17EF8CF019EF8CF03DEF45
:101830008CF0FF0ED515CF6FFF0ED615D06FFF0EB3
:10184000D715D16F7F0ED815D26FCF51D011D111CE
:10185000D211D8B42EEF8CF030EF8CF034EF8CF046
:10186000010ED46F3DEF8CF0DAA139EF8CF03BEF35
:101870008CF03DEF8CF030EF8CF0D451D8B443EFC6
:101880008CF045EF8CF069EF8CF0010EDA27000E3A
:10189000DB23DC23DD23DDA150EF8CF052EF8CF055
:1018A00069EF8CF0DAC5CFF5DBC5D0F5DCC5D1F535
:1018B000DDC5D2F5D235D233D133D033CF33CFC516
:1018C000DAF5D0C5DBF5D1C5DCF5D2C5DDF5DE4BEB
:1018D000DF2BDFBF74EF8CF0DF5108E1DE29D8A0E9
:1018E00074EF8CF076EF8CF080EF8CF0000EDA6FF6
:1018F000000EDB6F800EDC6F7F0EDD6FADEF8CF0C6
:10190000DFBF8DEF8CF0DF5106E1DE05D8B08BEF45
:101910008CF08DEF8CF098EF8CF0000EDA6F000EEB
:10192000DB6F000EDC6F000EDD6FD36BADEF8CF064
:10193000DEC5D9F5FF0EDA17FF0EDB177F0EDC17B9
:10194000000EDD17D9A1A7EF8CF0A9EF8CF0AAEF5C
:101950008CF0DC8FD890D931DD6FD351DD13DAC52F
:10196000C7F5DBC5C8F5DCC5C9F5DDC5CAF512008C
:101970005DC6D9F45EC6DAF4DEC4F6F4DDC4F7F46D
:10198000000EF86E0800F550250AD8A4CAEF8CF0B6
:10199000CCEF8CF0B0EF8EF05DC6D9F45EC6DAF411
:1019A000DE2A000EDD22000E0601D36F000ED26F7C
:1019B000D2C6E0F6D469D569636BFFEF8CF0E083A3
:1019C0005DC6D9F45EC6DAF4DE2A000EDD22FFEF32
:1019D0008CF0010E636FFFEF8CF05DC6D9F45EC62C
:1019E000DAF4DEC4F6F4DDC4F7F4000EF86E080095
:1019F000F550300AD8B4DFEF8CF0E9EF8CF063518A
:101A0000D8B405EF8DF007EF8DF0EDEF8CF05DC6EB
:101A10006BF55EC66CF55FC66DF560C66EF523ECC2
:101A2000AFF06BC5D2F66CC5D3F60601D3BF1DEF80
:101A30008DF01BEF8DF022EF8DF0E081D26DD31F82
:101A4000D8B0D32B5DC6D9F45EC6DAF4DEC4F6F4A2
:101A5000DDC4F7F4000EF86E0800F5502E0AD8A485
:101A600034EF8DF036EF8DF04BEF8DF05DC6D9F48D
:101A70005EC6DAF4DE2A000EDD225DC66BF55EC6B8
:101A80006CF55FC66DF560C66EF523ECAFF06BC507
:101A9000D4F66CC5D5F65DC6D9F45EC6DAF4DEC4FC
:101AA00069F6DDC46AF669C6F6F46AC6F7F4000E94
:101AB000F86E0800F550640AD8B461EF8DF063EF5A
:101AC0008DF073EF8DF069C6F6F46AC6F7F4000E78
:101AD000F86E0800F550690AD8A471EF8DF073EF25
:101AE0008DF0A2EF8DF05FC6D9F460C6DAF4DFC4E2
:101AF00061F6020EDE26DFC462F6000EDD2261C64C
:101B0000D9F462C6DAF4DEC465F6DDC466F6010E09
:101B100006016925616F000E6A21626F5DC6D9F406
:101B20005EC6DAF461C6DEF462C6DDF45BC688F533
:101B30005CC689F565C68AF566C68BF582ECA0F0B1
:101B4000C7EF8EF069C6F6F46AC6F7F4000EF86EB9
:101B50000800F550580AD8A4B0EF8DF0B2EF8DF020
:101B6000F1EF8DF05FC6D9F460C6DAF4DFC461F638
:101B7000020EDE26DFC462F6000EDD2261C6D9F455
:101B800062C6DAF4DEC465F6DDC466F6010E06014F
:101B90006925616F000E6A21626F5DC6D9F45EC669
:101BA000DAF461C6DEF462C6DDF4E3EF8DF05BC605
:101BB00088F55CC689F565C68AF566C68BF551EC75
:101BC000A5F0C7EF8EF069C6F6F46AC6F7F4000E0A
:101BD000F86E0800F550580AD8B4D7EF8DF0F1EF41
:101BE0008DF05DC6D9F45EC6DAF4DEC469F6DDC4F4
:101BF0006AF669C6F6F46AC6F7F4000EF86E0800D5
:101C0000F5C464F60FEF8EF0694B6A2B1FEF8EF070
:101C10006C0E646F1FEF8EF0646B1FEF8EF0060189
:101C200064514C0AD8B404EF8EF02A0AD8B408EFF5
:101C30008EF00A0AD8B404EF8EF00CEF8EF069C66D
:101C4000F6F46AC6F7F4000EF86E0800F550660A5E
:101C5000D8A42DEF8EF02FEF8EF0A7EF8EF065EF6A
:101C60008EF05FC6D9F460C6DAF4DFC461F6040E04
:101C7000DE26DFC462F6000EDD2261C6D9F462C63C
:101C8000DAF4DEC465F6DEC466F6DEC467F6DEC4EA
:101C900068F670EF8EF05FC6D9F460C6DAF4DFC480
:101CA00061F6040EDE26DFC462F6000EDD2261C698
:101CB000D9F462C6DAF4DEC465F6DEC466F6DEC4C4
:101CC00067F6DEC468F670EF8EF064514C0AD8B443
:101CD0004BEF8EF0200AD8B431EF8EF070EF8EF01B
:101CE000010E6925616F000E6A21626F5DC6D9F42D
:101CF0005EC6DAF461C6DEF462C6DDF499EF8EF0FA
:101D00005BC628F65CC629F665C62AF666C62BF6BB
:101D100067C62CF668C62DF669C6F6F46AC6F7F4EF
:101D2000000EF86E0800F5C42EF600EC80F0C7EF48
:101D30008EF069C6F6F46AC6F7F4000EF86E080075
:101D4000F550660AD8B480EF8EF0A7EF8EF05DC62E
:101D5000D9F45EC6DAF4DE2A000EDD22C7EF8EF07B
:101D60005DC6D9F45EC6DAF4DEC4F6F4DDC4F7F479
:101D7000000EF86E0800F55005016F6F706B5BC6C2
:101D800071F55CC672F58AECAFF0A7EF8EF0120029
:101D9000030EE4ECBFF06BC514F66CC515F6000E2F
:101DA0000501B26FF00EB36F7F0EB46F450EB56FC5
:101DB00014C6A0F515C6A1F5000EA1BFFF0EA26FB7
:101DC000A36F010E64ECA1F0A0C5AEF5A1C5AFF5FF
:101DD000A2C5B0F5A3C5B1F5AAEC90F0AEC5C7F5A4
:101DE000AFC5C8F5B0C5C9F5B1C5CAF56F0E0501D7
:101DF000CB6F120ECC6F830ECD6F400ECE6FA4EC66
:101E00008AF0C7C51EF6C8C51FF6C9C520F6CAC5E3
:101E100021F61EC644F81FC645F820C646F821C65E
:101E200047F80DECC4F06BC51AF66CC51BF66DC512
:101E30001CF66EC51DF618C76FF519C770F51AC7E1
:101E400071F51BC772F589ECB7F06FC516F670C552
:101E500017F671C518F672C519F614C704F615C73A
:101E600005F616C706F617C707F61EC600F61FC604
:101E700001F620C602F621C603F6B7ECBDF000C697
:101E800008F601C609F602C60AF603C60BF6E6EC2A
:101E9000C0F008C60CF609C60DF60AC60EF60BC64B
:101EA0000FF6CD0E0601106FCC0E116F4C0E126F97
:101EB0003D0E136FC0ECA7F00601D8B062EF8FF0B3
:101EC00064EF8FF06FEF8FF0050EE3616AEF8FF034
:101ED0006CEF8FF070EF8FF0E32B70EF8FF0E36B10
:101EE0001EC614F71FC615F720C616F721C617F72A
:101EF0009AEF90F0EA6B040EE36581EF8FF083EFC9
:101F00008FF0A9EF90F01EC60CF61FC60DF620C686
:101F10000EF621C60FF6660E106F660E116FE60EF6
:101F2000126F3F0E136FC0ECA7F00601D8A09BEF15
:101F30008FF09DEF8FF0D1EF8FF01EC60CF61FC60D
:101F40000DF620C60EF621C60FF6CD0E106FCC0E84
:101F5000116F0C0E126F400E136FC0ECA7F006014C
:101F6000D8B0B5EF8FF0B7EF8FF0D1EF8FF01951F8
:101F700018110BE1E80E165D030E1759D8A0C3EF38
:101F80008FF0C5EF8FF0A9EF90F0010EE46F1AC645
:101F900018F71BC619F71CC61AF71DC61BF7A9EFC1
:101FA00090F01EC60CF61FC60DF620C60EF621C612
:101FB0000FF69A0E106F990E116F190E126F400ED8
:101FC000136FC0ECA7F00601D8A0E9EF8FF0EBEF9C
:101FD0008FF0C7EF8FF0195118110BE1E80E165D65
:101FE000030E1759D8A0F7EF8FF0F9EF8FF0FDEF40
:101FF0008FF0020EE46FC7EF8FF0A9EF90F0010EA3
:10200000EA6F040EE36507EF90F009EF90F0A9EF97
:1020100090F0660E0C6F660E0D6FA60E0E6F3F0EE3
:102020000F6F1EC610F61FC611F620C612F621C687
:1020300013F6C0ECA7F00601D8A021EF90F023EF33
:1020400090F03CEF90F0195118110BE1E80E165D7D
:10205000030E1759D8A02FEF90F031EF90F0A9EFB1
:1020600090F0E46B1AC618F71BC619F71CC61AF7CE
:102070001DC61BF7A9EF90F01EC60CF61FC60DF685
:1020800020C60EF621C60FF69A0E106F990E116F2C
:10209000190E126F400E136FC0ECA7F00601D8A006
:1020A00054EF90F056EF90F0C7EF8FF019511811E0
:1020B0000BE1E80E165D030E1759D8A062EF90F001
:1020C00064EF90F0FDEF8FF0F9EF8FF0020EEA6F02
:1020D000040EE3656EEF90F070EF90F0A9EF90F0D2
:1020E000660E0C6F660E0D6FA60E0E6F3F0E0F6F15
:1020F0001EC610F61FC611F620C612F621C613F62C
:10210000C0ECA7F00601D8A088EF90F08AEF90F01D
:10211000A9EF90F0195118110BE1D00E165D070EC2
:102120001759D8A096EF90F098EF90F0A9EF90F0A3
:1021300031EF90F0E451000AD8B47AEF8FF0010A41
:10214000D8B4FFEF8FF0030AD8B466EF90F0A9EF90
:1021500090F012000501B151800BBE6FB151B12555
:10216000C56FB0AFB6EF90F0B8EF90F0B9EF90F068
:10217000C581C551D8B4BFEF90F0C1EF90F0D5EF55
:1021800090F0C529D8A4C7EF90F0C9EF90F0D1EF37
:1021900090F0000EAE6F000EAF6F000EB06F000E2D
:1021A000B16FB08FB16BDDEF90F0000EAE6F000E2F
:1021B000AF6F000EB06F000EB16FB551800BBE1B3C
:1021C000B551B525C66FB4AFE8EF90F0EAEF90F0E7
:1021D000EBEF90F0C681C651D8B4F1EF90F0F3EF79
:1021E00090F007EF91F0C629D8A4F9EF90F0FBEF3B
:1021F00090F003EF91F0000EB26F000EB36F000E7F
:10220000B46F000EB56FB48FB56B0FEF91F0000E89
:10221000B26F000EB36F000EB46F000EB56FB25107
:10222000B311B411B511D8A418EF91F01AEF91F0D1
:1022300032EF91F0000EAE6F000EAF6F000EB06F78
:10224000000EB16F800EB0137F0EB113BE51B113EB
:10225000AEC5AEF5AFC5AFF5B0C5B0F5B1C5B1F51A
:1022600072EF92F0C551D8A438EF91F03AEF91F0A7
:1022700044EF91F0000EAE6F000EAF6F000EB06F26
:10228000000EB16F72EF92F0C651C5C5B6F5B76BCF
:10229000B65F000EB75B7F0EB625BF6F000EB7218D
:1022A000C06FAEC5BAF5AFC5BBF5B0C5BCF5B1C51D
:1022B000BDF5000EAE6F000EAF6F000EB06F000EDA
:1022C000B16F000EC16F000EC26F000EC36F000E23
:1022D000C46FC66BA4EF91F0C651D8B472EF91F001
:1022E00074EF91F08BEF91F0D890BA37BB37BC37D1
:1022F000BD37D890AE37AF37B037B137C4AF83EF03
:1023000091F085EF91F086EF91F0AE81D890C137D2
:10231000C237C337C437B251BA5DB351BB59B45198
:10232000BC59B551BD59D8A098EF91F09AEF91F0F2
:10233000A3EF91F0C48DB251BA5FB351BB5BB451FE
:10234000BC5BB551BD5BC62B190EC665AAEF91F0FB
:10235000ACEF91F06CEF91F0BA51BB11BC11BD1113
:10236000D8B4B5EF91F0B7EF91F0CFEF91F0C18114
:10237000CFEF91F0D890AE37AF37B037B137C4AFA9
:10238000C4EF91F0C6EF91F0C7EF91F0AE81D89015
:10239000C137C237C337C437BF07D8A0C007B0AFF3
:1023A000D4EF91F0D6EF91F0BAEF91F0C66BC4AFD5
:1023B000DCEF91F0DEEF91F002EF92F0FF0EC1152D
:1023C000B66FFF0EC215B76FFF0EC315B86F7F0E45
:1023D000C415B96FB651B711B811B911D8B4F3EF2C
:1023E00091F0F5EF91F0F9EF91F0010EC66F02EF69
:1023F00092F0AEA1FEEF91F000EF92F002EF92F0BA
:10240000F5EF91F0C651D8B408EF92F00AEF92F0D0
:102410002EEF92F0010EAE27000EAF23B023B123B2
:10242000B1A115EF92F017EF92F02EEF92F0AEC53A
:10243000B6F5AFC5B7F5B0C5B8F5B1C5B9F5B9359D
:10244000B933B833B733B633B6C5AEF5B7C5AFF5A4
:10245000B8C5B0F5B9C5B1F5BF4BC02BC0BF39EF9A
:1024600092F0C05108E1BF29D8A039EF92F03BEFBC
:1024700092F046EF92F0000EC06FBF69000EAE6F93
:10248000000EAF6F000EB06F000EB16FC0BF53EF04
:1024900092F0C05106E1BF05D8B051EF92F053EF72
:1024A00092F060EF92F0000EC06F000EBF6F000E52
:1024B000AE6F000EAF6F000EB06F000EB16FBE6B4F
:1024C000BFC5C5F5C5A167EF92F069EF92F06CEF5B
:1024D00092F0B08F6DEF92F0B09FD890C531B16F90
:1024E00026EF91F012000601E905D8B47AEF92F0D8
:1024F0007CEF92F085EF92F0030EE919D8A483EFF8
:1025000092F085EF92F035EF93F0000E0501B26F77
:10251000000EB36F7A0EB46F440EB56F050EB6ECB5
:102520009DF0050173C5A0F574C5A1F5A26BA36B61
:10253000000E64ECA1F0A0C5AEF5A1C5AFF5A2C533
:10254000B0F5A3C5B1F5AAEC90F0AEC5C7F5AFC51F
:10255000C8F5B0C5C9F5B1C5CAF5AB0E0501CB6F5D
:10256000AA0ECC6F270ECD6F430ECE6FA4EC8AF06F
:10257000C7C560F7C8C561F7C9C562F7CAC563F7C3
:10258000040E82EC9AF000C656F601C657F602C653
:1025900058F603C659F660C7CBF561C7CCF562C7DC
:1025A000CDF563C7CEF556C6C7F557C6C8F558C6AC
:1025B000C9F559C6CAF5A4EC8AF0C7C5AEF5C8C5B9
:1025C000AFF5C9C5B0F5CAC5B1F5000E0501B26FCA
:1025D000000EB36F7A0EB46F440EB56FAAEC90F094
:1025E000AEC55CF7AFC55DF7B0C55EF7B1C55FF7C7
:1025F0003CC714F63DC715F63EC716F63FC717F69B
:10260000B80E0601186F0B0E196F000E1A6F000E30
:102610001B6FB4EC96F014C658F715C659F716C6DA
:102620005AF717C65BF7AE0E0601286F080E296F22
:1026300058C72AF659C72BF65AC72CF65BC72DF692
:102640005CC72EF65DC72FF65EC730F65FC731F662
:1026500076EC85F028C6D0F729C6D1F7D0C76DF53E
:10266000D1C76EF5010E0AECB9F0020E0601E919A8
:10267000D8B43DEF93F03FEF93F048EF93F0030EA3
:10268000E919D8A446EF93F048EF93F0EFEF93F0F9
:10269000000E0501B26F000EB36F7A0EB46F440ED8
:1026A000B56F010EB6EC9DF0050173C5A0F574C5BC
:1026B000A1F5A26BA36B000E64ECA1F0A0C5AEF572
:1026C000A1C5AFF5A2C5B0F5A3C5B1F5AAEC90F0D0
:1026D000AEC5C7F5AFC5C8F5B0C5C9F5B1C5CAF532
:1026E000AB0E0501CB6FAA0ECC6F270ECD6F430E3C
:1026F000CE6FA4EC8AF0C7C554F7C8C555F7C9C555
:1027000056F7CAC557F7000E82EC9AF000C656F687
:1027100001C657F602C658F603C659F654C7CBF59C
:1027200055C7CCF556C7CDF557C7CEF556C6C7F534
:1027300057C6C8F558C6C9F559C6CAF5A4EC8AF0FB
:10274000C7C5AEF5C8C5AFF5C9C5B0F5CAC5B1F5C1
:10275000000E0501B26F000EB36F7A0EB46F440E17
:10276000B56FAAEC90F0AEC550F7AFC551F7B0C544
:1027700052F7B1C553F7D8C7A0F5D9C7A1F50501E0
:10278000A26BA36B000E64ECA1F0A0C552F6A1C52C
:1027900053F6A2C554F6A3C555F6870E0601286F59
:1027A000080E296F52C62AF653C62BF654C62CF6CD
:1027B00055C62DF650C72EF651C72FF652C730F624
:1027C00053C731F676EC85F028C6CEF729C6CFF789
:1027D000CEC76DF5CFC76EF5020E0AECB9F0120048
:1027E00028C76FF529C770F52AC771F52BC772F591
:1027F00089ECB7F06FC5A2F570C5A3F571C5A4F556
:1028000072C5A5F524C76FF525C770F526C771F504
:1028100027C772F589ECB7F06FC5A6F570C5A7F5A7
:1028200071C5A8F572C5A9F50D0EB6EC9DF073C57E
:10283000AAF574C5ABF55E50D8B421EF94F023EF40
:1028400094F03AEF94F00DECC4F06BC524F76CC52E
:1028500025F76DC526F76EC527F70DECC4F06BC5DF
:1028600028F76CC529F76DC52AF76EC52BF7010E41
:10287000596E5E6A0501FB51D8A441EF94F043EF15
:1028800094F040EF95F0A951A8110BE1880EA65DD8
:10289000130EA759D8A04FEF94F051EF94F040EFEA
:1028A00095F0010EFB6F40EF95F05950D8A45BEF07
:1028B00094F05DEF94F071EF94F0A551A4110BE149
:1028C000B80EA25D0B0EA359D8A069EF94F06BEF80
:1028D00094F059EF95F00601EE6B010E596E59EF29
:1028E00095F0FB51D8A477EF94F079EF94F091EF45
:1028F00094F0730EAA5D060EAB59D8A082EF94F047
:1029000084EF94F091EF94F0010E5A6E0DECC4F048
:102910006BC528F76CC529F76DC52AF76EC52BF76F
:10292000596A0501FB05D8A498EF94F09AEF94F04A
:1029300059EF95F0350EAA5D080EAB59D8A0A3EF5C
:1029400094F0A5EF94F059EF95F0010E5A6E0DEC4E
:10295000C4F06BC528F76CC529F76DC52AF76EC59D
:102960002BF7596A59EF95F0FE6B010E0601EE6FD9
:102970000501FB05D8A4BFEF94F0C1EF94F0F3EF8D
:1029800094F0A40EAA5D060EAB59D8B0CAEF94F02D
:10299000CCEF94F0CFEF94F05A6AA7EF94F0D70EF3
:1029A000AA5D060EAB59D8A0D8EF94F0DAEF94F0F8
:1029B00059EF95F03A0EAA5D070EAB59D8B0E3EF88
:1029C00094F0E5EF94F059EF95F0020E5A6E0DEC8D
:1029D000C4F06BC528F76CC529F76DC52AF76EC51D
:1029E0002BF759EF95F0FB51D8A4F9EF94F0FBEFDA
:1029F00094F059EF95F0A40EAA5D060EAB59D8B02D
:102A000004EF95F006EF95F00AEF95F0010EFB6FDD
:102A1000CCEF94F0D70EAA5D060EAB59D8A013EFF9
:102A200095F015EF95F059EF95F03A0EAA5D070E67
:102A3000AB59D8B01EEF95F020EF95F059EF95F017
:102A4000E5EF94F0010EFE6F350EAA5D080EAB594E
:102A5000D8A02DEF95F02FEF95F033EF95F0010E04
:102A60005A6EE7EF94F0A40EAA5D060EAB59D8B0EB
:102A70003CEF95F03EEF95F059EF95F0CCEF94F0E8
:102A80005A50A06FA16BA151000AD8B44AEF95F03B
:102A900059EF95F0A051000AD8B455EF94F0010A0F
:102AA000D8B4B4EF94F0030AD8B422EF95F059EFFC
:102AB00095F012000601EE05D8B461EF95F063EFD2
:102AC00095F067EF95F0B3EF96F0B3EF96F0E9511C
:102AD000D8A46DEF95F06FEF95F071EF95F0B3EF2F
:102AE00096F020C76FF521C770F522C771F523C78F
:102AF00072F589ECB7F06FC52AF670C52BF671C573
:102B00002CF672C52DF61CC76FF51DC770F51EC7D4
:102B100071F51FC772F589ECB7F06FC52EF670C559
:102B20002FF671C530F672C531F60601EC51D8B4F6
:102B30009CEF95F09EEF95F022EF96F0050E9DEC40
:102B40009FF006012851346F3405D8A4AAEF95F000
:102B5000ACEF95F0DAEF95F0E851D8A4B2EF95F02C
:102B6000B4EF95F0C3EF95F00DECC4F06BC520F712
:102B70006CC521F76DC522F76EC523F7010E06015E
:102B8000E86F22EF96F02D512C110BE1E90E2A5D32
:102B9000030E2B59D8A0CFEF95F0D1EF95F022EF8F
:102BA00096F0000E0701D56F010ED46F0601E86B99
:102BB00022EF96F0020E3419D8A4E1EF95F0E3EF7E
:102BC00095F010EF96F0E751D8A4E9EF95F0EBEF10
:102BD00095F0FAEF95F00DECC4F06BC520F76CC5DD
:102BE00021F76DC522F76EC523F7010E0601E76FC9
:102BF00022EF96F02D512C112B1109E1C90E2A5DFF
:102C0000D8A005EF96F007EF96F022EF96F0000EB1
:102C10000701D56F020ED46F0601E76B22EF96F025
:102C20000701D451D511D8A418EF96F01AEF96F0F9
:102C300022EF96F0000ED56F000ED46F0601E86B00
:102C40000CEF96F00601EB51D8B429EF96F02BEF7C
:102C500096F0B3EF96F0010E9DEC9FF028C632F689
:102C600029C633F6060132053311D8A43AEF96F09F
:102C70003CEF96F06AEF96F0E651D8A442EF96F05A
:102C800044EF96F053EF96F00DECC4F06BC51CF7D3
:102C90006CC51DF76DC51EF76EC51FF7010E060149
:102CA000E66FB3EF96F0315130110BE1E90E2E5D76
:102CB000030E2F59D8A05FEF96F061EF96F065EF05
:102CC00095F0000E0701D36F010ED26F0601E66B7F
:102CD000B3EF96F0020E32193311D8A472EF96F0CA
:102CE00074EF96F0A1EF96F0E551D8A47AEF96F044
:102CF0007CEF96F08BEF96F00DECC4F06BC51CF7F3
:102D00006CC51DF76DC51EF76EC51FF7010E0601D8
:102D1000E56FB3EF96F0315130112F1109E1C90E73
:102D20002E5DD8A096EF96F098EF96F0B3EF96F060
:102D3000000E0701D36F020ED26F0601E56BB3EFF1
:102D400096F00701D251D311D8A4A9EF96F0ABEFBA
:102D500096F065EF95F0000ED36F000ED26F06016E
:102D6000E66B9DEF96F012000DECC4F06BC524F6F7
:102D70006CC525F66DC526F66EC527F614C66BF52F
:102D800015C66CF516C66DF517C66EF540C76FF51E
:102D900041C770F542C771F543C772F5B1ECB4F0A5
:102DA0000501D8B0D6EF96F0D8EF96F035EF97F052
:102DB00014C640F715C641F716C642F717C643F7C3
:102DC000CEC60CF6CFC60DF6D0C60EF6D1C60FF69F
:102DD00014C610F615C611F616C612F617C613F667
:102DE000C0ECA7F00601D8B0F8EF96F0FAEF96F035
:102DF00014EF97F0CEC648F7CFC649F7D0C64AF7CA
:102E0000D1C64BF724C644F725C645F726C646F774
:102E100027C647F718C6EEF719C6EFF71AC6F0F738
:102E20001BC6F1F735EF97F014C648F715C649F7FA
:102E300016C64AF717C64BF714C6CEF615C6CFF618
:102E400016C6D0F617C6D1F624C644F725C645F7F0
:102E500026C646F727C647F7000E0701EE6F000E9D
:102E6000EF6F000EF06F000EF16F0701EE51EF11E2
:102E7000F011F111D8A43FEF97F041EF97F04BEF2D
:102E800097F0CEC614F6CFC615F6D0C616F6D1C644
:102E900017F6FEEF97F044C76FF545C770F546C7C4
:102EA00071F547C772F589ECB7F06FC528F670C5A4
:102EB00029F671C52AF672C52BF60701EE510601F7
:102EC000285D0701EF51060129590701F05106015C
:102ED0002A590701F15106012B59D8A072EF97F03A
:102EE00074EF97F086EF97F040C7CEF641C7CFF664
:102EF00042C7D0F643C7D1F6CEC614F6CFC615F6F4
:102F0000D0C616F6D1C617F6FEEF97F028C6A0F584
:102F100029C6A1F52AC6A2F52BC6A3F5000E64ECBE
:102F2000A1F0A0C5AEF5A1C5AFF5A2C5B0F5A3C58A
:102F3000B1F5EEC7A0F5EFC7A1F5F0C7A2F5F1C74F
:102F4000A3F5000E64ECA1F0A0C5B2F5A1C5B3F5E0
:102F5000A2C5B4F5A3C5B5F5AAEC90F0AEC51CF6B4
:102F6000AFC51DF6B0C51EF6B1C51FF61CC6CBF524
:102F70001DC6CCF51EC6CDF51FC6CEF548C704F656
:102F800049C705F64AC706F64BC707F640C700F61D
:102F900041C701F642C702F643C703F6B7ECBDF0DE
:102FA00000C6C7F501C6C8F502C6C9F503C6CAF50D
:102FB000A4EC8AF0C7C520F6C8C521F6C9C522F61B
:102FC000CAC523F620C66BF521C66CF522C66DF581
:102FD00023C66EF548C76FF549C770F54AC771F546
:102FE0004BC772F548EC88F06BC5CEF66CC5CFF6D2
:102FF0006DC5D0F66EC5D1F641EF97F012002CC723
:103000006FF52DC770F52EC771F52FC772F589ECD6
:10301000B7F06FC585F570C586F571C587F572C5C2
:1030200088F5020E0601EC6118EF98F01AEF98F09F
:1030300022EF98F0010EEB6520EF98F022EF98F068
:1030400027EF99F00501FF05D8A429EF98F02BEFA1
:1030500098F027EF99F00DECC4F06BC52CF76CC518
:103060002DF76DC52EF76EC52FF7010E5F6E0501AA
:10307000FF6B27EF99F009ECC5F005018851871126
:103080000BE1210E855D030E8659D8A04AEF98F01A
:103090004CEF98F045EF99F0010E0601EC6553EF07
:1030A00098F055EF98F061EF98F0010EEB655BEF4B
:1030B00098F05DEF98F061EF98F0020E5F6E0501F9
:1030C000FD6B010E0601EC6568EF98F06AEF98F071
:1030D00076EF98F0EB51D8A470EF98F072EF98F07B
:1030E00076EF98F0030E5F6E0501FC6B0601EC5164
:1030F000D8A47DEF98F07FEF98F08AEF98F0010E5A
:10310000EB6585EF98F087EF98F08AEF98F0040E62
:103110005F6E5C6A0DECC4F06BC52CF76CC52DF7C7
:103120006DC52EF76EC52FF745EF99F018ECB1F08D
:10313000010E0601EC659FEF98F0A1EF98F0B0EF5B
:1031400098F0EB51D8A4A7EF98F0A9EF98F0B0EF62
:1031500098F0020EAFECBBF0030E5F6E0501FC6B46
:103160000601EC51D8A4B7EF98F0B9EF98F045EF0D
:1031700099F0010EEB65BFEF98F0C1EF98F045EFC5
:1031800099F0010EAFECBBF0040E5F6E5C6A45EF88
:1031900099F03AECB2F0010E0601EC65D2EF98F02E
:1031A000D4EF98F0E0EF98F0010EEB65DAEF98F0CD
:1031B000DCEF98F0E0EF98F0020E5F6E0501FD6B1A
:1031C0000601EC51D8A4E7EF98F0E9EF98F045EF4D
:1031D00099F0010EEB65EFEF98F0F1EF98F045EF05
:1031E00099F0010EAFECBBF0C4EF98F000ECB4F036
:1031F000010E0601EC65FFEF98F001EF99F00DEF7D
:1032000099F0010EEB6507EF99F009EF99F00DEFDA
:1032100099F0020E5F6E0501FD6B010E0601EC6573
:1032200014EF99F016EF99F045EF99F0EB51D8A40F
:103230001CEF99F01EEF99F045EF99F0020EAFECFC
:10324000BBF0030E5F6E0501FC6B45EF99F05F501C
:103250000501836F846B8451000AD8B432EF99F072
:1032600045EF99F08351010AD8B43BEF98F0030A77
:10327000D8B496EF98F0010AD8B4C9EF98F0070ACD
:10328000D8B4F6EF98F045EF99F01200F5C58DF53A
:10329000F6C58EF5F5C56BF5F6C56CF505016D6BDC
:1032A0006E6B0601EC5105016F6F706B716B726B89
:1032B00041ECB9F06BC577F56CC578F56DC579F55E
:1032C0006EC57AF5640E05017B6F000E7C6F000EF3
:1032D0007D6F000E7E6F48ECACF0E80E050177259F
:1032E0008F6FFF0E7821906FFF0E7921916FFF0E87
:1032F0007A21926F92BF81EF99F07FEF99F089EF79
:1033000099F0000E8F6F000E906F000E916F000EFF
:10331000926FF551876FF651886F896B8A6B8F5169
:10332000875D90518859915189598A51800A8B6FD4
:103330009251800A8B59D8B0A0EF99F0A2EF99F082
:10334000A8EF99F0F5C58FF5F6C590F5916B926BE6
:103350008FC541F590C542F543C56BF544C56CF585
:103360006D6B6E6B0601EB5105016F6F706B716BCE
:10337000726B41ECB9F06BC577F56CC578F56DC52E
:1033800079F56EC57AF5640E05017B6F000E7C6FD2
:10339000000E7D6F000E7E6F48ECACF0ED0E050167
:1033A00077258F6FFF0E7821906FFF0E7921916F37
:1033B000FF0E7A21926F92BFE2EF99F0E0EF99F061
:1033C000EAEF99F0000E8F6F000E906F000E916F74
:1033D000000E926F4350876F4450886F896B8A6BE1
:1033E0008F51875D90518859915189598A51800A2E
:1033F0008B6F9251800A8B59D8B001EF9AF003EF8E
:103400009AF009EF9AF043C58FF544C590F5916B9A
:10341000926B8FC5D8F790C5D9F70701D8514124D1
:10342000D66FD9514220D76FD65105018D5D070166
:10343000D75105018E59D8B020EF9AF022EF9AF0BB
:1034400045EF9AF041500701D65D0501876F425064
:103450000701D7590501886F87518D5D896F8851A4
:103460008E598A6F8B6BD8A08B078B518C6FE30EB4
:1034700089258F6FFF0E8A21906FFF0E8B21916F30
:10348000FF0E8C21926F4BEF9AF041C58FF542C52C
:1034900090F5916B926B92BF52EF9AF050EF9AF0C9
:1034A0005AEF9AF0000E8F6F000E906F000E916F22
:1034B000000E926F8D51876F8E51886F896B8A6B6A
:1034C0008F51875D90518859915189598A51800A4D
:1034D0008B6F9251800A8B59D8B071EF9AF073EFCD
:1034E0009AF079EF9AF08DC58FF58EC590F5916BB6
:1034F000926B8FC5DAF790C5DBF7DAC785F5DBC7C6
:1035000086F5120006011C6F040E06011C19D8A4D2
:103510008CEF9AF08EEF9AF007EF9BF0040EB6EC6A
:103520009DF073C514F674C515F6000E0501B26F53
:10353000F00EB36F7F0EB46F450EB56F14C6A0F5D5
:1035400015C6A1F5000EA1BFFF0EA26FA36F010E5D
:1035500064ECA1F0A0C5AEF5A1C5AFF5A2C5B0F56C
:10356000A3C5B1F5AAEC90F0AEC5C7F5AFC5C8F5D7
:10357000B0C5C9F5B1C5CAF56F0E0501CB6F120E06
:10358000CC6F830ECD6F400ECE6FA4EC8AF0C7C512
:1035900004F6C8C505F6C9C506F6CAC507F6660E1F
:1035A0000601086FFB0E096F080E0A6F3D0E0B6FC8
:1035B00008C6CBF509C6CCF50AC6CDF50BC6CEF5C7
:1035C00004C6C7F505C6C8F506C6C9F507C6CAF5D7
:1035D000A4EC8AF0C7C5AEF5C8C5AFF5C9C5B0F54E
:1035E000CAC5B1F5960E0501B26F430EB36F0B0E4F
:1035F000B46F3D0EB56FAAEC90F0AEC518F6AFC52E
:1036000019F6B0C51AF6B1C51BF686EF9BF01C5132
:10361000D8A40DEF9BF00FEF9BF086EF9BF0000E10
:10362000B6EC9DF073C516F674C517F6000E0501CD
:10363000B26FF00EB36F7F0EB46F450EB56F16C646
:10364000A0F517C6A1F5000EA1BFFF0EA26FA36FD4
:10365000010E64ECA1F0A0C5AEF5A1C5AFF5A2C501
:10366000B0F5A3C5B1F5AAEC90F0AEC5C7F5AFC5EE
:10367000C8F5B0C5C9F5B1C5CAF56F0E0501CB6F68
:10368000120ECC6F830ECD6F400ECE6FA4EC8AF07D
:10369000C7C50CF6C8C50DF6C9C50EF6CAC50FF6E6
:1036A000F70E0601106F110E116FA50E126F3D0E71
:1036B000136F10C6CBF511C6CCF512C6CDF513C6E7
:1036C000CEF50CC6C7F50DC6C8F50EC6C9F50FC6B2
:1036D000CAF5A4EC8AF0C7C5AEF5C8C5AFF5C9C533
:1036E000B0F5CAC5B1F5000E0501B26F000EB36F9B
:1036F000800EB46F3E0EB56FAAEC90F0AEC518F612
:10370000AFC519F6B0C51AF6B1C51BF618C6C7F590
:1037100019C6C8F51AC6C9F51BC6CAF5000E0501BB
:10372000CB6F000ECC6F7A0ECD6F440ECE6FA4EC33
:103730008AF0C7C500F6C8C501F6C9C502F6CAC5F4
:1037400003F6120000C7D7F501C7D8F502C7D9F5AF
:1037500003C7DAF5C7C5D7F5C8C5D8F5C9C5D9F5C2
:10376000CAC5DAF5810E0501CB6FFF0ECC6FD7C548
:10377000CDF5D8C5CEF5D9C5CFF5DAC5D0F5180E3B
:10378000C7EF9BF0D890D033CF33CE33CD33E82E74
:10379000C2EF9BF0CD51CB25D56F000ECC21D66F5B
:1037A000D6BFDCEF9BF0D65109E1170ED55DD8A04E
:1037B000DCEF9BF0DEEF9BF0E8EF9BF0C7C5C7F5B1
:1037C000C8C5C8F5C9C5C9F5CAC5CAF5ACEF9CF0EE
:1037D000D6BFEDEF9BF0EFEF9BF060EF9CF0D5C50F
:1037E000CBF5FF0ECC6FFF0ECD6F7F0ECE6F000EB0
:1037F000CF6FCB67FEEF9BF006EF9CF0CF35CF335A
:10380000CE33CD33CC33CB2FF9EF9BF0CCC5D1F5F4
:10381000CDC5D2F5CEC5D3F5CFC5D4F50501D1516F
:10382000D715CB6FD251D815CC6FD351D915CD6FD9
:10383000D451DA15CE6FCB51CC11CD11CE11D8A405
:1038400024EF9CF026EF9CF028EF9CF0DEEF9BF03D
:10385000D7C5CBF5D8C5CCF5D9C5CDF5DAC5CEF5EC
:10386000200E38EF9CF0D890CE33CD33CC33CB3311
:10387000E82E33EF9CF0CB51CC11CD11CE11D8B442
:1038800044EF9CF046EF9CF04EEF9CF0D151D727CF
:10389000D251D823D351D923D451DA23D11DCB6FA0
:1038A000D21DCC6FD31DCD6FD41DCE6FCB51D7178A
:1038B000CC51D817CD51D917CE51DA17A4EF9CF0BF
:1038C000D7C5CBF5D8C5CCF5D9C5CDF5DAC5CEF57C
:1038D000200E70EF9CF0D890CE33CD33CC33CB3369
:1038E000E82E6BEF9CF0CB51CC11CD11CE11D8A4AA
:1038F0007CEF9CF07EEF9CF088EF9CF0000ED76F81
:10390000000ED86F000ED96F000EDA6FA4EF9CF096
:10391000D890D735CB6FD835CC6FD935CD6FDA3558
:10392000CE6FCB51CC11CD11CE11D8B49AEF9CF003
:103930009CEF9CF0A4EF9CF0000ED76F000ED86FA8
:10394000800ED96FBF0EDA6FD7C5C7F5D8C5C8F5D9
:10395000D9C5C9F5DAC5CAF51200000E0501716FA7
:10396000000E726F000E736FDBECBDF00501786F17
:1039700078510601C66FC76B010E0501716F000E0D
:10398000726F000E736FDBECBDF00501786F78513C
:103990000601C86FC96B020E0501716F000E726FD0
:1039A000000E736FDBECBDF00501786F78510601F6
:1039B000CA6FCB6B640EC803F3C478F5F4C479F511
:1039C000C903F35005017927100E7A6F270E7B6F1C
:1039D0007A510601C603F3C47CF5F4C47DF5C70330
:1039E000F35005017D277B510601C6030501F35005
:1039F0007D2778517C257E6F79517D217F6F06016F
:103A0000CA5105017E250601BF6FCB5105017F21FB
:103A10000601C06FC65105ECBCF0050173510801E9
:103A2000F66F0601C85105ECBCF0050173510801A1
:103A3000F76F0601CA5105ECBCF00501735108018E
:103A4000F86F040E0501716F000E726F000E736F38
:103A5000DBECBDF00501786F78510601B76FB86BEC
:103A6000050E0501716F000E726F000E736FDBECB7
:103A7000BDF00501786F78510601B96FBA6B060E7B
:103A80000501716F000E726F000E736FDBECBDF0FD
:103A90000501786F78510601BB6FBC6B640EB903EA
:103AA000F3C478F5F4C479F5BA03F3500501792726
:103AB000100E7A6F270E7B6F7A510601B703F3C49D
:103AC0007CF5F4C47DF5B803F35005017D277B51E7
:103AD0000601B7030501F3507D2778517C257E6FE1
:103AE00079517D217F6F0601BB5105017E250601BD
:103AF000B06FBC5105017F210601B16FB75105ECD4
:103B0000BCF0050173510801FA6F0601B95105ECCB
:103B1000BCF0050173510801FB6F0601BB5105ECB8
:103B2000BCF0050173510801FC6FD00E0501786FE0
:103B3000C90EE82EFED7782FFCD700D0000E050165
:103B40006D6F530E6C6FF30E6E6F080E6F6F000E7D
:103B5000716F0A0E706F2CECBBF00009D8B4B3EF94
:103B60009DF0B5EF9DF09EEF9DF012000501936F63
:103B7000000E05019B6F000E9A6F9351E4ECBFF0AD
:103B8000D89005019A35D96E9B35DA6E7B0ED92611
:103B9000050EDA226BC5DEF46CC5DDF49A4B9B2B67
:103BA0009BBFDCEF9DF09B5109E10C0E9A5DD8A004
:103BB000DCEF9DF0DEEF9DF0BDEF9DF0000E996F04
:103BC000000E986F000E9D6F000E9C6F000E9F6F91
:103BD000000E9E6F53EF9EF0D8909E35D96E9F35A4
:103BE000DA6E7B0ED926050EDA229EC577F59FC5C3
:103BF00078F5D89077377837020E7727000E78233C
:103C00007B0E7725E16E050E7821E26EDE50E65CD4
:103C1000DE50E658D8B00FEF9EF011EF9EF051EF56
:103C20009EF0D8909E35D96E9F35DA6E7B0ED926E0
:103C3000050EDA22DEC494F5DDC495F59EC575F552
:103C40009FC576F5D89075377637020E7527000E2A
:103C500076237B0E7525D96E050E7621DA6ED89007
:103C60009E35E16E9F35E26E7B0EE126050EE22267
:103C7000DEC4E6F4DDC4E5F49EC575F59FC576F5B2
:103C8000D89075377637020E7527000E76237B0E97
:103C90007525D96E050E7621DA6E94C5DEF495C5CC
:103CA000DDF49E4B9F2B0B0E756F000E766F9C51B3
:103CB000755F9D51765B75519E5D9F51800A776F50
:103CC0007651800A7759D8A068EF9EF06AEF9EF08F
:103CD000ECEF9DF09C4B9D2B9DBF78EF9EF09D518E
:103CE00009E10B0E9C5DD8A078EF9EF07AEF9EF074
:103CF000E6EF9DF0000E9D6F020E9C6FD8909C35F4
:103D0000D96E9D35DA6E7B0ED926050EDA22DE508D
:103D10009827DD5099239C4B9D2B9DBF99EF9EF0DA
:103D20009D5109E10A0E9C5DD8A099EF9EF09BEF92
:103D30009EF07EEF9EF098C56BF599C56CF5000E70
:103D40006E6F080E6D6FB6ECB0F06BC596F56CC576
:103D500097F596C573F597C574F51200000E050129
:103D6000716F000E726F000E736FDBECBDF005011A
:103D7000786F78510601C66FC76B010E0501716F30
:103D8000000E726F000E736FDBECBDF00501786FF3
:103D900078510601C86FC96B020E0501716F000EE4
:103DA000726F000E736FDBECBDF00501786F785118
:103DB0000601CA6FCB6B040E0501716F000E726FA6
:103DC000000E736FDBECBDF00501786F78510601D2
:103DD000B76FB86B050E0501716F000E726F000EA4
:103DE000736FDBECBDF00501786F78510601B96F98
:103DF000BA6B060E0501716F000E726F000E736FC5
:103E0000DBECBDF00501786F78510601BB6FBC6B30
:103E1000C75109E1650EC65DD8A011EF9FF013EF01
:103E20009FF01EEF9FF0000E0501736F000E746F80
:103E3000000E756F000E766FCFECB8F00601C95119
:103E400009E1650EC85DD8A028EF9FF02AEF9FF02A
:103E500035EF9FF0010E0501736F000E746F000EB9
:103E6000756F000E766FCFECB8F00601CB5109E10B
:103E7000650ECA5DD8A03FEF9FF041EF9FF04CEF79
:103E80009FF0020E0501736F000E746F000E756FC8
:103E9000000E766FCFECB8F0030E0501736F000EC5
:103EA000746F000E756F000E766FCFECB8F00601E0
:103EB000B85109E1650EB75DD8A061EF9FF063EFDF
:103EC0009FF06EEF9FF0040E0501736F000E746F8C
:103ED000000E756F000E766FCFECB8F00601BA5188
:103EE00009E1650EB95DD8A078EF9FF07AEF9FF0F9
:103EF00085EF9FF0050E0501736F000E746F000EC5
:103F0000756F000E766FCFECB8F00601BC5109E179
:103F1000650EBB5DD8A08FEF9FF091EF9FF09CEFF7
:103F20009FF0060E0501736F000E746F000E756F23
:103F3000000E766FCFECB8F012000501F26F050E9F
:103F40000501F219D8A4A7EF9FF0A9EF9FF01FEF8A
:103F5000A0F0AB0ECB6FAA0ECC6F270ECD6F430E29
:103F6000CE6F000EB26F000EB36F7A0EB46F440EB8
:103F7000B56F050EB6EC9DF0050173C5A0F574C5CF
:103F8000A1F5A26BA36B000E64ECA1F0A0C5AEF589
:103F9000A1C5AFF5A2C5B0F5A3C5B1F5AAEC90F0E7
:103FA000AEC5C7F5AFC5C8F5B0C5C9F5B1C5CAF549
:103FB000A4EC8AF0C7C524F6C8C525F6C9C526F6FF
:103FC000CAC527F630ECABF024C6D6F625C6D7F620
:103FD000260E0601D65D020ED759D8B0F2EF9FF03B
:103FE000F4EF9FF0FFEF9FF0D75107E1970ED65DFA
:103FF000D8B0FDEF9FF0FFEF9FF006EFA0F0000EAE
:104000000601296F010E286F81EFA0F0D75107E15B
:104010001F0ED65DD8B00FEFA0F011EFA0F018EF93
:10402000A0F0000E0601296F020E286F81EFA0F0AC
:10403000000E0601296F000E286F81EFA0F0F20537
:10404000D8A425EFA0F027EFA0F018EFA0F0AB0E5A
:10405000CB6FAA0ECC6F270ECD6F430ECE6F000E26
:10406000B26F000EB36F7A0EB46F440EB56F010ECF
:10407000B6EC9DF0050173C5A0F574C5A1F5A26B62
:10408000A36B000E64ECA1F0A0C5AEF5A1C5AFF521
:10409000A2C5B0F5A3C5B1F5AAEC90F0AEC5C7F5C1
:1040A000AFC5C8F5B0C5C9F5B1C5CAF5A4EC8AF06D
:1040B000C7C524F6C8C525F6C9C526F6CAC527F65C
:1040C00030ECABF024C6C0F725C6C1F72C0E0701B3
:1040D000C05D010EC159D8A070EFA0F072EFA0F042
:1040E00074EFA0F0FFEF9FF0C15107E1150EC05D26
:1040F000D8B07DEFA0F07FEFA0F018EFA0F011EFA7
:10410000A0F0120005018BBF88EFA0F08BEFA0F0AC
:10411000010E8CEFA0F0000E926F0601D5BF93EF59
:10412000A0F095EFA0F096EFA0F0E093D5BF9DEF43
:10413000A0F09BEFA0F0A4EFA0F0000E05018F6FA0
:10414000010E8E6FA8EFA0F0D4C68EF5D5C68FF500
:10415000D2C690F5D3C691F505019251D8B4B3EF0C
:10416000A0F0B5EFA0F0CCEFA0F09007D8A0910799
:104170009251D8A4BEEFA0F0C0EFA0F0C6EFA0F01F
:10418000000E8D6F2B0E8C6FCAEFA0F0000E8D6F9E
:104190002D0E8C6F8CC592F5000E946F4F0E936FA1
:1041A0000A01916B06EFA1F005019307D8A09407CF
:1041B000420E9325D96E0A0E9421DA6E8AC56BF5EC
:1041C0008BC56CF5000E6E6F0A0E6D6F59ECB4F076
:1041D0006BC571F56CC572F5CBECC0F00501715182
:1041E000300FDF6E8E07D8A08F079007D8A09107F9
:1041F0008AC56BF58BC56CF5000E6E6F0A0E6D6F80
:10420000B6ECB0F06BC58AF56CC58BF5050194BFB3
:1042100012EFA1F0945108E19305D8A012EFA1F09C
:1042200014EFA1F03FEFA1F08A518B11D8A41BEF3E
:10423000A1F01DEFA1F0D4EFA0F08FBF2AEFA1F005
:104240008F5106E18E05D8B028EFA1F02AEFA1F03A
:10425000D4EFA0F091BF35EFA1F0915108E19005A6
:10426000D8A035EFA1F037EFA1F03FEFA1F00601A4
:10427000E0B33DEFA1F03FEFA1F0D4EFA0F00501D6
:104280009251D8B446EFA1F048EFA1F053EFA1F05E
:104290009307D8A09407420E9325D96E0A0E942155
:1042A000DA6E92C5DFF488C57FF589C580F5420EC8
:1042B0009325816F0A0E9421826F90C583F591C575
:1042C00084F5B2ECB5F012000501A86F0501A85104
:1042D000D8B46DEFA1F06FEFA1F091EFA1F0A3BF03
:1042E00076EFA1F074EFA1F091EFA1F0A0C5A4F5D5
:1042F000A1C5A5F5A2C5A6F5A3C5A7F5A41FA51F31
:10430000A61FA71FA42B000EA523A623A723A4C581
:10431000AAF5A5C5ABF5A6C5ACF5A7C5ADF599EF52
:10432000A1F0A0C5AAF5A1C5ABF5A2C5ACF5A3C582
:10433000ADF5A051A111A211A311D8A4A2EFA1F033
:10434000A4EFA1F0AEEFA1F0000EA06F000EA16FE0
:10435000000EA26F000EA36F3FEFA2F0960EA96FA2
:10436000B8EFA1F0A92BD890AD33AC33AB33AA335F
:10437000000EAA15A46F000EAB15A56F000EAC15AC
:10438000A66FFE0EAD15A76FA451A511A611A7111A
:10439000D8A4CDEFA1F0CFEFA1F0B2EFA1F0DDEF07
:1043A000A1F0A92B010EAA27000EAB23AC23AD234D
:1043B000D890AD33AC33AB33AA33000EAA15A46F3B
:1043C000000EAB15A56F000EAC15A66FFF0EAD1558
:1043D000A76FA451A511A611A711D8A4F2EFA1F0BF
:1043E000F4EFA1F0D1EFA1F0FCEFA1F0A907D89074
:1043F000AA37AB37AC37AD37ACBF01EFA2F003EF54
:10440000A2F00BEFA2F0020EA96109EFA2F00BEFF0
:10441000A2F0F6EFA1F0A9B110EFA2F012EFA2F016
:1044200013EFA2F0AC9FD890A933A9C5A4F5A56B52
:10443000A66BA76BA4C5A7F5A66BA56BA46BA4512F
:10444000AA13A551AB13A651AC13A751AD13A85194
:10445000D8B42DEFA2F02FEFA2F037EFA2F0A3BF58
:1044600036EFA2F034EFA2F037EFA2F0AD8FAAC57D
:10447000A0F5ABC5A1F5ACC5A2F5ADC5A3F512007D
:10448000000E06019A6F000E9B6F000E9C6F000ECF
:104490009D6F21EE89F2100EDE6AE806FDE2890EBC
:1044A00005016B6F060E6C6F85C66DF586C66EF5E1
:1044B000000E706F110E6F6F30ECBCF00601A46B34
:1044C000A451876F886B070E8727000E8823890EFB
:1044D0008725D96E060E8821DA6E9A0EA425E16E24
:1044E000E26A060EE222DFC4E7F4150E0601876FCA
:1044F000C60EE82EFED7872FFCD700000601A42B9E
:10450000030EA46586EFA2F088EFA2F060EFA2F0A0
:104510009A0E0501C76F060EC86F040EC96F540EC0
:104520004EECC1F0D00E0601876FC90EE82EFED703
:10453000872FFCD700D0550E0601896F040E0501A8
:10454000806F540E1EECC0F080C59EF681C59FF6AC
:10455000900E05016B6F060E6C6F9EC66DF59FC6C3
:104560006EF5000E706F040E6F6F30ECBCF0030E32
:104570000501806F5C0E1EECC0F080C5A0F681C501
:10458000A1F6060120EE02F0A051D926A151DA22AF
:10459000DF50946F890E05016B6F060E6C6F0F0E66
:1045A0006D6F58ECB8F06BC5A2F66CC5A3F6A2C649
:1045B00098F60601A351996FA56BF20E736FFF0E6B
:1045C000746F890EA525D96EDA6A060EDA22DF50DD
:1045D000876F8751756F766BD8ECC1F0100E0601AE
:1045E000A561F5EFA2F0F7EFA2F0FDEFA2F0F00E5B
:1045F000736FFF0E746FD8ECC1F00601A52B100E7F
:10460000A56505EFA3F007EFA3F0DDEFA2F0890E9B
:1046100005016B6F060E6C6F000E6D6F000E6E6FF6
:10462000000E706F110E6F6F30ECBCF012000501C0
:10463000F751020D000EF324D96E080EF420DA6E45
:10464000DE6ADD6A0201C5A728EFA3F02AEFA3F016
:104650004DEFA3F00501F751020D000EF324D96EC2
:10466000080EF420DA6E0801DF8207017051711123
:104670007211D8B43EEFA3F040EFA3F04DEFA3F0DA
:1046800002D84DEFA3F00500FA6E7051FD6E715126
:10469000FE6E7251FF6EFA5012000201C5A353EF75
:1046A000A3F055EFA3F078EFA3F00501F751020D49
:1046B000000EF324D96E080EF420DA6E0801DF84B0
:1046C00007016D516E116F11D8B469EFA3F06BEF54
:1046D000A3F078EFA3F002D878EFA3F00500FA6E0C
:1046E0006D51FD6E6E51FE6E6F51FF6EFA501200ED
:1046F0000201C5AD7EEFA3F080EFA3F0A3EFA3F01E
:104700000501F751020D000EF324D96E080EF420B6
:10471000DA6E0801DF8007016A516B116C11D8B4A1
:1047200094EFA3F096EFA3F0A3EFA3F002D8A3EFCA
:10473000A3F00500FA6E6A51FD6E6B51FE6E6C516E
:10474000FF6EFA501200B4C230F50501F7290F0BC5
:10475000316E4A503118D8A4B0EFA3F0B2EFA3F0F5
:10476000B4EFA3F0BFEFA3F0200EF725D96EDA6AFD
:10477000080EDA2230C5DFF431C5F7F5492A070102
:10478000645165116611D8B4C8EFA3F0CAEFA3F065
:10479000D7EFA3F002D8D7EFA3F00500FA6E64516B
:1047A000FD6E6551FE6E6651FF6EFA5012001200EA
:1047B0000601E105D8B4DFEFA3F0E1EFA3F0E3EFEA
:1047C000A3F094EFA4F05F0E05016B6F080E6C6F01
:1047D0007F0E6D6F090E6E6FE2C66FF5706B30EC79
:1047E000BCF00601E251FE0FAC6F5F0E05016B6F6E
:1047F000080E6C6FACC66DF558ECB8F06BC5AEF733
:104800006CC5AFF7600E0601AC25D96EDA6A080EEA
:10481000DA22DF50A66F5F0EAC25D96EDA6A080E79
:10482000DA22DF50A76FA751A96FA86BA651A82560
:104830000701AC6F0601000EA9210701AD6FAC5155
:10484000AE1909E1AD51AF19D8B429EFA4F02BEF9F
:10485000A4F02FEFA4F0FFECBDF094EFA4F065C836
:10486000AAF60601E251F70FAB6FAA51AB19D8B403
:104870003CEFA4F03EEFA4F040EFA4F02BEFA4F047
:10488000100E08016019D8A448EFA4F04AEFA4F074
:1048900057EFA4F00E0E6219D8A451EFA4F053EF15
:1048A000A4F057EFA4F067C8ECF669C8EBF6AA0EBF
:1048B0005F19D8A45EEFA4F060EFA4F02BEFA4F092
:1048C0005A0E6019D8A467EFA4F069EFA4F02BEF9B
:1048D000A4F08DEFA4F06105D8A471EFA4F073EFFC
:1048E000A4F07AEFA4F05F0E0601856F080E866FC4
:1048F0007DECA9F0020E08016119D8A482EFA4F0A2
:1049000084EFA4F02BEFA4F05F0E0601856F080E74
:10491000866F40ECA2F02BEFA4F06251010AD8B4EC
:104920006BEFA4F02BEFA4F012004F50020D000E1D
:10493000F324D96E090EF420DA6EDE6ADD6A020114
:10494000B2A7A5EFA4F0A7EFA4F0C9EFA4F04F50D1
:10495000020D000EF324D96E090EF420DA6E09015F
:10496000DF8207017F5180118111D8B4BAEFA4F022
:10497000BCEFA4F0C9EFA4F002D8C9EFA4F0050081
:10498000FA6E7F51FD6E8051FE6E8151FF6EFA50BE
:1049900012000201B2A3CFEFA4F0D1EFA4F0F3EF25
:1049A000A4F04F50020D000EF324D96E090EF4202E
:1049B000DA6E0901DF8407017C517D117E11D8B4C4
:1049C000E4EFA4F0E6EFA4F0F3EFA4F002D8F3EFE5
:1049D000A4F00500FA6E7C51FD6E7D51FE6E7E5195
:1049E000FF6EFA5012000201B2ADF9EFA4F0FBEF36
:1049F000A4F01DEFA5F04F50020D000EF324D96E68
:104A0000090EF420DA6E0901DF80070179517A116D
:104A10007B11D8B40EEFA5F010EFA5F01DEFA5F0B7
:104A200002D81DEFA5F00500FA6E7951FD6E7A519E
:104A3000FE6E7B51FF6EFA501200A1C21EF54F2888
:104A40001F0B1F6E4E501F18D8A429EFA5F02BEF97
:104A5000A5F02DEFA5F038EFA5F0400E4F24D96E4C
:104A6000DA6A090EDA221EC5DFF41FC54FF54D2A9A
:104A70000701735174117511D8B441EFA5F043EFDC
:104A8000A5F050EFA5F002D850EFA5F00500FA6EA2
:104A90007351FD6E7451FE6E7551FF6EFA50120027
:104AA00012000601D5BF57EFA5F059EFA5F05AEF58
:104AB000A5F0E093D5BF61EFA5F05FEFA5F068EF3B
:104AC000A5F0000E0501906F010E8F6F6CEFA5F041
:104AD000D4C68FF5D5C690F5D2C691F5D3C692F55A
:104AE000000E0501956F4F0E946F0A01916BACEFAC
:104AF000A5F005019407D8A095078A510F0B936F75
:104B00000A0E936186EFA5F088EFA5F08CEFA5F073
:104B1000300E93278EEFA5F0370E9327420E942583
:104B2000D96E0A0E9521DA6E93C5DFF48F07D8A0EF
:104B300090079107D8A092078AC58CF58BC58DF593
:104B4000040E8E6FD8908D338C338E2FA2EFA5F08C
:104B50008CC58AF58DC58BF5050195BFB9EFA5F01C
:104B6000955109E1020E945DD8A0B9EFA5F0BBEF15
:104B7000A5F0E6EFA5F08A518B11D8A4C2EFA5F0FD
:104B8000C4EFA5F079EFA5F090BFD1EFA5F090515B
:104B900006E18F05D8B0CFEFA5F0D1EFA5F079EF02
:104BA000A5F092BFDCEFA5F0925108E19105D8A0E5
:104BB000DCEFA5F0DEEFA5F0E6EFA5F00601E0B32F
:104BC000E4EFA5F0E6EFA5F079EFA5F088C57FF555
:104BD00089C580F5420E05019425816F0A0E952145
:104BE000826F91C583F592C584F5B2ECB5F01200E1
:104BF0000601C551D8B4FFEFA5F001EFA6F053EFC1
:104C0000A6F0C34BC42B0701B24BB32BB90EB25D58
:104C10000B0EB359D8A00FEFA6F011EFA6F019EFC5
:104C2000A6F0000EB16F010EB06F000EB36F000E54
:104C3000B26F600E0601C35DEA0EC459D8A023EF1F
:104C4000A6F025EFA6F053EFA6F0C14BC22B010E44
:104C50000701DD6F0601C25109E13C0EC15DD8A01C
:104C600034EFA6F036EFA6F04FEFA6F0BF4BC02B07
:104C7000000ECD6F010ECC6F500EBF5DC30EC0593C
:104C8000D8A045EFA6F047EFA6F04BEFA6F0C30E75
:104C9000C06F500EBF6F000EC06F000EBF6F000ED2
:104CA000C46F000EC36FB651D8B459EFA6F05BEFD6
:104CB000A6F092EFA6F0B44BB52B600EB45DEA0EF1
:104CC000B559D8A066EFA6F068EFA6F092EFA6F06F
:104CD000B24BB32BB35109E13C0EB25DD8A073EFD8
:104CE000A6F075EFA6F08EEFA6F0B04BB12B000E3C
:104CF000BE6F010EBD6F500EB05DC30EB159D8A08E
:104D000084EFA6F086EFA6F08AEFA6F0C30EB16F8F
:104D1000500EB06F000EB16F000EB06F000EB56F89
:104D2000000EB46F1200000E05016D6F570E6C6F10
:104D3000FD0E6E6F070E6F6F000E716F020E706FBB
:104D40002CECBBF00009D8B4A8EFA6F0AAEFA6F0AF
:104D500093EFA6F0000E05016D6F570E6C6F5D0EA0
:104D60006E6F050E6F6F000E716F010E706F58EC55
:104D7000BBF00009D8B4BFEFA6F0C1EFA6F0AAEFD0
:104D8000A6F0680E0501736FE40EE82EFED7732FB0
:104D9000FCD700005DC553F5680E0501736FE40E86
:104DA000E82EFED7732FFCD70000C00E5318D8A4EE
:104DB000DCEFA6F0DEEFA6F0E0EFA6F020EFA7F024
:104DC000000E05016D6F570E6C6FDF0E6E6F090ED2
:104DD0006F6F000E716F130E706F2CECBBF000093B
:104DE000D8B4F5EFA6F0F7EFA6F0E0EFA6F0680E66
:104DF0000501736FE40EE82EFED7732FFCD7000079
:104E0000000E05016D6F570E6C6FFD0E6E6F070E75
:104E10006F6F000E716F030E706F58ECBBF00009DE
:104E2000D8B415EFA7F017EFA7F000EFA7F02A0E00
:104E30000501736F8D0EE82EFED7732FFCD700D0BF
:104E4000D00E0501736FC90EE82EFED7732FFCD765
:104E500000D01200050120EE03F08051D9268151C7
:104E6000DA22DF506B6F20EE02F08051D92681519B
:104E7000DA22DF5016ECB8F06BC547F56CC548F583
:104E8000570E475C030E4858D8A049EFA7F04BEFE8
:104E9000A7F04FEFA7F0030E486E570E476EF40EC3
:104EA000475C010E4858D8B058EFA7F05AEFA7F06A
