:0400000081EF00F09C
:10000800225C225C225C225C4000225C4000225C74
:10001800F85B225C1C5C225C225C225C225C225C19
:100028001D5C400040004000225C225C225C225C97
:10003800225C225C225C04593B58225C225CF35807
:10004800525B125C225C225C40004000225C225C15
:10005800225C225C225C4000225C225CD158EB537B
:10006800FA5B225C225C225C225C225C225C225CC1
:10007800315B385B3E5560534000225CE2581854AF
:10008800295BC45B225C225C225C225C225C225CD1
:10009800225C225C225C225C4000225C4000400022
:1000A800FC5B225C225C225C225C225C225C225C7F
:1000B800225C225C225C7658225C225C225C225CF8
:1000C800225C225C225C225C225C225C225C225C38
:1000D800225C225C225C225C225C225C225C225C28
:1000E8004000225C225C225C40004000400040004E
:0E00F800225C225C225C225CFF0097EFA0F0ED
:10F73C000000C0C101C30302C2C60607C705C5C489
:10F74C0004CC0C0DCD0FCFCE0E0ACACB0BC90908B9
:10F75C00C8D81819D91BDBDA1A1EDEDF1FDD1D1CF9
:10F76C00DC14D4D515D71716D6D21213D311D1D089
:10F77C0010F03031F133F3F23236F6F737F5353429
:10F78C00F43CFCFD3DFF3F3EFEFA3A3BFB39F9F8F9
:10F79C003828E8E929EB2B2AEAEE2E2FEF2DEDEC99
:10F7AC002CE42425E527E7E62622E2E323E12120C9
:10F7BC00E0A06061A163A3A26266A6A767A56564C9
:10F7CC00A46CACAD6DAF6F6EAEAA6A6BAB69A9A839
:10F7DC006878B8B979BB7B7ABABE7E7FBF7DBDBC79
:10F7EC007CB47475B577B7B67672B2B373B1717009
:10F7FC00B050909151935352929656579755959469
:10F80C00549C5C5D9D5F9F9E5E5A9A9B5B99595878
:10F81C0098884849894B8B8A4A4E8E8F4F8D4D4C18
:10F82C008C44848545874746868242438341818048
:10F83C004000C1814001C0804101C0804100C181B4
:10F84C004001C0804100C1814000C1814001C080A5
:10F85C004101C0804100C1814000C1814001C08094
:10F86C004100C1814001C0804101C0804100C18183
:10F87C004001C0804100C1814000C1814001C08075
:10F88C004100C1814001C0804101C0804100C18163
:10F89C004000C1814001C0804101C0804100C18154
:10F8AC004001C0804100C1814000C1814001C08045
:10F8BC004101C0804100C1814000C1814001C08034
:10F8CC004100C1814001C0804101C0804100C18123
:10F8DC004000C1814001C0804101C0804100C18114
:10F8EC004001C0804100C1814000C1814001C08005
:10F8FC004100C1814001C0804101C0804100C181F3
:10F90C004001C0804100C1814000C1814001C080E4
:10F91C004101C0804100C1814000C1814001C080D3
:10F92C004100C1814001C0804101C0804100C181C2
:10F93C004000C0C101C30302C2C60607C705C5C447
:10F94C0004CC0C0DCD0FCFCE0E0ACACB0BC90908B7
:10F95C00C8D81819D91BDBDA1A1EDEDF1FDD1D1CF7
:10F96C00DC14D4D515D71716D6D21213D311D1D087
:10F97C0010F03031F133F3F23236F6F737F5353427
:10F98C00F43CFCFD3DFF3F3EFEFA3A3BFB39F9F8F7
:10F99C003828E8E929EB2B2AEAEE2E2FEF2DEDEC97
:10F9AC002CE42425E527E7E62622E2E323E12120C7
:10F9BC00E0A06061A163A3A26266A6A767A56564C7
:10F9CC00A46CACAD6DAF6F6EAEAA6A6BAB69A9A837
:10F9DC006878B8B979BB7B7ABABE7E7FBF7DBDBC77
:10F9EC007CB47475B577B7B67672B2B373B1717007
:10F9FC00B050909151935352929656579755959467
:10FA0C00549C5C5D9D5F9F9E5E5A9A9B5B99595876
:10FA1C0098884849894B8B8A4A4E8E8F4F8D4D4C16
:10FA2C008C44848545874746868242438341818046
:10FA3C004000C1814001C0804101C0804100C181B2
:10FA4C004001C0804100C1814000C1814001C080A3
:10FA5C004101C0804100C1814000C1814001C08092
:10FA6C004100C1814001C0804101C0804100C18181
:10FA7C004001C0804100C1814000C1814001C08073
:10FA8C004100C1814001C0804101C0804100C18161
:10FA9C004000C1814001C0804101C0804100C18152
:10FAAC004001C0804100C1814000C1814001C08043
:10FABC004101C0804100C1814000C1814001C08032
:10FACC004100C1814001C0804101C0804100C18121
:10FADC004000C1814001C0804101C0804100C18112
:10FAEC004001C0804100C1814000C1814001C08003
:10FAFC004100C1814001C0804101C0804100C181F1
:10FB0C004001C0804100C1814000C1814001C080E2
:10FB1C004101C0804100C1814000C1814001C080D1
:10FB2C004100C1814001C0804101C0804100C181C0
:10FB3C004000C0C101C30302C2C60607C705C5C445
:10FB4C0004CC0C0DCD0FCFCE0E0ACACB0BC90908B5
:10FB5C00C8D81819D91BDBDA1A1EDEDF1FDD1D1CF5
:10FB6C00DC14D4D515D71716D6D21213D311D1D085
:10FB7C0010F03031F133F3F23236F6F737F5353425
:10FB8C00F43CFCFD3DFF3F3EFEFA3A3BFB39F9F8F5
:10FB9C003828E8E929EB2B2AEAEE2E2FEF2DEDEC95
:10FBAC002CE42425E527E7E62622E2E323E12120C5
:10FBBC00E0A06061A163A3A26266A6A767A56564C5
:10FBCC00A46CACAD6DAF6F6EAEAA6A6BAB69A9A835
:10FBDC006878B8B979BB7B7ABABE7E7FBF7DBDBC75
:10FBEC007CB47475B577B7B67672B2B373B1717005
:10FBFC00B050909151935352929656579755959465
:10FC0C00549C5C5D9D5F9F9E5E5A9A9B5B99595874
:10FC1C0098884849894B8B8A4A4E8E8F4F8D4D4C14
:10FC2C008C44848545874746868242438341818044
:10FC3C004000C1814001C0804101C0804100C181B0
:10FC4C004001C0804100C1814000C1814001C080A1
:10FC5C004101C0804100C1814000C1814001C08090
:10FC6C004100C1814001C0804101C0804100C1817F
:10FC7C004001C0804100C1814000C1814001C08071
:10FC8C004100C1814001C0804101C0804100C1815F
:10FC9C004000C1814001C0804101C0804100C18150
:10FCAC004001C0804100C1814000C1814001C08041
:10FCBC004101C0804100C1814000C1814001C08030
:10FCCC004100C1814001C0804101C0804100C1811F
:10FCDC004000C1814001C0804101C0804100C18110
:10FCEC004001C0804100C1814000C1814001C08001
:10FCFC004100C1814001C0804101C0804100C181EF
:10FD0C004001C0804100C1814000C1814001C080E0
:10FD1C004101C0804100C1814000C1814001C080CF
:10FD2C004100C1814001C0804101C0804100C181BE
:10FD3C004000C0C101C30302C2C60607C705C5C443
:10FD4C0004CC0C0DCD0FCFCE0E0ACACB0BC90908B3
:10FD5C00C8D81819D91BDBDA1A1EDEDF1FDD1D1CF3
:10FD6C00DC14D4D515D71716D6D21213D311D1D083
:10FD7C0010F03031F133F3F23236F6F737F5353423
:10FD8C00F43CFCFD3DFF3F3EFEFA3A3BFB39F9F8F3
:10FD9C003828E8E929EB2B2AEAEE2E2FEF2DEDEC93
:10FDAC002CE42425E527E7E62622E2E323E12120C3
:10FDBC00E0A06061A163A3A26266A6A767A56564C3
:10FDCC00A46CACAD6DAF6F6EAEAA6A6BAB69A9A833
:10FDDC006878B8B979BB7B7ABABE7E7FBF7DBDBC73
:10FDEC007CB47475B577B7B67672B2B373B1717003
:10FDFC00B050909151935352929656579755959463
:10FE0C00549C5C5D9D5F9F9E5E5A9A9B5B99595872
:10FE1C0098884849894B8B8A4A4E8E8F4F8D4D4C12
:10FE2C008C44848545874746868242438341818042
:10FE3C004000C1814001C0804101C0804100C181AE
:10FE4C004001C0804100C1814000C1814001C0809F
:10FE5C004101C0804100C1814000C1814001C0808E
:10FE6C004100C1814001C0804101C0804100C1817D
:10FE7C004001C0804100C1814000C1814001C0806F
:10FE8C004100C1814001C0804101C0804100C1815D
:10FE9C004000C1814001C0804101C0804100C1814E
:10FEAC004001C0804100C1814000C1814001C0803F
:10FEBC004101C0804100C1814000C1814001C0802E
:10FECC004100C1814001C0804101C0804100C1811D
:10FEDC004000C1814001C0804101C0804100C1810E
:10FEEC004001C0804100C1814000C1814001C080FF
:10FEFC004100C1814001C0804101C0804100C181ED
:10FF0C004001C0804100C1814000C1814001C080DE
:10FF1C004101C0804100C1814000C1814001C080CD
:10FF2C004100C1814001C0804101C0804100C181BC
:10FF3C00409255010000000000000000000000008D
:10FF4C0000000000000000000000000000000000A5
:10FF5C000000000000000000000000000000000095
:10FF6C0000000000000000000000000000B06B0169
:10FF7C008C6B01686B010000001C530100000052E7
:10FF8C0065013C6101000000306D010000000000C3
:10FF9C000000000000000000000000000000000055
:10FFAC000000000000000000000000000000004005
:10FFBC006C010000001C6C01F86B01D46B0100009B
:10FFCC00008E5D01000000425E019A5E010000009F
:10FFDC00000000000000366901000000000000561F
:10FFEC00696E3A25647C200A0D20006F200A0D20D2
:04FFFC00006500009C
:020000040001F9
:10000000C2C67BF5C3C67CF5C4C67DF5C5C67EF504
:10001000C6C67FF5C7C680F5C8C681F5C9C682F5D4
:1000200037ECB1F07BC5E6F67CC5E7F67DC5E8F6B2
:100030007EC5E9F6060120EE01F0C051D926C15176
:10004000DA22DEC4B8F6DEC4B9F6DEC4BAF6DEC41F
:10005000BBF6E6C6BCF6E7C6BDF6E8C6BEF6E9C620
:10006000BFF62CEC85F0B8C6CAF6B9C6CBF6BAC650
:10007000CCF6BBC6CDF6E6C66BF5E7C66CF5E8C6B2
:100080006DF5E9C66EF504ECB4F06BC5AEF56CC564
:10009000AFF56DC5B0F56EC5B1F5000E0501B26FD7
:1000A000000EB36F480EB46F420EB56F1AECA1F09C
:1000B0000501D8B05EEF80F060EF80F003EF81F0D3
:1000C000060120EE1DF0C051D926C151DA22DEC44E
:1000D0006BF5DEC46CF5DEC46DF5DEC46EF5E6C608
:1000E0006FF5E7C670F5E8C671F5E9C672F5D0ECB4
:1000F00082F0060120EE1DF0C051D926C151DA224E
:1001000005016BC5DEF46CC5DEF46DC5DEF46EC5AD
:10011000DEF4060120EE0DF0C051D926C151DA22DD
:10012000DEC4AEF5DEC4AFF5DEC4B0F5DEC4B1F5B5
:1001300020EE1DF0C051D926C151DA22DEC4B2F53D
:10014000DEC4B3F5DEC4B4F5DEC4B5F51AECA1F037
:100150000501D8B0AEEF80F0B0EF80F0C5EF80F0D1
:10016000060120EE0DF0C051D926C151DA2210EE61
:100170001DF0C051E126C151E222DEC4E6F4DEC426
:10018000E6F4DEC4E6F4DEC4E6F4060120EE1DF07B
:10019000C051D926C151DA22DEC4AEF5DEC4AFF5B6
:1001A000DEC4B0F5DEC4B1F520EE11F0C051D926A1
:1001B000C151DA22DEC4B2F5DEC4B3F5DEC4B4F553
:1001C000DEC4B5F51AECA1F00501D8B0EAEF80F075
:1001D000ECEF80F012EF81F0060120EE11F0C0513B
:1001E000D926C151DA2210EE1DF0C051E126C151CD
:1001F000E222DEC4E6F4DEC4E6F4DEC4E6F4DEC4E5
:10020000E6F412EF81F0060120EE1DF0C051D92670
:10021000C151DA22000EDE6E000EDE6E000EDE6EC2
:10022000000EDD6E060120EE05F0C051D926C15149
:10023000DA22DEC4B8F6DEC4B9F6DEC4BAF6DEC42D
:10024000BBF620EE1DF0C051D926C151DA22DEC422
:10025000BCF6DEC4BDF6DEC4BEF6DEC4BFF62CECD2
:1002600085F0B8C6CEF6B9C6CFF6BAC6D0F6BBC6CC
:10027000D1F6060120EE21F0C051D926C151DA2273
:10028000DEC47FF5DEC480F5DEC481F5DEC482F510
:10029000E6C67BF5E7C67CF5E8C67DF5E9C67EF5E2
:1002A00037ECB1F07BC5B8F67CC5B9F67DC5BAF6BA
:1002B0007EC5BBF6060120EE09F0C051D926C1511A
:1002C000DA22DEC4BCF6DEC4BDF6DEC4BEF6DEC491
:1002D000BFF62CEC85F0B8C6D2F6B9C6D3F6BAC6CE
:1002E000D4F6BBC6D5F6060120EE21F0C051D926C2
:1002F000C151DA22E6C6DEF4E7C6DEF4E8C6DEF473
:10030000E9C6DEF4CEC66FF5CFC670F5D0C671F57E
:10031000D1C672F5CAC66BF5CBC66CF5CCC66DF509
:10032000CDC66EF5D0EC82F06BC5D6F66CC5D7F6AF
:100330006DC5D8F66EC5D9F6D6C66BF5D7C66CF5C1
:10034000D8C66DF5D9C66EF5D2C66FF5D3C670F5B1
:10035000D4C671F5D5C672F5D0EC82F06BC5E2F665
:100360006CC5E3F66DC5E4F66EC5E5F6C0C6D9F416
:10037000C1C6DAF4DE04D8A4C0EF81F0C2EF81F088
:1003800043EF82F00601E5BFCAEF81F0C8EF81F0CC
:10039000D4EF81F0000EDA6F000EDB6F000EDC6F21
:1003A000BF0EDD6FDCEF81F0000EDA6F000EDB6F49
:1003B000000EDC6F3F0EDD6FE2C66FF5E3C670F531
:1003C000E4C671F5E5C672F5DAC66BF5DBC66CF509
:1003D000DCC66DF5DDC66EF5D0EC82F06BC5B8F607
:1003E0006CC5B9F66DC5BAF66EC5BBF60AECA0F0E1
:1003F0000601B8518527B9518623000E0501BE6F4D
:10040000000EBF6F480EC06F450EC16F85C6A0F5C8
:1004100086C6A1F5000EA1BFFF0EA26FA36F010E4D
:10042000D0EC97F0A0C5BAF5A1C5BBF5A2C5BCF547
:10043000A3C5BDF552EC9EF0BAC5C8F5BBC5C9F55C
:10044000BCC5CAF5BDC5CBF5000E0501C46F000ED5
:10045000C56F000EC66F000EC76FE6EC9EF0C4C5F8
:10046000B8F6C5C5B9F6C6C5BAF6C7C5BBF60AEC37
:10047000A0F0B8C685F6B9C686F685C6C0F686C6AB
:10048000C1F6CFEF82F0C0C6D9F4C1C6DAF4020ECD
:10049000DE18D8A44EEF82F050EF82F0CFEF82F05A
:1004A0000601E5BF58EF82F056EF82F062EF82F06E
:1004B000000EDE6F000EDF6F000EE06FBF0EE16F0B
:1004C0006AEF82F0000EDE6F000EDF6F000EE06F4D
:1004D0003F0EE16FE2C66FF5E3C670F5E4C671F555
:1004E000E5C672F5DEC66BF5DFC66CF5E0C66DF5E8
:1004F000E1C66EF5D0EC82F06BC5B8F66CC5B9F606
:100500006DC5BAF66EC5BBF60AECA0F00601B8518F
:100510008327B9518423000E0501BE6F000EBF6F03
:10052000480EC06F450EC16F83C6A0F584C6A1F505
:10053000000EA1BFFF0EA26FA36F010ED0EC97F0CB
:10054000A0C5BAF5A1C5BBF5A2C5BCF5A3C5BDF54F
:1005500052EC9EF0BAC5C8F5BBC5C9F5BCC5CAF515
:10056000BDC5CBF5000E0501C46F000EC56F000EB2
:10057000C66F000EC76FE6EC9EF0C4C5B8F6C5C5E1
:10058000B9F6C6C5BAF6C7C5BBF60AECA0F0B8C640
:1005900083F6B9C684F683C6C0F684C6C1F61200D7
:1005A00005016E51800B776F6E516E25796F6DAFBF
:1005B000DCEF82F0DEEF82F0DFEF82F079817951BB
:1005C000D8B4E5EF82F0E7EF82F0FBEF82F0792913
:1005D000D8A4EDEF82F0EFEF82F0F7EF82F0000E9B
:1005E0006B6F000E6C6F000E6D6F000E6E6F6D8F77
:1005F0006E6B03EF83F0000E6B6F000E6C6F000EDE
:100600006D6F000E6E6F7251800B786F7751781995
:10061000D8B40DEF83F00FEF83F010EF83F0778DF8
:1006200072517225786F71AF18EF83F01AEF83F073
:100630001BEF83F078817851D8B421EF83F023EF5A
:1006400083F037EF83F07829D8A429EF83F02BEFDC
:1006500083F033EF83F0000E6F6F000E706F000EAB
:10066000716F000E726F718F726B3FEF83F0000E2F
:100670006F6F000E706F000E716F000E726F795108
:10068000785DD8B046EF83F048EF83F06FEF83F0EA
:1006900077AD4DEF83F04FEF83F051EF83F0800E95
:1006A000771B79C57AF578C579F57AC578F56BC584
:1006B0007AF56FC56BF57AC56FF56CC57AF570C5BF
:1006C0006CF57AC570F56DC57AF571C56DF57AC5AD
:1006D00071F56EC57AF572C56EF57AC572F57A6BED
:1006E000795178C573F5746B735F000E745B74BFDA
:1006F00083EF83F0745109E11A0E735DD8A083EF84
:1007000083F085EF83F0BCEF83F06B516C116D11BA
:100710006E11D8A48EEF83F091EF83F0010E92EF6B
:1007200083F0000E7A6F000E6B6F000E6C6F000E80
:100730006D6F000E6E6F78C579F5C5EF83F07AA105
:10074000A4EF83F0A6EF83F0ACEF83F0D8907A317A
:1007500001097A6FAEEF83F0D8907A336BA1B3EFD3
:1007600083F0B5EF83F0B6EF83F07A8F6E356E339A
:100770006D336C336B33792B7851795DD8A0C3EF2F
:1007800083F0C5EF83F09FEF83F077BDCAEF83F06E
:10079000CCEF83F00CEF84F07951D8A4D2EF83F042
:1007A000D4EF83F0DEEF83F0000E6B6F000E6C6F02
:1007B000000E6D6F000E6E6F2BEF85F06F516B2783
:1007C00070516C2371516D2372516E236EA1EBEF4A
:1007D00083F0EDEF83F099EF84F07AA1F2EF83F0EC
:1007E000F4EF83F0FAEF83F0D8907A3101097A6F51
:1007F000FCEF83F0D8907A336BA101EF84F003EF24
:1008000084F004EF84F07A8F6E356E336D336C3381
:100810006B33792B99EF84F06F516B5D70516C598C
:1008200071516D596E51800A736F7251800A7359FC
:10083000D8B01DEF84F01FEF84F04AEF84F06B51C5
:100840006F5D736F6C517059746F6D517159756F25
:100850006E517259766FFF0E73256B6FFF0E742108
:100860006C6FFF0E75216D6FFF0E76216E6F800E1F
:10087000771B7A6D7A51D8A440EF84F042EF84F070
:1008800052EF84F0010E6B27000E6C236D236E2354
:1008900052EF84F06F516B5F70516C5B71516D5B07
:1008A00072516E5B6B516C116D116E11D8A45BEFC0
:1008B00084F05DEF84F092EF84F07A51D8A463EF76
:1008C00084F065EF84F092EF84F0000E6B6F000E01
:1008D0006C6F000E6D6F000E6E6F2BEF85F0D89071
:1008E0006B376C376D376E377AAF79EF84F07BEF0B
:1008F00084F07CEF84F06B817AA181EF84F083EF48
:1009000084F087EF84F0D8807A3789EF84F0D8902C
:100910007A377951D8B48FEF84F091EF84F092EF69
:1009200084F079076DAF97EF84F099EF84F06FEF63
:1009300084F0786B7AAF9FEF84F0A1EF84F0B9EF89
:1009400084F07AC573F57F0E7317D8B4AAEF84F0DC
:10095000ACEF84F0B0EF84F0010E786FB9EF84F063
:100960006BA1B5EF84F0B7EF84F0B9EF84F0ACEF92
:1009700084F07851D8B4BFEF84F0C1EF84F0ECEF8D
:1009800084F0010E6B27000E6C236D236E236EA185
:10099000CCEF84F0CEEF84F0ECEF84F06BC573F510
:1009A0006CC574F56DC575F56EC576F5763576331F
:1009B00075337433733373C56BF574C56CF575C5D6
:1009C0006DF576C56EF57929D8B4E9EF84F0EBEFD3
:1009D00084F0ECEF84F0792B7929D8B4F2EF84F02D
:1009E000F4EF84F0FCEF84F07951D8A4FAEF84F0AE
:1009F000FCEF84F00DEF85F0000E6B6F000E6C6F56
:100A0000000E6D6F000E6E6F7951D8A40AEF85F05D
:100A10000CEF85F00DEF85F0776B79A112EF85F083
:100A200014EF85F017EF85F06D8F18EF85F06D9F4F
:100A3000D89079316E6F77AF20EF85F022EF85F097
:100A400023EF85F06E8F6BC56BF56CC56CF56DC5CE
:100A50006DF56EC56EF512000601BB51800B0501E8
:100A6000CB6F0601BB51BB250501D16F0601BAAFA3
:100A70003CEF85F03EEF85F040EF85F00501D18138
:100A80000501D151D8B447EF85F049EF85F05EEF0D
:100A900085F0D129D8A44FEF85F051EF85F05AEFBA
:100AA00085F0000E0601B86F000EB96F000EBA6F28
:100AB000000EBB6F0601BA8F67EF85F0000E0601CE
:100AC000B86F000EB96F000EBA6F000EBB6FBF514A
:100AD000800B0501CB1B0601BF51BF250501CC6F63
:100AE0000601BEAF76EF85F078EF85F07AEF85F0FE
:100AF0000501CC810501CC51D8B481EF85F083EF9D
:100B000085F098EF85F0CC29D8A489EF85F08BEF9C
:100B100085F094EF85F0000E0601BC6F000EBD6FEE
:100B2000000EBE6F000EBF6F0601BE8FA1EF85F0F5
:100B3000000E0601BC6F000EBD6F000EBE6F000EF2
:100B4000BF6F0501CC51D8B4A8EF85F0AAEF85F0AE
:100B5000B2EF85F0D151D8A4B0EF85F0B2EF85F0B7
:100B6000BDEF85F0000E0601B86F000EB96F000EE4
:100B7000BA6F000EBB6F65EF87F00601BE51B80378
:100B8000F3C4D6F5F4C4D7F50501D651CD6FCE6BBD
:100B9000CF6BD06BD751D26FD36BD46BD56B0601B3
:100BA000BD51B903F3C4D6F5F4C4D7F50501D65148
:100BB000CD27000ECE23CF23D023D751D227000E2E
:100BC000D323D423D5230601BC51BA03F3C4D6F5ED
:100BD000F4C4D7F50501D651CD27000ECE23CF237F
:100BE000D023D751D227000ED323D423D523CFC56A
:100BF000D0F5CEC5CFF5CDC5CEF5CD6B0601BC5138
:100C0000B903F3C4D6F5F4C4D7F50501D651CD2701
:100C1000D751CE23000ECF23000ED0230601BD51A5
:100C2000B803F3C4D6F5F4C4D7F50501D651CD27E2
:100C3000D751CE23000ECF23000ED023CFC5D0F541
:100C4000CEC5CFF5CDC5CEF5CD6B0601BC51B803F1
:100C5000F3C4D6F5F4C4D7F50501D651CD27D75145
:100C6000CE23000ECF23000ED0230601BE51B903C0
:100C7000F3C4D6F5F4C4D7F50501D651D227D75120
:100C8000D323000ED423000ED5230601BD51BA0391
:100C9000F3C4D6F5F4C4D7F50501D651D227D75100
:100CA000D323000ED423000ED5230601BE51BA0370
:100CB000F3C4D6F5F4C4D7F50501D651C76FD751A3
:100CC000C86FC96BCA6BC9C5CAF5C8C5C9F5C7C560
:100CD000C8F5C76BC751D227C851D323C951D423F4
:100CE000CA51D523CDC5C7F5CEC5C8F5CFC5C9F501
:100CF000D0C5CAF5190E82EF86F0D890CA33C93331
:100D0000C833C733E82E7DEF86F0C751D227C851CC
:100D1000D323C951D423CA51D523CFC5D0F5CEC5CD
:100D2000CFF5CDC5CEF5CD6BCC51D1C5C7F5C86BD0
:100D3000C727000EC823820EC725D66FFF0EC82115
:100D4000D76FB8EF86F0D890D237D337D437D537AE
:100D5000D0AFADEF86F0AFEF86F0B0EF86F0D28186
:100D6000D890CD37CE37CF37D037D607D8A0D707D2
:100D7000D4AFBDEF86F0BFEF86F0A3EF86F0CC6B6B
:100D8000D0AFC5EF86F0C7EF86F0EBEF86F0FF0E31
:100D9000CD15C76FFF0ECE15C86FFF0ECF15C96FEB
:100DA0007F0ED015CA6FC751C811C911CA11D8B466
:100DB000DCEF86F0DEEF86F0E2EF86F0010ECC6F1E
:100DC000EBEF86F0D2A1E7EF86F0E9EF86F0EBEFEC
:100DD00086F0DEEF86F0CC51D8B4F1EF86F0F3EF79
:100DE00086F017EF87F0010ED227000ED323D4230D
:100DF000D523D5A1FEEF86F000EF87F017EF87F03F
:100E0000D2C5C7F5D3C5C8F5D4C5C9F5D5C5CAF58A
:100E1000CA35CA33C933C833C733C7C5D2F5C8C505
:100E2000D3F5C9C5D4F5CAC5D5F5D64BD72BD7BF91
:100E300022EF87F0D75108E1D629D8A022EF87F01A
:100E400024EF87F02EEF87F0000ED26F000ED36FE5
:100E5000800ED46F7F0ED56F5BEF87F0D7BF3BEF6F
:100E600087F0D75106E1D605D8B039EF87F03BEFD0
:100E700087F046EF87F0000ED26F000ED36F000EA2
:100E8000D46F000ED56FCB6B5BEF87F0D6C5D1F575
:100E9000FF0ED217FF0ED3177F0ED417000ED517F3
:100EA000D1A155EF87F057EF87F058EF87F0D48F37
:100EB000D890D131D56FCB51D513D2C5B8F6D3C5A3
:100EC000B9F6D4C5BAF6D5C5BBF612000501FE5178
:100ED000D8B46DEF87F06FEF87F074EF87F0010EF5
:100EE0000601066F76EF87F00601066B1C511D1197
:100EF000D8B47DEF87F07FEF87F054EF89F00FC60D
:100F00006BF510C66CF5270E05016E6F100E6D6F38
:100F10005AECACF06BC516F66CC517F6030E05015E
:100F20006E6FE80E6D6F0FC66BF510C66CF55AEC60
:100F3000ACF06BC572F56CC573F5000E0501756FED
:100F40000A0E746FA5ECADF00A0E05017203F3C42E
:100F500078F5F4C479F57303F3507927000E6E6FBA
:100F6000640E6D6F0FC66BF510C66CF55AECACF0E5
:100F70006BC572F56CC573F5000E0501756F0A0E31
:100F8000746FA5ECADF00501725178250601186F5C
:100F90000501735179210601196F000E05016E6F6D
:100FA0000A0E6D6F0FC66BF510C66CF55AECACF0FF
:100FB0006BC572F56CC573F5000E0501756F0A0EF1
:100FC000746FA5ECADF00A0E05017203F3C478F559
:100FD000F4C479F57303F35079270FC672F510C680
:100FE00073F5000E756F0A0E746FA5ECADF0050178
:100FF0007251782506011A6F050173517921060196
:101000001B6F1651CFECAFF0050173510701D66F7E
:1010100006011851CFECAFF0050173510701D76FEE
:1010200006011A51CFECAFF0050173510701D86FDB
:1010300000C66BF501C66CF5270E05016E6F100E2C
:101040006D6F5AECACF06BC507F66CC508F6030E75
:1010500005016E6FE80E6D6F00C66BF501C66CF58D
:101060005AECACF06BC572F56CC573F5000E05015A
:10107000756F0A0E746FA5ECADF00A0E05017203D0
:10108000F3C478F5F4C479F57303F3507927000EAF
:101090006E6F640E6D6F00C66BF501C66CF55AEC91
:1010A000ACF06BC572F56CC573F5000E0501756F7C
:1010B0000A0E746FA5ECADF005017251782506019A
:1010C000096F05017351792106010A6F000E0501B0
:1010D0006E6F0A0E6D6F00C66BF501C66CF55AECAB
:1010E000ACF06BC572F56CC573F5000E0501756F3C
:1010F0000A0E746FA5ECADF00A0E05017203F3C47D
:1011000078F5F4C479F57303F350792700C672F5C6
:1011100001C673F5000E756F0A0E746FA5ECADF085
:1011200005017251782506010B6F05017351792174
:1011300006010C6F0751CFECAFF0050173510701A9
:10114000DA6F06010951CFECAFF0050173510701C9
:10115000DB6F06010B51CFECAFF0050173510701B6
:10116000DC6F000E0501736F000E746F000E756F5B
:1011700016C676F595ECACF000000000000000000B
:10118000000000000000000000000000010E05014A
:10119000736F000E746F000E756F18C676F595ECC0
:1011A000ACF00000000000000000000000000000A3
:1011B000000000000000020E0501736F000E746F46
:1011C000000E756F1AC676F595ECACF000000000C5
:1011D000000000000000000000000000000000000F
:1011E000040E0501736F000E746F000E756F07C655
:1011F00076F595ECACF00000000000000000000067
:1012000000000000000000000000050E0501736FE3
:10121000000E746F000E756F09C676F595ECACF094
:1012200000000000000000000000000000000000BE
:1012300000000000060E0501736F000E746F000EB3
:10124000756F0BC676F595ECACF000000000000061
:101250000000000000000000000000000000D00EB0
:101260000501786FC90EE82EFED7782FFCD700D085
:10127000000E05016D6F530E6C6FD30E6E6F070E6F
:101280006F6F000E716F0A0E706F21ECAFF00009E6
:10129000D8B44DEF89F04FEF89F038EF89F0000EA8
:1012A00006011D6F000E1C6F12000501B151800B6D
:1012B000BE6FB151B125C56FB0AF61EF89F063EF7B
:1012C00089F064EF89F0C581C551D8B46AEF89F01F
:1012D0006CEF89F080EF89F0C529D8A472EF89F00E
:1012E00074EF89F07CEF89F0000EAE6F000EAF6FE7
:1012F000000EB06F000EB16FB08FB16B88EF89F048
:10130000000EAE6F000EAF6F000EB06F000EB16F2B
:10131000B551800BBE1BB551B525C66FB4AF93EF69
:1013200089F095EF89F096EF89F0C681C651D8B45F
:101330009CEF89F09EEF89F0B2EF89F0C629D8A41E
:10134000A4EF89F0A6EF89F0AEEF89F0000EB26F3E
:10135000000EB36F000EB46F000EB56FB48FB56B97
:10136000BAEF89F0000EB26F000EB36F000EB46FCB
:10137000000EB56FB251B311B411B511D8A4C3EFBB
:1013800089F0C5EF89F0DDEF89F0000EAE6F000E39
:10139000AF6F000EB06F000EB16F800EB0137F0EF6
:1013A000B113BE51B113AEC5AEF5AFC5AFF5B0C503
:1013B000B0F5B1C5B1F51DEF8BF0C551D8A4E3EF81
:1013C00089F0E5EF89F0EFEF89F0000EAE6F000EC7
:1013D000AF6F000EB06F000EB16F1DEF8BF0C651F6
:1013E000C5C5B6F5B76BB65F000EB75B7F0EB62509
:1013F000BF6F000EB721C06FAEC5BAF5AFC5BBF564
:10140000B0C5BCF5B1C5BDF5000EAE6F000EAF6F37
:10141000000EB06F000EB16F000EC16F000EC26FF4
:10142000000EC36F000EC46FC66B4FEF8AF0C6513B
:10143000D8B41DEF8AF01FEF8AF036EF8AF0D8900B
:10144000BA37BB37BC37BD37D890AE37AF37B037B8
:10145000B137C4AF2EEF8AF030EF8AF031EF8AF067
:10146000AE81D890C137C237C337C437B251BA5DE5
:10147000B351BB59B451BC59B551BD59D8A043EF74
:101480008AF045EF8AF04EEF8AF0C48DB251BA5F10
:10149000B351BB5BB451BC5BB551BD5BC62B190EE0
:1014A000C66555EF8AF057EF8AF017EF8AF0BA5108
:1014B000BB11BC11BD11D8B460EF8AF062EF8AF0A5
:1014C0007AEF8AF0C1817AEF8AF0D890AE37AF37E1
:1014D000B037B137C4AF6FEF8AF071EF8AF072EFB7
:1014E0008AF0AE81D890C137C237C337C437BF073F
:1014F000D8A0C007B0AF7FEF8AF081EF8AF065EF28
:101500008AF0C66BC4AF87EF8AF089EF8AF0ADEF3F
:101510008AF0FF0EC115B66FFF0EC215B76FFF0E32
:10152000C315B86F7F0EC415B96FB651B711B81196
:10153000B911D8B49EEF8AF0A0EF8AF0A4EF8AF038
:10154000010EC66FADEF8AF0AEA1A9EF8AF0ABEF46
:101550008AF0ADEF8AF0A0EF8AF0C651D8B4B3EFAD
:101560008AF0B5EF8AF0D9EF8AF0010EAE27000EAF
:10157000AF23B023B123B1A1C0EF8AF0C2EF8AF04C
:10158000D9EF8AF0AEC5B6F5AFC5B7F5B0C5B8F5B9
:10159000B1C5B9F5B935B933B833B733B633B6C514
:1015A000AEF5B7C5AFF5B8C5B0F5B9C5B1F5BF4B28
:1015B000C02BC0BFE4EF8AF0C05108E1BF29D8A01A
:1015C000E4EF8AF0E6EF8AF0F1EF8AF0000EC06FE8
:1015D000BF69000EAE6F000EAF6F000EB06F000E51
:1015E000B16FC0BFFEEF8AF0C05106E1BF05D8B0B1
:1015F000FCEF8AF0FEEF8AF00BEF8BF0000EC06F6D
:10160000000EBF6F000EAE6F000EAF6F000EB06F1A
:10161000000EB16FBE6BBFC5C5F5C5A112EF8BF053
:1016200014EF8BF017EF8BF0B08F18EF8BF0B09FAB
:10163000D890C531B16FD1EF89F012003AC76FF57C
:101640003BC770F53CC771F53DC772F515ECABF0C3
:101650006FC5A2F570C5A3F571C5A4F572C5A5F552
:1016600036C76FF537C770F538C771F539C772F5EA
:1016700015ECABF06FC5A6F570C5A7F571C5A8F55B
:1016800072C5A9F50D0EE9EC95F073C5AAF574C500
:10169000ABF55C50D8B44FEF8BF051EF8BF068EFA7
:1016A0008BF030ECB7F06BC536F76CC537F76DC50E
:1016B00038F76EC539F730ECB7F06BC53AF76CC543
:1016C0003BF76DC53CF76EC53DF7010E516E5C6A88
:1016D0000501F951D8A46FEF8BF071EF8BF08BEF10
:1016E0008CF0A951A8110BE1880EA65D130EA75925
:1016F000D8A07DEF8BF07FEF8BF08BEF8CF0010E9D
:10170000F96F8BEF8CF05150D8A489EF8BF08BEFF1
:101710008BF09EEF8BF0A551A4110BE1B80EA25DEA
:101720000B0EA359D8A097EF8BF099EF8BF0A4EF95
:101730008CF0FE6B010E516EA4EF8CF0F951D8A421
:10174000A4EF8BF0A6EF8BF0BEEF8BF0730EAA5DCB
:10175000060EAB59D8A0AFEF8BF0B1EF8BF0BEEF18
:101760008BF0010E526E30ECB7F06BC53AF76CC5DA
:101770003BF76DC53CF76EC53DF7516A0501F905AC
:10178000D8A4C5EF8BF0C7EF8BF0A4EF8CF0350E2B
:10179000AA5D080EAB59D8A0D0EF8BF0D2EF8BF03A
:1017A000A4EF8CF0010E526E30ECB7F06BC53AF737
:1017B0006CC53BF76DC53CF76EC53DF7516AA4EFAC
:1017C0008CF0FA05D8A4E7EF8BF0E9EF8BF0EEEFA1
:1017D0008BF0FD51020DF3C4FDF5FA6B010EFE6FA7
:1017E000F905D8A4F6EF8BF0F8EF8BF02AEF8CF028
:1017F000A40EAA5D060EAB59D8B001EF8CF003EF32
:101800008CF006EF8CF0526AD4EF8BF0D70EAA5D05
:10181000060EAB59D8A00FEF8CF011EF8CF0A4EFAF
:101820008CF03A0EAA5D070EAB59D8B01AEF8CF0C7
:101830001CEF8CF0A4EF8CF0020E526E30ECB7F07F
:101840006BC53AF76CC53BF76DC53CF76EC53DF708
:10185000A4EF8CF0F951D8A430EF8CF032EF8CF07B
:10186000A4EF8CF0A40EAA5D060EAB59D8B03BEFE6
:101870008CF03DEF8CF041EF8CF0010EF96F03EF2F
:101880008CF0D70EAA5D060EAB59D8A04AEF8CF0AB
:101890004CEF8CF0A4EF8CF03A0EAA5D070EAB591A
:1018A000D8B055EF8CF057EF8CF0A4EF8CF01CEF14
:1018B0008CF0FA51D8A45FEF8CF061EF8CF06FEFF1
:1018C0008CF0010EFA6FFDC56BF56C6B000E6E6F40
:1018D000020E6D6FFEECA5F005016B51FD6F350E2C
:1018E000AA5D080EAB59D8A078EF8CF07AEF8CF097
:1018F0007EEF8CF0010E526E1EEF8CF0A40EAA5DEE
:10190000060EAB59D8B087EF8CF089EF8CF0A4EFBE
:101910008CF003EF8CF05250A06FA16BA151000A24
:10192000D8B495EF8CF0A4EF8CF0A051000AD8B495
:1019300083EF8BF0010AD8B4E1EF8BF0030AD8B43F
:1019400059EF8CF0A4EF8CF012000501FB05D8B420
:10195000ACEF8CF0AEEF8CF0B7EF8CF0030EFB1910
:10196000D8A4B5EF8CF0B7EF8CF064EF8DF0000EDB
:10197000B26F000EB36F7A0EB46F440EB56F050EE2
:10198000E9EC95F0050173C5A0F574C5A1F5A26B4E
:10199000A36B000ED0EC97F0A0C5AEF5A1C5AFF5D6
:1019A000A2C5B0F5A3C5B1F555EC89F0AEC5B8F642
:1019B000AFC5B9F6B0C5BAF6B1C5BBF6AB0E0601F8
:1019C000BC6FAA0EBD6F270EBE6F430EBF6F2CEC0F
:1019D00085F0B8C626F7B9C627F7BAC628F7BBC63A
:1019E00029F7040E94EC90F0C0C6EEF6C1C6EFF6EF
:1019F000C2C6F0F6C3C6F1F626C7BCF627C7BDF6C9
:101A000028C7BEF629C7BFF6EEC6B8F6EFC6B9F6C8
:101A1000F0C6BAF6F1C6BBF62CEC85F0B8C6AEF54A
:101A2000B9C6AFF5BAC6B0F5BBC6B1F5000E050133
:101A3000B26F000EB36F7A0EB46F440EB56F55ECF3
:101A400089F0AEC51EF7AFC51FF7B0C520F7B1C509
:101A500021F74EC7C0F64FC7C1F650C7C2F651C7EF
:101A6000C3F6F2C6C4F6F3C6C5F60601C66BC76B6D
:101A7000EBEC94F0C0C62EF7C1C62FF7C2C630F704
:101A8000C3C631F79C0E0601C06F070EC16F2EC78B
:101A9000C2F62FC7C3F630C7C4F631C7C5F61EC796
:101AA000C6F61FC7C7F620C7C8F621C7C9F600EC9F
:101AB00080F0C0C681F6C1C682F681C66DF582C6C9
:101AC0006EF5010ED0ECACF0020E0501FB19D8B496
:101AD0006CEF8DF06EEF8DF077EF8DF0030EFB194C
:101AE000D8A475EF8DF077EF8DF01DEF8EF0000E1E
:101AF000B26F000EB36F7A0EB46F440EB56F010E65
:101B0000E9EC95F0050173C5A0F574C5A1F5A26BCC
:101B1000A36B000ED0EC97F0A0C5AEF5A1C5AFF554
:101B2000A2C5B0F5A3C5B1F555EC89F0AEC5B8F6C0
:101B3000AFC5B9F6B0C5BAF6B1C5BBF6AB0E060176
:101B4000BC6FAA0EBD6F270EBE6F430EBF6F2CEC8D
:101B500085F0B8C622F7B9C623F7BAC624F7BBC6C4
:101B600025F7000E94EC90F0C0C6EEF6C1C6EFF675
:101B7000C2C6F0F6C3C6F1F622C7BCF623C7BDF64F
:101B800024C7BEF625C7BFF6EEC6B8F6EFC6B9F64F
:101B9000F0C6BAF6F1C6BBF62CEC85F0B8C6AEF5C9
:101BA000B9C6AFF5BAC6B0F5BBC6B1F5000E0501B2
:101BB000B26F000EB36F7A0EB46F440EB56F55EC72
:101BC00089F0AEC51AF7AFC51BF7B0C51CF7B1C594
:101BD0001DF791C6A0F592C6A1F50501A26BA36BF6
:101BE000000ED0EC97F0A0C5EAF6A1C5EBF6A2C5B1
:101BF000ECF6A3C5EDF6D00E0601C06F080EC16F5E
:101C0000EAC6C2F6EBC6C3F6ECC6C4F6EDC6C5F628
:101C10001AC7C6F61BC7C7F61CC7C8F61DC7C9F644
:101C200000EC80F0C0C67FF6C1C680F67FC66DF5B9
:101C300080C66EF5020ED0ECACF01200CFBE23EFE2
:101C40008EF025EF8EF027EF8EF059EF8FF0050123
:101C5000FE05D8A42EEF8EF030EF8EF07BEF8EF0E5
:101C6000FD51D8B436EF8EF038EF8EF055EF8EF090
:101C7000010E5A6E5950D8B440EF8EF042EF8EF0FC
:101C800055EF8EF02C0E0601815D010E8259D8A011
:101C90004CEF8EF04EEF8EF055EF8EF0050EACEC63
:101CA00098F0BAC58DF6BBC58EF60501FC51D8B4C7
:101CB0005CEF8EF05EEF8EF07BEF8EF0010E5A6ED1
:101CC0005850D8B466EF8EF068EF8EF07BEF8EF050
:101CD0000601805109E1C80E7F5DD8A072EF8EF039
:101CE00074EF8EF07BEF8EF0010EACEC98F0BAC57D
:101CF0008BF6BBC58CF65904D8B481EF8EF083EF18
:101D00008EF08BEF8EF05804D8A489EF8EF08BEF15
:101D10008EF059EF8FF05F50D8B491EF8EF093EFC3
:101D20008EF0F2EF8EF006018D058E11D8A49BEF98
:101D30008EF09DEF8EF0BDEF8EF0010E0501FD657A
:101D4000A4EF8EF0A6EF8EF0BDEF8EF00601765177
:101D500007E1060E755DD8B0B0EF8EF0B2EF8EF0F1
:101D6000BDEF8EF05F6A010EAE6F010EA4ECAFF016
:101D7000000E0601746F010E736F020E06018D19BD
:101D80008E11D8A4C6EF8EF0C8EF8EF0DDEF8EF086
:101D9000010E0501FD65CFEF8EF0D1EF8EF0DDEF86
:101DA0008EF05F6A010E0601AE6F010EA4ECAFF07B
:101DB000000E0601746F000E736F0601765109E183
:101DC000060E755DD8A0E7EF8EF0E9EF8EF0F2EF2A
:101DD0008EF0010EA4ECAFF05F6A000E0601766F84
:101DE000060E756F5E50D8B4F8EF8EF0FAEF8EF0F5
:101DF00059EF8FF006018B058C11D8A402EF8FF0FC
:101E000004EF8FF024EF8FF0010E0501FC650BEF5E
:101E10008FF00DEF8FF024EF8FF00601725107E184
:101E2000060E715DD8B017EF8FF019EF8FF024EF29
:101E30008FF05E6A020EAD6F020EA4ECAFF0000EE2
:101E40000601706F010E6F6F020E06018B198C1167
:101E5000D8A42DEF8FF02FEF8FF044EF8FF0010E0D
:101E60000501FC6536EF8FF038EF8FF044EF8FF00F
:101E70005E6A020E0601AD6F020EA4ECAFF0000E1A
:101E80000601706F010E6F6F0601725109E1060EB7
:101E9000715DD8A04EEF8FF050EF8FF059EF8FF0BB
:101EA000020EA4ECAFF05E6A000E0601726F060E21
:101EB000716F12003EC76FF53FC770F540C771F5EF
:101EC00041C772F515ECABF06FC585F570C586F5A9
:101ED00071C587F572C588F5020E0501FD6173EFC6
:101EE0008FF075EF8FF07DEF8FF0010EFC657BEFCB
:101EF0008FF07DEF8FF076EF90F0FF05D8A483EFA1
:101F00008FF085EF8FF076EF90F030ECB7F06BC587
:101F10003EF76CC53FF76DC540F76EC541F7010E42
:101F20005D6E0501FF6B76EF90F02DECB8F00501CA
:101F3000885187110BE1910E855D010E8659D8A05D
:101F4000A4EF8FF0A6EF8FF093EF90F0010EFD65F8
:101F5000ACEF8FF0AEEF8FF0B9EF8FF0010EFC65B4
:101F6000B4EF8FF0B6EF8FF0B9EF8FF0020E5D6E29
:101F7000576A010EFD65BFEF8FF0C1EF8FF0CCEF18
:101F80008FF0FC51D8A4C7EF8FF0C9EF8FF0CCEFE2
:101F90008FF0030E5D6E566AFD51D8A4D2EF8FF01C
:101FA000D4EF8FF0DFEF8FF0010EFC65DAEF8FF0EA
:101FB000DCEF8FF0DFEF8FF0040E5D6E556A30ECD2
:101FC000B7F06BC53EF76CC53FF76DC540F76EC502
:101FD00041F793EF90F014ECA3F0010E0501FD65BD
:101FE000F4EF8FF0F6EF8FF004EF90F0FC51D8A4EF
:101FF000FCEF8FF0FEEF8FF004EF90F0020EA4ECF8
:10200000AFF0030E5D6E566A0501FD51D8A40BEFCB
:1020100090F00DEF90F093EF90F0010EFC6513EF50
:1020200090F015EF90F093EF90F0010EA4ECAFF06C
:10203000040E5D6E556A93EF90F0F2ECA3F0010E82
:102040000501FD6526EF90F028EF90F033EF90F05A
:10205000010EFC652EEF90F030EF90F033EF90F032
:10206000020E5D6E576AFD51D8A439EF90F03BEF38
:1020700090F093EF90F0010EFC6541EF90F043EF8C
:1020800090F093EF90F0010EA4ECAFF018EF90F009
:1020900086ECA3F0010E0501FD6551EF90F053EFC2
:1020A00090F05EEF90F0010EFC6559EF90F05BEF61
:1020B00090F05EEF90F0020E5D6E576A010EFD65C6
:1020C00064EF90F066EF90F093EF90F0FC51D8A49D
:1020D0006CEF90F06EEF90F093EF90F0020EA4ECA6
:1020E000AFF0030E5D6E566A93EF90F05D50836F14
:1020F000846B8451000AD8B480EF90F093EF90F095
:102100008351010AD8B495EF8FF0030AD8B4EBEFEE
:102110008FF0010AD8B41DEF90F0070AD8B448EF49
:1021200090F093EF90F012000501F06F040E05019E
:10213000F019D8A49EEF90F0A0EF90F019EF91F075
:10214000040EE9EC95F073C5E8F574C5E9F5000EE9
:102150000501B26FF00EB36F7F0EB46F450EB56F11
:10216000E8C5A0F5E9C5A1F5000EA1BFFF0EA26F5D
:10217000A36F010ED0EC97F0A0C5AEF5A1C5AFF5E9
:10218000A2C5B0F5A3C5B1F555EC89F0AEC5B8F65A
:10219000AFC5B9F6B0C5BAF6B1C5BBF66F0E06014C
:1021A000BC6F120EBD6F830EBE6F400EBF6F2CEC66
:1021B00085F0B8C6D8F5B9C6D9F5BAC6DAF5BBC642
:1021C000DBF5660E0501DC6FFB0EDD6F080EDE6FC2
:1021D0003D0EDF6FDCC5BCF6DDC5BDF6DEC5BEF667
:1021E000DFC5BFF6D8C5B8F6D9C5B9F6DAC5BAF6AF
:1021F000DBC5BBF62CEC85F0B8C6AEF5B9C6AFF5BD
:10220000BAC6B0F5BBC6B1F5960E0501B26F430E66
:10221000B36F0B0EB46F3D0EB56F55EC89F0AEC5C4
:10222000ECF5AFC5EDF5B0C5EEF5B1C5EFF598EF3E
:1022300091F0F051D8A41FEF91F021EF91F098EFB9
:1022400091F0000EE9EC95F073C5EAF574C5EBF575
:10225000000E0501B26FF00EB36F7F0EB46F450E26
:10226000B56FEAC5A0F5EBC5A1F5000EA1BFFF0E45
:10227000A26FA36F010ED0EC97F0A0C5AEF5A1C57B
:10228000AFF5A2C5B0F5A3C5B1F555EC89F0AEC563
:10229000B8F6AFC5B9F6B0C5BAF6B1C5BBF66F0EA4
:1022A0000601BC6F120EBD6F830EBE6F400EBF6F76
:1022B0002CEC85F0B8C6E0F5B9C6E1F5BAC6E2F592
:1022C000BBC6E3F5F70E0501E46F110EE56FA50E31
:1022D000E66F3D0EE76FE4C5BCF6E5C5BDF6E6C5A5
:1022E000BEF6E7C5BFF6E0C5B8F6E1C5B9F6E2C58A
:1022F000BAF6E3C5BBF62CEC85F0B8C6AEF5B9C6A8
:10230000AFF5BAC6B0F5BBC6B1F5000E0501B26FA8
:10231000000EB36F800EB46F3E0EB56F55EC89F0B2
:10232000AEC5ECF5AFC5EDF5B0C5EEF5B1C5EFF551
:10233000ECC5B8F6EDC5B9F6EEC5BAF6EFC5BBF615
:10234000000E0601BC6F000EBD6F7A0EBE6F440E0C
:10235000BF6F2CEC85F0B8C6C0F6B9C6C1F6BAC6D8
:10236000C2F6BBC6C3F61200030E03ECB3F06BC596
:10237000D8F56CC5D9F5000E0501B26FF00EB36F3C
:102380007F0EB46F450EB56FD8C5A0F5D9C5A1F5C0
:10239000000EA1BFFF0EA26FA36F010ED0EC97F04D
:1023A000A0C5AEF5A1C5AFF5A2C5B0F5A3C5B1F501
:1023B00055EC89F0AEC5B8F6AFC5B9F6B0C5BAF6FA
:1023C000B1C5BBF66F0E0601BC6F120EBD6F830E5A
:1023D000BE6F400EBF6F2CEC85F0B8C6DBF5B9C6FA
:1023E000DCF5BAC6DDF5BBC6DEF5DBC5AEF5DCC592
:1023F000AFF5DDC5B0F5DEC5B1F5CD0E0501B26FA7
:10240000CC0EB36F4C0EB46F400EB56F1AECA1F04A
:102410000501D8A00EEF92F010EF92F012EF92F0BB
:10242000020EDA6FDBC5AEF5DCC5AFF5DDC5B0F584
:10243000DEC5B1F5660EB26F660EB36F260EB46FD1
:10244000400EB56F1AECA1F00501D8A02AEF92F06A
:102450002CEF92F048EF92F0DBC5AEF5DCC5AFF59E
:10246000DDC5B0F5DEC5B1F5330EB26F330EB36F17
:10247000330EB46F400EB56F1AECA1F00501D8B061
:1024800044EF92F046EF92F048EF92F0010EDA6FCF
:10249000330EAE6F330EAF6F130EB06F400EB16FD1
:1024A000DBC5B2F5DCC5B3F5DDC5B4F5DEC5B5F504
:1024B0001AECA1F00501D8A060EF92F062EF92F063
:1024C00063EF92F0DA6B0601B051D8A46AEF92F094
:1024D0006CEF92F0D1EF92F0A8510501DA19D8B45F
:1024E00074EF92F076EF92F0D1EF92F0DAC5A8F6A1
:1024F000C1EF92F0AA51D8B480EF92F082EF92F03F
:1025000089EF92F00501FD51020DF3C4FDF50601BE
:10251000AA6BA96B010E0501FE6FD1EF92F0AA51D3
:10252000D8A495EF92F097EF92F0D1EF92F0FDC51D
:102530006BF505016C6B000E6E6F020E6D6FFEEC9D
:10254000A5F005016B51FD6F010E0601AA6FD1EFD9
:1025500092F0AA51D8B4AFEF92F0B1EF92F0B8EF89
:1025600092F00501FD51020DF3C4FDF50601AA6BC1
:10257000010EA96F0501FE6B030EA4ECAFF0D1EFC5
:1025800092F00601A851000AD8B47AEF92F0010A3D
:10259000D8B48FEF92F0030AD8B4A9EF92F0D1EF3C
:1025A00092F012007AC5D9F47BC5DAF4DEC4F6F4F1
:1025B000DDC4F7F4000EF86E0800F550250AD8A423
:1025C000E4EF92F0E6EF92F0CAEF93F07AC5D9F417
:1025D0007BC5DAF4DE2A000EDD22000E0701836FD0
:1025E000000E826F82C79FF6846985697AC5D9F427
:1025F0007BC5DAF4DEC481F5DDC482F581C5F6F46D
:1026000082C5F7F4000EF86E0800F550640AD8B4DD
:102610000CEF93F00EEF93F01EEF93F081C5F6F4FC
:1026200082C5F7F4000EF86E0800F550690AD8A4C8
:102630001CEF93F01EEF93F0C1EF93F07CC5D9F43B
:102640007DC5DAF4DFC47EF5020EDE26DFC47FF539
:10265000000EDD227EC5D9F47FC5DAF4DEC483F531
:10266000DDC484F5010E050181257E6F000E8221F7
:102670007F6F7AC5D9F47BC5DAF47EC5DEF47FC5F9
:10268000DDF4200E876F84BF48EF93F04BEF93F09B
:10269000010E4CEF93F0000E806F8707000E872528
:1026A000D96EDA6A090EDA2283C56BF584C56CF53A
:1026B000000E6E6F0A0E6D6F8AECA8F06BC571F597
:1026C0006CC572F5E9ECB3F005017151300FDF6EA6
:1026D00083C56BF584C56CF5000E6E6F0A0E6D6FC9
:1026E000FEECA5F06BC583F56CC584F5050183513F
:1026F0008411D8B47EEF93F080EF93F088EF93F0DD
:102700008751D8A486EF93F088EF93F04DEF93F0C4
:102710008751D8B48EEF93F090EF93F0B6EF93F02B
:102720008051D8B496EF93F098EF93F0B6EF93F012
:102730008707000E8725D96EDA6A090EDA222D0E78
:10274000DF6EB6EF93F0000E8725D96EDA6A090EB8
:10275000DA22DF507E6F7E516F6F706B78C571F536
:1027600079C572F534ECA5F00501872B200E871989
:10277000D8A4BDEF93F0BFEF93F0A3EF93F0E1EF98
:1027800093F07AC5D9F47BC5DAF4DE2A000EDD2297
:10279000E1EF93F07AC5D9F47BC5DAF4DEC4F6F440
:1027A000DDC4F7F4000EF86E0800F55005016F6FF8
:1027B000706B78C571F579C572F534ECA5F0C1EF91
:1027C00093F01200000E0501716F000E726F000E83
:1027D000736F5BECB1F00501786F78510601166FED
:1027E000176B010E0501716F000E726F000E736F93
:1027F0005BECB1F00501786F78510601186F196B29
:10280000020E0501716F000E726F000E736F5BECAC
:10281000B1F00501786F785106011A6F1B6B640ED9
:102820001803F3C478F5F4C479F51903F3500501DE
:102830007927100E7A6F270E7B6F7A5106011603E7
:10284000F3C47CF5F4C47DF51703F35005017D272F
:102850007B51060116030501F3507D2778517C2535
:102860007E6F79517D217F6F06011A5105017E250A
:1028700006010F6F1B5105017F210601106F1651D4
:10288000CFECAFF0050173510701D66F0601185167
:10289000CFECAFF0050173510701D76F06011A5154
:1028A000CFECAFF0050173510701D86F040E05019D
:1028B000716F000E726F000E736F5BECB1F005016B
:1028C000786F78510601076F086B050E0501716F6F
:1028D000000E726F000E736F5BECB1F00501786F44
:1028E00078510601096F0A6B060E0501716F000E23
:1028F000726F000E736F5BECB1F00501786F785169
:1029000006010B6F0C6B640E0903F3C478F5F4C475
:1029100079F50A03F35005017927100E7A6F270E17
:102920007B6F7A5106010703F3C47CF5F4C47DF58F
:102930000803F35005017D277B51060107030501BC
:10294000F3507D2778517C257E6F79517D217F6FF3
:1029500006010B5105017E250601006F0C51050192
:102960007F210601016F0751CFECAFF005017351D4
:102970000701DA6F06010951CFECAFF00501735181
:102980000701DB6F06010B51CFECAFF0050173516E
:102990000701DC6FD00E0501786FC90EE82EFED757
:1029A000782FFCD700D0000E05016D6F530E6C6FB1
:1029B000D30E6E6F070E6F6F000E716F0A0E706F81
:1029C00021ECAFF00009D8B4E8EF94F0EAEF94F00E
:1029D000D3EF94F0120030ECB7F06BC5D8F56CC5AE
:1029E000D9F56DC5DAF56EC5DBF5C0C66BF5C1C6A8
:1029F0006CF5C2C66DF5C3C66EF522C66FF523C66B
:102A000070F524C671F525C672F5E2ECA8F0050153
:102A1000D8B00DEF95F00FEF95F02FEF95F0C0C601
:102A200022F6C1C623F6C2C624F6C3C625F626C6BC
:102A300056F727C657F728C658F729C659F7D8C5F5
:102A400052F7D9C553F7DAC554F7DBC555F7C4C6F5
:102A5000C9F7C5C6CAF7C6C6CBF7C7C6CCF752C7B3
:102A60006FF553C770F554C771F555C772F515EC7E
:102A7000ABF06FC5E4F570C5E5F571C5E6F572C557
:102A8000E7F50701C9510501E45D0701CA510501D8
:102A9000E5590701CB510501E6590701CC51050164
:102AA000E759D8A056EF95F058EF95F06AEF95F0FA
:102AB00022C626F623C627F624C628F625C629F6FA
:102AC00026C6C0F627C6C1F628C6C2F629C6C3F672
:102AD000E8EF95F0E4C5A0F5E5C5A1F5E6C5A2F5DA
:102AE000E7C5A3F5000ED0EC97F0A0C5AEF5A1C5E3
:102AF000AFF5A2C5B0F5A3C5B1F5C9C7A0F5CAC762
:102B0000A1F5CBC7A2F5CCC7A3F5000ED0EC97F08A
:102B1000A0C5B2F5A1C5B3F5A2C5B4F5A3C5B5F579
:102B200055EC89F0AEC5DCF5AFC5DDF5B0C5DEF519
:102B3000B1C5DFF5DCC5BCF6DDC5BDF6DEC5BEF64C
:102B4000DFC5BFF656C77FF557C780F558C781F573
:102B500059C782F522C67BF523C67CF524C67DF5D0
:102B600025C67EF537ECB1F07BC5B8F67CC5B9F665
:102B70007DC5BAF67EC5BBF62CEC85F0B8C6E0F58F
:102B8000B9C6E1F5BAC6E2F5BBC6E3F5E0C56BF53B
:102B9000E1C56CF5E2C56DF5E3C56EF556C76FF599
:102BA00057C770F558C771F559C772F5D0EC82F068
:102BB0006BC526F66CC527F66DC528F66EC529F6D9
:102BC00026C6C0F627C6C1F628C6C2F629C6C3F671
:102BD00012000501936F000E05019B6F000E9A6FA6
:102BE000935103ECB3F0D89005019A35D96E9B351B
:102BF000DA6E7B0ED926050EDA226BC5DEF46CC5C3
:102C0000DDF49A4B9B2B9BBF0FEF96F09B5109E194
:102C10000C0E9A5DD8A00FEF96F011EF96F0F0EF42
:102C200095F0000E996F000E986F000E9D6F000ECC
:102C30009C6F000E9F6F000E9E6F86EF96F0D890EF
:102C40009E35D96E9F35DA6E7B0ED926050EDA22B7
:102C50009EC577F59FC578F5D89077377837020EFF
:102C60007727000E78237B0E7725E16E050E7821FD
:102C7000E26EDE50E65CDE50E658D8B042EF96F0E9
:102C800044EF96F084EF96F0D8909E35D96E9F353C
:102C9000DA6E7B0ED926050EDA22DEC494F5DDC489
:102CA00095F59EC575F59FC576F5D890753776373D
:102CB000020E7527000E76237B0E7525D96E050E44
:102CC0007621DA6ED8909E35E16E9F35E26E7B0EEE
:102CD000E126050EE222DEC4E6F4DDC4E5F49EC57D
:102CE00075F59FC576F5D89075377637020E75273E
:102CF000000E76237B0E7525D96E050E7621DA6ED1
:102D000094C5DEF495C5DDF49E4B9F2B0B0E756FBD
:102D1000000E766F9C51755F9D51765B75519E5D7F
:102D20009F51800A776F7651800A7759D8A09BEF20
:102D300096F09DEF96F01FEF96F09C4B9D2B9DBF5C
:102D4000ABEF96F09D5109E10B0E9C5DD8A0ABEF67
:102D500096F0ADEF96F019EF96F0000E9D6F020E13
:102D60009C6FD8909C35D96E9D35DA6E7B0ED92636
:102D7000050EDA22DE509827DD5099239C4B9D2BBF
:102D80009DBFCCEF96F09D5109E10A0E9C5DD8A045
:102D9000CCEF96F0CEEF96F0B1EF96F098C56BF5CC
:102DA00099C56CF5000E6E6F080E6D6FFEECA5F008
:102DB0006BC596F56CC597F596C573F597C574F513
:102DC0001200000E0501716F000E726F000E736F1E
:102DD0005BECB1F00501786F78510601166F176B47
:102DE000010E0501716F000E726F000E736F5BECC8
:102DF000B1F00501786F78510601186F196B020E5A
:102E00000501716F000E726F000E736F5BECB1F015
:102E10000501786F785106011A6F1B6B040E0501CE
:102E2000716F000E726F000E736F5BECB1F00501F5
:102E3000786F78510601076F086B050E0501716FF9
:102E4000000E726F000E736F5BECB1F00501786FCE
:102E500078510601096F0A6B060E0501716F000EAD
:102E6000726F000E736F5BECB1F00501786F7851F3
:102E700006010B6F0C6B175109E1650E165DD8A0AA
:102E800044EF97F046EF97F051EF97F0000E0501F1
:102E9000736F000E746F000E756F000E766F95ECF9
:102EA000ACF00601195109E1650E185DD8A05BEF81
:102EB00097F05DEF97F068EF97F0010E0501736FE3
:102EC000000E746F000E756F000E766F95ECACF00F
:102ED00006011B5109E1650E1A5DD8A072EF97F04B
:102EE00074EF97F07FEF97F0020E0501736F000EFD
:102EF000746F000E756F000E766F95ECACF0030EDC
:102F00000501736F000E746F000E756F000E766F03
:102F100095ECACF00601085109E1650E075DD8A0FB
:102F200094EF97F096EF97F0A1EF97F0040E05015C
:102F3000736F000E746F000E756F000E766F95EC58
:102F4000ACF006010A5109E1650E095DD8A0ABEFAE
:102F500097F0ADEF97F0B8EF97F0050E0501736F9E
:102F6000000E746F000E756F000E766F95ECACF06E
:102F700006010C5109E1650E0B5DD8A0C2EF97F078
:102F8000C4EF97F0CFEF97F0060E0501736F000EB8
:102F9000746F000E756F000E766F95ECACF012003A
:102FA0000501A86F0501A851D8B4D9EF97F0DBEF60
:102FB00097F0FDEF97F0A3BFE2EF97F0E0EF97F007
:102FC000FDEF97F0A0C5A4F5A1C5A5F5A2C5A6F58E
:102FD000A3C5A7F5A41FA51FA61FA71FA42B000EFE
:102FE000A523A623A723A4C5AAF5A5C5ABF5A6C509
:102FF000ACF5A7C5ADF505EF98F0A0C5AAF5A1C53C
:10300000ABF5A2C5ACF5A3C5ADF5A051A111A211B8
:10301000A311D8A40EEF98F010EF98F01AEF98F0E3
:10302000000EA06F000EA16F000EA26F000EA36F26
:10303000ABEF98F0960EA96F24EF98F0A92BD890DB
:10304000AD33AC33AB33AA33000EAA15A46F000E18
:10305000AB15A56F000EAC15A66FFE0EAD15A76FD4
:10306000A451A511A611A711D8A439EF98F03BEFF0
:1030700098F01EEF98F049EF98F0A92B010EAA27BF
:10308000000EAB23AC23AD23D890AD33AC33AB33C0
:10309000AA33000EAA15A46F000EAB15A56F000E83
:1030A000AC15A66FFF0EAD15A76FA451A511A61103
:1030B000A711D8A45EEF98F060EF98F03DEF98F07C
:1030C00068EF98F0A907D890AA37AB37AC37AD377F
:1030D000ACBF6DEF98F06FEF98F077EF98F0020EBD
:1030E000A96175EF98F077EF98F062EF98F0A9B1C9
:1030F0007CEF98F07EEF98F07FEF98F0AC9FD8903F
:10310000A933A9C5A4F5A56BA66BA76BA4C5A7F5A4
:10311000A66BA56BA46BA451AA13A551AB13A65122
:10312000AC13A751AD13A851D8B499EF98F09BEF09
:1031300098F0A3EF98F0A3BFA2EF98F0A0EF98F05B
:10314000A3EF98F0AD8FAAC5A0F5ABC5A1F5ACC5AE
:10315000A2F5ADC5A3F512000501C46F050E05016A
:10316000C419D8A4B6EF98F0B8EF98F022EF99F010
:10317000140EBC6FC80EBD6F2A0EBE6F450EBF6F1A
:10318000C451E9EC95F073C51EF674C51FF61EC652
:10319000A0F51FC6A1F50501A26BA36B000ED0EC34
:1031A00097F0A0C5AEF5A1C5AFF5A2C5B0F5A3C512
:1031B000B1F5BCC5B2F5BDC5B3F5BEC5B4F5BFC567
:1031C000B5F51AECA1F00501D8B0E9EF98F0EBEFF6
:1031D00098F002EF99F0E10E06011E5D010E1F59F5
:1031E000D8A0F5EF98F0F7EF98F009EF99F0590EA5
:1031F0001E5D020E1F59D8B000EF99F002EF99F052
:1032000009EF99F0000E0501BB6F010EBA6F83EF55
:1032100099F0E00E1E5D010E1F59D8B012EF99F023
:1032200014EF99F01BEF99F0000E0501BB6F020E31
:10323000BA6F83EF99F0000E0501BB6F000EBA6FF5
:1032400083EF99F0C405D8A428EF99F02AEF99F0FC
:103250001BEF99F0130EC06F760EC16F830EC26F15
:10326000440EC36FC451E9EC95F073C520F674C5E4
:1032700021F620C6A0F521C6A1F50501A26BA36B1E
:10328000000ED0EC97F0A0C5AEF5A1C5AFF5A2C574
:10329000B0F5A3C5B1F5C0C5B2F5C1C5B3F5C2C59A
:1032A000B4F5C3C5B5F51AECA1F00501D8B05BEFD4
:1032B00099F05DEF99F002EF99F02D0E0601205D77
:1032C000010E2159D8A067EF99F069EF99F076EFD8
:1032D00099F0E00E205D010E2159D8B072EF99F0FF
:1032E00074EF99F076EF99F002EF99F02D0E205DD2
:1032F000010E2159D8B07FEF99F081EF99F01BEFC3
:1033000099F014EF99F012005A04D8A48AEF99F0BA
:103310008CEF99F0A3EF99F006016B4B6C2BF40E38
:103320006B1906E16C05D8A498EF99F09AEF99F023
:10333000A3EF99F0010E596E010E586E000E6C6FDE
:10334000000E6B6F5A6A0601694B6A2BC80E691929
:103350006A11D8A4AEEF99F0B0EF99F0CBEF99F0E5
:10336000000E6A6F000E696FA62B73517411D8B4EA
:10337000BCEF99F0BEEF99F0C0EF99F0674B682B66
:103380006F517011D8B4C7EF99F0C9EF99F0CBEF36
:1033900099F0654B662B960E67196811D8A4D3EF88
:1033A00099F0D5EF99F0ECEF99F0000E686F000EF0
:1033B000676F010E5F6E754B762B765109E1060E35
:1033C000755DD8A0E6EF99F0E8EF99F0ECEF99F091
:1033D000000E746F000E736F960E65196611D8A4F7
:1033E000F4EF99F0F6EF99F00DEF9AF0010E5E6EA2
:1033F000714B722B000E666F000E656F725109E102
:10340000060E715DD8A007EF9AF009EF9AF00DEF64
:103410009AF0000E706F000E6F6F63056411D8A4F0
:1034200014EF9AF016EF9AF031EF9AF0614B622B9D
:10343000625109E1C80E615DD8A021EF9AF023EF37
:103440009AF031EF9AF0000E626F000E616F000E7D
:1034500007018F6F010E8E6F000E0601646F000E64
:10346000636F5F516011D8B438EF9AF03AEF9AF079
:1034700051EF9AF05F07D8A060075F516011D8A4A0
:1034800044EF9AF046EF9AF051EF9AF00501F851A7
:10349000D8B44DEF9AF04FEF9AF051EF9AF0010E39
:1034A0004C6E12000501F451020D400EF324D96E4A
:1034B000080EF420DA6EDE6ADD6A0201C5A763EF4A
:1034C0009AF065EF9AF088EF9AF00501F451020D39
:1034D000400EF324D96E080EF420DA6E0801DF8264
:1034E0000601335134113511D8B479EF9AF07BEFDE
:1034F0009AF088EF9AF002D888EF9AF00500FA6EF9
:103500003351FD6E3451FE6E3551FF6EFA5012008C
:103510000201C5A38EEF9AF090EF9AF0B3EF9AF004
:103520000501F451020D400EF324D96E080EF4206B
:10353000DA6E0801DF840601305131113211D8B43E
:10354000A4EF9AF0A6EF9AF0B3EF9AF002D8B3EF97
:103550009AF00500FA6E3051FD6E3151FE6E325117
:10356000FF6EFA5012000201C5ADB9EF9AF0BBEF41
:103570009AF0DEEF9AF00501F451020D400EF324AB
:10358000D96E080EF420DA6E0801DF8006012D5195
:103590002E112F11D8B4CFEF9AF0D1EF9AF0DEEFC1
:1035A0009AF002D8DEEF9AF00500FA6E2D51FD6E0A
:1035B0002E51FE6E2F51FF6EFA501200B4C230F53C
:1035C0000501F4290F0B316E42503118D8A4EBEFEE
:1035D0009AF0EDEF9AF0EFEF9AF0FAEF9AF0600EB2
:1035E000F425D96EDA6A080EDA2230C5DFF431C567
:1035F000F4F5412A06012A512B112C11D8B403EFFE
:103600009BF005EF9BF012EF9BF002D812EF9BF0BE
:103610000500FA6E2A51FD6E2B51FE6E2C51FF6E85
:10362000FA50120012004750020D000EF324D96E1A
:10363000080EF420DA6EDE6ADD6A0201B2A723EF1B
:103640009BF025EF9BF047EF9BF04750020D000EDB
:10365000F324D96E080EF420DA6E0801DF82060129
:103660003F5140114111D8B438EF9BF03AEF9BF035
:1036700047EF9BF002D847EF9BF00500FA6E3F51F1
:10368000FD6E4051FE6E4151FF6EFA501200020174
:10369000B2A34DEF9BF04FEF9BF071EF9BF04750C3
:1036A000020D000EF324D96E080EF420DA6E080124
:1036B000DF8406013C513D113E11D8B462EF9BF00E
:1036C00064EF9BF071EF9BF002D871EF9BF0050067
:1036D000FA6E3C51FD6E3D51FE6E3E51FF6EFA504A
:1036E00012000201B2AD77EF9BF079EF9BF09BEFF8
:1036F0009BF04750020D000EF324D96E080EF42003
:10370000DA6E0801DF80060139513A113B11D8B455
:103710008CEF9BF08EEF9BF09BEF9BF002D89BEF22
:103720009BF00500FA6E3951FD6E3A51FE6E3B5129
:10373000FF6EFA501200A1C21EF547281F0B1F6E24
:1037400046501F18D8A4A7EF9BF0A9EF9BF0ABEF52
:103750009BF0B6EF9BF0200E4724D96EDA6A090E73
:10376000DA221EC5DFF41FC547F5452A060136518A
:1037700037113811D8B4BFEF9BF0C1EF9BF0CEEFFB
:103780009BF002D8CEEF9BF00500FA6E3651FD6E2D
:103790003751FE6E3851FF6EFA5012001200B8C653
:1037A000D9F4B9C6DAF4BAC6DFF4060120EE01F0A6
:1037B000B851D926B951DA22BBC6DEF4BCC6DEF454
:1037C000BDC6DEF4BEC6DEF420EE05F0B851D92643
:1037D000B951DA22BFC6DEF4C0C6DEF4C1C6DEF4DB
:1037E000C2C6DEF420EE09F0B851D926B951DA226A
:1037F000C3C6DEF4C4C6DEF4C5C6DEF4C6C6DEF457
:1038000020EE15F0B851D926B951DA22C7C6DEF438
:10381000C8C6DEF4C9C6DEF4CAC6DEF420EE19F06E
:10382000B851D926B951DA22CBC6DEF4CCC6DEF4C3
:10383000CDC6DEF4CEC6DEF4000E0501AE6F000E7E
:10384000AF6F480EB06F440EB16FBFC6B2F5C0C6C1
:10385000B3F5C1C6B4F5C2C6B5F555EC89F006019D
:1038600020EE0DF0B851D926B951DA220501AEC5C6
:10387000DEF4AFC5DEF4B0C5DEF4B1C5DEF4000E93
:10388000AE6F000EAF6F480EB06FC40EB16FBFC603
:10389000B2F5C0C6B3F5C1C6B4F5C2C6B5F555ECB0
:1038A00089F0060120EE11F0B851D926B951DA227B
:1038B0000501AEC5DEF4AFC5DEF4B0C5DEF4B1C5BA
:1038C000DEF4060120EE1DF0B851D926B951DA22F6
:1038D000000EDE6E000EDE6E000EDE6E000EDD6E81
:1038E00020EE21F0B851D926B951DA22000EDE6E51
:1038F000000EDE6E000EDE6E000EDD6E20EE25F098
:10390000B851D926B951DA22CFC6DEF4D0C6DDF4DB
:103910001200050120EE03F08051D9268151DA22F0
:10392000DF506B6F20EE02F08051D9268151DA22F0
:10393000DF50A1ECABF06BC59DF66CC59EF6570E43
:1039400006019D5D030E9E59D8A0A9EF9CF0ABEF38
:103950009CF0AFEF9CF0030E9E6F570E9D6FF40E20
:103960009D5D010E9E59D8B0B8EF9CF0BAEF9CF067
:10397000BEEF9CF0010E9E6FF40E9D6F9DC699F6F2
:103980009EC69AF680C5D9F481C5DAF4DF500501E8
:10399000FD6FFDC5B6F6630EFD65D1EF9CF0D3EF6C
:1039A0009CF0D5EF9CF0640EFD6F20EE07F0805187
:1039B000D9268151DA22DF506B6F20EE06F080515C
:1039C000D9268151DA22DF50A1ECABF06BC59BF612
:1039D0006CC59CF606019C5109E1710E9B5DD8A057
:1039E000F4EF9CF0F6EF9CF0FAEF9CF0000E9C6F69
:1039F000710E9B6F9C5107E1320E9B5DD8B003EFB7
:103A00009DF005EF9DF009EF9DF0000E9C6F320ECA
:103A10009B6F9BC697F69CC698F6050120EE04F0B6
:103A20008051D9268151DA22DF50FC6FFCC5B5F6F2
:103A3000630EFC651EEF9DF020EF9DF022EF9DF0E0
:103A4000640EFC6F1200000E05016D6F570E6C6F57
:103A5000DD0E6E6F070E6F6F000E716F020E706FCE
:103A600021ECAFF00009D8B438EF9DF03AEF9DF0AB
:103A700023EF9DF0000E05016D6F570E6C6F5B0E0E
:103A80006E6F050E6F6F000E716F010E706F4DEC53
:103A9000AFF00009D8B44FEF9DF051EF9DF03AEF31
:103AA0009DF0680E0501736FE40EE82EFED7732FAC
:103AB000FCD700005BC5A1F6680E0501736FE40E2C
:103AC000E82EFED7732FFCD70000C00E0601A11907
:103AD000D8A46DEF9DF06FEF9DF071EF9DF0B1EF09
:103AE0009DF0000E05016D6F570E6C6FB10E6E6F7D
:103AF000090E6F6F000E716F130E706F21ECAFF037
:103B00000009D8B486EF9DF088EF9DF071EF9DF02D
:103B1000680E0501736FE40EE82EFED7732FFCD7F5
:103B20000000000E05016D6F570E6C6FDD0E6E6F9D
:103B3000070E6F6F000E716F030E706F4DECAFF0DC
:103B40000009D8B4A6EF9DF0A8EF9DF091EF9DF08D
:103B50002A0E0501736F8D0EE82EFED7732FFCD74A
:103B600000D0D00E0501736FC90EE82EFED7732F5B
:103B7000FCD700D0120006011551D8B4C2EF9DF059
:103B8000C4EF9DF012EF9EF0134B142B5B4B5C2B9C
:103B9000B90E5B5D0B0E5C59D8A0D1EF9DF0D3EF51
:103BA0009DF0DBEF9DF0000E6E6F010E6D6F000E4D
:103BB0005C6F000E5B6F600E135DEA0E1459D8A0A7
:103BC000E4EF9DF0E6EF9DF012EF9EF0114B122B0B
:103BD000010EA46F125109E13C0E115DD8A0F3EF64
:103BE0009DF0F5EF9DF00EEF9EF00F4B102B000EA9
:103BF0001D6F010E1C6F500E0F5DC30E1059D8A023
:103C000004EF9EF006EF9EF00AEF9EF0C30E106FD9
:103C1000500E0F6F000E106F000E0F6F000E146F1E
:103C2000000E136F0651D8B418EF9EF01AEF9EF0F5
:103C300051EF9EF0044B052B600E045DEA0E055912
:103C4000D8A025EF9EF027EF9EF051EF9EF0024B9B
:103C5000032B035109E13C0E025DD8A032EF9EF028
:103C600034EF9EF04DEF9EF0004B012B000E0E6FD7
:103C7000010E0D6F500E005DC30E0159D8A043EF29
:103C80009EF045EF9EF049EF9EF0C30E016F500E7F
:103C9000006F000E016F000E006F000E056F000E2A
:103CA000046F1200BAC56BF5BBC56CF5BCC56DF5EC
:103CB000BDC56EF51DECA2F005016B516C11D8A4C9
:103CC00064EF9EF066EF9EF070EF9EF0BEC5BAF511
:103CD000BFC5BBF5C0C5BCF5C1C5BDF5E5EF9EF0E0
:103CE000BEC56BF5BFC56CF5C0C56DF5C1C56EF53C
:103CF0001DECA2F005016B516C11D8A482EF9EF06F
:103D000084EF9EF08EEF9EF0BAC5BAF5BBC5BBF549
:103D1000BCC5BCF5BDC5BDF5E5EF9EF0BAC56BF5FC
:103D2000BBC56CF5BCC56DF5BDC56EF54DECB0F011
:103D30006BC5C2F56CC5C3F5BEC56BF5BFC56CF5EB
:103D4000C0C56DF5C1C56EF54DECB0F005016B5108
:103D5000C21909E16C51C319D8B4B1EF9EF0B3EFA9
:103D60009EF0C9EF9EF0BAC56BF5BBC56CF5BCC53E
:103D70006DF5BDC56EF54DECB0F005016B516C11E4
:103D8000D8A4C5EF9EF0C7EF9EF084EF9EF066EFDB
:103D90009EF0BAC5AEF5BBC5AFF5BCC5B0F5BDC5A7
:103DA000B1F5BEC5B2F5BFC5B3F5C0C5B4F5C1C563
:103DB000B5F51AECA1F00501D8A0E1EF9EF0E3EF14
:103DC0009EF084EF9EF066EF9EF01200C4C56BF586
:103DD000C5C56CF5C6C56DF5C7C56EF51DECA2F081
:103DE00005016B516C11D8A4F8EF9EF0FAEF9EF02C
:103DF00004EF9FF0C8C5C4F5C9C5C5F5CAC5C6F569
:103E0000CBC5C7F579EF9FF0C8C56BF5C9C56CF593
:103E1000CAC56DF5CBC56EF51DECA2F005016B5161
:103E20006C11D8A416EF9FF018EF9FF022EF9FF0CF
:103E3000C4C5C4F5C5C5C5F5C6C5C6F5C7C5C7F56E
:103E400079EF9FF0C4C56BF5C5C56CF5C6C56DF5BA
:103E5000C7C56EF54DECB0F06BC5CCF56CC5CDF5B6
:103E6000C8C56BF5C9C56CF5CAC56DF5CBC56EF592
:103E70004DECB0F005016B51CC1909E16C51CD1935
:103E8000D8B445EF9FF047EF9FF05DEF9FF0C4C5BA
:103E90006BF5C5C56CF5C6C56DF5C7C56EF54DECC2
:103EA000B0F005016B516C11D8A459EF9FF05BEF96
:103EB0009FF0FAEF9EF018EF9FF0C4C5AEF5C5C5B0
:103EC000AFF5C6C5B0F5C7C5B1F5C8C5B2F5C9C52A
:103ED000B3F5CAC5B4F5CBC5B5F51AECA1F005012B
:103EE000D8A075EF9FF077EF9FF0FAEF9EF018EFF4
:103EF0009FF01200C80E05017C6F000E7D6F000E52
:103F00007E6F000E7F6F74517A6F73C57BF5A5EFDE
:103F10009FF005017C517D117E117F11D8A493EF94
:103F20009FF095EF9FF097EF9FF009EFA0F07C07CF
:103F3000000E7D5B7E5B7F5B150E0501786FC60E04
:103F4000E82EFED7782FFCD70000000E05016D6F1C
:103F5000530E6C6F7A0E6E6F050E6F6F000E716FE1
:103F6000020E706F21ECAFF00009D8B4BAEF9FF0E9
:103F7000BCEF9FF089EF9FF0C80E05017C6F000E2B
:103F80007D6F000E7E6F000E7F6FE3EF9FF00501E7
:103F90007C517D117E117F11D8A4D1EF9FF0D3EF1A
:103FA0009FF0D5EF9FF009EFA0F07C07000E7D5B3E
:103FB0007E5B7F5B150E0501786FC60EE82EFED77F
:103FC000782FFCD70000000E05016D6F530E6C6F4B
:103FD00075C56EF576C56FF5020E7725706F716B3E
:103FE000000E71234DECAFF00009D8B4FAEF9FF04A
:103FF000FCEF9FF0C7EF9FF0090E0501796F1E0ED1
:10400000786FE40EE82EFED7782FFCD7792FFAD7F9
:10401000000012000601BA35BB350501D36FD3513C
:10402000D8A415EFA0F017EFA0F022EFA0F0000E3B
:104030000601B86F000EB96F000EBA6F000EBB6FAD
:1040400096EFA0F0B8C6CEF5B9C6CFF5BAC6D0F592
:10405000BBC6D1F5200E32EFA0F0D890D133D033CB
:10406000CF33CE33E82E2DEFA0F0CE51D26F060124
:10407000BA8FFF0EB817FF0EB917FF0EBA17000E52
:10408000BB17960E0501D35FD3BF4BEFA0F049EFEE
:10409000A0F063EFA0F0D351800A970FD8B053EF90
:1040A000A0F055EFA0F057EFA0F017EFA0F0060139
:1040B000D890BB33BA33B933B8330501D33F57EF88
:1040C000A0F07DEFA0F01F0ED36569EFA0F06BEFBD
:1040D000A0F075EFA0F017EFA0F00601D890B83768
:1040E000B937BA37BB370501D307D351D8A47BEF13
:1040F000A0F07DEFA0F06DEFA0F0D251D8B483EF27
:10410000A0F085EFA0F08EEFA0F00601BB1FBA1F54
:10411000B91FB86D000EB923BA23BB23B8C6B8F6D1
:10412000B9C6B9F6BAC6BAF6BBC6BBF61200F40EEB
:10413000F66E5F0EF76E010EF86E02EE71F110EE84
:1041400053F00900F5C4EEF4E550E150FAE1600ED9
:10415000F66E6D0EF76E010EF86E01EEC9F310EEFD
:1041600017F00900F5C4EEF4E550E150FAE11E0E37
:10417000F66E6F0EF76E010EF86E01EEF2F210EEB3
:104180000DF00900F5C4EEF4E550E150FAE1A20E9D
:10419000F66E700EF76E010EF86E0900F5C4FFF5AD
:1041A0004E0EF66E700EF76E010EF86E01EE5CF1BB
:1041B00010EE04F00900F5C4EEF4E550E150FAE128
:1041C00002EE00F3640EEE6AE806FDE102EE00F294
:1041D000D80EEE6AE806FDE102EE00F1710EEE6A1D
:1041E000E806FDE102EE00F0F70EEE6AE806FDE1FA
:1041F00001EE00F3C90EEE6AE806FDE101EE00F201
:10420000B80EEE6AE806FDE101EEF4F10B0EEE6A7F
:10421000E806FDE101EE32F12A0EEE6AE806FDE164
:104220000401080E5D6F000E5E6F000E5F6F0001EF
:1042300053EFB4F0000E0501AE15B66F000EAF15CA
:10424000B76F800EB015B86F7F0EB115B96FB6514C
:10425000B711B811B911D8A430EFA1F032EFA1F025
:104260003AEFA1F0000EAE6F000EAF6F000EB06F10
:10427000000EB16F000EB215B66F000EB315B76F1A
:10428000800EB415B86F7F0EB515B96FB651B71162
:10429000B811B911D8A44FEFA1F051EFA1F059EF27
:1042A000A1F0000EB26F000EB36F000EB46F000EDF
:1042B000B56FB1AF5EEFA1F060EFA1F069EFA1F0D3
:1042C000AE6DAF1FD8B0AF2BB01FD8B0B02B800EE3
:1042D000B157B5AF6EEFA1F070EFA1F079EFA1F09B
:1042E000B26DB31FD8B0B32BB41FD8B0B42B800EAF
:1042F000B557000EAE1B000EAF1B000EB01B800E9C
:10430000B11B000EB21B000EB31B000EB41B800EBF
:10431000B51BB251AE5DB351AF59B451B059B5519F
:10432000B159D8B096EFA1F098EFA1F09BEFA1F0B2
:10433000D8909CEFA1F0D88012004C04D8B4A3EF21
:10434000A1F0A5EFA1F0A7EFA1F01CEFA2F0A80E3D
:1043500005016B6F080E6C6F800E6D6F080E6E6F2F
:10436000F8C56FF5706B24ECB0F00501F851FE0F45
:104370007C6FA80E6B6F080E6C6F7CC56DF5E3EC5F
:10438000ABF06BC559F66CC55AF6A90E05017C2534
:10439000D96EDA6A080EDA22DF50766FA80E7C2515
:1043A000D96EDA6A080EDA22DF50776F7751796FAB
:1043B000786B765178250601576F0501000E79213B
:1043C0000601586F5751591909E158515A19D8B473
:1043D000ECEFA1F0EEEFA1F0F2EFA1F02AECB2F0D9
:1043E0001CEFA2F0AEC87AF50501F851F70F7B6F0C
:1043F0007A517B19D8B4FFEFA1F001EFA2F003EFDF
:10440000A2F0EEEFA1F0100E0801A919D8A40BEF4D
:10441000A2F00DEFA2F0EEEFA1F00E0EAB19D8A4B2
:1044200014EFA2F016EFA2F0EEEFA1F0B0C8FDF588
:10443000B2C8FCF5EEEFA1F0120012C775F513C774
:1044400076F514C777F515C778F56BC575F56CC5A6
:1044500076F56DC577F56EC578F575C56FF576C5DA
:1044600070F577C571F578C572F5180E3EEFA2F0BC
:104470000501D8907233713370336F33E82E38EF03
:10448000A2F06F51736F746B73517411D8A44BEF1A
:10449000A2F04DEFA2F06DEFA2F0D89075356F6FDE
:1044A0007635706F7735716F7835726F6F51701127
:1044B00071117211D8A45FEFA2F061EFA2F067EF63
:1044C000A2F0000E6C6F020E6B6F9CEFA2F0000E5C
:1044D0006C6F030E6B6F9CEFA2F073297411D8A45C
:1044E00074EFA2F076EFA2F098EFA2F075C56FF529
:1044F00076C570F577C571F578C572F5090ED89057
:104500006F37703771377237E82E7FEFA2F06F5137
:10451000701171117211D8B490EFA2F093EFA2F064
:10452000010E94EFA2F0000E6B6F6C6B9CEFA2F08B
:10453000000E6C6F040E6B6F12000501FD51746F5D
:10454000756B99C66BF59AC66CF5000E6E6F640EAE
:104550006D6F5AECACF0050174516B03F3C476F542
:10456000F4C477F56C03F350772775516B03F35060
:10457000772776C595F677C596F6FC51746F756BFF
:1045800097C66BF598C66CF5000E6E6F640E6D6F76
:104590005AECACF0050174516B03F3C476F5F4C426
:1045A00077F56C03F350772775516B03F35077273A
:1045B00076C591F677C592F60601915195258F6FD4
:1045C00092519621906F8F51995D90519A59D8B020
:1045D000ECEFA2F0EEEFA2F009EFA3F095C674F5B0
:1045E00096C675F5D89005017437753706018F5159
:1045F0000501745F060190510501755BEA0E742593
:104600000601936FFF0E050175210601946F0FEFF0
:10461000A3F0EA0E9525936FFF0E9621946F93C633
:1046200072F594C673F512004AC76FF54BC770F563
:104630004CC771F54DC772F515ECABF06FC57FF542
:1046400070C580F571C581F572C582F572EFA3F072
:10465000010EF1ECB4F0020EF1ECB4F030ECB7F076
:104660006BC54AF76CC54BF76DC54CF76EC54DF77A
:10467000010E576E85EFA3F0050182518111801163
:1046800009E1970E7F5DD8A048EFA3F04AEFA3F0B1
:1046900085EFA3F0010E05ECB5F0020E05ECB5F0C8
:1046A00030ECB7F06BC54AF76CC54BF76DC54CF7EE
:1046B0006EC54DF7020E576E85EFA3F005018251CE
:1046C0008111801109E1970E7F5DD8A06AEFA3F0F8
:1046D0006CEFA3F085EFA3F0030EFB6F030E576E94
:1046E00085EFA3F05750000AD8B428EFA3F0010AD1
:1046F000D8B43CEFA3F0030AD8B45EEFA3F0010AEC
:10470000D8B485EFA3F085EFA3F0120042C76FF590
:1047100043C770F544C771F545C772F515ECABF0AA
:104720006FC57FF570C580F571C581F572C582F5DD
:10473000DEEFA3F0020EF1ECB4F030ECB7F06BC595
:1047400042F76CC543F76DC544F76EC545F7010EDA
:10475000556EF1EFA3F0050182518111801109E13D
:10476000970E7F5DD8A0B7EFA3F0B9EFA3F0F1EFFC
:10477000A3F0020E05ECB5F030ECB7F06BC542F7D4
:104780006CC543F76DC544F76EC545F7020E556E0F
:10479000F1EFA3F0050182518111801109E1970E1B
:1047A0007F5DD8A0D6EFA3F0D8EFA3F0F1EFA3F090
:1047B000020EFB6F030E556EF1EFA3F05550000A89
:1047C000D8B49AEFA3F0010AD8B4ABEFA3F0030A70
:1047D000D8B4CAEFA3F0010AD8B4F1EFA3F0F1EF17
:1047E000A3F0120046C76FF547C770F548C771F5CB
:1047F00049C772F515ECABF06FC57FF570C580F554
:1048000071C581F572C582F54AEFA4F0010EF1EC95
:10481000B4F030ECB7F06BC546F76CC547F76DC523
:1048200048F76EC549F7010E566E5DEFA4F005011D
:1048300082518111801109E1970E7F5DD8A023EF8D
:10484000A4F025EFA4F05DEFA4F0010E05ECB5F0A7
:1048500030ECB7F06BC546F76CC547F76DC548F748
:104860006EC549F7020E566E5DEFA4F00501825148
:104870008111801109E1970E7F5DD8A042EFA4F06D
:1048800044EFA4F05DEFA4F0010EFB6F030E566E33
:104890005DEFA4F05650000AD8B406EFA4F0010A68
:1048A000D8B417EFA4F0030AD8B436EFA4F0010A85
:1048B000D8B45DEFA4F05DEFA4F0120033ECB8F0D3
:1048C000000E0701C26F000EC16F000EB96F000E1F
:1048D000BA6F000EBB6F000EBC6F000EBD6F000EF6
:1048E000BE6F000EBF6F000EC06F000E0801F66FA6
:1048F000000EF56F000EED6F000EEE6F000EEF6F05
:10490000000EF06F000EF16F000EF26F000EF36FED
:10491000000EF46F000E0601866F000E856F000E0C
:10492000846F000E836F050E20ECA7F0010E2DECB6
:10493000B5F0020E2DECB5F0090E05016F6F1E0EDD
:104940006E6FE40EE82EFED76E2FFCD76F2FFAD7CE
:104950000000010E19ECB5F0020E19ECB5F0010ED5
:104960000501FF6F000E07014E6F000E4F6F000E26
:10497000506F000E516F0501FB6B9AECAEF0000E0C
:104980000601826F000E816F000E806F000E7F6F38
:1049900012009C0E0601B86F070EB96F010EBA6FB8
:1049A0009A0EBB6F990EBC6F990EBD6F3E0EBE6F17
:1049B0006C0EBF6F090EC06F790EC16F3C0EC26FD7
:1049C0000A0EC36FD70EC46F230EC56F3C0EC66FA1
:1049D000000EC76F000EC86F480EC96F450ECA6F34
:1049E000000ECB6F000ECC6F000ECD6F000ECE6FA1
:1049F000000ED06F000ECF6FCFEC9BF0D00E0601F3
:104A0000B86F080EB96F020EBA6FCD0EBB6FCC0E29
:104A1000BC6F4C0EBD6F3F0EBE6F9C0EBF6F530E32
:104A2000C06F490EC16F370EC26F6F0EC36F120E8B
:104A3000C46F830EC56F3A0EC66F000EC76F000EAF
:104A4000C86F480EC96F450ECA6F000ECB6F000EBF
:104A5000CC6F000ECD6F000ECE6F000ED06F000E2B
:104A6000CF6FCFEC9BF01200050171517211D8B4D9
:104A70003CEFA5F03EEFA5F047EFA5F071517211A4
:104A8000D8A445EFA5F047EFA5F04CEFA5F06F5186
:104A900012ECB1F099EFA5F020EE09F07151D92692
:104AA0007251DA22DE50DE10D8B459EFA5F05BEF78
:104AB000A5F076EFA5F020EE09F07151D9267251DC
:104AC000DA2210EE02F07151E1267251E222DE503C
:104AD000E65CE650800A776FDE50800A7759D8B0DE
:104AE00074EFA5F076EFA5F099EFA5F020EE02F0B7
:104AF0007151D9267251DA22DEC473F5DDC474F522
:104B000071C5D9F472C5DAF4DEC475F5DDC476F585
:104B100073517525D96E74517621DA6E6FC5DFF445
:104B200020EE02F07151D9267251DA22DE2A000EEF
:104B3000DD2212002AC76FF52BC770F52CC771F55F
:104B40002DC772F515ECABF06FC581F570C582F518
:104B500071C583F572C584F5E7EFA5F08451831123
:104B6000821109E1650E815DD8A0B9EFA5F0BBEF18
:104B7000A5F0FDEFA5F029ECB8F0010E4B6E30EC7E
:104B8000B7F06BC52AF76CC52BF76DC52CF76EC552
:104B90002DF7FDEFA5F084518311821109E1650E17
:104BA000815DD8A0D6EFA5F0D8EFA5F0FDEFA5F078
:104BB0002BECB8F04B6A30ECB7F06BC52AF76CC53C
:104BC0002BF76DC52CF76EC52DF7FDEFA5F04B50FB
:104BD00005017F6F806B8051000AD8B4F2EFA5F019
:104BE000FDEFA5F07F51000AD8B4AEEFA5F0010AA1
:104BF000D8B4CBEFA5F0FDEFA5F012000501706B66
:104C00006EBF07EFA6F005EFA6F00DEFA6F06D6DF5
:104C10006E1FD8B06E2B010E706F6CBF14EFA6F034
:104C200012EFA6F01AEFA6F06B6D6C1FD8B06C2BCC
:104C3000010E701B000E726F000E716F6D516E11C0
:104C4000D8B425EFA6F027EFA6F04FEFA6F0010E9F
:104C50006F6F2FEFA6F0D8906D376E376F2B6EAF5A
:104C600034EFA6F036EFA6F02BEFA6F0D890713710
:104C700072376D516B5D6E516C59D8A042EFA6F042
:104C800044EFA6F049EFA6F06D516B5F6E516C5B7F
:104C90007181D8906E336D336F2F36EFA6F070515F
:104CA000D8B455EFA6F057EFA6F05BEFA6F0716D04
:104CB000721FD8B0722B71C56BF572C56CF51200FE
:104CC000BE6A860EBF6EC06AC16A040EC26E400E16
:104CD000C36E0401026B060E0A6F126B1A6B226B15
:104CE0002A6BFB0EC66EA00EC76E080EC86E020EB3
:104CF000C96E080ECA6ECB6AFB0E006F290E086FD4
:104D0000106B186B206B286B016B800E096F116B99
:104D1000196B216B296B03690B6913691B69070EFA
:104D2000236F2B6904690C6914691C690F0E246FC9
:104D30002C690201896B886B876B866B190E746F07
:104D4000130E726F230E196F1C0E0C6F1A0E096F63
:104D5000200E136F090E716F370E0A6F0A0E706FF7
:104D6000380E0B6F0401056B066B076B0D6B0E6B3A
:104D70000F6B156B166B176B256B266B276B120071
:104D8000D8C426F5E8ECB6F00009D8B4CAEFA6F00E
:104D9000CCEFA6F0D4EFA6F0030E3E6E0201979B77
:104DA0008AECB2F01CEFA7F0F3ECB6F00009D8B42F
:104DB000DCEFA6F0DEEFA6F0F0EFA6F0C7ECB6F061
:104DC0000009D8B4E6EFA6F0E8EFA6F0F0EFA6F001
:104DD000010E3E6E020197998EECB5F01CEFA7F024
:104DE000D2ECB6F00009D8B4F8EFA6F0FAEFA6F0CE
:104DF0000AEFA7F0C7ECB6F00009D8B402EFA7F0AD
:104E000004EFA7F00AEFA7F0020E3E6E0201979999
:104E1000ECEFA6F0DDECB6F00009D8B412EFA7F085
:104E200014EFA7F01AEFA7F0030E3E6E0201979D54
:104E30001CEFA7F0020197993E5026C5D8F4110047
:104E400005016D6F05016D05D8A429EFA7F02BEFC3
:104E5000A7F035EFA7F0000E6C6F000E6B6F9CECA7
:104E6000B7F031ECB8F07AEFA7F0020E6D19D8A4C4
:104E70003CEFA7F03EEFA7F048EFA7F0000E6C6FF5
:104E8000000E6B6F96ECB7F02FECB8F07AEFA7F04E
:104E9000020E6D19D8A44FEFA7F051EFA7F053EF12
:104EA000A7F07AEFA7F0020E6D19D8A45AEFA7F079
:104EB0005CEFA7F05EEFA7F07AEFA7F0050E6D1993
:104EC000D8A465EFA7F067EFA7F07AEFA7F0000E80
:104ED0006C6F000E6B6F9CECB7F031ECB8F0000E0D
:104EE00005016C6F000E6B6F96ECB7F02FECB8F00D
:104EF0007AEFA7F01200050120EE40F06B51D926A1
:104F00006C51DA22DF506D6F0F0E6D1720EE40F0FE
:104F10006B51D9266C51DA22DF506E6F6E390F0B50
:104F20000A0DF3506D25716F20EE41F06B51D926BB
:104F30006C51DA22DF506D6F0F0E6D1720EE41F0CD
:104F40006B51D9266C51DA22DF506E6F6E390F0B20
:104F50000A0DF3506D25726F7151640DF3C46DF538
:104F6000F4C46EF572516D250601F26F0501000E55
:104F70006E210601F36FE80E05016D6F030E6E6F73
:104F80006D510601F203F3C46FF5F4C470F5F30339
:104F9000F350050170276E510601F2030501F3502D
:104FA00070276FC5F2F670C5F3F61200FAC401F56A
:104FB000FBC402F5B39E77A0E0EFA7F0E2EFA7F005
:104FC00004EFA8F076A0E7EFA7F0E9EFA7F004EF71
:104FD000A8F076900601515152115311D8B4F3EF55
:104FE000A7F0F5EFA7F02BEFA8F002D802EFA8F09A
:104FF0000500FA6E5151FD6E5251FE6E5351FF6E17
:10500000FA5012002BEFA8F077A209EFA8F00BEFEF
:10501000A8F02BEFA8F076A210EFA8F012EFA8F0FE
:105020002BEFA8F0769206014E514F115011D8B4D3
:105030001CEFA8F01EEFA8F02BEFA8F002D82BEF82
:10504000A8F00500FA6E4E51FD6E4F51FE6E5051A4
:10505000FF6EFA50120002C5FBF401C5FAF411000C
:10506000FAC405F5FBC406F5B59E86A03AEFA8F094
:105070003CEFA8F05EEFA8F085A041EFA8F043EF69
:10508000A8F05EEFA8F085900601485149114A1139
:10509000D8B44DEFA8F04FEFA8F085EFA8F002D8F4
:1050A0005CEFA8F00500FA6E4851FD6E4951FE6EA6
:1050B0004A51FF6EFA50120085EFA8F086A263EF06
:1050C000A8F065EFA8F085EFA8F085A26AEFA8F038
:1050D0006CEFA8F085EFA8F08592060145514611C6
:1050E0004711D8B476EFA8F078EFA8F085EFA8F0D4
:1050F00002D885EFA8F00500FA6E4551FD6E4651C5
:10510000FE6E4751FF6EFA50120006C5FBF405C54E
