:0430000081EF18F054
:10300800F539F539F539F539400CF539400CF5390C
:103018002939F539EF39F539F539F539F539F5390A
:10302800F039400C400C400CF539F539F539F539D3
:10303800F539F539F539D936D935F539F539C83687
:103048005C39E539F539F539400C400CF539F53975
:10305800F539F539F539400CF539F539A6368730A3
:103068002F39F539F539F539F539F539F539F539AE
:1030780008390F3956322930400CF539B736B43093
:10308800F539F539F539F539F539F539F539F539C8
:10309800F539F539F539F539400CF539400C400C5E
:1030A8003539F539F539F539F539F539F539F53968
:1030B800F539F539F5392736F539F539F539F53969
:1030C800F539F539F539F539F539F539F539F53988
:1030D800F539F539F539F539F539F539F539F53978
:1030E800400CF539F539F539400C400C400C400CD2
:1030F800F539F539F539F539FF00DCEF56F0000000
:10310800C0C101C30302C2C60607C705C5C404CCB3
:103118000C0DCD0FCFCE0E0ACACB0BC90908C8D8E3
:103128001819D91BDBDA1A1EDEDF1FDD1D1CDC14A3
:10313800D4D515D71716D6D21213D311D1D010F073
:103148003031F133F3F23236F6F737F53534F43CF3
:10315800FCFD3DFF3F3EFEFA3A3BFB39F9F83828C3
:10316800E8E929EB2B2AEAEE2E2FEF2DEDEC2CE4E3
:103178002425E527E7E62622E2E323E12120E0A053
:103188006061A163A3A26266A6A767A56564A46C33
:10319800ACAD6DAF6F6EAEAA6A6BAB69A9A8687863
:1031A800B8B979BB7B7ABABE7E7FBF7DBDBC7CB423
:1031B8007475B577B7B67672B2B373B17170B05033
:1031C8009091519353529296565797559594549C73
:1031D8005C5D9D5F9F9E5E5A9A9B5B995958988843
:1031E8004849894B8B8A4A4E8E8F4F8D4D4C8C4463
:1031F80084854587474686824243834181804000D3
:10320800C1814001C0804101C0804100C1814001AD
:10321800C0804100C1814000C1814001C08041019E
:10322800C0804100C1814000C1814001C08041008F
:10323800C1814001C0804101C0804100C18140017D
:10324800C0804100C1814000C1814001C08041006F
:10325800C1814001C0804101C0804100C18140005E
:10326800C1814001C0804101C0804100C18140014D
:10327800C0804100C1814000C1814001C08041013E
:10328800C0804100C1814000C1814001C08041002F
:10329800C1814001C0804101C0804100C18140001E
:1032A800C1814001C0804101C0804100C18140010D
:1032B800C0804100C1814000C1814001C0804100FF
:1032C800C1814001C0804101C0804100C1814001ED
:1032D800C0804100C1814000C1814001C0804101DE
:1032E800C0804100C1814000C1814001C0804100CF
:1032F800C1814001C0804101C0804100C1814000BE
:10330800C0C101C30302C2C60607C705C5C404CCB1
:103318000C0DCD0FCFCE0E0ACACB0BC90908C8D8E1
:103328001819D91BDBDA1A1EDEDF1FDD1D1CDC14A1
:10333800D4D515D71716D6D21213D311D1D010F071
:103348003031F133F3F23236F6F737F53534F43CF1
:10335800FCFD3DFF3F3EFEFA3A3BFB39F9F83828C1
:10336800E8E929EB2B2AEAEE2E2FEF2DEDEC2CE4E1
:103378002425E527E7E62622E2E323E12120E0A051
:103388006061A163A3A26266A6A767A56564A46C31
:10339800ACAD6DAF6F6EAEAA6A6BAB69A9A8687861
:1033A800B8B979BB7B7ABABE7E7FBF7DBDBC7CB421
:1033B8007475B577B7B67672B2B373B17170B05031
:1033C8009091519353529296565797559594549C71
:1033D8005C5D9D5F9F9E5E5A9A9B5B995958988841
:1033E8004849894B8B8A4A4E8E8F4F8D4D4C8C4461
:1033F80084854587474686824243834181804000D1
:10340800C1814001C0804101C0804100C1814001AB
:10341800C0804100C1814000C1814001C08041019C
:10342800C0804100C1814000C1814001C08041008D
:10343800C1814001C0804101C0804100C18140017B
:10344800C0804100C1814000C1814001C08041006D
:10345800C1814001C0804101C0804100C18140005C
:10346800C1814001C0804101C0804100C18140014B
:10347800C0804100C1814000C1814001C08041013C
:10348800C0804100C1814000C1814001C08041002D
:10349800C1814001C0804101C0804100C18140001C
:1034A800C1814001C0804101C0804100C18140010B
:1034B800C0804100C1814000C1814001C0804100FD
:1034C800C1814001C0804101C0804100C1814001EB
:1034D800C0804100C1814000C1814001C0804101DC
:1034E800C0804100C1814000C1814001C0804100CD
:1034F800C1814001C0804101C0804100C1814000BC
:10350800C0C101C30302C2C60607C705C5C404CCAF
:103518000C0DCD0FCFCE0E0ACACB0BC90908C8D8DF
:103528001819D91BDBDA1A1EDEDF1FDD1D1CDC149F
:10353800D4D515D71716D6D21213D311D1D010F06F
:103548003031F133F3F23236F6F737F53534F43CEF
:10355800FCFD3DFF3F3EFEFA3A3BFB39F9F83828BF
:10356800E8E929EB2B2AEAEE2E2FEF2DEDEC2CE4DF
:103578002425E527E7E62622E2E323E12120E0A04F
:103588006061A163A3A26266A6A767A56564A46C2F
:10359800ACAD6DAF6F6EAEAA6A6BAB69A9A868785F
:1035A800B8B979BB7B7ABABE7E7FBF7DBDBC7CB41F
:1035B8007475B577B7B67672B2B373B17170B0502F
:1035C8009091519353529296565797559594549C6F
:1035D8005C5D9D5F9F9E5E5A9A9B5B99595898883F
:1035E8004849894B8B8A4A4E8E8F4F8D4D4C8C445F
:1035F80084854587474686824243834181804000CF
:10360800C1814001C0804101C0804100C1814001A9
:10361800C0804100C1814000C1814001C08041019A
:10362800C0804100C1814000C1814001C08041008B
:10363800C1814001C0804101C0804100C181400179
:10364800C0804100C1814000C1814001C08041006B
:10365800C1814001C0804101C0804100C18140005A
:10366800C1814001C0804101C0804100C181400149
:10367800C0804100C1814000C1814001C08041013A
:10368800C0804100C1814000C1814001C08041002B
:10369800C1814001C0804101C0804100C18140001A
:1036A800C1814001C0804101C0804100C181400109
:1036B800C0804100C1814000C1814001C0804100FB
:1036C800C1814001C0804101C0804100C1814001E9
:1036D800C0804100C1814000C1814001C0804101DA
:1036E800C0804100C1814000C1814001C0804100CB
:1036F800C1814001C0804101C0804100C1814000BA
:10370800C0C101C30302C2C60607C705C5C404CCAD
:103718000C0DCD0FCFCE0E0ACACB0BC90908C8D8DD
:103728001819D91BDBDA1A1EDEDF1FDD1D1CDC149D
:10373800D4D515D71716D6D21213D311D1D010F06D
:103748003031F133F3F23236F6F737F53534F43CED
:10375800FCFD3DFF3F3EFEFA3A3BFB39F9F83828BD
:10376800E8E929EB2B2AEAEE2E2FEF2DEDEC2CE4DD
:103778002425E527E7E62622E2E323E12120E0A04D
:103788006061A163A3A26266A6A767A56564A46C2D
:10379800ACAD6DAF6F6EAEAA6A6BAB69A9A868785D
:1037A800B8B979BB7B7ABABE7E7FBF7DBDBC7CB41D
:1037B8007475B577B7B67672B2B373B17170B0502D
:1037C8009091519353529296565797559594549C6D
:1037D8005C5D9D5F9F9E5E5A9A9B5B99595898883D
:1037E8004849894B8B8A4A4E8E8F4F8D4D4C8C445D
:1037F80084854587474686824243834181804000CD
:10380800C1814001C0804101C0804100C1814001A7
:10381800C0804100C1814000C1814001C080410198
:10382800C0804100C1814000C1814001C080410089
:10383800C1814001C0804101C0804100C181400177
:10384800C0804100C1814000C1814001C080410069
:10385800C1814001C0804101C0804100C181400058
:10386800C1814001C0804101C0804100C181400147
:10387800C0804100C1814000C1814001C080410138
:10388800C0804100C1814000C1814001C080410029
:10389800C1814001C0804101C0804100C181400018
:1038A800C1814001C0804101C0804100C181400107
:1038B800C0804100C1814000C1814001C0804100F9
:1038C800C1814001C0804101C0804100C1814001E7
:1038D800C0804100C1814000C1814001C0804101D8
:1038E800C0804100C1814000C1814001C0804100C9
:1038F800C1814001C0804101C0804100C1814000B8
:10390800C0C101C30302C2C60607C705C5C404CCAB
:103918000C0DCD0FCFCE0E0ACACB0BC90908C8D8DB
:103928001819D91BDBDA1A1EDEDF1FDD1D1CDC149B
:10393800D4D515D71716D6D21213D311D1D010F06B
:103948003031F133F3F23236F6F737F53534F43CEB
:10395800FCFD3DFF3F3EFEFA3A3BFB39F9F83828BB
:10396800E8E929EB2B2AEAEE2E2FEF2DEDEC2CE4DB
:103978002425E527E7E62622E2E323E12120E0A04B
:103988006061A163A3A26266A6A767A56564A46C2B
:10399800ACAD6DAF6F6EAEAA6A6BAB69A9A868785B
:1039A800B8B979BB7B7ABABE7E7FBF7DBDBC7CB41B
:1039B8007475B577B7B67672B2B373B17170B0502B
:1039C8009091519353529296565797559594549C6B
:1039D8005C5D9D5F9F9E5E5A9A9B5B99595898883B
:1039E8004849894B8B8A4A4E8E8F4F8D4D4C8C445B
:1039F80084854587474686824243834181804000CB
:103A0800C1814001C0804101C0804100C1814001A5
:103A1800C0804100C1814000C1814001C080410196
:103A2800C0804100C1814000C1814001C080410087
:103A3800C1814001C0804101C0804100C181400175
:103A4800C0804100C1814000C1814001C080410067
:103A5800C1814001C0804101C0804100C181400056
:103A6800C1814001C0804101C0804100C181400145
:103A7800C0804100C1814000C1814001C080410136
:103A8800C0804100C1814000C1814001C080410027
:103A9800C1814001C0804101C0804100C181400016
:103AA800C1814001C0804101C0804100C181400105
:103AB800C0804100C1814000C1814001C0804100F7
:103AC800C1814001C0804101C0804100C1814001E5
:103AD800C0804100C1814000C1814001C0804101D6
:103AE800C0804100C1814000C1814001C0804100C7
:103AF800C1814001C0804101C0804100C1814000B6
:103B0800C0C101C30302C2C60607C705C5C404CCA9
:103B18000C0DCD0FCFCE0E0ACACB0BC90908C8D8D9
:103B28001819D91BDBDA1A1EDEDF1FDD1D1CDC1499
:103B3800D4D515D71716D6D21213D311D1D010F069
:103B48003031F133F3F23236F6F737F53534F43CE9
:103B5800FCFD3DFF3F3EFEFA3A3BFB39F9F83828B9
:103B6800E8E929EB2B2AEAEE2E2FEF2DEDEC2CE4D9
:103B78002425E527E7E62622E2E323E12120E0A049
:103B88006061A163A3A26266A6A767A56564A46C29
:103B9800ACAD6DAF6F6EAEAA6A6BAB69A9A8687859
:103BA800B8B979BB7B7ABABE7E7FBF7DBDBC7CB419
:103BB8007475B577B7B67672B2B373B17170B05029
:103BC8009091519353529296565797559594549C69
:103BD8005C5D9D5F9F9E5E5A9A9B5B995958988839
:103BE8004849894B8B8A4A4E8E8F4F8D4D4C8C4459
:103BF80084854587474686824243834181804000C9
:103C0800C1814001C0804101C0804100C1814001A3
:103C1800C0804100C1814000C1814001C080410194
:103C2800C0804100C1814000C1814001C080410085
:103C3800C1814001C0804101C0804100C181400173
:103C4800C0804100C1814000C1814001C080410065
:103C5800C1814001C0804101C0804100C181400054
:103C6800C1814001C0804101C0804100C181400143
:103C7800C0804100C1814000C1814001C080410134
:103C8800C0804100C1814000C1814001C080410025
:103C9800C1814001C0804101C0804100C181400014
:103CA800C1814001C0804101C0804100C181400103
:103CB800C0804100C1814000C1814001C0804100F5
:103CC800C1814001C0804101C0804100C1814001E3
:103CD800C0804100C1814000C1814001C0804101D4
:103CE800C0804100C1814000C1814001C0804100C5
:103CF800C1814001C0804101C0804100C18140E2D2
:103D0800C60000000050DF0002D8000000008AE46E
:103D1800000000000000000000000000000000009B
:103D2800000000000000000000000000000000008B
:103D3800000000000072E3000000004EE3002AE3E8
:103D48000006E300000000C0D6000000006ED400AA
:103D5800C6D400000000000000000000AAE0000037
:103D68000000000000269E783EEEE9913E13CECC7E
:103D78003EAAAA2A3FD1F717378071313F2D2D2D42
:103D88002D2D2D2D2D2D2D2D2D2D2D2D2D2D2D2D5B
:103D98002D2D2D2D2D2D2D2D2D2D2D2D2D2D2D2D4B
:103DA8002D0A0A004348317C493A252E32667C5652
:103DB8003A252E32667C503A252E32667C50574D75
:103DC8003A25647C0A0D004348327C493A252E3254
:103DD800667C563A252E32667C503A252E32667C11
:103DE80050574D3A25647C0A0D00B5B1C7B0D4CB05
:103DF800D0D03A202575D0A1CAB12575B7D6D6D36B
:103E08002575C3EB0A0053503A252E32667C4C6563
:103E180076313A25647C4C6576323A25647C0A0D05
:103E28000050726F73746174653A25647C0A0D00E2
:103E380050726F746570793A25647C0A0D00546578
:103E48006D703A252E32667C0A0D0056696E3A2549
:103E5800647C0A0D002530325800696E66006E6178
:053E68006E00200000C7
:103E6E000601526B2AC653F62BC654F62CC655F6CF
:103E7E002DC656F656BF48EF1FF046EF1FF05CEF0B
:103E8E001FF0010E526F53C664F554C665F555C644
:103E9E0066F556C667F58EEC6EF064C553F665C5CD
:103EAE0054F666C555F667C556F6000E0601586FF0
:103EBE00000E576FD6C646F6D7C647F65251D8B43F
:103ECE006BEF1FF06DEF1FF081EF1FF05251D8A472
:103EDE0073EF1FF075EF1FF07BEF1FF0000E386FC2
:103EEE002B0E376F7FEF1FF0000E386F2D0E376FD2
:103EFE0037C652F653C664F554C665F555C666F513
:103F0E0056C667F585EC59F0050164056511D8A410
:103F1E0093EF1FF095EF1FF0CCEF1FF006015251FB
:103F2E00D8B49CEF1FF09EEF1FF0A7EF1FF052C604
:103F3E0086F94607D8A04707000E586F010E576F37
:103F4E00860E57250501646F090E060158210501DD
:103F5E00656F620E666F3E0E676F14EC6EF00601B3
:103F6E00FD0E4627FF0E472328C678F529C679F59C
:103F7E00860E05017A6F090E7B6F46C67CF547C625
:103F8E007DF51EEC63F096EF24F053C664F554C62F
:103F9E0065F555C666F556C667F585EC59F005010B
:103FAE0064516511D8A4DEEF1FF0E0EF1FF003EFB0
:103FBE0020F006015251D8B4E7EF1FF0E9EF1FF0E1
:103FCE00F2EF1FF052C686F94607D8A04707000E3B
:103FDE00586F010E576F860E57250501646F090E37
:103FEE00060158210501656F660E666F3E0E676FFE
:103FFE0014EC6EF0B6EF1FF0000E0601596F000EB6
:10400E005A6F800E5B6F3F0E5C6F000E416F000E9D
:10401E00406F53C664F554C665F555C666F556C66B
:10402E0067F5000E0501686F000E696F000E6A6F6E
:10403E00000E6B6F72EC62F00501D8B029EF20F024
:10404E002BEF20F025EF21F038EF20F042C659F685
:10405E0043C65AF644C65BF645C65CF60601404BAF
:10406E00412B59C6A7F55AC6A8F55BC6A9F55CC67D
:10407E00AAF5000E0501AB6F000EAC6F200EAD6FF2
:10408E00410EAE6FD9EC33F0A7C542F6A8C543F684
:10409E00A9C544F6AAC545F606014251535D050170
:1040AE00646F0601435154590501656F0601445171
:1040BE0055590501666F0601455156590501676F41
:1040CE000BEC6AF0050167BF78EF20F067516611BF
:1040DE00651109E1020E645DD8A078EF20F07AEF49
:1040EE0020F02DEF20F042C60CF643C60DF644C666
:1040FE000EF645C60FF653C610F654C611F655C643
:10410E0012F656C613F64FEC52F00601D8A092EFF7
:10411E0020F094EF20F02DEF20F05951535D050162
:10412E00646F06015A5154590501656F06015B51C2
:10413E0055590501666F06015C5156590501676FA9
:10414E000BEC6AF0050167BFBAEF20F067516611FC
:10415E00651107E1020E645DD8B0B8EF20F0BAEF3A
:10416E0020F00BEF21F059C653F65AC654F65BC633
:10417E0055F65CC656F625EF21F059C6C0F55AC65F
:10418E00C1F55BC6C2F55CC6C3F5000E0501C46F72
:10419E00000EC56F200EC66F410EC76FC6EC39F00C
:1041AE00C0C559F6C1C55AF6C2C55BF6C3C55CF6A5
:1041BE0006014007D8A041075951535D0501646FB0
:1041CE0006015A5154590501656F06015B51555947
:1041DE000501666F06015C5156590501676F0BECC0
:1041EE006AF0050167BF09EF21F06751661165118D
:1041FE0007E1020E645DD8B007EF21F009EF21F060
:10420E000BEF21F0BAEF20F053C60CF654C60DF6A4
:10421E0055C60EF656C60FF659C610F65AC611F604
:10422E005BC612F65CC613F64FEC52F00601D8A030
:10423E0023EF21F025EF21F0C4EF20F02EC63AF641
:10424E003AC63BF60601D9BF2FEF21F031EF21F030
:10425E0037EF21F0D8C633F6D9C634F63BEF21F04E
:10426E00000E346F060E336F33C63EF634C63FF67D
:10427E003E4B3F2B660E3B19D8A448EF21F04AEF78
:10428E0021F06AEF21F041BF51EF21F04FEF21F005
:10429E005DEF21F0000E596F000E5A6F800E5B6FAE
:1042AE003F0E5C6F000E416F000E406F670E3A19A5
:1042BE00D8B464EF21F066EF21F06AEF21F040519F
:1042CE003E2741513F23000E516F000E506F53C6D3
:1042DE0048F654C649F655C64AF656C64BF659C662
:1042EE0042F65AC643F65BC644F65CC645F6FCEF8C
:1042FE0021F048C6C0F549C6C1F54AC6C2F54BC63F
:10430E00C3F559C6C4F55AC6C5F55BC6C6F55CC637
:10431E00C7F5C6EC39F0C0C5D9F5C1C5DAF5C2C5C9
:10432E00DBF5C3C5DCF5E2EC43F0D9C54CF6DAC5D6
:10433E004DF6DBC54EF6DCC54FF64CC624F64DC623
:10434E0025F64EC626F64FC627F64FEC56F024C677
:10435E003CF625C63DF648C600F649C601F64AC6E5
:10436E0002F64BC603F64CC6ABF54DC6ACF54EC6C3
:10437E00ADF54FC6AEF559C6A7F55AC6A8F55BC63C
:10438E00A9F55CC6AAF5D9EC33F0A7C504F6A8C505
:10439E0005F6A9C506F6AAC507F6BDEC6CF000C673
:1043AE0048F601C649F602C64AF603C64BF659C68A
:1043BE00C0F55AC6C1F55BC6C2F55CC6C3F5000EA4
:1043CE000501C46F000EC56F200EC66F410EC76F7C
:1043DE00C6EC39F0C0C559F6C1C55AF6C2C55BF672
:1043EE00C3C55CF60601504B512B3E51505D5151E9
:1043FE00800A2F6F3F51800A2F59D8A009EF22F063
:10440E000BEF22F080EF21F059C6A7F55AC6A8F59A
:10441E005BC6A9F55CC6AAF5000E0501AB6F000ED2
:10442E00AC6FA00EAD6F400EAE6FD9EC33F0A7C5DA
:10443E004CF6A8C54DF6A9C54EF6AAC54FF648C608
:10444E000CF649C60DF64AC60EF64BC60FF64CC60E
:10445E0010F64DC611F64EC612F64FC613F64FECB9
:10446E0052F00601D8B03EEF22F040EF22F04AEFB4
:10447E0022F0000E4C6F000E4D6F000E4E6F000EB0
:10448E004F6F74EF22F048C664F549C665F54AC60B
:10449E0066F54BC667F54CC668F54DC669F54EC652
:1044AE006AF54FC66BF572EC62F00501D8A062EFAB
:1044BE0022F064EF22F074EF22F006013CB16AEFB5
:1044CE0022F06CEF22F074EF22F0000E4C6F000E13
:1044DE004D6F000E4E6F000E4F6F53C6D9F554C67A
:1044EE00DAF555C6DBF556C6DCF54CC6DDF54DC620
:1044FE00DEF54EC6DFF54FC6E0F5FCEC2CF0D9C567
:10450E0048F6DAC549F6DBC54AF6DCC54BF648C6B1
:10451E000CF649C60DF64AC60EF64BC60FF6000E41
:10452E000501AB6F000EAC6F200EAD6F410EAE6F7E
:10453E0042C6A7F543C6A8F544C6A9F545C6AAF5D1
:10454E00D9EC33F0A7C510F6A8C511F6A9C512F619
:10455E00AAC513F64FEC52F00601D8A0B9EF22F01F
:10456E00BBEF22F0E4EF22F0404B412B42C6A7F501
:10457E0043C6A8F544C6A9F545C6AAF5000E050121
:10458E00AB6F000EAC6F200EAD6F410EAE6FD9EC5F
:10459E0033F0A7C542F6A8C543F6A9C544F6AAC589
:1045AE0045F6660E06013B19D8A4E0EF22F0E2EFC5
:1045BE0022F0E4EF22F03E4B3F2B42C659F643C6A3
:1045CE005AF644C65BF645C65CF640C631F641C6A1
:1045DE0032F6396B000E366F000E356F000E516FCE
:1045EE00000E506FE1EF23F048C6C0F549C6C1F585
:1045FE004AC6C2F54BC6C3F559C6C4F55AC6C5F56B
:10460E005BC6C6F55CC6C7F5C6EC39F0C0C5D9F5B4
:10461E00C1C5DAF5C2C5DBF5C3C5DCF5E2EC43F086
:10462E00D9C54CF6DAC54DF6DBC54EF6DCC54FF6F0
:10463E004CC624F64DC625F64EC626F64FC627F6B0
:10464E004FEC56F0060125BF38EF23F0255107E158
:10465E000A0E245DD8B036EF23F038EF23F048EF82
:10466E0023F04CC624F64DC625F64EC626F64FC68A
:10467E0027F64FEC56F024C63CF625C63DF64CEF19
:10468E0023F0000E3D6F090E3C6F06013951D8A480
:10469E0053EF23F055EF23F07DEF23F032BF5CEFA5
:1046AE0023F05AEF23F07DEF23F0860E5725D96EB7
:1046BE00090E5821DA6E2E0EDF6E574B582B460719
:1046CE00D8A04707010E396F7DEF23F0860E5725D0
:1046DE00D96E090E5821DA6E300EDF6E574B582BFD
:1046EE004607D8A047073507D8A0360735513611EB
:1046FE00D8A484EF23F086EF23F06DEF23F0860E1F
:10470E005725D96E090E5821DA6E3C51300FDF6EE7
:10471E00574B582B4607D8A0470748C600F649C640
:10472E0001F64AC602F64BC603F64CC6ABF54DC6AD
:10473E00ACF54EC6ADF54FC6AEF559C6A7F55AC681
:10474E00A8F55BC6A9F55CC6AAF5D9EC33F0A7C5EA
:10475E0004F6A8C505F6A9C506F6AAC507F6BDEC6A
:10476E006CF000C648F601C649F602C64AF603C604
:10477E004BF659C6C0F55AC6C1F55BC6C2F55CC646
:10478E00C3F5000E0501C46F000EC56F200EC66F77
:10479E00410EC76FC6EC39F0C0C559F6C1C55AF601
:1047AE00C2C55BF6C3C55CF606013107D8A0320759
:1047BE00504B512B3E51505D5151800A2F6F3F513E
:1047CE00800A2F59D8B0EEEF23F0F0EF23F0FEEF72
:1047DE0023F058BFFCEF23F0585109E14B0E575D03
:1047EE00D8A0FCEF23F0FEEF23F0FBEF22F0000E3B
:1047FE00516F4F0E506F860E5025D96E090E5121F6
:10480E00DA6EDF6A860E2F6F090E306F57512F5FEB
:10481E005851305B50512F250501646F06015151DF
:10482E0030210501656F860E666F090E676F57C6DC
:10483E0068F558C669F5E5EC6AF006015751505D0A
:10484E00576F58515159586F5251D8A431EF24F027
:10485E0034EF24F0010E35EF24F0000E506F516B43
:10486E00E0A33CEF24F03EEF24F06CEF24F04EEF8B
:10487E0024F05707D8A05807860E5725D96E090E73
:10488E005821DA6E300EDF6E4607D8A04707465124
:10489E00505D5151800A2F6F4751800A2F59D8B061
:1048AE005BEF24F05DEF24F06CEF24F05751505D78
:1048BE005151800A2F6F5851800A2F59D8A06AEF94
:1048CE0024F06CEF24F040EF24F05251D8B472EF84
:1048DE0024F074EF24F07FEF24F05707D8A0580788
:1048EE00860E5725D96E090E5821DA6E52C6DFF4A0
:1048FE005051465F5151475B28C678F529C679F568
:10490E00860E572505017A6F090E060158210501FD
:10491E007B6F46C67CF547C67DF51EEC63F0120034
:10492E002AC600F62BC601F62CC602F62DC603F6D5
:10493E002EC604F62FC605F630C606F631C607F6A5
:10494E00BDEC6CF000C656F601C657F602C658F618
:10495E0003C659F656C608F657C609F658C60AF6DD
:10496E0059C60BF673EC6FF008C65AF609C65BF61D
:10497E000AC65CF60BC65DF656C608F657C609F6AD
:10498E0058C60AF659C60BF673EC6FF008C60CF64D
:10499E0009C60DF60AC60EF60BC60FF6000E060178
:1049AE00106F000E116F800E126F3F0E136F4FECD3
:1049BE0052F00601D8B0E6EF24F0E8EF24F0F0EF65
:1049CE0024F0000E566F000E576F000E586F000E3B
:1049DE00596F20EE05F02851D9262951DA22DEC46E
:1049EE0052F6DEC453F6DEC454F6DEC455F6000E9F
:1049FE000C6F000E0D6F480E0E6F420E0F6F5AC6E3
:104A0E0010F65BC611F65CC612F65DC613F64FECD9
:104A1E0052F00601D8B016EF25F018EF25F035EF5D
:104A2E0025F052C6A7F553C6A8F554C6A9F555C626
:104A3E00AAF5CD0E0501AB6FCC0EAC6FCC0EAD6FE3
:104A4E003D0EAE6FD9EC33F0A7C552F6A8C553F69E
:104A5E00A9C554F6AAC555F6A1EF25F0000E0C6FA8
:104A6E00000E0D6FA00E0E6F410E0F6F5AC610F690
:104A7E005BC611F65CC612F65DC613F64FEC52F02D
:104A8E000601D8B04DEF25F04FEF25F06CEF25F075
:104A9E0052C6A7F553C6A8F554C6A9F555C6AAF52C
:104AAE009A0E0501AB6F990EAC6F990EAD6F3E0E5F
:104ABE00AE6FD9EC33F0A7C552F6A8C553F6A9C50B
:104ACE0054F6AAC555F6A1EF25F05AC60CF65BC6EC
:104ADE000DF65CC60EF65DC60FF6000E106F000EDC
:104AEE00116FA00E126F400E136F4FEC52F00601B5
:104AFE00D8B084EF25F086EF25F0A1EF25F052C651
:104B0E00A7F553C6A8F554C6A9F555C6AAF5000EC5
:104B1E000501AB6F000EAC6F000EAD6F400EAE6FA9
:104B2E00D9EC33F0A7C552F6A8C553F6A9C554F66D
:104B3E00AAC555F6060120EE01F02851D9262951B5
:104B4E00DA22DEC4A7F5DEC4A8F5DEC4A9F5DEC4FC
:104B5E00AAF556C6ABF557C6ACF558C6ADF559C64F
:104B6E00AEF5D9EC33F0A7C532F6A8C533F6A9C514
:104B7E0034F6AAC535F65AC60CF65BC60DF65CC6FB
:104B8E000EF65DC60FF6000E0601106F000E116FC9
:104B9E00480E126F420E136F4FEC52F00601D8B052
:104BAE00DBEF25F0DDEF25F0BCEF27F056C65EF605
:104BBE0057C65FF658C660F659C661F6000E0C6F02
:104BCE00000E0D6FF00E0E6F410E0F6F5AC610F6DF
:104BDE005BC611F65CC612F65DC613F64FEC52F0CC
:104BEE000601D8B0FDEF25F0FFEF25F045EF26F0DA
:104BFE00000E0C6F000E0D6F200E0E6F420E0F6F1B
:104C0E005EC610F65FC611F660C612F661C613F6E2
:104C1E004FEC52F00601D8B017EF26F019EF26F040
:104C2E0021EF26F0000E5E6F000E5F6F200E606F9C
:104C3E00420E616F5EC60CF65FC60DF660C60EF6CE
:104C4E0061C60FF6000E106F000E116F200E126F60
:104C5E00C20E136F4FEC52F00601D8B039EF26F0AA
:104C6E003BEF26F018EF27F0000E5E6F000E5F6F21
:104C7E00200E606FC20E616F18EF27F0000E0C6FE2
:104C8E00000E0D6F200E0E6F410E0F6F5AC610F6EE
:104C9E005BC611F65CC612F65DC613F64FEC52F00B
:104CAE000601D8B05DEF26F05FEF26F0D4EF26F0C8
:104CBE005AC6A7F55BC6A8F55CC6A9F55DC6AAF5EA
:104CCE00CD0E0501AB6FCC0EAC6F4C0EAD6F3F0E23
:104CDE00AE6FD9EC33F0A7C54AF6A8C54BF6A9C5F9
:104CEE004CF6AAC54DF64AC60CF64BC60DF64CC68A
:104CFE000EF64DC60FF65EC610F65FC611F660C60E
:104D0E0012F661C613F64FEC52F00601D8B092EFD0
:104D1E0026F094EF26F09CEF26F04AC65EF64BC6C0
:104D2E005FF64CC660F64DC661F65EC60CF65FC603
:104D3E000DF660C60EF661C60FF64AC664F54BC692
:104D4E0065F54CC666F54DC667F58EEC6EF064C51E
:104D5E0010F665C511F666C512F667C513F64FEC6B
:104D6E0052F00601D8B0BEEF26F0C0EF26F018EFD5
:104D7E0027F04AC664F54BC665F54CC666F54DC6BA
:104D8E0067F58EEC6EF064C55EF665C55FF666C5BA
:104D9E0060F667C561F618EF27F0000E0C6F000E77
:104DAE000D6FA00E0E6F400E0F6F5EC610F65FC633
:104DBE0011F660C612F661C613F64FEC52F00601FC
:104DCE00D8B0ECEF26F0EEEF26F0F6EF26F0000E60
:104DDE005E6F000E5F6FA00E606F400E616F5EC65D
:104DEE000CF65FC60DF660C60EF661C60FF6000E27
:104DFE00106F000E116FA00E126FC00E136F4FECDE
:104E0E0052F00601D8B00EEF27F010EF27F018EF92
:104E1E0027F0000E5E6F000E5F6FA00E606FC00E6B
:104E2E00616F5EC6A7F55FC6A8F560C6A9F561C637
:104E3E00AAF5060120EE05F02851D9262951DA22CD
:104E4E00DEC4C4F5DEC4C5F5DEC4C6F5DEC4C7F5E2
:104E5E0052C6C0F553C6C1F554C6C2F555C6C3F504
:104E6E00C6EC39F0C0C5ABF5C1C5ACF5C2C5ADF5E4
:104E7E00C3C5AEF5D9EC33F0A7C55EF6A8C55FF68F
:104E8E00A9C560F6AAC561F6060120EE1DF02851EF
:104E9E00D9262951DA22DEC4D9F5DEC4DAF5DEC40C
:104EAE00DBF5DEC4DCF55EC6DDF55FC6DEF560C69D
:104EBE00DFF561C6E0F5FCEC2CF0060120EE1DF0EE
:104ECE002851D9262951DA220501D9C5DEF4DAC5D1
:104EDE00DEF4DBC5DEF4DCC5DEF4060120EE11F0F7
:104EEE002851D9262951DA22DEC41CF6DEC41DF65D
:104EFE00DEC41EF6DEC41FF620EE1DF02851D926A4
:104F0E002951DA22DEC414F6DEC415F6DEC416F616
:104F1E00DEC417F620EE0DF02851D9262951DA22DB
:104F2E00DEC418F6DEC419F6DEC41AF6DEC41BF6AD
:104F3E00E4EC52F014C620F615C621F616C622F67B
:104F4E0017C623F678EC53F0060120EE1DF028511B
:104F5E00D9262951DA221CC6DEF41DC6DEF41EC681
:104F6E00DEF41FC6DEF4CAEF27F020EE1DF0285146
:104F7E00D9262951DA22000EDE6E000EDE6E000EEC
:104F8E00DE6E000EDD6E20EE1DF02851D926295161
:104F9E00DA22DEC4A7F5DEC4A8F5DEC4A9F5DEC4A8
:104FAE00AAF552C6ABF553C6ACF554C6ADF555C60B
:104FBE00AEF5D9EC33F0A7C536F6A8C537F6A9C5B8
:104FCE0038F6AAC539F6060120EE21F02851D92669
:104FDE002951DA22DEC404F6DEC405F6DEC406F676
:104FEE00DEC407F656C600F657C601F658C602F6D8
:104FFE0059C603F6BDEC6CF000C6A7F501C6A8F5C0
:10500E0002C6A9F503C6AAF5060120EE09F028513D
:10501E00D9262951DA22DEC4ABF5DEC4ACF5DEC4E6
:10502E00ADF5DEC4AEF5D9EC33F0A7C546F6A8C58E
:10503E0047F6A9C548F6AAC549F6330E0501AB6F6A
:10504E00330EAC6F330EAD6F3F0EAE6F46C6A7F587
:10505E0047C6A8F548C6A9F549C6AAF5D9EC33F056
:10506E00A7C5D9F5A8C5DAF5A9C5DBF5AAC5DCF53E
:10507E009A0E0501AB6F990EAC6F990EAD6F3E0E89
:10508E00AE6F22C7A7F523C7A8F524C7A9F525C774
:10509E00AAF5D9EC33F0A7C5DDF5A8C5DEF5A9C58F
:1050AE00DFF5AAC5E0F5FCEC2CF0D9C546F6DAC55D
:1050BE0047F6DBC548F6DCC549F646C622F747C6B5
:1050CE0023F748C624F749C625F7060120EE21F03E
:1050DE002851D9262951DA2256C6DEF457C6DEF4F7
:1050EE0058C6DEF459C6DEF436C6DDF537C6DEF533
:1050FE0038C6DFF539C6E0F532C6D9F533C6DAF56E
:10510E0034C6DBF535C6DCF5FCEC2CF0D9C53AF629
:10511E00DAC53BF6DBC53CF6DCC53DF63AC6D9F53D
:10512E003BC6DAF53CC6DBF53DC6DCF546C6DDF51D
:10513E0047C6DEF548C6DFF549C6E0F5FCEC2CF0B7
:10514E00D9C54EF6DAC54FF6DBC550F6DCC551F6BD
:10515E0028C6D9F429C6DAF4DE04D8A4B9EF28F0AB
:10516E00BBEF28F03CEF29F0060151BFC3EF28F04A
:10517E00C1EF28F0CDEF28F0000E3E6F000E3F6F0E
:10518E00000E406FBF0E416FD5EF28F0000E3E6F40
:10519E00000E3F6F000E406F3F0E416F4EC6DDF5A5
:1051AE004FC6DEF550C6DFF551C6E0F53EC6D9F561
:1051BE003FC6DAF540C6DBF541C6DCF5FCEC2CF05B
:1051CE00D9C524F6DAC525F6DBC526F6DCC527F6E5
:1051DE004FEC56F006012451DC272551DD23000E3D
:1051EE00186F000E196F480E1A6F450E1B6FDCC636
:1051FE0099F5DDC69AF50501000E9ABFFF0E9B6F5D
:10520E009C6F010ECCEC49F099C514F69AC515F6B3
:10521E009BC516F69CC517F6E4EC52F014C620F6A4
:10522E0015C621F616C622F617C623F6000E06017F
:10523E001C6F000E1D6F000E1E6F000E1F6F78ECA0
:10524E0053F01CC624F61DC625F61EC626F61FC62E
:10525E0027F64FEC56F024C6DCF625C6DDF6DCC686
:10526E0028F6DDC629F6C8EF29F028C6D9F429C6D6
:10527E00DAF4020EDE18D8A447EF29F049EF29F030
:10528E00C8EF29F0060151BF51EF29F04FEF29F079
:10529E005BEF29F0000E426F000E436F000E446F5D
:1052AE00BF0E456F63EF29F0000E426F000E436F85
:1052BE00000E446F3F0E456F4EC6DDF54FC6DEF550
:1052CE0050C6DFF551C6E0F542C6D9F543C6DAF54C
:1052DE0044C6DBF545C6DCF5FCEC2CF0D9C524F64E
:1052EE00DAC525F6DBC526F6DCC527F64FEC56F0FB
:1052FE0006012451DA272551DB23000E186F000E0C
:10530E00196F480E1A6F450E1B6FDAC699F5DBC67C
:10531E009AF50501000E9ABFFF0E9B6F9C6F010E52
:10532E00CCEC49F099C514F69AC515F69BC516F640
:10533E009CC517F6E4EC52F014C620F615C621F6FD
:10534E0016C622F617C623F6000E06011C6F000EB7
:10535E001D6F000E1E6F000E1F6F78EC53F01CC6F3
:10536E0024F61DC625F61EC626F61FC627F64FECDA
:10537E0056F024C6DAF625C6DBF6DAC628F6DBC604
:10538E0029F6120012C742F613C743F614C744F6A5
:10539E0015C745F608C642F609C643F60AC644F6D0
:1053AE000BC645F6000E0601296F000E286F4551FB
:1053BE0009E1800E445DD8A0E7EF29F0E9EF29F06E
:1053CE00F0EF29F045AFEEEF29F0F0EF29F057EFAF
:1053DE002AF0D89042350501E96F060143350501E3
:1053EE00EA6F060144350501EB6F060145350501EF
:1053FE00EC6FE951EA11EB11EC11D8A409EF2AF088
:10540E000BEF2AF01EEF2AF0000E0601426F000E7F
:10541E00436F800E446FFF0E456F42C608F643C6BB
:10542E0009F644C60AF645C60BF6FBEF2CF006014C
:10543E0045AF24EF2AF026EF2AF036EF2AF0000EC1
:10544E000701986F210E976FFF0E0601426FFF0E38
:10545E00436FFF0E446F7F0E456F14EF2AF0E70E79
:10546E002827FF0E292342C6A7F543C6A8F544C632
:10547E00A9F545C6AAF5000E0501AB6F000EAC6F7F
:10548E00000EAD6F4C0EAE6FD9EC33F0A7C542F6E1
:10549E00A8C543F6A9C544F6AAC545F684EF2AF079
:1054AE00800E445D7F0E4559D8A060EF2AF062EF62
:1054BE002AF06CEF2AF008C608F609C609F60AC6E5
:1054CE000AF60BC60BF6FBEF2CF0800E441909E121
:1054DE003F0E451942114311D8A478EF2AF07AEF06
:1054EE002AF084EF2AF0000E086F000E096F000EEE
:1054FE000A6F000E0B6FFBEF2CF00D0E060142270C
:10550E00FB0E43234A0E4423000E452342C6E9F503
:10551E0043C6EAF544C6EBF545C6ECF5180E9EEF0C
:10552E002AF00501D890EC33EB33EA33E933E82E59
:10553E0098EF2AF0810EE925ED6FFF0EEA21EE6F4E
:10554E00ED51060128270501EE5106012923FF0E14
:10555E0042150501E96FFF0E060143150501EA6FBD
:10556E007F0E060144150501EB6F000E0601451571
:10557E000501EC6FF30EE9250601426F040E0501DD
:10558E00EA210601436F350E0501EB210601446F3A
:10559E003F0E0501EC210601456F42C600F643C6DB
:1055AE0001F644C602F645C603F6000E046F000E61
:1055BE00056F800E066F3F0E076FBDEC6CF000C6D8
:1055CE0042F601C643F602C644F603C645F642C687
:1055DE00C0F543C6C1F544C6C2F545C6C3F5000EB7
:1055EE000501DD6F000EDE6F000EDF6F400EE06F07
:1055FE0042C6D9F543C6DAF544C6DBF545C6DCF539
:10560E00FCEC2CF0D9C5C4F5DAC5C5F5DBC5C6F57D
:10561E00DCC5C7F5C6EC39F0C0C532F6C1C533F6E8
:10562E00C2C534F6C3C535F632C6A7F533C6A8F5DE
:10563E0034C6A9F535C6AAF532C6ABF533C6ACF5F8
:10564E0034C6ADF535C6AEF5D9EC33F0A7C536F692
:10565E00A8C537F6A9C538F6AAC539F636C6A7F5D0
:10566E0037C6A8F538C6A9F539C6AAF536C6ABF5BC
:10567E0037C6ACF538C6ADF539C6AEF5D9EC33F054
:10568E00A7C53AF6A8C53BF6A9C53CF6AAC53DF690
:10569E00130E0501DD6FCE0EDE6FCC0EDF6F3E0EEC
:1056AE00E06F260EAB6F9E0EAC6F780EAD6F3E0E9A
:1056BE00AE6F3AC6A7F53BC6A8F53CC6A9F53DC6E2
:1056CE00AAF5D9EC33F0A7C5D9F5A8C5DAF5A9C561
:1056DE00DBF5AAC5DCF5FCEC2CF0D9C53EF6DAC537
:1056EE003FF6DBC540F6DCC541F63EC6A7F53FC624
:1056FE00A8F540C6A9F541C6AAF53AC6ABF53BC614
:10570E00ACF53CC6ADF53DC6AEF5D9EC33F0A7C54C
:10571E0010F6A8C511F6A9C512F6AAC513F6AA0E5B
:10572E000501DD6FAA0EDE6F2A0EDF6F3F0EE06FF2
:10573E00EE0EAB6FE90EAC6F910EAD6F3E0EAE6F0F
:10574E003AC6A7F53BC6A8F53CC6A9F53DC6AAF5CF
:10575E00D9EC33F0A7C5D9F5A8C5DAF5A9C5DBF59F
:10576E00AAC5DCF5FCEC2CF0D9C53EF6DAC53FF641
:10577E00DBC540F6DCC541F63EC6A7F53FC6A8F52B
:10578E0040C6A9F541C6AAF536C6ABF537C6ACF587
:10579E0038C6ADF539C6AEF5D9EC33F0A7C514F65B
:1057AE00A8C515F6A9C516F6AAC517F614C6D9F5D5
:1057BE0015C6DAF516C6DBF517C6DCF510C6DDF52F
:1057CE0011C6DEF512C6DFF513C6E0F5FCEC2CF0C3
:1057DE00D9C50CF6DAC50DF6DBC50EF6DCC50FF62F
:1057EE00000E0501AB6F000EAC6F000EAD6F3F0EDD
:1057FE00AE6F42C6A7F543C6A8F544C6A9F545C681
:10580E00AAF5D9EC33F0A7C53EF6A8C53FF6A9C553
:10581E0040F6AAC541F63EC6A7F53FC6A8F540C656
:10582E00A9F541C6AAF542C6ABF543C6ACF544C6CA
:10583E00ADF545C6AEF5D9EC33F0A7C52AF6A8C529
:10584E002BF6A9C52CF6AAC52DF628C699F529C69C
:10585E009AF50501000E9ABFFF0E9B6F9C6F010E0D
:10586E00CCEC49F099C52EF69AC52FF69BC530F6AD
:10587E009CC531F632C6ABF533C6ACF534C6ADF5C4
:10588E0035C6AEF50CC6DDF50DC6DEF50EC6DFF57A
:10589E000FC6E0F52AC6D9F52BC6DAF52CC6DBF510
:1058AE002DC6DCF5FCEC2CF0D9C5A7F5DAC5A8F5AC
:1058BE00DBC5A9F5DCC5AAF5D9EC33F0A7C518F6FA
:1058CE00A8C519F6A9C51AF6AAC51BF6D10E05016B
:1058DE00AB6FF70EAC6F170EAD6F370EAE6F2EC6E9
:1058EE00A7F52FC6A8F530C6A9F531C6AAF5D9EC8D
:1058FE0033F0A7C5DDF5A8C5DEF5A9C5DFF5AAC548
:10590E00E0F518C6D9F519C6DAF51AC6DBF51BC6C9
:10591E00DCF5FCEC2CF0D9C51CF6DAC51DF6DBC5A2
:10592E001EF6DCC51FF62AC604F62BC605F62CC6D7
:10593E0006F62DC607F61CC600F61DC601F61EC6D7
:10594E0002F61FC603F6BDEC6CF000C620F601C6CB
:10595E0021F602C622F603C623F642C6DDF543C67D
:10596E00DEF544C6DFF545C6E0F520C6D9F521C6FD
:10597E00DAF522C6DBF523C6DCF5FCEC2CF0D9C536
:10598E0024F6DAC525F6DBC526F6DCC527F624C6D1
:10599E00D9F525C6DAF526C6DBF527C6DCF5800E69
:1059AE000501AB6F710EAC6F310EAD6F3F0EAE6F6A
:1059BE002EC6A7F52FC6A8F530C6A9F531C6AAF58D
:1059CE00D9EC33F0A7C5DDF5A8C5DEF5A9C5DFF521
:1059DE00AAC5E0F5FCEC2CF0D9C508F6DAC509F637
:1059EE00DBC50AF6DCC50BF612000501DC51800B97
:1059FE00E56FDC51DC25E76FDBAF08EF2DF00AEF2A
:105A0E002DF00BEF2DF0E781E751D8B411EF2DF00B
:105A1E0013EF2DF027EF2DF0E729D8A419EF2DF075
:105A2E001BEF2DF023EF2DF0000ED96F000EDA6F65
:105A3E00000EDB6F000EDC6FDB8FDC6B2FEF2DF0BB
:105A4E00000ED96F000EDA6F000EDB6F000EDC6FEA
:105A5E00E051800BE66FE551E619D8B439EF2DF021
:105A6E003BEF2DF03CEF2DF0E58DE051E025E66F9C
:105A7E00DFAF44EF2DF046EF2DF047EF2DF0E6812E
:105A8E00E651D8B44DEF2DF04FEF2DF063EF2DF022
:105A9E00E629D8A455EF2DF057EF2DF05FEF2DF03E
:105AAE00000EDD6F000EDE6F000EDF6F000EE06F7A
:105ABE00DF8FE06B6BEF2DF0000EDD6F000EDE6FF3
:105ACE00000EDF6F000EE06FE751E65DD8B072EFAB
:105ADE002DF074EF2DF09BEF2DF0E5AD79EF2DF05D
:105AEE007BEF2DF07DEF2DF0800EE51BE7C5E8F581
:105AFE00E6C5E7F5E8C5E6F5D9C5E8F5DDC5D9F59E
:105B0E00E8C5DDF5DAC5E8F5DEC5DAF5E8C5DEF59A
:105B1E00DBC5E8F5DFC5DBF5E8C5DFF5DCC5E8F587
:105B2E00E0C5DCF5E8C5E0F5E86BE751E6C5E1F563
:105B3E00E26BE15F000EE25BE2BFAFEF2DF0E251F0
:105B4E0009E11A0EE15DD8A0AFEF2DF0B1EF2DF007
:105B5E00E8EF2DF0D951DA11DB11DC11D8A4BAEF30
:105B6E002DF0BDEF2DF0010EBEEF2DF0000EE86F03
:105B7E00000ED96F000EDA6F000EDB6F000EDC6FB9
:105B8E00E6C5E7F5F1EF2DF0E8A1D0EF2DF0D2EF5D
:105B9E002DF0D8EF2DF0D890E8310109E86FDAEF4B
:105BAE002DF0D890E833D9A1DFEF2DF0E1EF2DF0F5
:105BBE00E2EF2DF0E88FDC35DC33DB33DA33D9332B
:105BCE00E72BE651E75DD8A0EFEF2DF0F1EF2DF0CA
:105BDE00CBEF2DF0E5BDF6EF2DF0F8EF2DF038EF11
:105BEE002EF0E751D8A4FEEF2DF000EF2EF00AEFC5
:105BFE002EF0000ED96F000EDA6F000EDB6F000E66
:105C0E00DC6F57EF2FF0DD51D927DE51DA23DF514C
:105C1E00DB23E051DC23DCA117EF2EF019EF2EF081
:105C2E00C5EF2EF0E8A11EEF2EF020EF2EF026EF9E
:105C3E002EF0D890E8310109E86F28EF2EF0D890B9
:105C4E00E833D9A12DEF2EF02FEF2EF030EF2EF0FE
:105C5E00E88FDC35DC33DB33DA33D933E72BC5EFB2
:105C6E002EF0DD51D95DDE51DA59DF51DB59DC51B1
:105C7E00800AE16FE051800AE159D8B049EF2EF069
:105C8E004BEF2EF076EF2EF0D951DD5DE16FDA514C
:105C9E00DE59E26FDB51DF59E36FDC51E059E46FFF
:105CAE00FF0EE125D96FFF0EE221DA6FFF0EE32121
:105CBE00DB6FFF0EE421DC6F800EE51BE86DE85113
:105CCE00D8A46CEF2EF06EEF2EF07EEF2EF0010EBC
:105CDE00D927000EDA23DB23DC237EEF2EF0DD51F5
:105CEE00D95FDE51DA5BDF51DB5BE051DC5BD95112
:105CFE00DA11DB11DC11D8A487EF2EF089EF2EF02C
:105D0E00BEEF2EF0E851D8A48FEF2EF091EF2EF0CB
:105D1E00BEEF2EF0000ED96F000EDA6F000EDB6FA5
:105D2E00000EDC6F57EF2FF0D890D937DA37DB370C
:105D3E00DC37E8AFA5EF2EF0A7EF2EF0A8EF2EF090
:105D4E00D981E8A1ADEF2EF0AFEF2EF0B3EF2EF02C
:105D5E00D880E837B5EF2EF0D890E837E751D8B4B1
:105D6E00BBEF2EF0BDEF2EF0BEEF2EF0E707DBAF50
:105D7E00C3EF2EF0C5EF2EF09BEF2EF0E66BE8AFE3
:105D8E00CBEF2EF0CDEF2EF0E5EF2EF0E8C5E1F5DE
:105D9E007F0EE117D8B4D6EF2EF0D8EF2EF0DCEF51
:105DAE002EF0010EE66FE5EF2EF0D9A1E1EF2EF009
:105DBE00E3EF2EF0E5EF2EF0D8EF2EF0E651D8B44B
:105DCE00EBEF2EF0EDEF2EF018EF2FF0010ED9279E
:105DDE00000EDA23DB23DC23DCA1F8EF2EF0FAEF42
:105DEE002EF018EF2FF0D9C5E1F5DAC5E2F5DBC5D7
:105DFE00E3F5DCC5E4F5E435E433E333E233E133D4
:105E0E00E1C5D9F5E2C5DAF5E3C5DBF5E4C5DCF5A8
:105E1E00E729D8B415EF2FF017EF2FF018EF2FF06A
:105E2E00E72BE729D8B41EEF2FF020EF2FF028EF45
:105E3E002FF0E751D8A426EF2FF028EF2FF039EFEF
:105E4E002FF0000ED96F000EDA6F000EDB6F000E12
:105E5E00DC6FE751D8A436EF2FF038EF2FF039EF83
:105E6E002FF0E56BE7A13EEF2FF040EF2FF043EF61
:105E7E002FF0DB8F44EF2FF0DB9FD890E731DC6FF4
:105E8E00E5AF4CEF2FF04EEF2FF04FEF2FF0DC8FF2
:105E9E00D9C5D9F5DAC5DAF5DBC5DBF5DCC5DCF538
:105EAE0012000601396F1C0E06013919D8A462EFD3
:105EBE002FF064EF2FF086EF30F0010EE9656AEFF8
:105ECE002FF06CEF2FF086EF30F0000E0501C46F4F
:105EDE00000EC56F7A0EC66F440EC76F1C0EFBEC1C
:105EEE0046F005016CC599F56DC59AF59B6B9C6BDB
:105EFE00000ECCEC49F099C5C0F59AC5C1F59BC50D
:105F0E00C2F59CC5C3F5C6EC39F0C0C5A7F5C1C531
:105F1E00A8F5C2C5A9F5C3C5AAF5000E0501AB6F5C
:105F2E00000EAC6F110EAD6F430EAE6FD9EC33F0A9
:105F3E00A7C53EF6A8C53FF6A9C540F6AAC541F6C7
:105F4E00160EF7EC3FF014C63AF615C63BF616C61B
:105F5E003CF617C63DF63EC6ABF53FC6ACF540C6A1
:105F6E00ADF541C6AEF53AC6A7F53BC6A8F53CC69B
:105F7E00A9F53DC6AAF5D9EC33F0A7C5C0F5A8C55D
:105F8E00C1F5A9C5C2F5AAC5C3F5000E0501C46FBA
:105F9E00000EC56F7A0EC66F440EC76FC6EC39F091
:105FAE00C0C531F6C1C532F6C2C533F6C3C534F627
:105FBE00000E06010C6F000E0D6FF00E0E6F410EEF
:105FCE000F6F3EC610F63FC611F640C612F641C61A
:105FDE0013F64FEC52F00601D8A0F8EF2FF0FAEFBF
:105FEE002FF003EF30F0010EE76F000E0501F26F98
:105FFE00020EF16FA8EF31F03EC60CF63FC60DF65D
:10600E0040C60EF641C60FF6000E106F800E116FD1
:10601E00090E126F440E136F4FEC52F00601D8B0FA
:10602E001BEF30F01DEF30F037EF30F0000E0C6F3D
:10603E00000E0D6F160E0E6F430E0F6F3EC610F64E
:10604E003FC611F640C612F641C613F64FEC52F09B
:10605E000601D8A035EF30F037EF30F040EF30F0DA
:10606E00020EE76F000E0501F26F010EF16FA8EF41
:10607E0031F0CD0E0501AB6FCC0EAC6F8C0EAD6F4B
:10608E003F0EAE6FDEC699F5DFC69AF59B6B9C6B25
:10609E00000ECCEC49F099C5A7F59AC5A8F59BC59D
:1060AE00A9F59CC5AAF5D9EC33F0A7C50CF6A8C581
:1060BE000DF6A9C50EF6AAC50FF631C610F632C6F4
:1060CE0011F633C612F634C613F64FEC52F0060133
:1060DE00D8B074EF30F076EF30F07FEF30F0030E83
:1060EE00E76F000E0501F26F020EF16FA8EF31F0AF
:1060FE00000E0501F26F000EF16FA8EF31F0110ED8
:10610E003919D8A48DEF30F08FEF30F07FEF30F0EB
:10611E00010EE86595EF30F097EF30F07FEF30F03D
:10612E00000E0501C46F000EC56F7A0EC66F440EC9
:10613E00C76F110EFBEC46F005016CC599F56DC5E8
:10614E009AF59B6B9C6B000ECCEC49F099C5C0F593
:10615E009AC5C1F59BC5C2F59CC5C3F5C6EC39F011
:10616E00C0C5A7F5C1C5A8F5C2C5A9F5C3C5AAF591
:10617E00000E0501AB6F000EAC6F110EAD6F430E2E
:10618E00AE6FD9EC33F0A7C542F6A8C543F6A9C544
:10619E0044F6AAC545F6040EF7EC3FF014C63AF6DF
:1061AE0015C63BF616C63CF617C63DF642C6ABF50F
:1061BE0043C6ACF544C6ADF545C6AEF53AC6A7F531
:1061CE003BC6A8F53CC6A9F53DC6AAF5D9EC33F0F9
:1061DE00A7C5C0F5A8C5C1F5A9C5C2F5AAC5C3F521
:1061EE00000E0501C46F000EC56F7A0EC66F440E09
:1061FE00C76FC6EC39F0C0C535F6C1C536F6C2C597
:10620E0037F6C3C538F6000E06010C6F000E0D6F83
:10621E00A00E0E6F410E0F6F42C610F643C611F65A
:10622E0044C612F645C613F64FEC52F00601D8A03E
:10623E0023EF31F025EF31F02EEF31F0040EE76F42
:10624E00000E0501F26F020EF16FA8EF31F042C69B
:10625E000CF643C60DF644C60EF645C60FF6000EF6
:10626E00106F000E116F960E126F430E136F4FECE0
:10627E0052F00601D8B046EF31F048EF31F062EF40
:10628E0031F0000E0C6F000E0D6F480E0E6F420EA9
:10629E000F6F42C610F643C611F644C612F645C637
:1062AE0013F64FEC52F00601D8A060EF31F062EF1A
:1062BE0031F06BEF31F0050EE76F000E0501F26F56
:1062CE00010EF16FA8EF31F0CD0E0501AB6FCC0EC4
:1062DE00AC6F8C0EAD6F3F0EAE6F45C599F546C5D2
:1062EE009AF59B6B9C6B000ECCEC49F099C5A7F50B
:1062FE009AC5A8F59BC5A9F59CC5AAF5D9EC33F0AE
:10630E00A7C50CF6A8C50DF6A9C50EF6AAC50FF6BB
:10631E0035C610F636C611F637C612F638C613F65F
:10632E004FEC52F00601D8B09FEF31F0A1EF31F0F3
:10633E007FEF30F0060EE76F000E0501F26F020ED2
:10634E00F16F12005FC6D9F460C6DAF4DEC4F6F45B
:10635E00DDC4F7F4000EF86E0800F550250AD8A437
:10636E00BBEF31F0BDEF31F0C1EF33F05FC6D9F4C2
:10637E0060C6DAF4DE2A000EDD22000E0601D76FAB
:10638E00000ED66FD6C6E0F6D869D969656BF0EF08
:10639E0031F0E0835FC6D9F460C6DAF4DE2A000E6F
:1063AE00DD22F0EF31F0010E656FF0EF31F05FC6D8
:1063BE00D9F460C6DAF4DEC4F6F4DDC4F7F4000EE8
:1063CE00F86E0800F550300AD8B4D0EF31F0DAEF9D
:1063DE0031F06551D8B4F6EF31F0F8EF31F0DEEF71
:1063EE0031F05FC664F560C665F561C666F562C6D6
:1063FE0067F538EC5DF064C5D6F665C5D7F60601CF
:10640E00D7BF0EEF32F00CEF32F013EF32F0E08127
:10641E00D66DD71FD8B0D72B5FC6D9F460C6DAF4C5
:10642E00DEC4F6F4DDC4F7F4000EF86E0800F55085
:10643E002E0AD8A425EF32F027EF32F03CEF32F0DF
:10644E005FC6D9F460C6DAF4DE2A000EDD225FC61E
:10645E0064F560C665F561C666F562C667F538EC2B
:10646E005DF064C5D8F665C5D9F65FC6D9F460C6C9
:10647E00DAF4DEC46BF6DDC46CF66BC6F6F46CC6ED
:10648E00F7F4000EF86E0800F550640AD8B452EF17
:10649E0032F054EF32F064EF32F06BC6F6F46CC6A5
:1064AE00F7F4000EF86E0800F550690AD8A462EFF2
:1064BE0032F064EF32F093EF32F061C6D9F462C677
:1064CE00DAF4DFC463F6020EDE26DFC464F6000ED5
:1064DE00DD2263C6D9F464C6DAF4DEC467F6DDC421
:1064EE0068F6010E06016B25636F000E6C21646F5A
:1064FE005FC6D9F460C6DAF463C6DEF464C6DDF4B2
:10650E005DC681F55EC682F567C683F568C684F5FD
:10651E00EAEC48F0D8EF33F06BC6F6F46CC6F7F43D
:10652E00000EF86E0800F550580AD8B4A1EF32F0FC
:10653E00A3EF32F0B3EF32F06BC6F6F46CC6F7F49D
:10654E00000EF86E0800F550750AD8A4B1EF32F0BF
:10655E00B3EF32F002EF33F061C6D9F462C6DAF46B
:10656E00DFC463F6020EDE26DFC464F6000EDD2203
:10657E0063C6D9F464C6DAF4DEC467F6DDC468F621
:10658E00010E06016B25636F000E6C21646F5FC6F2
:10659E00D9F460C6DAF463C6DEF464C6DDF4F0EF57
:1065AE0032F05DC681F55EC682F567C683F568C6B4
:1065BE0084F584EC50F0D8EF33F05DC681F55EC6FD
:1065CE0082F567C683F568C684F5DDEC4FF0D8EF2B
:1065DE0033F06BC6F6F46CC6F7F4000EF86E0800D6
:1065EE00F550580AD8B4E4EF32F02D0AD8B4D8EFEB
:1065FE0032F002EF33F05FC6D9F460C6DAF4DEC4CF
:10660E006BF6DDC46CF66BC6F6F46CC6F7F4000ED2
:10661E00F86E0800F5C466F620EF33F06B4B6C2B6A
:10662E0030EF33F06C0E666F30EF33F0666B30EF99
:10663E0033F0060166514C0AD8B415EF33F02A0A2E
:10664E00D8B419EF33F00A0AD8B415EF33F01DEFB2
:10665E0033F06BC6F6F46CC6F7F4000EF86E080055
:10666E00F550660AD8A43EEF33F040EF33F0B8EFA2
:10667E0033F076EF33F061C6D9F462C6DAF4DFC4D4
:10668E0063F6040EDE26DFC464F6000EDD2263C65A
:10669E00D9F464C6DAF4DEC467F6DEC468F6DEC486
:1066AE0069F6DEC46AF681EF33F061C6D9F462C6CC
:1066BE00DAF4DFC463F6040EDE26DFC464F6000EE1
:1066CE00DD2263C6D9F464C6DAF4DEC467F6DEC42E
:1066DE0068F6DEC469F6DEC46AF681EF33F0665101
:1066EE004C0AD8B45CEF33F0200AD8B442EF33F042
:1066FE0081EF33F0010E6B25636F000E6C21646F1A
:10670E005FC6D9F460C6DAF463C6DEF464C6DDF49F
:10671E00AAEF33F05DC628F65EC629F667C62AF6DE
:10672E0068C62BF669C62CF66AC62DF66BC6F6F44D
:10673E006CC6F7F4000EF86E0800F5C42EF637ECB2
:10674E001FF0D8EF33F06BC6F6F46CC6F7F4000EFC
:10675E00F86E0800F550660AD8B491EF33F0B8EF32
:10676E0033F05FC6D9F460C6DAF4DE2A000EDD22FD
:10677E00D8EF33F05FC6D9F460C6DAF4DEC4F6F4AF
:10678E00DDC4F7F4000EF86E0800F5500501686FD1
:10679E00696B5DC66AF55EC66BF59FEC5DF0B8EF92
:1067AE0033F012000501AA51800BB36FAA51AA252E
:1067BE00B96FA9AFE5EF33F0E7EF33F0E8EF33F061
:1067CE00B981B951D8B4EEEF33F0F0EF33F003EFF7
:1067DE0034F0B929D8A4F6EF33F0F8EF33F000EF28
:1067EE0034F0000EA76F000EA86F000EA96F000EFA
:1067FE00AA6FA98F0BEF34F0000EA76F000EA86FD3
:10680E00000EA96F000EAA6FAE51800BB31BAE51D6
:10681E00AE25B46FADAF16EF34F018EF34F019EFBC
:10682E0034F0B481B451D8B41FEF34F021EF34F00A
:10683E0034EF34F0B429D8A427EF34F029EF34F034
:10684E0031EF34F0000EAB6F000EAC6F000EAD6F7B
:10685E00000EAE6FAD8F3CEF34F0000EAB6F000E3E
:10686E00AC6F000EAD6F000EAE6FB451D8B442EFE8
:10687E0034F044EF34F04CEF34F0B951D8A44AEF71
:10688E0034F04CEF34F056EF34F0000EA76F000EDC
:10689E00A86F000EA96F000EAA6FECEF35F0AD5188
:1068AE00A703F3C4BEF5F4C4BFF5BE51B56FB66B06
:1068BE00B76BB86BBF51BA6FBB6BBC6BBD6BAC51DA
:1068CE00A803F3C4BEF5F4C4BFF5BE51B527000E40
:1068DE00B623B723B823BF51BA27000EBB23BC2360
:1068EE00BD23AB51A903F3C4BEF5F4C4BFF5BE512D
:1068FE00B527000EB623B723B823BF51BA27000E13
:10690E00BB23BC23BD23B7C5B8F5B6C5B7F5B5C512
:10691E00B6F5B56BAB51A803F3C4BEF5F4C4BFF521
:10692E00BE51B527BF51B623000EB723000EB823B4
:10693E00AC51A703F3C4BEF5F4C4BFF5BE51B527E1
:10694E00BF51B623000EB723000EB823B7C5B8F556
:10695E00B6C5B7F5B5C5B6F5B56BAB51A703F3C460
:10696E00BEF5F4C4BFF5BE51B527BF51B623000E18
:10697E00B723000EB823AD51A803F3C4BEF5F4C47B
:10698E00BFF5BE51BA27BF51BB23000EBC23000E6C
:10699E00BD23AC51A903F3C4BEF5F4C4BFF5BE517B
:1069AE00BA27BF51BB23000EBC23000EBD23AD5131
:1069BE00A903F3C4BEF5F4C4BFF5BE51AF6FBF510A
:1069CE00B06FB16BB26BB1C5B2F5B0C5B1F5AFC5B5
:1069DE00B0F5AF6BAF51BA27B051BB23B151BC2349
:1069EE00B251BD23B5C5AFF5B6C5B0F5B7C5B1F556
:1069FE00B8C5B2F5190E09EF35F0D890B233B133F0
:106A0E00B033AF33E82E04EF35F0AF51BA27B051A3
:106A1E00BB23B151BC23B251BD23B7C5B8F5B6C522
:106A2E00B7F5B5C5B6F5B56BB451B9C5AFF5B06B25
:106A3E00AF27000EB023820EAF25BE6FFF0EB02122
:106A4E00BF6F3FEF35F0D890BA37BB37BC37BD3785
:106A5E00B8AF34EF35F036EF35F037EF35F0BA81A9
:106A6E00D890B537B637B737B837BE07D8A0BF07F7
:106A7E00BCAF44EF35F046EF35F02AEF35F0B46B8E
:106A8E00B8AF4CEF35F04EEF35F072EF35F0FF0E3C
:106A9E00B515AF6FFF0EB615B06FFF0EB715B16F10
:106AAE007F0EB815B26FAF51B011B111B211D8B48B
:106ABE0063EF35F065EF35F069EF35F0010EB46F29
:106ACE0072EF35F0BAA16EEF35F070EF35F072EF70
:106ADE0035F065EF35F0B451D8B478EF35F07AEF84
:106AEE0035F09EEF35F0010EBA27000EBB23BC2306
:106AFE00BD23BDA185EF35F087EF35F09EEF35F064
:106B0E00BAC5AFF5BBC5B0F5BCC5B1F5BDC5B2F5DF
:106B1E00B235B233B133B033AF33AFC5BAF5B0C55A
:106B2E00BBF5B1C5BCF5B2C5BDF5BE4BBF2BBFBFE6
:106B3E00A9EF35F0BF5108E1BE29D8A0A9EF35F075
:106B4E00ABEF35F0B5EF35F0000EBA6F000EBB6F40
:106B5E00800EBC6F7F0EBD6FE2EF35F0BFBFC2EF90
:106B6E0035F0BF5106E1BE05D8B0C0EF35F0C2EF2B
:106B7E0035F0CDEF35F0000EBA6F000EBB6F000E84
:106B8E00BC6F000EBD6FB36BE2EF35F0BEC5B9F54D
:106B9E00FF0EBA17FF0EBB177F0EBC17000EBD17E8
:106BAE00B9A1DCEF35F0DEEF35F0DFEF35F0BC8F5D
:106BBE00D890B931BD6FB351BD13BAC5A7F5BBC5DA
:106BCE00A8F5BCC5A9F5BDC5AAF512002EC768F576
:106BDE002FC769F530C76AF531C76BF58DEC65F0D7
:106BEE0068C5F3F569C5F4F56AC5F5F56BC5F6F537
:106BFE00030EABEC6EF064C5F1F565C5F2F5F1C5AB
:106C0E0046F6F2C547F68EEC3EF046C6F7F547C699
:106C1E00F8F548C6F9F549C6FAF5F7C55AF7F8C5B5
:106C2E005BF7F9C55CF7FAC55DF72AC704F62BC703
:106C3E0005F62CC706F62DC707F6F7C500F6F8C5FC
:106C4E0001F6F9C502F6FAC503F6BDEC6CF000C606
:106C5E0008F601C609F602C60AF603C60BF673EC71
:106C6E006FF008C60CF609C60DF60AC60EF60BC670
:106C7E000FF6000E0601106F000E116F800E126FD0
:106C8E003F0E136F4FEC52F00601D8B051EF36F0B5
:106C9E0053EF36F05EEF36F0050EE36159EF36F046
:106CAE005BEF36F05FEF36F0E32B5FEF36F0E36B22
:106CBE00F7C52AF7F8C52BF7F9C52CF7FAC52DF746
:106CCE00D7EF37F0E66B040EE36570EF36F072EF38
:106CDE0036F0E6EF37F0F7C50CF6F8C50DF6F9C548
:106CEE000EF6FAC50FF6000E0501DD6F000EDE6F13
:106CFE00A00EDF6F400EE06FEBC6D9F5ECC6DAF5ED
:106D0E00EDC6DBF5EEC6DCF5FCEC2CF0D9C510F6C5
:106D1E00DAC511F6DBC512F6DCC513F64FEC52F0F0
:106D2E000601D8A09DEF36F09FEF36F0EAEF36F071
:106D3E00F7C50CF6F8C50DF6F9C50EF6FAC50FF641
:106D4E00000E0501DD6F000EDE6F200EDF6F410EAF
:106D5E00E06FEBC6D9F5ECC6DAF5EDC6DBF5EEC69F
:106D6E00DCF5FCEC2CF0D9C510F6DAC511F6DBC556
:106D7E0012F6DCC513F64FEC52F00601D8B0CAEF8E
:106D8E0036F0CCEF36F0EAEF36F00501F651F5119C
:106D9E000BE1E80EF35D030EF459D8A0D9EF36F0EF
:106DAE00DBEF36F0E6EF37F0010E0601E46FF5EC9F
:106DBE0072F064C52EF765C52FF766C530F767C547
:106DCE0031F7E6EF37F0F7C50CF6F8C50DF6F9C555
:106DDE000EF6FAC50FF6000E0501DD6F000EDE6F22
:106DEE00200EDF6F410EE06FEBC6D9F5ECC6DAF57B
:106DFE00EDC6DBF5EEC6DCF5FCEC2CF0D9C510F6D5
:106E0E00DAC511F6DBC512F6DCC513F64FEC52F0FF
:106E1E000601D8A015EF37F017EF37F0DEEF36F09A
:106E2E000501F651F5110BE1E80EF35D030EF45971
:106E3E00D8A024EF37F026EF37F02BEF37F0020E05
:106E4E000601E46FDEEF36F0E6EF37F0010EE66F87
:106E5E00040EE36535EF37F037EF37F0E6EF37F036
:106E6E00EBC60CF6ECC60DF6EDC60EF6EEC60FF63C
:106E7E00F7C510F6F8C511F6F9C512F6FAC513F6F0
:106E8E004FEC52F00601D8A04FEF37F051EF37F02C
:106E9E0064EF37F00501F651F5110BE1E80EF35DE5
:106EAE00030EF459D8A05EEF37F060EF37F0E6EF3F
:106EBE0037F00601E46BDEEF36F0F7C50CF6F8C5D9
:106ECE000DF6F9C50EF6FAC50FF6000E0501DD6FCB
:106EDE00000EDE6F200EDF6F410EE06FEBC6D9F5B0
:106EEE00ECC6DAF5EDC6DBF5EEC6DCF5FCEC2CF007
:106EFE00D9C510F6DAC511F6DBC512F6DCC513F6E8
:106F0E004FEC52F00601D8A08FEF37F091EF37F02B
:106F1E00DEEF36F00501F651F5110BE1E80EF35DEB
:106F2E00030EF459D8A09EEF37F0A0EF37F02BEFF9
:106F3E0037F026EF37F0020EE66F040EE365AAEF88
:106F4E0037F0ACEF37F0E6EF37F0EBC60CF6ECC6E9
:106F5E000DF6EDC60EF6EEC60FF6F7C510F6F8C531
:106F6E0011F6F9C512F6FAC513F64FEC52F00601FA
:106F7E00D8A0C4EF37F0C6EF37F0E6EF37F00501D3
:106F8E00F651F5110BE1D00EF35D070EF459D8A0B2
:106F9E00D3EF37F0D5EF37F0E6EF37F060EF37F09D
:106FAE00E451000AD8B469EF36F0010AD8B42DEFD7
:106FBE0037F0030AD8B4A2EF37F0E6EF37F012003D
:106FCE00060114511511D8A4EFEF37F0F1EF37F099
:106FDE00FBEF37F0000E146F000E156F000E166FDC
:106FEE00000E176FC5EF39F0F5EC72F064C526F69A
:106FFE0065C527F666C528F667C529F6060120EE93
:10700E0008F01451D9261551DA22DEC464F5DEC417
:10701E0065F5DEC466F5DEC467F516C668F517C6F7
:10702E0069F518C66AF519C66BF572EC62F00501C2
:10703E00D8B024EF38F026EF38F0B5EF38F006016F
:10704E0020EE08F01451D9261551DA2216C6DEF4B8
:10705E0017C6DEF418C6DEF419C6DEF414C6D9F46B
:10706E0015C6DAF4DEC40CF6DEC40DF6DEC40EF67A
:10707E00DEC40FF616C610F617C611F618C612F6AF
:10708E0019C613F64FEC52F00601D8B051EF38F096
:10709E0053EF38F083EF38F014C6D9F415C6DAF48E
:1070AE0010EE04F01451E1261551E222DEC4E6F48E
:1070BE00DEC4E6F4DEC4E6F4DEC4E6F420EE0CF044
:1070CE001451D9261551DA2226C6DEF427C6DEF46F
:1070DE0028C6DEF429C6DEF420EE10F01451D926AF
:1070EE001551DA221AC6DEF41BC6DEF41CC6DEF417
:1070FE001DC6DEF4B5EF38F020EE04F01451D9269B
:10710E001551DA2216C6DEF417C6DEF418C6DEF402
:10711E0019C6DEF414C6D9F415C6DAF416C6DEF4B2
:10712E0017C6DEF418C6DEF419C6DEF420EE0CF037
:10713E001451D9261551DA2226C6DEF427C6DEF4FE
:10714E0028C6DEF429C6DEF420EE10F01451D9263E
:10715E001551DA22DE6ADE6ADE6ADD6A060120EE8B
:10716E0010F01451D9261551DA22DE50DE10DE1041
:10717E00DE10D8A4C5EF38F0C7EF38F0D5EF38F0F1
:10718E0014C6D9F415C6DAF4DEC414F6DEC415F648
:10719E00DEC416F6DEC417F6C5EF39F020EE0CF09D
:1071AE001451D9261551DA22DEC468F5DEC469F50C
:1071BE00DEC46AF5DEC46BF58DEC65F068C52AF6A3
:1071CE0069C52BF66AC52CF66BC52DF6060120EEA9
:1071DE0010F01451D9261551DA22DE502A5DDE50F8
:1071EE002B59DE502C59DE502D59D8A001EF39F015
:1071FE0003EF39F023EF39F020EE08F01451D926C1
:10720E001551DA2214C6E1F415C6E2F4DEC4E6F432
:10721E00DEC4E6F4DEC4E6F4DEC4E6F414C6D9F445
:10722E0015C6DAF4DEC414F6DEC415F6DEC416F6A0
:10723E00DEC417F6C5EF39F02AC699F52BC69AF5B6
:10724E002CC69BF52DC69CF5000ECCEC49F099C5CD
:10725E00C0F59AC5C1F59BC5C2F59CC5C3F506011F
:10726E0020EE10F01451D9261551DA22DEC499F50C
:10727E00DEC49AF5DEC49BF5DEC49CF5000ECCECA4
:10728E0049F099C5C4F59AC5C5F59BC5C6F59CC50B
:10729E00C7F5C6EC39F0C0C51EF6C1C51FF6C2C58E
:1072AE0020F6C3C521F61EC6ABF51FC6ACF520C62B
:1072BE00ADF521C6AEF5060120EE04F01451D92627
:1072CE001551DA22DEC404F6DEC405F6DEC406F677
:1072DE00DEC407F620EE08F01451D9261551DA2235
:1072EE00DEC400F6DEC401F6DEC402F6DEC403F62A
:1072FE00BDEC6CF000C6A7F501C6A8F502C6A9F54F
:10730E0003C6AAF5D9EC33F0A7C522F6A8C523F615
:10731E00A9C524F6AAC525F622C6D9F523C6DAF5DF
:10732E0024C6DBF525C6DCF5060120EE04F014516B
:10733E00D9261551DA22DEC4DDF5DEC4DEF5DEC453
:10734E00DFF5DEC4E0F5FCEC2CF014C6D9F415C65E
:10735E00DAF40501D9C5DEF4DAC5DEF4DBC5DEF4F8
:10736E00DCC5DEF414C6D9F415C6DAF4DEC414F6A0
:10737E00DEC415F6DEC416F6DEC417F612000501DD
:10738E00C351800BD06FC351C325D76FC2AFD2EF9D
:10739E0039F0D4EF39F0D5EF39F0D781D751D8B4D1
:1073AE00DBEF39F0DDEF39F0F1EF39F0D729D8A462
:1073BE00E3EF39F0E5EF39F0EDEF39F0000EC06F85
:1073CE00000EC16F000EC26F000EC36FC28FC36B73
:1073DE00F9EF39F0000EC06F000EC16F000EC26FD4
:1073EE00000EC36FC751800BD01BC751C725D86F76
:1073FE00C6AF04EF3AF006EF3AF007EF3AF0D88155
:10740E00D851D8B40DEF3AF00FEF3AF023EF3AF02F
:10741E00D829D8A415EF3AF017EF3AF01FEF3AF04B
:10742E00000EC46F000EC56F000EC66F000EC76F44
:10743E00C68FC76B2BEF3AF0000EC46F000EC56FF0
:10744E00000EC66F000EC76FC451C511C611C7110D
:10745E00D8A434EF3AF036EF3AF04EEF3AF0000E91
:10746E00C06F000EC16F000EC26F000EC36F800E94
:10747E00C2137F0EC313D051C313C0C5C0F5C1C50F
:10748E00C1F5C2C5C2F5C3C5C3F58EEF3BF0D751EA
:10749E00D8A454EF3AF056EF3AF060EF3AF0000EFF
:1074AE00C06F000EC16F000EC26F000EC36F8EEF65
:1074BE003BF0D851D7C5C8F5C96BC85F000EC95B84
:1074CE007F0EC825D16F000EC921D26FC0C5CCF575
:1074DE00C1C5CDF5C2C5CEF5C3C5CFF5000EC06F83
:1074EE00000EC16F000EC26F000EC36F000ED36F81
:1074FE00000ED46F000ED56F000ED66FD86BC0EF96
:10750E003AF0D851D8B48EEF3AF090EF3AF0A7EFA8
:10751E003AF0D890CC37CD37CE37CF37D890C0375A
:10752E00C137C237C337D6AF9FEF3AF0A1EF3AF06B
:10753E00A2EF3AF0C081D890D337D437D537D637AB
:10754E00C451CC5DC551CD59C651CE59C751CF5935
:10755E00D8A0B4EF3AF0B6EF3AF0BFEF3AF0D68DCE
:10756E00C451CC5FC551CD5BC651CE5BC751CF5B0D
:10757E00D82B190ED865C6EF3AF0C8EF3AF088EF5F
:10758E003AF0CC51CD11CE11CF11D8B4D1EF3AF093
:10759E00D3EF3AF0EBEF3AF0D381EBEF3AF0D8902D
:1075AE00C037C137C237C337D6AFE0EF3AF0E2EF9C
:1075BE003AF0E3EF3AF0C081D890D337D437D537CD
:1075CE00D637D107D8A0D207C2AFF0EF3AF0F2EF1C
:1075DE003AF0D6EF3AF0D86BD6AFF8EF3AF0FAEFC2
:1075EE003AF01EEF3BF0FF0ED315C86FFF0ED41509
:1075FE00C96FFF0ED515CA6F7F0ED615CB6FC8514A
:10760E00C911CA11CB11D8B40FEF3BF011EF3BF0FB
:10761E0015EF3BF0010ED86F1EEF3BF0C0A11AEF35
:10762E003BF01CEF3BF01EEF3BF011EF3BF0D8515F
:10763E00D8B424EF3BF026EF3BF04AEF3BF0010EBF
:10764E00C027000EC123C223C323C3A131EF3BF0D9
:10765E0033EF3BF04AEF3BF0C0C5C8F5C1C5C9F5E5
:10766E00C2C5CAF5C3C5CBF5CB35CB33CA33C93387
:10767E00C833C8C5C0F5C9C5C1F5CAC5C2F5CBC5A5
:10768E00C3F5D14BD22BD2BF55EF3BF0D25108E10F
:10769E00D129D8A055EF3BF057EF3BF062EF3BF00E
:1076AE00000ED26FD169000EC06F000EC16F000EBA
:1076BE00C26F000EC36FD2BF6FEF3BF0D25106E127
:1076CE00D105D8B06DEF3BF06FEF3BF07CEF3BF0A8
:1076DE00000ED26F000ED16F000EC06F000EC16F84
:1076EE00000EC26F000EC36FD06BD1C5D7F5D7A1F8
:1076FE0083EF3BF085EF3BF088EF3BF0C28F89EFD5
:10770E003BF0C29FD890D731C36F42EF3AF01200D0
:10771E0006014C6FF5EC72F064C54EF665C54FF67A
:10772E0066C550F667C551F6060120EE02F04651C9
:10773E00D9264751DA22DF50D8B4A8EF3BF0AAEF92
:10774E003BF0E7EF3BF020EE08F04651D9264751CB
:10775E00DA22DEC468F5DEC469F5DEC46AF5DEC47D
:10776E006BF58DEC65F068C552F669C553F66AC5C2
:10777E0054F66BC555F60601555154110BE1880EA2
:10778E00525D130E5359D8A0CFEF3BF0D1EF3BF023
:10779E0017EF3DF020EE02F04651D9264751DA227E
:1077AE00DF6A48C6D9F449C6DAF4DF6A4AC6D9F4A4
:1077BE004BC6DAF4010EDF6E17EF3DF017EF3DF01A
:1077CE0020EE03F04651D9264751DA22DF50D8B4C5
:1077DE00F3EF3BF0F5EF3BF0FDEF3BF048C6D9F48D
:1077EE0049C6DAF4010EDF6E17EF3DF04C5158EC3E
:1077FE002FF00501F15106014D6F4D05D8A40AEF8A
:10780E003CF00CEF3CF09AEF3CF046C6D9F447C67C
:10781E00DAF4DF50D8A416EF3CF018EF3CF02EEF60
:10782E003CF020EE04F04651D9264751DA224EC6DE
:10783E00DEF44FC6DEF450C6DEF451C6DEF446C6A4
:10784E00D9F447C6DAF4010EDF6E17EF3DF020EEE5
:10785E0004F04651D9264751DA22DEC468F5DEC45B
:10786E0069F5DEC46AF5DEC46BF58DEC65F068C5AE
:10787E0052F669C553F66AC554F66BC555F6060140
:10788E00555154110BE1E90E525D030E5359D8A018
:10789E0053EF3CF055EF3CF017EF3DF048C6D9F4EE
:1078AE0049C6DAF4010EDF6E4AC6D9F44BC6DAF4D5
:1078BE00DF6A20EE02F04651D9264751DA22010E38
:1078CE00DF6E20EE08F04651D9264751DA224EC619
:1078DE00DEF44FC6DEF450C6DEF451C6DEF446C604
:1078EE00D9F447C6DAF4DF6A20EE0CF04651D926F9
:1078FE004751DA22DF2A20EE0CF04651D9264751A5
:10790E00DA22040EDF648EEF3CF090EF3CF0E5EFF0
:10791E003BF020EE03F04651D9264751DA22010EF4
:10792E00DF6E17EF3DF0020E4D19D8A4A1EF3CF01B
:10793E00A3EF3CF006EF3DF020EE01F04651D926C4
:10794E004751DA22DF50D8A4AFEF3CF0B1EF3CF054
:10795E00C9EF3CF020EE04F04651D9264751DA2209
:10796E004EC6DEF44FC6DEF450C6DEF451C6DEF46B
:10797E0020EE01F04651D9264751DA22010EDF6E74
:10798E0017EF3DF020EE04F04651D9264751DA228A
:10799E00DEC468F5DEC469F5DEC46AF5DEC46BF5D7
:1079AE008DEC65F068C552F669C553F66AC554F696
:1079BE006BC555F6060155515411531109E1C90E07
:1079CE00525DD8A0EDEF3CF0EFEF3CF017EF3DF03D
:1079DE0048C6D9F449C6DAF4020EDF6E20EE03F083
:1079EE004651D9264751DA22010EDF6E20EE01F004
:1079FE004651D9264751DA22DF6A17EF3DF048C6C5
:107A0E00D9F449C6DAF4DF6A46C6D9F447C6DAF4C1
:107A1E00DF6A20EE01F04651D9264751DA22DF6A9D
:107A2E00120026C768F527C769F528C76AF529C762
:107A3E006BF58DEC65F068C5C4F669C5C5F66AC50B
:107A4E00C6F66BC5C7F60601C751C611C51109E1C9
:107A5E000B0EC45DD8A036EF3DF038EF3DF044EF8D
:107A6E003DF0E251D8B43EEF3DF040EF3DF044EF33
:107A7E003DF0010EE16FCDEC73F00601E105D8B4D7
:107A8E004BEF3DF04DEF3DF04FEF3DF08DEF3EF003
:107A9E00220E0501646F090E656F480E666F0B0EA0
:107AAE00676FE2C668F5696BE5EC6AF00601E251B4
:107ABE00FE0FCE6F220E0501646F090E656FCEC6E6
:107ACE0066F520EC67F064C5C8F665C5C9F6230EE9
:107ADE000601CE25D96EDA6A090EDA22DF50C06FA2
:107AEE00220ECE25D96EDA6A090EDA22DF50C16F68
:107AFE00C151C36FC26BC051C225CA6F000EC321E4
:107B0E00CB6FCA51C81909E1CB51C919D8B492EF3C
:107B1E003DF094EF3DF098EF3DF074EC6CF08DEF8E
:107B2E003EF028C9CCF6E251F70FCD6FCC51CD19EE
:107B3E00D8B4A4EF3DF0A6EF3DF0A8EF3DF094EFE2
:107B4E003DF0100E09012319D8A4B0EF3DF0B2EFAD
:107B5E003DF0C2EF3DF00E0E2519D8A4B9EF3DF061
:107B6E00BBEF3DF0C2EF3DF0220E0501646F090E32
:107B7E00656F66EC57F0AA0E09012219D8A4CAEF58
:107B8E003DF0CCEF3DF094EF3DF05A0E2319D8A402
:107B9E00D3EF3DF0D5EF3DF094EF3DF072EF3EF0B8
:107BAE002405D8A4DDEF3DF0DFEF3DF0E6EF3DF02C
:107BBE00220E0601876F090E886F0CEC54F0020E30
:107BCE0009012419D8A4EEEF3DF0F0EF3DF094EF4B
:107BDE003DF0220E0601876F090E886FA8EC4AF061
:107BEE0094EF3DF0020E2419D8A400EF3EF002EF00
:107BFE003EF094EF3DF0220E0601876F090E886F5E
:107C0E0084EC5AF094EF3DF0020E2419D8A412EF32
:107C1E003EF014EF3EF094EF3DF0220E0601876F1A
:107C2E00090E886F4FEC4CF094EF3DF02405D8A46C
:107C3E0023EF3EF025EF3EF02CEF3EF0220E060134
:107C4E00876F090E886F1FEC51F0020E090124197F
:107C5E00D8A434EF3EF036EF3EF094EF3DF0220E16
:107C6E0006019B6F090E9C6FB5EC42F094EF3DF050
:107C7E002405D8A445EF3EF047EF3EF04EEF3EF020
:107C8E00220E0601876F090E886F05EC5AF0020E60
:107C9E0009012419D8A456EF3EF058EF3EF094EFA8
:107CAE003DF0220E06019B6F090E9C6F9FEC54F067
:107CBE0094EF3DF02405D8A467EF3EF069EF3EF057
:107CCE0094EF3DF0220E0601876F090E886FEFECE0
:107CDE0057F094EF3DF02551010AD8B4D7EF3DF09F
:107CEE00030AD8B41DEF3EF00A0AD8B43FEF3EF0B7
:107CFE001E0AD8B461EF3EF0010AD8B4F9EF3DF098
:107D0E00400AD8B40BEF3EF094EF3DF01200000E97
:107D1E0006014A6F000E4B6FA00E4C6F400E4D6F5A
:107D2E006F0E4E6F120E4F6F830E506F400E516FCF
:107D3E00000E526F400E536F1C0E546F460E556F51
:107D4E00000E566F500E576FC30E586F470E596F79
:107D5E00000E5A6F000E5B6F7A0E5C6F450E5D6FF4
:107D6E00330E5E6F130E5F6F950E606F430E616F75
:107D7E00000E0501DD6F000EDE6F800EDF6FBF0E91
:107D8E00E06F4EC6ABF54FC6ACF550C6ADF551C65D
:107D9E00AEF546C699F547C69AF5000E9ABFFF0E88
:107DAE009B6F9C6F010ECCEC49F099C5A7F59AC557
:107DBE00A8F59BC5A9F59CC5AAF5D9EC33F0A7C5C6
:107DCE00C4F5A8C5C5F5A9C5C6F5AAC5C7F54AC661
:107DDE00ABF54BC6ACF54CC6ADF54DC6AEF5FF0ECC
:107DEE000501996F0F0E9A6F000E9B6F000E9C6F20
:107DFE00000ECCEC49F099C5A7F59AC5A8F59BC520
:107E0E00A9F59CC5AAF5D9EC33F0A7C5C0F5A8C550
:107E1E00C1F5A9C5C2F5AAC5C3F5C6EC39F0C0C5F2
:107E2E00D9F5C1C5DAF5C2C5DBF5C3C5DCF5FCEC89
:107E3E002CF0D9C56AF6DAC56BF6DBC56CF6DCC577
:107E4E006DF66AC6A7F56BC6A8F56CC6A9F56DC624
:107E5E00AAF552C6ABF553C6ACF554C6ADF555C62C
:107E6E00AEF5D9EC33F0A7C562F6A8C563F6A9C581
:107E7E0064F6AAC565F656C6C4F557C6C5F558C606
:107E8E00C6F559C6C7F562C6C0F563C6C1F564C668
:107E9E00C2F565C6C3F5C6EC39F0C0C56EF6C1C5F0
:107EAE006FF6C2C570F6C3C571F66EC608F66FC61C
:107EBE0009F670C60AF671C60BF6C9EC29F008C6AB
:107ECE0072F609C673F60AC674F60BC675F672C656
:107EDE00ABF573C6ACF574C6ADF575C6AEF55AC640
:107EEE00C4F55BC6C5F55CC6C6F55DC6C7F5000E26
:107EFE000501C06F000EC16F800EC26F3F0EC36FC3
:107F0E00C6EC39F0C0C5A7F5C1C5A8F5C2C5A9F51F
:107F1E00C3C5AAF5D9EC33F0A7C5DDF5A8C5DEF5C6
:107F2E00A9C5DFF5AAC5E0F55EC6C4F55FC6C5F501
:107F3E0060C6C6F561C6C7F5000E0501C06F000E1E
:107F4E00C16F800EC26F3F0EC36FC6EC39F0C0C555
:107F5E00D9F5C1C5DAF5C2C5DBF5C3C5DCF5FCEC58
:107F6E002CF0D9C576F6DAC577F6DBC578F6DCC522
:107F7E0079F6000E0501C06F000EC16F800EC26F44
:107F8E003F0EC36F76C6C4F577C6C5F578C6C6F57F
:107F9E0079C6C7F5C6EC39F0C0C566F6C1C567F639
:107FAE00C2C568F6C3C569F666C6D9F567C6DAF501
:107FBE0068C6DBF569C6DCF5330E0501DD6F930E81
:107FCE00DE6F880EDF6FC30EE06FFCEC2CF0D9C5B0
:107FDE0046F6DAC547F6DBC548F6DCC549F61200AB
:107FEE0006012C6F160E06012C19D8A401EF40F0D5
:107FFE0003EF40F09FEF40F0160EFBEC46F06CC521
:10800E0028F66DC529F6000E0501C46FF00EC56F7A
:10801E007F0EC66F450EC76F28C699F529C69AF50D
:10802E00000E9ABFFF0E9B6F9C6F010ECCEC49F0B9
:10803E0099C5C0F59AC5C1F59BC5C2F59CC5C3F5DA
:10804E00C6EC39F0C0C5A7F5C1C5A8F5C2C5A9F5DE
:10805E00C3C5AAF53D0E0501AB6F0A0EAC6F830EBC
:10806E00AD6F400EAE6FD9EC33F0A7C518F6A8C5AC
:10807E0019F6A9C51AF6AAC51BF6410E06011C6F04
:10808E005C0E1D6FA80E1E6F3D0E1F6F1CC6ABF54E
:10809E001DC6ACF51EC6ADF51FC6AEF518C6A7F5C6
:1080AE0019C6A8F51AC6A9F51BC6AAF5D9EC33F060
:1080BE00A7C5C0F5A8C5C1F5A9C5C2F5AAC5C3F522
:1080CE00CD0E0501C46FCC0EC56FCC0EC66F3D0E26
:1080DE00C76FC6EC39F0C0C52DF6C1C52EF6C2C5A8
:1080EE002FF6C3C530F62DC60CF62EC60DF62FC6CE
:1080FE000EF630C60FF6660E0601106F660E116F85
:10810E00660E126F400E136F4FEC52F00601D8A0A0
:10811E0093EF40F095EF40F042EF41F0660E2D6F79
:10812E00660E2E6F660E2F6F400E306F42EF41F0CF
:10813E00040E2C19D8A4A6EF40F0A8EF40F042EFA1
:10814E0041F0040EFBEC46F06CC52AF66DC52BF61D
:10815E00000E0501C46FF00EC56F7F0EC66F450E83
:10816E00C76F2AC699F52BC69AF5000E9ABFFF0E59
:10817E009B6F9C6F010ECCEC49F099C5C0F59AC56A
:10818E00C1F59BC5C2F59CC5C3F5C6EC39F0C0C59B
:10819E00A7F5C1C5A8F5C2C5A9F5C3C5AAF56F0E49
:1081AE000501AB6F120EAC6F830EAD6F400EAE6F4E
:1081BE00D9EC33F0A7C520F6A8C521F6A9C522F63D
:1081CE00AAC523F62A0E0601246FFC0E256F8B0E10
:1081DE00266F3D0E276F24C6ABF525C6ACF526C619
:1081EE00ADF527C6AEF520C6A7F521C6A8F522C661
:1081FE00A9F523C6AAF5D9EC33F0A7C5C0F5A8C5D5
:10820E00C1F5A9C5C2F5AAC5C3F5CD0E0501C46F4A
:10821E00CC0EC56F4C0EC66F3E0EC76FC6EC39F056
:10822E00C0C52DF6C1C52EF6C2C52FF6C3C530F694
:10823E002DC60CF62EC60DF62FC60EF630C60FF650
:10824E00000E0601106F000E116F000E126F400E21
:10825E00136F4FEC52F00601D8A038EF41F03AEF11
:10826E0041F042EF41F0000E2D6F000E2E6F000E0A
:10827E002F6F400E306F2DC6A7F52EC6A8F52FC650
:10828E00A9F530C6AAF5000E0501AB6F000EAC6F56
:10829E007A0EAD6F440EAE6FD9EC33F0A7C514F65F
:1082AE00A8C515F6A9C516F6AAC517F612003AC73F
:1082BE0068F53BC769F53CC76AF53DC76BF58DECB4
:1082CE0065F068C59BF569C59CF56AC59DF56BC5DE
:1082DE009EF52C0EFBEC46F06CC59FF56DC5A0F51A
:1082EE005D50D8B47DEF41F07FEF41F08CEF41F05F
:1082FE00F5EC72F064C53AF765C53BF766C53CF719
:10830E0067C53DF7010E506E5D6A5150D8A492EFCD
:10831E0041F094EF41F09AEF42F005019E519D110C
:10832E000BE1880E9B5D130E9C59D8A0A1EF41F076
:10833E00A3EF41F09AEF42F0010E516E9AEF42F028
:10834E005050D8A4ADEF41F0AFEF41F0D9EF41F06E
:10835E009E519D110BE1B80E9B5D0B0E9C59D8A042
:10836E00BBEF41F0BDEF41F0C0EF41F05E6A010E90
:10837E00506E350E9F5D080EA059D8A0C9EF41F082
:10838E00CBEF41F0B4EF42F0010E526EF5EC72F00D
:10839E0064C53AF765C53BF766C53CF767C53DF75B
:1083AE00B4EF42F05150D8A4DFEF41F0E1EF41F0CD
:1083BE00F9EF41F0730E9F5D060EA059D8A0EAEFBB
:1083CE0041F0ECEF41F0F9EF41F0010E526EF5EC99
:1083DE0072F064C53AF765C53BF766C53CF767C5ED
:1083EE003DF7506A5104D8A4FFEF41F001EF42F07F
:1083FE00B4EF42F0350E05019F5D080EA059D8A0CE
:10840E000BEF42F00DEF42F0B4EF42F0010E526E60
:10841E00F5EC72F064C53AF765C53BF766C53CF7F7
:10842E0067C53DF7506AB4EF42F0576A010E5E6EB3
:10843E005104D8A425EF42F027EF42F04FEF42F05F
:10844E00A40E9F5D060EA059D8B030EF42F032EF69
:10845E0042F035EF42F0526A0FEF42F0D70E9F5DB9
:10846E00060EA059D8A03EEF42F040EF42F0B4EF16
:10847E0042F03A0E9F5D070EA059D8B049EF42F078
:10848E004BEF42F0B4EF42F0020E526ECDEF41F0E0
:10849E005150D8A455EF42F057EF42F0B4EF42F0EE
:1084AE00A40E9F5D060EA059D8B060EF42F062EFA9
:1084BE0042F066EF42F0010E516E32EF42F0D70EEF
:1084CE009F5D060EA059D8A06FEF42F071EF42F0FB
:1084DE00B4EF42F03A0E9F5D070EA059D8B07AEF76
:1084EE0042F07CEF42F0B4EF42F04BEF42F0010E5F
:1084FE00576E350E9F5D080EA059D8A089EF42F039
:10850E008BEF42F08DEF42F0CBEF41F0A40E9F5D6A
:10851E00060EA059D8B096EF42F098EF42F0B4EFA5
:10852E0042F032EF42F052500501996F9A6B9A5118
:10853E00000AD8B4A5EF42F0B4EF42F09951000A08
:10854E00D8B4A7EF41F0010AD8B41CEF42F0030AE9
:10855E00D8B47EEF42F0B4EF42F01200000E0601E6
:10856E00B46F000EB56F000EB66F000EB76F21EE32
:10857E009FF2100EDE6AE806FDE29F0E0501646FA3
:10858E00060E656F9BC666F59CC667F5000E696F95
:10859E00110E686FE5EC6AF00601BE6BBE519D6F61
:1085AE009E6B070E9D27000E9E239F0E9D25D96E56
:1085BE00060E9E21DA6EB40EBE25E16EE26A060E3E
:1085CE00E222DFC4E7F4150E06019D6FC60EE82EFB
:1085DE00FED79D2FFCD700000601BE2B030EBE65F5
:1085EE00FBEF42F0FDEF42F0D5EF42F0B5C664F579
:1085FE00B451A1EC66F064C5B8F665C5B9F6B7C658
:10860E0064F50601B651A1EC66F064C5BAF665C50F
:10861E00BBF6580E0601B85D020EB959D8A01AEF76
:10862E0043F01CEF43F027EF43F0470EB85D050E05
:10863E00B959D8A025EF43F027EF43F02BEF43F0C5
:10864E00C2EC61F0E1EF43F0BB5109E13C0EBA5DC3
:10865E00D8A034EF43F036EF43F027EF43F0BB5191
:10866E0009E1970EBA5DD8A03FEF43F041EF43F01A
:10867E0043EF43F027EF43F0B40E0501C06F060E33
:10868E00C16F020EC26F020E25EC70F0B60E050120
:10869E00C06F060EC16F020EC26F060E25EC70F093
:1086AE00D00E06019D6FC90EE82EFED79D2FFCD76A
:1086BE0000D0550E06019F6F020E0501796F020E56
:1086CE00E5EC6EF079C5B0F67AC5B1F6A60E0501E9
:1086DE00646F060E656FB0C666F5B1C667F5000E1F
:1086EE00696F020E686FE5EC6AF0020E0501796F94
:1086FE00060EE5EC6EF079C5B2F67AC5B3F6A80EA5
:10870E000501646F060E656FB2C666F5B3C667F5F2
:10871E00000E696F020E686FE5EC6AF09F0E0501A0
:10872E00646F060E656F0F0E666F20EC67F064C502
:10873E00BCF665C5BDF6BCC6AFF60601BD51AE6F43
:10874E00BF6B5D0E756F3E0E766F9F0EBF25D96E99
:10875E00DA6A060EDA22DF509D6F9D51776F786BC5
:10876E00AEEC70F0100E0601BF61C0EF43F0C2EF29
:10877E0043F0C8EF43F06A0E756F3E0E766FAEECA7
:10878E0070F00601BF2B100EBF65D0EF43F0D2EF95
:10879E0043F0A8EF43F09F0E0501646F060E656F60
:1087AE00000E676F000E666F000E696F110E686F18
:1087BE0071EC6EF012000EC7E9F50FC7EAF510C79F
:1087CE00EBF511C7ECF5D9C5E9F5DAC5EAF5DBC568
:1087DE00EBF5DCC5ECF5810E0501DD6FFF0EDE6FEE
:1087EE00E9C5DFF5EAC5E0F5EBC5E1F5ECC5E2F567
:1087FE00180E07EF44F0D890E233E133E033DF3365
:10880E00E82E02EF44F0DF51DD25E76F000EDE218A
:10881E00E86FE8BF1CEF44F0E85109E1170EE75D81
:10882E00D8A01CEF44F01EEF44F028EF44F0D9C559
:10883E00D9F5DAC5DAF5DBC5DBF5DCC5DCF5ECEF31
:10884E0044F0E8BF2DEF44F02FEF44F0A0EF44F0DA
:10885E00E7C5DDF5FF0EDE6FFF0EDF6F7F0EE06FFB
:10886E00000EE16FDD673EEF44F046EF44F0E13578
:10887E00E133E033DF33DE33DD2F39EF44F0DEC595
:10888E00E3F5DFC5E4F5E0C5E5F5E1C5E6F505017F
:10889E00E351E915DD6FE451EA15DE6FE551EB1595
:1088AE00DF6FE651EC15E06FDD51DE11DF11E011E7
:1088BE00D8A464EF44F066EF44F068EF44F01EEF86
:1088CE0044F0E9C5DDF5EAC5DEF5EBC5DFF5ECC52F
:1088DE00E0F5200E78EF44F0D890E033DF33DE334E
:1088EE00DD33E82E73EF44F0DD51DE11DF11E011C0
:1088FE00D8B484EF44F086EF44F08EEF44F0E351A9
:10890E00E927E451EA23E551EB23E651EC23E31D7D
:10891E00DD6FE41DDE6FE51DDF6FE61DE06FDD51DF
:10892E00E917DE51EA17DF51EB17E051EC17E4EFD0
:10893E0044F0E9C5DDF5EAC5DEF5EBC5DFF5ECC5BE
:10894E00E0F5200EB0EF44F0D890E033DF33DE33A5
:10895E00DD33E82EABEF44F0DD51DE11DF11E01117
:10896E00D8A4BCEF44F0BEEF44F0C8EF44F0000EC4
:10897E00E96F000EEA6F000EEB6F000EEC6FE4EF86
:10898E0044F0D890E935DD6FEA35DE6FEB35DF6FF9
:10899E00EC35E06FDD51DE11DF11E011D8B4DAEF06
:1089AE0044F0DCEF44F0E4EF44F0000EE96F000E0B
:1089BE00EA6F800EEB6FBF0EEC6FE9C5D9F5EAC515
:1089CE00DAF5EBC5DBF5ECC5DCF5120046C768F54C
:1089DE0047C769F548C76AF549C76BF58DEC65F071
:1089EE0068C562F669C563F66AC564F66BC565F659
:1089FE00E5EF45F0020EC2EC70F0F5EC72F064C5D6
:108A0E0046F765C547F766C548F767C549F7020ECD
:108A1E000601F36FF5EF45F065516411631109E13D
:108A2E00C90E625DD8A01EEF45F020EF45F0F5EFC0
:108A3E0045F0020ED6EC70F0030E0601F36FF5EF63
:108A4E0045F0010EE56F000E0501C46F000EC56FF7
:108A5E007A0EC66F440EC76F110EFBEC46F0050181
:108A6E006CC599F56DC59AF59B6B9C6B000ECCECA5
:108A7E0049F099C5C0F59AC5C1F59BC5C2F59CC50F
:108A8E00C3F5C6EC39F0C0C5A7F5C1C5A8F5C2C57A
:108A9E00A9F5C3C5AAF5000E0501AB6F000EAC6FAC
:108AAE00110EAD6F430EAE6FD9EC33F0A7C5BFF705
:108ABE00A8C5C0F7A9C5C1F7AAC5C2F7040EF7EC41
:108ACE003FF014C666F615C667F616C668F617C6E4
