:0400000081EF00F09C
:10000800A75FA75FA75FA75F4000A75F4000A75F44
:100018007D5FA75FA05FA75FA75FA75FA75FA75FD9
:10002800A15F400040004000A75FA75FA75FA75FF0
:10003800A75FA75FA75F805C945BA75FA75F6F5C04
:10004800AC5E975FA75FA75F40004000A75FA75F10
:10005800A75FA75FA75F4000A75FA75F4D5C2E570C
:100068007F5FA75FA75FA75FA75FA75FA75FA75F80
:10007800BD5EC45E5A5874564000A75F5E5C5B570D
:10008800B55E4A5FA75FA75FA75FA75FA75FA75F88
:10009800A75FA75FA75FA75F4000A75F400040007A
:1000A800815FA75FA75FA75FA75FA75FA75FA75F3E
:1000B800A75FA75FA75FCF5BA75FA75FA75FA75FE4
:1000C800A75FA75FA75FA75FA75FA75FA75FA75FF8
:1000D800A75FA75FA75FA75FA75FA75FA75FA75FE8
:1000E8004000A75FA75FA75F4000400040004000B6
:0E00F800A75FA75FA75FA75FFF002EEFA9F02D
:10F6DE000000C0C101C30302C2C60607C705C5C4E8
:10F6EE0004CC0C0DCD0FCFCE0E0ACACB0BC9090818
:10F6FE00C8D81819D91BDBDA1A1EDEDF1FDD1D1C58
:10F70E00DC14D4D515D71716D6D21213D311D1D0E7
:10F71E0010F03031F133F3F23236F6F737F5353487
:10F72E00F43CFCFD3DFF3F3EFEFA3A3BFB39F9F857
:10F73E003828E8E929EB2B2AEAEE2E2FEF2DEDECF7
:10F74E002CE42425E527E7E62622E2E323E1212027
:10F75E00E0A06061A163A3A26266A6A767A5656427
:10F76E00A46CACAD6DAF6F6EAEAA6A6BAB69A9A897
:10F77E006878B8B979BB7B7ABABE7E7FBF7DBDBCD7
:10F78E007CB47475B577B7B67672B2B373B1717067
:10F79E00B0509091519353529296565797559594C7
:10F7AE00549C5C5D9D5F9F9E5E5A9A9B5B995958D7
:10F7BE0098884849894B8B8A4A4E8E8F4F8D4D4C77
:10F7CE008C448485458747468682424383418180A7
:10F7DE004000C1814001C0804101C0804100C18113
:10F7EE004001C0804100C1814000C1814001C08004
:10F7FE004101C0804100C1814000C1814001C080F3
:10F80E004100C1814001C0804101C0804100C181E1
:10F81E004001C0804100C1814000C1814001C080D3
:10F82E004100C1814001C0804101C0804100C181C1
:10F83E004000C1814001C0804101C0804100C181B2
:10F84E004001C0804100C1814000C1814001C080A3
:10F85E004101C0804100C1814000C1814001C08092
:10F86E004100C1814001C0804101C0804100C18181
:10F87E004000C1814001C0804101C0804100C18172
:10F88E004001C0804100C1814000C1814001C08063
:10F89E004100C1814001C0804101C0804100C18151
:10F8AE004001C0804100C1814000C1814001C08043
:10F8BE004101C0804100C1814000C1814001C08032
:10F8CE004100C1814001C0804101C0804100C18121
:10F8DE004000C0C101C30302C2C60607C705C5C4A6
:10F8EE0004CC0C0DCD0FCFCE0E0ACACB0BC9090816
:10F8FE00C8D81819D91BDBDA1A1EDEDF1FDD1D1C56
:10F90E00DC14D4D515D71716D6D21213D311D1D0E5
:10F91E0010F03031F133F3F23236F6F737F5353485
:10F92E00F43CFCFD3DFF3F3EFEFA3A3BFB39F9F855
:10F93E003828E8E929EB2B2AEAEE2E2FEF2DEDECF5
:10F94E002CE42425E527E7E62622E2E323E1212025
:10F95E00E0A06061A163A3A26266A6A767A5656425
:10F96E00A46CACAD6DAF6F6EAEAA6A6BAB69A9A895
:10F97E006878B8B979BB7B7ABABE7E7FBF7DBDBCD5
:10F98E007CB47475B577B7B67672B2B373B1717065
:10F99E00B0509091519353529296565797559594C5
:10F9AE00549C5C5D9D5F9F9E5E5A9A9B5B995958D5
:10F9BE0098884849894B8B8A4A4E8E8F4F8D4D4C75
:10F9CE008C448485458747468682424383418180A5
:10F9DE004000C1814001C0804101C0804100C18111
:10F9EE004001C0804100C1814000C1814001C08002
:10F9FE004101C0804100C1814000C1814001C080F1
:10FA0E004100C1814001C0804101C0804100C181DF
:10FA1E004001C0804100C1814000C1814001C080D1
:10FA2E004100C1814001C0804101C0804100C181BF
:10FA3E004000C1814001C0804101C0804100C181B0
:10FA4E004001C0804100C1814000C1814001C080A1
:10FA5E004101C0804100C1814000C1814001C08090
:10FA6E004100C1814001C0804101C0804100C1817F
:10FA7E004000C1814001C0804101C0804100C18170
:10FA8E004001C0804100C1814000C1814001C08061
:10FA9E004100C1814001C0804101C0804100C1814F
:10FAAE004001C0804100C1814000C1814001C08041
:10FABE004101C0804100C1814000C1814001C08030
:10FACE004100C1814001C0804101C0804100C1811F
:10FADE004000C0C101C30302C2C60607C705C5C4A4
:10FAEE0004CC0C0DCD0FCFCE0E0ACACB0BC9090814
:10FAFE00C8D81819D91BDBDA1A1EDEDF1FDD1D1C54
:10FB0E00DC14D4D515D71716D6D21213D311D1D0E3
:10FB1E0010F03031F133F3F23236F6F737F5353483
:10FB2E00F43CFCFD3DFF3F3EFEFA3A3BFB39F9F853
:10FB3E003828E8E929EB2B2AEAEE2E2FEF2DEDECF3
:10FB4E002CE42425E527E7E62622E2E323E1212023
:10FB5E00E0A06061A163A3A26266A6A767A5656423
:10FB6E00A46CACAD6DAF6F6EAEAA6A6BAB69A9A893
:10FB7E006878B8B979BB7B7ABABE7E7FBF7DBDBCD3
:10FB8E007CB47475B577B7B67672B2B373B1717063
:10FB9E00B0509091519353529296565797559594C3
:10FBAE00549C5C5D9D5F9F9E5E5A9A9B5B995958D3
:10FBBE0098884849894B8B8A4A4E8E8F4F8D4D4C73
:10FBCE008C448485458747468682424383418180A3
:10FBDE004000C1814001C0804101C0804100C1810F
:10FBEE004001C0804100C1814000C1814001C08000
:10FBFE004101C0804100C1814000C1814001C080EF
:10FC0E004100C1814001C0804101C0804100C181DD
:10FC1E004001C0804100C1814000C1814001C080CF
:10FC2E004100C1814001C0804101C0804100C181BD
:10FC3E004000C1814001C0804101C0804100C181AE
:10FC4E004001C0804100C1814000C1814001C0809F
:10FC5E004101C0804100C1814000C1814001C0808E
:10FC6E004100C1814001C0804101C0804100C1817D
:10FC7E004000C1814001C0804101C0804100C1816E
:10FC8E004001C0804100C1814000C1814001C0805F
:10FC9E004100C1814001C0804101C0804100C1814D
:10FCAE004001C0804100C1814000C1814001C0803F
:10FCBE004101C0804100C1814000C1814001C0802E
:10FCCE004100C1814001C0804101C0804100C1811D
:10FCDE004000C0C101C30302C2C60607C705C5C4A2
:10FCEE0004CC0C0DCD0FCFCE0E0ACACB0BC9090812
:10FCFE00C8D81819D91BDBDA1A1EDEDF1FDD1D1C52
:10FD0E00DC14D4D515D71716D6D21213D311D1D0E1
:10FD1E0010F03031F133F3F23236F6F737F5353481
:10FD2E00F43CFCFD3DFF3F3EFEFA3A3BFB39F9F851
:10FD3E003828E8E929EB2B2AEAEE2E2FEF2DEDECF1
:10FD4E002CE42425E527E7E62622E2E323E1212021
:10FD5E00E0A06061A163A3A26266A6A767A5656421
:10FD6E00A46CACAD6DAF6F6EAEAA6A6BAB69A9A891
:10FD7E006878B8B979BB7B7ABABE7E7FBF7DBDBCD1
:10FD8E007CB47475B577B7B67672B2B373B1717061
:10FD9E00B0509091519353529296565797559594C1
:10FDAE00549C5C5D9D5F9F9E5E5A9A9B5B995958D1
:10FDBE0098884849894B8B8A4A4E8E8F4F8D4D4C71
:10FDCE008C448485458747468682424383418180A1
:10FDDE004000C1814001C0804101C0804100C1810D
:10FDEE004001C0804100C1814000C1814001C080FE
:10FDFE004101C0804100C1814000C1814001C080ED
:10FE0E004100C1814001C0804101C0804100C181DB
:10FE1E004001C0804100C1814000C1814001C080CD
:10FE2E004100C1814001C0804101C0804100C181BB
:10FE3E004000C1814001C0804101C0804100C181AC
:10FE4E004001C0804100C1814000C1814001C0809D
:10FE5E004101C0804100C1814000C1814001C0808C
:10FE6E004100C1814001C0804101C0804100C1817B
:10FE7E004000C1814001C0804101C0804100C1816C
:10FE8E004001C0804100C1814000C1814001C0805D
:10FE9E004100C1814001C0804101C0804100C1814B
:10FEAE004001C0804100C1814000C1814001C0803D
:10FEBE004101C0804100C1814000C1814001C0802C
:10FECE004100C1814001C0804101C0804100C1811B
:10FEDE00400262010000000000000000000000006F
:10FEEE000000000000000000000000000000000004
:10FEFE0000000000000000000000000000000000F4
:10FF0E0000000000000000000000000000DA79018F
:10FF1E00B679019279010000002860010000007C92
:10FF2E007301A06E01000000607B01000000000064
:10FF3E0000000000000000000000000000000000B3
:10FF4E000000000000000000000000000000006A39
:10FF5E007A01000000467A01227A01FE7901000042
:10FF6E00009A6A01000000A66B01FE6B0100000002
:10FF7E000000000000005E7701000000000000435A
:10FF8E0048317C493A252E32667C50574D3A2564CD
:10FF9E007C563A252E32667C504F573A252E3266C5
:10FFAE007C0A0D20004348327C493A252E32667C6D
:10FFBE0050574D3A25647C563A252E32667C504F6A
:10FFCE00573A252E32667C0A0D200054503A25648D
:10FFDE007C55524745313A25647C55524745323A55
:10FFEE0025647C200A0D2000696E66006E616E002D
:01FFFE000002
:020000040001F9
:1000000006014C6B26C64DF627C64EF628C64FF69F
:1000100029C650F650BF11EF80F00FEF80F025EFAA
:1000200080F0010E4C6F4DC66BF54EC66CF54FC699
:100030006DF550C66EF5FAECB9F06BC54DF66CC5B2
:100040004EF66DC54FF66EC550F6000E0601526FA6
:10005000000E516FACC63CF6ADC63DF64C51D8B45F
:1000600034EF80F036EF80F04AEF80F04C51D8A4A6
:100070003CEF80F03EEF80F044EF80F0000E326FF6
:100080002B0E316F48EF80F0000E326F2D0E316F66
:1000900031C64CF64DC66BF54EC66CF54FC66DF5C8
:1000A00050C66EF5AEECA8F005016B056C11D8A436
:1000B0005CEF80F05EEF80F095EF80F006014C5130
:1000C000D8B465EF80F067EF80F070EF80F04CC639
:1000D00048FA3C07D8A03D07000E526F010E516F41
:1000E000480E512505016B6F0A0E060152210501CC
:1000F0006C6FF60E6D6FFF0E6E6F61ECB9F006015E
:10010000FD0E3C27FF0E3D2324C67FF525C680F556
:10011000480E0501816F0A0E826F3CC683F53DC60D
:1001200084F54DECB3F037EF85F04DC66BF54EC658
:100130006CF54FC66DF550C66EF5AEECA8F0050136
:100140006B516C11D8A4A7EF80F0A9EF80F0CCEF31
:1001500080F006014C51D8B4B0EF80F0B2EF80F0DF
:10016000BBEF80F04CC648FA3C07D8A03D07000E14
:10017000526F010E516F480E512505016B6F0A0E2B
:100180000601522105016C6FFA0E6D6FFF0E6E6F46
:1001900061ECB9F07FEF80F0000E0601536F000EA6
:1001A000546F800E556F3F0E566F000E3B6F000E62
:1001B0003A6F4DC66BF54EC66CF54FC66DF550C621
:1001C0006EF5000E05016F6F000E706F000E716FFF
:1001D000000E726F68ECAFF00501D8B0F2EF80F05E
:1001E000F4EF80F0EEEF81F001EF81F03EC653F6C0
:1001F0003FC654F640C655F641C656F606013A4B80
:100200003B2B53C600F654C601F655C602F656C639
:1002100003F6000E0601046F000E056F200E066F38
:10022000410E076F5EEC8AF000C63EF601C63FF64F
:1002300002C640F603C641F606013E514D5D05017A
:100240006B6F06013F514E5905016C6F060140511D
:100250004F5905016D6F06014151505905016E6FEF
:10026000A7ECB5F005016EBF41EF81F06E516D1145
:100270006C1109E1020E6B5DD8A041EF81F043EFF4
:1002800081F0F6EF80F03EC608F63FC609F640C69C
:100290000AF641C60BF64DC60CF64EC60DF64FC615
:1002A0000EF650C60FF654ECA5F00601D8A05BEF91
:1002B00081F05DEF81F0F6EF80F053514D5D050167
:1002C0006B6F060154514E5905016C6F0601555173
:1002D0004F5905016D6F06015651505905016E6F5A
:1002E000A7ECB5F005016EBF83EF81F06E516D1183
:1002F0006C1107E1020E6B5DD8B081EF81F083EFE6
:1003000081F0D4EF81F053C64DF654C64EF655C673
:100310004FF656C650F6EEEF81F053C6AEF554C612
:10032000AFF555C6B0F556C6B1F5000E0501B26F72
:10033000000EB36F200EB46F410EB56F85EC8EF0DA
:10034000AEC553F6AFC554F6B0C555F6B1C556F6B1
:1003500006013A07D8A03B0753514D5D05016B6F6D
:10036000060154514E5905016C6F060155514F5904
:1003700005016D6F06015651505905016E6FA7ECCE
:10038000B5F005016EBFD2EF81F06E516D116C11A9
:1003900007E1020E6B5DD8B0D0EF81F0D2EF81F0B3
:1003A000D4EF81F083EF81F04DC608F64EC609F612
:1003B0004FC60AF650C60BF653C60CF654C60DF6D9
:1003C00055C60EF656C60FF654ECA5F00601D8A099
:1003D000ECEF81F0EEEF81F08DEF81F02AC634F67C
:1003E00034C635F60601AFBFF8EF81F0FAEF81F0C1
:1003F00000EF82F0AEC62DF6AFC62EF604EF82F007
:10040000000E2E6F060E2D6F2DC638F62EC639F64D
:10041000384B392B660E3519D8A411EF82F013EF43
:1004200082F033EF82F03BBF1AEF82F018EF82F0D8
:1004300026EF82F0000E536F000E546F800E556F42
:100440003F0E566F000E3B6F000E3A6F670E341969
:10045000D8B42DEF82F02FEF82F033EF82F03A51D3
:1004600038273B513923000E436F000E426F4DC6B3
:1004700044F64EC645F64FC646F650C647F653C636
:100480003EF654C63FF655C640F656C641F6C5EF91
:1004900082F044C6AEF545C6AFF546C6B0F547C6D0
:1004A000B1F553C6B2F554C6B3F555C6B4F556C644
:1004B000B5F585EC8EF0AEC5C7F5AFC5C8F5B0C5CE
:1004C000C9F5B1C5CAF513EC99F0C7C548F6C8C55A
:1004D00049F6C9C54AF6CAC54BF648C620F649C60C
:1004E00021F64AC622F64BC623F6A1ECA7F020C699
:1004F00036F621C637F644C608F645C609F646C69E
:100500000AF647C60BF648C604F649C605F64AC6BB
:1005100006F64BC607F653C600F654C601F655C696
:1005200002F656C603F65EEC8AF000C60CF601C66B
:100530000DF602C60EF603C60FF60DECB8F008C6AF
:1005400044F609C645F60AC646F60BC647F653C634
:10055000AEF554C6AFF555C6B0F556C6B1F5000EAA
:100560000501B26F000EB36F200EB46F410EB56F70
:1005700085EC8EF0AEC553F6AFC554F6B0C555F652
:10058000B1C556F60601424B432B3851425D4351EB
:10059000800A0501E66F06013951800A0501E65916
:1005A000D8A0D5EF82F0D7EF82F049EF82F053C6A2
:1005B00000F654C601F655C602F656C603F6000EFE
:1005C0000601046F000E056FA00E066F400E076F48
:1005D0005EEC8AF000C648F601C649F602C64AF645
:1005E00003C64BF644C608F645C609F646C60AF6E3
:1005F00047C60BF648C60CF649C60DF64AC60EF6B7
:100600004BC60FF654ECA5F00601D8B00AEF83F004
:100610000CEF83F016EF83F0000E486F000E496F69
:10062000000E4A6F000E4B6F40EF83F044C66BF52F
:1006300045C66CF546C66DF547C66EF548C66FF5FE
:1006400049C670F54AC671F54BC672F568ECAFF055
:100650000501D8A02EEF83F030EF83F040EF83F058
:10066000060136B136EF83F038EF83F040EF83F0C8
:10067000000E486F000E496F000E4A6F000E4B6F60
:100680004DC66BF54EC66CF54FC66DF550C66EF592
:1006900048C66FF549C670F54AC671F54BC672F586
:1006A00002EC88F06BC544F66CC545F66DC546F6A0
:1006B0006EC547F644C608F645C609F646C60AF6AC
:1006C00047C60BF6000E0601046F000E056F200EE4
:1006D000066F410E076F3EC600F63FC601F640C6E4
:1006E00002F641C603F65EEC8AF000C60CF601C6BF
:1006F0000DF602C60EF603C60FF654ECA5F0060181
:10070000D8A085EF83F087EF83F0AFEF83F03A4B0B
:100710003B2B3EC600F63FC601F640C602F641C678
:1007200003F6000E046F000E056F200E066F410EDB
:10073000076F5EEC8AF000C63EF601C63FF602C6C1
:1007400040F603C641F6660E06013519D8A4ABEF94
:1007500083F0ADEF83F0AFEF83F0384B392B3EC61B
:1007600053F63FC654F640C655F641C656F63AC64D
:100770002BF63BC62CF6336B000E306F000E2F6F3E
:10078000000E436F000E426FACEF84F044C6AEF52E
:1007900045C6AFF546C6B0F547C6B1F553C6B2F586
:1007A00054C6B3F555C6B4F556C6B5F585EC8EF00E
:1007B000AEC5C7F5AFC5C8F5B0C5C9F5B1C5CAF571
:1007C00013EC99F0C7C548F6C8C549F6C9C54AF63D
:1007D000CAC54BF648C620F649C621F64AC622F6D7
:1007E0004BC623F6A1ECA7F0060121BF03EF84F06E
:1007F000215107E10A0E205DD8B001EF84F003EF2C
:1008000084F013EF84F048C620F649C621F64AC6A4
:1008100022F64BC623F6A1ECA7F020C636F621C679
:1008200037F617EF84F0000E376F090E366F0601AA
:100830003351D8A41EEF84F020EF84F048EF84F009
:100840002CBF27EF84F025EF84F048EF84F0480EAA
:100850005125D96E0A0E5221DA6E2E0EDF6E514BE3
:10086000522B3C07D8A03D07010E336F48EF84F0B0
:10087000480E5125D96E0A0E5221DA6E300EDF6E07
:10088000514B522B3C07D8A03D072F07D8A030076B
:100890002F513011D8A44FEF84F051EF84F038EF8E
:1008A00084F0480E5125D96E0A0E5221DA6E365167
:1008B000300FDF6E514B522B3C07D8A03D0744C68A
:1008C00008F645C609F646C60AF647C60BF648C6F8
:1008D00004F649C605F64AC606F64BC607F653C6E1
:1008E00000F654C601F655C602F656C603F65EEC8F
:1008F0008AF000C60CF601C60DF602C60EF603C657
:100900000FF60DECB8F008C644F609C645F60AC65F
:1009100046F60BC647F653C6AEF554C6AFF555C6F8
:10092000B0F556C6B1F5000E0501B26F000EB36FFB
:10093000200EB46F410EB56F85EC8EF0AEC553F648
:10094000AFC554F6B0C555F6B1C556F606012B072E
:10095000D8A02C07424B432B3851425D4351800AAB
:100960000501E66F06013951800A0501E659D8B044
:10097000BCEF84F0BEEF84F0CDEF84F0060152BFEF
:10098000CBEF84F0525109E14B0E515DD8A0CBEF73
:1009900084F0CDEF84F0C6EF83F0000E0601436FC4
:1009A0004F0E426F480E4225D96E0A0E4321DA6E71
:1009B000DF6A480E0501E66F0A0EE76F0601515126
:1009C0000501E65F060152510501E75B0601425150
:1009D0000501E6256B6F060143510501E7216C6FA8
:1009E000480E6D6F0A0E6E6F51C66FF552C670F5E8
:1009F000D6ECB6F006015151425D516F5251435948
:100A0000526F4C51D8A407EF85F00AEF85F0010E24
:100A10000BEF85F0000E426F436B4C51D8B413EFCF
:100A200085F015EF85F020EF85F05107D8A052072B
:100A3000480E5125D96E0A0E5221DA6E4CC6DFF4EB
:100A400042513C5F43513D5B24C67FF525C680F58E
:100A5000480E51250501816F0A0E0601522105013C
:100A6000826F3CC683F53DC684F54DECB3F01200B1
:100A700026C608F627C609F628C60AF629C60BF6C2
:100A80002AC60CF62BC60DF62CC60EF62DC60FF692
:100A90000DECB8F008C64AF609C64BF60AC64CF685
:100AA0000BC64DF6060120EE01F02451D926255142
:100AB000DA22DEC400F6DEC401F6DEC402F6DEC4CD
:100AC00003F64AC604F64BC605F64CC606F64DC6F6
:100AD00007F65EEC8AF000C62EF601C62FF602C6B7
:100AE00030F603C631F64AC66BF54BC66CF54CC6FC
:100AF0006DF54DC66EF518ECBBF06BC508F66CC510
:100B000009F66DC50AF66EC50BF6000E06010C6FF0
:100B1000000E0D6F480E0E6F420E0F6F54ECA5F0D5
:100B20000601D8B096EF85F098EF85F037EF86F0A4
:100B300020EE1DF02451D9262551DA22DEC46BF5B2
:100B4000DEC46CF5DEC46DF5DEC46EF54AC66FF525
:100B50004BC670F54CC671F54DC672F502EC88F0C7
:100B6000060120EE1DF02451D9262551DA22050177
:100B70006BC5DEF46CC5DEF46DC5DEF46EC5DEF467
:100B8000060120EE0DF02451D9262551DA22DEC4CB
:100B900008F6DEC409F6DEC40AF6DEC40BF620EE63
:100BA0001DF02451D9262551DA22DEC40CF6DEC40C
:100BB0000DF6DEC40EF6DEC40FF654ECA5F0060109
:100BC000D8B0E5EF85F0E7EF85F0FBEF85F020EE9C
:100BD0000DF02451D9262551DA2210EE1DF02451B2
:100BE000E1262551E222DEC4E6F4DEC4E6F4DEC4EA
:100BF000E6F4DEC4E6F420EE1DF02451D92625519A
:100C0000DA22DEC408F6DEC409F6DEC40AF6DEC463
:100C10000BF620EE11F02451D9262551DA22DEC43C
:100C20000CF6DEC40DF6DEC40EF6DEC40FF654EC90
:100C3000A5F00601D8B01FEF86F021EF86F045EF52
:100C400086F020EE11F02451D9262551DA2210EE3B
:100C50001DF02451E1262551E222DEC4E6F4DEC473
:100C6000E6F4DEC4E6F4DEC4E6F445EF86F020EEFA
:100C70001DF02451D9262551DA22000EDE6E000E19
:100C8000DE6E000EDE6E000EDD6E20EE05F02451ED
:100C9000D9262551DA22DEC400F6DEC401F6DEC410
:100CA00002F6DEC403F620EE1DF02451D9262551AC
:100CB000DA22DEC404F6DEC405F6DEC406F6DEC4BF
:100CC00007F65EEC8AF000C632F601C633F602C6BD
:100CD00034F603C635F6060120EE21F02451D9265C
:100CE0002551DA22DEC40CF6DEC40DF6DEC40EF6A3
:100CF000DEC40FF64AC608F64BC609F64CC60AF61D
:100D00004DC60BF60DECB8F008C600F609C601F6A4
:100D10000AC602F60BC603F6060120EE09F02451BE
:100D2000D9262551DA22DEC404F6DEC405F6DEC477
:100D300006F6DEC407F65EEC8AF000C636F601C69B
:100D400037F602C638F603C639F6060120EE21F062
:100D50002451D9262551DA224AC6DEF44BC6DEF4E8
:100D60004CC6DEF44DC6DEF432C66FF533C670F500
:100D700034C671F535C672F52EC66BF52FC66CF507
:100D800030C66DF531C66EF502EC88F06BC53AF6EB
:100D90006CC53BF66DC53CF66EC53DF63AC66BF5C7
:100DA0003BC66CF53CC66DF53DC66EF536C66FF5B7
:100DB00037C670F538C671F539C672F502EC88F0A1
:100DC0006BC546F66CC547F66DC548F66EC549F667
:100DD00024C6D9F425C6DAF4DE04D8A4F2EF86F0EE
:100DE000F4EF86F075EF87F0060149BFFCEF86F05F
:100DF000FAEF86F006EF87F0000E3E6F000E3F6FB1
:100E0000000E406FBF0E416F0EEF87F0000E3E6F79
:100E1000000E3F6F000E406F3F0E416F46C66FF5EC
:100E200047C670F548C671F549C672F53EC66BF502
:100E30003FC66CF540C66DF541C66EF502EC88F014
:100E40006BC520F66CC521F66DC522F66EC523F67E
:100E5000A1ECA7F006012051C2272151C323000EA7
:100E6000146F000E156F480E166F450E176FC2C631
:100E7000A0F5C3C6A1F50501000EA1BFFF0EA26F2C
:100E8000A36F010E0CEC9EF0A0C510F6A1C511F6E3
:100E9000A2C512F6A3C513F6E9ECA5F010C61CF620
:100EA00011C61DF612C61EF613C61FF6000E060169
:100EB000186F000E196F000E1A6F000E1B6F7DEC7D
:100EC000A6F018C620F619C621F61AC622F61BC6C9
:100ED00023F6A1ECA7F020C6C2F621C6C3F6C2C60F
:100EE00024F6C3C625F601EF88F024C6D9F425C63A
:100EF000DAF4020EDE18D8A480EF87F082EF87F0D4
:100F000001EF88F0060149BF8AEF87F088EF87F08C
:100F100094EF87F0000E426F000E436F000E446F97
:100F2000BF0E456F9CEF87F0000E426F000E436FBF
:100F3000000E446F3F0E456F46C66FF547C670F50D
:100F400048C671F549C672F542C66BF543C66CF5E5
:100F500044C66DF545C66EF502EC88F06BC520F60B
:100F60006CC521F66DC522F66EC523F6A1ECA7F07F
:100F700006012051C0272151C123000E146F000E1D
:100F8000156F480E166F450E176FC0C6A0F5C1C687
:100F9000A1F50501000EA1BFFF0EA26FA36F010E08
:100FA0000CEC9EF0A0C510F6A1C511F6A2C512F674
:100FB000A3C513F6E9ECA5F010C61CF611C61DF684
:100FC00012C61EF613C61FF6000E0601186F000E9D
:100FD000196F000E1A6F000E1B6F7DECA6F018C67D
:100FE00020F619C621F61AC622F61BC623F6A1EC76
:100FF000A7F020C6C0F621C6C1F6C0C624F6C1C6F9
:1010000025F6120005016E51800B776F6E516E252B
:10101000796F6DAF0EEF88F010EF88F011EF88F068
:1010200079817951D8B417EF88F019EF88F02DEF56
:1010300088F07929D8A41FEF88F021EF88F029EFF4
:1010400088F0000E6B6F000E6C6F000E6D6F000E5F
:101050006E6F6D8F6E6B35EF88F0000E6B6F000E4C
:101060006C6F000E6D6F000E6E6F7251800B786F9B
:1010700077517819D8B43FEF88F041EF88F042EF0C
:1010800088F0778D72517225786F71AF4AEF88F0D2
:101090004CEF88F04DEF88F078817851D8B453EF59
:1010A00088F055EF88F069EF88F07829D8A45BEFD5
:1010B00088F05DEF88F065EF88F0000E6F6F000E2E
:1010C000706F000E716F000E726F718F726B71EF27
:1010D00088F0000E6F6F000E706F000E716F000EC3
:1010E000726F7951785DD8B078EF88F07AEF88F038
:1010F000A1EF88F077AD7FEF88F081EF88F083EF84
:1011000088F0800E771B79C57AF578C579F57AC5B0
:1011100078F56BC57AF56FC56BF57AC56FF56CC55B
:101120007AF570C56CF57AC570F56DC57AF571C53F
:101130006DF57AC571F56EC57AF572C56EF57AC52D
:1011400072F57A6B795178C573F5746B735F000E25
:10115000745B74BFB5EF88F0745109E11A0E735DCA
:10116000D8A0B5EF88F0B7EF88F0EEEF88F06B51BC
:101170006C116D116E11D8A4C0EF88F0C3EF88F028
:10118000010EC4EF88F0000E7A6F000E6B6F000E38
:101190006C6F000E6D6F000E6E6F78C579F5F7EF0E
:1011A00088F07AA1D6EF88F0D8EF88F0DEEF88F0EB
:1011B000D8907A3101097A6FE0EF88F0D8907A33CD
:1011C0006BA1E5EF88F0E7EF88F0E8EF88F07A8F21
:1011D0006E356E336D336C336B33792B7851795DAB
:1011E000D8A0F5EF88F0F7EF88F0D1EF88F077BD61
:1011F000FCEF88F0FEEF88F03EEF89F07951D8A43B
:1012000004EF89F006EF89F010EF89F0000E6B6FA4
:10121000000E6C6F000E6D6F000E6E6F5DEF8AF04A
:101220006F516B2770516C2371516D2372516E2376
:101230006EA11DEF89F01FEF89F0CBEF89F07AA145
:1012400024EF89F026EF89F02CEF89F0D8907A31DD
:1012500001097A6F2EEF89F0D8907A336BA133EFC2
:1012600089F035EF89F036EF89F07A8F6E356E337D
:101270006D336C336B33792BCBEF89F06F516B5D32
:1012800070516C5971516D596E51800A736F725162
:10129000800A7359D8B04FEF89F051EF89F07CEF95
:1012A00089F06B516F5D736F6C517059746F6D5134
:1012B0007159756F6E517259766FFF0E73256B6F92
:1012C000FF0E74216C6FFF0E75216D6FFF0E76217E
:1012D0006E6F800E771B7A6D7A51D8A472EF89F009
:1012E00074EF89F084EF89F0010E6B27000E6C23F8
:1012F0006D236E2384EF89F06F516B5F70516C5BCF
:1013000071516D5B72516E5B6B516C116D116E1191
:10131000D8A48DEF89F08FEF89F0C4EF89F07A516E
:10132000D8A495EF89F097EF89F0C4EF89F0000E0B
:101330006B6F000E6C6F000E6D6F000E6E6F5DEFC9
:101340008AF0D8906B376C376D376E377AAFABEF6A
:1013500089F0ADEF89F0AEEF89F06B817AA1B3EF40
:1013600089F0B5EF89F0B9EF89F0D8807A37BBEF13
:1013700089F0D8907A377951D8B4C1EF89F0C3EFAA
:1013800089F0C4EF89F079076DAFC9EF89F0CBEF31
:1013900089F0A1EF89F0786B7AAFD1EF89F0D3EFC4
:1013A00089F0EBEF89F07AC573F57F0E7317D8B427
:1013B000DCEF89F0DEEF89F0E2EF89F0010E786F63
:1013C000EBEF89F06BA1E7EF89F0E9EF89F0EBEF44
:1013D00089F0DEEF89F07851D8B4F1EF89F0F3EFBE
:1013E00089F01EEF8AF0010E6B27000E6C236D232F
:1013F0006E236EA1FEEF89F000EF8AF01EEF8AF0F7
:101400006BC573F56CC574F56DC575F56EC576F570
:101410007635763375337433733373C56BF574C5B2
:101420006CF575C56DF576C56EF57929D8B41BEFE9
:101430008AF01DEF8AF01EEF8AF0792B7929D8B453
:1014400024EF8AF026EF8AF02EEF8AF07951D8A4A3
:101450002CEF8AF02EEF8AF03FEF8AF0000E6B6FD0
:10146000000E6C6F000E6D6F000E6E6F7951D8A478
:101470003CEF8AF03EEF8AF03FEF8AF0776B79A17C
:1014800044EF8AF046EF8AF049EF8AF06D8F4AEF19
:101490008AF06D9FD89079316E6F77AF52EF8AF0F6
:1014A00054EF8AF055EF8AF06E8F6BC56BF56CC503
:1014B0006CF56DC56DF56EC56EF512000601035134
:1014C000800B0501CB6F0601035103250501D16F88
:1014D000060102AF6EEF8AF070EF8AF072EF8AF0C9
:1014E0000501D1810501D151D8B479EF8AF07BEFA4
:1014F0008AF090EF8AF0D129D8A481EF8AF083EFA7
:101500008AF08CEF8AF0000E0601006F000E016F6A
:10151000000E026F000E036F0601028F99EF8AF032
:10152000000E0601006F000E016F000E026F000E2C
:10153000036F0751800B0501CB1B060107510725DF
:101540000501CC6F060106AFA8EF8AF0AAEF8AF07A
:10155000ACEF8AF00501CC810501CC51D8B4B3EFD2
:101560008AF0B5EF8AF0CAEF8AF0CC29D8A4BBEF95
:101570008AF0BDEF8AF0C6EF8AF0000E0601046F14
:10158000000E056F000E066F000E076F0601068F36
:10159000D3EF8AF0000E0601046F000E056F000EF7
:1015A000066F000E076F0501CC51D8B4DAEF8AF050
:1015B000DCEF8AF0E4EF8AF0D151D8A4E2EF8AF0B0
:1015C000E4EF8AF0EFEF8AF0000E0601006F000EE4
:1015D000016F000E026F000E036F97EF8CF0060193
:1015E00006510003F3C4D6F5F4C4D7F50501D6516E
:1015F000CD6FCE6BCF6BD06BD751D26FD36BD46B1B
:10160000D56B060105510103F3C4D6F5F4C4D7F533
:101610000501D651CD27000ECE23CF23D023D7519D
:10162000D227000ED323D423D5230601045102036D
:10163000F3C4D6F5F4C4D7F50501D651CD27000E75
:10164000CE23CF23D023D751D227000ED323D423A8
:10165000D523CFC5D0F5CEC5CFF5CDC5CEF5CD6B55
:10166000060104510103F3C4D6F5F4C4D7F505010E
:10167000D651CD27D751CE23000ECF23000ED02335
:10168000060105510003F3C4D6F5F4C4D7F50501EE
:10169000D651CD27D751CE23000ECF23000ED02315
:1016A000CFC5D0F5CEC5CFF5CDC5CEF5CD6B0601F6
:1016B00004510003F3C4D6F5F4C4D7F50501D6519F
:1016C000CD27D751CE23000ECF23000ED023060105
:1016D00006510103F3C4D6F5F4C4D7F50501D6517C
:1016E000D227D751D323000ED423000ED5230601D1
:1016F00005510203F3C4D6F5F4C4D7F50501D6515C
:10170000D227D751D323000ED423000ED5230601B0
:1017100006510203F3C4D6F5F4C4D7F50501D6513A
:10172000C76FD751C86FC96BCA6BC9C5CAF5C8C5E1
:10173000C9F5C7C5C8F5C76BC751D227C851D32350
:10174000C951D423CA51D523CDC5C7F5CEC5C8F5D7
:10175000CFC5C9F5D0C5CAF5190EB4EF8BF0D89036
:10176000CA33C933C833C733E82EAFEF8BF0C75144
:10177000D227C851D323C951D423CA51D523CFC5A9
:10178000D0F5CEC5CFF5CDC5CEF5CD6BCC51D1C5FD
:10179000C7F5C86BC727000EC823820EC725D66FB2
:1017A000FF0EC821D76FEAEF8BF0D890D237D3372E
:1017B000D437D537D0AFDFEF8BF0E1EF8BF0E2EF2E
:1017C0008BF0D281D890CD37CE37CF37D037D607F0
:1017D000D8A0D707D4AFEFEF8BF0F1EF8BF0D5EFB8
:1017E0008BF0CC6BD0AFF7EF8BF0F9EF8BF01DEFF8
:1017F0008CF0FF0ECD15C76FFF0ECE15C86FFF0E14
:10180000CF15C96F7F0ED015CA6FC751C811C91146
:10181000CA11D8B40EEF8CF010EF8CF014EF8CF0EE
:10182000010ECC6F1DEF8CF0D2A119EF8CF01BEFE5
:101830008CF01DEF8CF010EF8CF0CC51D8B423EF6E
:101840008CF025EF8CF049EF8CF0010ED227000EC2
:10185000D323D423D523D5A130EF8CF032EF8CF0F5
:1018600049EF8CF0D2C5C7F5D3C5C8F5D4C5C9F5C5
:10187000D5C5CAF5CA35CA33C933C833C733C7C596
:10188000D2F5C8C5D3F5C9C5D4F5CAC5D5F5D64B6B
:10189000D72BD7BF54EF8CF0D75108E1D629D8A069
:1018A00054EF8CF056EF8CF060EF8CF0000ED26F9E
:1018B000000ED36F800ED46F7F0ED56F8DEF8CF03E
:1018C000D7BF6DEF8CF0D75106E1D605D8B06BEFDE
:1018D0008CF06DEF8CF078EF8CF0000ED26F000E74
:1018E000D36F000ED46F000ED56FCB6B8DEF8CF0E5
:1018F000D6C5D1F5FF0ED217FF0ED3177F0ED41722
:10190000000ED517D1A187EF8CF089EF8CF08AEF0C
:101910008CF0D48FD890D131D56FCB51D513D2C59F
:1019200000F6D3C501F6D4C502F6D5C503F61200FC
:101930000601E551D8B49FEF8CF0A1EF8CF0A5EF34
:101940008CF0010E7C6FA6EF8CF07C6B92519311A2
:10195000D8B4ADEF8CF0AFEF8CF084EF8EF085C68D
:101960006BF586C66CF5270E05016E6F100E6D6F58
:10197000D7ECB2F06BC58CF66CC58DF6030E050185
:101980006E6FE80E6D6F85C66BF586C66CF5D7EC8D
:10199000B2F06BC572F56CC573F5000E0501756F7D
:1019A0000A0E746F5BECB4F00A0E05017203F3C407
:1019B00078F5F4C479F57303F3507927000E6E6F50
:1019C000640E6D6F85C66BF586C66CF5D7ECB2F00C
:1019D0006BC572F56CC573F5000E0501756F0A0EC7
:1019E000746F5BECB4F005017251782506018E6FBF
:1019F00005017351792106018F6F000E05016E6F8D
:101A00000A0E6D6F85C66BF586C66CF5D7ECB2F025
:101A10006BC572F56CC573F5000E0501756F0A0E86
:101A2000746F5BECB4F00A0E05017203F3C478F531
:101A3000F4C479F57303F350792785C672F586C629
:101A400073F5000E756F0A0E746F5BECB4F0050150
:101A5000725178250601906F0501735179210601B5
:101A6000916F8C5181ECB6F0050173510701DC6F69
:101A700006018E5181ECB6F0050173510701DD6F4F
:101A80000601905181ECB6F0050173510701DE6F3C
:101A900076C66BF577C66CF5270E05016E6F100ED6
:101AA0006D6FD7ECB2F06BC57DF66CC57EF6030E9C
:101AB00005016E6FE80E6D6F76C66BF577C66CF537
:101AC000D7ECB2F06BC572F56CC573F5000E05016D
:101AD000756F0A0E746F5BECB4F00A0E05017203A9
:101AE000F3C478F5F4C479F57303F3507927000E45
:101AF0006E6F640E6D6F76C66BF577C66CF5D7ECBE
:101B0000B2F06BC572F56CC573F5000E0501756F0B
:101B10000A0E746F5BECB4F0050172517825060172
:101B20007F6F0501735179210601806F000E050159
:101B30006E6F0A0E6D6F76C66BF577C66CF5D7ECD7
:101B4000B2F06BC572F56CC573F5000E0501756FCB
:101B50000A0E746F5BECB4F00A0E05017203F3C455
:101B600078F5F4C479F57303F350792776C672F5E6
:101B700077C673F5000E756F0A0E746F5BECB4F0E8
:101B80000501725178250601816F05017351792194
:101B90000601826F7D5181ECB6F00501735107019A
:101BA000E06F06017F5181ECB6F00501735107012A
:101BB000E16F0601815181ECB6F005017351070117
:101BC000E26F000E0501736F000E746F000E756FEB
:101BD0008CC676F512ECB3F00000000000000000A7
:101BE000000000000000000000000000010E0501E0
:101BF000736F000E746F000E756F8EC676F512EC63
:101C0000B3F0000000000000000000000000000031
:101C1000000000000000020E0501736F000E746FDB
:101C2000000E756F90C676F512ECB3F00000000060
:101C300000000000000000000000000000000000A4
:101C4000040E0501736F000E746F000E756F7DC674
:101C500076F512ECB3F00000000000000000000078
:101C600000000000000000000000050E0501736F79
:101C7000000E746F000E756F7FC676F512ECB3F030
:101C80000000000000000000000000000000000054
:101C900000000000060E0501736F000E746F000E49
:101CA000756F81C676F512ECB3F0000000000000FD
:101CB0000000000000000000000000000000D00E46
:101CC0000501786FC90EE82EFED7782FFCD700D01B
:101CD000000E05016D6F530E6C6FD90E6E6F070EFF
:101CE0006F6F000E716F0A0E706FD3ECB5F00009C4
:101CF000D8B47DEF8EF07FEF8EF068EF8EF0000E9F
:101D00000601936F000E926F12000501B151800B16
:101D1000BE6FB151B125C56FB0AF91EF8EF093EFAB
:101D20008EF094EF8EF0C581C551D8B49AEF8EF045
:101D30009CEF8EF0B0EF8EF0C529D8A4A2EF8EF004
:101D4000A4EF8EF0ACEF8EF0000EAE6F000EAF6F12
:101D5000000EB06F000EB16FB08FB16BB8EF8EF0A8
:101D6000000EAE6F000EAF6F000EB06F000EB16FC1
:101D7000B551800BBE1BB551B525C66FB4AFC3EFCF
:101D80008EF0C5EF8EF0C6EF8EF0C681C651D8B486
:101D9000CCEF8EF0CEEF8EF0E2EF8EF0C629D8A415
:101DA000D4EF8EF0D6EF8EF0DEEF8EF0000EB26F35
:101DB000000EB36F000EB46F000EB56FB48FB56B2D
:101DC000EAEF8EF0000EB26F000EB36F000EB46F2C
:101DD000000EB56FB251B311B411B511D8A4F3EF21
:101DE0008EF0F5EF8EF00DEF8FF0000EAE6F000E5F
:101DF000AF6F000EB06F000EB16F800EB0137F0E8C
:101E0000B113BE51B113AEC5AEF5AFC5AFF5B0C598
:101E1000B0F5B1C5B1F54DEF90F0C551D8A413EFB1
:101E20008FF015EF8FF01FEF8FF0000EAE6F000EEA
:101E3000AF6F000EB06F000EB16F4DEF90F0C65156
:101E4000C5C5B6F5B76BB65F000EB75B7F0EB6259E
:101E5000BF6F000EB721C06FAEC5BAF5AFC5BBF5F9
:101E6000B0C5BCF5B1C5BDF5000EAE6F000EAF6FCD
:101E7000000EB06F000EB16F000EC16F000EC26F8A
:101E8000000EC36F000EC46FC66B7FEF8FF0C6519C
:101E9000D8B44DEF8FF04FEF8FF066EF8FF0D89002
:101EA000BA37BB37BC37BD37D890AE37AF37B0374E
:101EB000B137C4AF5EEF8FF060EF8FF061EF8FF05E
:101EC000AE81D890C137C237C337C437B251BA5D7B
:101ED000B351BB59B451BC59B551BD59D8A073EFDA
:101EE0008FF075EF8FF07EEF8FF0C48DB251BA5F37
:101EF000B351BB5BB451BC5BB551BD5BC62B190E76
:101F0000C66585EF8FF087EF8FF047EF8FF0BA51FE
:101F1000BB11BC11BD11D8B490EF8FF092EF8FF0D0
:101F2000AAEF8FF0C181AAEF8FF0D890AE37AF370C
:101F3000B037B137C4AF9FEF8FF0A1EF8FF0A2EFB2
:101F40008FF0AE81D890C137C237C337C437BF07CF
:101F5000D8A0C007B0AFAFEF8FF0B1EF8FF095EF23
:101F60008FF0C66BC4AFB7EF8FF0B9EF8FF0DDEF36
:101F70008FF0FF0EC115B66FFF0EC215B76FFF0EC3
:101F8000C315B86F7F0EC415B96FB651B711B8112C
:101F9000B911D8B4CEEF8FF0D0EF8FF0D4EF8FF02F
:101FA000010EC66FDDEF8FF0AEA1D9EF8FF0DBEF42
:101FB0008FF0DDEF8FF0D0EF8FF0C651D8B4E3EFA4
:101FC0008FF0E5EF8FF009EF90F0010EAE27000ED5
:101FD000AF23B023B123B1A1F0EF8FF0F2EF8FF078
:101FE00009EF90F0AEC5B6F5AFC5B7F5B0C5B8F519
:101FF000B1C5B9F5B935B933B833B733B633B6C5AA
:10200000AEF5B7C5AFF5B8C5B0F5B9C5B1F5BF4BBD
:10201000C02BC0BF14EF90F0C05108E1BF29D8A079
:1020200014EF90F016EF90F021EF90F0000EC06FDB
:10203000BF69000EAE6F000EAF6F000EB06F000EE6
:10204000B16FC0BF2EEF90F0C05106E1BF05D8B010
:102050002CEF90F02EEF90F03BEF90F0000EC06F61
:10206000000EBF6F000EAE6F000EAF6F000EB06FB0
:10207000000EB16FBE6BBFC5C5F5C5A142EF90F0B4
:1020800044EF90F047EF90F0B08F48EF90F0B09FA2
:10209000D890C531B16F01EF8FF0120059C6D9F455
:1020A0005AC6DAF4DEC4F6F4DDC4F7F4000EF86EB6
:1020B0000800F550250AD8A460EF90F062EF90F088
:1020C000B1EF91F059C6D9F45AC6DAF4DE2A000EFF
:1020D000DD22000E0601AD6F000EAC6FACC6D2F66D
:1020E000AE69AF6959C6D9F45AC6DAF4DEC4F6F45B
:1020F000DDC4F7F4000EF86E0800F5502E0AD8A4DF
:1021000084EF90F086EF90F09BEF90F059C6D9F4F1
:102110005AC6DAF4DE2A000EDD2259C66BF55AC61D
:102120006CF55BC66DF55CC66EF5F3ECAAF06BC59D
:10213000AEF66CC5AFF659C6D9F45AC6DAF4DEC4A9
:10214000EFF5DDC4F0F5EFC5F6F4F0C5F7F4000ED9
:10215000F86E0800F550640AD8B4B1EF90F0B3EF10
:1021600090F0C3EF90F0EFC5F6F4F0C5F7F4000E71
:10217000F86E0800F550690AD8A4C1EF90F0C3EFDB
:1021800090F0F2EF90F05BC6D9F45CC6DAF4DFC4ED
:10219000E8F5020EDE26DFC4E9F5000EDD22E8C513
:1021A000D9F4E9C5DAF4DEC4EAF5DDC4EBF5010ED5
:1021B0000501EF25E86F000EF021E96F59C6D9F44B
:1021C0005AC6DAF4E8C5DEF4E9C5DDF457C688F589
:1021D00058C689F5EAC58AF5EBC58BF591ECA0F0F8
:1021E000C8EF91F059C6D9F45AC6DAF4DEC4EFF557
:1021F000DDC4F0F5EFC5F6F4F0C5F7F4000EF86EA7
:102200000800F5C4EEF510EF91F0EF4BF02B20EF46
:1022100091F06C0EEE6F20EF91F0EE6B20EF91F0ED
:102220000501EE514C0AD8B405EF91F02A0AD8B452
:1022300009EF91F00A0AD8B405EF91F00DEF91F093
:10224000EFC5F6F4F0C5F7F4000EF86E0800F5508F
:10225000660AD8A42EEF91F030EF91F0A8EF91F03C
:1022600066EF91F05BC6D9F45CC6DAF4DFC4E8F53A
:10227000040EDE26DFC4E9F5000EDD22E8C5D9F440
:10228000E9C5DAF4DEC4EAF5DEC4EBF5DEC4ECF54C
:10229000DEC4EDF571EF91F05BC6D9F45CC6DAF4FB
:1022A000DFC4E8F5040EDE26DFC4E9F5000EDD220A
:1022B000E8C5D9F4E9C5DAF4DEC4EAF5DEC4EBF525
:1022C000DEC4ECF5DEC4EDF571EF91F0EE514C0A91
:1022D000D8B44CEF91F0200AD8B432EF91F071EFFE
:1022E00091F0010EEF25E86F000EF021E96F59C65D
:1022F000D9F45AC6DAF4E8C5DEF4E9C5DDF49AEF9C
:1023000091F057C624F658C625F6EAC526F6EBC561
:1023100027F6ECC528F6EDC529F6EFC5F6F4F0C5AD
:10232000F7F4000EF86E0800F5C42AF600EC80F011
:10233000C8EF91F0EFC5F6F4F0C5F7F4000EF86EB3
:102340000800F550660AD8B481EF91F0A8EF91F03B
:1023500059C6D9F45AC6DAF4DE2A000EDD22C8EFD7
:1023600091F059C6D9F45AC6DAF4DEC4F6F4DDC4E5
:10237000F7F4000EF86E0800F55005016F6F706BF2
:1023800057C671F558C672F5C0ECABF0A8EF91F0E6
:1023900012000601DE05D8B4D0EF91F0D2EF91F033
:1023A000DBEF91F0030EDE19D8A4D9EF91F0DBEF4B
:1023B00091F089EF92F0000E0501B26F000EB36F3D
:1023C0007A0EB46F440EB56F050E25EC9CF0050136
:1023D00073C5A0F574C5A1F5A26BA36B000E0CEC40
:1023E0009EF0A0C5AEF5A1C5AFF5A2C5B0F5A3C5D9
:1023F000B1F585EC8EF0AEC500F6AFC501F6B0C5FF
:1024000002F6B1C503F6AB0E0601046FAA0E056F06
:10241000270E066F430E076F5EEC8AF000C62CF79E
:1024200001C62DF702C62EF703C62FF7040EBDEC2A
:1024300095F008C652F609C653F60AC654F60BC6FE
:1024400055F62CC704F62DC705F62EC706F62FC77E
:1024500007F652C600F653C601F654C602F655C634
:1024600003F65EEC8AF000C6AEF501C6AFF502C613
:10247000B0F503C6B1F5000E0501B26F000EB36FE3
:102480007A0EB46F440EB56F85EC8EF0AEC524F7AE
:10249000AFC525F7B0C526F7B1C527F73CC710F67D
:1024A0003DC711F63EC712F63FC713F6E6C614F64F
:1024B000E7C615F60601166B176B27EC9BF010C6E6
:1024C00034F711C635F712C636F713C637F7CD0EF7
:1024D0000601246F080E256F34C726F635C727F688
:1024E00036C728F637C729F624C72AF625C72BF69C
:1024F00026C72CF627C72DF638EC85F024C6C4F67F
:1025000025C6C5F6C4C66DF5C5C66EF5010E86ECCA
:10251000B3F0020E0601DE19D8B491EF92F093EFFA
:1025200092F09CEF92F0030EDE19D8A49AEF92F08D
:102530009CEF92F043EF93F0000E0501B26F000E96
:10254000B36F7A0EB46F440EB56F010E25EC9CF09C
:10255000050173C5A0F574C5A1F5A26BA36B000EB0
:102560000CEC9EF0A0C5AEF5A1C5AFF5A2C5B0F5C7
:10257000A3C5B1F585EC8EF0AEC500F6AFC501F68A
:10258000B0C502F6B1C503F6AB0E0601046FAA0E84
:10259000056F270E066F430E076F5EEC8AF000C6CC
:1025A00028F701C629F702C62AF703C62BF7000E43
:1025B000BDEC95F008C652F609C653F60AC654F6A5
:1025C0000BC655F628C704F629C705F62AC706F62E
:1025D0002BC707F652C600F653C601F654C602F6DC
:1025E00055C603F65EEC8AF000C6AEF501C6AFF53F
:1025F00002C6B0F503C6B1F5000E0501B26F000EBC
:10260000B36F7A0EB46F440EB56F85EC8EF0AEC525
:1026100020F7AFC521F7B0C522F7B1C523F7CCC667
:10262000A0F5CDC6A1F50501A26BA36B000E0CECC5
:102630009EF0A0C54EF6A1C54FF6A2C550F6A3C5A3
:1026400051F6A60E0601246F080E256F4EC626F61B
:102650004FC627F650C628F651C629F620C72AF6D7
:1026600021C72BF622C72CF623C72DF638EC85F0B0
:1026700024C6BEF625C6BFF6BEC66DF5BFC66EF54E
:10268000020E86ECB3F012000D0E25EC9CF073C523
:10269000A2F574C5A3F567EF94F06D0EA25D070E69
:1026A000A359D8A056EF93F058EF93F066EF93F04C
:1026B0000601E551D8A45FEF93F061EF93F066EF68
:1026C00093F0000E0701C66F010EC56F950E050150
:1026D000A25D060EA359D8B070EF93F072EF93F09D
:1026E00086EF94F00601E551D8A479EF93F07BEFE3
:1026F00093F086EF94F0E56B010EDC6F86EF94F0BB
:10270000350EA25D080EA359D8A089EF93F08BEF88
:1027100093F0A5EF93F0010E0601E56F000E07019F
:10272000C66F030EC56FC351C411D8B49AEF93F0AE
:102730009CEF93F0A3EF93F0000EC46F000EC36FF5
:10274000010E0501FC6F0601DC6BF50E0501A25DB3
:10275000060EA359D8B0AFEF93F0B1EF93F086EF28
:1027600094F0030E56ECB6F0000E0701C66F000E93
:10277000C56F010E0601DC6FE56B86EF94F0F50E78
:10278000A25D060EA359D8B0C8EF93F0CAEF93F03C
:10279000E2EF93F0030E56ECB6F0000E0701C66FA1
:1027A000000EC56F0601E56B020EE403F350E46F03
:1027B000000E0701C46F010EC36F010E0601DC6F2E
:1027C0000501FD6BD00EA25D070EA359D8A0EBEF5B
:1027D00093F0EDEF93F086EF94F0FD51D8B4F3EF62
:1027E00093F0F5EF93F086EF94F0020E0601E40308
:1027F000F350E46F0501FD6BFC6B010E0601E56F04
:10280000010EDC6F000E0701C66F010EC56F86EF6B
:1028100094F0E10EA25D060EA359D8A012EF94F039
:1028200014EF94F086EF94F0620EA25D070EA359A8
:10283000D8B01DEF94F01FEF94F086EF94F0FD51A7
:10284000D8A425EF94F027EF94F086EF94F0FC5194
:10285000D8B42DEF94F02FEF94F03BEF94F0010EED
:10286000FD6F010E0601E56F000E0701C66F020E37
:10287000C56F0501FC6BFC51D8A441EF94F043EF08
:1028800094F086EF94F0E4C66BF56C6B000E6E6FFF
:10289000020E6D6F26ECACF005016B510601E46F82
:1028A000010E0501FD6F010E0601E56F000E070127
:1028B000C66F020EC56F010E0501FC6F86EF94F026
:1028C000000E0701C66F000EC56F86EF94F0C5C7F6
:1028D000A0F5C6C7A1F50501A151000AD8B473EF50
:1028E00094F060EF94F0A051000AD8B44DEF93F04B
:1028F000010AD8B480EF93F0030AD8B4BFEF93F085
:10290000010AD8B409EF94F060EF94F01200CFBE42
:102910008CEF94F08EEF94F090EF94F0BCEF95F084
:102920000601E505D8A497EF94F099EF94F0E3EF52
:1029300094F0E451D8B49FEF94F0A1EF94F0BDEF80
:1029400094F0010E5A6E5950D8B4A9EF94F0ABEF41
:1029500094F0BDEF94F02C0EC45D010EC559D8A0C3
:10296000B4EF94F0B6EF94F0BDEF94F0050EE8EC00
:102970009EF0DCC5C8F6DDC5C9F60501FE51D8B428
:10298000C4EF94F0C6EF94F0E3EF94F0010E5A6EAA
:102990005850D8B4CEEF94F0D0EF94F0E3EF94F029
:1029A0000601BF5109E1C80EBE5DD8A0DAEF94F070
:1029B000DCEF94F0E3EF94F0010EE8EC9EF0DCC560
:1029C000C6F6DDC5C7F65904D8B4E9EF94F0EBEFCD
:1029D00094F0F3EF94F05804D8A4F1EF94F0F3EFEF
:1029E00094F0BCEF95F05F50D8B4F9EF94F0FBEFA2
:1029F00094F056EF95F00601C805C911D8A403EF6D
:102A000095F005EF95F023EF95F0010EE4650BEFDF
:102A100095F00DEF95F023EF95F0B55107E1060E17
:102A2000B45DD8B016EF95F018EF95F023EF95F060
:102A30005F6A010E536E010E56ECB6F0000E0701F0
:102A4000C06F010EBF6F020E0601C819C911D8A4CC
:102A50002CEF95F02EEF95F041EF95F0010EE46527
:102A600034EF95F036EF95F041EF95F05F6A010E87
:102A7000536E010E56ECB6F0000E0701C06F000E4B
:102A8000BF6F0601B55109E1060EB45DD8A04BEF4A
:102A900095F04DEF95F056EF95F0010E56ECB6F02F
:102AA0005F6A000E0601B56F060EB46F5E50D8B4B3
:102AB0005CEF95F05EEF95F0BCEF95F00601C60572
:102AC000C711D8A466EF95F068EF95F088EF95F000
:102AD000010E0501FE656FEF95F071EF95F088EF3F
:102AE00095F00601B35107E1060EB25DD8B07BEF59
:102AF00095F07DEF95F088EF95F05E6A020E526ECC
:102B0000020E56ECB6F0000E0701BE6F010EBD6F4F
:102B1000020E0601C619C711D8A491EF95F093EFE4
:102B200095F0A7EF95F0010E0501FE659AEF95F07F
:102B30009CEF95F0A7EF95F05E6A020E526E020EC2
:102B400056ECB6F0000E0701BE6F010EBD6F060118
:102B5000B35109E1060EB25DD8A0B1EF95F0B3EF25
:102B600095F0BCEF95F0020E56ECB6F05E6A000EE2
:102B70000601B36F060EB26F12000501F06F040E6E
:102B80000501F019D8A4C7EF95F0C9EF95F042EF11
:102B900096F0040E25EC9CF073C5E8F574C5E9F5D4
:102BA000000E0501B26FF00EB36F7F0EB46F450ECD
:102BB000B56FE8C5A0F5E9C5A1F5000EA1BFFF0EF0
:102BC000A26FA36F010E0CEC9EF0A0C5AEF5A1C5DF
:102BD000AFF5A2C5B0F5A3C5B1F585EC8EF0AEC5D5
:102BE00000F6AFC501F6B0C502F6B1C503F66F0E2B
:102BF0000601046F120E056F830E066F400E076FFD
:102C00005EEC8AF000C6D8F501C6D9F502C6DAF541
:102C100003C6DBF5660E0501DC6FFB0EDD6F080EEB
:102C2000DE6F3D0EDF6FDCC504F6DDC505F6DEC5E3
:102C300006F6DFC507F6D8C500F6D9C501F6DAC530
:102C400002F6DBC503F65EEC8AF000C6AEF501C6FF
:102C5000AFF502C6B0F503C6B1F5960E0501B26F29
:102C6000430EB36F0B0EB46F3D0EB56F85EC8EF057
:102C7000AEC5ECF5AFC5EDF5B0C5EEF5B1C5EFF5F8
:102C8000C1EF96F0F051D8A448EF96F04AEF96F0D5
:102C9000C1EF96F0000E25EC9CF073C5EAF574C503
:102CA000EBF5000E0501B26FF00EB36F7F0EB46F3F
:102CB000450EB56FEAC5A0F5EBC5A1F5000EA1BFA5
:102CC000FF0EA26FA36F010E0CEC9EF0A0C5AEF537
:102CD000A1C5AFF5A2C5B0F5A3C5B1F585EC8EF0E1
:102CE000AEC500F6AFC501F6B0C502F6B1C503F634
:102CF0006F0E0601046F120E056F830E066F400EF5
:102D0000076F5EEC8AF000C6E0F501C6E1F502C689
:102D1000E2F503C6E3F5F70E0501E46F110EE56F6A
:102D2000A50EE66F3D0EE76FE4C504F6E5C505F6B2
:102D3000E6C506F6E7C507F6E0C500F6E1C501F60B
:102D4000E2C502F6E3C503F65EEC8AF000C6AEF516
:102D500001C6AFF502C6B0F503C6B1F5000E050118
:102D6000B26F000EB36F800EB46F3E0EB56F85EC80
:102D70008EF0AEC5ECF5AFC5EDF5B0C5EEF5B1C55D
:102D8000EFF5ECC500F6EDC501F6EEC502F6EFC5B0
:102D900003F6000E0601046F000E056F7A0E066F33
:102DA000440E076F5EEC8AF000C608F601C609F60D
:102DB00002C60AF603C60BF61200030E17ECBAF0B1
:102DC0006BC5DCF56CC5DDF5000E0501B26FF00ECC
:102DD000B36F7F0EB46F450EB56FDCC5A0F5DDC5D2
:102DE000A1F5000EA1BFFF0EA26FA36F010E0CECA8
:102DF0009EF0A0C5AEF5A1C5AFF5A2C5B0F5A3C5BF
:102E0000B1F585EC8EF0AEC500F6AFC501F6B0C5E4
:102E100002F6B1C503F66F0E0601046F120E056FC0
:102E2000830E066F400E076F5EEC8AF000C6DFF57A
:102E300001C6E0F502C6E1F503C6E2F5DFC508F616
:102E4000E0C509F6E1C50AF6E2C50BF6CD0E0601AE
:102E50000C6FCC0E0D6F4C0E0E6F400E0F6F54ECBE
:102E6000A5F00601D8A037EF97F039EF97F03CEFC7
:102E700097F0020E0501DE6FDFC508F6E0C509F622
:102E8000E1C50AF6E2C50BF6660E06010C6F660E8A
:102E90000D6F260E0E6F400E0F6F54ECA5F006015D
:102EA000D8A055EF97F057EF97F074EF97F0DFC584
:102EB00008F6E0C509F6E1C50AF6E2C50BF6330EE1
:102EC0000C6F330E0D6F330E0E6F400E0F6F54EC00
:102ED000A5F00601D8B06FEF97F071EF97F074EF9F
:102EE00097F0010E0501DE6F330E0601086F330EF9
:102EF000096F130E0A6F400E0B6FDFC50CF6E0C5AD
:102F00000DF6E1C50EF6E2C50FF654ECA5F006018C
:102F1000D8A08DEF97F08FEF97F091EF97F0050124
:102F2000DE6B0601DC51D8A498EF97F09AEF97F08A
:102F3000F9EF97F0D7510501DE19D8B4A2EF97F059
:102F4000A4EF97F0F9EF97F0DEC5D7F6E9EF97F029
:102F5000D951D8B4AEEF97F0B0EF97F0B5EF97F046
:102F6000E451020DF3C4E4F6D96BD86B010EE56FA2
:102F7000F9EF97F0D951D8A4C0EF97F0C2EF97F0CE
:102F8000F9EF97F0E4C66BF505016C6B000E6E6F00
:102F9000020E6D6F26ECACF005016B510601E46F7B
:102FA000010ED96FF9EF97F0D951D8B4DAEF97F055
:102FB000DCEF97F0E1EF97F0E451020DF3C4E4F693
:102FC000D96B010ED86FE56B030E56ECB6F0F9EF36
:102FD00097F00601D751000AD8B4A8EF97F0010A7C
:102FE000D8B4BAEF97F0030AD8B4D4EF97F0F9EF5A
:102FF00097F0120096ECB1F0E806D8A402EF98F032
:1030000004EF98F009EF98F0030E56ECB6F012EFCB
:1030100099F05D50D8B40FEF98F011EF98F021EFD0
:1030200098F035ECBFF0210E0501F26F780EF16FCC
:10303000980EE82EFED7F12FFCD7F22FFAD700001A
:103040005D6A010E0601E46528EF98F02AEF98F01A
:103050005BEF98F0010E0501FE6531EF98F033EF5C
:1030600098F05BEF98F0010E06ECBCF0090E05013C
:10307000F26F1E0EF16FE40EE82EFED7F12FFCD793
:10308000F22FFAD70000010E42ECBCF0020E06EC63
:10309000BCF0090E0501F26F1E0EF16FE40EE82E72
:1030A000FED7F12FFCD7F22FFAD70000020E42EC28
:1030B000BCF09BEF98F0010E0601E46562EF98F01A
:1030C00064EF98F07CEF98F0020E56ECB6F0010E2B
:1030D00006ECBCF00D0E0501F26F2D0EF16FD70E50
:1030E000E82EFED7F12FFCD7F22FFAD700D0010E31
:1030F00042ECBCF09BEF98F0010E0501FE6583EFFA
:1031000098F085EF98F09BEF98F0010E56ECB6F032
:10311000020E06ECBCF00D0E0501F26F2D0EF16FE4
:10312000D70EE82EFED7F12FFCD7F22FFAD700D01A
:10313000020E42ECBCF0A7ECA9F0050172C5A0F5A7
:1031400073C5A1F5A26BA36B000E0CEC9EF0A0C59D
:103150003CF7A1C53DF7A2C53EF7A3C53FF7060161
:10316000E451D8B4B6EF98F0B8EF98F0C4EF98F007
:103170000501FE51D8A4BFEF98F0C1EF98F0C4EF5D
:1031800098F0010E0601DE6F0601E451D8A4CBEFE2
:1031900098F0CDEF98F0D9EF98F00501FE51D8B432
:1031A000D4EF98F0D6EF98F0D9EF98F0020E060120
:1031B000DE6F0601E451D8B4E0EF98F0E2EF98F04A
:1031C000EEEF98F00501FE51D8B4E9EF98F0EBEF7F
:1031D00098F0EEEF98F0030E0601DE6F0601E45161
:1031E000D8A4F5EF98F0F7EF98F010EF99F00501FB
:1031F000FE51D8A4FEEF98F000EF99F010EF99F08F
:103200000601DE6B000E07013C6F000E3D6F000EE5
:103210003E6F000E3F6F000E0601C56F000EC46FBB
:10322000C9EC91F0120010C7D7F511C7D8F512C735
:10323000D9F513C7DAF5C7C5D7F5C8C5D8F5C9C5D7
:10324000D9F5CAC5DAF5810E0501CB6FFF0ECC6F3B
:10325000D7C5CDF5D8C5CEF5D9C5CFF5DAC5D0F5EA
:10326000180E38EF99F0D890D033CF33CE33CD331A
:10327000E82E33EF99F0CD51CB25D56F000ECC2140
:10328000D66FD6BF4DEF99F0D65109E1170ED55D37
:10329000D8A04DEF99F04FEF99F059EF99F0C7C5CD
:1032A000C7F5C8C5C8F5C9C5C9F5CAC5CAF51DEF72
:1032B0009AF0D6BF5EEF99F060EF99F0D1EF99F0F8
:1032C000D5C5CBF5FF0ECC6FFF0ECD6F7F0ECE6F49
:1032D000000ECF6FCB676FEF99F077EF99F0CF3596
:1032E000CF33CE33CD33CC33CB2F6AEF99F0CCC56F
:1032F000D1F5CDC5D2F5CEC5D3F5CFC5D4F50501F1
:10330000D151D715CB6FD251D815CC6FD351D91518
:10331000CD6FD451DA15CE6FCB51CC11CD11CE116A
:10332000D8A495EF99F097EF99F099EF99F04FEFB6
:1033300099F0D7C5CBF5D8C5CCF5D9C5CDF5DAC54B
:10334000CEF5200EA9EF99F0D890CE33CD33CC3303
:10335000CB33E82EA4EF99F0CB51CC11CD11CE1187
:10336000D8B4B5EF99F0B7EF99F0BFEF99F0D1511C
:10337000D727D251D823D351D923D451DA23D11D01
:10338000CB6FD21DCC6FD31DCD6FD41DCE6FCB5163
:10339000D717CC51D817CD51D917CE51DA1715EF11
:1033A0009AF0D7C5CBF5D8C5CCF5D9C5CDF5DAC5DA
:1033B000CEF5200EE1EF99F0D890CE33CD33CC335B
:1033C000CB33E82EDCEF99F0CB51CC11CD11CE11DF
:1033D000D8A4EDEF99F0EFEF99F0F9EF99F0000E26
:1033E000D76F000ED86F000ED96F000EDA6F15EF91
:1033F0009AF0D890D735CB6FD835CC6FD935CD6F03
:10340000DA35CE6FCB51CC11CD11CE11D8B40BEF34
:103410009AF00DEF9AF015EF9AF0000ED76F000EAC
:10342000D86F800ED96FBF0EDA6FD7C5C7F5D8C574
:10343000C8F5D9C5C9F5DAC5CAF51200000E0501EF
:10344000716F000E726F000E736F31ECB8F00501F2
:10345000786F785106018C6F8D6B010E0501716FCD
:10346000000E726F000E736F31ECB8F00501786FCB
:10347000785106018E6F8F6B020E0501716F000E81
:10348000726F000E736F31ECB8F00501786F7851F0
:103490000601906F916B640E8E03F3C478F5F4C44B
:1034A00079F58F03F35005017927100E7A6F270EF7
:1034B0007B6F7A5106018C03F3C47CF5F4C47DF56F
:1034C0008D03F35005017D277B5106018C03050117
:1034D000F3507D2778517C257E6F79517D217F6F58
:1034E0000601905105017E250601856F9151050168
:1034F0007F210601866F8C5181ECB6F00501735176
:103500000701DC6F06018E5181ECB6F005017351A5
:103510000701DD6F0601905181ECB6F00501735192
:103520000701DE6F040E0501716F000E726F000E51
:10353000736F31ECB8F00501786F785106017D6F3B
:103540007E6B050E0501716F000E726F000E736FBA
:1035500031ECB8F00501786F785106017F6F806B10
:10356000060E0501716F000E726F000E736F31EC65
:10357000B8F00501786F78510601816F826B640E97
:103580007F03F3C478F5F4C479F58003F3500501A3
:103590007927100E7A6F270E7B6F7A5106017D0313
:1035A000F3C47CF5F4C47DF57E03F35005017D275B
:1035B0007B5106017D030501F3507D2778517C2561
:1035C0007E6F79517D217F6F0601815105017E2536
:1035D0000601766F825105017F210601776F7D51CB
:1035E00081ECB6F0050173510701E06F06017F51D0
:1035F00081ECB6F0050173510701E16F06018151BD
:1036000081ECB6F0050173510701E26FD00E0501A0
:10361000786FC90EE82EFED7782FFCD700D0000EA9
:1036200005016D6F530E6C6FD90E6E6F070E6F6FC5
:10363000000E716F0A0E706FD3ECB5F00009D8B4AC
:1036400024EF9BF026EF9BF00FEF9BF012003CEC79
:10365000BEF06BC5D8F56CC5D9F56DC5DAF56EC58C
:10366000DBF510C66BF511C66CF512C66DF513C609
:103670006EF598C66FF599C670F59AC671F59BC63A
:1036800072F568ECAFF00501D8B049EF9BF04BEF55
:103690009BF06BEF9BF010C698F611C699F612C618
:1036A0009AF613C69BF69CC644F79DC645F79EC680
:1036B00046F79FC647F7D8C540F7D9C541F7DAC5E1
:1036C00042F7DBC543F714C6CFF715C6D0F716C6C9
:1036D000D1F717C6D2F740C76FF541C770F542C79B
:1036E00071F543C772F54DECB1F06FC5E4F570C5E7
:1036F000E5F571C5E6F572C5E7F50701CF5105019E
:10370000E45D0701D0510501E5590701D1510501DB
:10371000E6590701D2510501E759D8A092EF9BF075
:1037200094EF9BF0A6EF9BF098C69CF699C69DF689
:103730009AC69EF69BC69FF69CC610F69DC611F6CD
:103740009EC612F69FC613F624EF9CF0E4C5A0F5C2
:10375000E5C5A1F5E6C5A2F5E7C5A3F5000E0CEC9D
:103760009EF0A0C5AEF5A1C5AFF5A2C5B0F5A3C545
:10377000B1F5CFC7A0F5D0C7A1F5D1C7A2F5D2C783
:10378000A3F5000E0CEC9EF0A0C5B2F5A1C5B3F5F3
:10379000A2C5B4F5A3C5B5F585EC8EF0AEC5DCF5D4
:1037A000AFC5DDF5B0C5DEF5B1C5DFF5DCC504F6A6
:1037B000DDC505F6DEC506F6DFC507F644C70CF61F
:1037C00045C70DF646C70EF647C70FF698C608F66A
:1037D00099C609F69AC60AF69BC60BF60DECB8F028
:1037E00008C600F609C601F60AC602F60BC603F6BD
:1037F0005EEC8AF000C6E0F501C6E1F502C6E2F52E
:1038000003C6E3F5E0C56BF5E1C56CF5E2C56DF502
:10381000E3C56EF544C76FF545C770F546C771F54A
:1038200047C772F502EC88F06BC59CF66CC59DF637
:103830006DC59EF66EC59FF69CC610F69DC611F628
:103840009EC612F69FC613F612000501936F000E76
:1038500005019B6F000E9A6F935117ECBAF0D89048
:1038600005019A35D96E9B35DA6E7B0ED926050E89
:10387000DA226BC5DEF46CC5DDF49A4B9B2B9BBF43
:103880004BEF9CF09B5109E10C0E9A5DD8A04BEFD9
:103890009CF04DEF9CF02CEF9CF0000E996F000E09
:1038A000986F000E9D6F000E9C6F000E9F6F000EB4
:1038B0009E6FC2EF9CF0D8909E35D96E9F35DA6E20
:1038C0007B0ED926050EDA229EC577F59FC578F5C1
:1038D000D89077377837020E7727000E78237B0E43
:1038E0007725E16E050E7821E26EDE50E65CDE5053
:1038F000E658D8B07EEF9CF080EF9CF0C0EF9CF0D3
:10390000D8909E35D96E9F35DA6E7B0ED926050E7E
:10391000DA22DEC494F5DDC495F59EC575F59FC524
:1039200076F5D89075377637020E7527000E762318
:103930007B0E7525D96E050E7621DA6ED8909E35F0
:10394000E16E9F35E26E7B0EE126050EE222DEC4BB
:10395000E6F4DDC4E5F49EC575F59FC576F5D8900F
:1039600075377637020E7527000E76237B0E752588
:10397000D96E050E7621DA6E94C5DEF495C5DDF4B8
:103980009E4B9F2B0B0E756F000E766F9C51755FD3
:103990009D51765B75519E5D9F51800A776F765180
:1039A000800A7759D8A0D7EF9CF0D9EF9CF05BEF55
:1039B0009CF09C4B9D2B9DBFE7EF9CF09D5109E136
:1039C0000B0E9C5DD8A0E7EF9CF0E9EF9CF055EF63
:1039D0009CF0000E9D6F020E9C6FD8909C35D96EA6
:1039E0009D35DA6E7B0ED926050EDA22DE50982739
:1039F000DD5099239C4B9D2B9DBF08EF9DF09D5161
:103A000009E10A0E9C5DD8A008EF9DF00AEF9DF039
:103A1000EDEF9CF098C56BF599C56CF5000E6E6FD7
:103A2000080E6D6F26ECACF06BC596F56CC597F57E
:103A300096C573F597C574F51200000E0501716FF8
:103A4000000E726F000E736F31ECB8F00501786FE5
:103A5000785106018C6F8D6B010E0501716F000EA0
:103A6000726F000E736F31ECB8F00501786F78510A
:103A700006018E6F8F6B020E0501716F000E726F63
:103A8000000E736F31ECB8F00501786F78510601C4
:103A9000906F916B040E0501716F000E726F000E36
:103AA000736F31ECB8F00501786F785106017D6FC6
:103AB0007E6B050E0501716F000E726F000E736F45
:103AC00031ECB8F00501786F785106017F6F806B9B
:103AD000060E0501716F000E726F000E736F31ECF0
:103AE000B8F00501786F78510601816F826B8D51B6
:103AF00009E1650E8C5DD8A080EF9DF082EF9DF00E
:103B00008DEF9DF0000E0501736F000E746F000EB7
:103B1000756F000E766F12ECB3F006018F5109E15C
:103B2000650E8E5DD8A097EF9DF099EF9DF0A4EF04
:103B30009DF0010E0501736F000E746F000E756F1E
:103B4000000E766F12ECB3F00601915109E1650E9B
:103B5000905DD8A0AEEF9DF0B0EF9DF0BBEF9DF073
:103B6000020E0501736F000E746F000E756F000E6C
:103B7000766F12ECB3F0030E0501736F000E746FD5
:103B8000000E756F000E766F12ECB3F006017E51D9
:103B900009E1650E7D5DD8A0D0EF9DF0D2EF9DF0DC
:103BA000DDEF9DF0040E0501736F000E746F000EC3
:103BB000756F000E766F12ECB3F00601805109E1CB
:103BC000650E7F5DD8A0E7EF9DF0E9EF9DF0F4EF83
:103BD0009DF0050E0501736F000E746F000E756F7A
:103BE000000E766F12ECB3F00601825109E1650E0A
:103BF000815DD8A0FEEF9DF000EF9EF00BEF9EF0F0
:103C0000060E0501736F000E746F000E756F000EC7
:103C1000766F12ECB3F012000501A86F0501A851F0
:103C2000D8B415EF9EF017EF9EF039EF9EF0A3BFCA
:103C30001EEF9EF01CEF9EF039EF9EF0A0C5A4F59C
:103C4000A1C5A5F5A2C5A6F5A3C5A7F5A41FA51FE7
:103C5000A61FA71FA42B000EA523A623A723A4C538
:103C6000AAF5A5C5ABF5A6C5ACF5A7C5ADF541EF61
:103C70009EF0A0C5AAF5A1C5ABF5A2C5ACF5A3C53C
:103C8000ADF5A051A111A211A311D8A44AEF9EF045
:103C90004CEF9EF056EF9EF0000EA06F000EA16F4D
:103CA000000EA26F000EA36FE7EF9EF0960EA96FB5
:103CB00060EF9EF0A92BD890AD33AC33AB33AA3371
:103CC000000EAA15A46F000EAB15A56F000EAC1563
:103CD000A66FFE0EAD15A76FA451A511A611A711D1
:103CE000D8A475EF9EF077EF9EF05AEF9EF085EF27
:103CF0009EF0A92B010EAA27000EAB23AC23AD2307
:103D0000D890AD33AC33AB33AA33000EAA15A46FF1
:103D1000000EAB15A56F000EAC15A66FFF0EAD150E
:103D2000A76FA451A511A611A711D8A49AEF9EF0D0
:103D30009CEF9EF079EF9EF0A4EF9EF0A907D8903B
:103D4000AA37AB37AC37AD37ACBFA9EF9EF0ABEFBE
:103D50009EF0B3EF9EF0020EA961B1EF9EF0B3EFBB
:103D60009EF09EEF9EF0A9B1B8EF9EF0BAEF9EF0E4
:103D7000BBEF9EF0AC9FD890A933A9C5A4F5A56B65
:103D8000A66BA76BA4C5A7F5A66BA56BA46BA451E6
:103D9000AA13A551AB13A651AC13A751AD13A8514B
:103DA000D8B4D5EF9EF0D7EF9EF0DFEF9EF0A3BF23
:103DB000DEEF9EF0DCEF9EF0DFEF9EF0AD8FAAC548
:103DC000A0F5ABC5A1F5ACC5A2F5ADC5A3F5120034
:103DD0000501E66F050E0501E619D8A4F2EF9EF085
:103DE000F4EF9EF05DEF9FF0140EDE6FC80EDF6FF4
:103DF0002A0EE06F450EE16FE65125EC9CF073C58D
:103E000094F674C595F694C6A0F595C6A1F505017E
:103E1000A26BA36B000E0CEC9EF0A0C508F6A1C52A
:103E200009F6A2C50AF6A3C50BF6DEC50CF6DFC57A
:103E30000DF6E0C50EF6E1C50FF654ECA5F006014F
:103E4000D8B025EF9FF027EF9FF03DEF9FF0E10EF8
:103E5000945D010E9559D8A030EF9FF032EF9FF09E
:103E600044EF9FF0590E945D020E9559D8B03BEF88
:103E70009FF03DEF9FF044EF9FF0000E0501DD6FD6
:103E8000010EDC6FBDEF9FF0E00E945D010E9559C1
:103E9000D8B04DEF9FF04FEF9FF056EF9FF0000E20
:103EA0000501DD6F020EDC6FBDEF9FF0000E050116
:103EB000DD6F000EDC6FBDEF9FF0E605D8A463EF69
:103EC0009FF065EF9FF056EF9FF0130EE26F760EB6
:103ED000E36F830EE46F440EE56FE65125EC9CF032
:103EE00073C596F674C597F696C6A0F597C6A1F564
:103EF0000501A26BA36B000E0CEC9EF0A0C508F6AA
:103F0000A1C509F6A2C50AF6A3C50BF6E2C50CF6D3
:103F1000E3C50DF6E4C50EF6E5C50FF654ECA5F0C5
:103F20000601D8B096EF9FF098EF9FF03DEF9FF01D
:103F30002D0E965D010E9759D8A0A1EF9FF0A3EF2B
:103F40009FF0B0EF9FF0E00E965D010E9759D8B04C
:103F5000ACEF9FF0AEEF9FF0B0EF9FF03DEF9FF022
:103F60002D0E965D010E9759D8B0B9EF9FF0BBEFBB
:103F70009FF056EF9FF04FEF9FF012005A04D8A425
:103F8000C4EF9FF0C6EF9FF0DCEF9FF00701AF4B4F
:103F9000B02BC80EAF19B011D8A4D1EF9FF0D3EF5A
:103FA0009FF0DCEF9FF0010E596E010E586E000E6F
:103FB000B06F000EAF6F5A6A0701AB4BAC2BC80E47
:103FC000AB19AC11D8A4E7EF9FF0E9EF9FF003EF36
:103FD000A0F0000EAC6F000EAB6FBF51C011D8B493
:103FE000F4EF9FF0F6EF9FF0F8EF9FF0A94BAA2BAC
:103FF000BD51BE11D8B4FFEF9FF001EFA0F003EF69
:10400000A0F0A74BA82B960EA919AA11D8A40BEFC4
:10401000A0F00DEFA0F026EFA0F0000EAA6F000EAA
:10402000A96F010E5F6E0601B44BB52BB55109E1C6
:10403000060EB45DD8A01FEFA0F021EFA0F026EF90
:10404000A0F0000E0701C06F000EBF6F960E0701B3
:10405000A719A811D8A42FEFA0F031EFA0F04CEFD2
:10406000A0F0010E5E6E0601B24BB32B000E0701ED
:10407000A86F000EA76F0601B35109E1060EB25DED
:10408000D8A045EFA0F047EFA0F04CEFA0F0000E55
:104090000701BE6F000EBD6F0701A505A611D8A4CC
:1040A00054EFA0F056EFA0F06FEFA0F0A14BA22BC1
:1040B000A25109E1C80EA15DD8A061EFA0F063EFA5
:1040C000A0F06FEFA0F0000EA26F000EA16F000E27
:1040D000A46F010EA36F000EA66F000EA56F060160
:1040E000B051B111D8B477EFA0F079EFA0F090EF14
:1040F000A0F0B007D8A0B107B051B111D8A483EF98
:10410000A0F085EFA0F090EFA0F00501FB51D8B42E
:104110008CEFA0F08EEFA0F090EFA0F0010EFA6F00
:10412000120005018BBF97EFA0F09AEFA0F0010EEF
:104130009BEFA0F0000E926F0601AFBFA4EFA0F0BE
:10414000A2EFA0F0ABEFA0F0000E0501916F010E01
:10415000906FAFEFA0F0AEC690F5AFC691F5ACC6CC
:104160008EF5ADC68FF505019251D8B4BAEFA0F027
:10417000BCEFA0F0D3EFA0F08E07D8A08F0792512C
:10418000D8A4C5EFA0F0C7EFA0F0CDEFA0F0000ECF
:104190008D6F2B0E8C6FD1EFA0F0000E8D6F2D0E5A
:1041A0008C6F8CC592F5000E946F4F0E936F0A01C1
:1041B000976B0CEFA1F09307D8A09407480E9325B6
:1041C000D96E0A0E9421DA6E8AC56BF58BC56CF533
:1041D000000E6E6F0A0E6D6F10ECAFF06BC571F5CF
:1041E0006CC572F5FDECBAF005017151300FDF6E50
:1041F0009007D8A091078E07D8A08F078AC56BF5C6
:104200008BC56CF5000E6E6F0A0E6D6F26ECACF070
:104210006BC58AF56CC58BF5050194BF18EFA1F04D
:10422000945108E19305D8A018EFA1F01AEFA1F07E
:1042300030EFA1F08A518B11D8A421EFA1F023EF28
:10424000A1F0DBEFA0F091BF30EFA1F0915106E1BA
:104250009005D8B02EEFA1F030EFA1F0DBEFA0F089
:104260009251D8B436EFA1F038EFA1F043EFA1F0AE
:104270009307D8A09407480E9325D96E0A0E94216F
:10428000DA6E92C5DFF488C57FF589C580F5480EE2
:104290009325816F0A0E9421826F8EC583F58FC599
:1042A00084F54DECB3F012000501F551020D400EFE
:1042B000F324D96E080EF420DA6EDE6ADD6A02019C
:1042C000C5A765EFA1F067EFA1F08AEFA1F00501A6
:1042D000F551020D400EF324D96E080EF420DA6E6B
:1042E0000801DF8207015E515F116011D8B47BEFD6
:1042F000A1F07DEFA1F08AEFA1F002D88AEFA1F042
:104300000500FA6E5E51FD6E5F51FE6E6051FF6EEC
:10431000FA5012000201C5A390EFA1F092EFA1F0B4
:10432000B5EFA1F00501F551020D400EF324D96E51
:10433000080EF420DA6E0801DF8407015B515C117E
:104340005D11D8B4A6EFA1F0A8EFA1F0B5EFA1F0F0
:1043500002D8B5EFA1F00500FA6E5B51FD6E5C511D
:10436000FE6E5D51FF6EFA5012000201C5ADBBEF4B
:10437000A1F0BDEFA1F0E0EFA1F00501F551020DB4
:10438000400EF324D96E080EF420DA6E0801DF80A7
:104390000701585159115A11D8B4D1EFA1F0D3EFF8
:1043A000A1F0E0EFA1F002D8E0EFA1F00500FA6E75
:1043B0005851FD6E5951FE6E5A51FF6EFA5012005F
:1043C000B4C230F50501F5290F0B316E4850311894
:1043D000D8A4EDEFA1F0EFEFA1F0F1EFA1F0FCEF29
:1043E000A1F0600EF525D96EDA6A080EDA2230C522
:1043F000DFF431C5F5F5472A07014C514D114E1137
:10440000D8B405EFA2F007EFA2F014EFA2F002D8A3
:1044100014EFA2F00500FA6E4C51FD6E4D51FE6E88
:104420004E51FF6EFA50120012004D50020D000E58
:10443000F324D96E080EF420DA6EDE6ADD6A02011A
:10444000B2A725EFA2F027EFA2F049EFA2F04D505E
:10445000020D000EF324D96E080EF420DA6E080166
:10446000DF820701735174117511D8B43AEFA2F0CD
:104470003CEFA2F049EFA2F002D849EFA2F005000C
:10448000FA6E7351FD6E7451FE6E7551FF6EFA50E7
:1044900012000201B2A34FEFA2F051EFA2F073EFAE
:1044A000A2F04D50020D000EF324D96E080EF42038
:1044B000DA6E0801DF840701705171117211D8B4EE
:1044C00064EFA2F066EFA2F073EFA2F002D873EFF0
:1044D000A2F00500FA6E7051FD6E7151FE6E7251C0
:1044E000FF6EFA5012000201B2AD79EFA2F07BEF3D
:1044F000A2F09DEFA2F04D50020D000EF324D96EF4
:10450000080EF420DA6E0801DF8007016D516E118C
:104510006F11D8B48EEFA2F090EFA2F09DEFA2F051
:1045200002D89DEFA2F00500FA6E6D51FD6E6E513E
:10453000FE6E6F51FF6EFA501200A1C21EF54D289B
:104540001F0B1F6E4C501F18D8A4A9EFA2F0ABEFA1
:10455000A2F0ADEFA2F0B8EFA2F0000E4D24D96E9C
:10456000DA6A090EDA221EC5DFF41FC54DF54B2AA3
:104570000701615162116311D8B4C1EFA2F0C3EF1A
:10458000A2F0D0EFA2F002D8D0EFA2F00500FA6EB0
:104590006151FD6E6251FE6E6351FF6EFA50120062
:1045A000120000C6D9F401C6DAF402C6DFF406012F
:1045B00020EE01F00051D9260151DA2203C6DEF4C3
:1045C00004C6DEF405C6DEF406C6DEF420EE05F011
:1045D0000051D9260151DA2207C6DEF408C6DEF4FE
:1045E00009C6DEF40AC6DEF420EE09F00051D92631
:1045F0000151DA220BC6DEF40CC6DEF40DC6DEF481
:104600000EC6DEF420EE15F00051D9260151DA2253
:104610000FC6DEF410C6DEF411C6DEF412C6DEF4F8
:1046200020EE19F00051D9260151DA2213C6DEF42A
:1046300014C6DEF415C6DEF416C6DEF4000E05015F
:10464000AE6F000EAF6F480EB06F440EB16F07C66D
:10465000B2F508C6B3F509C6B4F50AC6B5F585ECDA
:104660008EF0060120EE0DF00051D9260151DA221C
:104670000501AEC5DEF4AFC5DEF4B0C5DEF4B1C5EC
:10468000DEF4000EAE6F000EAF6F480EB06FC40EBA
:10469000B16F07C6B2F508C6B3F509C6B4F50AC6C8
:1046A000B5F585EC8EF0060120EE11F00051D9260B
:1046B0000151DA220501AEC5DEF4AFC5DEF4B0C5A6
:1046C000DEF4B1C5DEF4060120EE1DF00051D9265E
:1046D0000151DA22000EDE6E000EDE6E000EDE6E7E
:1046E000000EDD6E20EE21F00051D9260151DA22B4
:1046F000000EDE6E000EDE6E000EDE6E000EDD6E53
:1047000020EE25F00051D9260151DA2217C6DEF439
:1047100018C6DDF41200050120EE03F08051D92601
:104720008151DA22DF506B6F20EE02F08051D926E2
:104730008151DA22DF501EECB2F06BC545F56CC535
:1047400046F5570E455C030E4658D8A0AAEFA3F0D5
:10475000ACEFA3F0B0EFA3F0030E466E570E456E1C
:10476000F40E455C010E4658D8B0B9EFA3F0BBEF8C
:10477000A3F0BFEFA3F0010E466EF40E456E45C5E3
:10478000D0F646C5D1F680C5D9F481C5DAF4DF503C
:104790000601E46FE4C6E3F6630EE465D2EFA3F02E
:1047A000D4EFA3F0D6EFA3F0640EE46F050120EE82
:1047B00007F08051D9268151DA22DF506B6F20EE4D
:1047C00006F08051D9268151DA22DF501EECB2F07A
:1047D0006BC543F56CC544F5445009E1710E435C6B
:1047E000D8A0F5EFA3F0F7EFA3F0FBEFA3F0000ED6
:1047F000446E710E436E445007E1320E435CD8B0F4
:1048000004EFA4F006EFA4F00AEFA4F0000E446E4B
:10481000320E436E43C5C7F744C5C8F7050120EE05
:1048200004F08051D9268151DA22DF50FE6FFEC597
:10483000E2F6630EFE651FEFA4F021EFA4F023EF74
:10484000A4F0640EFE6F120006018B51D8B42BEF5A
:10485000A4F02DEFA4F07DEFA4F0894B8A2B070183
:104860009D4B9E2BB90E9D5D0B0E9E59D8A03BEF24
:10487000A4F03DEFA4F045EFA4F0000EB26F010EDE
:10488000B16F000E9E6F000E9D6F600E0601895D78
:10489000EA0E8A59D8A04FEFA4F051EFA4F07DEFB3
:1048A000A4F0874B882B010ED56F885109E13C0E8F
:1048B000875DD8A05EEFA4F060EFA4F079EFA4F0DC
:1048C000854B862B000E936F010E926F500E855D07
:1048D000C30E8659D8A06FEFA4F071EFA4F075EF66
:1048E000A4F0C30E866F500E856F000E866F000E0B
:1048F000856F000E8A6F000E896F7C51D8B483EFEC
:10490000A4F085EFA4F0BCEFA4F07A4B7B2B600EF3
:104910007A5DEA0E7B59D8A090EFA4F092EFA4F054
:10492000BCEFA4F0784B792B795109E13C0E785D0E
:10493000D8A09DEFA4F09FEFA4F0B8EFA4F0764BC1
:10494000772B000E846F010E836F500E765DC30EC1
:104950007759D8A0AEEFA4F0B0EFA4F0B4EFA4F074
:10496000C30E776F500E766F000E776F000E766F66
:10497000000E7B6F000E7A6F1200000E05016D6F46
:10498000570E6C6FE30E6E6F070E6F6F000E716F38
:10499000020E706FD3ECB5F00009D8B4D2EFA4F0DA
:1049A000D4EFA4F0BDEFA4F0000E05016D6F570E1B
:1049B0006C6F5C0E6E6F050E6F6F000E716F010EE7
:1049C000706FFFECB5F00009D8B4E9EFA4F0EBEF9D
:1049D000A4F0D4EFA4F0680E0501736FE40EE82E86
:1049E000FED7732FFCD700005CC551F5680E05019A
:1049F000736FE40EE82EFED7732FFCD70000C00EB5
:104A00005118D8A406EFA5F008EFA5F00AEFA5F01D
:104A10004AEFA5F0000E05016D6F570E6C6FB90ED1
:104A20006E6F090E6F6F000E716F130E706FD3EC07
:104A3000B5F00009D8B41FEFA5F021EFA5F00AEFFB
:104A4000A5F0680E0501736FE40EE82EFED7732FF4
:104A5000FCD70000000E05016D6F570E6C6FE30E62
:104A60006E6F070E6F6F000E716F030E706FFFECAD
:104A7000B5F00009D8B43FEFA5F041EFA5F02AEF5B
:104A8000A5F02A0E0501736F8D0EE82EFED7732F49
:104A9000FCD700D0D00E0501736FC90EE82EFED7EB
:104AA000732FFCD700D01200000E06010815050177
:104AB000D86F000E060109150501D96F800E060199
:104AC0000A150501DA6F7F0E06010B150501DB6F74
:104AD000D851D911DA11DB11D8A471EFA5F073EF19
:104AE000A5F07CEFA5F0000E0601086F000E096F1F
:104AF000000E0A6F000E0B6F000E06010C1505016B
:104B0000D86F000E06010D150501D96F800E060144
:104B10000E150501DA6F7F0E06010F150501DB6F1B
:104B2000D851D911DA11DB11D8A499EFA5F09BEF78
:104B3000A5F0A4EFA5F0000E06010C6F000E0D6F9E
:104B4000000E0E6F000E0F6F06010BAFAAEFA5F05F
:104B5000ACEFA5F0B5EFA5F0086D091FD8B0092B93
:104B60000A1FD8B00A2B800E0B570FAFBAEFA5F073
:104B7000BCEFA5F0C5EFA5F00C6D0D1FD8B00D2B47
:104B80000E1FD8B00E2B800E0F57000E081B000E04
:104B9000091B000E0A1B800E0B1B000E0C1B000EC7
:104BA0000D1B000E0E1B800E0F1B0C51085D0D51CE
:104BB00009590E510A590F510B59D8B0E2EFA5F01F
:104BC000E4EFA5F0E7EFA5F0D890E8EFA5F0D880E6
:104BD000120010C66BF511C66CF512C66DF513C642
:104BE0006EF5AEECA8F005016B516C11D8A4FBEF8B
:104BF000A5F0FDEFA5F007EFA6F014C610F615C658
:104C000011F616C612F617C613F67CEFA6F014C6F8
:104C10006BF515C66CF516C66DF517C66EF5AEECE0
:104C2000A8F005016B516C11D8A419EFA6F01BEF89
:104C3000A6F025EFA6F010C610F611C611F612C6A2
:104C400012F613C613F67CEFA6F010C66BF511C66C
:104C50006CF512C66DF513C66EF5FFECB6F06BC5BC
:104C6000DCF56CC5DDF514C66BF515C66CF516C61E
:104C70006DF517C66EF5FFECB6F005016B51DC194A
:104C800009E16C51DD19D8B448EFA6F04AEFA6F05F
:104C900060EFA6F010C66BF511C66CF512C66DF587
:104CA00013C66EF5FFECB6F005016B516C11D8A47C
:104CB0005CEFA6F05EEFA6F01BEFA6F0FDEFA5F00F
:104CC00010C608F611C609F612C60AF613C60BF688
:104CD00014C60CF615C60DF616C60EF617C60FF658
:104CE00054ECA5F00601D8A078EFA6F07AEFA6F074
:104CF0001BEFA6F0FDEFA5F0120018C66BF519C664
:104D00006CF51AC66DF51BC66EF5AEECA8F0050184
:104D10006B516C11D8A48FEFA6F091EFA6F09BEF2A
:104D2000A6F01CC618F61DC619F61EC61AF61FC632
:104D30001BF610EFA7F01CC66BF51DC66CF51EC662
:104D40006DF51FC66EF5AEECA8F005016B516C1148
:104D5000D8A4ADEFA6F0AFEFA6F0B9EFA6F018C655
:104D600018F619C619F61AC61AF61BC61BF610EF66
:104D7000A7F018C66BF519C66CF51AC66DF51BC6FB
:104D80006EF5FFECB6F06BC5DEF56CC5DFF51CC645
:104D90006BF51DC66CF51EC66DF51FC66EF5FFECF6
:104DA000B6F005016B51DE1909E16C51DF19D8B479
:104DB000DCEFA6F0DEEFA6F0F4EFA6F018C66BF578
:104DC00019C66CF51AC66DF51BC66EF5FFECB6F08C
:104DD00005016B516C11D8A4F0EFA6F0F2EFA6F02C
:104DE00091EFA6F0AFEFA6F018C608F619C609F6BF
:104DF0001AC60AF61BC60BF61CC60CF61DC60DF627
:104E00001EC60EF61FC60FF654ECA5F00601D8A07C
:104E10000CEFA7F00EEFA7F091EFA6F0AFEFA6F022
:104E20001200C80E05017C6F000E7D6F000E7E6FB4
:104E3000000E7F6F74517A6F73C57BF53CEFA7F05E
:104E400005017C517D117E117F11D8A42AEFA7F0B6
:104E50002CEFA7F02EEFA7F0A0EFA7F07C07000E35
:104E60007D5B7E5B7F5B150E0501786FC60EE82EBD
:104E7000FED7782FFCD70000000E05016D6F530E92
:104E80006C6F7A0E6E6F050E6F6F000E716F020EF3
:104E9000706FD3ECB5F00009D8B451EFA7F053EF21
:104EA000A7F020EFA7F0C80E05017C6F000E7D6F04
:104EB000000E7E6F000E7F6F7AEFA7F005017C5128
:104EC0007D117E117F11D8A468EFA7F06AEFA7F0DB
:104ED0006CEFA7F0A0EFA7F07C07000E7D5B7E5B78
:104EE0007F5B150E0501786FC60EE82EFED7782F72
:104EF000FCD70000000E05016D6F530E6C6F75C579
:104F00006EF576C56FF5020E7725706F716B000E2A
:104F10007123FFECB5F00009D8B491EFA7F093EF3F
:104F2000A7F05EEFA7F0090E0501796F1E0E786FEE
:104F3000E40EE82EFED7782FFCD7792FFAD70000A1
:104F400012000601223523350501E56FE551D8A48D
:104F5000ACEFA7F0AEEFA7F0B9EFA7F0000E060197
:104F6000206F000E216F000E226F000E236F2DEFB9
:104F7000A8F020C6E0F521C6E1F522C6E2F523C679
:104F8000E3F5200EC9EFA7F0D890E333E233E13325
:104F9000E033E82EC4EFA7F0E051E46F0601228F62
:104FA000FF0E2017FF0E2117FF0E2217000E2317EA
:104FB000960E0501E55FE5BFE2EFA7F0E0EFA7F091
:104FC000FAEFA7F0E551800A970FD8B0EAEFA7F003
:104FD000ECEFA7F0EEEFA7F0AEEFA7F00601D89048
:104FE00023332233213320330501E53FEEEFA7F0D1
:104FF00014EFA8F01F0EE56500EFA8F002EFA8F08F
:105000000CEFA8F0AEEFA7F00601D89020372137BB
:10501000223723370501E507E551D8A412EFA8F0A0
:1050200014EFA8F004EFA8F0E451D8B41AEFA8F0F8
:105030001CEFA8F025EFA8F00601231F221F211F57
:10504000206D000E21232223232320C620F621C613
:1050500021F622C622F623C623F612000501FA0520
:10506000D8B435EFA8F037EFA8F039EFA8F0ADEFDE
:10507000A8F0510E6B6F090E6C6F7E0E6D6F080EEF
:105080006E6FFBC56FF5706BD6ECB6F00501FB518A
:10509000FE0F7C6F510E6B6F090E6C6F7CC56DF54A
:1050A00060ECB2F06BC599F76CC59AF7520E05012A
