:0430000081EF18F054
:10300800CC34CC34CC34CC34400CCC34400CCC3420
:103018000434CC34C634CC34CC34CC34CC34CC3476
:10302800C734400C400C400CCC34CC34CC34CC34B9
:10303800CC34CC34CC34DA31C930CC34CC34C9318A
:103048003734B934CC34CC34400C400CCC34CC3488
:10305800CC34CC34CC34400CCC34CC34A731E52B34
:103068000A34CC34CC34CC34CC34CC34CC34CC341A
:10307800E933F033B32D5A2B400CCC34B831122C31
:10308800CC34CC34CC34CC34CC34CC34CC34CC3438
:10309800CC34CC34CC34CC34400CCC34400C400C44
:1030A8001034CC34CC34CC34CC34CC34CC34CC34D4
:1030B800CC34CC34CC341731CC34CC34CC34CC34C0
:1030C800CC34CC34CC34CC34CC34CC34CC34CC34F8
:1030D800CC34CC34CC34CC34CC34CC34CC34CC34E8
:1030E800400CCC34CC34CC34400C400C400C400C5C
:1030F800CC34CC34CC34CC34FF0098EF52F0000000
:10310800C0C101C30302C2C60607C705C5C404CCB3
:103118000C0DCD0FCFCE0E0ACACB0BC90908C8D8E3
:103128001819D91BDBDA1A1EDEDF1FDD1D1CDC14A3
:10313800D4D515D71716D6D21213D311D1D010F073
:103148003031F133F3F23236F6F737F53534F43CF3
:10315800FCFD3DFF3F3EFEFA3A3BFB39F9F83828C3
:10316800E8E929EB2B2AEAEE2E2FEF2DEDEC2CE4E3
:103178002425E527E7E62622E2E323E12120E0A053
:103188006061A163A3A26266A6A767A56564A46C33
:10319800ACAD6DAF6F6EAEAA6A6BAB69A9A8687863
:1031A800B8B979BB7B7ABABE7E7FBF7DBDBC7CB423
:1031B8007475B577B7B67672B2B373B17170B05033
:1031C8009091519353529296565797559594549C73
:1031D8005C5D9D5F9F9E5E5A9A9B5B995958988843
:1031E8004849894B8B8A4A4E8E8F4F8D4D4C8C4463
:1031F80084854587474686824243834181804000D3
:10320800C1814001C0804101C0804100C1814001AD
:10321800C0804100C1814000C1814001C08041019E
:10322800C0804100C1814000C1814001C08041008F
:10323800C1814001C0804101C0804100C18140017D
:10324800C0804100C1814000C1814001C08041006F
:10325800C1814001C0804101C0804100C18140005E
:10326800C1814001C0804101C0804100C18140014D
:10327800C0804100C1814000C1814001C08041013E
:10328800C0804100C1814000C1814001C08041002F
:10329800C1814001C0804101C0804100C18140001E
:1032A800C1814001C0804101C0804100C18140010D
:1032B800C0804100C1814000C1814001C0804100FF
:1032C800C1814001C0804101C0804100C1814001ED
:1032D800C0804100C1814000C1814001C0804101DE
:1032E800C0804100C1814000C1814001C0804100CF
:1032F800C1814001C0804101C0804100C1814000BE
:10330800C0C101C30302C2C60607C705C5C404CCB1
:103318000C0DCD0FCFCE0E0ACACB0BC90908C8D8E1
:103328001819D91BDBDA1A1EDEDF1FDD1D1CDC14A1
:10333800D4D515D71716D6D21213D311D1D010F071
:103348003031F133F3F23236F6F737F53534F43CF1
:10335800FCFD3DFF3F3EFEFA3A3BFB39F9F83828C1
:10336800E8E929EB2B2AEAEE2E2FEF2DEDEC2CE4E1
:103378002425E527E7E62622E2E323E12120E0A051
:103388006061A163A3A26266A6A767A56564A46C31
:10339800ACAD6DAF6F6EAEAA6A6BAB69A9A8687861
:1033A800B8B979BB7B7ABABE7E7FBF7DBDBC7CB421
:1033B8007475B577B7B67672B2B373B17170B05031
:1033C8009091519353529296565797559594549C71
:1033D8005C5D9D5F9F9E5E5A9A9B5B995958988841
:1033E8004849894B8B8A4A4E8E8F4F8D4D4C8C4461
:1033F80084854587474686824243834181804000D1
:10340800C1814001C0804101C0804100C1814001AB
:10341800C0804100C1814000C1814001C08041019C
:10342800C0804100C1814000C1814001C08041008D
:10343800C1814001C0804101C0804100C18140017B
:10344800C0804100C1814000C1814001C08041006D
:10345800C1814001C0804101C0804100C18140005C
:10346800C1814001C0804101C0804100C18140014B
:10347800C0804100C1814000C1814001C08041013C
:10348800C0804100C1814000C1814001C08041002D
:10349800C1814001C0804101C0804100C18140001C
:1034A800C1814001C0804101C0804100C18140010B
:1034B800C0804100C1814000C1814001C0804100FD
:1034C800C1814001C0804101C0804100C1814001EB
:1034D800C0804100C1814000C1814001C0804101DC
:1034E800C0804100C1814000C1814001C0804100CD
:1034F800C1814001C0804101C0804100C1814000BC
:10350800C0C101C30302C2C60607C705C5C404CCAF
:103518000C0DCD0FCFCE0E0ACACB0BC90908C8D8DF
:103528001819D91BDBDA1A1EDEDF1FDD1D1CDC149F
:10353800D4D515D71716D6D21213D311D1D010F06F
:103548003031F133F3F23236F6F737F53534F43CEF
:10355800FCFD3DFF3F3EFEFA3A3BFB39F9F83828BF
:10356800E8E929EB2B2AEAEE2E2FEF2DEDEC2CE4DF
:103578002425E527E7E62622E2E323E12120E0A04F
:103588006061A163A3A26266A6A767A56564A46C2F
:10359800ACAD6DAF6F6EAEAA6A6BAB69A9A868785F
:1035A800B8B979BB7B7ABABE7E7FBF7DBDBC7CB41F
:1035B8007475B577B7B67672B2B373B17170B0502F
:1035C8009091519353529296565797559594549C6F
:1035D8005C5D9D5F9F9E5E5A9A9B5B99595898883F
:1035E8004849894B8B8A4A4E8E8F4F8D4D4C8C445F
:1035F80084854587474686824243834181804000CF
:10360800C1814001C0804101C0804100C1814001A9
:10361800C0804100C1814000C1814001C08041019A
:10362800C0804100C1814000C1814001C08041008B
:10363800C1814001C0804101C0804100C181400179
:10364800C0804100C1814000C1814001C08041006B
:10365800C1814001C0804101C0804100C18140005A
:10366800C1814001C0804101C0804100C181400149
:10367800C0804100C1814000C1814001C08041013A
:10368800C0804100C1814000C1814001C08041002B
:10369800C1814001C0804101C0804100C18140001A
:1036A800C1814001C0804101C0804100C181400109
:1036B800C0804100C1814000C1814001C0804100FB
:1036C800C1814001C0804101C0804100C1814001E9
:1036D800C0804100C1814000C1814001C0804101DA
:1036E800C0804100C1814000C1814001C0804100CB
:1036F800C1814001C0804101C0804100C1814000BA
:10370800C0C101C30302C2C60607C705C5C404CCAD
:103718000C0DCD0FCFCE0E0ACACB0BC90908C8D8DD
:103728001819D91BDBDA1A1EDEDF1FDD1D1CDC149D
:10373800D4D515D71716D6D21213D311D1D010F06D
:103748003031F133F3F23236F6F737F53534F43CED
:10375800FCFD3DFF3F3EFEFA3A3BFB39F9F83828BD
:10376800E8E929EB2B2AEAEE2E2FEF2DEDEC2CE4DD
:103778002425E527E7E62622E2E323E12120E0A04D
:103788006061A163A3A26266A6A767A56564A46C2D
:10379800ACAD6DAF6F6EAEAA6A6BAB69A9A868785D
:1037A800B8B979BB7B7ABABE7E7FBF7DBDBC7CB41D
:1037B8007475B577B7B67672B2B373B17170B0502D
:1037C8009091519353529296565797559594549C6D
:1037D8005C5D9D5F9F9E5E5A9A9B5B99595898883D
:1037E8004849894B8B8A4A4E8E8F4F8D4D4C8C445D
:1037F80084854587474686824243834181804000CD
:10380800C1814001C0804101C0804100C1814001A7
:10381800C0804100C1814000C1814001C080410198
:10382800C0804100C1814000C1814001C080410089
:10383800C1814001C0804101C0804100C181400177
:10384800C0804100C1814000C1814001C080410069
:10385800C1814001C0804101C0804100C181400058
:10386800C1814001C0804101C0804100C181400147
:10387800C0804100C1814000C1814001C080410138
:10388800C0804100C1814000C1814001C080410029
:10389800C1814001C0804101C0804100C181400018
:1038A800C1814001C0804101C0804100C181400107
:1038B800C0804100C1814000C1814001C0804100F9
:1038C800C1814001C0804101C0804100C1814001E7
:1038D800C0804100C1814000C1814001C0804101D8
:1038E800C0804100C1814000C1814001C0804100C9
:1038F800C1814001C0804101C0804100C1814000B8
:10390800C0C101C30302C2C60607C705C5C404CCAB
:103918000C0DCD0FCFCE0E0ACACB0BC90908C8D8DB
:103928001819D91BDBDA1A1EDEDF1FDD1D1CDC149B
:10393800D4D515D71716D6D21213D311D1D010F06B
:103948003031F133F3F23236F6F737F53534F43CEB
:10395800FCFD3DFF3F3EFEFA3A3BFB39F9F83828BB
:10396800E8E929EB2B2AEAEE2E2FEF2DEDEC2CE4DB
:103978002425E527E7E62622E2E323E12120E0A04B
:103988006061A163A3A26266A6A767A56564A46C2B
:10399800ACAD6DAF6F6EAEAA6A6BAB69A9A868785B
:1039A800B8B979BB7B7ABABE7E7FBF7DBDBC7CB41B
:1039B8007475B577B7B67672B2B373B17170B0502B
:1039C8009091519353529296565797559594549C6B
:1039D8005C5D9D5F9F9E5E5A9A9B5B99595898883B
:1039E8004849894B8B8A4A4E8E8F4F8D4D4C8C445B
:1039F80084854587474686824243834181804000CB
:103A0800C1814001C0804101C0804100C1814001A5
:103A1800C0804100C1814000C1814001C080410196
:103A2800C0804100C1814000C1814001C080410087
:103A3800C1814001C0804101C0804100C181400175
:103A4800C0804100C1814000C1814001C080410067
:103A5800C1814001C0804101C0804100C181400056
:103A6800C1814001C0804101C0804100C181400145
:103A7800C0804100C1814000C1814001C080410136
:103A8800C0804100C1814000C1814001C080410027
:103A9800C1814001C0804101C0804100C181400016
:103AA800C1814001C0804101C0804100C181400105
:103AB800C0804100C1814000C1814001C0804100F7
:103AC800C1814001C0804101C0804100C1814001E5
:103AD800C0804100C1814000C1814001C0804101D6
:103AE800C0804100C1814000C1814001C0804100C7
:103AF800C1814001C0804101C0804100C1814000B6
:103B0800C0C101C30302C2C60607C705C5C404CCA9
:103B18000C0DCD0FCFCE0E0ACACB0BC90908C8D8D9
:103B28001819D91BDBDA1A1EDEDF1FDD1D1CDC1499
:103B3800D4D515D71716D6D21213D311D1D010F069
:103B48003031F133F3F23236F6F737F53534F43CE9
:103B5800FCFD3DFF3F3EFEFA3A3BFB39F9F83828B9
:103B6800E8E929EB2B2AEAEE2E2FEF2DEDEC2CE4D9
:103B78002425E527E7E62622E2E323E12120E0A049
:103B88006061A163A3A26266A6A767A56564A46C29
:103B9800ACAD6DAF6F6EAEAA6A6BAB69A9A8687859
:103BA800B8B979BB7B7ABABE7E7FBF7DBDBC7CB419
:103BB8007475B577B7B67672B2B373B17170B05029
:103BC8009091519353529296565797559594549C69
:103BD8005C5D9D5F9F9E5E5A9A9B5B995958988839
:103BE8004849894B8B8A4A4E8E8F4F8D4D4C8C4459
:103BF80084854587474686824243834181804000C9
:103C0800C1814001C0804101C0804100C1814001A3
:103C1800C0804100C1814000C1814001C080410194
:103C2800C0804100C1814000C1814001C080410085
:103C3800C1814001C0804101C0804100C181400173
:103C4800C0804100C1814000C1814001C080410065
:103C5800C1814001C0804101C0804100C181400054
:103C6800C1814001C0804101C0804100C181400143
:103C7800C0804100C1814000C1814001C080410134
:103C8800C0804100C1814000C1814001C080410025
:103C9800C1814001C0804101C0804100C181400014
:103CA800C1814001C0804101C0804100C181400103
:103CB800C0804100C1814000C1814001C0804100F5
:103CC800C1814001C0804101C0804100C1814001E3
:103CD800C0804100C1814000C1814001C0804101D4
:103CE800C0804100C1814000C1814001C0804100C5
:103CF800C1814001C0804101C0804100C18140565E
:103D0800B4000000005ACB00C2C300000000F6CF88
:103D1800000000000000000000000000000000009B
:103D2800000000000000000000000000000000008B
:103D380000000000005CCF0000000038CF0014CF66
:103D480000F0CE000000002CC20000000032BF00CE
:103D58008ABF00000000000000000000E6CC000060
:103D680000000000004348317C493A252E32667C29
:103D7800563A252E32667C503A252E32667C5057AC
:103D88004D3A25647C0A0D20004348327C493A2587
:103D98002E32667C563A252E32667C503A252E32D3
:103DA800667C50574D3A25647C0A0D200053503AE2
:103DB800252E32667C55524745313A25647C55524A
:103DC8004745323A25647C200A0D200054656D7001
:103DD8003A252E32667C0A0D200056696E3A256413
:103DE8007C200A0D20007069643A25647C0A0D2045
:103DF8000050726F3A25647C0A0D2000563A2564FB
:103E08000A0D002530325800696E66006E616E003A
:013E180000A9
:103E1A000601446B1EC645F61FC646F620C647F67F
:103E2A0021C648F648BF1EEF1FF01CEF1FF032EF05
:103E3A001FF0010E446F45C663F546C664F547C6D2
:103E4A0065F548C666F593EC64F063C545F664C546
:103E5A0046F665C547F666C548F6000E06014A6F7E
:103E6A00000E496FC1C638F6C2C639F64451D8B4F5
:103E7A0041EF1FF043EF1FF057EF1FF04451D8A452
:103E8A0049EF1FF04BEF1FF051EF1FF0000E2A6FA2
:103E9A002B0E296F55EF1FF0000E2A6F2D0E296F7A
:103EAA0029C644F645C663F546C664F547C665F5B0
:103EBA0048C666F59CEC51F0050163056411D8A467
:103ECA0069EF1FF06BEF1FF0A2EF1FF006014451DC
:103EDA00D8B472EF1FF074EF1FF07DEF1FF044C6E5
:103EEA0051F93807D8A03907000E4A6F010E496FF9
:103EFA00510E49250501636F090E06014A21050184
:103F0A00646F100E656F3E0E666F38EC64F0060142
:103F1A00FD0E3827FF0E39231CC677F51DC678F526
:103F2A00510E0501796F090E7A6F38C67BF539C6CD
:103F3A007CF5D8EC59F082EF24F045C663F546C605
:103F4A0064F547C665F548C666F59CEC51F005016F
:103F5A0063516411D8A4B4EF1FF0B6EF1FF0D9EF84
:103F6A001FF006014451D8B4BDEF1FF0BFEF1FF098
:103F7A00C8EF1FF044C651F93807D8A03907000E18
:103F8A004A6F010E496F510E49250501636F090EEB
:103F9A0006014A210501646F140E656F3E0E666FB5
:103FAA0038EC64F08CEF1FF0000E06014B6F000E28
:103FBA004C6F800E4D6F3F0E4E6F000E336F000E2A
:103FCA00326F45C663F546C664F547C665F548C609
:103FDA0066F5000E0501676F000E686F000E696FC7
:103FEA00000E6A6FD6EC58F00501D8B0FFEF1FF04B
:103FFA0001EF20F0FBEF20F00EEF20F034C64BF675
:10400A0035C64CF636C64DF637C64EF60601324B65
:10401A00332B4BC6BFF54CC6C0F54DC6C1F54EC6CF
:10402A00C2F5000E0501C36F000EC46F200EC56FE6
:10403A00410EC66F4DEC30F0BFC534F6C0C535F63B
:10404A00C1C536F6C2C537F606013451455D0501CC
:10405A00636F0601355146590501646F06013651F1
:10406A0047590501656F0601375148590501666FC1
:10407A0041EC5FF0050166BF4EEF20F06651651115
:10408A00641109E1020E635DD8A04EEF20F050EFF3
:10409A0020F003EF20F034C600F635C601F636C626
:1040AA0002F637C603F645C604F646C605F647C6FF
:1040BA0006F648C607F6F2EC4AF00601D8A068EF01
:1040CA0020F06AEF20F003EF20F04B51455D050127
:1040DA00636F06014C5146590501646F06014D5143
:1040EA0047590501656F06014E5148590501666F2A
:1040FA0041EC5FF0050166BF90EF20F06651651153
:10410A00641107E1020E635DD8B08EEF20F090EFE4
:10411A0020F0E1EF20F04BC645F64CC646F64DC6F8
:10412A0047F64EC648F6FBEF20F04BC6A6F54CC63E
:10413A00A7F54DC6A8F54EC6A9F5000E0501AA6F4A
:10414A00000EAB6F200EAC6F410EAD6F2AEC36F04D
:10415A00A6C54BF6A7C54CF6A8C54DF6A9C54EF699
:10416A0006013207D8A033074B51455D0501636F3D
:10417A0006014C5146590501646F06014D514759D4
:10418A000501656F06014E5148590501666F41ECFC
:10419A005FF0050166BFDFEF20F06651651164111B
:1041AA0007E1020E635DD8B0DDEF20F0DFEF20F00B
:1041BA00E1EF20F090EF20F045C600F646C601F682
:1041CA0047C602F648C603F64BC604F64CC605F6C1
:1041DA004DC606F64EC607F6F2EC4AF00601D8A01E
:1041EA00F9EF20F0FBEF20F09AEF20F022C62CF630
:1041FA002CC62DF60601C4BF05EF21F007EF21F00A
:10420A000DEF21F0C3C625F6C4C626F611EF21F03C
:10421A00000E266F060E256F25C630F626C631F625
:10422A00304B312B660E2D19D8A41EEF21F020EF4A
:10423A0021F040EF21F033BF27EF21F025EF21F0E5
:10424A0033EF21F0000E4B6F000E4C6F800E4D6F56
:10425A003F0E4E6F000E336F000E326F670E2C1931
:10426A00D8B43AEF21F03CEF21F040EF21F032517F
:10427A00302733513123000E436F000E426F45C67B
:10428A003AF646C63BF647C63CF648C63DF64BC626
:10429A0034F64CC635F64DC636F64EC637F6D2EF6C
:1042AA0021F03AC6A6F53BC6A7F53CC6A8F53DC619
:1042BA00A9F54BC6AAF54CC6ABF54DC6ACF54EC62C
:1042CA00ADF52AEC36F0A6C5BFF5A7C5C0F5A8C559
:1042DA00C1F5A9C5C2F56FEC40F0BFC53EF6C0C531
:1042EA003FF6C1C540F6C2C541F63EC618F63FC6FE
:1042FA0019F640C61AF641C61BF662EC4EF018C60D
:10430A002EF619C62FF63AC6D8F53BC6D9F53CC6DD
:10431A00DAF53DC6DBF53EC6C3F53FC6C4F540C671
:10432A00C5F541C6C6F54BC6BFF54CC6C0F54DC668
:10433A00C1F54EC6C2F54DEC30F0BFC5DCF5C0C5BF
:10434A00DDF5C1C5DEF5C2C5DFF59DEC62F0D8C565
:10435A003AF6D9C53BF6DAC53CF6DBC53DF64BC69F
:10436A00A6F54CC6A7F54DC6A8F54EC6A9F5000E8A
:10437A000501AA6F000EAB6F200EAC6F410EAD6F38
:10438A002AEC36F0A6C54BF6A7C54CF6A8C54DF6DD
:10439A00A9C54EF60601424B432B3051425D4351AB
:1043AA00800A0501F66F06013151800A0501F659A6
:1043BA00D8A0E2EF21F0E4EF21F056EF21F04BC64E
:1043CA00BFF54CC6C0F54DC6C1F54EC6C2F5000EC6
:1043DA00C36F000EC46FA00EC56F400EC66F4DECC2
:1043EA0030F0BFC53EF6C0C53FF6C1C540F6C2C5EE
:1043FA0041F63AC600F63BC601F63CC602F63DC691
:10440A0003F63EC604F63FC605F640C606F641C6A2
:10441A0007F6F2EC4AF00601D8B016EF22F018EFD0
:10442A0022F022EF22F0000E3E6F000E3F6F000EC8
:10443A00406F000E416F4CEF22F03AC663F53BC65F
:10444A0064F53CC665F53DC666F53EC667F53FC6EA
:10445A0068F540C669F541C66AF5D6EC58F005011B
:10446A00D8A03AEF22F03CEF22F04CEF22F00601FE
:10447A002EB142EF22F044EF22F04CEF22F0000E70
:10448A003E6F000E3F6F000E406F000E416F45C633
:10449A0063F546C664F547C665F548C666F53EC681
:1044AA0067F53FC668F540C669F541C66AF589EC05
:1044BA0029F063C53AF664C53BF665C53CF666C5A0
:1044CA003DF63AC600F63BC601F63CC602F63DC6C4
:1044DA0003F6000E0501C36F000EC46F200EC56FF0
:1044EA00410EC66F34C6BFF535C6C0F536C6C1F52E
:1044FA0037C6C2F54DEC30F0BFC504F6C0C505F6A7
:10450A00C1C506F6C2C507F6F2EC4AF00601D8A004
:10451A0091EF22F093EF22F0BCEF22F0324B332BD3
:10452A0034C6BFF535C6C0F536C6C1F537C6C2F5BD
:10453A00000E0501C36F000EC46F200EC56F410E39
:10454A00C66F4DEC30F0BFC534F6C0C535F6C1C5EF
:10455A0036F6C2C537F6660E06012D19D8A4B8EF8D
:10456A0022F0BAEF22F0BCEF22F0304B312B34C6E6
:10457A004BF635C64CF636C64DF637C64EF632C63B
:10458A0023F633C624F62B6B000E286F000E276F16
:10459A00000E436F000E426FB9EF23F03AC6A6F53C
:1045AA003BC6A7F53CC6A8F53DC6A9F54BC6AAF574
:1045BA004CC6ABF54DC6ACF54EC6ADF52AEC36F099
:1045CA00A6C5BFF5A7C5C0F5A8C5C1F5A9C5C2F559
:1045DA006FEC40F0BFC53EF6C0C53FF6C1C540F618
:1045EA00C2C541F63EC618F63FC619F640C61AF6C7
:1045FA0041C61BF662EC4EF0060119BF10EF23F01C
:10460A00195107E10A0E185DD8B00EEF23F010EF2A
:10461A0023F020EF23F03EC618F63FC619F640C62F
:10462A001AF641C61BF662EC4EF018C62EF619C6EB
:10463A002FF624EF23F0000E2F6F090E2E6F0601BE
:10464A002B51D8A42BEF23F02DEF23F055EF23F0B5
:10465A0024BF34EF23F032EF23F055EF23F0510E4D
:10466A004925D96E090E4A21DA6E2E0EDF6E494BA4
:10467A004A2B3807D8A03907010E2B6F55EF23F0C4
:10468A00510E4925D96E090E4A21DA6E300EDF6EB7
:10469A00494B4A2B3807D8A039072707D8A028073B
:1046AA0027512811D8A45CEF23F05EEF23F045EFE1
:1046BA0023F0510E4925D96E090E4A21DA6E2E5180
:1046CA00300FDF6E494B4A2B3807D8A039073AC654
:1046DA00D8F53BC6D9F53CC6DAF53DC6DBF53EC68C
:1046EA00C3F53FC6C4F540C6C5F541C6C6F54BC6B7
:1046FA00BFF54CC6C0F54DC6C1F54EC6C2F54DEC68
:10470A0030F0BFC5DCF5C0C5DDF5C1C5DEF5C2C5F3
:10471A00DFF59DEC62F0D8C53AF6D9C53BF6DAC5A5
:10472A003CF6DBC53DF64BC6A6F54CC6A7F54DC60D
:10473A00A8F54EC6A9F5000E0501AA6F000EAB6FCB
:10474A00200EAC6F410EAD6F2AEC36F0A6C54BF6C3
:10475A00A7C54CF6A8C54DF6A9C54EF6060123070E
:10476A00D8A02407424B432B3051425D4351800A63
:10477A000501F66F06013151800A0501F659D8B0D4
:10478A00C9EF23F0CBEF23F0DAEF23F006014ABF9B
:10479A00D8EF23F04A5109E14B0E495DD8A0D8EF72
:1047AA0023F0DAEF23F0D3EF22F0000E0601436F75
:1047BA004F0E426F510E4225D96E090E4321DA6E11
:1047CA00DF6A510E0501F66F090EF76F06014951AE
:1047DA000501F65F06014A510501F75B06014251E0
:1047EA000501F625636F060143510501F721646F40
:1047FA00510E656F090E666F49C667F54AC668F5B8
:10480A0072EC60F006014951425D496F4A514359C1
:10481A004A6F4451D8A414EF24F017EF24F0010E84
:10482A0018EF24F0000E426F436BD1A31FEF24F060
:10483A0021EF24F057EF24F032EF24F00601490764
:10484A00D8A04A07510E4925D96E090E4A21DA6EB7
:10485A00300EDF6E3807D8A039073851425D435110
:10486A00800A0501F66F06013951800A0501F659D9
:10487A00D8B042EF24F044EF24F057EF24F00601B9
:10488A004951425D4351800A0501F66F06014A51BA
:10489A00800A0501F659D8A055EF24F057EF24F005
:1048AA0023EF24F006014451D8B45EEF24F060EF00
:1048BA0024F06BEF24F04907D8A04A07510E492586
:1048CA00D96E090E4A21DA6E44C6DFF44251385FC6
:1048DA004351395B1CC677F51DC678F5510E49253B
:1048EA000501796F090E06014A2105017A6F38C65A
:1048FA007BF539C67CF5D8EC59F012001EC6D8F5FE
:10490A001FC6D9F520C6DAF521C6DBF522C6DCF5C5
:10491A0023C6DDF524C6DEF525C6DFF59DEC62F07B
:10492A00D8C546F6D9C547F6DAC548F6DBC549F60D
:10493A0046C6E0F547C6E1F548C6E2F549C6E3F5DD
:10494A0078EC65F0E0C54EF6E1C54FF6E2C550F6E3
:10495A00E3C551F6060120EE05F01C51D9261D517A
:10496A00DA22DEC44AF6DEC44BF6DEC44CF6DEC4F6
:10497A004DF6000E006F000E016F480E026F420ED8
:10498A00036F4EC604F64FC605F650C606F651C664
:10499A0007F6F2EC4AF00601D8B0D6EF24F0D8EFC9
:1049AA0024F0F5EF24F04AC6BFF54BC6C0F54CC655
:1049BA00C1F54DC6C2F5CD0E0501C36FCC0EC46F4D
:1049CA00CC0EC56F3D0EC66F4DEC30F0BFC54AF632
:1049DA00C0C54BF6C1C54CF6C2C54DF661EF25F010
:1049EA00000E006F000E016FA00E026F410E036FE2
:1049FA004EC604F64FC605F650C606F651C607F669
:104A0A00F2EC4AF00601D8B00DEF25F00FEF25F0D1
:104A1A002CEF25F04AC6BFF54BC6C0F54CC6C1F50A
:104A2A004DC6C2F59A0E0501C36F990EC46F990E51
:104A3A00C56F3E0EC66F4DEC30F0BFC54AF6C0C515
:104A4A004BF6C1C54CF6C2C54DF661EF25F04EC610
:104A5A0000F64FC601F650C602F651C603F6000E1E
:104A6A00046F000E056FA00E066F400E076FF2EC82
:104A7A004AF00601D8B044EF25F046EF25F061EF81
:104A8A0025F04AC6BFF54BC6C0F54CC6C1F54DC6A2
:104A9A00C2F5000E0501C36F000EC46F000EC56F8C
:104AAA00400EC66F4DEC30F0BFC54AF6C0C54BF696
:104ABA00C1C54CF6C2C54DF6060120EE01F01C51E7
:104ACA00D9261D51DA22DEC4BFF5DEC4C0F5DEC424
:104ADA00C1F5DEC4C2F546C6C3F547C6C4F548C625
:104AEA00C5F549C6C6F54DEC30F0BFC526F6C0C5BA
:104AFA0027F6C1C528F6C2C529F64EC600F64FC626
:104B0A0001F650C602F651C603F6000E0601046FFE
:104B1A00000E056F480E066F420E076FF2EC4AF060
:104B2A000601D8B09BEF25F09DEF25F07CEF27F02A
:104B3A0046C652F647C653F648C654F649C655F60F
:104B4A00000E006F000E016FF00E026F410E036F30
:104B5A004EC604F64FC605F650C606F651C607F607
:104B6A00F2EC4AF00601D8B0BDEF25F0BFEF25F010
:104B7A0005EF26F0000E006F000E016F200E026F87
:104B8A00420E036F52C604F653C605F654C606F61D
:104B9A0055C607F6F2EC4AF00601D8B0D7EF25F071
:104BAA00D9EF25F0E1EF25F0000E526F000E536F9A
:104BBA00200E546F420E556F52C600F653C601F6C8
:104BCA0054C602F655C603F6000E046F000E056FB2
:104BDA00200E066FC20E076FF2EC4AF00601D8B03B
:104BEA00F9EF25F0FBEF25F0D8EF26F0000E526F13
:104BFA00000E536F200E546FC20E556FD8EF26F079
:104C0A00000E006F000E016F200E026F410E036F3F
:104C1A004EC604F64FC605F650C606F651C607F646
:104C2A00F2EC4AF00601D8B01DEF26F01FEF26F08D
:104C3A0094EF26F04EC6BFF54FC6C0F550C6C1F573
:104C4A0051C6C2F5CD0E0501C36FCC0EC46F4C0E12
:104C5A00C56F3F0EC66F4DEC30F0BFC53EF6C0C5FE
:104C6A003FF6C1C540F6C2C541F63EC600F63FC68C
:104C7A0001F640C602F641C603F652C604F653C60A
:104C8A0005F654C606F655C607F6F2EC4AF00601D2
:104C9A00D8B052EF26F054EF26F05CEF26F03EC66D
:104CAA0052F63FC653F640C654F641C655F652C6AA
:104CBA0000F653C601F654C602F655C603F63EC6BA
:104CCA0063F53FC664F540C665F541C666F593ECE3
:104CDA0064F063C504F664C505F665C506F666C5DF
:104CEA0007F6F2EC4AF00601D8B07EEF26F080EF24
:104CFA0026F0D8EF26F03EC663F53FC664F540C6F7
:104D0A0065F541C666F593EC64F063C552F664C571
:104D1A0053F665C554F666C555F6D8EF26F0000E6B
:104D2A00006F000E016FA00E026F400E036F52C695
:104D3A0004F653C605F654C606F655C607F6F2EC4F
:104D4A004AF00601D8B0ACEF26F0AEEF26F0B6EF87
:104D5A0026F0000E526F000E536FA00E546F400ED5
:104D6A00556F52C600F653C601F654C602F655C62A
:104D7A0003F6000E046F000E056FA00E066FC00E3C
:104D8A00076FF2EC4AF00601D8B0CEEF26F0D0EF6A
:104D9A0026F0D8EF26F0000E526F000E536FA00EC9
:104DAA00546FC00E556F52C6BFF553C6C0F554C6F0
:104DBA00C1F555C6C2F5060120EE05F01C51D926EB
:104DCA001D51DA22DEC4AAF5DEC4ABF5DEC4ACF5A9
:104DDA00DEC4ADF54AC6A6F54BC6A7F54CC6A8F57E
:104DEA004DC6A9F52AEC36F0A6C5C3F5A7C5C4F584
:104DFA00A8C5C5F5A9C5C6F54DEC30F0BFC552F634
:104E0A00C0C553F6C1C554F6C2C555F6060120EE13
:104E1A001DF01C51D9261D51DA22DEC463F5DEC409
:104E2A0064F5DEC465F5DEC466F552C667F553C699
:104E3A0068F554C669F555C66AF589EC29F0060184
:104E4A0020EE1DF01C51D9261D51DA22050163C539
:104E5A00DEF464C5DEF465C5DEF466C5DEF406017B
:104E6A0020EE11F01C51D9261D51DA22DEC410F6AB
:104E7A00DEC411F6DEC412F6DEC413F620EE1DF00F
:104E8A001C51D9261D51DA22DEC408F6DEC409F601
:104E9A00DEC40AF6DEC40BF620EE0DF01C51D9264C
:104EAA001D51DA22DEC40CF6DEC40DF6DEC40EF69F
:104EBA00DEC40FF687EC4BF008C614F609C615F6E1
:104ECA000AC616F60BC617F61BEC4CF0060120EEC6
:104EDA001DF01C51D9261D51DA2210C6DEF411C666
:104EEA00DEF412C6DEF413C6DEF48AEF27F020EEF3
:104EFA001DF01C51D9261D51DA22000EDE6E000E5D
:104F0A00DE6E000EDE6E000EDD6E20EE1DF01C5110
:104F1A00D9261D51DA22DEC4BFF5DEC4C0F5DEC4CF
:104F2A00C1F5DEC4C2F54AC6C3F54BC6C4F54CC6C4
:104F3A00C5F54DC6C6F54DEC30F0BFC52AF6C0C55D
:104F4A002BF6C1C52CF6C2C52DF6060120EE21F0BE
:104F5A001C51D9261D51DA22DEC4DCF5DEC4DDF58A
:104F6A00DEC4DEF5DEC4DFF546C6D8F547C6D9F598
:104F7A0048C6DAF549C6DBF59DEC62F0D8C5BFF53F
:104F8A00D9C5C0F5DAC5C1F5DBC5C2F5060120EE03
:104F9A0009F01C51D9261D51DA22DEC4C3F5DEC43C
:104FAA00C4F5DEC4C5F5DEC4C6F54DEC30F0BFC5A8
:104FBA003AF6C0C53BF6C1C53CF6C2C53DF6330E4E
:104FCA000501C36F330EC46F330EC56F3F0EC66F34
:104FDA003AC6BFF53BC6C0F53CC6C1F53DC6C2F5EB
:104FEA004DEC30F0BFC563F5C0C564F5C1C565F5C4
:104FFA00C2C566F59A0E0501C36F990EC46F990E64
:10500A00C56F3E0EC66F18C7BFF519C7C0F51AC7D8
:10501A00C1F51BC7C2F54DEC30F0BFC567F5C0C579
:10502A0068F5C1C569F5C2C56AF589EC29F063C599
:10503A003AF664C53BF665C53CF666C53DF63AC622
:10504A0018F73BC619F73CC61AF73DC61BF7060107
:10505A0020EE21F01C51D9261D51DA2246C6DEF473
:10506A0047C6DEF448C6DEF449C6DEF42AC667F54A
:10507A002BC668F52CC669F52DC66AF526C663F5F2
:10508A0027C664F528C665F529C666F589EC29F0B0
:10509A0063C52EF664C52FF665C530F666C531F6CA
:1050AA002EC663F52FC664F530C665F531C666F5BA
:1050BA003AC667F53BC668F53CC669F53DC66AF56A
:1050CA0089EC29F063C542F664C543F665C544F622
:1050DA0066C545F61CC6D9F41DC6DAF4DE04D8A4A2
:1050EA0079EF28F07BEF28F0FCEF28F0060145BFA6
:1050FA0083EF28F081EF28F08DEF28F0000E326F51
:10510A00000E336F000E346FBF0E356F95EF28F027
:10511A00000E326F000E336F000E346F3F0E356F84
:10512A0042C667F543C668F544C669F545C66AF5D9
:10513A0032C663F533C664F534C665F535C666F519
:10514A0089EC29F063C518F664C519F665C51AF61F
:10515A0066C51BF662EC4EF006011851C7271951B5
:10516A00C823000E0C6F000E0D6F480E0E6F450E11
:10517A000F6FC7C698F5C8C699F50501000E99BF05
:10518A00FF0E9A6F9B6F010E55EC44F098C508F616
:10519A0099C509F69AC50AF69BC50BF687EC4BF03A
:1051AA0008C614F609C615F60AC616F60BC617F689
:1051BA00000E0601106F000E116F000E126F000E26
:1051CA00136F1BEC4CF010C618F611C619F612C66E
:1051DA001AF613C61BF662EC4EF018C6C7F619C6C5
:1051EA00C8F6C7C61CF6C8C61DF688EF29F01CC645
:1051FA00D9F41DC6DAF4020EDE18D8A407EF29F096
:10520A0009EF29F088EF29F0060145BF11EF29F0CF
:10521A000FEF29F01BEF29F0000E366F000E376FE3
:10522A00000E386FBF0E396F23EF29F0000E366F6C
:10523A00000E376F000E386F3F0E396F42C667F5A2
:10524A0043C668F544C669F545C66AF536C663F5C8
:10525A0037C664F538C665F539C666F589EC29F0AE
:10526A0063C518F664C519F665C51AF666C51BF650
:10527A0062EC4EF006011851C5271951C623000EDB
:10528A000C6F000E0D6F480E0E6F450E0F6FC5C6E0
:10529A0098F5C6C699F50501000E99BFFF0E9A6FDB
:1052AA009B6F010E55EC44F098C508F699C509F6AE
:1052BA009AC50AF69BC50BF687EC4BF008C614F69E
:1052CA0009C615F60AC616F60BC617F6000E06012B
:1052DA00106F000E116F000E126F000E136F1BEC91
:1052EA004CF010C618F611C619F612C61AF613C6ED
:1052FA001BF662EC4EF018C6C5F619C6C6F6C5C648
:10530A001CF6C6C61DF6120005016651800B6F6FAA
:10531A0066516625716F65AF95EF29F097EF29F011
:10532A0098EF29F071817151D8B49EEF29F0A0EF5E
:10533A0029F0B4EF29F07129D8A4A6EF29F0A8EF33
:10534A0029F0B0EF29F0000E636F000E646F000EB3
:10535A00656F000E666F658F666BBCEF29F0000EF5
:10536A00636F000E646F000E656F000E666F6A5100
:10537A00800B706F6F517019D8B4C6EF29F0C8EF5F
:10538A0029F0C9EF29F06F8D6A516A25706F69AFEC
:10539A00D1EF29F0D3EF29F0D4EF29F070817051C1
:1053AA00D8B4DAEF29F0DCEF29F0F0EF29F0702910
:1053BA00D8A4E2EF29F0E4EF29F0ECEF29F0000E8F
:1053CA00676F000E686F000E696F000E6A6F698F53
:1053DA006A6BF8EF29F0000E676F000E686F000E17
:1053EA00696F000E6A6F7151705DD8B0FFEF29F0D6
:1053FA0001EF2AF028EF2AF06FAD06EF2AF008EF46
:10540A002AF00AEF2AF0800E6F1B71C572F570C57B
:10541A0071F572C570F563C572F567C563F572C536
:10542A0067F564C572F568C564F572C568F565C542
:10543A0072F569C565F572C569F566C572F56AC51D
:10544A0066F572C56AF5726B715170C56BF56C6B56
:10545A006B5F000E6C5B6CBF3CEF2AF06C5109E18C
:10546A001A0E6B5DD8A03CEF2AF03EEF2AF075EFDA
:10547A002AF06351641165116611D8A447EF2AF026
:10548A004AEF2AF0010E4BEF2AF0000E726F000E5F
:10549A00636F000E646F000E656F000E666F70C555
:1054AA0071F57EEF2AF072A15DEF2AF05FEF2AF024
:1054BA0065EF2AF0D89072310109726F67EF2AF00E
:1054CA00D890723363A16CEF2AF06EEF2AF06FEF77
:1054DA002AF0728F66356633653364336333712B12
:1054EA007051715DD8A07CEF2AF07EEF2AF058EF58
:1054FA002AF06FBD83EF2AF085EF2AF0C5EF2AF074
:10550A007151D8A48BEF2AF08DEF2AF097EF2AF089
:10551A00000E636F000E646F000E656F000E666FFB
:10552A00E4EF2BF0675163276851642369516523BF
:10553A006A51662366A1A4EF2AF0A6EF2AF052EF79
:10554A002BF072A1ABEF2AF0ADEF2AF0B3EF2AF0FD
:10555A00D89072310109726FB5EF2AF0D890723380
:10556A0063A1BAEF2AF0BCEF2AF0BDEF2AF0728FDE
:10557A0066356633653364336333712B52EF2BF030
:10558A006751635D68516459695165596651800A6A
:10559A006B6F6A51800A6B59D8B0D6EF2AF0D8EFF0
:1055AA002AF003EF2BF06351675D6B6F6451685902
:1055BA006C6F655169596D6F66516A596E6FFF0E4E
:1055CA006B25636FFF0E6C21646FFF0E6D21656F93
:1055DA00FF0E6E21666F800E6F1B726D7251D8A41A
:1055EA00F9EF2AF0FBEF2AF00BEF2BF0010E6327FD
:1055FA00000E6423652366230BEF2BF06751635F6C
:10560A006851645B6951655B6A51665B63516411F9
:10561A0065116611D8A414EF2BF016EF2BF04BEF9F
:10562A002BF07251D8A41CEF2BF01EEF2BF04BEF8E
:10563A002BF0000E636F000E646F000E656F000E94
:10564A00666FE4EF2BF0D8906337643765376637B7
:10565A0072AF32EF2BF034EF2BF035EF2BF0638182
:10566A0072A13AEF2BF03CEF2BF040EF2BF0D880F1
:10567A00723742EF2BF0D89072377151D8B448EF95
:10568A002BF04AEF2BF04BEF2BF0710765AF50EF81
:10569A002BF052EF2BF028EF2BF0706B72AF58EF14
:1056AA002BF05AEF2BF072EF2BF072C56BF57F0ED1
:1056BA006B17D8B463EF2BF065EF2BF069EF2BF083
:1056CA00010E706F72EF2BF063A16EEF2BF070EF8B
:1056DA002BF072EF2BF065EF2BF07051D8B478EF06
:1056EA002BF07AEF2BF0A5EF2BF0010E6327000EBB
:1056FA0064236523662366A185EF2BF087EF2BF0E1
:10570A00A5EF2BF063C56BF564C56CF565C56DF542
:10571A0066C56EF56E356E336D336C336B336BC5A0
:10572A0063F56CC564F56DC565F56EC566F57129D9
:10573A00D8B4A2EF2BF0A4EF2BF0A5EF2BF0712B2E
:10574A007129D8B4ABEF2BF0ADEF2BF0B5EF2BF0FE
:10575A007151D8A4B3EF2BF0B5EF2BF0C6EF2BF0B5
:10576A00000E636F000E646F000E656F000E666FA9
:10577A007151D8A4C3EF2BF0C5EF2BF0C6EF2BF075
:10578A006F6B71A1CBEF2BF0CDEF2BF0D0EF2BF09D
:10579A00658FD1EF2BF0659FD8907131666F6FAF2F
:1057AA00D9EF2BF0DBEF2BF0DCEF2BF0668F63C524
:1057BA0063F564C564F565C565F566C566F51200E9
:1057CA000501F76F1C0E0501F719D8A4EFEF2BF0AE
:1057DA00F1EF2BF012EF2DF0010EFF65F7EF2BF032
:1057EA00F9EF2BF012EF2DF0000EAA6F000EAB6F3F
:1057FA007A0EAC6F440EAD6F1C0E7BEC42F00501C5
:10580A006BC598F56CC599F59A6B9B6B000E55ECB8
:10581A0044F098C5A6F599C5A7F59AC5A8F59BC5FC
:10582A00A9F52AEC36F0A6C5BFF5A7C5C0F5A8C5E7
:10583A00C1F5A9C5C2F5000E0501C36F000EC46FFC
:10584A00110EC56F430EC66F4DEC30F0BFC5A8F6FA
:10585A00C0C5A9F6C1C5AAF6C2C5ABF6160E30EC8C
:10586A003DF0D8C5F8F5D9C5F9F5DAC5FAF5DBC5BD
:10587A00FBF5A8C6C3F5A9C6C4F5AAC6C5F5ABC645
:10588A00C6F5F8C5BFF5F9C5C0F5FAC5C1F5FBC53A
:10589A00C2F54DEC30F0BFC5A6F5C0C5A7F5C1C528
:1058AA00A8F5C2C5A9F5000E0501AA6F000EAB6FD7
:1058BA007A0EAC6F440EAD6F2AEC36F0A6C53CF7F3
:1058CA00A7C53DF7A8C53EF7A9C53FF7A8C600F684
:1058DA00A9C601F6AAC602F6ABC603F6000E060171
:1058EA00046F800E056F090E066F440E076FF2EC07
:1058FA004AF00601D8B084EF2CF086EF2CF0A0EF26
:10590A002CF0000E006F000E016F160E026F430E90
:10591A00036FA8C604F6A9C605F6AAC606F6ABC65C
:10592A0007F6F2EC4AF00601D8A09EEF2CF0A0EFA1
:10593A002CF0A9EF2CF0010EE16F000E0501F66FB5
:10594A00010EF56F33EF2EF0000E006F000E016F9F
:10595A00F00E026F410E036FA8C604F6A9C605F63B
:10596A00AAC606F6ABC607F6F2EC4AF00601D8A0BC
:10597A00C1EF2CF0C3EF2CF0CCEF2CF0020EE16F4C
:10598A00000E0501F66F020EF56F33EF2EF0CD0E05
:10599A000501C36FCC0EC46F8C0EC56F3F0EC66F68
:1059AA0047C598F548C599F59A6B9B6B000E55EC5F
:1059BA0044F098C5BFF599C5C0F59AC5C1F59BC510
:1059CA00C2F54DEC30F0BFC500F6C0C501F6C1C541
:1059DA0002F6C2C503F63CC704F63DC705F63EC744
:1059EA0006F63FC707F6F2EC4AF00601D8B000EF18
:1059FA002DF002EF2DF00BEF2DF0030EE16F000EEC
:105A0A000501F66F020EF56F33EF2EF0000E050159
:105A1A00F66F000EF56F33EF2EF0110EF719D8A4BA
:105A2A0019EF2DF01BEF2DF00BEF2DF0010EFE6597
:105A3A0021EF2DF023EF2DF00BEF2DF0000EAA6FC2
:105A4A00000EAB6F7A0EAC6F440EAD6F110E7BEC8D
:105A5A0042F005016BC598F56CC599F59A6B9B6B7D
:105A6A00000E55EC44F098C5A6F599C5A7F59AC558
:105A7A00A8F59BC5A9F52AEC36F0A6C5BFF5A7C5BA
:105A8A00C0F5A8C5C1F5A9C5C2F5000E0501C36FC9
:105A9A00000EC46F110EC56F430EC66F4DEC30F089
:105AAA00BFC5A4F6C0C5A5F6C1C5A6F6C2C5A7F668
:105ABA00040E30EC3DF0D8C5F8F5D9C5F9F5DAC5CC
:105ACA00FAF5DBC5FBF5A4C6C3F5A5C6C4F5A6C69B
:105ADA00C5F5A7C6C6F5F8C5BFF5F9C5C0F5FAC537
:105AEA00C1F5FBC5C2F54DEC30F0BFC5A6F5C0C582
:105AFA00A7F5C1C5A8F5C2C5A9F5000E0501AA6F8B
:105B0A00000EAB6F7A0EAC6F440EAD6F2AEC36F016
:105B1A00A6C538F7A7C539F7A8C53AF7A9C53BF707
:105B2A00A4C600F6A5C601F6A6C602F6A7C603F6DF
:105B3A00000E0601046F000E056F960E066F430EE7
:105B4A00076FF2EC4AF00601D8B0AEEF2DF0B0EFD5
:105B5A002DF0CAEF2DF0000E006F000E016F480EF7
:105B6A00026F420E036FA4C604F6A5C605F6A6C6C2
:105B7A0006F6A7C607F6F2EC4AF00601D8A0C8EF67
:105B8A002DF0CAEF2DF0D3EF2DF0040EE16F000EC9
:105B9A000501F66F010EF56F33EF2EF0000E006F60
:105BAA00000E016FA00E026F410E036FA4C604F629
:105BBA00A5C605F6A6C606F6A7C607F6F2EC4AF08B
:105BCA000601D8A0EBEF2DF0EDEF2DF0F6EF2DF05A
:105BDA00050EE16F000E0501F66F020EF56F33EF49
:105BEA002EF0CD0E0501C36FCC0EC46F8C0EC56F9F
:105BFA003F0EC66F45C598F546C599F59A6B9B6BDE
:105C0A00000E55EC44F098C5BFF599C5C0F59AC584
:105C1A00C1F59BC5C2F54DEC30F0BFC500F6C0C555
:105C2A0001F6C1C502F6C2C503F638C704F639C77C
:105C3A0005F63AC706F63BC707F6F2EC4AF0060144
:105C4A00D8B02AEF2EF02CEF2EF00BEF2DF0060E27
:105C5A00E16F000E0501F66F020EF56F120051C6D4
:105C6A00D9F452C6DAF4DEC4F6F4DDC4F7F4000E51
:105C7A00F86E0800F550250AD8A446EF2EF048EF32
:105C8A002EF035EF30F051C6D9F452C6DAF4DE2AD6
:105C9A00000EDD22000E0601C26F000EC16FC1C6E2
:105CAA00D1F6C369C469556B7BEF2EF0D18351C617
:105CBA00D9F452C6DAF4DE2A000EDD227BEF2EF08A
:105CCA00010E556F7BEF2EF051C6D9F452C6DAF4A5
:105CDA00DEC4F6F4DDC4F7F4000EF86E0800F550E1
:105CEA00300AD8B45BEF2EF065EF2EF05551D8B4D8
:105CFA0081EF2EF083EF2EF069EF2EF051C663F597
:105D0A0052C664F553C665F554C666F55EEC54F0A2
:105D1A0063C5C1F664C5C2F60601C2BF99EF2EF08B
:105D2A0097EF2EF09EEF2EF0D181C16DC21FD8B031
:105D3A00C22B51C6D9F452C6DAF4DEC4F6F4DDC475
:105D4A00F7F4000EF86E0800F5502E0AD8A4B0EF4A
:105D5A002EF0B2EF2EF0C7EF2EF051C6D9F452C68C
:105D6A00DAF4DE2A000EDD2251C663F552C664F566
:105D7A0053C665F554C666F55EEC54F063C5C3F6C2
:105D8A0064C5C4F651C6D9F452C6DAF4DEC45BF669
:105D9A00DDC45CF65BC6F6F45CC6F7F4000EF86E7A
:105DAA000800F550640AD8B4DDEF2EF0DFEF2EF0CC
:105DBA00EFEF2EF05BC6F6F45CC6F7F4000EF86E51
:105DCA000800F550690AD8A4EDEF2EF0EFEF2EF097
:105DDA0021EF2FF053C6D9F454C6DAF4DFC4F8F52C
:105DEA00020EDE26DFC4F9F5000EDD22F8C5D9F46D
:105DFA00F9C5DAF4DEC457F6DDC458F6010E060119
:105E0A005B250501F86F000E06015C210501F96F9B
:105E1A0051C6D9F452C6DAF4F8C5DEF4F9C5DDF490
:105E2A004FC680F550C681F557C682F558C683F528
:105E3A0073EC43F04CEF30F05BC6F6F45CC6F7F453
:105E4A00000EF86E0800F550580AD8A42FEF2FF06C
:105E5A0031EF2FF073EF2FF053C6D9F454C6DAF4AA
:105E6A00DFC4F8F5020EDE26DFC4F9F5000EDD22E6
:105E7A00F8C5D9F4F9C5DAF4DEC457F6DDC458F624
:105E8A00010E06015B250501F86F000E06015C2173
:105E9A000501F96F51C6D9F452C6DAF4F8C5DEF431
:105EAA00F9C5DDF465EF2FF04FC680F550C681F5D0
:105EBA0057C682F558C683F5B4EC49F04CEF30F07A
:105ECA005BC6F6F45CC6F7F4000EF86E0800F550EF
:105EDA00580AD8B459EF2FF073EF2FF051C6D9F4FE
:105EEA0052C6DAF4DEC45BF6DDC45CF65BC6F6F4D1
:105EFA005CC6F7F4000EF86E0800F5C456F691EF8A
:105F0A002FF05B4B5C2BA1EF2FF06C0E566FA1EFBD
:105F1A002FF0566BA1EF2FF0060156514C0AD8B458
:105F2A0086EF2FF02A0AD8B48AEF2FF00A0AD8B4DB
:105F3A0086EF2FF08EEF2FF05BC6F6F45CC6F7F40F
:105F4A00000EF86E0800F550660AD8A4AFEF2FF0DD
:105F5A00B1EF2FF02CEF30F0E7EF2FF053C6D9F462
:105F6A0054C6DAF4DFC4F8F5040EDE26DFC4F9F508
:105F7A00000EDD22F8C5D9F4F9C5DAF4DEC457F605
:105F8A00DEC458F6DEC459F6DEC45AF6F2EF2FF034
:105F9A0053C6D9F454C6DAF4DFC4F8F5040EDE2683
:105FAA00DFC4F9F5000EDD22F8C5D9F4F9C5DAF433
:105FBA00DEC457F6DEC458F6DEC459F6DEC45AF615
:105FCA00F2EF2FF056514C0AD8B4CDEF2FF0200A39
:105FDA00D8B4B3EF2FF0F2EF2FF0010E5B250501D5
:105FEA00F86F000E06015C210501F96F51C6D9F45C
:105FFA0052C6DAF4F8C5DEF4F9C5DDF41EEF30F066
:10600A004FC61CF650C61DF657C61EF658C61FF6D2
:10601A0059C620F65AC621F65BC6F6F45CC6F7F4F2
:10602A00000EF86E0800F5C422F60DEC1FF04CEFD6
:10603A0030F05BC6F6F45CC6F7F4000EF86E0800A2
:10604A00F550660AD8B405EF30F02CEF30F051C69F
:10605A00D9F452C6DAF4DE2A000EDD224CEF30F013
:10606A0051C6D9F452C6DAF4DEC4F6F4DDC4F7F444
:10607A00000EF86E0800F5500501676F686B4FC691
:10608A0069F550C66AF5C5EC54F02CEF30F01200F1
:10609A000501C251800BCB6FC251C225D16FC1AF6E
:1060AA0059EF30F05BEF30F05CEF30F0D181D15135
:1060BA00D8B462EF30F064EF30F077EF30F0D129E6
:1060CA00D8A46AEF30F06CEF30F074EF30F0000EC5
:1060DA00BF6F000EC06F000EC16F000EC26FC18F7E
:1060EA007FEF30F0000EBF6F000EC06F000EC16F61
:1060FA00000EC26FC651800BCB1BC651C625CC6F92
:10610A00C5AF8AEF30F08CEF30F08DEF30F0CC81F4
:10611A00CC51D8B493EF30F095EF30F0A8EF30F0CF
:10612A00CC29D8A49BEF30F09DEF30F0A5EF30F0EA
:10613A00000EC36F000EC46F000EC56F000EC66F4F
:10614A00C58FB0EF30F0000EC36F000EC46F000EA3
:10615A00C56F000EC66FCC51D8B4B6EF30F0B8EFA9
:10616A0030F0C0EF30F0D151D8A4BEEF30F0C0EF1C
:10617A0030F0CAEF30F0000EBF6F000EC06F000E95
:10618A00C16F000EC26F60EF32F0C551BF03F3C496
:10619A00D6F5F4C4D7F5D651CD6FCE6BCF6BD06B95
:1061AA00D751D26FD36BD46BD56BC451C003F3C430
:1061BA00D6F5F4C4D7F5D651CD27000ECE23CF237A
:1061CA00D023D751D227000ED323D423D523C351AA
:1061DA00C103F3C4D6F5F4C4D7F5D651CD27000EC2
:1061EA00CE23CF23D023D751D227000ED323D423B3
:1061FA00D523CFC5D0F5CEC5CFF5CDC5CEF5CD6B60
:10620A00C351C003F3C4D6F5F4C4D7F5D651CD278C
:10621A00D751CE23000ECF23000ED023C451BF0383
:10622A00F3C4D6F5F4C4D7F5D651CD27D751CE232A
:10623A00000ECF23000ED023CFC5D0F5CEC5CFF5A3
:10624A00CDC5CEF5CD6BC351BF03F3C4D6F5F4C4A7
:10625A00D7F5D651CD27D751CE23000ECF23000E26
:10626A00D023C551C003F3C4D6F5F4C4D7F5D6512B
:10627A00D227D751D323000ED423000ED523C451DD
:10628A00C103F3C4D6F5F4C4D7F5D651D227D751F2
:10629A00D323000ED423000ED523C551C103F3C462
:1062AA00D6F5F4C4D7F5D651C76FD751C86FC96BA5
:1062BA00CA6BC9C5CAF5C8C5C9F5C7C5C8F5C76B8C
:1062CA00C751D227C851D323C951D423CA51D52380
:1062DA00CDC5C7F5CEC5C8F5CFC5C9F5D0C5CAF570
:1062EA00190E7DEF31F0D890CA33C933C833C7339A
:1062FA00E82E78EF31F0C751D227C851D323C951BC
:10630A00D423CA51D523CFC5D0F5CEC5CFF5CDC537
:10631A00CEF5CD6BCC51D1C5C7F5C86BC727000EDA
:10632A00C823820EC725D66FFF0EC821D76FB3EFD9
:10633A0031F0D890D237D337D437D537D0AFA8EF8A
:10634A0031F0AAEF31F0ABEF31F0D281D890CD37EE
:10635A00CE37CF37D037D607D8A0D707D4AFB8EFC4
:10636A0031F0BAEF31F09EEF31F0CC6BD0AFC0EF25
:10637A0031F0C2EF31F0E6EF31F0FF0ECD15C76F05
:10638A00FF0ECE15C86FFF0ECF15C96F7F0ED01541
:10639A00CA6FC751C811C911CA11D8B4D7EF31F0A1
:1063AA00D9EF31F0DDEF31F0010ECC6FE6EF31F0CD
:1063BA00D2A1E2EF31F0E4EF31F0E6EF31F0D9EFBC
:1063CA0031F0CC51D8B4ECEF31F0EEEF31F012EFFE
:1063DA0032F0010ED227000ED323D423D523D5A120
:1063EA00F9EF31F0FBEF31F012EF32F0D2C5C7F519
:1063FA00D3C5C8F5D4C5C9F5D5C5CAF5CA35CA3392
:10640A00C933C833C733C7C5D2F5C8C5D3F5C9C55B
:10641A00D4F5CAC5D5F5D64BD72BD7BF1DEF32F069
:10642A00D75108E1D629D8A01DEF32F01FEF32F07C
:10643A0029EF32F0000ED26F000ED36F800ED46FA8
:10644A007F0ED56F56EF32F0D7BF36EF32F0D75105
:10645A0006E1D605D8B034EF32F036EF32F041EF2C
:10646A0032F0000ED26F000ED36F000ED46F000E02
:10647A00D56FCB6B56EF32F0D6C5D1F5FF0ED217DA
:10648A00FF0ED3177F0ED417000ED517D1A150EFE8
:10649A0032F052EF32F053EF32F0D48FD890D1313C
:1064AA00D56FCB51D513D2C5BFF5D3C5C0F5D4C569
:1064BA00C1F5D5C5C2F51200030EB0EC64F063C590
:1064CA00ECF564C5EDF5000E0501AA6FF00EAB6F91
:1064DA007F0EAC6F450EAD6FECC598F5EDC599F51D
:1064EA00000E99BFFF0E9A6F9B6F010E55EC44F098
:1064FA0098C5A6F599C5A7F59AC5A8F59BC5A9F5A6
:10650A002AEC36F0A6C5BFF5A7C5C0F5A8C5C1F5E2
:10651A00A9C5C2F56F0E0501C36F120EC46F830EB3
:10652A00C56F400EC66F4DEC30F0BFC5F6F5C0C55D
:10653A00F7F5C1C5F8F5C2C5F9F5F6C554F7F7C5BB
:10654A0055F7F8C556F7F9C557F7ABEC68F063C5C8
:10655A00F2F564C5F3F565C5F4F566C5F5F52CC71E
:10656A0067F52DC768F52EC769F52FC76AF5FDECE3
:10657A005BF067C5EEF568C5EFF569C5F0F56AC564
:10658A00F1F528C7DCF529C7DDF52AC7DEF52BC7E3
:10659A00DFF5F6C5D8F5F7C5D9F5F8C5DAF5F9C5C1
:1065AA00DBF59DEC62F0D8C5E0F5D9C5E1F5DAC5B1
:1065BA00E2F5DBC5E3F578EC65F0E0C500F6E1C588
:1065CA0001F6E2C502F6E3C503F6CD0E0601046F35
:1065DA00CC0E056F4C0E066F3D0E076FF2EC4AF0BB
:1065EA000601D8B0FBEF32F0FDEF32F008EF33F0DE
:1065FA00050ED46103EF33F005EF33F009EF33F002
:10660A00D42B09EF33F0D46BF6C528F7F7C529F771
:10661A00F8C52AF7F9C52BF73BEF34F0E06B040E07
:10662A00D4651AEF33F01CEF33F04AEF34F0F6C5B5
:10663A0000F6F7C501F6F8C502F6F9C503F6660EC7
:10664A00046F660E056FE60E066F3F0E076FF2ECDB
:10665A004AF00601D8A034EF33F036EF33F06CEF8E
:10666A0033F0F6C500F6F7C501F6F8C502F6F9C526
:10667A0003F6CD0E046FCC0E056F0C0E066F400E9E
:10668A00076FF2EC4AF00601D8B04EEF33F050EF44
:10669A0033F06CEF33F00501F151F0110BE1E80E24
:1066AA00EE5D030EEF59D8A05DEF33F05FEF33F0E4
:1066BA004AEF34F0010E0601D56FF2C52CF7F3C587
:1066CA002DF7F4C52EF7F5C52FF74AEF34F0F6C5C6
:1066DA0000F6F7C501F6F8C502F6F9C503F69A0EF3
:1066EA00046F990E056F190E066F400E076FF2ECD4
:1066FA004AF00601D8A084EF33F086EF33F062EF58
:10670A0033F00501F151F0110BE1E80EEE5D030ED5
:10671A00EF59D8A093EF33F095EF33F09AEF33F0B7
:10672A00020E0601D56F62EF33F04AEF34F0010E24
:10673A00E06F040ED465A4EF33F0A6EF33F04AEF0E
:10674A0034F0660E006F660E016FA60E026F3F0EE2
:10675A00036FF6C504F6F7C505F6F8C506F6F9C5DA
:10676A0007F6F2EC4AF00601D8A0BEEF33F0C0EF0C
:10677A0033F0DBEF33F00501F151F0110BE1E80ED4
:10678A00EE5D030EEF59D8A0CDEF33F0CFEF33F023
:10679A004AEF34F00601D56BF2C52CF7F3C52DF795
:1067AA00F4C52EF7F5C52FF74AEF34F0F6C500F613
:1067BA00F7C501F6F8C502F6F9C503F69A0E046F95
:1067CA00990E056F190E066F400E076FF2EC4AF02C
:1067DA000601D8A0F3EF33F0F5EF33F062EF33F0B0
:1067EA000501F151F0110BE1E80EEE5D030EEF59D0
:1067FA00D8A002EF34F004EF34F09AEF33F095EFBB
:10680A0033F0020EE06F040ED4650EEF34F010EF91
:10681A0034F04AEF34F0660E006F660E016FA60E72
:10682A00026F3F0E036FF6C504F6F7C505F6F8C505
:10683A0006F6F9C507F6F2EC4AF00601D8A028EFE9
:10684A0034F02AEF34F04AEF34F00501F151F01137
:10685A000BE1D00EEE5D070EEF59D8A037EF34F0FA
:10686A0039EF34F04AEF34F0CFEF33F0D551000A64
:10687A00D8B413EF33F0010AD8B49CEF33F0030A0B
:10688A00D8B406EF34F04AEF34F01200060108518A
:10689A000911D8A453EF34F055EF34F05FEF34F018
:1068AA00000E086F000E096F000E0A6F000E0B6FC4
:1068BA0029EF36F0ABEC68F063C51AF664C51BF62F
:1068CA0065C51CF666C51DF6060120EE08F00851DE
:1068DA00D9260951DA22DEC463F5DEC464F5DEC4C2
:1068EA0065F5DEC466F50AC667F50BC668F50CC61B
:1068FA0069F50DC66AF5D6EC58F00501D8B088EFEF
:10690A0034F08AEF34F019EF35F0060120EE08F082
:10691A000851D9260951DA220AC6DEF40BC6DEF47A
:10692A000CC6DEF40DC6DEF408C6D9F409C6DAF4DC
:10693A00DEC400F6DEC401F6DEC402F6DEC403F6E7
:10694A000AC604F60BC605F60CC606F60DC607F609
:10695A00F2EC4AF00601D8B0B5EF34F0B7EF34F0F4
:10696A00E7EF34F008C6D9F409C6DAF410EE04F0F9
:10697A000851E1260951E222DEC4E6F4DEC4E6F457
:10698A00DEC4E6F4DEC4E6F420EE0CF00851D926A3
:10699A000951DA221AC6DEF41BC6DEF41CC6DEF47E
:1069AA001DC6DEF420EE10F00851D9260951DA226C
:1069BA000EC6DEF40FC6DEF410C6DEF411C6DEF42F
:1069CA0019EF35F020EE04F00851D9260951DA22E0
:1069DA000AC6DEF40BC6DEF40CC6DEF40DC6DEF41F
:1069EA0008C6D9F409C6DAF40AC6DEF40BC6DEF420
:1069FA000CC6DEF40DC6DEF420EE0CF00851D926E2
:106A0A000951DA221AC6DEF41BC6DEF41CC6DEF40D
:106A1A001DC6DEF420EE10F00851D9260951DA22FB
:106A2A00DE6ADE6ADE6ADD6A060120EE10F00851CF
:106A3A00D9260951DA22DE50DE10DE10DE10D8A483
:106A4A0029EF35F02BEF35F039EF35F008C6D9F4D8
:106A5A0009C6DAF4DEC408F6DEC409F6DEC40AF6AC
:106A6A00DEC40BF629EF36F020EE0CF00851D926D9
:106A7A000951DA22DEC467F5DEC468F5DEC469F5B9
:106A8A00DEC46AF5FDEC5BF067C51EF668C51FF645
:106A9A0069C520F66AC521F6060120EE10F00851F4
:106AAA00D9260951DA22DE501E5DDE501F59DE500A
:106ABA002059DE502159D8A065EF35F067EF35F03F
:106ACA0087EF35F020EE08F00851D9260951DA226D
:106ADA0008C6E1F409C6E2F4DEC4E6F4DEC4E6F46C
:106AEA00DEC4E6F4DEC4E6F408C6D9F409C6DAF46C
:106AFA00DEC408F6DEC409F6DEC40AF6DEC40BF606
:106B0A0029EF36F01EC698F51FC699F520C69AF5E4
:106B1A0021C69BF5000E55EC44F098C5A6F599C51B
:106B2A00A7F59AC5A8F59BC5A9F5060120EE10F0B0
:106B3A000851D9260951DA22DEC498F5DEC499F53E
:106B4A00DEC49AF5DEC49BF5000E55EC44F098C5F8
:106B5A00AAF599C5ABF59AC5ACF59BC5ADF52AEC76
:106B6A0036F0A6C512F6A7C513F6A8C514F6A9C528
:106B7A0015F612C6C3F513C6C4F514C6C5F515C66F
:106B8A00C6F5060120EE04F00851D9260951DA2289
:106B9A00DEC4DCF5DEC4DDF5DEC4DEF5DEC4DFF519
:106BAA0020EE08F00851D9260951DA22DEC4D8F5B8
:106BBA00DEC4D9F5DEC4DAF5DEC4DBF59DEC62F09D
:106BCA00D8C5BFF5D9C5C0F5DAC5C1F5DBC5C2F56B
:106BDA004DEC30F0BFC516F6C0C517F6C1C518F69C
:106BEA00C2C519F616C663F517C664F518C665F563
:106BFA0019C666F5060120EE04F00851D926095196
:106C0A00DA22DEC467F5DEC468F5DEC469F5DEC4DF
:106C1A006AF589EC29F008C6D9F409C6DAF405013F
:106C2A0063C5DEF464C5DEF465C5DEF466C5DEF46C
:106C3A0008C6D9F409C6DAF4DEC408F6DEC409F6D1
:106C4A00DEC40AF6DEC40BF612000501A951800B58
:106C5A00B66FA951A925BD6FA8AF36EF36F038EF48
:106C6A0036F039EF36F0BD81BD51D8B43FEF36F07A
:106C7A0041EF36F055EF36F0BD29D8A447EF36F08C
:106C8A0049EF36F051EF36F0000EA66F000EA76FEF
:106C9A00000EA86F000EA96FA88FA96B5DEF36F0E2
:106CAA00000EA66F000EA76F000EA86F000EA96F48
:106CBA00AD51800BB61BAD51AD25BE6FACAF68EFC1
:106CCA0036F06AEF36F06BEF36F0BE81BE51D8B4BB
:106CDA0071EF36F073EF36F087EF36F0BE29D8A49D
:106CEA0079EF36F07BEF36F083EF36F0000EAA6FBD
:106CFA00000EAB6F000EAC6F000EAD6FAC8FAD6BBC
:106D0A008FEF36F0000EAA6F000EAB6F000EAC6F5D
:106D1A00000EAD6FAA51AB11AC11AD11D8A498EF0A
:106D2A0036F09AEF36F0B2EF36F0000EA66F000E8C
:106D3A00A76F000EA86F000EA96F800EA8137F0E12
:106D4A00A913B651A913A6C5A6F5A7C5A7F5A8C53F
:106D5A00A8F5A9C5A9F5F2EF37F0BD51D8A4B8EF47
:106D6A0036F0BAEF36F0C4EF36F0000EA66F000E1A
:106D7A00A76F000EA86F000EA96FF2EF37F0BE5191
:106D8A00BDC5AEF5AF6BAE5F000EAF5B7F0EAE2535
:106D9A00B76F000EAF21B86FA6C5B2F5A7C5B3F598
:106DAA00A8C5B4F5A9C5B5F5000EA66F000EA76F64
:106DBA00000EA86F000EA96F000EB96F000EBA6F11
:106DCA00000EBB6F000EBC6FBE6B24EF37F0BE51D6
:106DDA00D8B4F2EF36F0F4EF36F00BEF37F0D89084
:106DEA00B237B337B437B537D890A637A737A837ED
:106DFA00A937BCAF03EF37F005EF37F006EF37F0EE
:106E0A00A681D890B937BA37BB37BC37AA51B25D19
:106E1A00AB51B359AC51B459AD51B559D8A018EFCB
:106E2A0037F01AEF37F023EF37F0BC8DAA51B25F73
:106E3A00AB51B35BAC51B45BAD51B55BBE2B190E14
:106E4A00BE652AEF37F02CEF37F0ECEF36F0B2518F
:106E5A00B311B411B511D8B435EF37F037EF37F0B5
:106E6A004FEF37F0B9814FEF37F0D890A637A737F1
:106E7A00A837A937BCAF44EF37F046EF37F047EFF2
:106E8A0037F0A681D890B937BA37BB37BC37B707BE
:106E9A00D8A0B807A8AF54EF37F056EF37F03AEF5B
:106EAA0037F0BE6BBCAF5CEF37F05EEF37F082EFC6
:106EBA0037F0FF0EB915AE6FFF0EBA15AF6FFF0EA2
:106ECA00BB15B06F7F0EBC15B16FAE51AF11B011CB
:106EDA00B111D8B473EF37F075EF37F079EF37F0B7
:106EEA00010EBE6F82EF37F0A6A17EEF37F080EF7A
:106EFA0037F082EF37F075EF37F0BE51D8B488EF2C
:106F0A0037F08AEF37F0AEEF37F0010EA627000E02
:106F1A00A723A823A923A9A195EF37F097EF37F064
:106F2A00AEEF37F0A6C5AEF5A7C5AFF5A8C5B0F563
:106F3A00A9C5B1F5B135B133B033AF33AE33AEC550
:106F4A00A6F5AFC5A7F5B0C5A8F5B1C5A9F5B74B64
:106F5A00B82BB8BFB9EF37F0B85108E1B729D8A0B4
:106F6A00B9EF37F0BBEF37F0C6EF37F0000EB86F66
:106F7A00B769000EA66F000EA76F000EA86F000E6D
:106F8A00A96FB8BFD3EF37F0B85106E1B705D8B04B
:106F9A00D1EF37F0D3EF37F0E0EF37F0000EB86FEC
:106FAA00000EB76F000EA66F000EA76F000EA86F37
:106FBA00000EA96FB66BB7C5BDF5BDA1E7EF37F0F7
:106FCA00E9EF37F0ECEF37F0A88FEDEF37F0A89F35
:106FDA00D890BD31A96FA6EF36F0120047C58FF5DC
:106FEA0048C590F5BEC67FF50501806B7FBF800757
:106FFA007FC581F580C582F5000E82BFFF0E836FC3
:10700A00846F47C563F548C564F5656B666BFF51C8
:10701A00676F686B696B6A6BAEEC5DF063C56FF5A1
:10702A0064C570F565C571F566C572F5640E05012E
:10703A00736F000E746F000E756F000E766F16EC8C
:10704A0051F0050181516F5D916F82517059926FB4
:10705A0083517159936F84517259946F94BF3AEF67
:10706A0038F038EF38F042EF38F0000E916F000E2A
:10707A00926F000E936F000E946F47507F6F4850C7
:10708A00806F816B826B91517F5D925180599351D0
:10709A0081598251800A836F9451800A8359D8B0EA
:1070AA0059EF38F05BEF38F061EF38F047C591F5EA
:1070BA0048C592F5936B946B91C543F592C544F517
:1070CA00BFC67FF5806B7FBF80077FC581F580C50E
:1070DA0082F5000E82BFFF0E836F846F45C563F58C
:1070EA0046C564F5656B666BFE51676F686B696BC5
:1070FA006A6BAEEC5DF063C56FF564C570F565C586
:10710A0071F566C572F5640E0501736F000E746F32
:10711A00000E756F000E766F16EC51F00501815165
:10712A006F5D916F82517059926F83517159936F4C
:10713A0084517259946F94BFA7EF38F0A5EF38F0D5
:10714A00AFEF38F0000E916F000E926F000E936F42
:10715A00000E946F45507F6F4650806F816B826B33
:10716A0091517F5D92518059935181598251800A80
:10717A00836F9451800A8359D8B0C6EF38F0C8EFAC
:10718A0038F0CEEF38F045C591F546C592F5936BC8
:10719A00946B91C5CFF692C5D0F60601CF51432420
:1071AA0005018D6F0601D051442005018E6F8D5166
:1071BA008F5D8E519059D8B0E5EF38F0E7EF38F08F
:1071CA0014EF39F0C0C67FF5806B7FBF80077FC59B
:1071DA0081F580C582F5000E82BFFF0E836F846F32
:1071EA0043508D5D856F44508E59866F85518F5DF2
:1071FA00876F86519059886F896BD8A08907895102
:10720A008A6F8151875D916F82518859926F83513C
:10721A008959936F84518A59946F1AEF39F043C58B
:10722A0091F544C592F5936B946B94BF21EF39F0B5
:10723A001FEF39F029EF39F0000E916F000E926FAF
:10724A00000E936F000E946F8F517F6F9051806F75
:10725A00816B826B91517F5D925180599351815913
:10726A008251800A836F9451800A8359D8B040EFC3
:10727A0039F042EF39F048EF39F08FC591F590C5F2
:10728A0092F5936B946B91C58BF592C58CF58BC572
:10729A007DF58CC57EF5120044C767F545C768F5CC
:1072AA0046C769F547C76AF5FDEC5BF067C5F9F5AE
:1072BA0068C5FAF569C5FBF56AC5FCF5020E050154
:1072CA00FF616AEF39F06CEF39F074EF39F0010EB3
:1072DA00FE6572EF39F074EF39F08AEF3AF0060181
:1072EA00F405D8A47BEF39F07DEF39F08AEF3AF054
:1072FA00ABEC68F063C544F764C545F765C546F766
:10730A0066C547F7010E0601F36FF46B8AEF3AF090
:10731A0081EC69F00501FC51FB110BE1210EF95DCD
:10732A00030EFA59D8A09CEF39F09EEF39F0A9EF75
:10733A003AF0010EFF65A4EF39F0A6EF39F0B5EF88
:10734A0039F0010EFE65ACEF39F0AEEF39F0B5EF6A
:10735A0039F0020E0601F36F010EDE6F010EDD6FCA
:10736A00010E0501FF65BCEF39F0BEEF39F0CBEF36
:10737A0039F0FE51D8A4C4EF39F0C6EF39F0CBEF9B
:10738A0039F0030E0601F36F010EDE6F0501FF519E
:10739A00D8A4D2EF39F0D4EF39F0E1EF39F0010E89
:1073AA00FE65DAEF39F0DCEF39F0E1EF39F0040E7F
:1073BA000601F36F010EDD6FABEC68F063C544F7AD
:1073CA0064C545F765C546F766C547F7A9EF3AF0BC
:1073DA007AEC41F051EC3EF0010E0501FF65F8EF41
:1073EA0039F0FAEF39F00AEF3AF0FE51D8A400EF7B
:1073FA003AF002EF3AF00AEF3AF0020E1CEC60F0B3
:10740A00030E0601F36F010EDE6F0501FF51D8A4CA
:10741A0011EF3AF013EF3AF0A9EF3AF0010EFE65D8
:10742A0019EF3AF01BEF3AF0A9EF3AF0010E1CEC13
:10743A0060F0040E0601F36F010EDD6FA9EF3AF05A
:10744A007AEC41F0010E0501FF652EEF3AF030EFBC
:10745A003AF03FEF3AF0010EFE6536EF3AF038EFB8
:10746A003AF03FEF3AF0020E0601F36F010EDE6FBB
:10747A00010EDD6F0501FF51D8A446EF3AF048EF3F
:10748A003AF0A9EF3AF0010EFE654EEF3AF050EFEE
:10749A003AF0A9EF3AF0010E1CEC60F01EEF3AF058
:1074AA0051EC3EF0010E0501FF655EEF3AF060EF28
:1074BA003AF06FEF3AF0010EFE6566EF3AF068EFC8
:1074CA003AF06FEF3AF0020E0601F36F010EDE6F2B
:1074DA00010EDD6F010E0501FF6576EF3AF078EFD8
:1074EA003AF0A9EF3AF0FE51D8A47EEF3AF080EFD5
:1074FA003AF0A9EF3AF0020E1CEC60F0030E060116
:10750A00F36F010EDE6FA9EF3AF00601F3510501A0
:10751A00F76FF86BF851000AD8B496EF3AF0A9EF72
:10752A003AF0F751010AD8B48DEF39F0030AD8B40A
:10753A00EDEF39F0010AD8B425EF3AF0070AD8B4CA
:10754A0055EF3AF0A9EF3AF0120040C767F541C784
:10755A0068F542C769F543C76AF5FDEC5BF067C594
:10756A009AF568C59BF569C59CF56AC59DF52C0E0B
:10757A007BEC42F06BC59EF56CC59FF55D50D8B4A7
:10758A00C9EF3AF0CBEF3AF0D8EF3AF0ABEC68F04B
:10759A0063C540F764C541F765C542F766C543F759
:1075AA00010E556E5D6A5650D8A4DEEF3AF0E0EF50
:1075BA003AF0E6EF3BF005019D519C110BE1880E74
:1075CA009A5D130E9B59D8A0EDEF3AF0EFEF3AF01F
:1075DA00E6EF3BF0010E566EE6EF3BF05550D8A4AD
:1075EA00F9EF3AF0FBEF3AF025EF3BF09D519C1191
:1075FA000BE1B80E9A5D0B0E9B59D8A007EF3BF032
:10760A0009EF3BF00CEF3BF05E6A010E556E350E4A
:10761A009E5D080E9F59D8A015EF3BF017EF3BF07F
:10762A0000EF3CF0010E576EABEC68F063C540F713
:10763A0064C541F765C542F766C543F700EF3CF0FC
:10764A005650D8A42BEF3BF02DEF3BF045EF3BF023
:10765A00730E9E5D060E9F59D8A036EF3BF038EFA9
:10766A003BF045EF3BF0010E576EABEC68F063C59B
:10767A0040F764C541F765C542F766C543F7556AE1
:10768A005604D8A44BEF3BF04DEF3BF000EF3CF033
:10769A00350E05019E5D080E9F59D8A057EF3BF0A5
:1076AA0059EF3BF000EF3CF0010E576EABEC68F07F
:1076BA0063C540F764C541F765C542F766C543F738
:1076CA00556A00EF3CF05A6A010E5E6E5604D8A461
:1076DA0071EF3BF073EF3BF09BEF3BF0A40E9E5D26
:1076EA00060E9F59D8B07CEF3BF07EEF3BF081EF5E
:1076FA003BF0576A5BEF3BF0D70E9E5D060E9F5933
:10770A00D8A08AEF3BF08CEF3BF000EF3CF03A0E4A
:10771A009E5D070E9F59D8B095EF3BF097EF3BF06F
:10772A0000EF3CF0020E576E19EF3BF05650D8A40A
:10773A00A1EF3BF0A3EF3BF000EF3CF0A40E9E5DFF
:10774A00060E9F59D8B0ACEF3BF0AEEF3BF0B2EF6C
:10775A003BF0010E566E7EEF3BF0D70E9E5D060E95
:10776A009F59D8A0BBEF3BF0BDEF3BF000EF3CF0D8
:10777A003A0E9E5D070E9F59D8B0C6EF3BF0C8EF90
:10778A003BF000EF3CF097EF3BF0010E5A6E350EDE
:10779A009E5D080E9F59D8A0D5EF3BF0D7EF3BF07E
:1077AA00D9EF3BF017EF3BF0A40E9E5D060E9F59F2
:1077BA00D8B0E2EF3BF0E4EF3BF000EF3CF07EEFB5
:1077CA003BF057500501986F996B9951000AD8B44C
:1077DA00F1EF3BF000EF3CF09851000AD8B4F3EF18
:1077EA003AF0010AD8B468EF3BF0030AD8B4CAEFFA
:1077FA003BF000EF3CF0120020C767F521C768F59F
:10780A0022C769F523C76AF5FDEC5BF067C59AF6EE
:10781A0068C59BF669C59CF66AC59DF606019D5129
:10782A009C119B1109E10B0E9A5DD8A01FEF3CF049
:10783A0021EF3CF02DEF3CF0D351D8B427EF3CF0C8
:10784A0029EF3CF02DEF3CF0010ED26F77EC69F096
:10785A000601D205D8B434EF3CF036EF3CF038EFED
:10786A003CF02FEF3DF0640E0501636F0A0E646F62
:10787A00000E656F0A0E666FD3C667F5686B72EC09
:10788A0060F00601D351FE0FA06F640E0501636F0D
:10789A000A0E646FA0C665F5C5EC5CF063C58CF78B
:1078AA0064C58DF7650E0601A025D96EDA6A0A0E3F
:1078BA00DA22DF50966F640EA025D96EDA6A0A0EB4
:1078CA00DA22DF50976F9751996F986B96519825E6
:1078DA0007018A6F0601000E992107018B6F8A51F1
:1078EA008C1909E18B518D19D8B47EEF3CF080EFE9
:1078FA003CF084EF3CF054EC62F02FEF3DF06ACAA2
:10790A009EF60601D351F70F9F6F9E519F19D8B467
:10791A0091EF3CF093EF3CF095EF3CF080EF3CF0B8
:10792A00100E0A016519D8A49DEF3CF09FEF3CF0B8
:10793A00AFEF3CF00E0E6719D8A4A6EF3CF0A8EF03
:10794A003CF0AFEF3CF0640E0501636F0A0E646F02
:10795A0090EC50F0AA0E0A016419D8A4B7EF3CF0D3
:10796A00B9EF3CF080EF3CF05A0E6519D8A4C0EF8D
:10797A003CF0C2EF3CF080EF3CF01CEF3DF06605B6
:10798A00D8A4CAEF3CF0CCEF3CF0D3EF3CF0640E45
:10799A000601756F0A0E766FAFEC4CF0020E0A0103
:1079AA006619D8A4DBEF3CF0DDEF3CF080EF3CF049
:1079BA00640E0601756F0A0E766F31EC45F080EFA2
:1079CA003CF0020E6619D8A4EDEF3CF0EFEF3CF064
:1079DA0080EF3CF0640E0601756F0A0E766F1CECA0
:1079EA0052F080EF3CF0020E6619D8A4FFEF3CF08B
:1079FA0001EF3DF080EF3CF0640E0601756F0A0E50
:107A0A00766F64EC3FF080EF3CF0020E6619D8A462
:107A1A0011EF3DF013EF3DF080EF3CF0640E0601EC
:107A2A00756F0A0E766F94EC47F080EF3CF0675161
:107A3A00010AD8B4C4EF3CF0160AD8B4E6EF3CF019
:107A4A00400AD8B4F8EF3CF00F0AD8B40AEF3DF078
:107A5A0080EF3CF012000501F46F160E0501F419CF
:107A6A00D8A43AEF3DF03CEF3DF0B5EF3DF0160EED
:107A7A007BEC42F06BC5ECF56CC5EDF5000E05012B
:107A8A00AA6FF00EAB6F7F0EAC6F450EAD6FECC5F3
:107A9A0098F5EDC599F5000E99BFFF0E9A6F9B6F89
:107AAA00010E55EC44F098C5A6F599C5A7F59AC5F7
:107ABA00A8F59BC5A9F52AEC36F0A6C5BFF5A7C55A
:107ACA00C0F5A8C5C1F5A9C5C2F53D0E0501C36F2C
:107ADA000A0EC46F830EC56F400EC66F4DEC30F0B0
:107AEA00BFC5DCF5C0C5DDF5C1C5DEF5C2C5DFF52C
:107AFA00D60E0501E06F0D0EE16FA60EE26F3D0E88
:107B0A00E36FE0C5C3F5E1C5C4F5E2C5C5F5E3C554
:107B1A00C6F5DCC5BFF5DDC5C0F5DEC5C1F5DFC5F7
:107B2A00C2F54DEC30F0BFC5A6F5C0C5A7F5C1C575
:107B3A00A8F5C2C5A9F5CD0E0501AA6FCC0EAB6F8B
:107B4A00CC0EAC6F3D0EAD6F2AEC36F0A6C5F0F543
:107B5A00A7C5F1F5A8C5F2F5A9C5F3F535EF3EF0CD
:107B6A00040EF419D8A4BCEF3DF0BEEF3DF035EF9A
:107B7A003EF0040E7BEC42F06BC5EEF56CC5EFF5FA
:107B8A00000E0501AA6FF00EAB6F7F0EAC6F450EAB
:107B9A00AD6FEEC598F5EFC599F5000E99BFFF0ECA
:107BAA009A6F9B6F010E55EC44F098C5A6F599C5DE
:107BBA00A7F59AC5A8F59BC5A9F52AEC36F0A6C57E
:107BCA00BFF5A7C5C0F5A8C5C1F5A9C5C2F56F0E11
:107BDA000501C36F120EC46F830EC56F400EC66FC8
:107BEA004DEC30F0BFC5E4F5C0C5E5F5C1C5E6F515
:107BFA00C2C5E7F5420E0501E86F110EE96F8A0E5C
:107C0A00EA6F3D0EEB6FE8C5C3F5E9C5C4F5EAC5F1
:107C1A00C5F5EBC5C6F5E4C5BFF5E5C5C0F5E6C5CE
:107C2A00C1F5E7C5C2F54DEC30F0BFC5A6F5C0C534
:107C3A00A7F5C1C5A8F5C2C5A9F5CD0E0501AA6F5C
:107C4A00CC0EAB6F4C0EAC6F3E0EAD6F2AEC36F01D
:107C5A00A6C5F0F5A7C5F1F5A8C5F2F5A9C5F3F5CE
:107C6A00F0C5BFF5F1C5C0F5F2C5C1F5F3C5C2F55A
:107C7A00000E0501C36F000EC46F7A0EC56F440E65
:107C8A00C66F4DEC30F0BFC5D8F5C0C5D9F5C1C532
:107C9A00DAF5C2C5DBF5120048C767F549C768F5CA
:107CAA004AC769F54BC76AF5FDEC5BF067C556F63E
:107CBA0068C557F669C558F66AC559F653EF3FF0D5
:107CCA00020EC9EC66F0ABEC68F063C548F764C510
:107CDA0049F765C54AF766C54BF7020E0601DD6F1F
:107CEA0063EF3FF059515811571109E1C90E565D1A
:107CFA00D8A082EF3EF084EF3EF063EF3FF0020E31
:107D0A00DDEC66F0ABEC68F063C548F764C549F78B
:107D1A0065C54AF766C54BF7030E0601DD6F63EFCB
:107D2A003FF0010EDF6F000E0501AA6F000EAB6F68
:107D3A007A0EAC6F440EAD6F110E7BEC42F005016A
:107D4A006BC598F56CC599F59A6B9B6B000E55EC53
:107D5A0044F098C5A6F599C5A7F59AC5A8F59BC597
:107D6A00A9F52AEC36F0A6C5BFF5A7C5C0F5A8C582
:107D7A00C1F5A9C5C2F5000E0501C36F000EC46F97
:107D8A00110EC56F430EC66F4DEC30F0BFC5D1F76B
:107D9A00C0C5D2F7C1C5D3F7C2C5D4F7040E30ECBB
:107DAA003DF0D8C55AF6D9C55BF6DAC55CF6DBC52F
:107DBA005DF6D1C7C3F5D2C7C4F5D3C7C5F5D4C7D5
:107DCA00C6F55AC6BFF55BC6C0F55CC6C1F55DC649
:107DDA00C2F54DEC30F0BFC5A6F5C0C5A7F5C1C5C3
:107DEA00A8F5C2C5A9F5000E0501AA6F000EAB6F72
:107DFA007A0EAC6F440EAD6F2AEC36F0A6C5CDF7FD
:107E0A00A7C5CEF7A8C5CFF7A9C5D0F7CFC698F5AD
:107E1A00D0C699F505019A6B9B6B000E55EC44F0A0
:107E2A0098C55EF699C55FF69AC560F69BC561F678
:107E3A005EC622F65FC623F660C624F661C625F63C
:107E4A00F8EC63F022C6C9F723C6CAF724C6CBF7F3
:107E5A0025C6CCF7810E06011C6F080E1D6FC9C717
:107E6A001EF6CAC71FF6CBC720F6CCC721F6CDC768
:107E7A0022F6CEC723F6CFC724F6D0C725F683EC61
:107E8A0024F01CC6D5F71DC6D6F7D5C765F5D6C7E3
:107E9A0066F5020E77EC5DF063EF3FF00601DD5107
:107EAA00010AD8B465EF3EF0030AD8B477EF3EF082
:107EBA00010AD8B496EF3EF063EF3FF0120021EECC
:107ECA0077F2100EDE6AE806FDE2770E0501636FAF
:107EDA00060E646F75C665F576C666F5000E686FA0
:107EEA00110E676F72EC60F006017E05D8A480EF70
:107EFA003FF082EF3FF0A3EF3FF0040E05016B6FF6
:107F0A00000E6C6F000E6D6F7FC66EF53CEC5DF077
:107F1A00150E0501FC6FC60EE82EFED7FC2FFCD706
:107F2A000000040E0501696F000E6A6F000E6B6F88
:107F3A00C1EC62F00601BE6FCCEF3FF0020E7E1973
:107F4A00D8A4AAEF3FF0ACEF3FF0CCEF3FF0040E1D
:107F5A0005016B6F000E6C6F000E6D6F7FC66EF5BC
:107F6A003CEC5DF0150E0501FC6FC60EE82EFED73F
:107F7A00FC2FFCD70000040E0501696F000E6A6F22
:107F8A00000E6B6FC1EC62F000080601BE6F80053F
:107F9A00D8A4D2EF3FF0D4EF3FF0F5EF3FF0050E53
:107FAA0005016B6F000E6C6F000E6D6F81C66EF56A
:107FBA003CEC5DF0150E0501FC6FC60EE82EFED7EF
:107FCA00FC2FFCD70000050E0501696F000E6A6FD1
:107FDA00000E6B6FC1EC62F00601BF6F1EEF40F03E
:107FEA00020E8019D8A4FCEF3FF0FEEF3FF01EEF1F
:107FFA0040F0050E05016B6F000E6C6F000E6D6F81
:10800A0081C66EF53CEC5DF0150E0501FC6FC60EDF
:10801A00E82EFED7FC2FFCD70000050E0501696F7C
:10802A00000E6A6F000E6B6FC1EC62F00008060169
:10803A00BF6F550E776F770E0501636F060E646F7B
:10804A000F0E656FC5EC5CF063C588F664C589F6EA
:10805A0088C687F606018951866F8A6B0B0E636F95
:10806A003E0E646F770E8A25D96EDA6A060EDA2218
:10807A00DF500501FC6FFC510601656F666BB5ECBC
:10808A0066F0100E06018A614DEF40F04FEF40F0A6
:10809A0055EF40F0D20E636F3D0E646FB5EC66F09B
:1080AA0006018A2B100E8A655DEF40F05FEF40F003
:1080BA0033EF40F0770E0501636F060E646F000E12
:1080CA00656F000E666F000E686F110E676F72ECB7
:1080DA0060F0120008C7CFF509C7D0F50AC7D1F575
:1080EA000BC7D2F5BFC5CFF5C0C5D0F5C1C5D1F50F
:1080FA00C2C5D2F5810E0501C36FFF0EC46FCFC58D
:10810A00C5F5D0C5C6F5D1C5C7F5D2C5C8F5180E8F
:10811A0094EF40F0D890C833C733C633C533E82E3E
:10812A008FEF40F0C551C325CD6F000EC421CE6F2D
:10813A00CEBFA9EF40F0CE5109E1170ECD5DD8A010
:10814A00A9EF40F0ABEF40F0B5EF40F0BFC5BFF587
:10815A00C0C5C0F5C1C5C1F5C2C5C2F579EF41F0C8
:10816A00CEBFBAEF40F0BCEF40F02DEF41F0CDC5E5
:10817A00C3F5FF0EC46FFF0EC56F7F0EC66F000EEC
:10818A00C76FC367CBEF40F0D3EF40F0C735C733B3
:10819A00C633C533C433C32FC6EF40F0C4C5C9F5CF
:1081AA00C5C5CAF5C6C5CBF5C7C5CCF50501C951C4
:1081BA00CF15C36FCA51D015C46FCB51D115C56F36
:1081CA00CC51D215C66FC351C411C511C611D8A45A
:1081DA00F1EF40F0F3EF40F0F5EF40F0ABEF40F095
:1081EA00CFC5C3F5D0C5C4F5D1C5C5F5D2C5C6F549
:1081FA00200E05EF41F0D890C633C533C433C333DC
:10820A00E82E00EF41F0C351C411C511C611D8B40C
:10821A0011EF41F013EF41F01BEF41F0C951CF27A5
:10822A00CA51D023CB51D123CC51D223C91DC36FFC
:10823A00CA1DC46FCB1DC56FCC1DC66FC351CF17E6
:10824A00C451D017C551D117C651D21771EF41F099
:10825A00CFC5C3F5D0C5C4F5D1C5C5F5D2C5C6F5D8
:10826A00200E3DEF41F0D890C633C533C433C33333
:10827A00E82E38EF41F0C351C411C511C611D8A474
:10828A0049EF41F04BEF41F055EF41F0000ECF6F4F
:10829A00000ED06F000ED16F000ED26F71EF41F059
:1082AA00D890CF35C36FD035C46FD135C56FD235AD
:1082BA00C66FC351C411C511C611D8B467EF41F0D6
:1082CA0069EF41F071EF41F0000ECF6F000ED06FF1
:1082DA00800ED16FBF0ED26FCFC5BFF5D0C5C0F526
:1082EA00D1C5C1F5D2C5C2F512004CC767F54DC755
:1082FA0068F54EC769F54FC76AF5FDEC5BF067C5CF
:10830A0056F668C557F669C558F66AC559F66AEF4A
:10831A0042F0010EC9EC66F0ABEC68F063C54CF7AD
:10832A0064C54DF765C54EF766C54FF7020E0601DF
:10833A00DE6F7AEF42F059515811571109E1C90E0F
:10834A00565DD8A0ABEF41F0ADEF41F07AEF42F0C5
:10835A00010EDDEC66F0ABEC68F063C54CF764C562
:10836A004DF765C54EF766C54FF7030E0601DE6F7A
:10837A007AEF42F0010EDF6F000E0501AA6F000EC0
:10838A00AB6F7A0EAC6F440EAD6F1C0E7BEC42F0F5
:10839A0005016BC598F56CC599F59A6B9B6B000E38
:1083AA0055EC44F098C5A6F599C5A7F59AC5A8F560
:1083BA009BC5A9F52AEC36F0A6C5BFF5A7C5C0F539
:1083CA00A8C5C1F5A9C5C2F5000E0501C36F000E07
:1083DA00C46F110EC56F430EC66F4DEC30F0BFC5AA
:1083EA00EBF6C0C5ECF6C1C5EDF6C2C5EEF6160E43
:1083FA0030EC3DF0D8C55AF6D9C55BF6DAC55CF65D
:10840A00DBC55DF6EBC6C3F5ECC6C4F5EDC6C5F52E
:10841A00EEC6C6F55AC6BFF55BC6C0F55CC6C1F561
:10842A005DC6C2F54DEC30F0BFC5A6F5C0C5A7F5CF
:10843A00C1C5A8F5C2C5A9F5000E0501AA6F000EAF
:10844A00AB6F7A0EAC6F440EAD6F2AEC36F0A6C550
:10845A00E7F6A7C5E8F6A8C5E9F6A9C5EAF650C73A
:10846A0022F651C723F652C724F653C725F618EC4D
:10847A0064F022C6E3F623C6E4F624C6E5F625C66A
:10848A00E6F68E0E06011C6F070E1D6FE3C61EF67A
:10849A00E4C61FF6E5C620F6E6C621F6E7C622F6CA
:1084AA00E8C623F6E9C624F6EAC625F683EC24F0E4
:1084BA001CC6EFF61DC6F0F6EFC665F5F0C666F502
:1084CA00010E77EC5DF07AEF42F00601DE51010A07
:1084DA00D8B48EEF41F0030AD8B4A0EF41F0010AF4
:1084EA00D8B4BFEF41F07AEF42F0120005018B6F6A
:1084FA00000E0501936F000E926F8B51B0EC64F081
:10850A00D89005019235D96E9335DA6E730ED92655
:10851A00050EDA2263C5DEF464C5DDF4924B932BB3
:10852A0093BFA1EF42F0935109E10C0E925DD8A0DE
:10853A00A1EF42F0A3EF42F082EF42F0000E916FFA
:10854A00000E906F000E956F000E946F000E976FDD
:10855A00000E966F18EF43F0D8909635D96E97357E
:10856A00DA6E730ED926050EDA2296C56FF597C50F
:10857A0070F5D8906F377037020E6F27000E702390
:10858A00730E6F25E16E050E7021E26EDE50E65C19
:10859A00DE50E658D8B0D4EF42F0D6EF42F016EFEC
:1085AA0043F0D8909635D96E9735DA6E730ED92680
:1085BA00050EDA22DEC48CF5DDC48DF596C56DF59F
:1085CA0097C56EF5D8906D376E37020E6D27000E7F
:1085DA006E23730E6D25D96E050E6E21DA6ED89054
:1085EA009635E16E9735E26E730EE126050EE222AC
:1085FA00DEC4E6F4DDC4E5F496C56DF597C56EF5FF
:10860A00D8906D376E37020E6D27000E6E23730EEB
:10861A006D25D96E050E6E21DA6E8CC5DEF48DC518
:10862A00DDF4964B972B0B0E6D6F000E6E6F945107
:10863A006D5F95516E5B6D51965D9751800A6F6FB4
:10864A006E51800A6F59D8A02DEF43F02FEF43F0F7
:10865A00B1EF42F0944B952B95BF3DEF43F0955106
:10866A0009E10B0E945DD8A03DEF43F03FEF43F0D4
:10867A00ABEF42F0000E956F020E946FD8909435CE
:10868A00D96E9535DA6E730ED926050EDA22DE50CA
:10869A009027DD509123944B952B95BF5EEF43F0C5
:1086AA00955109E10A0E945DD8A05EEF43F060EFA0
:1086BA0043F043EF43F090C563F591C564F5000EAE
:1086CA00666F080E656FF2EC55F063C58EF564C5EA
:1086DA008FF58EC56BF58FC56CF51200050183BF4A
:1086EA0079EF43F07CEF43F0010E7DEF43F0000E8B
:1086FA008A6F0601C4BF84EF43F086EF43F087EF29
:10870A0043F0D193C4BF8EEF43F08CEF43F095EF63
:10871A0043F0000E0501876F010E866F99EF43F053
:10872A00C3C686F5C4C687F5C1C688F5C2C689F52B
:10873A0005018A51D8B4A4EF43F0A6EF43F0BDEF88
:10874A0043F08807D8A089078A51D8A4AFEF43F02D
:10875A00B1EF43F0B7EF43F0000E856F2B0E846F35
:10876A00BBEF43F0000E856F2D0E846F84C58AF52A
:10877A00000E8C6F4F0E8B6F0901A06BF7EF43F061
:10878A0005018B07D8A08C07510E8B25D96E090ECF
:10879A008C21DA6E82C563F583C564F5000E666FB7
:1087AA000A0E656F7EEC58F063C569F564C56AF513
:1087BA005DEC65F005016951300FDF6E8607D8A0C0
:1087CA0087078807D8A0890782C563F583C564F53A
:1087DA00000E666F0A0E656FF2EC55F063C582F5FE
:1087EA0064C583F505018CBF03EF44F08C5108E1A1
:1087FA008B05D8A003EF44F005EF44F030EF44F0C6
:10880A0082518311D8A40CEF44F00EEF44F0C5EF67
:10881A0043F087BF1BEF44F0875106E18605D8B0C5
:10882A0019EF44F01BEF44F0C5EF43F089BF26EF80
:10883A0044F0895108E18805D8A026EF44F028EFD2
:10884A0044F030EF44F00601D1B32EEF44F030EF9C
:10885A0044F0C5EF43F005018A51D8B437EF44F02C
:10886A0039EF44F044EF44F08B07D8A08C07510E3F
:10887A008B25D96E090E8C21DA6E8AC5DFF480C584
:10888A0077F581C578F5510E8B25796F090E8C2104
:10889A007A6F88C57BF589C57CF5D8EC59F012004A
:1088AA000501A06F0501A051D8B45EEF44F060EF56
:1088BA0044F082EF44F09BBF67EF44F065EF44F069
:1088CA0082EF44F098C59CF599C59DF59AC59EF529
:1088DA009BC59FF59C1F9D1F9E1F9F1F9C2B000ED3
:1088EA009D239E239F239CC5A2F59DC5A3F59EC5E6
:1088FA00A4F59FC5A5F58AEF44F098C5A2F599C5D8
:10890A00A3F59AC5A4F59BC5A5F5985199119A1195
:10891A009B11D8A493EF44F095EF44F09FEF44F0F5
:10892A00000E986F000E996F000E9A6F000E9B6FE3
:10893A0030EF45F0960EA16FA9EF44F0A12BD89025
:10894A00A533A433A333A233000EA2159C6F000EE5
:10895A00A3159D6F000EA4159E6FFE0EA5159F6FA1
:10896A009C519D119E119F11D8A4BEEF44F0C0EFF7
:10897A0044F0A3EF44F0CEEF44F0A12B010EA2275E
:10898A00000EA323A423A523D890A533A433A3338D
:10899A00A233000EA2159C6F000EA3159D6F000E48
:1089AA00A4159E6FFF0EA5159F6F9C519D119E11D8
:1089BA009F11D8A4E3EF44F0E5EF44F0C2EF44F08E
:1089CA00EDEF44F0A107D890A237A337A437A53713
:1089DA00A4BFF2EF44F0F4EF44F0FCEF44F0020ECF
:1089EA00A161FAEF44F0FCEF44F0E7EF44F0A1B1E3
:1089FA0001EF45F003EF45F004EF45F0A49FD8904E
:108A0A00A133A1C59CF59D6B9E6B9F6B9CC59FF581
:108A1A009E6B9D6B9C6B9C51A2139D51A3139E51FF
:108A2A00A4139F51A513A051D8B41EEF45F020EF0F
:108A3A0045F028EF45F09BBF27EF45F025EF45F0BD
:108A4A0028EF45F0A58FA2C598F5A3C599F5A4C549
:108A5A009AF5A5C59BF51200000E06018A6F000E55
:108A6A008B6F000E8C6F000E8D6F21EE79F2100E57
:108A7A00DE6AE806FDE2790E0501636F060E646F91
:108A8A0075C665F576C666F5000E686F110E676FD6
:108A9A0072EC60F00601946B9451776F786B070E55
:108AAA007727000E7823790E7725D96E060E78215E
:108ABA00DA6E8A0E9425E16EE26A060EE222DFC4BD
:108ACA00E7F4150E0601776FC60EE82EFED7772F4C
